:020000040800F2
:10000000D80600200D020008DF310008BF270008D5
:10001000DD3100085D040008353B000800000000E9
:10002000000000000000000000000000E3310008B4
:10003000F504000800000000E1310008E531000887
:1000400027020008270200082702000827020008EC
:1000500027020008270200082702000827020008DC
:1000600027020008270200082702000827020008CC
:100070002702000827020008270200086104000880
:1000800027020008270200081903000827020008B9
:10009000270200082702000827020008270200089C
:1000A000270200082702000827020008270200088C
:1000B0002702000827020008D9320008CD270008CF
:1000C000C1270008270200082702000827020008AD
:1000D000270200082702000827020008270200085C
:1000E000270200082702000827020008270200084C
:1000F000270200082702000827020008270200083C
:10010000270200082702000827020008270200082B
:100110008936000827020008270200082702000885
:100120006D040008270200082702000827020008C3
:1001300027020008270200082702000827020008FB
:1001400027020008270200082702000827020008EB
:1001500027020008270200082702000827020008DB
:1001600027020008270200082702000827020008CB
:1001700027020008270200082702000800000000EC
:1001800027020008270200082702000827020008AB
:10019000270200082702000827020008270200089B
:1001A000270200082702000827020008270200088B
:1001B000270200082702000827020008270200087B
:1001C000270200082702000800000000270200089C
:1001D000270200082702000827020008270200085B
:1001E000270200082702000827020008270200084B
:1001F0002702000827020008DFF80CD000F07AF888
:1002000000480047793B0008D80600200648804790
:1002100006480047FEE7FEE7FEE7FEE7FEE7FEE7EB
:10022000FEE7FEE7FEE7FEE785320008F901000879
:100230002DE9F05F0546002092469B46884606461B
:10024000814640241BE0284641464746224600F0AE
:1002500041F853465A46C01A914110D311461846E8
:10026000224600F028F82D1A67EB01084F46224677
:100270000120002100F01FF817EB00094E41201E5D
:10028000A4F10104DFDC484631462A464346BDE876
:10029000F09FD2B201E000F8012B491EFBD270475B
:1002A0000022F6E710B513460A4604461946FFF742
:1002B000F0FF204610BD202A04DB203A00FA02F1AC
:1002C000002070479140C2F1200320FA03F3194344
:1002D00090407047202A04DB203A21FA02F00021E6
:1002E000704721FA02F3D040C2F120029140084346
:1002F00019467047064C074D06E0E06840F00103E0
:1003000094E8070098471034AC42F6D3FFF778FF23
:10031000043C0008243C0008014800F0A3B9000098
:10032000180000204A496FF0706210B5D1F804330C
:1003300023F44033C1F80433D1F804334468234331
:10034000C1F8043301684B6823F480734B60016883
:1003500003694C6844EA03234B6001684B6823F04F
:1003600040734B60016884684B6823434B600168AD
:100370008B6823F400638B600168C4688B68234337
:100380008B60816AD14201688A6822F070628A605B
:1003900001680DD0836A8A681A438A6001688A6896
:1003A00022F040528A600168C36A8A681A4302E0F8
:1003B0008A6822F040528A6001688A6822F002024C
:1003C0008A60016882698B6843EA42028A6090F819
:1003D00020100029016811D01E4A4B6843F40063C5
:1003E0004B6001684B6823F460434B600168446ACA
:1003F0004B6802EB443213434B6003E04A6822F43B
:1004000000624A600168144BCA6A22F47002CA6230
:100410000168848BCA6A03EB04531A43CA620168F9
:100420008A6822F400728A60016890F830208B6834
:1004300043EA42228A6001688A6822F480628A6004
:10044000016840698A6842EA8020886010BD000027
:100450000020014000E0FFFF0000F0FFFEE7000089
:10046000014800F021BB000074020020014800F0A8
:100470001BBB00006000002001681823CAB2103ABC
:10048000B2FBF3F2054B6FF30901032A9B5CC365D2
:1004900000D9091D8165084670470000E43B00084B
:1004A00010B583694FF0C074826A0146002053B1D1
:1004B000B3F5005F15D072B1012A0CD0022A0AD020
:1004C000032A09D104E01AB1012A06D0022A03D175
:1004D000C96AC90100D5012010BDC96AA142FAD07C
:1004E00010BD002AF7D0012AF2D0022AF3D0032A45
:1004F000F3D010BD7047704770470000F8B5002575
:10050000009590F83C20012A18D0012280F83C2068
:100510000A6807234E4C0668092A1AD90A3A02EBE0
:100520004207F268BB409A43F2600E680268A64236
:1005300006D10B7AD66846EA036308E00220F8BDCC
:100540000A3E8B68D76806EB4606B3403B43D36050
:100550000EE002EB42073269BB409A433261036806
:100560000E788A681F6906EB4606B2403A431A6164
:100570004A681F23072A13D20668521E02EB82071D
:10058000726BBB409A43726303680E790A88761EC9
:100590005F6B92B206EB8606B2403A435A6327E09D
:1005A00006680D2A12D2D21F02EB8207326BBB40C3
:1005B0009A43326302680E790B88F61F176B9BB261
:1005C00006EB8606B3403B43136311E00D3A02EBA2
:1005D0008207F26ABB409A43F26202680E790B8886
:1005E0000D3ED76A9BB206EB8606B3403B43D3620F
:1005F000184A0368934208D10B68122B05D1D2F830
:10060000043343F48003C2F80433036893421AD1DD
:100610000B68A34201D0112B15D1D2F8043343F457
:100620000003C2F804330968A1420CD10A490B4AFD
:100630000968B1FBF2F101EB8101490000E0491EBC
:1006400000910029FBD180F83C500020F8BD00004B
:1006500012000010002001401400002040420F0052
:100660007047704770B50446006801684268C1F37E
:100670004001C2F3401251B34AB3216CC90603D4FE
:10068000216C41F400712164816811F0405F17D141
:10069000A169A9B9C16A11F4700F02D08168490536
:1006A0000ED4416821F020014160206C20F480705C
:1006B0002064206CC00403D4206C40F0010020644E
:1006C0002046FFF7CDFF21686FF012000860206818
:1006D00001684268C1F38001C2F3C01289B382B3DA
:1006E000216CC90603D4216C41F400512164816856
:1006F00011F4401F1ED1816B11F4401F02D081689C
:10070000490517D44168490514D4816811F0405F48
:1007100010D1A16971B9416821F080014160206C5C
:1007200020F480502064206CC00503D4206C40F07D
:10073000010020642046FFF7DFFE21686FF00C0007
:10074000086020680168436811F0010FC3F380114D
:100750000ED069B10068C0070AD0206C40F4803028
:100760002064204600F046F821686FF00100086020
:10077000206801684268C1F340110029C2F3806219
:100780000DD0002A0BD0616C6FF0200541F0020102
:10079000616405602046FFF764FF2068056070BD56
:1007A00070B504004FF0000503D0206C002610B196
:1007B00007E0012070BD204600F01EF8666484F852
:1007C0003C60206CC00610D4206C20F4885040F0AF
:1007D000020020642046FFF7A5FD6664206C20F02F
:1007E000020040F00100206400E0012584F83C6034
:1007F000284670BD70470000F0B587B0064614214A
:100800006846FFF74DFD30493068884259D12F487E
:10081000016841F48071016000682C4900F4807027
:1008200005901439086840F004000860086800F07A
:1008300004000590086840F001000860086800F0B6
:1008400001000590086840F0020008600868032471
:100850000025694600F00200059013208DE8310064
:100860001B4800F075FAF02069468DE83100194800
:1008700000F06EFA009469461748CDE9014500F092
:1008800067FA164C16480115C4E900058715A560DE
:100890000B01C4E9035182142046C4E9077565625F
:1008A000C4E9052300F0D0F908B1FFF724FE0022C7
:1008B000B46312201146A66300F0DAFC122000F0A7
:1008C000C9FC07B0F0BD00000020014044380240E0
:1008D00000080240000002400004024060000020C6
:1008E0001064024070B5040003D094F8200010B1E9
:1008F00004E0012070BD204600F082F82068016805
:1009000021F00201016000F01BFB0526054604E012
:1009100000F016FB401B0A2811D8206840688007A9
:10092000F6D42068016841F00101016000F008FB85
:1009300005460BE000F004FB401B0A2806D9606A5C
:1009400040F40030606284F82060D2E7206840689C
:10095000C007EFD0207E0128206801683DD021F03B
:1009600080010160607E01282068016838D021F094
:1009700040010160A07E01282068016833D021F089
:1009800020010160E07E0128206801682ED041F03E
:1009900010010160207F01282068016829D021F022
:1009A00008010160607F01282068016824D021F0DF
:1009B00004010160D4E90110D4E903326569491EDC
:1009C000184323682A43104300220843D8610121B9
:1009D000626284F82010104670BD41F08001C0E7CB
:1009E00041F04001C5E741F02001CAE721F01001C4
:1009F000CFE741F00801D4E741F00401D9E7000056
:100A000010B586B0044614216846FFF749FC1A4920
:100A1000206888422ED11948016841F400510160D4
:100A2000016801F400510591016841F080610160A5
:100A3000016801F080610591016841F00071016079
:100A4000006800F0007005900C481038016841F013
:100A50000201016000680221002200F002000590FE
:100A6000032309244FF440508DE81F0004486946D1
:100A700000F06EF906B010BD00680040403802403A
:100A80000004024090F83510022903D0802141650E
:100A900001207047052180F835100068016821F0B9
:100AA00001010160002070472DE9F84304464FF032
:100AB0000009644B0820CDF800904FF41652A56D44
:100AC00094F85C101B682E68B3FBF2F700FA01F192
:100AD00031420FD021680A6852070BD50A6822F00C
:100AE00004020A6094F85C108840A860606D40F0D1
:100AF0000100606594F85C104FF0010808FA01F0FD
:100B0000304208D021684969090604D5A860606DA3
:100B100040F00200606594F85C1004208840304288
:100B200008D021680968890704D5A860606D40F085
:100B30000400606594F85C1010208840304218D0A2
:100B400021680968090714D5A8602068016849036D
:100B500004D50068000308D5A16C07E00168C90549
:100B600003D4016821F008010160216C09B120461D
:100B7000884794F85C1020208840304231D02168AA
:100B80000968C9062DD5A86094F8350005282068A5
:100B9000016806D0490347D5006800031DD4616C85
:100BA0001CE021F0160101602068416921F08001FC
:100BB0004161206C08B9A06C20B12068016821F067
:100BC0000801016094F85C303F229A40AA6084F8E2
:100BD000349084F83580216D1FE0E16B09B1204627
:100BE0008847606D00282BD0606DC00714D00520A9
:100BF00084F835002068016821F001010160009847
:100C0000401C0090B84203D820680068C007F6D1A5
:100C100084F8349084F83580E16C002910D001B05C
:100C20002046BDE8F04308470168C905D5D40368EC
:100C300023F01003036084F8349084F83580CCE707
:100C4000BDE8F883140000202DE9F047044600F0C9
:100C500077F9054664B14FF0000984F83490022119
:100C600084F835102068016821F0010101600EE070
:100C70000120BDE8F08700BF00F062F9401B0528A5
:100C800005D920216165032084F83500F1E720684B
:100C90000068C007F0D1D4E90020D4E90251D4E9BA
:100CA000043C284304F1180519430843116895E8EA
:100CB000E00140EA0C001C4B2843194040EA0600C2
:100CC00040EA0700B8F1040F40EA010003D1D4E97B
:100CD0000B1319430843106020680126656A4069B8
:100CE000042D20F0070045EA00050CD1D4E90A01E3
:100CF000054341B12046FFF7D3FB20B1402060659A
:100D000084F83560B4E7206845612046FFF7B4FBFE
:100D100094F85C303F229A408260C4F8549084F882
:100D200035600020A5E700003F8010E070B5044664
:100D300000F006F90546601C02D00448007804441F
:100D400000F0FEF8401BA042FAD370BD080000205E
:100D50002DE9F84FDFF89CE100224FF001084FF039
:100D6000030B4FF00F0A00BF0B6808FA02F4234090
:100D7000A34271D14D68022D01D0122D0FD1D5089B
:100D80000E69570700EB8505A9462D6AFF0E0AFA82
:100D900007FCBE4025EA0C052E43C9F820600F79F8
:100DA000550006680BFA05FC07F0030726EA0C0657
:100DB000AF40374307604E68012E05D0022E03D0A6
:100DC000112E01D0122E0ED18668CF6826EA0C06AD
:100DD000AF403743876046680F79A643C7F30017D3
:100DE000974037434760C4688E6824EA0C04AE40DD
:100DF0002643C6604C68E40075D53F4C256845F431
:100E000080452560246822F00306950704F4804499
:100E100000943A4C2D0F2644D6F80848DFF8E0C07D
:100E20000AFA05F7604524EA070401D100272EE0FD
:100E3000344FB84201D1012729E0334FB84201D1E4
:100E4000022724E0314FB84201D103271FE0304F81
:100E5000B84202D104271AE045E02E4FB84201D132
:100E6000052714E02C4FB84201D106270FE02B4F85
:100E7000B84201D107270AE0294FB84201D108271B
:100E800005E0284FB84201D1092700E00A27AF400A
:100E900027437546C6F808784E68DEF80040F6032A
:100EA00024EA030400D51C43124E2C60361D4D6805
:100EB0003468AD0324EA030400D51C430D4F3460AD
:100EC00008374D683C68ED0224EA030400D51C4352
:100ED000084D3C600C354E682C68B60224EA0304C9
:100EE00000D51C432C60521C102AFFF43DAFBDE816
:100EF000F88F0000003C01404438024000300140BF
:100F0000000002400004024000080240000C0240C1
:100F1000001002400014024000180240001C024071
:100F20000020024000240240426931EA020200D15E
:100F30000904816170470AB1816170470904FBE7C8
:100F400001488068704700000800002030B590F824
:100F50004120202A24D190F84020012A20D00123CA
:100F600080F84030242280F84120202300240268A9
:100F7000156825F0010515600268156825F480558F
:100F80001560026815680D43156001680A6842F033
:100F900001020A6080F8413080F84040002030BDF6
:100FA000022030BD30B590F84120202A22D190F89F
:100FB0004020012A1ED0012380F84030242280F8EE
:100FC0004120202400250268136823F001031360E8
:100FD0000268136823F4706343EA01211160016819
:100FE0000A6842F001020A6080F8414080F84050EF
:100FF000002030BD022030BD7047704730B4036818
:101000009A691968D243D40509D4CC43240606D47E
:10101000456C4FF4807445F001054564DC6153056F
:101020000AD4CB431B0607D4446C4FF4806344F0CE
:10103000080444640468E36192050AD4C9430906BC
:1010400007D4426C4FF4007142F00202426402681D
:10105000D161416C11F00B0F02D030BC01F050BCDB
:1010600030BC70470268436B91691268002B00D056
:10107000184770477047000070B5040004D094F81A
:101080004100002510B106E0012070BD204684F823
:10109000405000F04FF8242084F841002068016897
:1010A00021F001010160D4E9001020F070600861B6
:1010B0002068816821F400418160E068216801288E
:1010C000A06806D040F404408860E068022803D09D
:1010D00006E040F40040F7E721684FF40060486004
:1010E00020212068114A4368134343602068C26886
:1010F00022F40042C26054F8106B0DCC104340EA59
:101100000320F06054F81C3CD4E90002104318603E
:1011100054F81C0D026842F001020260656484F814
:101120004110256384F84250002070BD0080000209
:101130007047000010B586B0044614216846FFF7DA
:10114000AFF81A49206888422DD11948016841F04A
:101150000201016000681221012200F002000590E6
:10116000C020032304248DE81F0012486946FFF7BE
:10117000EFFD0F481030016841F400110160006874
:101180000022114600F4001005901F2000F070F8B6
:101190001F2000F05FF800222020114600F068F8C0
:1011A000202000F057F806B010BD000000540040A9
:1011B000303802400004024070477047024881689E
:1011C000027811448160704708000020032010B5A8
:1011D00000F06EF8002000F005F800F023F8002081
:1011E00010BD000070B50D4D04464FF47A700C4AE6
:1011F00029781268B0FBF1F0B2FBF0F000F0C2FD0C
:1012000048B9102C07D200222146501E00F030F8B9
:1012100000206C6070BD012070BD0000080000203F
:10122000140000200A4808B5016841F080510160AF
:10123000006800F0805000900548001D016841F4EE
:1012400080410160006800F48040009008BD00000B
:1012500040380240002809DB410900F01F028900E4
:10126000012001F1E0219040C1F800017047000029
:101270000E4BF0B41B680D46C3F30223C3F10706FF
:10128000042E00D90426191D072901D2002300E0ED
:10129000DB1E012404FA06F19C40491E2940641E0D
:1012A000994014402143F0BC02F045BC0CED00E035
:1012B000064900F0070210B54FF6FF040868044B1A
:1012C000204040EA02201843086010BD0CED00E009
:1012D0000000FA051848F8B5016841F08051016036
:1012E0000068164C00F080500090206840F4803078
:1012F0002060FFF725FE4FF47A76054605E000BF33
:10130000FFF71EFE401BB0420FD86068C003F7D540
:10131000206840F400302060FFF712FE054606E02A
:10132000FFF70EFE401BB04201D90320F8BD6068F4
:101330008003F5D50020F8BD403802400070004021
:101340002DE9F84F04460078DFF824944FF00006AA
:101350003746C0070ED0D9F8001021F40001C9F8B3
:101360000010D9F80010626B1143C9F80010606BCF
:1013700000B90126FE4D2068843500030ED5E16BCF
:10138000286820F4401008432860E06BB0F5801F07
:1013900001D010B102E0012600E0012720684FF4DF
:1013A000800BC0020CD5216C286820F44000084353
:1013B0002860206C584501D1012601E000B90127C1
:1013C0002068C10100D50126800666D5E84838307E
:1013D000016841F0805101600068DFF898A300F0D7
:1013E00080500090DAF8001041F48071CAF80010C3
:1013F000FFF7A6FD804605E0FFF7A2FDA0EB080081
:1014000064287DD8DAF80000C005F5D5DFF86083E0
:1014100008F16808D8F8000010F440702AD0218E36
:1014200001F44071814225D0D8F80010D8F800208E
:1014300021F4407142F48032C8F80020D8F800202E
:1014400022F48032C8F80020C8F80010D8F8000054
:10145000C0070FD0FFF774FD824607E0FFF770FD6D
:10146000A0EB0A0141F288308142CAD8D8F80000C6
:101470008007F3D5206BC0F3012103297ED0D9F872
:10148000001021F4F811C9F80010228ED8F80010CD
:10149000C2F30B021143C8F800102078C00607D52C
:1014A000286820F0807028602868A16B08432860B5
:1014B0002188AF488830490405D5626E016821F45F
:1014C0004031114301602188090405D5A26E0168ED
:1014D00021F44021114301602168C90305D5E26E62
:1014E000016821F44011114301602168890305D589
:1014F000226F016821F4400111430160217800E06E
:1015000034E1490605D5626C016821F003011143FD
:1015100001602178090605D5A26C016821F00C0153
:10152000114301602188C90505D5E26C016821F0ED
:101530003001114301602188890505D5226D0168BC
:1015400021F0C001114301602188490505D5626D74
:10155000016821F44071114301602188090505D516
:10156000A26D016821F44061114301602188C90422
:1015700007D5E26D016821F4405100E05FE01143BE
:1015800001602188890405D5226E016821F440415B
:10159000114301602168490205D5A26F016821F05D
:1015A00080611143016021684FF0006A890209D50A
:1015B000E26F016821F0006111430160E16F514564
:1015C00000D1012721680A0700D50127490305D565
:1015D000626F016821F040711143016021680902C6
:1015E00006D5D4F88020016821F0805111430160B4
:1015F0002168490106D5D4F88420016821F0005102
:10160000114301602068000106D5D4F888102868CD
:1016100020F00070084328602068C00006D5D4F888
:101620008C10286820F0806008432860DFF848911B
:10163000012E0ED02068B0F1007F0AD08FE04F4A13
:10164000D9F80030104023F4F8120243C9F8002002
:101650001BE7D9F800004E4620F08060C9F8000072
:10166000FFF76EFC804605E0FFF76AFCA0EB080080
:1016700064287BD830680001F6D421783C487C305F
:10168000C90712D0616B81B9237A62680168D0F80A
:1016900000C09201C1F3014142EA0142CCF303616F
:1016A00042EA016141EA0371016021680A0303D53E
:1016B000E26BB2F5801F04D0C9021AD5216C5945DE
:1016C00017D16368016894F80CC002689B01C1F3EC
:1016D000014143EA0141C2F3027241EA0C6141EA6D
:1016E000027101602968626A21F01F01521E1143D4
:1016F00029602168C90110D5238A62680168D0F881
:1017000000C09201C1F3036142EA034242EA01626E
:10171000CCF3027142EA01710160216889010CD5A4
:101720006168228A237B94F808C0890141EA02415A
:1017300041EA036141EA0C7101603168B04641F051
:1017400080613160FFF7FCFB064604E0FFF7F8FB21
:10175000801B64280AD8D8F800000001F6D5E7B34A
:10176000D9F800004E4620F0805009E07BE00000F0
:10177000083802400070004000380240FFFCFF0FB4
:10178000C9F80000FFF7DCFB074604E0FFF7D8FBD1
:10179000C01B642867D83068C0438000F6D5216834
:1017A00035480A0301D5E26B1AB1C9021DD5216C77
:1017B000D9B963690168277E02689B01C1F30141C1
:1017C00043EA0143C2F3027143EA076242EA01714C
:1017D000016029686FF0FF0300E04BE0A26A21F48A
:1017E000F85103EB0222114329602168890212D5C6
:1017F000E16F51450FD1238C62690168076892013E
:10180000C1F3036142EA034242EA0162C7F3027193
:1018100042EA017101602178090716D56169026801
:10182000D0F800C08B01277FC2F30362CCF30141E3
:1018300043EA014141EA026141EA07710160286817
:10184000E16A20F4403008432860306840F080505E
:101850003060FFF775FB044608E000BFFFF770FB40
:10186000001B642802D90320BDE8F88F3068C0430C
:101870008000F3D40020F7E7883802402DE9F047D4
:1018800005000F4663D0444E306800F00F00B842A8
:1018900009D2306820F00F0038433060306800F023
:1018A0000F00B84253D128683C4C810712D540073D
:1018B00003D5206840F4E05020602878000703D565
:1018C000206840F460402060A968206820F0F000A3
:1018D000084320602878C0072AD030496868083952
:1018E000012810D00968022810D0890700292EDAB3
:1018F000216821F0030101432160FFF721FB8046AD
:1019000041F288390DE009688903EFE78901EDE7C5
:10191000FFF716FBA0EB0801494502D90320BDE8FB
:10192000F0876868216801F00C01B1EB800FEFD1FE
:10193000306800F00F00B8420BD9306820F00F007B
:1019400038433060306800F00F00B84201D0012009
:10195000E5E72878400705D5E968206820F4E050DD
:10196000084320602878000706D52869216821F4FB
:10197000604141EAC000206000F036F82168084A62
:10198000C1F30311515CC840064908600020FFF70D
:1019900029FC0020C3E70000003C02400838024058
:1019A000EC3B000814000020044905480968006861
:1019B000044AC1F38221515CC84070470838024094
:1019C00014000020FC3B0008044905480968006831
:1019D000044AC1F34231515CC840704708380240A4
:1019E00014000020FC3B0008154910B51548096893
:1019F00011F00C0213D04110042A0FD0082A0ED186
:101A00000F4C241F2268236802F03F025B0207D5B7
:101A10002068C0F38810A0FB010106E0084610BD55
:101A20002168C1F38811A1FB00010023FEF700FC2F
:101A30002168C1F30141491C4900B0FBF1F010BD20
:101A4000083802400024F4002DE9F84F05004FF05B
:101A500000076ED02878DFF82093A9F1040AC007A8
:101A6000AAF104044CD0D9F800104846C1F3810112
:101A7000012908D00068C0F3810002280AD1DAF8F1
:101A80000000400206D52068800339D56868002828
:101A9000DFD035E06868B0F5803F0BD010B1B0F50D
:101AA000A02F11D0206820F480302060206820F41E
:101AB000802002E0206840F480302060686890B1A7
:101AC000FFF73EFA06460AE0206840F480202060D6
:101AD000F0E700BFFFF734FA801B642872D8206853
:101AE0008003F7D50CE0FFF72BFA064605E000BFB0
:101AF000FFF726FA801B6428F0D820688003F7D40B
:101B00002878800742D5D9F80010484611F00C0F0C
:101B100008D00068C0F3810002280BD1DAF8000079
:101B2000400207D42068800718D5E868012800D152
:101B300014E01EE1E8680028206817D040F001009A
:101B40002060FFF7FDF9064605E000BFFFF7F8F952
:101B5000801B0228C2D820688007F7D52869216831
:101B600021F0F80141EAC00020600FE020F0010000
:101B70002060FFF7E5F9064605E000BFFFF7E0F952
:101B8000801B02281ED820688007F7D42878000719
:101B900029D5794869696C3000298046016812D0DE
:101BA00041F001010160FFF7CBF9064605E000BFF7
:101BB000FFF7C6F9801B022804D8D8F80000800778
:101BC000F6D510E089E021F001010160FFF7B8F9D6
:101BD000064604E0FFF7B4F9801B02287DD8D8F848
:101BE00000008007F6D4287840076BD5DFF888819D
:101BF00008F13808D8F80000C0000BD4D8F800105D
:101C000041F08051C8F80010D8F80000012700F01A
:101C10008050009059480168C90512D40168834674
:101C200041F480710160FFF78BF9064605E000BFC3
:101C3000FFF786F9801B64284FD8DBF80000C00549
:101C4000F6D54D4EA868683601280AD008B1052897
:101C500011D0306820F001003060306820F00400BE
:101C600002E0306840F001003060A868A0B1FFF7E2
:101C700067F983460CE0306840F004003060F0E71C
:101C8000FFF75EF9A0EB0B0141F28830814268D882
:101C900030688007F4D50EE0FFF752F9834607E07D
:101CA000FFF74EF9A0EB0B0141F28830814258D882
:101CB00030688007F4D42FB1D8F8001021F080519B
:101CC000C8F80010A869E0B3D9F80010C1F3810189
:101CD00002294ED00228206800E042E020F0807007
:101CE000206003D0FFF72CF905463DE0FFF728F907
:101CF000064604E0FFF724F9801B022831D820684B
:101D00008001F7D4D5E90921DFF874C0D5E90706C9
:101D100095F830304F0895F82C1030430CEB074500
:101D200045EA8212104340EA016040EA0370CAF8B3
:101D30000000206840F080702060FFF701F9054640
:101D400005E014E0FFF7FCF8401B022809D82068E2
:101D50008001F7D50BE000BFFFF7F2F8401B022827
:101D600002D90320BDE8F88F20688001F4D4002058
:101D7000F8E70120F6E70000083802400070004054
:101D80000000FFFF401EB0F1807F10B501D301209D
:101D900010BD4FF0E02460610F21601701F0CBFE11
:101DA0000020A0610721216110BD70477047704776
:101DB0002DE9F04390F83C20012A42D0012280F81E
:101DC0003C2051F80C4BDFF880804FF0000991E87F
:101DD000680051E9022723F44073B1F80CC03B437B
:101DE000CF6923F480631343026823F40063234321
:101DF00023F4805343EA050323F4005343EA060324
:101E000023F4804343EA07030C3923F4702342454B
:101E100043EA0C4302D00D4CA2420CD18D8C23F42A
:101E20007006D1E9073446EA055121F08071194363
:101E300021F000732343536480F83C900020BDE8F8
:101E4000F0830220FBE70000000001400004014095
:101E500070B590F83C20012A24D0134C012580F85D
:101E60003C50022280F83D2002685368A2429668E6
:101E700002D00E4CA24203D14C6823F470032343DA
:101E80000C6823F0700389681C435460002326F01B
:101E9000800602683143916080F83D5080F83C3004
:101EA000184670BD022070BD0000014000040140D2
:101EB00010B5040003D094F83D0010B107E00120F4
:101EC00010BD002084F83C00204600F00DF80220F0
:101ED00084F83D002068211D01F004FA012084F8F7
:101EE0003D00002010BD000008B500680B49884285
:101EF00012D10B48016841F0040101600068002222
:101F0000114600F0040000901E20FFF7B1F9BDE873
:101F100008401E20FFF79EB908BD000000080040E1
:101F2000403802400168094ACB6843F00103CB60A6
:101F3000016888681040062806D0B0F5803F03D0BD
:101F4000086840F0010008600020704707000100A9
:101F500070B5044690F83C00012817D0324B01259B
:101F600084F83C50022084F83D00226890681840B4
:101F700020F47F4090600868502830D00DDC202885
:101F80004DD005DC98B310283BD148E0022070BD4D
:101F9000302844D0402834D139E0602828D0702837
:101FA00006D0B0F5805F2CD0B0F5005F29D10AE0F3
:101FB0004A682068D1E9021301F0FAF920688168C3
:101FC00041F0770109E04A682068D1E9021301F085
:101FD000EFF92068816841F48041816011E0CA68AE
:101FE0004968206801F02CFB2068502107E016E0CA
:101FF000CA684968206801F034FB2068602101F05C
:10200000E0F9002084F83D5084F83C0070BDCA68B7
:102010004968206801F014FB20684021EFE722683E
:1020200001461046EBE7000088FFFEFF704770B5E1
:102030000446006800250169C943890715D4C168B1
:10204000C943890711D4EA1E026101212177206862
:1020500080698007204602D0FFF7E8FF04E000F027
:1020600020F9204600F004FA257720680169C94369
:10207000490717D4C168C943490713D402216FF037
:102080000402026121772068806910F4407F2046B5
:1020900002D0FFF7CBFF04E000F003F9204600F088
:1020A000E7F9257720680169C943090716D4C16893
:1020B000C943090712D404216FF008020261217795
:1020C0002068C0698007204602D0FFF7AFFF04E018
:1020D00000F0E7F8204600F0CBF925772068016989
:1020E000C943C90617D4C168C943C90613D4082116
:1020F0006FF01002026121772068C06910F4407F00
:10210000204602D0FFF792FF04E000F0CAF8204614
:1021100000F0AEF9257720680169C943C90708D1E5
:10212000C168C943C90704D1891E0161204600F076
:10213000A1F920680169C943090609D4C168C943E6
:10214000090605D46FF0800101612046FFF72EFEDD
:1021500020680169C943C90509D4C168C943090692
:1021600005D46FF4807101612046FFF71EFE2068E0
:102170000169C943490609D4C168C943490605D460
:102180006FF040010161204600F08EF9206801697E
:10219000C94389060BD4C168C943890607D46FF0C7
:1021A000200101612046BDE87040FFF700BE70BD10
:1021B00030B587B0044614216846FEF771F82468EC
:1021C0000021184D0220164A0123AC4211D1146897
:1021D00044F010041460126802F0100205924FF4EB
:1021E000C4420092CDE90101CDE903130E486946CE
:1021F00012E0B4F1804F11D1146844F0010414606E
:10220000126802F0010205920A220092CDE9010152
:10221000CDE9031305486946FEF79AFD07B030BDC6
:10222000303802400000014000100240000002402F
:1022300070B5044690F83C0001280ED0012584F8C2
:102240003C50022084F83D000C2A19D007DC5AB11A
:10225000042A0DD0082A1ED10EE0022070BD102ADB
:1022600012D0142A17D113E0206801F0B3F812E05D
:10227000206801F0E9F80EE0206801F021F90AE099
:10228000206801F059F906E0206801F081F902E0C8
:10229000206801F0A9F9002084F83D5084F83C0042
:1022A00070BD704710B5040003D094F83D0010B124
:1022B00007E0012010BD002084F83C00204600F01B
:1022C0000CF8022084F83D002068211D01F00AF876
:1022D000012084F83D00002010BD704770B5044611
:1022E00090F83C000D4601280ED0012684F83C6091
:1022F000022084F83D000C2A45D007DC5AB1042A9C
:102300001BD0082A78D12CE0022070BD102A4ED0B4
:10231000142A71D15DE0206801F05CF820688169C1
:1023200041F0080181612068816921F00401816127
:1023300020682A698169114311E0206801F084F85E
:102340002068816941F4006181612068816921F41C
:102350008061816120682969826942EA0121816185
:102360004AE0206801F0ACF82068C16941F008013A
:10237000C1612068C16921F00401C16120682A6936
:10238000C169114311E0206801F0D6F82068C169E5
:1023900041F40061C1612068C16921F48061C161BB
:1023A00020682969C26942EA0121C16124E02068EC
:1023B00001F0EEF82068416D41F0080141652068A8
:1023C000416D21F00401416520682A69416D114386
:1023D00011E0206801F008F92068416D41F40061C6
:1023E00041652068416D21F480614165206829695B
:1023F000426D42EA01214165002084F83D6084F885
:102400003C0070BD10B5040003D094F83D0010B13D
:1024100007E0012010BD002084F83C00204600F0B9
:102420000DF8022084F83D002068211D00F05AFFBD
:10243000012084F83D00002010BD000008B50068B0
:102440000949884201D1094804E0B0F1804F09D11F
:102450000648001F016841F001010160006800F0BA
:102460000100009008BD0000000001404438024017
:102470007047000010B50068084988420CD1084C2C
:102480006068401C6060B0F5FA7F05DB05480915FF
:10249000FEF74AFD0020606010BD0000000800400B
:1024A00000000020000C0240704770472DE9F04109
:1024B000026804460025D0691168936810F00F0F78
:1024C0005BD003F0010601F49077374369D0C7076A
:1024D00007D0CF0505D501271762E26F42F0010250
:1024E000E267820708D5DA0706D0276802223A6237
:1024F000E26F42F00402E267420708D5DA0706D02D
:10250000236804221A62E26F42F00202E2670207C5
:102510000AD501F02002324306D0236808221A624D
:10252000E26F42F00802E267E26F002A32D08006D2
:1025300005D5880603D5216E09B120468847216854
:10254000E06F8968490601D4000725D5204601F0CF
:102550002DF920688168490619D5816821F040016C
:102560008160E06E98B11A490165E06EFEF78AFA63
:1025700000280FD0E06E016D06E0830611D58B06B2
:102580000FD5216E12E02046BDE8F04108472046F5
:10259000FFF78BFFBDE8F0812046FFF786FFE56778
:1025A000F8E7030605D50B0603D5616E0029EAD1CD
:1025B000F0E74006EED54806ECD51368202120460A
:1025C00023F0400313606167656600F0F7F8E1E708
:1025D0009937000810B5040002D0606F10B107E011
:1025E000012010BD002084F87000204600F026F87D
:1025F000242060672068016821F001010160204605
:1026000001F03EF90128ECD0606A10B1204601F0DB
:1026100041F82068416821F4904141602068816858
:1026200021F02A0181602068016841F00101016008
:102630002046BDE8104001F091B8000070B586B0AA
:10264000064614216846FDF72BFE22493068884271
:102650003ED12148016841F400210160006800F486
:10266000002005901C481038016841F00401016009
:1026700000680025022100F0040005904FF440603E
:1026800008238DE8230003221448CDE9032369467B
:10269000FEF75EFB124C402212484FF0006184E8C6
:1026A000270003152046C4E90435A561E5612562CC
:1026B0006562FEF7C9FA08B1FDF71DFF0022B46696
:1026C00034201146A663FEF7D3FD3420FEF7C2FD89
:1026D00006B070BD004C0040403802400008024087
:1026E000740200207060024070B5836F202B4BD1C4
:1026F000B9B1B2B190F87030012B45D08368012692
:1027000080F870600024416535030466AB42A0F890
:102710005820A0F85A204FF0FF0107D1026912B1EA
:1027200026E0012070BD40F2FF1121E04FF07F0252
:10273000E3B1B3F1805F1ED0A0F85C402221C467F2
:10274000816701688A6842F001028A608168A94253
:1027500001D10169B1B10D49016680F8704000688E
:10276000016841F490710160002070BD036933B9C4
:10277000A0F85C10E2E7016909B13F21F8E7A0F891
:102780005C20DBE70249E7E7022070BD273800083C
:10279000CD37000806484FF4007110B5FEF7C4FBB2
:1027A000BDE81040034901220348FFF79DBF000028
:1027B000000C024000000020F40100207047FEE7FA
:1027C0000148FEF71BBC0000E80000200148FEF7AE
:1027D00049BC0000E800002010B5806B0021826B2E
:1027E0001165C26B116590F84110602902D0FEF7A7
:1027F00041FC10BD202180F84110FEF7FDFB10BD0B
:10280000CA074FF028034FF0000210B506D090F829
:102810004140422233EA040400D0F2228C0707D55B
:1028200090F8414042F04402A34301D042F0B0028C
:102830004B0701D542F0B80211238B4301D142F07E
:10284000900212238B4301D142F0600200680168BC
:102850009143016010BD01688A69D243920701D497
:1028600000228A6200688169C943C90703D081696F
:1028700041F00101816170472DE9F041044690F873
:1028800041002821002508238143206804D0C3612A
:1028900084F84050BDE8F081876986694FF0FE0EEC
:1028A0008168C268C7F30047D4F80CC00EEA164628
:1028B00002F0FE02BCF1020FC1F3090118D14FF082
:1028C000060C06F006060CEAD11C66450FD1A66C74
:1028D0000A46761CA664A16C0229DBD1A564C361FB
:1028E00084F8405039462046FEF787FBD2E716466B
:1028F00020460421FFF784FF324684F84050F1E778
:1029000070B5344A0025044690F84100202684F82A
:102910004250E2626585626C282842EA01026264E4
:1029200025D0292823D02A2821D007212046FFF7A7
:1029300067FF94F84100602801D084F84160256366
:102940006563206824490268520402681AD522F49B
:1029500080420260A06B002833D0016584F84050AB
:10296000A06BFEF78FF800282BD0A06B1CE0032192
:102970002046FFF745FF19492820616384F841008C
:102980002563DEE7120413D5026822F400420260D8
:10299000E06B002815D0016584F84050E06BFEF72D
:1029A00071F800280DD0E06B016DBDE8704008475C
:1029B00094F84100602805D0204684F84050FEF786
:1029C00059FB70BD84F84160204684F84050FEF702
:1029D00013FB70BD0000FFFFD9270008892B0008FA
:1029E00070B50446164AC843002541074FF0200041
:1029F000E262256384F8410084F84250656311D493
:102A00002068616A406A0870606A401C6062208DBC
:102A100040B1618D401E2085491E6185606C40F08B
:102A20000400606407212046FFF7EAFE21681020B9
:102A3000C861204684F84050FEF77AFB70BD000064
:102A40000000FFFF2DE9F0410446006820270E46F4
:102A50000568C76107212046FFF7D2FE2068334989
:102A6000426842F400424260206842680A40426084
:102A70002046FFF7F0FEE843410401D4A06B02E0DA
:102A8000000404D4E06B10B1006840686085F04336
:102A900040070FD4206826F00406616A406A087077
:102AA000606A401C6062208D20B1618D401E2085CF
:102AB000491E6185608D18B1606C40F0040060644F
:102AC0000025256384F84250606C656368B1616CD1
:102AD0002046FFF715FF94F84100282814D131460D
:102AE0002046BDE8F041FFF77BBFE06A104EB042E0
:102AF0000CD0204600F01EF8E66284F841702046B3
:102B000084F84050FEF714FBBDE8F08194F84100D2
:102B100084F841702228204684F8405002D0FEF705
:102B20004CFBF1E7FEF748FBEEE7000000E800FE93
:102B30000000FFFF70B504460025282084F84250AD
:102B400094F84110292911D094F841102A290CD168
:102B5000222184F84100216302212046FFF750FE24
:102B6000204684F84050FEF727FB70BD212184F8F1
:102B70004100216301212046FFF742FE204684F8F0
:102B80004050FEF71AFB70BD2DE9F04190F840303F
:102B90000446C06A0D46012B1DD0E943012384F889
:102BA00040306FEA0206404ACF064FF0807331D4BE
:102BB000F7062FD4678D102187B12268D161616C2F
:102BC00041F00401616408B1984260D1616C204613
:102BD000FFF796FE5BE00220BDE8F08194F84130FB
:102BE000282B02D1B0F1007F04D094F84130292B7A
:102BF00005D00CE029462046FFF7F2FE47E0904260
:102C000005D02068C1612046FFF725FE3CE0206822
:102C1000C1613CE04F0717D4770715D4618D71B1BE
:102C2000216825F00405636A496A1970616A491CC4
:102C30006162218D491E2185618D491E6185618DED
:102C400029BB904220D122E00A0706D4320704D4DF
:102C500029462046FFF710FE19E0890717D4B1076F
:102C600015D4618D69B1606A216800788862606AF4
:102C7000401C6062608D401E6085208D401E208556
:102C800005E0984200D010B92046FFF753FFE84313
:102C9000800605D4B00603D429462046FFF7D2FEAD
:102CA000002084F8400097E70000FFFF2DE9FF4176
:102CB000414800214FF440353E4B009101240191E1
:102CC0004FF0090802910391C0E900350461846165
:102CD00081603A4B80F82010C0E90A31C0F81C80AE
:102CE000C16080F830404461FDF75AFD08B1FDF73E
:102CF00002FC07253048042600966946CDE90145C7
:102D0000FDF7FCFB08B1FDF7F6FB02206946052440
:102D1000CDE900402848FDF7F1FB08B1FDF7EBFBDA
:102D2000032069460627CDE900702348FDF7E6FB3E
:102D300008B1FDF7E0FB20486946CDE90056FDF7F4
:102D4000DDFB08B1FDF7D7FB08261B48CDE9006481
:102D50006946FDF7D3FB08B1FDF7CDFB16484446A5
:102D6000CDE900876946FDF7C9FB08B1FDF7C3FB54
:102D70000A206946CDE900050F48FDF7BFFB08B101
:102D8000FDF7B9FB0B206946CDE900060A48FDF7BF
:102D9000B5FB08B1FDF7AFFB0E206946CDE9000495
:102DA0000548FDF7ABFB002801D0FDF7A4FBBDE80B
:102DB000FF81000000200140180000200100000FEA
:102DC0001048002170B50E4D062405604FF46022B6
:102DD000C0E9014100F10C044FF4801384E80E00B7
:102DE000017641768176C17601774177FDF77AFDEC
:102DF000002803D0BDE87040FDF77DBB70BD00002A
:102E000000680040C0000020114808B5016841F486
:102E100080010160016801F480010091016841F4C2
:102E20000011016000680022114600F400100090BB
:102E30000F20FEF71DFA0F20FEF70CFA00223820B3
:102E40001146FEF715FABDE808403820FEF702BA31
:102E500030380240704700002DE9F04F87B0142150
:102E60006846FDF71DFA4048016841F01001016015
:102E7000016801F010010591016841F080010160D5
:102E8000016801F080010591016841F004010160D1
:102E9000016801F004010591016841F00101016040
:102EA000016801F001010591016841F00201016032
:102EB000016801F002010591016841F0080101601B
:102EC00000680022DFF8A4801C2100F008000590B3
:102ED0004046FEF730F8DFF8989040F61E66002274
:102EE00031464846FEF727F8DFF888A04FF44077D0
:102EF000002239465046FEF71EF8DFF87CB000226B
:102F000010215846FEF717F80024694601251C20B9
:102F10000090CDE9015440460394FDF719FF009657
:102F20006946CDE9015448460394FDF711FF40205E
:102F30006946CDE9000450460294FDF709FF009769
:102F40006946CDE9015450460394FDF701FF102076
:102F50000090CDE90154694658460394FDF7F8FE08
:102F600007B0BDE8F08F000030380240001002408A
:102F7000000C0240000802400004024013480021F7
:102F800010B5114C0123124A0460C0E90121C0E9C7
:102F9000033141618161C1610162FEF76DF808B1E1
:102FA000FDF7A9FA09480021FDF7D0FF08B1FDF7A8
:102FB000A2FA06480021FDF7F5FF002803D0BDE87E
:102FC0001040FDF798BA10BD00540040E800002002
:102FD0006847402030B595B0002468461C21129403
:102FE00013941494FDF75CF92C2107A8FDF758F908
:102FF0002F4840F237422D4940F2CF7380E8160047
:10300000C0E9033444618461FFF7FCF908B1FDF7BE
:1030100072FA2748FFF746F908B1FDF76CFA244821
:1030200012A9129413941494FEF712FF08B1FDF73D
:1030300062FA60251E48CDE90054002269460294D8
:103040000394049405940694FFF748F908B1FDF73A
:1030500052FA1748082269460094FFF7E9F808B1C8
:10306000FDF749FA12480C2269460095FFF736F938
:1030700008B1FDF740FA4FF4005007940894099402
:1030800001030A94CDE90B40CDE90E41084807A998
:103090000D9410941194FEF78BFE08B1FDF72BFAF6
:1030A0000348FFF785F815B030BD0000000001406F
:1030B0003401002010B58AB0002468461C21079412
:1030C00008940994FDF7ECF81A4840F2CF7140F2E9
:1030D00037424FF08043C0E9024104618461C0E996
:1030E0000032FFF78FF908B1FDF705FA114807A97B
:1030F00007940994FEF7ACFE08B1FDF7FCF96020D7
:103100006946CDE900040B48042202940494FFF7B9
:10311000E5F808B1FDF7EFF906480C226946FFF71C
:10312000DDF808B1FDF7E7F90248FFF741F80AB00A
:1031300010BD00007401002010B588B017480024AD
:10314000154940F2E73200946B23019402940394F2
:1031500004940594069480E81600C0E90334846161
:10316000FEF7A6FE08B1FDF7C6F94FF480500090B7
:103170000A486946FEF7ECFE08B1FDF7BCF90748BE
:1031800004A904940694FEF763FE002801D0FDF71D
:10319000B2F908B010BD000000080040B4010020E2
:1031A0000D48002110B50B4C0C224FF4E1330460A4
:1031B000C0E90131C160C0E904128161C1610162ED
:1031C0004162FFF707FA002803D0BDE81040FDF781
:1031D00092B910BD004C0040F4010020FEE770479A
:1031E00070477047FDF7EABF30B5B7B0342124A867
:1031F000FDF756F8142131A8FDF752F890216846E2
:10320000FDF74EF81D48016841F0805101600068EB
:1032100000F0805036901A48016841F44041016046
:1032200000680224042300F44040369001202C93CF
:10323000D82582050104CDE92A42CDE92D542F94E9
:10324000CDE9240124A8FEF7FFFBFEF743F84FF475
:10325000A05000250F21CDE93350359031A8CDE99C
:1032600031140721FEF70AFB14954FF48440199599
:1032700000906846FEF764F837B030BD4038024031
:1032800000700040104A30B51048146800210F4B00
:1032900044F470041460083305680D4A0D4C45F081
:1032A0000105056019600368051D1340074A0360A6
:1032B0000C322C600568E305034C25F4802505607D
:1032C000803C1160236030BD88ED00E00038024092
:1032D000FFFFF6FE103000240148FEF7A8BE0000F4
:1032E000B4010020F0B5274B4FF0804E264D026808
:1032F0009842264E264F274C09D0704507D0A84249
:1033000005D0B04203D0B84201D0A04205D1D1F8D7
:1033100004C022F070024CEA020298421BD07045B1
:1033200019D0A84217D0B04215D0B84213D0A0424D
:1033300011D0194DA8420ED0184DA8420BD0184DEF
:10334000A84208D0174DA84205D0174DA84202D078
:10335000164DA84203D1CD6822F440722A434D692C
:1033600022F080022A43026098428A68C2620A6898
:10337000826201D0A04201D109690163012141614A
:10338000F0BD0000000001400004004000080040C3
:10339000000C004000040140004001400044014096
:1033A0000048014000180040001C00400020004080
:1033B00042EA032283680A4323F47F410A4382607E
:1033C0007047826822F070020A4342F00701816070
:1033D00070470000F0B5026ADFF860C0184F22F0B5
:1033E0000102DFF860E00262066A4268836926F043
:1033F00002060D68B8428C6803EA0C0323F003034D
:1034000044EA060445EA030501D0704505D1CB68BE
:1034100024F00804234323F00404B84201D070458B
:1034200005D122F44076D1E9053233431A43426094
:103430008561496841630462F0BD00008FFFFEFFB3
:103440000000014000040140F0B5026A194E1A4C18
:1034500022F01002DFF864E00262056A43688269C4
:1034600025F02005D1F808C0A0420F6802EA060244
:1034700022F4407245EA0C1542EA072201D0704559
:1034800006D1CE6825F0800545EA061525F04005F1
:10349000A04201D0704507D1D1E9054623F440632D
:1034A00043EA840343EA8603436082614968816397
:1034B0000562F0BDFF8FFFFE0000014000040140E7
:1034C000F0B5026A194F1A4E22F48072DFF864E0F8
:1034D0000262056A4368C26925F40075D1F808C024
:1034E000B0420C6802EA070222F0030245EA0C250A
:1034F00044EA020401D0704506D1CF6825F4006289
:1035000042EA072222F48065B04201D0704507D11B
:1035100023F44052D1E9053642EA031242EA061387
:103520004360C4614968C1630562F0BD8FFFFEFF5F
:103530000000014000040140F0B5026A124B114F37
:1035400022F4805298420262046A4268C36924F4F9
:1035500000548E680D6803EA070323F4407344EABD
:10356000063443EA052302D0084DA84204D14D6930
:1035700022F4804242EA85124260C36149680164D4
:103580000462F0BDFF8FFFFE000001400004014017
:10359000F0B5026ADFF844C022F480320262056AA4
:1035A0004268446D25F400350E8960450C4F0B6868
:1035B00004EA070445EA064543EA040302D0094C3D
:1035C000A04204D14C6922F4803242EA04224260D3
:1035D0004365496881650562F0BD00000000014057
:1035E0008FFFFEFF00040140F0B5026ADFF844C01F
:1035F00022F480120262046A4268436D24F40014CB
:103600000E8960450C4F0D6803EA070344EA06542F
:1036100043EA052302D0094DA84204D14D6922F4A2
:10362000802242EA8522426043654968C16504629E
:10363000F0BD000000000140FF8FFFFE00040140CC
:1036400010B5036A046A23F00A0324F0010404623B
:1036500084690B4324F0F00141EA021181610362A5
:1036600010BD10B5036A23F0100303628369046A76
:1036700023F4704324F0A00443EA0232826144EA56
:103680000111016210BD00000148FEF70FBF0000EC
:10369000F401002090F82410C90706D00168836A5D
:1036A0004A6822F400321A434A6090F824108907CD
:1036B00006D50168C36A4A6822F480321A434A6018
:1036C00090F82410490706D50168036B4A6822F474
:1036D00080221A434A6090F82410090706D5016831
:1036E000436B4A6822F400421A434A6090F824105F
:1036F000C90606D50168836B8A6822F480521A4392
:103700008A6090F82410890606D50168C36B8A6820
:1037100022F400521A438A6090F82410490611D509
:103720000168036C4A6822F480121A434A60016CF3
:10373000B1F5801F06D10168436C4A6822F4C002CB
:103740001A434A6090F82410090606D50168826C75
:10375000486820F4002010434860704738B50025C1
:103760000446C567FDF7ECFB0346206800680007C8
:103770000BD56FF07E400090002220464FF40011E0
:1037800000F0A8F908B1032038BD2020606784F854
:103790007050A067002038BD10B5806B0021A0F8E4
:1037A0005A10A0F85210FEF780FE10BD10B5016847
:1037B000202200230C6824F490740C6001688C684B
:1037C00024F001048C608267036610BD10B5816F20
:1037D000B0F85C202229016804D0886940F0080014
:1037E000886110BD496A436D11401980416D891C83
:1037F0004165B0F85A10491EA0F85A10B0F85A1096
:103800000029EED10168202200230C6824F4907472
:103810000C6001688C6824F001048C608267036688
:10382000FEF7B8FF10BD10B5816FB0F85C202229FB
:10383000016804D0886940F00800886110BD496AB9
:10384000436D11401970416D491C4165B0F85A1023
:10385000491EA0F85A10B0F85A100029EED101689C
:10386000202200230C6824F490740C6001688C689A
:1038700024F001048C6082670366FEF78BFF10BDA5
:103880002DE9F04104468068DFF818C2864F2368AE
:10389000D4E90452E16928431E6800250A4383499C
:1038A000104306EA0C0606431E604FF400422068EF
:1038B000E668436823F44053334343602368A669B2
:1038C000206AD3F808C030432CF4306606439E606B
:1038D0002068B8420AD1086810F0030052D00128CD
:1038E0007BD002287AD003286ED186E0704B9842B4
:1038F0000AD1086810F00C0079D004287BD0082881
:1039000077D00C2860D178E06A4B98420AD10868D9
:1039100010F030006BD010286DD0202869D03028EE
:1039200052D16AE0644B98420AD1086810F0C00096
:103930005DD040285FD080285BD0C02844D15CE0B7
:103940005E4B98420DD1086810F440704FD0B0F52E
:10395000807F50D0B0F5007F4BD0B0F5407F33D1A1
:103960004BE0574B98420FD1086810F4406009D0E3
:10397000B0F5806F3FD0B0F5006F3AD0B0F5406F32
:1039800022D13AE0012120E04E4B98420DD1086847
:1039900010F440502BD0B0F5805F2CD0B0F5005F14
:1039A00027D0B0F5405F0FD127E0474B98420BD1AD
:1039B000086810F440401AD0B0F5804F1BD09042F8
:1039C00017D0B0F5404F18D01021E0694FF6EF76D0
:1039D000904238D109295DD202E00CE009E006E00E
:1039E000DFE801F00D1027582A5858582D00002103
:1039F000EBE70221E9E70421E7E70821E5E7FDF726
:103A0000D3FF01E0FDF7E0FF0146D4F804004900D0
:103A100001EB5001B1FBF0F080B2A0F11001B14216
:103A200038D84FF6F0732168C0F3420218401043B3
:103A300024E026496068EBE7FDF7D6FFE4E760681D
:103A40004FF48031E4E7092924D2DFE801F00508CA
:103A500019231C2323231F00FDF7A6FF01E0FDF718
:103A6000B3FF0146D4F8040001EB5001B1FBF0F0C4
:103A700080B2A0F11001B1420CD82168C8600AE000
:103A800013496068F0E7FDF7AFFFEAE7606802EB13
:103A90005001EBE701250020206660662846BDE85E
:103AA000F0810000F369FFEF001001409038024000
:103AB0000044004000480040004C004000500040DE
:103AC0000014014000780040007C00400048E801FC
:103AD0000024F4002DE9F041984617460E460446AE
:103AE000069D08E0681C06D0FDF72AFAA0EB080046
:103AF000A8420BD855B12068C06936EA000017D03B
:103B00000020B842EED00020BDE8F08121682020DE
:103B100000220B6823F4D0730B6021688B6823F0BC
:103B200001038B606067A067032084F87020EBE7D7
:103B30000120E6E7FEE7090700284FEA116104DBF0
:103B400000F1E02080F80014704700F00F0000F151
:103B5000E02080F8141D704702E008C8121F08C159
:103B6000002AFAD170477047002001E001C1121FFE
:103B7000002AFBD170470000FDF728FBFFF734FB5C
:103B8000FFF76AF9FFF740F9FFF790F8FFF718F928
:103B9000FFF7F4F9FFF71EFAFFF78CFAFFF700FBC7
:103BA000FFF758F9FFF7C8FA0A48FEF7BBF90A49C8
:103BB00001220A48FEF798FD094D4FF400644FF4C6
:103BC000FA7621462846FDF7AFF93046FDF7AEF804
:103BD000F7E70000B401002000000020F4010020FD
:103BE000000C02400006101600061016000000002F
:103BF000000000000102030406070809000000009D
:103C000001020304243C000800000020180000000A
:103C1000583B00083C3C000818000020C00600008B
:103C2000683B0008000000000000000001000000E8
:0C3C300010000000000000000024F40060
:04000005080001F9F5
:00000001FF
