:020000040800F2
:10000000480700200D0200080B3C00081D2F0008C7
:10001000093C00085D0400082545000800000000B8
:100020000000000000000000000000000F3C00087D
:100030006D050008000000000D3C0008113C0008A0
:1000400027020008270200082702000827020008EC
:1000500027020008270200082702000827020008DC
:1000600027020008270200082702000827020008CC
:1000700027020008270200082702000827020008BC
:1000800027020008270200081903000827020008B9
:10009000270200082702000827020008270200089C
:1000A000270200082702000827020008270200088C
:1000B0002702000827020008270200082D2F000849
:1000C000212F000827020008270200082702000845
:1000D000270200082702000827020008270200085C
:1000E000270200082702000827020008270200084C
:1000F000270200082702000827020008270200083C
:10010000270200082702000827020008270200082B
:100110002702000827020008093D000827020008FE
:10012000E50400082702000827020008270200084B
:10013000270200082702000827020008D904000847
:1001400095040008A10400082702000827020008FF
:1001500027020008270200082702000827020008DB
:1001600027020008270200082702000827020008CB
:1001700027020008270200082702000800000000EC
:1001800027020008270200082702000827020008AB
:10019000270200082702000827020008270200089B
:1001A000270200082702000827020008270200088B
:1001B000270200082702000827020008270200087B
:1001C000270200082702000800000000270200089C
:1001D000270200082702000827020008270200085B
:1001E000270200082702000827020008270200084B
:1001F0002702000827020008DFF80CD000F07AF888
:100200000048004769450008480700200648804725
:1002100006480047FEE7FEE7FEE7FEE7FEE7FEE7EB
:10022000FEE7FEE7FEE7FEE7B53C0008F90100083F
:100230002DE9F05F0546002092469B46884606461B
:10024000814640241BE0284641464746224600F0AE
:1002500041F853465A46C01A914110D311461846E8
:10026000224600F028F82D1A67EB01084F46224677
:100270000120002100F01FF817EB00094E41201E5D
:10028000A4F10104DFDC484631462A464346BDE876
:10029000F09FD2B201E000F8012B491EFBD270475B
:1002A0000022F6E710B513460A4604461946FFF742
:1002B000F0FF204610BD202A04DB203A00FA02F1AC
:1002C000002070479140C2F1200320FA03F3194344
:1002D00090407047202A04DB203A21FA02F00021E6
:1002E000704721FA02F3D040C2F120029140084346
:1002F00019467047064C074D06E0E06840F00103E0
:1003000094E8070098471034AC42F6D3FFF778FF23
:100310003846000858460008014800F0DFB90000E0
:10032000500000204A496FF0706210B5D1F80433D4
:1003300023F44033C1F80433D1F804334468234331
:10034000C1F8043301684B6823F480734B60016883
:1003500003694C6844EA03234B6001684B6823F04F
:1003600040734B60016884684B6823434B600168AD
:100370008B6823F400638B600168C4688B68234337
:100380008B60816AD14201688A6822F070628A605B
:1003900001680DD0836A8A681A438A6001688A6896
:1003A00022F040528A600168C36A8A681A4302E0F8
:1003B0008A6822F040528A6001688A6822F002024C
:1003C0008A60016882698B6843EA42028A6090F819
:1003D00020100029016811D01E4A4B6843F40063C5
:1003E0004B6001684B6823F460434B600168446ACA
:1003F0004B6802EB443213434B6003E04A6822F43B
:1004000000624A600168144BCA6A22F47002CA6230
:100410000168848BCA6A03EB04531A43CA620168F9
:100420008A6822F400728A60016890F830208B6834
:1004300043EA42228A6001688A6822F480628A6004
:10044000016840698A6842EA8020886010BD000027
:100450000020014000E0FFFF0000F0FFFEE7000089
:100460000B48012230B400210E23C0E906124FF4DC
:100470007854C0E900414FF47E45C0E90251C0E91B
:100480000413C0E9082330BC01465C3000F078BAA0
:10049000F8000020014800F082BB00005401002059
:1004A000014800F07CBB00005401002010B5FFF7AC
:1004B000D7FF0848012100F051FA0648022100F058
:1004C0004DFA0448102100F049FABDE810400148F7
:1004D00000F066BD54010020014800F060BB000040
:1004E00054010020014800F0A1BD00009800002048
:1004F00001681823CAB2103AB2FBF3F2054B6FF34E
:100500000901032A9B5CC36500D9091D8165084662
:10051000704700001846000810B583694FF0C0749A
:10052000826A0146002053B1B3F5005F15D072B165
:10053000012A0CD0022A0AD0032A09D104E01AB1F8
:10054000012A06D0022A03D1C96AC90100D50120B7
:1005500010BDC96AA142FAD010BD002AF7D0012A05
:10056000F2D0022AF3D0032AF3D010BD70477047AF
:1005700070470000F8B50025009590F83C20012A4E
:1005800018D0012280F83C200A6807234E4C0668E8
:10059000092A1AD90A3A02EB4207F268BB409A4389
:1005A000F2600E680268A64206D10B7AD66846EA67
:1005B000036308E00220F8BD0A3E8B68D76806EBAB
:1005C0004606B3403B43D3600EE002EB420732697C
:1005D000BB409A43326103680E788A681F6906EB54
:1005E0004606B2403A431A614A681F23072A13D2CB
:1005F0000668521E02EB8207726BBB409A4372631D
:1006000003680E790A88761E5F6B92B206EB860647
:10061000B2403A435A6327E006680D2A12D2D21F2D
:1006200002EB8207326BBB409A43326302680E7959
:100630000B88F61F176B9BB206EB8606B3403B4355
:10064000136311E00D3A02EB8207F26ABB409A4352
:10065000F26202680E790B880D3ED76A9BB206EBF8
:100660008606B3403B43D362184A0368934208D1DD
:100670000B68122B05D1D2F8043343F48003C2F87F
:100680000433036893421AD10B68A34201D0112BA3
:1006900015D1D2F8043343F40003C2F804330968D7
:1006A000A1420CD10A490B4A0968B1FBF2F101EBF6
:1006B0008101490000E0491E00910029FBD180F82A
:1006C0003C500020F8BD0000120000100020014046
:1006D0002C00002040420F007047704770B5044660
:1006E000006801684268C1F34001C2F3401251B38F
:1006F0004AB3216CC90603D4216C41F40071216412
:10070000816811F0405F17D1A169A9B9C16A11F4DC
:10071000700F02D0816849050ED4416821F0200194
:100720004160206C20F480702064206CC00403D4ED
:10073000206C40F0010020642046FFF7CDFF2168C7
:100740006FF012000860206801684268C1F3800100
:10075000C2F3C01289B382B3216CC90603D4216CE1
:1007600041F400512164816811F4401F1ED1816B56
:1007700011F4401F02D08168490517D4416849052A
:1007800014D4816811F0405F10D1A16971B941683A
:1007900021F080014160206C20F480502064206CA6
:1007A000C00503D4206C40F0010020642046FFF710
:1007B000DFFE21686FF00C00086020680168436864
:1007C00011F0010FC3F380110ED069B10068C007AA
:1007D0000AD0206C40F480302064204600F046F8B7
:1007E00021686FF001000860206801684268C1F369
:1007F00040110029C2F380620DD0002A0BD0616C39
:100800006FF0200541F00201616405602046FFF7AA
:1008100064FF2068056070BD70B504004FF00005EE
:1008200003D0206C002610B107E0012070BD2046E7
:1008300000F01EF8666484F83C60206CC00610D49A
:10084000206C20F4885040F0020020642046FFF71E
:1008500069FD6664206C20F0020040F00100206415
:1008600000E0012584F83C60284670BD7047000018
:10087000F0B587B0064614216846FFF711FD3049F0
:100880003068884259D12F48016841F48071016075
:1008900000682C4900F4807005901439086840F015
:1008A00004000860086800F004000590086840F043
:1008B00001000860086800F001000590086840F039
:1008C00002000860086803240025694600F0020061
:1008D000059013208DE831001B4800F0FBFCF02050
:1008E00069468DE83100194800F0F4FC009469462F
:1008F0001748CDE9014500F0EDFC164C16480115EE
:10090000C4E900058715A5600B01C4E903518214F1
:100910002046C4E907756562C4E9052300F056FC6A
:1009200008B1FFF724FE0022B46312201146A6632B
:1009300001F0BEF8122001F0ADF807B0F0BD0000E4
:1009400000200140443802400008024000000240FC
:1009500000040240980000201064024090F820201B
:10096000012A07D0022A05D0416A41F48021416260
:1009700001207047006842690A43426100207047C5
:1009800030B590F820300268012B07D0022B05D03B
:10099000416A41F480214162012030BD3E4C3F4814
:1009A000A24200D00246D2F80032824243F0010354
:1009B000C2F800320CD1D2F8000220F47C50C2F808
:1009C0000002D2F800024B6A40EA0320C2F800029B
:1009D0000C7D0120D2F81C3204F01F04A040834398
:1009E000C2F81C32CB69B3B9D2F80C328343C2F8D7
:1009F0000C328C894B684D6964F31F4302EBC504CC
:100A0000C4F840320C890B684D6964F31F4302EB54
:100A1000C504C4F84432CB69012B16D1D2F80C328C
:100A20000343C2F80C320C884B684D6964F31F43D2
:100A300002EBC504C4F840320C89CB684D6964F3FD
:100A40001F4302EBC504C4F844328B69002BD2F873
:100A500004320FD053EA0003C2F804320B69002BB2
:100A6000D2F8143208D00343C2F81432096A0129BB
:100A700004D008E08343EFE78343F5E7D2F81C1284
:100A80000143C2F81C12D2F8000220F00100C2F8A3
:100A90000002002030BD000000340040006400402F
:100AA00070470000F0B590F82040012C05D0022CD2
:100AB00003D0416A41F4802166E0046800295ED0D9
:100AC0002469A4075DD005684FF4D87404EB0114C1
:100AD0002D5915F00405956005682D5957D0ED087E
:100AE000C2F8045007684FF4DA754FF4DC7C4FF419
:100AF000DE763C59002905EB0115C4F34007D760A9
:100B00000CEB011406EB01110668765906F00F068E
:100B1000166106687659C6F3072696610668755908
:100B20004FEA15455561026812591A700268125948
:100B30004FEA12225A70026812594FEA12429A7012
:100B4000026812594FEA1262DA70026852581A713A
:100B5000026852584FEA12225A71026852584FEAFC
:100B600012429A71026851584FEA1161D9710068B6
:100B700010D0016941F0200101610020F0BDE4685E
:100B80009FE7416A41F4001141620120F0BD6D0D03
:100B90001560A7E7C16841F02001C160EDE72DE9CC
:100BA000F05F0546006800244669D0F80490876825
:100BB000D0F80CB0D0F810A0F207D0F8188048D0C8
:100BC000F90714D001218160BA0703D5284600F047
:100BD00014FA0CE0780702D54FF4006407E03807F8
:100BE00002D54FF4805402E0284600F005FAF805DB
:100BF00016D52868BA054FF48071816003D5284660
:100C000000F0FDF90CE0780502D544F4005407E04B
:100C1000380502D544F4804402E0284600F0EEF99D
:100C2000F80316D52868BA034FF48031816003D5E4
:100C3000284600F0E6F90CE0780302D544F40044BD
:100C400007E0380302D544F4803402E0284600F07F
:100C5000D7F9300707D55FEACB6004D529681020A3
:100C600044F40074C86070074FF0080707D55FEAC6
:100C70000B7004D52868C760284600F075F9B007E6
:100C800006D52868C068800702D0284600F06EF9B3
:100C9000700607D55FEACA6004D52968102044F4BD
:100CA00080640861B00607D55FEA0A7004D5286839
:100CB0000761284600F070F9F00606D5286800693B
:100CC000800702D0284600F068F9B00308D55FEA33
:100CD000C96005D5296810204860284600F05EF9F3
:100CE000F00307D55FEA097004D5286847602846F5
:100CF00000F088F9300446D55FEA497040D5F00528
:100D000004D55FEAC87001D044F00104B00504D5F1
:100D10005FEA887001D544F00204700504D55FEAEB
:100D2000487001D544F00404300529D518F0700F3F
:100D300026D008F07000402815D006DC102809D015
:100D400020280AD0302816D10AE050280ED060287A
:100D500011D10EE044F008040DE044F010040AE064
:100D600044F0200407E044F0400404E044F0800430
:100D700001E044F480742868816921F07001816188
:100D8000296804204860002C05D0686A2043686206
:100D90002846FFF785FEBDE8F09F70B5040003D03C
:100DA00094F8200010B104E0012070BD204600F04E
:100DB00081F82068016821F00201016000F082FBE7
:100DC0000526054604E000F07DFB401B0A2811D8EB
:100DD000206840688007F6D42068016841F001016E
:100DE000016000F06FFB05460BE000F06BFB401B61
:100DF0000A2806D9606A40F40030606284F82060F6
:100E0000D2E720684068C007EFD0207E0128206824
:100E100001683DD021F080010160607E01282068DA
:100E2000016838D021F040010160A07E01282068CF
:100E3000016833D021F020010160E07E01282068A4
:100E400001682ED041F010010160207F0128206848
:100E5000016829D021F008010160607F0128206825
:100E6000016824D021F004010160D4E90110D4E923
:100E700003326569491E184323682A431043002240
:100E80000843D8610121626284F82010104670BDC9
:100E900041F08001C0E741F04001C5E741F0200189
:100EA000CAE721F01001CFE741F00801D4E741F093
:100EB0000401D9E710B586B0044614216846FFF74F
:100EC000EFF926492068884246D12548016841F457
:100ED00000510160016801F400510591016841F081
:100EE00080610160016801F080610591016841F055
:100EF00000710160006800F000700590184810381B
:100F0000016841F00201016000680221002200F046
:100F100002000590032309244FF440508DE81F0080
:100F20001048694600F0D6F900223F20114600F033
:100F3000BFFD3F2000F0AEFD00224020114600F032
:100F4000B7FD402000F0A6FD00224120114600F030
:100F5000AFFD412000F09EFD06B010BD00680040CE
:100F6000403802400004024070470000084A002157
:100F7000064B02F1340010B5FFF794FDBDE81040B8
:100F800004484FF4007100F091BA000010000020F6
:100F900020010020000C024070477047704700009D
:100FA00070B5044690F82000012804D0606A40F42F
:100FB0000020606218E0022084F8200020680168A8
:100FC00021F00101016000F07DFA05460EE000BF4E
:100FD00000F078FA401B0A2808D9616A052041F41C
:100FE0000031616284F82000012070BD20684068F3
:100FF000C007EDD1606270BD7047704770477047A1
:1010000070477047704790F83510022903D080214F
:10101000416501207047052180F83510006801689E
:1010200021F0010101600020704700002DE9F84324
:1010300004464FF00009644B0820CDF800904FF4AF
:101040001652A56D94F85C101B682E68B3FBF2F77E
:1010500000FA01F131420FD021680A6852070BD51E
:101060000A6822F004020A6094F85C108840A860C4
:10107000606D40F00100606594F85C104FF001086D
:1010800008FA01F0304208D021684969090604D500
:10109000A860606D40F00200606594F85C10042068
:1010A0008840304208D021680968890704D5A860C3
:1010B000606D40F00400606594F85C10102088407A
:1010C000304218D021680968090714D5A860206843
:1010D0000168490304D50068000308D5A16C07E046
:1010E0000168C90503D4016821F008010160216C81
:1010F00009B12046884794F85C102020884030428F
:1011000031D021680968C9062DD5A86094F835004A
:1011100005282068016806D0490347D50068000308
:101120001DD4616C1CE021F016010160206841694A
:1011300021F080014161206C08B9A06C20B12068C9
:10114000016821F00801016094F85C303F229A4068
:10115000AA6084F8349084F83580216D1FE0E16B3B
:1011600009B120468847606D00282BD0606DC0070C
:1011700014D0052084F835002068016821F00101B1
:1011800001600098401C0090B84203D820680068B5
:10119000C007F6D184F8349084F83580E16C0029DA
:1011A00010D001B02046BDE8F04308470168C905EA
:1011B000D5D4036823F01003036084F8349084F8D6
:1011C0003580CCE7BDE8F8832C0000202DE9F047FE
:1011D000044600F077F9054664B14FF0000984F841
:1011E0003490022184F835102068016821F0010153
:1011F00001600EE00120BDE8F08700BF00F062F959
:10120000401B052805D920216165032084F835009D
:10121000F1E720680068C007F0D1D4E90020D4E9E4
:101220000251D4E9043C284304F11805194308434A
:10123000116895E8E00140EA0C001C4B2843194076
:1012400040EA060040EA0700B8F1040F40EA010056
:1012500003D1D4E90B131943084310602068012619
:10126000656A4069042D20F0070045EA00050CD1AD
:10127000D4E90A01054341B12046FFF74DF920B1F9
:101280004020606584F83560B4E7206845612046F9
:10129000FFF72EF994F85C303F229A408260C4F840
:1012A000549084F835600020A5E700003F8010E0EE
:1012B00070B5044600F006F90546601C02D00448EB
:1012C0000078044400F0FEF8401BA042FAD370BD41
:1012D000200000202DE9F84FDFF89CE100224FF0BC
:1012E00001084FF0030B4FF00F0A00BF0B6808FA1C
:1012F00002F42340A34271D14D68022D01D0122D7A
:101300000FD1D5080E69570700EB8505A9462D6A50
:10131000FF0E0AFA07FCBE4025EA0C052E43C9F869
:1013200020600F79550006680BFA05FC07F00307EB
:1013300026EA0C06AF40374307604E68012E05D001
:10134000022E03D0112E01D0122E0ED18668CF6846
:1013500026EA0C06AF403743876046680F79A643FC
:10136000C7F30017974037434760C4688E6824EA84
:101370000C04AE402643C6604C68E40075D53F4C73
:10138000256845F480452560246822F0030695070A
:1013900004F4804400943A4C2D0F2644D6F80848B3
:1013A000DFF8E0C00AFA05F7604524EA070401D136
:1013B00000272EE0344FB84201D1012729E0334FF6
:1013C000B84201D1022724E0314FB84201D10327AE
:1013D0001FE0304FB84202D104271AE045E02E4FFB
:1013E000B84201D1052714E02C4FB84201D106279D
:1013F0000FE02B4FB84201D107270AE0294FB8422E
:1014000001D1082705E0284FB84201D1092700E0A3
:101410000A27AF4027437546C6F808784E68DEF8BD
:101420000040F60324EA030400D51C43124E2C604E
:10143000361D4D683468AD0324EA030400D51C430F
:101440000D4F346008374D683C68ED0224EA030410
:1014500000D51C43084D3C600C354E682C68B60224
:1014600024EA030400D51C432C60521C102AFFF40C
:101470003DAFBDE8F88F0000003C01404438024019
:101480000030014000000240000402400008024019
:10149000000C0240001002400014024000180240FC
:1014A000001C02400020024000240240426931EA50
:1014B000020200D10904816170470AB1816170475D
:1014C0000904FBE701488068704700002000002005
:1014D00030B590F84120202A24D190F84020012AEC
:1014E00020D0012380F84030242280F8412020239E
:1014F00000240268156825F001051560026815686A
:1015000025F480551560026815680D431560016863
:101510000A6842F001020A6080F8413080F84040D9
:10152000002030BD022030BD30B590F84120202A87
:1015300022D190F84020012A1ED0012380F84030AB
:10154000242280F84120202400250268136823F01B
:10155000010313600268136823F4706343EA0121F6
:10156000116001680A6842F001020A6080F8414097
:1015700080F84050002030BD022030BD70477047D9
:1015800030B403689A691968D243D40509D4CC43AE
:10159000240606D4456C4FF4807445F0010545647B
:1015A000DC6153050AD4CB431B0607D4446C4FF4CB
:1015B000806344F0080444640468E36192050AD43B
:1015C000C943090607D4426C4FF4007142F002028D
:1015D00042640268D161416C11F00B0F02D030BC43
:1015E00001F03EBD30BC70470268436B91691268E0
:1015F000002B00D0184770477047000070B50400FA
:1016000004D094F84100002510B106E0012070BD1F
:10161000204684F8405000F0ADF9242084F84100C1
:101620002068016821F001010160D4E9001020F078
:10163000706008612068816821F400418160E06881
:1016400021680128A06806D040F404408860E06862
:10165000022803D006E040F40040F7E721684FF489
:101660000060486020212068114A436813434360AA
:101670002068C26822F40042C26054F8106B0DCC9E
:10168000104340EA0320F06054F81C3CD4E9000207
:101690001043186054F81C0D026842F00102026009
:1016A000656484F84110256384F84250002070BDC1
:1016B00000800002704700002DE9FF4F83B0044610
:1016C00090F841009A469346DDE91087DDF848908E
:1016D000202874D15FEA080014D09FB194F840002C
:1016E00001286CD0012084F84000FFF7EBFE0122B6
:1016F000064619230090D103204601F045FF00283B
:1017000071D103E04FF4007060646CE00025C4F810
:101710002480222184F84110402084F8420065642E
:101720006785534665635A4604992046CDE900967D
:1017300001F01EFE10B184F8405054E0618DFF2787
:1017400034484FF08078FF294FF0007A04D927857C
:101750003A464346009005E0618D5346218500904E
:1017600094F828202046049901F0F8FE00224B4608
:1017700004212046009601F007FFA0BB2068616AA3
:10178000406A0870606A401C6062208D401E81B211
:101790002185608D401E6085608DD8B1D1B9002251
:1017A0004B4680212046009601F0EEFED8B9608DB0
:1017B000FF2805D927853A464346009506E026E0EE
:1017C000608D53462085009594F828202046049982
:1017D00001F0C4FE608D0028C8D13246494620463B
:1017E00001F0FFFE18B1012007B0BDE8F08F2168BD
:1017F0002020094AC86121684B6813404B6084F877
:10180000410084F84250002084F84050ECE7022068
:10181000EAE700000024008000E800FE2DE9FF4F09
:1018200083B0044690F841009A469346DDE910875C
:10183000DDF84890202871D15FEA080014D09FB1EC
:1018400094F84000012869D0012084F84000FFF797
:1018500039FE0122064619230090D103204601F0EB
:1018600093FE00286ED103E04FF40070606469E0DD
:101870000025C4F82480212184F84110402084F8F8
:10188000420065646785534665635A46049920465D
:10189000CDE9009601F09EFD10B184F8405051E072
:1018A000608DFF274FF08078FF284FF0007A04D931
:1018B00027853A464346009505E0608D53462085CE
:1018C000009594F828202046049901F047FE3246FE
:1018D0004946204601F0ACFEA0BB606A2168007852
:1018E0008862606A401C6062608D401E6085208D49
:1018F000401E80B22085618DD9B1D0B900224B46FF
:1019000080212046009601F03FFED8B9608DFF2867
:1019100005D927853A464346009506E026E0608DC6
:1019200053462085009594F828202046049901F01C
:1019300015FE608D0028CAD132464946204601F086
:1019400050FE18B1012007B0BDE8F08F20682021BB
:10195000074AC161206843681340436084F841101E
:1019600084F84250002084F84050ECE70220EAE777
:1019700000E800FE10B586B0044614216846FEF764
:101980008FFC1A49206888422DD11948016841F01E
:101990000201016000681221012200F0020005909E
:1019A000C020032304248DE81F0012486946FFF776
:1019B00091FC0F481030016841F40011016000688B
:1019C0000022114600F4001005901F2000F070F86E
:1019D0001F2000F05FF800222020114600F068F878
:1019E000202000F057F806B010BD00000054004061
:1019F0003038024000040240704770470248816856
:101A0000027811448160704720000020032010B547
:101A100000F06EF8002000F005F800F023F8002038
:101A200010BD000070B50D4D04464FF47A700C4A9D
:101A300029781268B0FBF1F0B2FBF0F000F0C2FDC3
:101A400048B9102C07D200222146501E00F030F871
:101A500000206C6070BD012070BD000020000020DF
:101A60002C0000200A4808B5016841F0805101604F
:101A7000006800F0805000900548001D016841F4A6
:101A800080410160006800F48040009008BD0000C3
:101A900040380240002809DB410900F01F0289009C
:101AA000012001F1E0219040C1F8000170470000E1
:101AB0000E4BF0B41B680D46C3F30223C3F10706B7
:101AC000042E00D90426191D072901D2002300E0A5
:101AD000DB1E012404FA06F19C40491E2940641EC5
:101AE000994014402143F0BC02F01DBD0CED00E014
:101AF000064900F0070210B54FF6FF040868044BD2
:101B0000204040EA02201843086010BD0CED00E0C0
:101B10000000FA051848F8B5016841F080510160ED
:101B20000068164C00F080500090206840F480302F
:101B30002060FFF7C7FC4FF47A76054605E000BF4A
:101B4000FFF7C0FC401BB0420FD86068C003F7D558
:101B5000206840F400302060FFF7B4FC054606E042
:101B6000FFF7B0FC401BB04201D90320F8BD60680C
:101B70008003F5D50020F8BD4038024000700040D9
:101B80002DE9F84F04460078DFF824944FF0000662
:101B90003746C0070ED0D9F8001021F40001C9F86B
:101BA0000010D9F80010626B1143C9F80010606B87
:101BB00000B90126FE4D2068843500030ED5E16B87
:101BC000286820F4401008432860E06BB0F5801FBF
:101BD00001D010B102E0012600E0012720684FF497
:101BE000800BC0020CD5216C286820F4400008430B
:101BF0002860206C584501D1012601E000B9012779
:101C00002068C10100D50126800666D5E848383035
:101C1000016841F0805101600068DFF898A300F08E
:101C200080500090DAF8001041F48071CAF800107A
:101C3000FFF748FC804605E0FFF744FCA0EB0800F6
:101C400064287DD8DAF80000C005F5D5DFF8608398
:101C500008F16808D8F8000010F440702AD0218EEE
:101C600001F44071814225D0D8F80010D8F8002046
:101C700021F4407142F48032C8F80020D8F80020E6
:101C800022F48032C8F80020C8F80010D8F800000C
:101C9000C0070FD0FFF716FC824607E0FFF712FCE3
:101CA000A0EB0A0141F288308142CAD8D8F800007E
:101CB0008007F3D5206BC0F3012103297ED0D9F82A
:101CC000001021F4F811C9F80010228ED8F8001085
:101CD000C2F30B021143C8F800102078C00607D5E4
:101CE000286820F0807028602868A16B084328606D
:101CF0002188AF488830490405D5626E016821F417
:101D00004031114301602188090405D5A26E0168A4
:101D100021F44021114301602168C90305D5E26E19
:101D2000016821F44011114301602168890305D540
:101D3000226F016821F4400111430160217800E025
:101D400034E1490605D5626C016821F003011143B5
:101D500001602178090605D5A26C016821F00C010B
:101D6000114301602188C90505D5E26C016821F0A5
:101D70003001114301602188890505D5226D016874
:101D800021F0C001114301602188490505D5626D2C
:101D9000016821F44071114301602188090505D5CE
:101DA000A26D016821F44061114301602188C904DA
:101DB00007D5E26D016821F4405100E05FE0114376
:101DC00001602188890405D5226E016821F4404113
:101DD000114301602168490205D5A26F016821F015
:101DE00080611143016021684FF0006A890209D5C2
:101DF000E26F016821F0006111430160E16F51451C
:101E000000D1012721680A0700D50127490305D51C
:101E1000626F016821F0407111430160216809027D
:101E200006D5D4F88020016821F08051114301606B
:101E30002168490106D5D4F88420016821F00051B9
:101E4000114301602068000106D5D4F88810286885
:101E500020F00070084328602068C00006D5D4F840
:101E60008C10286820F0806008432860DFF84891D3
:101E7000012E0ED02068B0F1007F0AD08FE04F4ACB
:101E8000D9F80030104023F4F8120243C9F80020BA
:101E90001BE7D9F800004E4620F08060C9F800002A
:101EA000FFF710FB804605E0FFF70CFBA0EB0800F6
:101EB00064287BD830680001F6D421783C487C3017
:101EC000C90712D0616B81B9237A62680168D0F8C2
:101ED00000C09201C1F3014142EA0142CCF3036127
:101EE00042EA016141EA0371016021680A0303D5F6
:101EF000E26BB2F5801F04D0C9021AD5216C594596
:101F000017D16368016894F80CC002689B01C1F3A3
:101F1000014143EA0141C2F3027241EA0C6141EA24
:101F2000027101602968626A21F01F01521E11438B
:101F300029602168C90110D5238A62680168D0F838
:101F400000C09201C1F3036142EA034242EA016226
:101F5000CCF3027142EA01710160216889010CD55C
:101F60006168228A237B94F808C0890141EA024112
:101F700041EA036141EA0C7101603168B04641F009
:101F800080613160FFF79EFA064604E0FFF79AFA97
:101F9000801B64280AD8D8F800000001F6D5E7B302
:101FA000D9F800004E4620F0805009E07BE00000A8
:101FB000083802400070004000380240FFFCFF0F6C
:101FC000C9F80000FFF77EFA074604E0FFF77AFA47
:101FD000C01B642867D83068C0438000F6D52168EC
:101FE00035480A0301D5E26B1AB1C9021DD5216C2F
:101FF000D9B963690168277E02689B01C1F3014179
:1020000043EA0143C2F3027143EA076242EA017103
:10201000016029686FF0FF0300E04BE0A26A21F441
:10202000F85103EB0222114329602168890212D57D
:10203000E16F51450FD1238C6269016807689201F5
:10204000C1F3036142EA034242EA0162C7F302714B
:1020500042EA017101602178090716D561690268B9
:10206000D0F800C08B01277FC2F30362CCF301419B
:1020700043EA014141EA026141EA077101602868CF
:10208000E16A20F4403008432860306840F0805016
:102090003060FFF717FA044608E000BFFFF712FAB6
:1020A000001B642802D90320BDE8F88F3068C043C4
:1020B0008000F3D40020F7E7883802402DE9F0478C
:1020C00005000F4663D0444E306800F00F00B84260
:1020D00009D2306820F00F0038433060306800F0DB
:1020E0000F00B84253D128683C4C810712D54007F5
:1020F00003D5206840F4E05020602878000703D51D
:10210000206840F460402060A968206820F0F0005A
:10211000084320602878C0072AD030496868083909
:10212000012810D00968022810D0890700292EDA6A
:10213000216821F0030101432160FFF7C3F98046C4
:1021400041F288390DE009688903EFE78901EDE77D
:10215000FFF7B8F9A0EB0801494502D90320BDE813
:10216000F0876868216801F00C01B1EB800FEFD1B6
:10217000306800F00F00B8420BD9306820F00F0033
:1021800038433060306800F00F00B84201D00120C1
:10219000E5E72878400705D5E968206820F4E05095
:1021A000084320602878000706D52869216821F4B3
:1021B000604141EAC000206000F036F82168084A1A
:1021C000C1F30311515CC840064908600020FFF7C5
:1021D00029FC0020C3E70000003C02400838024010
:1021E000204600082C0000200449054809680068C2
:1021F000044AC1F38221515CC8407047083802404C
:102200002C00002030460008044905480968006891
:10221000044AC1F34231515CC8407047083802405B
:102220002C00002030460008154910B515480968F3
:1022300011F00C0213D04110042A0FD0082A0ED13D
:102240000F4C241F2268236802F03F025B0207D56F
:102250002068C0F38810A0FB010106E0084610BD0D
:102260002168C1F38811A1FB00010023FDF7E0FF05
:102270002168C1F30141491C4900B0FBF1F010BDD8
:10228000083802400024F4002DE9F84F05004FF013
:1022900000076ED02878DFF82093A9F1040AC00760
:1022A000AAF104044CD0D9F800104846C1F38101CA
:1022B000012908D00068C0F3810002280AD1DAF8A9
:1022C0000000400206D52068800339D568680028E0
:1022D000DFD035E06868B0F5803F0BD010B1B0F5C5
:1022E000A02F11D0206820F480302060206820F4D6
:1022F000802002E0206840F480302060686890B15F
:10230000FFF7E0F806460AE0206840F480202060ED
:10231000F0E700BFFFF7D6F8801B642872D820686A
:102320008003F7D50CE0FFF7CDF8064605E000BFC7
:10233000FFF7C8F8801B6428F0D820688003F7D422
:102340002878800742D5D9F80010484611F00C0FC4
:1023500008D00068C0F3810002280BD1DAF8000031
:10236000400207D42068800718D5E868012800D10A
:1023700014E01EE1E8680028206817D040F0010052
:102380002060FFF79FF8064605E000BFFFF79AF8C8
:10239000801B0228C2D820688007F7D528692168E9
:1023A00021F0F80141EAC00020600FE020F00100B8
:1023B0002060FFF787F8064605E000BFFFF782F8C8
:1023C000801B02281ED820688007F7D428780007D1
:1023D00029D5794869696C3000298046016812D096
:1023E00041F001010160FFF76DF8064605E000BF0E
:1023F000FFF768F8801B022804D8D8F8000080078F
:10240000F6D510E089E021F001010160FFF75AF8EC
:10241000064604E0FFF756F8801B02287DD8D8F85E
:1024200000008007F6D4287840076BD5DFF8888154
:1024300008F13808D8F80000C0000BD4D8F8001014
:1024400041F08051C8F80010D8F80000012700F0D2
:102450008050009059480168C90512D4016883462C
:1024600041F480710160FFF72DF8064605E000BFDA
:10247000FFF728F8801B64284FD8DBF80000C00560
:10248000F6D54D4EA868683601280AD008B105284F
:1024900011D0306820F001003060306820F0040076
:1024A00002E0306840F001003060A868A0B1FFF79A
:1024B00009F883460CE0306840F004003060F0E733
:1024C000FFF700F8A0EB0B0141F28830814268D899
:1024D00030688007F4D50EE0FEF7F4FF834607E08E
:1024E000FEF7F0FFA0EB0B0141F28830814258D893
:1024F00030688007F4D42FB1D8F8001021F0805153
:10250000C8F80010A869E0B3D9F80010C1F3810140
:1025100002294ED00228206800E042E020F08070BE
:10252000206003D0FEF7CEFF05463DE0FEF7CAFF70
:10253000064604E0FEF7C6FF801B022831D820685B
:102540008001F7D4D5E90921DFF874C0D5E9070681
:1025500095F830304F0895F82C1030430CEB0745B8
:1025600045EA8212104340EA016040EA0370CAF86B
:102570000000206840F080702060FEF7A3FF054651
:1025800005E014E0FEF79EFF401B022809D82068F2
:102590008001F7D50BE000BFFEF794FF401B022837
:1025A00002D90320BDE8F88F20688001F4D4002010
:1025B000F8E70120F6E7000008380240007000400C
:1025C0000000FFFF401EB0F1807F10B501D3012055
:1025D00010BD4FF0E02460610F21601701F0A3FFF0
:1025E0000020A0610721216110BD7047704770472E
:1025F0002DE9F04390F83C20012A42D0012280F8D6
:102600003C2051F80C4BDFF880804FF0000991E836
:10261000680051E9022723F44073B1F80CC03B4332
:10262000CF6923F480631343026823F400632343D8
:1026300023F4805343EA050323F4005343EA0603DB
:1026400023F4804343EA07030C3923F47023424503
:1026500043EA0C4302D00D4CA2420CD18D8C23F4E2
:102660007006D1E9073446EA055121F0807119431B
:1026700021F000732343536480F83C900020BDE8B0
:10268000F0830220FBE7000000000140000401404D
:1026900070B590F83C20012A24D0134C012580F815
:1026A0003C50022280F83D2002685368A24296689E
:1026B00002D00E4CA24203D14C6823F47003234392
:1026C0000C6823F0700389681C435460002326F0D3
:1026D000800602683143916080F83D5080F83C30BC
:1026E000184670BD022070BD00000140000401408A
:1026F00010B5040003D094F83D0010B107E00120AC
:1027000010BD002084F83C00204600F00DF80220A7
:1027100084F83D002068211D01F0FCFA012084F8B6
:102720003D00002010BD000008B5114A01681148A5
:10273000914208D1016841F002010160006800F097
:102740000200009008BD0C4A9142FBD1016841F0A3
:102750001001016000680022114600F01000009096
:102760003620FFF7A5F9BDE808403620FFF792B9FB
:102770000004004040380240001000400168094A4F
:10278000CB6843F00103CB600168886810400628DD
:1027900006D0B0F5803F03D0086840F00100086023
:1027A000002070470700010070B5044690F83C0017
:1027B000012817D0324B012584F83C50022084F8C0
:1027C0003D0022689068184020F47F4090600868BF
:1027D000502830D00DDC20284DD005DC98B31028CF
:1027E0003BD148E0022070BD302844D0402834D18D
:1027F00039E0602828D0702806D0B0F5805F2CD052
:10280000B0F5005F29D10AE04A682068D1E90213D7
:1028100001F0E6FA2068816841F0770109E04A6832
:102820002068D1E9021301F0DBFA2068816841F4E5
:102830008041816011E0CA684968206801F018FC95
:102840002068502107E016E0CA684968206801F056
:1028500020FC2068602101F0CCFA002084F83D5073
:1028600084F83C0070BDCA684968206801F000FC2B
:1028700020684021EFE7226801461046EBE70000A0
:1028800088FFFEFF704770B50446006800250169A7
:10289000C943890715D4C168C943890711D4EA1E01
:1028A000026101212177206880698007204602D0DB
:1028B000FFF7E8FF04E000F020F9204600F004FAFA
:1028C000257720680169C943490717D4C168C943FE
:1028D000490713D402216FF00402026121772068B6
:1028E000806910F4407F204602D0FFF7CBFF04E060
:1028F00000F003F9204600F0E7F925772068016928
:10290000C943090716D4C168C943090712D4042171
:102910006FF00802026121772068C06980072046B5
:1029200002D0FFF7AFFF04E000F0E7F8204600F028
:10293000CBF9257720680169C943C90617D4C16856
:10294000C943C90613D408216FF010020261217730
:102950002068C06910F4407F204602D0FFF792FF44
:1029600004E000F0CAF8204600F0AEF925772068B0
:102970000169C943C90708D1C168C943C90704D15E
:10298000891E0161204600F0A1F920680169C94350
:10299000090609D4C168C943090605D46FF080014E
:1029A00001612046FFF722FE20680169C943C9057D
:1029B00009D4C168C943090605D46FF48071016167
:1029C0002046FFF712FE20680169C943490609D471
:1029D000C168C943490605D46FF040010161204632
:1029E00000F0CCF920680169C94389060BD4C1689D
:1029F000C943890607D46FF0200101612046BDE874
:102A00007040FFF7F4BD70BD30B587B004461421A7
:102A10006846FDF745FC24680021184D0220164A3F
:102A20000123AC4211D1146844F010041460126800
:102A300002F0100205924FF4C4420092CDE9010168
:102A4000CDE903130E48694612E0B4F1804F11D16D
:102A5000146844F001041460126802F00102059247
:102A60000A220092CDE90101CDE903130548694628
:102A7000FEF730FC07B030BD3038024000000140A6
:102A8000001002400000024070B5044690F83C007F
:102A900001280ED0012584F83C50022084F83D0026
:102AA0000C2A19D007DC5AB1042A0DD0082A1ED1ED
:102AB0000EE0022070BD102A12D0142A17D113E0A4
:102AC000206801F09FF912E0206801F0D5F90EE0CE
:102AD000206801F00DFA0AE0206801F045FA06E0EE
:102AE000206801F06DFA02E0206801F095FA0020FC
:102AF00084F83D5084F83C0070BD704710B5040068
:102B000003D094F83D0010B107E0012010BD002073
:102B100084F83C00204600F00CF8022084F83D00C8
:102B20002068211D01F0F6F8012084F83D00002006
:102B300010BD704770B5044690F83C000D46012862
:102B40000ED0012684F83C60022084F83D000C2A57
:102B500045D007DC5AB1042A1BD0082A78D12CE0D2
:102B6000022070BD102A4ED0142A71D15DE0206879
:102B700001F048F92068816941F00801816120680D
:102B8000816921F00401816120682A69816911430A
:102B900011E0206801F070F92068816941F400615A
:102BA00081612068816921F48061816120682969DF
:102BB000826942EA012181614AE0206801F098F9C6
:102BC0002068C16941F00801C1612068C16921F034
:102BD0000401C16120682A69C169114311E02068BC
:102BE00001F0C2F92068C16941F40061C161206847
:102BF000C16921F48061C16120682969C26942EA22
:102C00000121C16124E0206801F0DAF92068416DFA
:102C100041F0080141652068416D21F004014165E2
:102C200020682A69416D114311E0206801F0F4F930
:102C30002068416D41F4006141652068416D21F4D7
:102C40008061416520682969426D42EA0121416540
:102C5000002084F83D6084F83C0070BD10B504008D
:102C600003D094F83D0010B107E0012010BD002012
:102C700084F83C00204600F00DF8022084F83D0066
:102C80002068211D01F046F8012084F83D00002055
:102C900010BD000008B500680949884201D1094803
:102CA00004E0B0F1804F09D10648001F016841F0EF
:102CB00001010160006800F00100009008BD000003
:102CC0000000014044380240704700002DE9FE43F7
:102CD00000682449884242D1234CE068401CE060EF
:102CE000B0F5FA7F3BDBDFF88480CE14A0780025B6
:102CF00010B101282BD031E01D4F002210213846A1
:102D0000FEF7DBFB1B49E570E078431CDBB20A5C95
:102D1000521C0A54102BE370F6D364200091102249
:102D20000123CDE90120E079227A41001248FEF723
:102D300075FD0122314660704046FEF7BEFB012260
:102D400038461021FEF7B9FB0120A07006E00220F2
:102D500031460022A0704046FEF7AFFBE560BDE8BB
:102D6000FE8300000010004000000020000C024024
:102D700000040240300000207C010020704710B5A4
:102D8000040002D0606F10B107E0012010BD0020E8
:102D900084F87000204600F025F824206067206841
:102DA000016821F001010160204601F061FA01286B
:102DB000ECD0606A10B1204601F07DF920684168CE
:102DC00021F4904141602068816821F02A018160EE
:102DD0002068016841F0010101602046BDE8104013
:102DE00001F0CDB910B586B0044614216846FDF750
:102DF00057FA1249206888421ED11148016841F4EF
:102E000000210160006800F4002005900C48103893
:102E1000016841F00401016000680221002200F015
:102E200004000590032308244FF440608DE81F0040
:102E300004486946FEF74EFA06B010BD004C00404B
:102E4000403802400008024070B5836F202B4BD100
:102E5000B9B1B2B190F87030012B45D0836801262A
:102E600080F870600024416535030466AB42A0F829
:102E70005820A0F85A204FF0FF0107D1026912B183
:102E800026E0012070BD40F2FF1121E04FF07F02EB
:102E9000E3B1B3F1805F1ED0A0F85C402221C4678B
:102EA000816701688A6842F001028A608168A942EC
:102EB00001D10169B1B10D49016680F87040006827
:102EC000016841F490710160002070BD036933B95D
:102ED000A0F85C10E2E7016909B13F21F8E7A0F82A
:102EE0005C20DBE70249E7E7022070BD15420008DD
:102EF000BB41000806484FF4006110B5FEF7D6FA52
:102F0000BDE81040034901220348FFF79DBF0000C0
:102F1000000C024009000020C8020020FEE700006B
:102F20000148FEF72DBB00007C0100200148FEF7A0
:102F30005BBB00007C01002010B5806B0021826B20
:102F40001165C26B116590F84110602902D0FEF73F
:102F500053FB10BD202180F84110FEF70FFB10BD80
:102F6000CA074FF028034FF0000210B506D090F8C2
:102F70004140422233EA040400D0F2228C0707D5F4
:102F800090F8414042F04402A34301D042F0B00225
:102F90004B0701D542F0B80211238B4301D142F017
:102FA000900212238B4301D142F060020068016855
:102FB0009143016010BD01688A69D243920701D430
:102FC00000228A6200688169C943C90703D0816908
:102FD00041F00101816170472DE9F041044690F80C
:102FE00041002821002508238143206804D0C361C3
:102FF00084F84050BDE8F081876986694FF0FE0E85
:103000008168C268C7F30047D4F80CC00EEA1646C0
:1030100002F0FE02BCF1020FC1F3090118D14FF01A
:10302000060C06F006060CEAD11C66450FD1A66C0C
:103030000A46761CA664A16C0229DBD1A564C36193
:1030400084F8405039462046FEF799FAD2E71646F2
:1030500020460421FFF784FF324684F84050F1E710
:1030600070B5344A0025044690F84100202684F8C3
:103070004250E2626585626C282842EA010262647D
:1030800025D0292823D02A2821D007212046FFF740
:1030900067FF94F84100602801D084F841602563FF
:1030A0006563206824490268520402681AD522F434
:1030B00080420260A06B002833D0016584F8405044
:1030C000A06BFDF7A0FF00282BD0A06B1CE0032114
:1030D0002046FFF745FF19492820616384F8410025
:1030E0002563DEE7120413D5026822F40042026071
:1030F000E06B002815D0016584F84050E06BFDF7C7
:1031000082FF00280DD0E06B016DBDE870400847DC
:1031100094F84100602805D0204684F84050FEF71E
:103120006BFA70BD84F84160204684F84050FEF789
:1031300025FA70BD0000FFFF392F00083934000860
:1031400070B50446164AC843002541074FF02000D9
:10315000E262256384F8410084F84250656311D42B
:103160002068616A406A0870606A401C6062208D55
:1031700040B1618D401E2085491E6185606C40F024
:103180000400606407212046FFF7EAFE2168102052
:10319000C861204684F84050FEF78CFA70BD0000EC
:1031A0000000FFFF2DE9F0410446006820270E468D
:1031B0000568C76107212046FFF7D2FE2068334922
:1031C000426842F400424260206842680A4042601D
:1031D0002046FFF7F0FEE843410401D4A06B02E073
:1031E000000404D4E06B10B1006840686085F043CF
:1031F00040070FD4206826F00406616A406A087010
:10320000606A401C6062208D20B1618D401E208567
:10321000491E6185608D18B1606C40F004006064E7
:103220000025256384F84250606C656368B1616C69
:103230002046FFF715FF94F84100282814D13146A5
:103240002046BDE8F041FFF77BBFE06A104EB04278
:103250000CD0204600F01EF8E66284F8417020464B
:1032600084F84050FEF726FABDE8F08194F841005A
:1032700084F841702228204684F8405002D0FEF79E
:10328000BCFBF1E7FEF7B8FBEEE7000000E800FE4C
:103290000000FFFF70B504460025282084F8425046
:1032A00094F84110292911D094F841102A290CD101
:1032B000222184F84100216302212046FFF750FEBD
:1032C000204684F84050FEF797FB70BD212184F81A
:1032D0004100216301212046FFF742FE204684F889
:1032E0004050FEF78AFB70BD2DE9F04104460068AE
:1032F00090460E468069C043C00635D4002520277D
:1033000020688069C043800616D5701CF8D0FEF78F
:10331000D9F8A0EB0800B04201D8002EF0D1606CC3
:1033200084F8405040F02000606484F8417084F8D4
:1033300042500120BDE8F08121681020C86120685A
:10334000C7612046FFF737FE2068084942680A40F7
:103350004260606C40F00400606484F8417084F85E
:10336000425084F84050E4E70020E3E700E800FE24
:103370002DE9F843174604461548DAB2DDE9089806
:103380001E4600900023204600F0E8F842464946D9
:10339000204600F04DF9B8B9012EFDB208D02068E2
:1033A000390A816242464946204600F041F958B93F
:1033B00020688562002240214B462046CDF80080DF
:1033C00000F0E2F8002800D00120BDE8F8830000FA
:1033D000002000802DE9F8430446164817461E4693
:1033E000DAB20090C3022046DDE9089800F0B6F892
:1033F00042464946204600F01BF9B8B9012EFDB2FD
:1034000008D02068390A816242464946204600F0C9
:103410000FF958B920688562002280214B4620466A
:10342000CDF8008000F0B0F8002800D00120BDE801
:10343000F8830000002000802DE9F04190F8403032
:103440000446C06A0D46012B1DD0E943012384F8D0
:1034500040306FEA0206404ACF064FF0807331D405
:10346000F7062FD4678D102187B12268D161616C76
:1034700041F00401616408B1984260D1616C20465A
:10348000FFF7EEFD5BE00220BDE8F08194F84130EB
:10349000282B02D1B0F1007F04D094F84130292BC1
:1034A00005D00CE029462046FFF74AFE47E090424F
:1034B00005D02068C1612046FFF77DFD3CE0206813
:1034C000C1613CE04F0717D4770715D4618D71B106
:1034D000216825F00405636A496A1970616A491C0C
:1034E0006162218D491E2185618D491E6185618D35
:1034F00029BB904220D122E00A0706D4320704D427
:1035000029462046FFF768FD19E0890717D4B1075F
:1035100015D4618D69B1606A216800788862606A3B
:10352000401C6062608D401E6085208D401E20859D
:1035300005E0984200D010B92046FFF7ABFEE84303
:10354000800605D4B00603D429462046FFF72AFE9C
:10355000002084F8400097E70000FFFF70B5006886
:10356000C1F30901074E41EA0241049C4FF4806512
:103570004268194305EA54553543AA4321430A4397
:10358000426070BDFF63FF032DE9F0411D46174601
:103590000E460446DDF8188008E0681C06D0FDF7EA
:1035A00091FFA0EB0800A8420BD855B120688069B4
:1035B00036EA000013D00020B842EED00020BDE86B
:1035C000F081626C002084F84000202142F020024B
:1035D000626484F8411084F842000120EFE7012082
:1035E000EAE770B516460D4604460DE03246294618
:1035F0002046FFF779FE08B1012070BDFDF762FF9C
:10360000801BA84207D835B120688069C043800676
:10361000ECD4002070BD626C002084F840002021B2
:1036200042F02002626484F8411084F84200E3E72B
:1036300070B516460D4604460FE032462946204630
:10364000FFF752FE08B1012070BD681C05D0FDF7E0
:1036500039FF801BA84207D835B120688069C04374
:103660008007EAD4002070BD626C002084F840001E
:10367000202142F02002626484F8411084F8420064
:10368000E1E700002DE9FF41414800214FF44035BA
:103690003E4B0091012401914FF0090802910391E2
:1036A000C0E900350461846181603A4B80F82010E4
:1036B000C0E90A31C0F81C80C16080F83040446124
:1036C000FDF7AAF808B1FCF752FF07253048042699
:1036D00000966946CDE90145FCF74CFF08B1FCF7BF
:1036E00046FF022069460524CDE900402848FCF742
:1036F00041FF08B1FCF73BFF032069460627CDE9EF
:1037000000702348FCF736FF08B1FCF730FF204873
:103710006946CDE90056FCF72DFF08B1FCF727FFFD
:1037200008261B48CDE900646946FCF723FF08B171
:10373000FCF71DFF16484446CDE900876946FCF7B3
:1037400019FF08B1FCF713FF0A206946CDE900050F
:103750000F48FCF70FFF08B1FCF709FF0B20694683
:10376000CDE900060A48FCF705FF08B1FCF7FFFEAB
:103770000E206946CDE900040548FCF7FBFE002851
:1037800001D0FCF7F4FEBDE8FF81000000200140FD
:10379000500000200100000F1048002170B50E4DB0
:1037A000062405604FF46022C0E9014100F10C04D9
:1037B0004FF4801384E80E00017641768176C1765D
:1037C00001774177FDF7E9FA002803D0BDE87040A2
:1037D000FCF7CDBE70BD0000006800405401002021
:1037E000094808B5016841F48001016000680022C1
:1037F000114600F4800000903820FEF759F9BDE82A
:1038000008403820FEF746B93038024070470000C3
:103810002DE9F04F87B014216846FCF741FD4C4874
:10382000016841F010010160016801F0100105918B
:10383000016841F080010160016801F0800105919B
:10384000016841F004010160016801F00401059183
:10385000016841F001010160016801F00101059179
:10386000016841F002010160016801F00201059167
:10387000016841F00801016000680022DFF8D4808F
:103880001C2100F0080005904046FDF716FEDFF809
:10389000C89040F61E66002231464846FDF70DFEF0
:1038A000DFF8B8A04FF44077002239465046FDF7C4
:1038B00004FEDFF8ACB0002210215846FDF7FDFDF4
:1038C0000024694601251C200090CDE901544046A2
:1038D0000394FDF7FFFC00966946CDE90154484684
:1038E0000394FDF7F7FC40206946CDE900045046FB
:1038F0000294FDF7EFFC00976946CDE9015450466C
:103900000394FDF7E7FC10206946CDE90005CDE9F9
:1039100002545846FDF7DEFC02264FF00908290242
:10392000584602AACDE900160327694682E8A0019D
:10393000FDF7D0FC6902584602AACDE90016694697
:1039400082E89001FDF7C6FC07B0BDE8F08F0000EB
:103950003038024000100240000C024000080240D3
:10396000000402401348002110B5114C0123124AF3
:103970000460C0E90121C0E9033141618161C16195
:103980000162FDF73BFE08B1FCF7F1FD094800219B
:10399000FDF79EFD08B1FCF7EAFD06480021FDF7A2
:1039A000C3FD002803D0BDE81040FCF7E0BD10BD0A
:1039B000005400407C0100200D03006030B595B03C
:1039C000002468461C21129413941494FCF768FC9C
:1039D0002C2107A8FCF764FC2F4840F237422D4900
:1039E00040F2CF7380E81600C0E90334446184617B
:1039F000FFF734F908B1FCF7BAFD2748FFF77EF866
:103A000008B1FCF7B4FD244812A91294139414943D
:103A1000FEF73EFE08B1FCF7AAFD60251E48CDE981
:103A20000054002269460294039404940594069479
:103A3000FFF780F808B1FCF79AFD1748082269469D
:103A40000094FFF721F808B1FCF791FD12480C2211
:103A500069460095FFF76EF808B1FCF788FD4FF452
:103A6000005007940894099401030A94CDE90B408F
:103A7000CDE90E41084807A90D9410941194FEF762
:103A8000B7FD08B1FCF773FD0348FEF7BDFF15B0A5
:103A900030BD000000000140C801002010B58AB010
:103AA000002468461C21079408940994FCF7F8FB4D
:103AB0001A4840F2CF7140F237424FF08043C0E9DC
:103AC000024104618461C0E90032FFF7C7F808B120
:103AD000FCF74DFD114807A907940994FEF7D8FD9E
:103AE00008B1FCF744FD60206946CDE900040B48AD
:103AF000042202940494FFF71DF808B1FCF737FD87
:103B000006480C226946FFF715F808B1FCF72FFDAF
:103B10000248FEF779FF0AB010BD0000080200203D
:103B200010B588B0164800241449009401940294FA
:103B30000394049405940694C0E900148460C4605E
:103B400004618461FEF7D4FD08B1FCF710FD4FF469
:103B5000805000900A486946FEF726FE08B1FCF73F
:103B600006FD074804A904940694FEF791FD002879
:103B700001D0FCF7FCFC08B010BD000000040040C0
:103B8000480200203EB5104800246B2140F2E73285
:103B9000009401940294C0E902410A4B8461C0E997
:103BA0000032FEF7A5FD08B1FCF7E1FC06486946C6
:103BB00000940294FEF76CFD002801D0FCF7D7FCBE
:103BC0003EBD000000100040880200200D4800218A
:103BD00010B50B4C0C224FF4E1330460C0E9013105
:103BE000C160C0E904128161C16101624162FFF7F5
:103BF000C6F8002803D0BDE81040FCF7B8BC10BDE3
:103C0000004C0040C8020020FEE770477047704734
:103C1000FDF7F4BE30B5B7B0342124A8FCF740FB63
:103C2000142131A8FCF73CFB90216846FCF738FBD7
:103C30001E48016841F080510160006800F080502A
:103C400036901B48016841F440410160006800253E
:103C50000DF1B00C022424940822D823CDE92A4582
:103C600000F44040369010218CE81C0001202F9475
:103C7000CDE9270124A8FEF707FBFDF74BFFE20281
:103C80004FF4A0510F20CDE9341231AA072182E868
:103C9000310031A8FEF712FA14954FF484401995BB
:103CA00000906846FDF76CFF37B030BD40380240E9
:103CB00000700040104A30B51048146800210F4BC6
:103CC00044F470041460083305680D4A0D4C45F047
:103CD0000105056019600368051D1340074A03606C
:103CE0000C322C600568E305034C25F48025056043
:103CF000803C1160236030BD88ED00E00038024058
:103D0000FFFFF6FE103000240148FEF7BCBD0000A6
:103D100088020020F0B5274B4FF0804E264D0268F8
:103D20009842264E264F274C09D0704507D0A8420E
:103D300005D0B04203D0B84201D0A04205D1D1F89D
:103D400004C022F070024CEA020298421BD0704577
:103D500019D0A84217D0B04215D0B84213D0A04213
:103D600011D0194DA8420ED0184DA8420BD0184DB5
:103D7000A84208D0174DA84205D0174DA84202D03E
:103D8000164DA84203D1CD6822F440722A434D69F2
:103D900022F080022A43026098428A68C2620A685E
:103DA000826201D0A04201D1096901630121416110
:103DB000F0BD000000000140000400400008004089
:103DC000000C00400004014000400140004401405C
:103DD0000048014000180040001C00400020004046
:103DE00042EA032283680A4323F47F410A43826044
:103DF0007047826822F070020A4342F00701816036
:103E000070470000F0B5026ADFF860C0184F22F07A
:103E10000102DFF860E00262066A4268836926F008
:103E200002060D68B8428C6803EA0C0323F0030312
:103E300044EA060445EA030501D0704505D1CB6884
:103E400024F00804234323F00404B84201D0704551
:103E500005D122F44076D1E9053233431A4342605A
:103E60008561496841630462F0BD00008FFFFEFF79
:103E70000000014000040140F0B5026A194E1A4CDE
:103E800022F01002DFF864E00262056A436882698A
:103E900025F02005D1F808C0A0420F6802EA06020A
:103EA00022F4407245EA0C1542EA072201D070451F
:103EB00006D1CE6825F0800545EA061525F04005B7
:103EC000A04201D0704507D1D1E9054623F44063F3
:103ED00043EA840343EA860343608261496881635D
:103EE0000562F0BDFF8FFFFE0000014000040140AD
:103EF000F0B5026A194F1A4E22F48072DFF864E0BE
:103F00000262056A4368C26925F40075D1F808C0E9
:103F1000B0420C6802EA070222F0030245EA0C25CF
:103F200044EA020401D0704506D1CF6825F400624E
:103F300042EA072222F48065B04201D0704507D1E1
:103F400023F44052D1E9053642EA031242EA06134D
:103F50004360C4614968C1630562F0BD8FFFFEFF25
:103F60000000014000040140F0B5026A124B114FFD
:103F700022F4805298420262046A4268C36924F4BF
:103F800000548E680D6803EA070323F4407344EA83
:103F9000063443EA052302D0084DA84204D14D69F6
:103FA00022F4804242EA85124260C361496801649A
:103FB0000462F0BDFF8FFFFE0000014000040140DD
:103FC000F0B5026ADFF844C022F480320262056A6A
:103FD0004268446D25F400350E8960450C4F0B682E
:103FE00004EA070445EA064543EA040302D0094C03
:103FF000A04204D14C6922F4803242EA0422426099
:104000004365496881650562F0BD0000000001401C
:104010008FFFFEFF00040140F0B5026ADFF844C0E4
:1040200022F480120262046A4268436D24F4001490
:104030000E8960450C4F0D6803EA070344EA0654F5
:1040400043EA052302D0094DA84204D14D6922F468
:10405000802242EA8522426043654968C165046264
:10406000F0BD000000000140FF8FFFFE0004014092
:1040700010B5036A046A23F00A0324F00104046201
:1040800084690B4324F0F00141EA0211816103626B
:1040900010BD10B5036A23F0100303628369046A3C
:1040A00023F4704324F0A00443EA0232826144EA1C
:1040B0000111016210BD90F82410C90706D00168F3
:1040C000836A4A6822F400321A434A6090F8241046
:1040D000890706D50168C36A4A6822F480321A4308
:1040E0004A6090F82410490706D50168036B4A68B6
:1040F00022F480221A434A6090F82410090706D55A
:104100000168436B4A6822F400421A434A6090F8FF
:104110002410C90606D50168836B8A6822F4805290
:104120001A438A6090F82410890606D50168C36B8B
:104130008A6822F400521A438A6090F824104906D3
:1041400011D50168036C4A6822F480121A434A6050
:10415000016CB1F5801F06D10168436C4A6822F4F6
:10416000C0021A434A6090F82410090606D5016877
:10417000826C486820F4002010434860704738B5CE
:1041800000250446C567FDF79DF9034620680068D1
:1041900000070BD56FF07E400090002220464FF4C0
:1041A000001100F08FF908B1032038BD20206067AE
:1041B00084F87050A067002038BD10B5816FB0F84A
:1041C0005C202229016804D0886940F008008861D9
:1041D00010BD496A436D11401980416D891C4165CC
:1041E000B0F85A10491EA0F85A10B0F85A10002919
:1041F000EED10168202200230C6824F490740C6036
:1042000001688C6824F001048C6082670366FEF705
:1042100071FE10BD10B5816FB0F85C2022290168D5
:1042200004D0886940F00800886110BD496A436D78
:1042300011401970416D491C4165B0F85A10491E72
:10424000A0F85A10B0F85A100029EED101682022C7
:1042500000230C6824F490740C6001688C6824F0CE
:1042600001048C6082670366FEF744FE10BD000007
:104270002DE9F04104468068DFF818C2864F2368B4
:10428000D4E90452E16928431E6800250A438349A2
:10429000104306EA0C0606431E604FF400422068F5
:1042A000E668436823F44053334343602368A669B8
:1042B000206AD3F808C030432CF4306606439E6071
:1042C0002068B8420AD1086810F0030052D00128D3
:1042D0007BD002287AD003286ED186E0704B9842BA
:1042E0000AD1086810F00C0079D004287BD0082887
:1042F00077D00C2860D178E06A4B98420AD10868E0
:1043000010F030006BD010286DD0202869D03028F4
:1043100052D16AE0644B98420AD1086810F0C0009C
:104320005DD040285FD080285BD0C02844D15CE0BD
:104330005E4B98420DD1086810F440704FD0B0F534
:10434000807F50D0B0F5007F4BD0B0F5407F33D1A7
:104350004BE0574B98420FD1086810F4406009D0E9
:10436000B0F5806F3FD0B0F5006F3AD0B0F5406F38
:1043700022D13AE0012120E04E4B98420DD108684D
:1043800010F440502BD0B0F5805F2CD0B0F5005F1A
:1043900027D0B0F5405F0FD127E0474B98420BD1B3
:1043A000086810F440401AD0B0F5804F1BD09042FE
:1043B00017D0B0F5404F18D01021E0694FF6EF76D6
:1043C000904238D109295DD202E00CE009E006E014
:1043D000DFE801F00D1027582A5858582D00002109
:1043E000EBE70221E9E70421E7E70821E5E7FDF72C
:1043F000FBFE01E0FDF708FF0146D4F80400490088
:1044000001EB5001B1FBF0F080B2A0F11001B1421C
:1044100038D84FF6F0732168C0F3420218401043B9
:1044200024E026496068EBE7FDF7FEFEE4E76068FC
:104430004FF48031E4E7092924D2DFE801F00508D0
:1044400019231C2323231F00FDF7CEFE01E0FDF7F7
:10445000DBFE0146D4F8040001EB5001B1FBF0F0A3
:1044600080B2A0F11001B1420CD82168C8600AE006
:1044700013496068F0E7FDF7D7FEEAE7606802EBF2
:104480005001EBE701250020206660662846BDE864
:10449000F0810000F369FFEF001001409038024006
:1044A0000044004000480040004C004000500040E4
:1044B0000014014000780040007C00400048E80102
:1044C0000024F4002DE9F041984617460E460446B4
:1044D000069D08E0681C06D0FCF7F4FFA0EB08007E
:1044E000A8420BD855B12068C06936EA000017D041
:1044F0000020B842EED00020BDE8F08121682020E5
:1045000000220B6823F4D0730B6021688B6823F0C2
:1045100001038B606067A067032084F87020EBE7DD
:104520000120E6E7FEE7090700284FEA116104DBF6
:1045300000F1E02080F80014704700F00F0000F157
:10454000E02080F8141D704702E008C8121F08C15F
:10455000002AFAD170477047002001E001C1121F04
:10456000002AFBD1704700000EB5FDF74FFAFFF7A8
:1045700051FBFFF74DF9FFF733F9FFF783F8FFF72A
:104580000BF9FFF7EFF9FFF719FAFFF787FAFFF7D3
:104590001DFBFFF73BF9FFF7C3FAFFF7F3FA1848E3
:1045A000FEF7ECF8174901221748FEF74DFCFBF720
:1045B0007DFFFA20FCF77CFE144801221021FCF755
:1045C0007CFF104C01200025DFF84480093C1026B8
:1045D000642720716571A079C000E0712672A0780F
:1045E0000228FCD1CDF800800123CDE90167E079F4
:1045F000227A41000748FDF75FF82070A570EEE7CA
:104600008802002009000020C802002000040240A7
:10461000400000207C010020000610160006101645
:104620000000000000000000010203040607080962
:1046300000000000010203045846000800000020AA
:10464000300000004845000888460008300000207F
:1046500018070000584500080808000000000A007C
:10466000000000000000000000000000000000004A
:104670000000000000000000010000001000000029
:08468000000000000024F4001A
:04000005080001F9F5
:00000001FF
