:020000040800F2
:10000000401A00200D02000839A20008E16600082D
:10001000D1A100082D11000887AC000800000000E5
:10002000000000000000000000000000A1A2000885
:10003000911600080000000089A20008CDA2000867
:1000400027020008270200082702000827020008EC
:1000500027020008270200082702000827020008DC
:1000600027020008270200082702000827020008CC
:10007000270200082702000827020008D5150008FB
:100080002702000827020008990B00082702000831
:10009000270200082702000827020008270200089C
:1000A000270200082702000827020008270200088C
:1000B000270200082702000827020008E56600085A
:1000C000270200082702000827020008270200086C
:1000D000270200082702000827020008270200085C
:1000E000270200082702000827020008270200084C
:1000F000270200082702000827020008270200083C
:10010000270200082702000827020008270200082B
:1001100025A7000827020008C5A300082702000839
:10012000E11500082702000827020008270200083E
:100130002702000827020008270200085D110008B6
:100140004511000851110008270200082702000885
:1001500027020008270200082702000827020008DB
:1001600027020008270200082702000827020008CB
:1001700027020008270200082702000800000000EC
:1001800027020008270200082702000827020008AB
:10019000270200082702000827020008270200089B
:1001A000270200082702000827020008270200088B
:1001B000270200082702000827020008270200087B
:1001C000270200082702000800000000270200089C
:1001D000270200082702000827020008270200085B
:1001E000270200082702000827020008270200084B
:1001F0002702000827020008DFF80CD000F09CF866
:1002000000480047A9B10008401A0020064880476E
:1002100006480047FEE7FEE7FEE7FEE7FEE7FEE7EB
:10022000FEE7FEE7FEE7FEE771A30008F90100081C
:100230002DE9F05F0546002092469B46884606461B
:10024000814640241BE0284641464746224600F0AE
:1002500062F853465A46C01A914110D311461846C7
:10026000224600F049F82D1A67EB01084F46224656
:100270000120002100F040F817EB00094E41201E3C
:10028000A4F10104DFDC484631462A464346BDE876
:10029000F09F40EA01039B0703D009E008C9121F41
:1002A00008C0042AFAD203E011F8013B00F8013B30
:1002B000521EF9D27047D2B201E000F8012B491E5C
:1002C000FBD270470022F6E710B513460A460446F3
:1002D0001946FFF7F0FF204610BD30B50546002057
:1002E000034600E05B1C934205D2EC5CC85C201A1C
:1002F00001D1002CF6D130BD202A04DB203A00FACF
:1003000002F1002070479140C2F1200320FA03F36C
:10031000194390407047202A04DB203A21FA02F06A
:100320000021704721FA02F3D040C2F1200291402F
:100330000843194670470000064C074D06E0E06888
:1003400040F0010394E8070098471034AC42F6D31C
:10035000FFF756FF08B9000828B900082DE9F05F3B
:10036000DFF82484022601254FF0050B4FF0000929
:100370002DED028BB8F8C40DB8F8DA1D884279D09B
:10038000B8F8C60DB8F8DC1D884273D001F00CFA3D
:1003900000204C46A8F87E9E00F0D2FFB8F8C60DAB
:1003A000F0B1032827D001283BD088F8DA4F022883
:1003B00088F8D94F88F8D84F46D088F8D5BFB8F814
:1003C000C41DA8F8DA1DA8F8DC0D0AF0FBFC0AF041
:1003D000DBFC00BF88F8D75FBDEC028BBDE8F09F67
:1003E00088F8DA4F88F8D94F88F8D84F88F8D5BF01
:1003F0000AF06CFDEEE788F8DA4F88F8D94F88F8F4
:10040000D84F88F8D5BF0AF061FD98F8D70F0228B9
:10041000E2D088F8D76FBDEC028BBDE8F05F01F049
:10042000B3B988F8DA4F88F8D94F88F8D55FB8F8AB
:10043000C00DA8F8C60EB8F8C40DA8F8DA0DA8F8D3
:10044000DC5D88F8D86F11E088F8D56FB8F8C80D72
:10045000A8F8CA0EB8F8C40DA8F8DA0DA8F8DC6D33
:1004600098F8DE0F0128B7D088F8DE5FA8F87E4E36
:1004700018E0FFE7C44C192798F8D80F012894F822
:10048000DACFB4F8C63EB4F8C22DB4F8C01D04F5F6
:1004900000640FD002289FD1994201D0012A7BD05D
:1004A000A8F87E9E0AF08EFCBDEC028BBDE8F05FE2
:1004B0000AF06ABC98F8D90F012808D002288BD11D
:1004C00088F8D99F88F8D86FA8F87E9EEAE7994205
:1004D00000D07AB1C2469FEDAD8BAB48BCF1060FA0
:1004E000B0F8CE0EBFF478AFDFE80CF0030B93E862
:1004F000FAF971E7A8F8C61E88F8DA9F88F8D96F6C
:10050000E9E001287FD89942D04675D0022A73D1FC
:100510000B200AF087FDB8F8D01D88426CDCB8F8D3
:10052000C01D0020A8F8C61E88F8DABFA8F87E6EA5
:100530000AF078FD00EE100AB8EEC00B84ED300B27
:10054000B4EEC80BF1EE10FA0CD2B5EEC00BF1EE22
:1005500010FA05DBBCEEC00B10EE100AC0B202E0D0
:10056000002000E0FF2000F0EBFE02200AF05AFD20
:1005700090FBF7F0C8F88C0C00200AF053FD0546FC
:1005800001200AF04FFD002D014606DB6FF0004010
:100590002A1A914209DB07E0D3E005F100408142CD
:1005A00002DD4FF0004000E0681A6FF0004280FB6F
:1005B00007500021521B814102DA6FF0004507E02D
:1005C0004FF00041691A70F1FF3001DA4FF0004539
:1005D00002200AF027FD00EE100AB8EEC01B00EE64
:1005E000105AB8EEC00B80EE012B84ED322BA8F828
:1005F000CE7EF1E607E0FFE788F8DA5FA8F87E5ED6
:10060000A8F8CE7E7CE0401E00D50020AAF8CE0ED1
:1006100079E0012855464BD8D5F88C0C002806DD2A
:1006200001200AF0FFFC95F8BC1F884211DB002076
:1006300000F086FE01F0B8F8032085F8DA0FA5F87F
:10064000CE7EB5F8D80DFF2800D9FF205149887417
:1006500047E085F8DA6F94ED300B94ED321B30EE05
:10066000410B84ED300BB4EEC80BF1EE10FA0DD255
:10067000B5EEC00BF1EE10FA06DB00BFBCEEC00B0E
:1006800010EE100AC0B202E0002000E0FF2000F0EF
:1006900057FED5F88C0C4FF00041884202DCC5F8BB
:1006A0008C1C02E0401EC5F88C0CA5F8CE7E93E6AB
:1006B000401E00D50020AAF8CE0E8DE6BAF8D81D4F
:1006C0005046DAF8B82A91420BDB082909D080F8A5
:1006D000DA9F8AF8D96F01F067F800204EE018E041
:1006E00005E0BDEC028BBDE8F05F0AF0EDBA012831
:1006F0005146DDD881F8DA5FA1F87E5EAAF8CE7E99
:10070000642000F01DFEBDEC028BBDE8F05F0AF036
:1007100059BB01285546CBD885F8DA6F94ED300BDC
:1007200094ED321B30EE410B84ED300BB4EEC80B70
:10073000F1EE10FAAAD2B5EEC00BF1EE10FAA3DB7F
:100740009CE7A8F8C61EBCF1040F9FED130B88F8B8
:10075000D85FA8F8CE9E84ED300B84ED320BC8F83C
:100760008C9C88F8D95FA2D0042088F8DA0FA8F80A
:100770007E5EA8F8CE7E01F007F86420BDEC028B07
:10078000BDE8F05F00F0DCBD780000200000000054
:100790000000704078100020000000000000000001
:1007A0002DE9FC5FD14C012602270025B4F8C40DC9
:1007B000B4F8DA1D88427BD0B4F8C60DB4F8DC1D5D
:1007C000884275D000F0F0FF0020A4F87E5E00F0B3
:1007D000B7FDB4F8C60D4FF0050828B1032819D0AD
:1007E000012830D0022845D00AF082FB84F8D58F4A
:1007F000B4F8C40DA4F8DA0DB4F8C60DA4F8DC0DF5
:1008000004F6C4540AF0DEFA0AF0BEFA84F8136261
:10081000BDE8FC9F0AF06CFB84F8D58FB4F8C40DDA
:10082000A4F8DA0DB4F8C60DA4F8DC0D0AF0CAFA83
:100830000AF0AAFA94F8D70F0228E9D084F8D77FF3
:1008400000F0A2FFE4E70AF053FB84F8D56FB4F898
:10085000C00DA4F8C60EB4F8C40DA4F8DA0DB4F8AF
:10086000C60DA4F8DC0D94F8D80F0228D0D084F877
:10087000D87F15E00AF03CFB84F8D57FB4F8C80DAA
:10088000A4F8CA0EB4F8C40DA4F8DA0DB4F8C60D75
:10089000A4F8DC0D94F8DE0F0128B9D084F8DE6FDF
:1008A000A4F87E5E0AF08EFA0AF06EFAB0E7FFE76F
:1008B00094F8DE0F0C28ABD2DFE800F006070AFD43
:1008C000F2F1F0EFEEEDECEBA2E700F04BFD9FE76D
:1008D00094F8DF0F012804D0022899D184F8DF5F53
:1008E000DCE78248B4F8C82DB4F8CA3EB0F8CA1D97
:1008F0009A4200D021B3DFF8F4814FF0190994F83F
:10090000E0CFDFF8ECA108F5A47BBCF1010FB8F84B
:10091000D20E1AD0BCF1020F4FD0BCF1030F7DD024
:10092000BCF1040F8ED1012879D800BF84F8E06FA4
:100930003720A4F87E6EA4F8D29E00F001FD39E0C5
:10094000A4F8CA2E84F8E15F99E001282DD89A42D4
:10095000ECD00229EAD10B200AF06CFBB4F8D01DD0
:100960008842E3DCB4F8C80D5A46A4F8CA0EA4F8CD
:100970007E7E84F8E07FA4F8D45EB4F8D20DB4F89B
:10098000D41D04F6C85400EE900A00EE101ADAF8EE
:1009900004006946B8EE601BB8EE400BB7EE002BC2
:1009A00007F0D0FE84F8197232E7401E00D500200F
:1009B000A4F8D20E0AF006FA2AE7B4F8CE0D0A28F7
:1009C00013D3002000F0BCFC00F0EEFE84F8E15FE1
:1009D000032184F8E01FA4F8D29EB4F8D80DFF28B4
:1009E00000D9FF20434988745CE094F8E10F0128A6
:1009F00037D00228D8D194F8B20FB4F8D41E884268
:100A0000D2D0A4F8D40E84F8E16FB4F8D20DB4F8C3
:100A1000D41D00EE100A00EE901A01E029E044E037
:100A2000B8EE401BDAF804005A46B8EE600B9FEDB2
:100A3000322B694607F086FE9DED000B9FED301BC3
:100A4000B4EEC10BF1EE10FA11D2B5EEC00BF1EE1F
:100A500010FA09DBBCEEC00B10EE100A84F8BC0FD4
:100A6000D6E684F8E17FD3E684F8BC5FD0E6FF20C9
:100A7000F4E7B4F8D80D032814D3082812D084F86A
:100A8000E05F84F8DF7F00F08FFE002000F058FC6C
:100A9000BEE628E024E020E01CE018E014E010E0CE
:100AA0000CE008E00AF044F9B2E6401E00D5002050
:100AB000A4F8D20EACE606F013FCA9E606F020FD81
:100AC000A6E606F023FEA3E606F026FFA0E607F062
:100AD00029F89DE607F02CF99AE607F02FFA97E639
:100AE00007F032FB94E607F035FC91E67800002031
:100AF000E8B70008781000200000000000000000A7
:100B0000000000000000704010B50146806B026CD0
:100B100012F0500F05D0026CD20626D502F0A9FFC4
:100B200010BD016C41F40071016401688A6812F023
:100B3000405F17D18269AAB9CA6A12F4700F02D055
:100B40008A6852050ED44A6822F020024A60016C7D
:100B500021F480710164016CC90403D4016C41F07B
:100B60000101016402F07AFF10BD806BC26C08467F
:100B7000BDE81040104710B5806B40210164416C06
:100B800041F00401416402F074FF10BD10B5806BA8
:100B900002F06EFF10BD0000014802F06BBF0000C4
:100BA000C41200204A496FF0706210B5D1F80433C6
:100BB00023F44033C1F80433D1F8043344682343A9
:100BC000C1F8043301684B6823F480734B600168FB
:100BD00003694C6844EA03234B6001684B6823F0C7
:100BE00040734B60016884684B6823434B60016825
:100BF0008B6823F400638B600168C4688B682343AF
:100C00008B60816AD14201688A6822F070628A60D2
:100C100001680DD0836A8A681A438A6001688A680D
:100C200022F040528A600168C36A8A681A4302E06F
:100C30008A6822F040528A6001688A6822F00202C3
:100C40008A60016882698B6843EA42028A6090F890
:100C500020100029016811D01E4A4B6843F400633C
:100C60004B6001684B6823F460434B600168446A41
:100C70004B6802EB443213434B6003E04A6822F4B2
:100C800000624A600168144BCA6A22F47002CA62A8
:100C90000168848BCA6A03EB04531A43CA62016871
:100CA0008A6822F400728A60016890F830208B68AC
:100CB00043EA42228A6001688A6822F480628A607C
:100CC000016840698A6842EA8020886010BD00009F
:100CD0000020014000E0FFFF0000F0FF2DE9F05F81
:100CE000DFF83084022601254FF0050B4FF0000994
:100CF0002DED028BB8F8C40DB8F8DA1D88427CD00F
:100D0000B8F8C60DB8F8DC1D88427AD000F04CFD6A
:100D100000204C46A8F87E9E00F012FBB8F8C60DE5
:100D2000F0B1032827D001283BD088F8DD4F0228F6
:100D300088F8DC4F88F8DB4F4CD088F8D5BFB8F87E
:100D4000C41DA8F8DA1DA8F8DC0D0AF03BF80AF07B
:100D50001BF800BF88F8D75FBDEC028BBDE8F09FA1
:100D600088F8DD4F88F8DC4F88F8DB4F88F8D5BF6E
:100D70000AF0ACF8EEE788F8DD4F88F8DC4F88F829
:100D8000DB4F88F8D5BF0AF0A1F898F8D70F0228F2
:100D9000E2D088F8D76FBDEC028BBDE8F05F00F0C1
:100DA000F3BC88F8DD4F88F8DC4F88F8DB4F88F813
:100DB000D55FB8F8C00DA8F8C60EB8F8C40DA8F8ED
:100DC000DA0DA8F8DC5D98F8D80F0228C4D088F8AE
:100DD000D86F11E088F8D56FB8F8C80DA8F8CA0E1A
:100DE000B8F8C40DA8F8DA0DA8F8DC6D98F8DE0F95
:100DF0000128B1D088F8DE5F00E002E0A8F87E4E5E
:100E00001DE0C44C192798F8DB2F012A94F8DD1F48
:100E1000B4F8C80DB4F8CACEB4F8CA3D04F50064FD
:100E200015D0022A98D198F8DC2F012A33D0022A53
:100E300092D188F8DC9F88F8DB5FA8F87E9E09F0E5
:100E4000C1FFBDEC028BBDE8F05F09F09DBF6045BE
:100E500001D0012B02D0A8F87E9EF0E79FEDAE0BEB
:100E6000A8F8CA0E042988F8DB6FA8F8D09E84ED94
:100E7000340B84ED360BC8F8909C88F8DC5F87D083
:100E8000042088F8DD0FA8F87E5EA8F8D07E00F078
:100E90007BFC642004E1604500D073B1C2469FED45
:100EA000A08B9C4A0629B2F8D02EBFF455AFDFE8DC
:100EB00001F0030B92E7FDFC4EE7A8F8CA0E88F894
:100EC000DD9F88F8DC6FE8E0012A7ED86045D046D7
:100ED00074D0022B72D10B200AF0ACF8B8F8D01DF8
:100EE00088426BDCB8F8C81D0020A8F8CA1E88F834
:100EF000DDBFA8F87E6E0AF09DF800EE100AB8EE8D
:100F0000C00B84ED340BB4EEC80BF1EE10FA0CD22A
:100F1000B5EEC00BF1EE10FA05DBBCEEC00B10EE27
:100F2000100AC0B202E0002000E0FF2000F008FA42
:100F300002200AF07FF890FBF7F0C8F8900C002030
:100F40000AF078F8054601200AF074F8002D0146F1
:100F500005DB6FF000402A1A914208DB06E005F13C
:100F60000040814202DD4FF0004000E0681A6FF05F
:100F7000004280FB07500021521B814102DA6FF0D2
:100F8000004507E04FF00041691A70F1FF3001DAC7
:100F90004FF0004502200AF04DF800EE100AB8EEBE
:100FA000C01B00EE105AB8EEC00B80EE012B84ED92
:100FB000362BA8F8D07ECFE607E0FFE788F8DD5FA4
:100FC000A8F87E5EA8F8D07E82E0521E00D50022EE
:100FD000AAF8D02E7FE0012A55464BD8D5F8900CC0
:100FE000002806DD01200AF025F895F8BC1F88428C
:100FF00011DB002000F0A4F900F0D6FB032085F8F7
:10100000DD0FA5F8D07EB5F8D80DFF2800D9FF2058
:10101000454988744DE085F8DD6F94ED340B94ED0F
:10102000361B30EE410B84ED340BB4EEC80BF1EE01
:1010300010FA0DD2B5EEC00BF1EE10FA06DB00BFD0
:10104000BCEEC00B10EE100AC0B202E0002000E0BF
:10105000FF2000F075F9D5F8900C4FF00041884260
:1010600002DCC5F8901C02E0401EC5F8900CA5F803
:10107000D07E71E6521E00D50022AAF8D02E6BE673
:10108000BAF8D81D5046DAF8A829914211DB082990
:101090000FD080F8DD9F8AF8DC6F00F085FB002020
:1010A000BDEC028BBDE8F05F01E01AE007E000F064
:1010B00047B9BDEC028BBDE8F05F09F039BE012AEB
:1010C0005046D7D880F8DD5FA0F87E5EAAF8D07EC3
:1010D000642000F035F9BDEC028BBDE8F05F09F04B
:1010E00071BE012A5546C5D885F8DD6F94ED340BE5
:1010F00094ED361B30EE410B84ED340BB4EEC80B8F
:10110000F1EE10FAA4D2B5EEC00BF1EE10FA9DDBB1
:1011100096E70000780000200000000000000000BA
:10112000000000000000704078100020FEE7000082
:1011300003480168002008640C21014805F012B83A
:10114000BC140020014802F0F2BF0000C8130020C8
:10115000014802F0ECBF0000C8130020014802F073
:10116000E6BF0000C81300202DE9F041314C0126F4
:1011700000254FF4FF484FF4C1412F480E27C4E922
:10118000065684E82201E5602146C4E90457C4E913
:10119000086702F0BDFE14344FF4C3410F22264805
:1011A00084E86400143C84E82201E560214625615E
:1011B000C4E9086702F0ACFE14341122B00384E8DD
:1011C000640044E905054FF4FE411B4844E903155A
:1011D00044F8045CC4E903671649143C02F098FE25
:1011E000143447F6C0711222F00384E8640044E925
:1011F000050544E9031544F8045CC4E903670D4997
:10120000143C0D4802F084FE152247F6E0713803C5
:10121000143484E8640044E9050544E9031544F8FE
:10122000045CC4E90367BDE8F0410249024802F0EA
:101230006FBE00006C130020C813002010B5094CCD
:101240002068016841F0010101600A2003F054FBAD
:10125000206800210268016020684168C907FCD14C
:1012600010BD0000C813002010B5FFF77DFF08482F
:10127000012102F0CFFD0648022102F0CBFD044817
:10128000102102F0C7FDBDE81040014803F06EB91F
:10129000C813002008B564208DF80000684600F0EF
:1012A00029F80248042104F05DFF08BD7C140020E9
:1012B00090ED000B9FED0A3B9FED0C2B0A4880EE52
:1012C000031B90ED030A0168B8EE400B31EE021BE0
:1012D00021EE000BBDEEC00B10EE100A88637047C4
:1012E0000000000000409F407C1400209A999999CA
:1012F0009999A93F01789FED0D2B00EE101A9FEDF3
:101300000E1B0C48B8EE404BD0ED030A016884EE8A
:10131000023BB8EE600B33EE011B21EE000BBDEE7D
:10132000C00B10EE100A8863704700000000000038
:1013300000409F407C1400209A9999999999A93F5F
:101340000649642881F8BC0F00D36420C0F1640012
:1013500081F8C60F0248FFF7CDBF000078000020DB
:101360003E1000202DE9F041984D0020B5F8C81D31
:10137000B5F8CA2E914203D0B5F8CA2D012A07D07C
:10138000A5F87E0E09F01EFDBDE8F04109F0FCBC99
:10139000A5F8CA1E1927B5F86A1E042601240929D2
:1013A0007ED2DFE801F0051E38516B88A2BCD60062
:1013B000022185F8DE1FA5F8D20E95F8DF0F01286F
:1013C00004D0834885F8DF4F08F00CFC95F8E00F57
:1013D000042866D085F8E06FA5F87E4EA5F8D27E89
:1013E000EBE0032185F8DE1FA5F8D60E95F8E20F95
:1013F000012805D0764885F8E24F203808F0FEFB3A
:1014000095F8E30F04284CD085F8E36FA5F87E4EDD
:10141000A5F8D67ED1E085F8DE6FA5F8DA0E95F84E
:10142000E50F012805D06A4885F8E54F403808F0F7
:10143000F9FB95F8E60F042833D085F8E66FA5F898
:101440007E4EA5F8DA7EB8E0052185F8DE1FA5F806
:10145000DE0E95F8E80F012805D05D4885F8E84FC5
:10146000603808F0DBFB95F8E90F042819D085F8FF
:10147000E96FA5F87E4EA5F8DE7E9EE0062185F890
:10148000DE1FA5F8E20E95F8EB0F012805D05048B5
:1014900085F8EB4F803808F0B9FB95F8EC0F01E0C8
:1014A00072E070E004286ED085F8EC6FA5F87E4EEF
:1014B000A5F8E27E81E0072185F8DE1FA5F8E60E9B
:1014C00095F8EE0F012805D0414885F8EE4FA03879
:1014D00008F098FB95F8EF0F042875D085F8EF6FAA
:1014E000A5F87E4EA5F8E67E67E0082185F8DE1FA8
:1014F000A5F8EA0E95F8F10F012805D0334885F8D4
:10150000F14F883008F086FB95F8F20F04285BD085
:1015100085F8F26FA5F87E4EA5F8EA7E4DE0092128
:1015200085F8DE1FA5F8F60E95F8FA0F012805D00C
:10153000264885F8FA4F283008F078FB95F8FB0F1D
:10154000042841D085F8FB6FA5F87E4EA5F8F67EFD
:1015500033E00A2185F8DE1FA5F8EE0E95F8F40FAA
:10156000012805D0194885F8F44F683008F042FB8F
:1015700095F8F50F042827D085F8F56FA5F87E4E6D
:10158000A5F8EE7E19E01FE00B2185F8DE1FA5F817
:10159000F20E95F8F70F012805D00C4885F8F74FA3
:1015A000483008F023FB95F8F80F04280CD085F894
:1015B000F86FA5F87E4EA5F8F27E00F0E5F8BDE8DC
:1015C000F0416420FFF7BCBEBDE8F0817800002048
:1015D000C0010020014803F00FB80000DC15002016
:1015E000014803F009B800000C130020016818231B
:1015F000CAB2103AB2FBF3F2054B6FF30901032AAA
:101600009B5CC36500D9091D8165084670470000D1
:10161000E8B8000810B583694FF0C074826A0146CB
:10162000002053B1B3F5005F15D072B1012A0CD080
:10163000022A0AD0032A09D104E01AB1012A06D0ED
:10164000022A03D1C96AC90100D5012010BDC96AA7
:10165000A142FAD010BD002AF7D0012AF2D0022A06
:10166000F3D0032AF3D010BD30B50468256825F403
:1016700080252560046863608368402B036803D07D
:1016800099600068C26030BD9A600068C16030BD7A
:1016900070470000FEB500240D461021064608489C
:1016A000224603F033FA64203470012100950123AF
:1016B0002246CDE901100348A02103F0F7FAFEBD50
:1016C00000040240F0130020FEB5157850220F7878
:1016D0001C4601786426089B42EA111047EA011172
:1016E0008DE86800CAB241000248012303F0DEFA27
:1016F0002070FEBDF01300202DE9FC47007817464E
:1017000009785022DDE90A9842EA10140F4D41EAA7
:101710000010C6B20020195C2954401C1028FADBC6
:101720000B480022102103F0F1F9002188F8001085
:101730003878610001233246CDE90050054803F0B6
:1017400067FB89F80000BDE8FC870000B2120020AA
:1017500000040240F013002010B500F025F8BDE8A9
:10176000104000F019B8000000220248102103F0D8
:10177000CDB90000000C024002780821014803F0B6
:10178000C5B90000000C024000220248042103F009
:10179000BDB90000000C024001220248102103F0F4
:1017A000B5B90000000C024001220248042103F0F8
:1017B000ADB90000000C024070B505460C46084665
:1017C00000F004F82078287070BD0000012101703D
:1017D00002480A46490203F099B900000008024095
:1017E0000021017002480A464FF4007103F08EB9DF
:1017F00000080240704700002DE9FF4F87B0944673
:1018000005460078DDE91631DDE914A2DDE91FB4F3
:10181000DDE91A76DDE91898572838D052283FD0EC
:101820004C2868D045282FD15C2261464846FEF7F7
:1018300030FD0021C9F85C10C8F834100846C8F81B
:101840003810C8F83C10089A52F8203048F8203078
:101850000A9A52F8202047F82020401C0D28F2DB7D
:1018600079630020DAF800203260B963DAF80420E6
:101870007260F963DAF80820C6F8082006EB8002E7
:10188000401C0528D160F9DB0BB0BDE8F08FCDE935
:1018900000212B1DEA1CA91C681CFFF72DFFF3E794
:1018A0001C981CAE6A7802701D98AA7802701E9867
:1018B000EA780270CDF800B096E80700FFF704FF61
:1018C0001C980178002084F890101D99097884F8FC
:1018D00091101E99097884F8921000BF22181BF805
:1018E0000010401C102882F89310F7DB04F19000E0
:1018F00009F032FDC8E704F180000090EA1CA91C41
:10190000681C04F1A303FFF7DFFE94F8A30094F82A
:10191000A410884267D000200DF1080104EB4002BA
:1019200092F8813092F8802003EB022221F81020F7
:10193000401C0828F2DB687801280ED002280CD061
:1019400003280AD005281BD0062819D008282AD039
:10195000092828D00B283BD045E0C006020ED01F36
:10196000904200D90020002252FA80F304EB430396
:1019700031F81250521C082A23F8025CF4DB32E0E2
:10198000C0002038C0B2C21F824200D9002200200D
:1019900050FA82F304EB430331F81050401C08283E
:1019A000DD85F5DB1FE0C0003838C0B2C21F8242BF
:1019B00000D900225FF0000050FA82F304EB4303E9
:1019C00031F81050401C0828A3F84E50F4DB0AE010
:1019D0005FF0000004EB400331F81020401C0828A1
:1019E000A3F87020F6DB002034F8102049F82020FE
:1019F000401C1828F8DB002004EB4001B1F850200F
:101A000047F820200A8E48F82020401C1028F3DBDD
:101A10005FF0000004EB4001B1F8701046F82010B0
:101A2000401C0828F6DB2FE70348C16800684163C3
:101A30000021014804F096BB3C1400202DE9F04F32
:101A400008202DED028B85B009F024FCDFF8B88169
:101A50000122B7EE008B08F500644FF00209951ED5
:101A6000414684ED208B84ED2E8B04F50060C8F890
:101A7000885C84ED408BA0F58B65427680F81590EC
:101A8000A0F5A76000F1600781F80C22602100F149
:101A9000A006FEF717FC40213846FEF713FC402154
:101AA0003046FEF70FFC00204FEA000145F82010F9
:101AB000401C0828FADB55494846534F0391A1F1D1
:101AC000800A3E4681F81C90354687F8449107F518
:101AD000947786F82491A1F16009A03906F58476FF
:101AE00089F81C008AF81C000291087720390191BE
:101AF00008772039A1F1200B009108778BF81C00A2
:101B000085F84400283584ED248B01F5156009F033
:101B100099FA05F6C41009F0D1FA05F5226009F02A
:101B2000B3FA05F6542009F0A7FA05F68F72511E94
:101B3000481EFFF7AFFD05F5796009F049FCFFF796
:101B4000F7FAFFF791FBFFF7A5FBFFF705FEFFF79D
:101B50006BFF01F0FFFD05F0B3FB05F0B7FB08F0EC
:101B6000A1FB08F0A9FB98F8DF0F4446012802D139
:101B7000039808F037F894F8E20F012802D13846AC
:101B800008F03CF894F8E50F012802D1304608F03F
:101B900049F894F8E80F012802D1484608F03EF8C9
:101BA00094F8EB0F012802D1504608F02FF894F872
:101BB000EE0F012802D1029808F024F894F8F10FF2
:101BC000012802D1019808F025F894F8F40F0128B3
:101BD00002D1009808F00EF894F8F70F012802D10E
:101BE000584608F003F894F8FA0F012807D105B019
:101BF0002846BDEC028BBDE8F04F08F017B805B0E1
:101C0000BDEC028BBDE8F08F78000020C001002001
:101C10002DE9F04FFB496022A1F52C702DED088BCA
:101C2000ADB01A91FEF735FBF649402260311991AB
:101C3000A1F52C70FEF72DFBF34A1BAB92F9FB0EBE
:101C400002EB8000B0F8241EA2F8BC1DB0F8260EEE
:101C5000A2F8BE0D92F8CF0F82F8B00F92F9FC0EE9
:101C600002EB8000B0F82C1EA2F8C01DB0F82E0EBA
:101C7000A2F8C20D92F8D00F2B9092F9FD0E02EB54
:101C80008000B0F8341EA2F8C41DB0F8360EA2F8D9
:101C9000C60D92F9FE0E02EB80010020B1F83C4E19
:101CA000A2F8C84DB1F83E1EA2F8CA1D02EB800191
:101CB000D1F8681C43F82010401C0828F6DB92F885
:101CC000D11F002082F8B11F92F8D21F0F9192F815
:101CD000D31F82F8B21F92F9FF1E01EBC101431816
:101CE00002EB800402EB8303D3F84C3D401C09282F
:101CF000C4F8983CF3DB92F9001F0020C1EBC1014E
:101D0000431802EB400402EB4303B3F8443E401C8B
:101D10000728A4F8CC3DF3DBBC4E0023B2F8C20E7A
:101D2000A2F86A0E96ED2A0B86ED1C0B96ED2C0B95
:101D300086ED1E0BB2F8C40EA2F86C0E92F9010FDC
:101D400000EB80008400191903EB830001EB810193
:101D500002EB800002EB810191F8155201F215218E
:101D600080F835555B1C142B4D7880F836558D78EE
:101D700080F83755CD7880F838550D7980F8395589
:101D80004D7980F83A558D7980F83B55CD7980F8BA
:101D90003C550D7A80F83D554D7A80F83E558D7A48
:101DA00080F83F55CD7A80F840550D7B80F841553D
:101DB0004D7B80F842558D7B80F84355CD7B80F874
:101DC00044550D7C80F845554D7C80F846558D7CFA
:101DD00080F84755C97C80F84815B4DB96ED2E0B8A
:101DE0009FED8B1B86ED200B96ED260BB7EE008B3F
:101DF000854D402120EE010B30EE080BBCEEC00BF0
:101E000010EE100A85F8B90FB5F8BC0EA5F87C0ED7
:101E100005F68820FEF756FA4FF0FF302C46C5F83D
:101E2000880C04F6283095F8D41FB2EE04ABB0EE5F
:101E300008BB189004F655009FED779B169004F6AA
:101E40006830139004F6C82004F580541290C9B18C
:101E5000284690F8D60F08B106F082FB207808B12A
:101E600008F0B8F9A07808B101F0AEFA607B00285C
:101E700070D0207B6A49012860D0022871D00328E5
:101E80007FD16EE0604F01254FF0000887F8D45FE6
:101E900087F8D65FA7F8C68EA7F8C88EA7F8CA8EAF
:101EA000A7F8CC8E97F8D50F042804D0042087F823
:101EB000D50F08F035FF257087F8FF5FA07801285F
:101EC00002D0A570C7F8948C6078042803D0042150
:101ED0006170C7F8948C0321E27B65732173012A3A
:101EE00084F8138084F8148000D0E573A07B012867
:101EF00002D0A57308F0D6F9E57286ED3E9BA07A74
:101F0000022803D00220A07286ED3E8B207C6574EF
:101F1000012802D0257487F8BD8FB0EE490B87F8F1
:101F2000FE5F86ED380B86ED3A0B86ED3C0B97F89D
:101F3000FD0F012801D087F8FD5FFFE2207D50B141
:101F4000314DE27C95F8B03F934210D1401E00D550
:101F50000020207515E0022020733248FFF740FC76
:101F60000FE0294DE07C95F8B02F824209D0012086
:101F7000207323A8FFF720FC95F8B01F6420E174BC
:101F8000E7E7E07B20B1A07B012801D108F08AF9C6
:101F9000E07A002809D0A07A012802D0022804D1D2
:101FA00004E00220A07286ED3E8B5AE296ED3E0BD5
:101FB000B4EECA0BF1EE10FA7EDB1348012394F85D
:101FC00015C0002100F57C67A3720197BF1E029720
:101FD0007F1C039700F67C272A97343F00F57A6828
:101FE0001597903F179700F5B47500F60E7A00F636
:101FF000A83BBCF1060F25AA00F6EC1014907DD288
:1020000012E00000400C002078000020780800203A
:102010000B4C91061B2ECF3F00000000000000007B
:102020008602002039100020DFE80CF068F303ABD3
:10203000F2F1F84890F8B67FFF2F2AD0AA2F68D087
:10204000002063751154401C1028FBDB0023009214
:1020500045201A46194608F023FF29A80C9524A903
:102060000991CDE90A0A05AF1399189823AB089393
:1020700087E803081298039B01990193CDE90310A7
:102080002A980090DDE91601DDE91423FFF7B4FB7F
:10209000E7E10422627580F8A11F80F8A21F80F892
:1020A000A31F80F8A41F80F8A51F80F8A61F80F842
:1020B000A71F80F8A81F00E0CFE180F8A91FAA277A
:1020C00080F8AA1F012380F8AB1F80F8AC1F80F8AE
:1020D000AD1F80F8AE1F80F8AF1F2176A2750022D9
:1020E00080F8A07F57201146CDF8008008F0D8FE78
:1020F00029A9CDF82CA024AA23A800E081E1CDE9EC
:1021000009211399189B0C95CDE907B0CDE905314C
:10211000B0E7032767750423E37500202176115487
:10212000401C1028FBDB491CFF29894600D9FF21F0
:102130000092102300224C2008F0B2FE29A924AA04
:10214000CDE90921CDE90BA5139A23A9189BCDE967
:1021500007B1CDE905321298039B01990193CDE9AE
:1021600003102A980090DDE91601DDE91423FFF73A
:1021700043FBB9F1FF0F01D94FF0FF0984F8189024
:102180006FE1E07D012809D0022839D0277E03289D
:1021900046D0032F58D30420E37561E0277E062F35
:1021A00002D3032007213FE000201154401C1028D7
:1021B000FBDB41E0C1B20092102300224C2008F06A
:1021C0006FFE29A924AA23A8CDE90921CDE90BA5F1
:1021D000139A189BCDE907B0CDE905321298039BFD
:1021E00001990193CDE903102A980090DDE91601C9
:1021F000DDE91423FFF700FBFF2F23D9FF2721E0A0
:10220000277E0B2F06D30520E175607529E1E3E0F9
:1022100028E0FDE000201154401C1028FBDB0BE0FF
:10222000092F04D302200A21E075217619E100204C
:102230001154401C1028FBDB7F1CFF2F3846B9D9F6
:10224000FF20B7E727760CE100201154401C10282E
:10225000FBDB7F1CFF2F00D9FF270092F9B237E08C
:102260002076FEE0A07D012811D002281ED0032890
:1022700062D0042873D0207E03287DD321764FEAD4
:102280000700B2EE0A0BA37509F066F9E9E0207EBB
:10229000022806D321760320A0751598B2EE0A0B0A
:1022A000F2E708F0A5FE207E401D19E0207E98B1DF
:1022B0000020032363750427E775A1752176115467
:1022C000401C1028FBDB491CFF2900D9FF2100928C
:1022D000102300224C200CE008F08AFE207E0B30F8
:1022E000FF2800D9FF20CDF80080C1B210230022C2
:1022F000572008F0D5FD29A924AA23A8CDE9092152
:10230000CDE90BA5139A189BCDE907B0CDE90532AD
:102310001298039B01990193CDE903102A9800902C
:10232000DDE91601DDE91423FFF766FA207E401C83
:10233000FF2895D9FF2093E7207E022808D3217635
:102340000220A0752A98B0EE080B09F04DF888E03D
:1023500008F04EFE207E0830C2E700E00CE00520C9
:10236000A0751498B3EE070B09F09AF8207E08F0D8
:102370003FFE207E401CB3E708F03AFE207E401C62
:10238000FF28074600D9FF20CDF80080C1B21023F6
:102390000022572008F084FD29A924AA23A8CDE90A
:1023A0000921CDE90BA5139A189BCDE907B0CDE91A
:1023B00005321299039B019A0193CDE903212A98D2
:1023C0000090DDE91601DDE91423FFF715FAFF2F70
:1023D0007FF615AFFF2735E796ED420BB4EE480BBD
:1023E000F1EE10FA07D10B48617E90F8BF0F8842DA
:1023F00001D0062009E729AA24A923A809F010F989
:102400002FE096ED420BB5EEC00BF1EE10FA03D1C2
:102410000520FAE678000020CD484C2786ED429B47
:1024200029AA4FF0100C24AB80F8557880F8571883
:1024300080F858C823A8CDE90932CDE90BA5139A35
:10244000189BCDF81CB0CDE9053212990890039B7A
:1024500001980193CDE9030112E630EE080B86EDF9
:102460003E0B607CA8B1207C012802D0022810D14C
:102470000BE0B748002180F8BD1F1B9949B102212C
:102480002174012280F8BD2F03E0B149012081F8B9
:10249000BD0FAF4D95F8FE0F68B395F8FD0F0628F8
:1024A0004CD2DFE800F04B0323231A29B5F8BC0D0A
:1024B00096ED3C1B00EE100AB8EE400BB4EE410B5B
:1024C000F1EE10FA3AD000EE100A042085F8FD0F64
:1024D000B8EE400B86ED3C0B30E0B5F8680E811E7F
:1024E00003292BD8B5F8D81D884227D0052085F8B8
:1024F000FD0F86ED389B21E0B5F8D80DB5F8681EC4
:10250000884216D096ED3A0BB4EE4B0BF1EE10FA72
:102510000FD096ED380B9FED8F1BB4EE410BF1EE13
:1025200010FA44D1B5F8660EB0F5C87F24D0C8289B
:1025300029D0012085F8FD0F86ED3A9B96ED440BDE
:1025400030EE080B86ED440BA17E0F9881420AD035
:102550007F4886ED220B86ED449B0F99A176B0F85B
:10256000BE1EA0F8801E7D4D794C85ED5A9B94F8D7
:10257000BD0F012820D06FE00321022005E000BF3D
:1025800000F022FF0AE00020022185F8FD1FD5F8A7
:10259000887CC5F8880CA0780028F1D1C5F8887C23
:1025A00096ED3A0B30EE080B86ED3A0BC6E730EEAF
:1025B000080B86ED380BC1E785ED5A8B94F8B10F07
:1025C00018B10020A4F8820E44E0B0EE000B85EDB7
:1025D0005A0BB4F8CE0D14283ED2B4F8D81D1D986D
:1025E000814239DB85ED5ABBB4F8CC1D1B98814282
:1025F00032DCB1EE000B85ED5A0B1C98B0F1004FA8
:1026000002DC6FF0004000E0404200EE100AB4F837
:10261000800E96ED221B081AB8EEC02B00EE100AB1
:10262000B8EEC00B20EE0A0B80EE013BB4EEC23BCD
:10263000F1EE10FA10D8002084F8C80F4748B838D7
:10264000FEF758FE0121A4F8821EB1EE040B6420AF
:1026500085ED5A0B84F8C70F2B9800EE100AB4F8DA
:10266000CC0DA4F8BE0EB8EE400B94F8C70FE8B33B
:1026700084F8BB0F96ED261B9FED393BB5EE002B82
:10268000394A21EE031B00EE021B11EE100A11EE77
:10269000901A8DED001B9061D1611422B4F8820E66
:1026A000A4F8BC0E2D4816994C30FDF7F2FD94F8B5
:1026B000BE0F602285F8600094F8BF0F85F86100B6
:1026C00094F8C00F85F86200244812996430FDF731
:1026D000E0FD224840221899C430FDF7DAFD234876
:1026E00040221399FDF7D5FD002000E02DE004EB1A
:1026F000800205EB8001401CD2F8A82B0828C1F805
:102700004421F2DBD4F8B80D6022C5F870011299AB
:102710001A98FDF7BEFD139940221998FDF7B9FDEF
:102720005FF0000004EB8001401C0828D1F8A82BC2
:10273000C1F8682CF6DB0E4841684868401C4860C8
:102740002DB0BDEC088BBDE8F08F94F8BC0F8FE77F
:10275000780000200000000000E07540F810002024
:102760003FEB964F1E0DEE3FF8080020FC110020B5
:10277000E8B700087CB5FE4C002504F5815194F8BB
:10278000BB0F84F8B30F91ED040BBDEEC00B10EE40
:10279000100A01285AD00228284660D02118401C6F
:1027A0000A2881F8045FF9DBF248811C831E021FAE
:1027B000CDE90001811F7A3008F052FAB4F8841E86
:1027C000A1F54070053822D0B1F5017F7ED0B1F57A
:1027D000007F4FF6FF704FF4803278D0A1F5407340
:1027E000063B4CD0A1F50073013B71D0A1F5007000
:1027F00002386ED0A1F5007003386BD0A1F50070DF
:10280000073803D0A1F5007005386ED011E19FEDB7
:10281000DA1BB4F8860EA4F8FA0DB4F8880EA4F802
:10282000EE0DB4F88A0E00EE100AB8EE400B20EE62
:10283000010BBCEEC00B10EE100AA4F8F20D94F8D8
:10284000CC0FFF2814D384F8CC5FF2E000202318CB
:102850000A5C401C0A2883F8042FF8DBA4E70B1855
:102860002218401C1B7E0A2882F8043FF7DB9BE7F6
:10287000401CFF2800DDFF2084F8CC0FD9E09FED3D
:10288000C00BB4F8860E01EE100AB8EE411B21EE23
:10289000001BBCEEC11B11EE100AA4F8F00DB4F839
:1028A000880E01EE100AB8EE411B21EE001BBCEEB3
:1028B000C11B11EE100AA4F8F60DB4F88C0EA4F8A2
:1028C000F80D94F8CD0FFF2839D304E006E014E0AA
:1028D0004AE080E0A2E084F8CD5F36E094F8C90FCA
:1028E000FF2803D384F8C95FA3E0A0E0401CFF28C1
:1028F00000DDFF2084F8C90F9BE0B4F8DE1DB4F8BA
:10290000863EFF2902D3A4F8DE5D05E0491C914212
:1029100000DB0146A4F8DE1DA4F8E03D94F8B30FF7
:1029200064280BD0322B03D0642B01D0C82B05D1E7
:10293000002008F0CBFC002008F0DCFC79E0401C13
:10294000FF2800DDFF2084F8CD0FB4F88A0E01EED9
:10295000100AB8EE411B21EE000BBCEEC00B10EECE
:10296000100AA4F8F40D64E0B4F8861EFF2900D91B
:10297000FF21CEB284F8CA6FB4F8E61DB4F8883EE1
:10298000FF2902D3A4F8E65D05E0491C914200DB73
:102990000146A4F8E61D1E2EA4F8E83D09D9002042
:1029A00008F094FC002008F0A5FC012084F8CB0F6F
:1029B00001E084F8CB5FB4F88A0E08B3FF28A4F8CE
:1029C000900E01D8012800D0002084F8CE0F6E4868
:1029D000FEF7D2FE2DE0B4F8860E012802D00228C0
:1029E0000FD026E0B4F8880E08F070FCB4F88A0E18
:1029F000A4F8940EB4F8E40D0DE000BF84F8CA5FAB
:102A000017E0B4F8880E08F075FCB4F88A0EA4F844
:102A1000940EB4F8EC0D0028F0D00AE0B4F8860E5D
:102A2000A4F88E0EB4F8880EA4F8920E01E0FEF71A
:102A300005FC94F8020F58B9B4F8EE0DA4F8600E36
:102A4000B4F8F00DA4F8620EB4F8F20DA4F8640E18
:102A500094F8FB0EB4F8DE1DE8B3002004EB800010
:102A6000A0F8241E94F8FB1EB4F8E00DA1B30021D9
:102A700004EB8101A1F8260E94F8FB0E68B3002048
:102A800084F8FB0E94F8C90F84F8CF0F94F8FC1E5D
:102A9000B4F8E20DE9B3002104EB8101A1F82C0E9A
:102AA00094F8FC1EB4F8E40DA1B3002104EB8101FD
:102AB000A1F82E0E94F8FC0E68B3002084F8FC0EEA
:102AC00094F8CA0F84F8D00F94F8FD1EB4F8E60D00
:102AD000F1B3002102E078E079E07AE004EB8101D3
:102AE000A1F8340E94F8FD1EB4F8E80D89B3002166
:102AF00004EB8101A1F8360E94F8FD0E50B30020CE
:102B000084F8FD0E94F8FE1EB4F8EA0D79B30021A6
:102B100002E060E061E062E004EB8101A1F83C0EBC
:102B200094F8FE1EB4F8EC0D81B3002104EB810192
:102B3000A1F83E0E94F8FE0E48B3002184F8FE1E64
:102B4000002094F8CB1F84F8D11F94F8CC1F02E02A
:102B500047E048E049E084F8D21F94F8CD1F84F89C
:102B6000D31F00BF94F8002F04EB400110E03EE0BB
:102B700078000020020F0020B728B3412619D93F62
:102B80009A9999999999B93F4610002031E033E01C
:102B9000B1F8EE1D7AB30022C2EBC2020244401C1F
:102BA00004EB42020728A2F8441EDBDB94F8000F76
:102BB00030B3002084F8000FB4F8940EA4F8C20ECD
:102BC000B4F8960EA4F8C40E7CBD012046E701219E
:102BD0004EE7012054E701215EE7012166E701206D
:102BE0006CE7012176E7012182E7012088E70121D6
:102BF0008EE701219AE701E001219FE70122CBE75F
:102C00000120D7E72DE9F04F46499BB00DF1040CA8
:102C100091F9FA3E002003EBC303C41801EB8404CE
:102C2000D4F8044D4CF82040401C0928F5DBB1F8DD
:102C3000C00E01231090B1F8920E139091F8BB0FC3
:102C40001690B1F87E0E1290B1F88EAEB1F8DC9D00
:102C5000B1F8907E81F8023F0020B1F8606EB1F8C3
:102C6000625EB1F8643E81F8020F66F30F02B1F8BC
:102C7000B83D0BACB1F8F4BD65F31F42B1F8F66D89
:102C80001FFA83F501EB40083CF82030A8F8FC3D22
:102C900024F81030401C0928F4DB4FEA1248109A3F
:102CA000A1F80E2E139AA1F8102E169AA1F8122E42
:102CB000129AA1F8142EA1F816AEA1F8189EA1F848
:102CC0001A7EA1F81C8EA1F81EBEA1F8206EA1F8F4
:102CD000225E15490091A1F5A57007F0C5FA00988C
:102CE00008F056FB1148002134F8112020F811207B
:102CF000491C0929F8DB10994182139981821699A0
:102D0000C18212990183A0F81AA0A0F81C90C78371
:102D1000A0F82080A0F822B08684C5841BB0BDE84E
:102D2000F08F000078000020BE0F0020F810002077
:102D30002DE9F041BD4901F559702DED108BB2B070
:102D400008F048FD00209FEDBA0BDFF8EC821AA9CD
:102D500008EB8002D2F8E03C01EBC002401C01EE1F
:102D6000103A0928B8EE411B21EE001B82ED001B32
:102D7000EEDBB24C00200CAA01EBC00504EBC00353
:102D800095ED002B93ED003B93ED0E1B93ED1C0B8B
:102D900032EE032B02EBC005401C062802EE010BAD
:102DA00085ED000BE8DB9DED2A1B9FEDA52B9FED2C
:102DB000A60B002031EE021B05AC21EE000B8DEDC1
:102DC000180B00BF02EBC00191ED000BBCEEC00B75
:102DD00010EE101A44F82010401C0728F2DB964F22
:102DE000B3EE092BB7EE000B9FED994B9FED9A5B6D
:102DF0009FED9B6B9FED9C7B9DED269B9FED9CAB80
:102E00009FED9D8BB6EE00FB9FED9D1B8DED2C1B6A
:102E10009FED9D1B8DED021B9FED9DCB9DED28DB56
:102E20009FED9DEB9FED9E1B07F5006789EE0ABBAA
:102E300097ED283B1DEE0E1B33EE422BB0EE403BD0
:102E400002EE043BB0EE404B02EE054BB0EE405BB1
:102E500002EE065B02EE070B83EE042B85EE003BD1
:102E60009DED2C0B03EE082B3BEE4C3B22EE0F2B83
:102E700022EE004B9DED020B22EE000B23EE048BA5
:102E800021EE009BBCEEC80BFCEEC90B10EE101A35
:102E900001EB810110EE900A4E0000EB800045002E
:102EA000814807F0F3F99DED140B8049002087ED70
:102EB000280B00BF01EB800354F82020401C06289B
:102EC0009A62F7DBC1E910650B9A40468A6498F86C
:102ED000031F79B900EB810354F82120C3F8942D26
:102EE000491C0629F6DBC0F8AC6DC0F8B05D0B9943
:102EF000C0F8B41D5FF0000190F8FA2E54F82130AC
:102F0000EAB3002202EBC2020A44491C00EB82022F
:102F10000629C2F8043DEFDB90F8FA1E81B30021C8
:102F200001EBC10100EB8101C1F81C6D90F8FA1EA4
:102F300039B3002101EBC10100EB8101C1F8205D33
:102F400090F8FA2E0B99E2B35FF0000202EBC20296
:102F500000EB8202C2F8241D90F8FA1E91B3002201
:102F600080F8FA2E0021B0F8BA2EA0F8C02E00BFCB
:102F700054F8212090F8FF3E2BB3002302E03FE0FD
:102F800040E041E003EBC3030B44491C00EB830327
:102F90000629C3F84C2DEBDB90F8FF1E79B3002116
:102FA00001EBC10100EB8101C1F8646D90F8FF1ED7
:102FB00081B3002101EBC10100EB8101C1F8685D23
:102FC00002E023E024E026E090F8FF2E0B9942B3C4
:102FD0005FF0000202EBC20200EB8202C2F86C1D3D
:102FE00090F8FF1EF9B1002180F8FF1E87ED2A8BB3
:102FF00087ED2C9B32B0BDEC108BBDE8F0810CE06E
:1030000001227FE701218BE7012193E701229DE760
:103010000122A5E703E00123B0E70121C0E7012178
:10302000C8E70122D6E70121DEE70000580D0020A5
:10303000B4D934E70C684A3F78000020F0B70008A4
:103040001F85EB51B81ED53FF0C1071F7CF04240F1
:103050009AB1683A3B196C3FB01BB62DCA6C703FF1
:10306000DD41EC4CA1F36A3FACA8C1340C1F713FA9
:103070000000000000607D400AD7A3703D0AEF3FCA
:10308000F5597F9FD323D0400F727450FA16D04069
:103090002F292982EB04293F79734289066E613F0B
:1030A000AA689DDD69E8213F320F0020F81000205A
:1030B000F8B5714C012084F8030F002004EB800167
:1030C000D1F8942D401C0928C1F8BC2CF6DB002651
:1030D00084F8036FB4F8920E0723A4F86E0E94F8E8
:1030E000BB0F84F8B40FB4F87E0EA4F8700EB4F8D9
:1030F0008E0EA4F8720EB4F8DC1DA4F8741EB4F899
:10310000901EA4F8761EB4F8BA1EA4F8781EB4F87F
:10311000821E5A4AA4F87A1E04F6686402F110016D
:1031200007F0F2FF554A0A23208620326086E088A5
:1031300002F1160107F0E8FFA0864FF4A061E186D6
:103140004FF444722287531C6387951DA587D71DB2
:103150004B4DE787A4F66864E87E642848D3B4F84A
:10316000CC0CA5F5A573A4F8B00E9A1EB4F8D00C3B
:10317000911EA4F8B20EA5F1DA07B4F8C80CA4F8B1
:10318000B40EB4F8DC0CA4F8B60E881E04F6C844DD
:10319000009707F052F8A5F5AE70394608F0BEF872
:1031A000D4E90301A4F6C844884202D9A4F8A80EC1
:1031B00001E0A4F8A81E324FB4F8BC0CA4F8AA0E83
:1031C000E23FB4F8C00CA7F17003A4F8AC0E9A1E4D
:1031D000B4F8C40C911EA4F8AE0E881E009707F038
:1031E0002CF8A7F17800394608F098F8EE7602E05E
:1031F000287F0A281ED3224F224ACA3F0097A7F1F0
:10320000C603991E081D07F018F8A7F19400394667
:1032100008F084F8083F0097A7F1B60303F12402F1
:10322000911E881E07F009F8A7F19000394608F0B2
:1032300075F82E77124E94F8B40FC23EA4F8B80E6B
:10324000A6F1C40300961A1F911E01F1440006F076
:10325000F4FFA6F19E00314608F060F8287F401C7C
:10326000FF2800DDFF20E97E2877491CFF2900DDCB
:10327000FF21E976F8BD00007800002098B800082A
:1032800078100020E8B700084C49002010B586B03F
:103290006A4691F848308DF8003091F849308DF841
:1032A000013091F84A308DF8023091F84B308DF8AA
:1032B00003300C181318401C94F84C4010281C7153
:1032C000F7DB104608F0F2F93D4B002293F8010FAE
:1032D000E8B3002002EB820100EB800003EB8101E8
:1032E00002EB800000EB800091F8C54603EB800004
:1032F00080F8154291F8C64680F8164291F8C74604
:1033000080F8174291F8C84680F8184291F8C946EB
:1033100080F8194291F8CA4680F81A4291F8CB46D3
:1033200080F81B4291F8CC4680F81C4291F8CD46BB
:1033300080F81D4291F8CE4680F81E4291F8CF46A3
:1033400080F81F4291F8D04680F8204200E030E03B
:1033500091F8D14680F8214291F8D24680F8224275
:1033600091F8D34680F8234291F8D44680F824425D
:1033700091F8D54680F8254291F8D64680F8264245
:1033800091F8D74680F8274291F8D81680F828128D
:10339000521C142A9ADB93F8010F60B15FF0000011
:1033A00083F8010F074890ED240B80ED2E0B06B03B
:1033B00010BD01208EE70120F2E7000098100020E8
:1033C00078000020780800202DE9F04FDFF8D8823F
:1033D0008BB041F21D004FF0030A08F580544FF006
:1033E000010940440390D8F8940C0227637808F24E
:1033F0000F2108F6BA7501950491002694F807E0AC
:10340000411E94F803B0BD07072B08F500621AD2DD
:10341000DFE803F01904717471C87100BEF1010F87
:10342000734608D0022B14D0032B33D0042B0AD1BF
:10343000012848D009E10128FCD166726770E67165
:10344000C2E0C8F8945C0BB0BDE8F08FC8F8941CDB
:10345000F9E701280BD000EE100A9349039892ED8A
:103460001E1BB8EEC00B00F027F9607F50B184F846
:1034700007A000F0E9F9C8F8940C00F0C3F9FEF7D2
:103480008BF9E0E7D8F8940CA842DADD401EC8F8C2
:10349000940CD8E7012871D14D4684F8079000F0CC
:1034A000D3F9C8F8940C98F8BC0F5128607A06D26A
:1034B0000128C8D000206572FDF742FFD0E0022845
:1034C000C1D06772CCE02672E77100F0BDF9774A8F
:1034D0004446C8F8940C511E481E00F04BF994F86D
:1034E000C40F84F8BA0FB4F8D00D1428ABD300BFC2
:1034F000FEF73AF9A7E784F801A0A4E7D8F8881CFA
:10350000042002291CD000299DD1BEF1040F4D4694
:1035100084F8019004D0E07100F096F9C8F8940C9A
:1035200098F8FF0F03282ED0042839D098F8BC0F44
:103530003C2835D8207A012885D03C2025722CE003
:10354000B8F8D81D05299CD205226270BBF1040F82
:103550000AD0E07000F078F95549884201DD481C36
:1035600000E0401CC8F8940C98F8FF0F0328A079DD
:1035700005D0012885D084F80690B9E765E00228D7
:1035800087D0A77108E098F8BC0F5028CED8207AD1
:103590000328AFD084F808A05020FDF7D1FE52E7F1
:1035A000277250E7BBF1010F5B4608D0022B0ED00B
:1035B000032B48D0042B9DD1012858D045E0012889
:1035C00043D106206070E67000F01CF93BE701284B
:1035D00004D0A84216DCC8F8945C15E0667184F843
:1035E00003A000F031F9C8F8940C26E0022884D03A
:1035F00000202771FDF7A4FEE6E70128CFD084F86C
:103600000490E1E7C8F8941C60790128C7D1D8F884
:10361000940C254900EE100A039892ED1C1BB8EE9D
:10362000C00B00F049F8607F0028B8D0667184F8BC
:1036300003A000F009F9C8F8940C98F8FF0F0328CC
:103640002079DAD1D2E7012803D0A8423FF7FEAEB5
:10365000F7E6267184F8039000F0F6F8C8F8940CA9
:1036600006A9049B05A8019A00F0B8F8EBE6A6713C
:10367000E77000F0E9F8C8F8940C98F8FF0F0D4DCA
:103680000328607906D0012889D084F80590FEF7D8
:1036900083F802E0022884D0677106A9019A05A880
:1036A0002B4600F0BDF8CEE6780000203C1000204C
:1036B000FEFFFF7F8A0200209FED172BB4EEC20BA6
:1036C000F1EE10FA13D8B1EE040BB4EEC01BF1EE1C
:1036D00010FA0CDB91ED000BB7EE002B31EE400B36
:1036E000B4EEC20BF1EE10FA01D8012200E0002284
:1036F000027091ED020B81ED000B91ED040B81ED59
:10370000020B91ED060B81ED040B91ED080B81EDA1
:10371000060B81ED081B70470000000000004E40C2
:1037200010B5002303700B70012414700421084CA1
:103730001A46204601F0EAF900222046082101F04D
:10374000E5F901222046BDE81040022101F0DEB972
:103750000010024008B5684600F002F808BD0000FD
:103760000021017002480A46022101F0CFB9000091
:103770000010024010B50024047001230B70137078
:103780002246084C0421204601F0C0F901222046BF
:10379000082101F0BBF901222046BDE810400221BA
:1037A00001F0B4B90010024010B5012303700024E9
:1037B0000C70094C042113701A46204601F0A6F93A
:1037C00000222046082101F0A1F901222046BDE88F
:1037D0001040022101F09AB9001002402DE9F04199
:1037E0001C4615469A1C0E46591C07462046FFF7F4
:1037F00097FFA07828702078387060783070BDE826
:10380000F0810000044810B5FFF7AAFF034890F8C4
:10381000C51F80F8BA1F10BD3D10002078000020A1
:103820002DE9F0411C4615469A1C0E46591C0746C8
:103830002046FFF7B9FFA0782870207838706078AC
:103840003070BDE8F0810000294901F5805391F8FE
:10385000FF0FDA78042A0FD0022A15D0032A2ED0BF
:10386000012A34D0D879042839D002283AD0032844
:103870003BD0D1F844097047032802D0D1F8580949
:103880007047D1F86809704703280FD0B1F8D82DD8
:10389000012A0ED01648022AD0F84C09F3D0032A88
:1038A0000AD0042AEFD1D1F854097047D1F864093D
:1038B0007047D1F848097047D1F85009704703287C
:1038C00002D0D1F85C097047D1F82009704703286D
:1038D00002D0D1F860097047D1F824097047D1F8B7
:1038E0003C097047D1F838097047D1F84009704752
:1038F0007800002070470000F8B50025009590F88A
:103900003C20012A18D0012280F83C200A680723B5
:103910004E4C0668092A1AD90A3A02EB4207F268A5
:10392000BB409A43F2600E680268A64206D10B7A49
:10393000D66846EA036308E00220F8BD0A3E8B68B9
:10394000D76806EB4606B3403B43D3600EE002EB7C
:1039500042073269BB409A43326103680E788A6835
:103960001F6906EB4606B2403A431A614A681F23B4
:10397000072A13D20668521E02EB8207726BBB4005
:103980009A43726303680E790A88761E5F6B92B25F
:1039900006EB8606B2403A435A6327E006680D2AD2
:1039A00012D2D21F02EB8207326BBB409A433263C2
:1039B00002680E790B88F61F176B9BB206EB860622
:1039C000B3403B43136311E00D3A02EB8207F26A06
:1039D000BB409A43F26202680E790B880D3ED76AAB
:1039E0009BB206EB8606B3403B43D362184A03689A
:1039F000934208D10B68122B05D1D2F8043343F45B
:103A00008003C2F80433036893421AD10B68A342BF
:103A100001D0112B15D1D2F8043343F40003C2F8BE
:103A200004330968A1420CD10A490B4A0968B1FB69
:103A3000F2F101EB8101490000E0491E00910029EB
:103A4000FBD180F83C500020F8BD000012000010AF
:103A5000002001407000002040420F000068034930
:103A6000884201D1FFF764B970470000002001408F
:103A70007047704770B50446006801684268C1F33A
:103A80004001C2F3401251B34AB3216CC90603D4BA
:103A9000216C41F400712164816811F0405F17D1FD
:103AA000A169A9B9C16A11F4700F02D081684905F2
:103AB0000ED4416821F020014160206C20F4807018
:103AC0002064206CC00403D4206C40F0010020640A
:103AD0002046FFF7C3FF21686FF0120008602068DE
:103AE00001684268C1F38001C2F3C01289B382B396
:103AF000216CC90603D4216C41F400512164816812
:103B000011F4401F1ED1816B11F4401F02D0816857
:103B1000490517D44168490514D4816811F0405F04
:103B200010D1A16971B9416821F080014160206C18
:103B300020F480502064206CC00503D4206C40F039
:103B4000010020642046FFF7D5FE21686FF00C00CD
:103B5000086020680168436811F0010FC3F3801109
:103B60000ED069B10068C0070AD0206C40F48030E4
:103B70002064204600F046F821686FF001000860DC
:103B8000206801684268C1F340110029C2F38062D5
:103B90000DD0002A0BD0616C6FF0200541F00201BE
:103BA000616405602046FFF764FF2068056070BD12
:103BB00070B504004FF0000503D0206C002610B152
:103BC00007E0012070BD204600F01EF8666484F80E
:103BD0003C60206CC00610D4206C20F4885040F06B
:103BE000020020642046FCF7DDFF6664206C20F0B4
:103BF000020040F00100206400E0012584F83C60F0
:103C0000284670BD70470000F0B587B00646142105
:103C10006846FCF757FB30493068884259D12F4835
:103C2000016841F48071016000682C4900F48070E3
:103C300005901439086840F004000860086800F036
:103C400004000590086840F001000860086800F072
:103C500001000590086840F002000860086803242D
:103C60000025694600F00200059013208DE8310020
:103C70001B4800F053FEF02069468DE831001948DA
:103C800000F04CFE009469461748CDE9014500F06C
:103C900045FE164C16480115C4E900058715A560B8
:103CA0000B01C4E9035182142046C4E9077565621B
:103CB000C4E9052300F070FD08B1FDF79BFDB46376
:103CC00000220421A663122001F096F9122001F0CF
:103CD00085F907B0F0BD00000020014044380240E3
:103CE0000008024000000240000402400C130020C3
:103CF00010640240F8B50D4604460021009190F88A
:103D00003C00012807D0012084F83C00206883682B
:103D1000DB0702D011E00220F8BD8668364B46F082
:103D20000106866035480068B0FBF3F000EB400008
:103D300000E0401E00900028FBD120688368DB076C
:103D400058D0236C40F20166B34343F4807323647C
:103D50004068400505D5206C20F4005040F48050A8
:103D60002064206CC00404D5606C20F00600606400
:103D700000E061646FF0220084F83C10A36B2049DE
:103D8000D963A36B1F491964A36B1F49D9642168C8
:103D900008602068416841F0806141602068816866
:103DA00041F48071816021681346A06B2A464C3132
:103DB00000F064FD1549D1F80403C006206811D055
:103DC000884207D1826812F0405F03D1826842F0D6
:103DD00080428260D1F80403C0060BD40C492068ED
:103DE000884207D1816811F0405F03D1816841F0BA
:103DF000804181600020F8BD40420F00700000202B
:103E0000090B00088D0B0008770B0008002001400B
:103E10000022014090F82020012A07D0022A05D074
:103E2000416A41F480214162012070470068426983
:103E30000A43426100207047F0B590F820500468B2
:103E4000A468012D05D0022D03D0416A41F48021E0
:103E50005AE014F0406F01D1E50052D5C4F301647B
:103E6000022C03D9416A41F400014DE001264FF4D0
:103E7000C075A6401E608B68ABB1CE684F68D0F8A5
:103E800000C0334305EB041643EAC7034CF8063081
:103E900007684FF4C27303EB04130E69FE50097DEB
:103EA000012909D00DE00E88CB68076843EA465324
:103EB00005EB0416BB51EBE70168CE5846F480765B
:103EC000CE50D2F805304FF4C67C11790CEB041CAF
:103ED00006684FF4C47741EA032107EB041346F860
:103EE0000C10167805EB0411D2F80120076846EA99
:103EF0000222FA500068425842F00102425000206B
:103F0000F0BD416A41F4001141620120F0BD0000A2
:103F100030B590F820300268012B07D0022B05D075
:103F2000416A41F480214162012030BD3E4C3F484E
:103F3000A24200D00246D2F80032824243F001038E
:103F4000C2F800320CD1D2F8000220F47C50C2F842
:103F50000002D2F800024B6A40EA0320C2F80002D5
:103F60000C7D0120D2F81C3204F01F04A0408343D2
:103F7000C2F81C32CB69B3B9D2F80C328343C2F811
:103F80000C328C894B684D6964F31F4302EBC50406
:103F9000C4F840320C890B684D6964F31F4302EB8F
:103FA000C504C4F84432CB69012B16D1D2F80C32C7
:103FB0000343C2F80C320C884B684D6964F31F430D
:103FC00002EBC504C4F840320C89CB684D6964F338
:103FD0001F4302EBC504C4F844328B69002BD2F8AE
:103FE00004320FD053EA0003C2F804320B69002BED
:103FF000D2F8143208D00343C2F81432096A0129F6
:1040000004D008E08343EFE78343F5E7D2F81C12BE
:104010000143C2F81C12D2F8000220F00100C2F8DD
:104020000002002030BD0000003400400064004069
:1040300070470000F0B590F82040012C05D0022C0C
:1040400003D0416A41F4802166E0046800295ED013
:104050002469A4075DD005684FF4D87404EB0114FB
:104060002D5915F00405956005682D5957D0ED08B8
:10407000C2F8045007684FF4DA754FF4DC7C4FF453
:10408000DE763C59002905EB0115C4F34007D760E3
:104090000CEB011406EB01110668765906F00F06C9
:1040A000166106687659C6F3072696610668755943
:1040B0004FEA15455561026812591A700268125983
:1040C0004FEA12225A70026812594FEA12429A704D
:1040D000026812594FEA1262DA70026852581A7175
:1040E000026852584FEA12225A71026852584FEA37
:1040F00012429A71026851584FEA1161D9710068F1
:1041000010D0016941F0200101610020F0BDE46898
:104110009FE7416A41F4001141620120F0BD6D0D3D
:104120001560A7E7C16841F02001C160EDE72DE906
:10413000F05F0546006800244669D0F8049087685F
:10414000D0F80CB0D0F810A0F207D0F8188048D002
:10415000F90714D001218160BA0703D5284600F081
:1041600032FA0CE0780702D54FF4006407E0380714
:1041700002D54FF4805402E0284600F023FAF805F7
:1041800016D52868BA054FF48071816003D528469A
:1041900000F01BFA0CE0780502D544F4005407E067
:1041A000380502D544F4804402E0284600F00CFAB9
:1041B000F80316D52868BA034FF48031816003D51F
:1041C000284600F004FA0CE0780302D544F40044D9
:1041D00007E0380302D544F4803402E0284600F0BA
:1041E000F5F9300707D55FEACB6004D529681020C0
:1041F00044F40074C86070074FF0080707D55FEA01
:104200000B7004D52868C760284600F075F9B00720
:1042100006D52868C068800702D0284600F06EF9ED
:10422000700607D55FEACA6004D52968102044F4F7
:1042300080640861B00607D55FEA0A7004D5286873
:104240000761284600F08EF9F00606D52868006957
:10425000800702D0284600F086F9B00308D55FEA4F
:10426000C96005D5296810204860284600F07CF90F
:10427000F00307D55FEA097004D52868476028462F
:1042800000F0A6F9300446D55FEA497040D5F00544
:1042900004D55FEAC87001D044F00104B00504D52C
:1042A0005FEA887001D544F00204700504D55FEA26
:1042B000487001D544F00404300529D518F0700F7A
:1042C00026D008F07000402815D006DC102809D050
:1042D00020280AD0302816D10AE050280ED06028B5
:1042E00011D10EE044F008040DE044F010040AE09F
:1042F00044F0200407E044F0400404E044F080046B
:1043000001E044F480742868816921F070018161C2
:10431000296804204860002C05D0686A2043686240
:104320002846FFF785FEBDE8F09F70B5040003D076
:1043300094F8200010B104E0012070BD204600F088
:1043400081F82068016821F00201016000F0E4FBBF
:104350000526054604E000F0DFFB401B0A2811D8C3
:10436000206840688007F6D42068016841F00101A8
:10437000016000F0D1FB05460BE000F0CDFB401BD7
:104380000A2806D9606A40F40030606284F8206030
:10439000D2E720684068C007EFD0207E012820685F
:1043A00001683DD021F080010160607E0128206815
:1043B000016838D021F040010160A07E012820680A
:1043C000016833D021F020010160E07E01282068DF
:1043D00001682ED041F010010160207F0128206883
:1043E000016829D021F008010160607F0128206860
:1043F000016824D021F004010160D4E90110D4E95E
:1044000003326569491E184323682A43104300227A
:104410000843D8610121626284F82010104670BD03
:1044200041F08001C0E741F04001C5E741F02001C3
:10443000CAE721F01001CFE741F00801D4E741F0CD
:104440000401D9E710B586B0044614216846FBF78D
:1044500039FF26492068884246D12548016841F441
:1044600000510160016801F400510591016841F0BB
:1044700080610160016801F080610591016841F08F
:1044800000710160006800F0007005901848103855
:10449000016841F00201016000680221002200F081
:1044A00002000590032309244FF440508DE81F00BB
:1044B0001048694600F032FA002201213F2000F046
:1044C0009BFD3F2000F08AFD00220221402000F0E9
:1044D00093FD402000F082FD00220221412000F0E7
:1044E0008BFD412000F07AFD06B010BD0068004051
:1044F00040380240000402407047000010B572B618
:10450000144B0021144A02F13400FFF793FD1248C6
:1045100012490088020A0A760E4A487602201418C8
:104520000B18401C14F8024C0A281C76F7DB91ED9E
:10453000040BB0EE001BB4EE410BF1EE10FA01D10A
:10454000FEF718F906484FF4806100F0D8FA62B619
:1045500010BD0000300000209413002098100020AF
:10456000000C0240704770477047000070B5044669
:1045700090F82000012804D0606A40F400206062B6
:1045800018E0022084F820002068016821F0010171
:10459000016000F0C1FA05460EE000BF00F0BCFA71
:1045A000401B0A2808D9616A052041F40031616284
:1045B00084F82000012070BD20684068C007EDD15C
:1045C000606270BD704770477047704770477047B2
:1045D000704790F83510022903D0802141650120F1
:1045E0007047052180F835100068016821F001014D
:1045F00001600020704700002DE9F84304464FF0A9
:104600000009644B0820CDF800904FF41652A56DB8
:1046100094F85C101B682E68B3FBF2F700FA01F106
:1046200031420FD021680A6852070BD50A6822F080
:1046300004020A6094F85C108840A860606D40F045
:104640000100606594F85C104FF0010808FA01F071
:10465000304208D021684969090604D5A860606D18
:1046600040F00200606594F85C10042088403042FD
:1046700008D021680968890704D5A860606D40F0FA
:104680000400606594F85C1010208840304218D017
:1046900021680968090714D5A860206801684903E2
:1046A00004D50068000308D5A16C07E00168C905BE
:1046B00003D4016821F008010160216C09B1204692
:1046C000884794F85C1020208840304231D021681F
:1046D0000968C9062DD5A86094F83500052820681A
:1046E000016806D0490347D5006800031DD4616CFA
:1046F0001CE021F0160101602068416921F0800171
:104700004161206C08B9A06C20B12068016821F0DB
:104710000801016094F85C303F229A40AA6084F856
:10472000349084F83580216D1FE0E16B09B120469B
:104730008847606D00282BD0606DC00714D005201D
:1047400084F835002068016821F0010101600098BB
:10475000401C0090B84203D820680068C007F6D11A
:1047600084F8349084F83580E16C002910D001B0D1
:104770002046BDE8F04308470168C905D5D4036861
:1047800023F01003036084F8349084F83580CCE77C
:10479000BDE8F883700000202DE9F047044600F0E2
:1047A000BBF9054664B14FF0000984F8349002214A
:1047B00084F835102068016821F0010101600EE0E5
:1047C0000120BDE8F08700BF00F0A6F9401B0528D6
:1047D00005D920216165032084F83500F1E72068C0
:1047E0000068C007F0D1D4E90020D4E90251D4E92F
:1047F000043C284304F1180519430843116895E85F
:10480000E00140EA0C001C4B2843194040EA060036
:1048100040EA0700B8F1040F40EA010003D1D4E9EF
:104820000B1319430843106020680126656A40692C
:10483000042D20F0070045EA00050CD1D4E90A0157
:10484000054341B12046FCF7E5FE20B140206065FC
:1048500084F83560B4E7206845612046FCF7C6FE61
:1048600094F85C303F229A408260C4F8549084F8F7
:1048700035600020A5E700003F8010E02DE9F04101
:10488000044690F8340000250128A66D0ED094F857
:1048900035C00127002084F83470BCF1010F07D027
:1048A000022584F834002846BDE8F0810220FBE7A9
:1048B000022784F8357060652046FCF7D5FE94F831
:1048C0005C103F208840B0602068016841F016010C
:1048D00001602068416941F080014161206C20B194
:1048E0002068016841F0080101602068016841F01A
:1048F00001010160D7E7000070B5044600F00CF933
:104900000546601C02D004480078044400F004F915
:10491000401BA042FAD370BD640000202DE9F84F7F
:10492000DFF89CE100224FF001084FF0030B4FF03D
:104930000F0A00BF0B6808FA02F42340A34271D1AA
:104940004D68022D01D0122D0FD1D5080E695707E1
:1049500000EB8505A9462D6AFF0E0AFA07FCBE404A
:1049600025EA0C052E43C9F820600F79550006682A
:104970000BFA05FC07F0030726EA0C06AF403743A5
:1049800007604E68012E05D0022E03D0112E01D0F3
:10499000122E0ED18668CF6826EA0C06AF40374348
:1049A000876046680F79A643C7F3001797403743DF
:1049B0004760C4688E6824EA0C04AE402643C66093
:1049C0004C68E40075D53F4C256845F4804525606A
:1049D000246822F00306950704F4804400943A4CBE
:1049E0002D0F2644D6F80848DFF8E0C00AFA05F78C
:1049F000604524EA070401D100272EE0344FB84275
:104A000001D1012729E0334FB84201D1022724E028
:104A1000314FB84201D103271FE0304FB84202D1D5
:104A200004271AE045E02E4FB84201D1052714E0D3
:104A30002C4FB84201D106270FE02B4FB84201D1CD
:104A400007270AE0294FB84201D1082705E0284F7F
:104A5000B84201D1092700E00A27AF402743754635
:104A6000C6F808784E68DEF80040F60324EA03042E
:104A700000D51C43124E2C60361D4D683468AD03C2
:104A800024EA030400D51C430D4F346008374D68F9
:104A90003C68ED0224EA030400D51C43084D3C6049
:104AA0000C354E682C68B60224EA030400D51C437A
:104AB0002C60521C102AFFF43DAFBDE8F88F0000B7
:104AC000003C0140443802400030014000000240F8
:104AD0000004024000080240000C024000100240A6
:104AE0000014024000180240001C02400020024056
:104AF000002402400069084000D00120704742694C
:104B000031EA020200D10904816170470AB1816172
:104B100070470904FBE70000014880687047000007
:104B20006400002030B590F84120202A24D190F86C
:104B30004020012A20D0012380F84030242280F830
:104B40004120202300240268156825F00105156026
:104B50000268156825F480551560026815680D43D4
:104B6000156001680A6842F001020A6080F841306D
:104B700080F84040002030BD022030BD30B590F8B4
:104B80004120202A22D190F84020012A1ED0012362
:104B900080F84030242280F841202024002502683B
:104BA000136823F0010313600268136823F4706331
:104BB00043EA0121116001680A6842F001020A60BB
:104BC00080F8414080F84050002030BD022030BDC8
:104BD000704770470268436B91691268002B00D0E0
:104BE000184770477047000070B5040004D094F86F
:104BF0004100002510B106E0012070BD204684F878
:104C0000405000F063F9242084F8410020680168D6
:104C100021F001010160D4E9001020F0706008610A
:104C20002068816821F400418160E06821680128E2
:104C3000A06806D040F404408860E068022803D0F1
:104C400006E040F40040F7E721684FF40060486058
:104C500020212068114A4368134343602068C268DA
:104C600022F40042C26054F8106B0DCC104340EAAD
:104C70000320F06054F81C3CD4E900021043186093
:104C800054F81C0D026842F001020260656484F869
:104C90004110256384F84250002070BD008000025E
:104CA0007047704770477047704700002DE9FF4F0D
:104CB00083B0044690F841009A469346DDE9108798
:104CC000DDF84890202874D15FEA080014D09FB125
:104CD00094F8400001286CD0012084F84000FFF7D0
:104CE0001BFF0122064619230090D103204602F043
:104CF00069FA002871D103E04FF4007060646CE041
:104D00000025C4F82480222184F84110402084F832
:104D1000420065646785534665635A460499204698
:104D2000CDE9009602F0D2F810B184F8405054E07A
:104D3000618DFF2734484FF08078FF294FF0007ACB
:104D400004D927853A464346009005E0618D5346D5
:104D50002185009094F828202046049902F01CFA3E
:104D600000224B4604212046009602F02BFAA0BBFD
:104D70002068616A406A0870606A401C6062208D29
:104D8000401E81B22185608D401E6085608DD8B146
:104D9000D1B900224B4680212046009602F012FA3B
:104DA000D8B9608DFF2805D927853A464346009536
:104DB00006E026E0608D53462085009594F8282073
:104DC0002046049902F0E8F9608D0028C8D13246E7
:104DD0004946204602F023FA18B1012007B0BDE889
:104DE000F08F21682020094AC86121684B68134070
:104DF0004B6084F8410084F84250002084F8405011
:104E0000ECE70220EAE700000024008000E800FE52
:104E10002DE9FC47044690F8410098469146DDE9AB
:104E20000A758A4620284BD11FB315B320688069C4
:104E3000C043000444D594F84000012840D001202C
:104E400084F840002434FFF767FE002621226277B1
:104E500040211C4A2760A1772662E580A260E28893
:104E600019492161243CFF2A07D9FF214FF08075A1
:104E700006E04FF4007060640FE0618D4FF0007544
:104E800021851921CDE9001043464A465146204666
:104E900002F04EF820B184F840600120BDE8FC87A4
:104EA00000962B4694F828205146204602F074F9CB
:104EB0000121204684F8406001F05AFC0020EDE713
:104EC0000220EBE70000FFFFA56D000810B586B0DB
:104ED000044614216846FBF7F5F916492068884214
:104EE00025D11548016841F00201016000681221D6
:104EF000012200F002000590C020032304248DE865
:104F00001F000E486946FFF709FD0B481030016885
:104F100041F40011016000680022052100F4001036
:104F200005901F2000F068F81F2000F057F806B029
:104F300010BD000000540040303802400004024020
:104F40007047704702488168027811448160704759
:104F500064000020032010B500F06EF8002000F07F
:104F600005F800F023F8002010BD000070B50D4DCD
:104F700004464FF47A700C4A29781268B0FBF1F0BD
:104F8000B2FBF0F000F0C2FD48B9102C07D20022AD
:104F90002146501E00F030F800206C6070BD0120EA
:104FA00070BD000064000020700000200A4808B5B1
:104FB000016841F080510160006800F0805000906D
:104FC0000548001D016841F480410160006800F45B
:104FD0008040009008BD000040380240002809DBF6
:104FE000410900F01F028900012001F1E0219040F9
:104FF000C1F80001704700000E4BF0B41B680D466D
:10500000C3F30223C3F10706042E00D90426191D99
:10501000072901D2002300E0DB1E012404FA06F177
:105020009C40491E2940641E994014402143F0BC15
:1050300005F02ABE0CED00E0064900F0070210B5AD
:105040004FF6FF040868044B204040EA0220184352
:10505000086010BD0CED00E00000FA051848F8B536
:10506000016841F0805101600068164C00F08050EA
:105070000090206840F480302060FFF74DFD4FF431
:105080007A76054605E000BFFFF746FD401BB042BB
:105090000FD86068C003F7D5206840F40030206066
:1050A000FFF73AFD054606E0FFF736FD401BB0422C
:1050B00001D90320F8BD60688003F5D50020F8BD54
:1050C00040380240007000402DE9F84F0446007857
:1050D000DFF824944FF000063746C0070ED0D9F809
:1050E000001021F40001C9F80010D9F80010626B1B
:1050F0001143C9F80010606B00B90126FE4D20680D
:10510000843500030ED5E16B286820F44010084375
:105110002860E06BB0F5801F01D010B102E00126DD
:1051200000E0012720684FF4800BC0020CD5216CF1
:10513000286820F4400008432860206C584501D1BD
:10514000012601E000B901272068C10100D5012630
:10515000800666D5E8483830016841F0805101602A
:105160000068DFF898A300F080500090DAF8001093
:1051700041F48071CAF80010FFF7CEFC804605E0CC
:10518000FFF7CAFCA0EB080064287DD8DAF800001D
:10519000C005F5D5DFF8608308F16808D8F800008D
:1051A00010F440702AD0218E01F44071814225D044
:1051B000D8F80010D8F8002021F4407142F4803271
:1051C000C8F80020D8F8002022F48032C8F8002067
:1051D000C8F80010D8F80000C0070FD0FFF79CFCFB
:1051E000824607E0FFF798FCA0EB0A0141F2883005
:1051F0008142CAD8D8F800008007F3D5206BC0F3ED
:10520000012103297ED0D9F8001021F4F811C9F842
:105210000010228ED8F80010C2F30B021143C8F818
:1052200000102078C00607D5286820F0807028601C
:105230002868A16B084328602188AF48883049045A
:1052400005D5626E016821F4403111430160218867
:10525000090405D5A26E016821F4402111430160C3
:105260002168C90305D5E26E016821F4401111439C
:1052700001602168890305D5226F016821F440018E
:1052800011430160217800E034E1490605D5626CE4
:10529000016821F00301114301602178090605D559
:1052A000A26C016821F00C01114301602188C9053D
:1052B00005D5E26C016821F03001114301602188BD
:1052C000890505D5226D016821F0C00111430160F7
:1052D0002188490505D5626D016821F440711143AB
:1052E00001602188090505D5A26D016821F440619E
:1052F000114301602188C90407D5E26D016821F4DA
:10530000405100E05FE0114301602188890405D528
:10531000226E016821F44041114301602168490275
:1053200005D5A26F016821F08061114301602168F9
:105330004FF0006A890209D5E26F016821F000612F
:1053400011430160E16F514500D1012721680A072F
:1053500000D50127490305D5626F016821F040712E
:10536000114301602168090206D5D4F88020016844
:1053700021F08051114301602168490106D5D4F81C
:105380008420016821F00051114301602068000170
:1053900006D5D4F88810286820F0007008432860EB
:1053A0002068C00006D5D4F88C10286820F08060F2
:1053B00008432860DFF84891012E0ED02068B0F134
:1053C000007F0AD08FE04F4AD9F80030104023F414
:1053D000F8120243C9F800201BE7D9F800004E4636
:1053E00020F08060C9F80000FFF796FB804605E0DA
:1053F000FFF792FBA0EB080064287BD8306800011F
:10540000F6D421783C487C30C90712D0616B81B951
:10541000237A62680168D0F800C09201C1F30141AB
:1054200042EA0142CCF3036142EA016141EA0371BD
:10543000016021680A0303D5E26BB2F5801F04D036
:10544000C9021AD5216C594517D16368016894F8CF
:105450000CC002689B01C1F3014143EA0141C2F360
:10546000027241EA0C6141EA027101602968626AD4
:1054700021F01F01521E114329602168C90110D576
:10548000238A62680168D0F800C09201C1F3036109
:1054900042EA034242EA0162CCF3027142EA01713C
:1054A0000160216889010CD56168228A237B94F808
:1054B00008C0890141EA024141EA036141EA0C71F5
:1054C00001603168B04641F080613160FFF724FB34
:1054D000064604E0FFF720FB801B64280AD8D8F8B2
:1054E00000000001F6D5E7B3D9F800004E4620F0E1
:1054F000805009E07BE00000083802400070004066
:1055000000380240FFFCFF0FC9F80000FFF704FB62
:10551000074604E0FFF700FBC01B642867D830682B
:10552000C0438000F6D5216835480A0301D5E26BF7
:105530001AB1C9021DD5216CD9B963690168277EEA
:1055400002689B01C1F3014143EA0143C2F30271C6
:1055500043EA076242EA0171016029686FF0FF03C4
:1055600000E04BE0A26A21F4F85103EB0222114360
:1055700029602168890212D5E16F51450FD1238C32
:105580006269016807689201C1F3036142EA03425C
:1055900042EA0162C7F3027142EA017101602178B7
:1055A000090716D561690268D0F800C08B01277F12
:1055B000C2F30362CCF3014143EA014141EA0261D3
:1055C00041EA077101602868E16A20F4403008432D
:1055D0002860306840F080503060FFF79DFA044644
:1055E00008E000BFFFF798FA001B642802D90320E7
:1055F000BDE8F88F3068C0438000F3D40020F7E79F
:10560000883802402DE9F04705000F4663D0444E2C
:10561000306800F00F00B84209D2306820F00F0067
:1056200038433060306800F00F00B84253D128682A
:105630003C4C810712D5400703D5206840F4E05068
:1056400020602878000703D5206840F4604020607F
:10565000A968206820F0F000084320602878C0077F
:105660002AD0304968680839012810D00968022812
:1056700010D0890700292EDA216821F003010143A7
:105680002160FFF749FA804641F288390DE0096848
:105690008903EFE78901EDE7FFF73EFAA0EB080188
:1056A000494502D90320BDE8F0876868216801F008
:1056B0000C01B1EB800FEFD1306800F00F00B84261
:1056C0000BD9306820F00F0038433060306800F0AC
:1056D0000F00B84201D00120E5E72878400705D542
:1056E000E968206820F4E05008432060287800072B
:1056F00006D52869216821F4604141EAC000206094
:1057000000F036F82168084AC1F30311515CC84023
:10571000064908600020FFF729FC0020C3E70000CD
:10572000003C024008380240F0B800087000002039
:105730000449054809680068044AC1F38221515CA4
:10574000C8407047083802407000002000B90008C7
:105750000449054809680068044AC1F34231515CB4
:10576000C8407047083802407000002000B90008A7
:10577000154910B51548096811F00C0213D04110F5
:10578000042A0FD0082A0ED10F4C241F2268236848
:1057900002F03F025B0207D52068C0F38810A0FB2F
:1057A000010106E0084610BD2168C1F38811A1FB84
:1057B00000010023FAF73CFD2168C1F30141491CB7
:1057C0004900B0FBF1F010BD083802400024F4009D
:1057D0002DE9F84F05004FF000076ED02878DFF86C
:1057E0002093A9F1040AC007AAF104044CD0D9F807
:1057F00000104846C1F38101012908D00068C0F3B8
:10580000810002280AD1DAF80000400206D520689B
:10581000800339D568680028DFD035E06868B0F5C6
:10582000803F0BD010B1B0F5A02F11D0206820F42C
:1058300080302060206820F4802002E0206840F45E
:1058400080302060686890B1FFF766F906460AE08C
:10585000206840F480202060F0E700BFFFF75CF98B
:10586000801B642872D820688003F7D50CE0FFF70E
:1058700053F9064605E000BFFFF74EF9801B642888
:10588000F0D820688003F7D42878800742D5D9F86B
:105890000010484611F00C0F08D00068C0F38100DA
:1058A00002280BD1DAF80000400207D420688007F4
:1058B00018D5E868012800D114E01EE1E868002846
:1058C000206817D040F001002060FFF725F9064658
:1058D00005E000BFFFF720F9801B0228C2D820682E
:1058E0008007F7D52869216821F0F80141EAC00056
:1058F00020600FE020F001002060FFF70DF9064660
:1059000005E000BFFFF708F9801B02281ED82068B9
:105910008007F7D42878000729D5794869696C3061
:1059200000298046016812D041F001010160FFF7B3
:10593000F3F8064605E000BFFFF7EEF8801B0228EB
:1059400004D8D8F800008007F6D510E089E021F0EF
:1059500001010160FFF7E0F8064604E0FFF7DCF81C
:10596000801B02287DD8D8F800008007F6D428785C
:1059700040076BD5DFF8888108F13808D8F80000B7
:10598000C0000BD4D8F8001041F08051C8F80010C6
:10599000D8F80000012700F08050009059480168B5
:1059A000C90512D40168834641F480710160FFF794
:1059B000B3F8064605E000BFFFF7AEF8801B642889
:1059C0004FD8DBF80000C005F6D54D4EA868683604
:1059D00001280AD008B1052811D0306820F0010054
:1059E0003060306820F0040002E0306840F00100D0
:1059F0003060A868A0B1FFF78FF883460CE03068EC
:105A000040F004003060F0E7FFF786F8A0EB0B01F0
:105A100041F28830814268D830688007F4D50EE0C2
:105A2000FFF77AF8834607E0FFF776F8A0EB0B0163
:105A300041F28830814258D830688007F4D42FB1C1
:105A4000D8F8001021F08051C8F80010A869E0B320
:105A5000D9F80010C1F3810102294ED00228206834
:105A600000E042E020F08070206003D0FFF754F89F
:105A700005463DE0FFF750F8064604E0FFF74CF816
:105A8000801B022831D820688001F7D4D5E909218C
:105A9000DFF874C0D5E9070695F830304F0895F85F
:105AA0002C1030430CEB074545EA8212104340EAC4
:105AB000016040EA0370CAF80000206840F080707E
:105AC0002060FFF729F8054605E014E0FFF724F809
:105AD000401B022809D820688001F7D50BE000BFE1
