:020000040800F2
:10000000B81500200D020008916400083D52000858
:10001000356400084D090008036F00080000000067
:100020000000000000000000000000003165000832
:10003000210B0008000000001B650008496500084E
:1000400027020008270200082702000827020008EC
:1000500027020008270200082702000827020008DC
:1000600027020008270200082702000827020008CC
:10007000270200082702000827020008650A000876
:1000800027020008270200080908000827020008C4
:10009000270200082702000827020008270200089C
:1000A000270200082702000827020008270200088C
:1000B0002702000827020008270200084D52000806
:1000C0004152000827020008270200082702000802
:1000D000270200082702000827020008270200085C
:1000E000270200082702000827020008270200084C
:1000F000270200082702000827020008270200083C
:10010000270200082702000827020008270200082B
:10011000A1690008270200084166000827020008BC
:10012000710A0008270200082702000827020008B9
:1001300027020008270200082702000869090008B2
:10014000510900085D09000827020008270200087D
:1001500027020008270200082702000827020008DB
:1001600027020008270200082702000827020008CB
:1001700027020008270200082702000800000000EC
:1001800027020008270200082702000827020008AB
:10019000270200082702000827020008270200089B
:1001A000270200082702000827020008270200088B
:1001B000270200082702000827020008270200087B
:1001C000270200082702000800000000270200089C
:1001D000270200082702000827020008270200085B
:1001E000270200082702000827020008270200084B
:1001F0002702000827020008DFF80CD000F09CF866
:1002000000480047F5710008B815002006488047EF
:1002100006480047FEE7FEE7FEE7FEE7FEE7FEE7EB
:10022000FEE7FEE7FEE7FEE7ED650008F9010008DE
:100230002DE9F05F0546002092469B46884606461B
:10024000814640241BE0284641464746224600F0AE
:1002500062F853465A46C01A914110D311461846C7
:10026000224600F049F82D1A67EB01084F46224656
:100270000120002100F040F817EB00094E41201E3C
:10028000A4F10104DFDC484631462A464346BDE876
:10029000F09F40EA01039B0703D009E008C9121F41
:1002A00008C0042AFAD203E011F8013B00F8013B30
:1002B000521EF9D27047D2B201E000F8012B491E5C
:1002C000FBD270470022F6E710B513460A460446F3
:1002D0001946FFF7F0FF204610BD30B50546002057
:1002E000034600E05B1C934205D2EC5CC85C201A1C
:1002F00001D1002CF6D130BD202A04DB203A00FACF
:1003000002F1002070479140C2F1200320FA03F36C
:10031000194390407047202A04DB203A21FA02F06A
:100320000021704721FA02F3D040C2F1200291402F
:100330000843194670470000064C074D06E0E06888
:1003400040F0010394E8070098471034AC42F6D31C
:10035000FFF756FF687700088877000810B51C88FB
:1003600014805C8854809C88948022F81100108846
:100370001880508858809088988010BD2DE9F04FE3
:10038000F84D4FF0030B4FF002084FF000092F46D5
:100390002DED028B81B007F18F0007F61D4700900D
:1003A000B5F84E0AB5F87A1A884248D0B5F8500A1E
:1003B000B5F87C1A884242D00099384600F03AFCE1
:1003C00000204C46A5F8F49A00F03AFBB5F8500A24
:1003D000042805D0062803D003280AD0052818D001
:1003E00085F8394C85F8384C85F8374C85F835BC9C
:1003F00008E085F8394C584685F8384C85F8374C74
:1004000085F835BCB5F84E1AA5F87A1AA5F87C0A15
:100410002DE085F8394C012185F8384C85F8351CDC
:10042000B5F84A1AA5F8341BB5F84E1AA5F87A1A89
:10043000A5F87C0A85F8378CA5F8F44A17E0C94C72
:10044000192695F8372C012A94F8393CB4F834CBA6
:10045000B4F84C1AB4F84A0A04F5806410D0022AA1
:100460007ED1604501D001297BD0A5F8F49A06F031
:10047000B3FD01B0BDEC028BBDE8F04F06F090BDBE
:1004800095F8382C012A08D0022A69D185F8389CC1
:1004900085F8378CA5F8F49AE9E7604500D061B19A
:1004A000AA469FEDB18BAF4A062BB2F8382B57D234
:1004B000DFE803F0DF0A93EAFAF9A5F8340B85F8D0
:1004C000399C85F8388CE8E0012A55467FD860458C
:1004D00075D0022973D10B2006F0F6FDB5F8441A49
:1004E00088426CDCB5F84A1A0520A5F8341B85F85B
:1004F000390C0020A5F8F48A06F0E6FD00EE100A9B
:10050000B8EEC00B84EDC60BB4EEC80BF1EE10FADA
:100510000CD2B5EEC00BF1EE10FA05DBBCEEC00B51
:1005200010EE100AC0B202E0002000E0FF2000F050
:1005300087FA022006F0C8FD90FBF6F0C5F8A8097E
:10054000002006F0C1FD0746012006F0BDFD002F8A
:10055000014607DB6FF000403A1A91420ADB08E0DF
:1005600087E0D5E007F10040814202DD4FF0004016
:1005700000E0781A6FF0004280FB06700021D21B69
:10058000814102DA6FF0004707E04FF00041791A2D
:1005900070F1FF3001DA4FF00047022006F094FDC1
:1005A00000EE100AB8EEC01B00EE107AB8EEC00BD9
:1005B00080EE012B84EDC82B59E008E0FFE7012015
:1005C00085F8390CA5F8F40AA5F8386B7EE0521EC0
:1005D00000D50022AAF8382B7BE0012A4ED8DAF8A1
:1005E000A8095546002806DD012006F06DFD95F8A6
:1005F000211C88420FDB002000F022FA00993846C7
:1006000000F018FB85F839BCA5F8386B95F8161C76
:1006100085F84B1C49E085F8398C94EDC60B94EDB8
:10062000C81B30EE410B84EDC60BB4EEC80BF1EEE7
:1006300010FA0DD2B5EEC00BF1EE10FA06DB00BFDA
:10064000BCEEC00B10EE100AC0B202E0002000E0C9
:10065000FF2000F0F5F9D5F8A8094FF000418842D5
:1006600002DCC5F8A81902E0401EC5F8A809A5F8E3
:10067000386B01B0BDEC028BBDE8F08F521E00D587
:100680000022AAF8382BF4E79AF8161C50460529E0
:100690000BD380F8399C8AF8388C3846009900F0E2
:1006A000C9FA002056E01BE006E001B0BDEC028B69
:1006B000BDE8F04F06F046BC012A5046DED80121C5
:1006C00080F8391CA0F8F41AAAF8386B642000F0FE
:1006D000B7F901B0BDEC028BBDE8F04F06F07CBC71
:1006E000012A5546CAD885F8398C94EDC60B94ED8D
:1006F000C81B30EE410B84EDC60BB4EEC80BF1EE17
:1007000010FAA5D2B5EEC00BF1EE10FA9EDB97E71A
:10071000A5F8340B01219FED160B85F8371C042B2F
:10072000A5F8389B84EDC60B84EDC80BC5F8A899D5
:1007300085F8381C9DD00B4C042085F8390C90347A
:10074000A5F8F41A2046A5F8386B00F055FA207881
:100750003870642001B0BDEC028BBDE8F04F00F0B2
:100760006FB9000048000020000000000000704049
:10077000000000000000000010B50146806B026C14
:1007800012F0500F05D0026CD20626D501F003FFFF
:1007900010BD016C41F40071016401688A6812F0B7
:1007A000405F17D18269AAB9CA6A12F4700F02D0E9
:1007B0008A6852050ED44A6822F020024A60016C11
:1007C00021F480710164016CC90403D4016C41F00F
:1007D0000101016401F0D4FE10BD806BC26C0846BB
:1007E000BDE81040104710B5806B40210164416C9A
:1007F00041F00401416401F0CEFE10BD10B5806BE4
:1008000001F0C8FE10BD0000014801F0C5BE0000A7
:100810007C0E00204A496FF0706210B5D1F80433A5
:1008200023F44033C1F80433D1F80433446823433C
:10083000C1F8043301684B6823F480734B6001688E
:1008400003694C6844EA03234B6001684B6823F05A
:1008500040734B60016884684B6823434B600168B8
:100860008B6823F400638B600168C4688B68234342
:100870008B60816AD14201688A6822F070628A6066
:1008800001680DD0836A8A681A438A6001688A68A1
:1008900022F040528A600168C36A8A681A4302E003
:1008A0008A6822F040528A6001688A6822F0020257
:1008B0008A60016882698B6843EA42028A6090F824
:1008C00020100029016811D01E4A4B6843F40063D0
:1008D0004B6001684B6823F460434B600168446AD5
:1008E0004B6802EB443213434B6003E04A6822F446
:1008F00000624A600168144BCA6A22F47002CA623C
:100900000168848BCA6A03EB04531A43CA62016804
:100910008A6822F400728A60016890F830208B683F
:1009200043EA42228A6001688A6822F480628A600F
:10093000016840698A6842EA8020886010BD000032
:100940000020014000E0FFFF0000F0FFFEE7000094
:10095000014802F07EB90000800F0020014802F03B
:1009600078B90000800F0020014802F072B9000041
:10097000800F00200A480E230021012230B44FF4DA
:100980007854C0E90612C0E900418160C160C0E945
:100990000413C0E9082330BC0146024802F04AB8FB
:1009A000240F0020800F00207047000010B5FFF7D3
:1009B000E1FF0848012101F0BFFF0648022101F0D4
:1009C000BBFF0448102101F0B7FFBDE8104001480B
:1009D00002F05EBB800F002008B564208DF8000097
:1009E000684600F007F80248042104F067F908BDE2
:1009F0003410002001789FED0D2B00EE101A9FEDB2
:100A00000E1B0C48B8EE404BD0ED030A016884EE93
:100A1000023BB8EE600B33EE011B21EE000BBDEE86
:100A2000C00B10EE100A8863704700000000000041
:100A300000409F40341000209A9999999999A93FB4
:100A40000649642881F8210C00D36420C0F16400B9
:100A500081F82C0C0248FFF7CDBF000048000020B1
:100A6000740C0020014802F059BB00005411002012
:100A7000014802F053BB0000C40E00200168182397
:100A8000CAB2103AB2FBF3F2054B6FF30901032A25
:100A90009B5CC36500D9091D81650846704700004D
:100AA0004877000810B583694FF0C074826A014628
:100AB000002053B1B3F5005F15D072B1012A0CD0FC
:100AC000022A0AD0032A09D104E01AB1012A06D069
:100AD000022A03D1C96AC90100D5012010BDC96A23
:100AE000A142FAD010BD002AF7D0012AF2D0022A82
:100AF000F3D0032AF3D010BD30B50468256825F47F
:100B000080252560046863608368402B036803D0F8
:100B100099600068C26030BD9A600068C16030BDF5
:100B200070470000FEB500240D4610210646084817
:100B3000224602F07DFD64203470012100950123DE
:100B40002246CDE901100348A02102F075FEFEBD4A
:100B500000040240A80F0020FEB5147850220E7841
:100B600064250178089B42EA111046EA01118DE8DC
:100B70003800CAB241000248012302F05DFEFEBD0A
:100B8000A80F00202DE9FC41007817460978502273
:100B9000104D42EA1014DDF8248041EA0010C6B27C
:100BA0000020195C2954401C1028FADB0A48002256
:100BB000102102F03DFD002188F800103878610016
:100BC00001233246CDE90050044802F0E7FEBDE8BB
:100BD000FC8100006A0E002000040240A80F0020E3
:100BE000704700000121017002480A46022102F00C
:100BF0001FBD0000000C02400121017002480A469E
:100C0000042102F015BD0000000C0240002101701B
:100C100002480A46022102F00BBD0000000C02400F
:100C20000021017002480A46042102F001BD0000C3
:100C3000000C024070B505460C460846FFF7F0FF71
:100C40002078287070BD70B505460C46084600F047
:100C500003F82078287070BD0121017070470021D1
:100C600001707047704700002DE9F04F87B00F46C4
:100C700041789646DDE91454DDE91296DDE910BAB3
:100C800004F1850204F1830C84F88310511E90F85E
:100C9000028084F8848090F8038084F8858090F83E
:100CA0000080B8F1570F09D0B8F1520F0DD0B8F14C
:100CB0004C0F12D0B8F1450F76D088E0CDE9003A5C
:100CC000031D6046FFF75EFF81E004F173005B46A1
:100CD00000906046FFF740FF79E004F16300009068
:100CE00004F186036046FFF737FF5FF0000002AAB9
:100CF00004EB400191F8643091F8631003EB01219B
:100D000022F81010401C0828F2DB94F88300012818
:100D100008D0022806D0032804D0052816D00628BB
:100D200014D02DE0C006010EC81F884200D9002053
:100D30005FF0000151FA80F304EB430332F81170C5
:100D4000491C082923F8027CF4DB19E0011F8842C2
:100D500000D20021C8B21F2801D9F82005E0C8063A
:100D6000010EC81F884200D90020002151FA80F3EB
:100D700004EB430332F81170491C0829DF85F5DBC9
:100D80005FF0000034F8101046F82010401C1828BE
:100D9000F8DB002004EB4001098E45F82010401CD0
:100DA0001028F7DB13E0FFE75C2271463046FFF7BF
:100DB00070FA0020F065014657F8212045F82120FF
:100DC000491C0C29F8DB28636863A863E8630020EA
:100DD00094F8831094F8842094F8853084F85010A7
:100DE00084F8512084F852302118401C102891F8C2
:100DF000732081F85320F7DB04F1500006F07AFAF3
:100E00000020211891F8502009F80020401C1328D8
:100E1000F7DB07B0BDE8F08F70B5264D03212448FD
:100E20000A1F05F580642DED028BB7EE008B84ED73
:100E3000BC8B4170017004F2644084EDC08BC5F836
:100E4000A42900F1600684EDCC8B85F84F1C60214D
:100E5000FFF738FA40213046FFF734FA092085F8C9
:100E6000320C84EDBE8B04F5767006F035F904F58E
:100E7000816006F049F904F25260FFF795FD04F62F
:100E80001C02501E02F59171FFF74CFEFFF78EFD1C
:100E9000FFF7A2FDFFF7A4FE01F0ECF904F0C4FF98
:100EA00004F0C8FFBDEC028BBDE8704005F042BB0A
:100EB00000000020480000202DE9F04FFF4960228B
:100EC000A1F5E6702DED028B91B01091FFF7E1F9DD
:100ED000FA49402260310F91A1F5E670FFF7D9F988
:100EE000F748002390F82F1C80F8161C90F93C1B43
:100EF00001EB410100EB4101B1F8B82AA0F8402A0A
:100F0000B1F8BA2AA0F8422AB1F8BC1AA0F8441ADB
:100F100090F93D1B00EB8101B1F8C42AA0F8462AE4
:100F2000B1F8C61AA0F8481A90F8301C80F8171CBF
:100F300090F93E1B00EB8101B1F8CC2AA0F84A2AB7
:100F4000B1F8CE1AA0F84C1A90F93F1B00EB410102
:100F500091F8D02B80F8452B91F8D11B80F8461BD7
:100F600090F9401B00EB8101B1F8D42AA0F84E2A79
:100F7000B1F8D61AA0F8501A90F9411B01EB810183
:100F80008C001A1903EB830102EB820200EB810152
:100F900000EB820212F89A5F81F8BA535B1C142BA3
:100FA000557881F8BB53957881F8BC53D57881F892
:100FB000BD53157981F8BE53557981F8BF539579A2
:100FC00081F8C053D57981F8C153157A81F8C2539D
:100FD000557A81F8C353957A81F8C453D57A81F84C
:100FE000C553157B81F8C653557B81F8C753957B54
:100FF00081F8C853D57B81F8C953157C81F8CA5351
:10100000557C81F8CB53957C81F8CC53D27C81F808
:10101000CD23B6DBAB4E01468046A9484FF0FF32E8
:1010200096EDC00B012586EDBC0BC1F8A42900F29A
:10103000DA620892002798F8342C00F6C40AB7EE5A
:10104000008B00F66409EAB198F8360C08B104F098
:10105000FBFE98F83B0C08B105F0EEF998F83D0C52
:1010600008B100F099FF98F8480CE8B3944964245B
:1010700098F8470C883101284AD002285ED003280E
:101080006DD15BE088F8345C384688F8365C02271E
:10109000A8F8340B4446A8F8360B88F84C0C88F8AE
:1010A000357C88F83B5C88F83A5C88F83D5CC8F889
:1010B000AC0998F83C1C042902D0042184F83C1C9B
:1010C00084F8485C032184F84D0C84F84E0C84F8B5
:1010D000471C94F84A1C012903D084F84A5CA4F800
:1010E0003A0B94F8490C00E039E0012803D084F869
:1010F000495C05F01FFA9FED740B84F8465C86EDA1
:10110000CA0B94F8450C02285AD084F8457C55E067
:1011100098F84E0C58B198F8172C98F84D3C9A4214
:1011200012D1401E00D5002088F84E0C17E0022096
:1011300088F8470C6648FFF792FD10E098F8170C06
:1011400098F84D2C90420AD00AA888F8475CFFF71F
:101150007AFD98F8170C88F84D0C88F84E4C98F8E2
:101160004A0CE8B198F8490C012802D0022817D19E
:1011700005E0022188F8491CA8F83A7B10E0B8F88D
:101180003A0B0A2804D388F8495C05F0D3F907E044
:10119000401CB0F5803F01DB4FF6FF70A8F83A0B1A
:1011A00098F8460C0028AFD098F8450C012802D0DA
:1011B000022805D105E0022088F8450C86EDCA8B8F
:1011C000CBE196EDCA0BB2EE041BB4EEC10BF1EE0F
:1011D00010FA72DB88F8455C394698F84F7CAC46CB
:1011E000012F2CD0022F2CD03548032F0BAA00F64C
:1011F0002343099300F5FB6300F6064B00F66B36BC
:1012000000F6244500F6224400F60800CDE9060366
:101210001AD0042F77D098F8500C012874D00228E7
:1012200073D098F8520C032870D388F8521C1846D3
:10123000B2EE080B88F850CC06F0F4F88DE10220ED
:10124000AAE006F04BF988E12148933090F8860037
:10125000FF281AD0AA285AD0002088F84FCC115461
:10126000401C1028FBDB0023009245201A4619463B
:1012700005F0FAFECDF814808DE87006099B069AF9
:10128000DDE90710FFF7F0FC67E1052088F84F0C57
:1012900088F8071C022288F8081CAA2788F8091C6D
:1012A00088F80A1C88F80B1C88F80C1C88F80D1CA0
:1012B00088F80E1C88F80F1C0CE04AE14C0900204D
:1012C000480000204804002000000000000000004A
:1012D0006D0C002088F8101C012388F8111C88F878
:1012E000121C88F8131C88F8141C88F8151C88F840
:1012F000521C88F8502C002288F8067C5720114692
:10130000CDF800B0B4E716E07CE0C1E0F5E00420E1
:1013100088F84F0C022388F8521C002088F8513CB2
:101320001154401C1028FBDB7FE0009254E000BF0A
:1013300088F8520C11E198F8510C012825D098F842
:10134000520C03283DD3042788F851CC002088F89C
:10135000527C1154401C1028FBDB7F1CFF2F3946A8
:1013600000D9FF210092102300224C2005F07CFEC2
:10137000CDF814808DE87006099B069ADDE9071008
:10138000FFF772FCFF2F1AD816E098F8527C062F50
:1013900005D3022088F8511C88F84F0C51E7002033
:1013A0001154401C1028FBDB7F1CFF2F384600D94E
:1013B000FF200092C1B2D6E788F8527CCDE0FF272B
:1013C000FAE70023D1545B1C102BFBDB401CFF28E9
:1013D00000D9FF200092C1B2102300224C2005F05A
:1013E00043FECDF814808DE87006099B069ADDE96E
:1013F0000710FFF739FC98F8520C401CFF2897D9CA
:10140000FF2095E798F8520C022814D388F8501C56
:10141000042088F84F0C022388F8521C002088F81A
:10142000513C1154401C1028FBDB491CFF297FF65E
:101430007CAFFF2179E705F02DFE98F8520C401D96
:10144000FF2800D9FF20CDF800B0C1B21023002240
:10145000572005F009FECDF814808DE87006099B31
:10146000069ADDE90710FFF7FFFB98F8520C401CC5
:10147000FF2800D9FF2088F8520C002108EB01005A
:10148000491C102990F8062C80F85B2BF6DB64E0F1
:10149000032088F8500C069808F54567B3EE070B53
:1014A00005F064FFB87805F0F5FDBF787F1CFF2FCD
:1014B000384600D9FF20CDF800B0C1B21023002279
:1014C000572005F0D1FDCDF814808DE87006099BFA
:1014D000069ADDE90710FFF7C7FBFF2F00D9FF27AA
:1014E0004146002088F8527C0A18401C102892F8C7
:1014F000063C82F85B3BF7DB2FE0474605F0CAFD70
:1015000097F8527C7F1CFF2F384600D9FF20CDF87A
:1015100000B0C1B210230022572005F0A5FDCDF880
:1015200014808DE87006099B069ADDE90710FFF725
:101530009BFBFF2F00D9FF274146002088F8527CF3
:101540000A18401C102892F8063C82F85B3BF7DB37
:1015500003E030EE080B86EDCA0B98F81D1C4446DC
:1015600009B1012300E0002335484278012A0ED05A
:101570000025AB4203D0032A01D084F81A1C01B124
:101580000121417094F8311C19B1012202E00125BA
:10159000EFE70022017801294FD000239A4205D0BD
:1015A000032903D094F8311C84F81A1C94F8311CD8
:1015B00001B101210170234814220899FEF769FE48
:1015C000204994F8222C4C39002081F8602094F8AE
:1015D000232C81F8612094F8242C81F862202318B0
:1015E0000A18401C93F86B3B132882F86330F6DB33
:1015F000002022180B18401C92F85B2B102883F84F
:101600007620F6DB0F48602249463C30FEF741FE6B
:101610000C48402251469C30FEF73BFE1098602259
:101620004946FEF736FE0F9840225146FEF731FE3E
:1016300011B0BDEC028BBDE8F08F0123AEE70000D6
:10164000000000204C0D00202DE9FC5FFE4C6423BF
:1016500000264FF0020A214640F2053B4FF4803944
:101660004FF6FF7594F81F2C40F2022784F8182CCF
:1016700094F832CCB1F8320B01F58061BCF10A0F5D
:101680005AD2DFE80CF0590572117220263F4953F7
:10169000062284F8322C4FF40070A4F8EC0A4FF4C0
:1016A000C871A4F8EE1A60E0042802D005F082FFA9
:1016B0005BE084F832AC4FF47A715046A4F8EC1A2F
:1016C000A4F8EE0A51E0012084F8320CA4F8EC7A78
:1016D000F6E7012801D042B111E0082184F8321C5C
:1016E000A4F8ECBAA4F8F23A3FE094F8331C0129CC
:1016F00005D1401C484500D32846A4F8320B84F895
:10170000332C32E0032084F8320CA4F8EC6AA4F8FD
:101710002E6BA4F8306B28E0A4F8F23A072184F885
:10172000321CA4F8EC7AA4F8EEAA1EE00A209FED81
:10173000C70B84F8320C16E091EDC40BB2EE041B1B
:10174000B4EE410BF1EE10FA09D1052084F8320C09
:1017500040F20121A4F8EC1AA4F8F00A05E0B7EE73
:10176000001B30EE010B81EDC40BBA48BA49A0F161
:101770005F039A1ECDE90010911E653804F0A0FEAB
:10178000B64991ED040BBDEEC00B10EE100A012816
:1017900034D002284FF0000039D02118401C0A280C
:1017A00091F8512B81F8472BF7DBAA4894F8212CAC
:1017B000533884F8192C811E031FCDE90010821FB5
:1017C000891F493005F08AFB9F49B4F8F60A01F6F3
:1017D0008A2A92315845884622D1B4F8F80A0B4635
:1017E000A4F8000B0021B4F8FA0A5246FEF7B6FD41
:1017F000B4F8FC0A02214346524631E00020231887
:101800000A5C401C0A2883F8472BF8DBCDE70A184E
:101810002318401C127E0A2883F8472BF7DBC4E705
:10182000B0F5017F1FD0B0F5007F2AD0A0F5407140
:1018300006390DD0A0F50071013942D0B84264D10B
:10184000B4F8F80A05F00EFDB4F8840AC0B369E0F4
:10185000B4F8F81A0A2043465246B1FBF0F00121D1
:10186000FEF77CFD5EE094F82E0CFF2802D384F88E
:101870002E6C57E0401CFF2800DDFF2084F82E0C62
:1018800050E0B4F87E0AB4F8F81AFF2802D3A4F89E
:101890007E6A05E0401C484500DB2846A4F87E0A25
:1018A000A4F8801A94F8190C64283BD0322903D08C
:1018B000642901D0C82935D1002005F0D3FC31E0DE
:1018C00020E0B4F8F87AFF2F00D9FF27B4F8860A91
:1018D000B4F8FA1AFF2802D3A4F8866A05E0401C7F
:1018E000484500DB2846A4F8860AA4F8881AF9B20D
:1018F000B4F8FC0A1E29A4F8040B02D9002005F054
:10190000B1FCF8B205F0E0FC0CE0A0F50071033981
:1019100008D1B4F8F80A64214843484500DB28465A
:10192000A4F8020B94F8420B58B9B4F88A0AA4F848
:10193000DC0AB4F88C0AA4F8DE0AB4F88E0AA4F81B
:10194000E00A94F8000B84F82F0C94F83C1BB4F8D0
:101950008A0AE9B35FF0000101EB410104EB4101A8
:10196000A1F8B80A94F83C1BB4F88C0A89B300219A
:1019700001EB410104EB4101A1F8BA0A94F83C1BC8
:10198000B4F88E0A31B3002101EB410104EB4101AF
:10199000A1F8BC0A94F83C0BE8B3002084F83C0B97
:1019A00094F83D0BB4F87E1AB0B3002004EB80002D
:1019B000A0F8C41A94F83D1BB4F8800A69B300215A
:1019C00004EB8101A1F8C60A94F83D0B30B302E0A4
:1019D00076E077E078E0002084F83D0B94F82E0C58
:1019E00084F8300C94F83E0BB4F8821A58B30020F7
:1019F00004EB8000A0F8CC1A94F83E1BB4F8840ADB
:101A000071B3002104EB8101A1F8CE0A94F83E0BDA
:101A100038B3002003E059E05AE05DE05EE084F86E
:101A20003E0B94F83F1B94F87E0BE9B35FF0000186
:101A300004EB410181F8D00B94F83F1B94F87F0B25
:101A400099B300210EE04BE04800002000000000A8
:101A500000000000990B002024770008A00C002053
:101A600040E041E004EB410181F8D10B94F83F0BD9
:101A700080B3002084F83F0B94F8401BB4F8860A2A
:101A800049B3002104EB8101A1F8D40A94F8401B6A
:101A9000B4F8880A81B3002104EB8101A1F8D60AC9
:101AA00094F8400B48B301E020E021E05FF0000033
:101AB00084F8400B94F82D0C84F8310CBDE8FC9FA1
:101AC000012149E7012153E701215DE7012065E795
:101AD00001206BE70EE011E0012171E701207BE7B7
:101AE000012085E701218DE7012093E701219FE790
:101AF0000121A7E70120BDE702E003E00121C1E7E2
:101B00000121C9E70120D3E72DE9F04F464901241F
:101B100000239BB018460DF1040C81F8424BB1F83C
:101B2000DC5AB1F8DE4AB1F8E06A81F8423B91F93B
:101B3000433B65F30F02B1F8025B109564F31F425B
:101B4000B1F8045B03EBC3031295C41801EB8404E2
:101B5000D4F8D4494CF82040401C0928F5DBB1F8F2
:101B60002C3B00200BAC199391F81AAC91F8219CF6
:101B7000B1F8F43A1693B1F87C7A91F81F6C91F8A9
:101B8000205C91F81EBC00BF01EB40083CF82030FF
:101B9000A8F8903A24F81030401C0928F4DB4FEAEA
:101BA0001248199AA1F8A22AA1F8A4AAA1F8A69A03
:101BB000169AA1F8A82A109AA1F8AA2AA1F8AC7A34
:101BC000129AA1F8AE2AA1F8B08AA1F8B26AA1F8D7
:101BD000B45AA1F8B6BA15490091A1F58C7004F079
:101BE0008CFC009805F0A2FB1148002134F811206C
:101BF00020F81120491C0929F8DB19994182A0F825
:101C000014A0A0F816901699018310994183878338
:101C10001299C183A0F8208046848584A0F826B05C
:101C20001BB0BDE8F08F000048000020F00B002042
:101C3000000D0020274930B589B001F5337005F05B
:101C400067FD254D00206C4605EB8001D1F8B019E9
:101C500044F82010401C0928F6DB204804F05EFC04
:101C600095F8440B48B900BF05EB800254F82010EA
:101C7000C2F81C1A401C0928F6DB1949002000BFD5
:101C800001EB800254F82030401C09289362F7DBF6
:101C90005FF0000095F8432B54F82010B2B10022F9
:101CA00002EBC2020244401C05EB82020928C2F882
:101CB000D419EFDB95F8430B50B1002085F8430BA6
:101CC000B5F82A0BA5F82C0B09B030BD0122E7E7C7
:101CD0000120F3E7F809002048000020720B0020E3
:101CE000000D0020F0B5584C8BB00122002001A956
:101CF000B4F802CBA4F8E2CAB4F8043BA4F8E43A7E
:101D000084F8442B04EB8002D2F81C2A41F82020EE
:101D1000401C0928F6DB002084F8440B4FF4A06136
:101D2000B4F8F40A94F81A5C4FF4447294F8216CF5
:101D3000531CA4F8E60A971DB4F87C0A40F2173E3B
:101D4000A4F8E80AB4F82A0BA4F8EA0A6046A4F852
:101D5000201BA4F8222B3D4AA4F8243B0723A4F817
:101D6000267B02F110010F46A4F828EB04F6E624C6
:101D700005F0F0F920840723344A39466084284668
:101D800005F0E8F9324FA084A7F19603009703F11C
:101D90002002911E881E04F07CFBA7F160003946EA
:101DA00005F074FAE68407F10806284BA6F1A402B0
:101DB000111D0096203301F1240004F06AFBA6F106
:101DC0006600314605F062FA258506F10805A5F1A1
:101DD000AA03204A181F009503F1280104F059FBBB
:101DE000A5F16C00294605F051FA05980835608583
:101DF000A5F1820306989A1EA085911E0498E0859D
:101E000009982086881E009504F043FBA5F1720016
:101E1000294605F03BFA079808356086A5F182034C
:101E200001989A1EA086911E0298E086039820874A
:101E3000881E009504F02DFBA5F17800294605F0D9
:101E400025FA0BB0F0BD00004800002026770008FE
:101E5000C80B0020247700084C49002010B586B03C
:101E60006A4691F848308DF8003091F849308DF885
:101E7000013091F84A308DF8023091F84B308DF8EE
:101E800003300C181318401C94F84C4010281C7197
:101E9000F7DB104605F04EFB3D4B002293F8410B5B
:101EA000E8B3002002EB820100EB800003EB81012C
:101EB00002EB800000EB800091F84A4503EB8000C4
:101EC00080F89A4091F84B4580F89B4091F84C453A
:101ED00080F89C4091F84D4580F89D4091F84E4522
:101EE00080F89E4091F84F4580F89F4091F850450A
:101EF00080F8A04091F8514580F8A14091F85245F2
:101F000080F8A24091F8534580F8A34091F85445D9
:101F100080F8A44091F8554580F8A54000E030E0F5
:101F200091F8564580F8A64091F8574580F8A740AB
:101F300091F8584580F8A84091F8594580F8A94093
:101F400091F85A4580F8AA4091F85B4580F8AB407B
:101F500091F85C4580F8AC4091F85D1580F8AD10C3
:101F6000521C142A9ADB93F8410B60B15FF0000019
:101F700083F8410B074890EDBE0B80EDC00B06B017
:101F800010BD01208EE70120F2E70000A00C002028
:101F900048000020480400202DE9FE4FA64C0125F2
:101FA00000274FF00309214601F61E4094F83CCC6F
:101FB00001F5426202900226D1F8AC09EB070192CA
:101FC000521E0092421E91F842AC01F1890B91F829
:101FD0003E1CBCF1070F59D2DFE80CF05804F26048
:101FE000F2BCF200BAF1010F514609D0022910D01B
:101FF000032917D0BAF1040F48D101282DD0BCE035
:1020000001287CD184F8447C84F8427C84F83C6CC0
:10201000CAE0012873D184F8429C00F0A5F9C4F805
:10202000AC09C1E001286AD184F8425C00F09CF957
:10203000C4F8AC0994F8210C512894F8440C07D248
:10204000012823D0502084F8445CFEF7F9FCC2E05C
:1020500002281BD084F8446CBDE084F8437C84F8EB
:10206000426C00F081F9754AC4F8AC09511E481E53
:1020700000F010F994F8280C84F81E0C94F8260C43
:1020800084F81F0C94F8270C84F8200CBDE8FE8F10
:10209000C4F8AC39FAE7C4F8AC29F7E7D4F8A429B6
:1020A0000420022A21D0002AF0D1BAF1040F84F8CA
:1020B0003C5C05D084F8420C00F056F9C4F8AC0939
:1020C00094F83A0C032836D0042840D094F8210C18
:1020D0003C283CD894F8430C0128D7D03C2084F805
:1020E000435CBDE8FE4FFEF7ABBC94F8162C052A06
:1020F000CCD2052284F83C2C042907D000E03CE037
:1021000084F83E0C00F030F9C4F8AC0994F83A0CAD
:10211000032894F8410C09D00128B7D084F8415C19
:10212000BDE8FE4F4548C01CFEF75CBD0228ADD09F
:1021300084F8416C09E094F8210C5028C6D894F832
:10214000430C0328A2D084F8439C5020C9E784F8AC
:10215000436C9BE7012908D0022911D0032930D014
:10216000042993D101283ED007E0012805D184F845
:102170003E7C062084F83C0C16E098428BDC87E716
:102180000128FAD184F8407C84F83E9C00F0ECF8F9
:10219000C4F8AC0994F83A0C032894F83F0C07D023
:1021A0000128D6D084F83F5CBDE8FE4F00F0BAB8F5
:1021B0000228CED0002084F83F6CFEF741FCF3E704
:1021C00036E00128D9D184F83F7C84F83E5C00F0E9
:1021D000CBF8C4F8AC095B469DE8070003B0BDE846
:1021E000F04F00F08BB884F8417C84F83E6C00F02E
:1021F000BBF8114FC4F8AC0994F83A0C8C3703289B
:1022000094F8400C08D00128A3D007F69E3084F83B
:10221000405CFEF7FBFC03E002289AD084F8406C97
:102220003B469DE8070003B0BDE8F04F00F088B8DA
:1022300084F83C9C2AE7000048000020700C002035
:1022400010B5002303700B70012414700421084C96
:102250001A46204601F0ECF900222046082101F040
:10226000E7F901222046BDE81040022101F0E0B963
:102270000010024008B5684600F002F808BD0000F2
:102280000021017002480A46022101F0D1B9000084
:102290000010024010B50024047001230B7013706D
:1022A0002246084C0421204601F0C2F901222046B2
:1022B000082101F0BDF901222046BDE810400221AD
:1022C00001F0B6B90010024010B5012303700024DC
:1022D0000C70094C042113701A46204601F0A8F92D
:1022E00000222046082101F0A3F901222046BDE882
:1022F0001040022101F09CB9001002402DE9F0418C
:102300001C4615469A1C0E46591C07462046FFF7E8
:1023100097FFA07828702078387060783070BDE81A
:10232000F0810000044810B5FFF7AAFF034890F8B9
:10233000291C80F81E1C10BD710C002048000020D4
:102340002DE9F0411C4615469A1C0E46591C0746BD
:102350002046FFF7B9FFA0782870207838706078A1
:102360003070BDE8F08100002A49084691F83E2C03
:1023700090F83A0C042A10D0022A16D0032A2FD043
:10238000012A35D091F8420C042839D002283AD0DD
:1023900003283BD0D1F864077047032802D0D1F856
:1023A00078077047D1F88807704703280FD091F855
:1023B000162C012A0ED01748022AD0F86C07F3D049
:1023C000032A0AD0042AEFD1D1F874077047D1F854
:1023D00084077047D1F868077047D1F870077047D5
:1023E000032802D0D1F87C077047D1F84007704726
:1023F000032802D0D1F880077047D1F8440770470E
:10240000D1F85C077047D1F858077047D1F86007DA
:10241000704700004800002070470000F8B5002514
:10242000009590F83C20012A18D0012280F83C2029
:102430000A6807234E4C0668092A1AD90A3A02EBA1
:102440004207F268BB409A43F2600E680268A642F7
:1024500006D10B7AD66846EA036308E00220F8BD8D
:102460000A3E8B68D76806EB4606B3403B43D36011
:102470000EE002EB42073269BB409A4332610368C7
:102480000E788A681F6906EB4606B2403A431A6125
:102490004A681F23072A13D20668521E02EB8207DE
:1024A000726BBB409A43726303680E790A88761E8A
:1024B0005F6B92B206EB8606B2403A435A6327E05E
:1024C00006680D2A12D2D21F02EB8207326BBB4084
:1024D0009A43326302680E790B88F61F176B9BB222
:1024E00006EB8606B3403B43136311E00D3A02EB63
:1024F0008207F26ABB409A43F26202680E790B8847
:102500000D3ED76A9BB206EB8606B3403B43D362CF
:10251000184A0368934208D10B68122B05D1D2F8F0
:10252000043343F48003C2F80433036893421AD19E
:102530000B68A34201D0112B15D1D2F8043343F418
:102540000003C2F804330968A1420CD10A490B4ABE
:102550000968B1FBF2F101EB8101490000E0491E7D
:1025600000910029FBD180F83C500020F8BD00000C
:1025700012000010002001404400002040420F00E3
:1025800000680349884201D1FFF754BB704700003F
:10259000002001407047704770B50446006801682C
:1025A0004268C1F34001C2F3401251B34AB3216CF7
:1025B000C90603D4216C41F400712164816811F0D3
:1025C000405F17D1A169A9B9C16A11F4700F02D097
:1025D000816849050ED4416821F020014160206CDA
:1025E00020F480702064206CC00403D4206C40F080
:1025F000010020642046FFF7C3FF21686FF012003E
:102600000860206801684268C1F38001C2F3C0120B
:1026100089B382B3216CC90603D4216C41F4005103
:102620002164816811F4401F1ED1816B11F4401F99
:1026300002D08168490517D44168490514D48168DE
:1026400011F0405F10D1A16971B9416821F080019A
:102650004160206C20F480502064206CC00503D4BD
:10266000206C40F0010020642046FFF7D5FE216871
:102670006FF00C00086020680168436811F0010FDA
:10268000C3F380110ED069B10068C0070AD0206C76
:1026900040F480302064204600F046F821686FF056
:1026A00001000860206801684268C1F340110029F8
:1026B000C2F380620DD0002A0BD0616C6FF0200550
:1026C00041F00201616405602046FFF764FF206865
:1026D000056070BD70B504004FF0000503D0206C9C
:1026E000002610B107E0012070BD204600F01EF862
:1026F000666484F83C60206CC00610D4206C20F422
:10270000885040F0020020642046FEF783F866649B
:10271000206C20F0020040F00100206400E0012560
:1027200084F83C60284670BD70470000F0B587B063
:10273000064614216846FDF7C5FD304930688842D9
:1027400059D12F48016841F48071016000682C491B
:1027500000F4807005901439086840F004000860A7
:10276000086800F004000590086840F00100086067
:10277000086800F001000590086840F00200086059
:10278000086803240025694600F002000590132024
:102790008DE831001B4800F053FEF02069468DE8BB
:1027A0003100194800F04CFE009469461748CDE905
:1027B000014500F045FE164C16480115C4E9000518
:1027C0008715A5600B01C4E9035182142046C4E9B2
:1027D00007756562C4E9052300F070FD08B1FEF7D6
:1027E00041FA0022B46312201146A66301F0D2F927
:1027F000122001F0C1F907B0F0BD00000020014037
:102800004438024000080240000002400004024038
:10281000C40E002010640240F8B50D4604460021A5
:10282000009190F83C00012807D0012084F83C007A
:1028300020688368DB0702D011E00220F8BD8668BB
:10284000364B46F00106866035480068B0FBF3F071
:1028500000EB400000E0401E00900028FBD1206803
:102860008368DB0758D0236C40F20166B34343F41E
:10287000807323644068400505D5206C20F4005027
:1028800040F480502064206CC00404D5606C20F0BB
:102890000600606400E061646FF0220084F83C1080
:1028A000A36B2049D963A36B1F491964A36B1F490C
:1028B000D964216808602068416841F08061416006
:1028C0002068816841F48071816021681346A06BA3
:1028D0002A464C3100F064FD1549D1F80403C006C6
:1028E000206811D0884207D1826812F0405F03D17E
:1028F000826842F080428260D1F80403C0060BD4A3
:102900000C492068884207D1816811F0405F03D1EB
:10291000816841F0804181600020F8BD40420F0095
:102920004400002079070008FD070008E7070008B9
:10293000002001400022014090F82020012A07D009
:10294000022A05D0416A41F480214162012070478A
:10295000006842690A43426100207047F0B590F870
:1029600020500468A468012D05D0022D03D0416ACF
:1029700041F480215AE014F0406F01D1E50052D5B6
:10298000C4F30164022C03D9416A41F400014DE013
:1029900001264FF4C075A6401E608B68ABB1CE68AF
:1029A0004F68D0F800C0334305EB041643EAC70371
:1029B0004CF8063007684FF4C27303EB04130E693A
:1029C000FE50097D012909D00DE00E88CB6807680B
:1029D00043EA465305EB0416BB51EBE70168CE58BA
:1029E00046F48076CE50D2F805304FF4C67C11798B
:1029F0000CEB041C06684FF4C47741EA032107EB93
:102A0000041346F80C10167805EB0411D2F80120D7
:102A1000076846EA0222FA500068425842F0010272
:102A200042500020F0BD416A41F400114162012092
:102A3000F0BD000030B590F820300268012B07D0BF
:102A4000022B05D0416A41F480214162012030BD52
:102A50003E4C3F48A24200D00246D2F800328242A9
:102A600043F00103C2F800320CD1D2F8000220F486
:102A70007C50C2F80002D2F800024B6A40EA032000
:102A8000C2F800020C7D0120D2F81C3204F01F04B1
:102A9000A0408343C2F81C32CB69B3B9D2F80C32E0
:102AA0008343C2F80C328C894B684D6964F31F4331
:102AB00002EBC504C4F840320C890B684D6964F31D
:102AC0001F4302EBC504C4F84432CB69012B16D175
:102AD000D2F80C320343C2F80C320C884B684D69B3
:102AE00064F31F4302EBC504C4F840320C89CB6881
:102AF0004D6964F31F4302EBC504C4F844328B698B
:102B0000002BD2F804320FD053EA0003C2F804328B
:102B10000B69002BD2F8143208D00343C2F81432E8
:102B2000096A012904D008E08343EFE78343F5E70E
:102B3000D2F81C120143C2F81C12D2F8000220F095
:102B40000100C2F80002002030BD00000034004047
:102B50000064004070470000F0B590F82040012C60
:102B600005D0022C03D0416A41F4802166E004685C
:102B700000295ED02469A4075DD005684FF4D8749D
:102B800004EB01142D5915F00405956005682D59C5
:102B900057D0ED08C2F8045007684FF4DA754FF4C7
:102BA000DC7C4FF4DE763C59002905EB0115C4F3BB
:102BB0004007D7600CEB011406EB0111066876594B
:102BC00006F00F06166106687659C6F30726966169
:102BD000066875594FEA15455561026812591A7011
:102BE000026812594FEA12225A70026812594FEACB
:102BF00012429A70026812594FEA1262DA70026841
:102C000052581A71026852584FEA12225A710268D9
:102C100052584FEA12429A71026851584FEA1161B4
:102C2000D971006810D0016941F0200101610020D4
:102C3000F0BDE4689FE7416A41F400114162012060
:102C4000F0BD6D0D1560A7E7C16841F02001C160BE
:102C5000EDE72DE9F05F0546006800244669D0F8ED
:102C600004908768D0F80CB0D0F810A0F207D0F824
:102C7000188048D0F90714D001218160BA0703D524
:102C8000284600F032FA0CE0780702D54FF40064D1
:102C900007E0380702D54FF4805402E0284600F0E0
:102CA00023FAF80516D52868BA054FF480718160BB
:102CB00003D5284600F01BFA0CE0780502D544F451
:102CC000005407E0380502D544F4804402E0284669
:102CD00000F00CFAF80316D52868BA034FF48031D7
:102CE000816003D5284600F004FA0CE0780302D591
:102CF00044F4004407E0380302D544F4803402E091
:102D0000284600F0F5F9300707D55FEACB6004D517
:102D10002968102044F40074C86070074FF0080759
:102D200007D55FEA0B7004D52868C760284600F015
:102D300075F9B00706D52868C068800702D0284614
:102D400000F06EF9700607D55FEACA6004D52968FD
:102D5000102044F480640861B00607D55FEA0A7069
:102D600004D528680761284600F08EF9F00606D5DC
:102D700028680069800702D0284600F086F9B00371
:102D800008D55FEAC96005D5296810204860284643
:102D900000F07CF9F00307D55FEA097004D52868D4
:102DA0004760284600F0A6F9300446D55FEA49702E
:102DB00040D5F00504D55FEAC87001D044F00104A5
:102DC000B00504D55FEA887001D544F002047005AF
:102DD00004D55FEA487001D544F00404300529D5D4
:102DE00018F0700F26D008F07000402815D006DCCF
:102DF000102809D020280AD0302816D10AE05028FF
:102E00000ED0602811D10EE044F008040DE044F02B
:102E100010040AE044F0200407E044F0400404E019
:102E200044F0800401E044F480742868816921F052
:102E300070018161296804204860002C05D0686A0F
:102E4000204368622846FFF785FEBDE8F09F70B515
:102E5000040003D094F8200010B104E0012070BDFC
:102E6000204600F081F82068016821F0020101602D
:102E700000F0E4FB0526054604E000F0DFFB401B04
:102E80000A2811D8206840688007F6D420680168B5
:102E900041F00101016000F0D1FB05460BE000F0BC
:102EA000CDFB401B0A2806D9606A40F400306062FE
:102EB00084F82060D2E720684068C007EFD0207E09
:102EC0000128206801683DD021F080010160607E0A
:102ED00001282068016838D021F040010160A07EFF
:102EE00001282068016833D021F020010160E07ED4
:102EF0000128206801682ED041F010010160207F78
:102F000001282068016829D021F008010160607F54
:102F100001282068016824D021F004010160D4E96F
:102F20000110D4E903326569491E184323682A4316
:102F3000104300220843D8610121626284F8201006
:102F4000104670BD41F08001C0E741F04001C5E787
:102F500041F02001CAE721F01001CFE741F008015C
:102F6000D4E741F00401D9E710B586B00446142136
:102F70006846FDF7A7F926492068884246D12548CA
:102F8000016841F400510160016801F400510591AC
:102F9000016841F080610160016801F08061059184
:102FA000016841F000710160006800F00070059058
:102FB00018481038016841F00201016000680221E0
:102FC000002200F002000590032309244FF4405032
:102FD0008DE81F001048694600F032FA00223F20B9
:102FE000114600F0D7FD3F2000F0C6FD0022402032
:102FF000114600F0CFFD402000F0BEFD0022412030
:10300000114600F0C7FD412000F0B6FD06B010BD2E
:103010000068004040380240000402407047000051
:1030200010B572B6144B0021144A02F13400FFF7B8
:1030300093FD124812490088020A0A760E4A487621
:10304000022014180B18401C14F8024C0A281C7695
:10305000F7DB91ED040BB0EE001BB4EE410BF1EE8B
:1030600010FA01D1FEF7F0FA06484FF4806100F043
:10307000D8FA62B610BD0000020000204C0F0020FC
:10308000A00C0020000C0240704770477047000001
:1030900070B5044690F82000012804D0606A40F41E
:1030A0000020606218E0022084F820002068016897
:1030B00021F00101016000F0C1FA05460EE000BFF9
:1030C00000F0BCFA401B0A2808D9616A052041F4C7
:1030D0000031616284F82000012070BD20684068E2
:1030E000C007EDD1606270BD704770477047704790
:1030F00070477047704790F83510022903D080213F
:10310000416501207047052180F83510006801688D
:1031100021F0010101600020704700002DE9F84313
:1031200004464FF00009644B0820CDF800904FF49E
:103130001652A56D94F85C101B682E68B3FBF2F76D
:1031400000FA01F131420FD021680A6852070BD50D
:103150000A6822F004020A6094F85C108840A860B3
:10316000606D40F00100606594F85C104FF001085C
:1031700008FA01F0304208D021684969090604D5EF
:10318000A860606D40F00200606594F85C10042057
:103190008840304208D021680968890704D5A860B2
:1031A000606D40F00400606594F85C101020884069
:1031B000304218D021680968090714D5A860206832
:1031C0000168490304D50068000308D5A16C07E035
:1031D0000168C90503D4016821F008010160216C70
:1031E00009B12046884794F85C102020884030427E
:1031F00031D021680968C9062DD5A86094F835003A
:1032000005282068016806D0490347D500680003F7
:103210001DD4616C1CE021F0160101602068416939
:1032200021F080014161206C08B9A06C20B12068B8
:10323000016821F00801016094F85C303F229A4057
:10324000AA6084F8349084F83580216D1FE0E16B2A
:1032500009B120468847606D00282BD0606DC007FB
:1032600014D0052084F835002068016821F00101A0
:1032700001600098401C0090B84203D820680068A4
:10328000C007F6D184F8349084F83580E16C0029C9
:1032900010D001B02046BDE8F04308470168C905D9
:1032A000D5D4036823F01003036084F8349084F8C5
:1032B0003580CCE7BDE8F883440000202DE9F047D5
:1032C000044600F0BBF9054664B14FF0000984F8EC
:1032D0003490022184F835102068016821F0010142
:1032E00001600EE00120BDE8F08700BF00F0A6F904
:1032F000401B052805D920216165032084F835008D
:10330000F1E720680068C007F0D1D4E90020D4E9D3
:103310000251D4E9043C284304F118051943084339
:10332000116895E8E00140EA0C001C4B2843194065
:1033300040EA060040EA0700B8F1040F40EA010045
:1033400003D1D4E90B131943084310602068012608
:10335000656A4069042D20F0070045EA00050CD19C
:10336000D4E90A01054341B12046FDF79BFB20B19A
:103370004020606584F83560B4E7206845612046E8
:10338000FDF77CFB94F85C303F229A408260C4F8E1
:10339000549084F835600020A5E700003F8010E0DD
:1033A0002DE9F041044690F8340000250128A66D6F
:1033B0000ED094F835C00127002084F83470BCF199
:1033C000010F07D0022584F834002846BDE8F081BB
:1033D0000220FBE7022784F8357060652046FDF780
:1033E0008BFB94F85C103F208840B0602068016837
:1033F00041F0160101602068416941F0800141619E
:10340000206C20B12068016841F00801016020684B
:10341000016841F001010160D7E7000070B5044682
:1034200000F00CF90546601C02D004480078044402
:1034300000F004F9401BA042FAD370BD3800002010
:103440002DE9F84FDFF89CE100224FF001084FF022
:10345000030B4FF00F0A00BF0B6808FA02F4234079
:10346000A34271D14D68022D01D0122D0FD1D50884
:103470000E69570700EB8505A9462D6AFF0E0AFA6B
:1034800007FCBE4025EA0C052E43C9F820600F79E1
:10349000550006680BFA05FC07F0030726EA0C0640
:1034A000AF40374307604E68012E05D0022E03D08F
:1034B000112E01D0122E0ED18668CF6826EA0C0696
:1034C000AF403743876046680F79A643C7F30017BC
:1034D000974037434760C4688E6824EA0C04AE40C6
:1034E0002643C6604C68E40075D53F4C256845F41A
:1034F00080452560246822F00306950704F4804483
:1035000000943A4C2D0F2644D6F80848DFF8E0C066
:103510000AFA05F7604524EA070401D100272EE0E6
:10352000344FB84201D1012729E0334FB84201D1CD
:10353000022724E0314FB84201D103271FE0304F6A
:10354000B84202D104271AE045E02E4FB84201D11B
:10355000052714E02C4FB84201D106270FE02B4F6E
:10356000B84201D107270AE0294FB84201D1082704
:1035700005E0284FB84201D1092700E00A27AF40F3
:1035800027437546C6F808784E68DEF80040F60313
:1035900024EA030400D51C43124E2C60361D4D68EE
:1035A0003468AD0324EA030400D51C430D4F346096
:1035B00008374D683C68ED0224EA030400D51C433B
:1035C000084D3C600C354E682C68B60224EA0304B2
:1035D00000D51C432C60521C102AFFF43DAFBDE8FF
:1035E000F88F0000003C01404438024000300140A8
:1035F000000002400004024000080240000C0240AB
:10360000001002400014024000180240001C02405A
:1036100000200240002402400069084000D0012040
:103620007047426931EA020200D1090481617047A2
:103630000AB1816170470904FBE700000148806816
:10364000704700003800002030B590F84120202A53
:1036500024D190F84020012A20D0012380F8403066
:10366000242280F84120202300240268156825F0D8
:10367000010515600268156825F48055156002681B
:1036800015680D43156001680A6842F001020A607E
:1036900080F8413080F84040002030BD022030BD2D
:1036A00030B590F84120202A22D190F84020012AFC
:1036B0001ED0012380F84030242280F841202024AD
:1036C00000250268136823F0010313600268136881
:1036D00023F4706343EA0121116001680A6842F033
:1036E00001020A6080F8414080F84050002030BD5F
:1036F000022030BD7047704730B403689A6919687A
:10370000D243D40509D4CC43240606D4456C4FF4E7
:10371000807445F001054564DC6153050AD4CB4350
:103720001B0607D4446C4FF4806344F008044464DF
:103730000468E36192050AD4C943090607D4426CC0
:103740004FF4007142F0020242640268D161416CA0
:1037500011F00B0F02D030BC01F042BE30BC7047FC
:103760000268436B91691268002B00D018477047BC
:103770007047000070B5040004D094F841000025A3
:1037800010B106E0012070BD204684F8405000F0E2
:1037900063F9242084F841002068016821F00101C8
:1037A0000160D4E9001020F0706008612068816831
:1037B00021F400418160E06821680128A06806D0FA
:1037C00040F404408860E068022803D006E040F43A
:1037D0000040F7E721684FF400604860202120682E
:1037E000114A4368134343602068C26822F40042D0
:1037F000C26054F8106B0DCC104340EA0320F06017
:1038000054F81C3CD4E900021043186054F81C0D15
:10381000026842F001020260656484F84110256389
:1038200084F84250002070BD00800002704770474D
:1038300070477047704700002DE9FF4F83B0044682
:1038400090F841009A469346DDE91087DDF84890EC
:10385000202874D15FEA080014D09FB194F840008A
:1038600001286CD0012084F84000FFF7E7FE012218
:10387000064619230090D103204602F057FA00288B
:1038800071D103E04FF4007060646CE00025C4F86F
:103890002480222184F84110402084F8420065648D
:1038A0006785534665635A4604992046CDE90096DC
:1038B00002F0C0F810B184F8405054E0618DFF2749
:1038C00034484FF08078FF294FF0007A04D92785DB
:1038D0003A464346009005E0618D534621850090AD
:1038E00094F828202046049902F00AFA00224B4658
:1038F00004212046009602F019FAA0BB2068616AF4
:10390000406A0870606A401C6062208D401E81B26F
:103910002185608D401E6085608DD8B1D1B90022AF
:103920004B4680212046009602F000FAD8B9608DFF
:10393000FF2805D927853A464346009506E026E04C
:10394000608D53462085009594F8282020460499E0
:1039500002F0D6F9608D0028C8D13246494620468B
:1039600002F011FA18B1012007B0BDE8F08F21680C
:103970002020094AC86121684B6813404B6084F8D5
:10398000410084F84250002084F84050ECE70220C7
:10399000EAE700000024008000E800FE2DE9FC4773
:1039A000044690F8410098469146DDE90A758A463A
:1039B00020284BD11FB315B320688069C043000491
:1039C00044D594F84000012840D0012084F84000FC
:1039D0002434FFF733FE00262122627740211C4A5F
:1039E0002760A1772662E580A260E28819492161FB
:1039F000243CFF2A07D9FF214FF0807506E04FF4E1
:103A0000007060640FE0618D4FF000752185192111
:103A1000CDE9001043464A465146204602F03CF8A4
:103A200020B184F840600120BDE8FC8700962B4659
:103A300094F828205146204602F062F901212046E0
:103A400084F8406001F048FC0020EDE70220EBE73D
:103A50000000FFFF0D59000810B586B00446142180
:103A60006846FCF72FFC1A49206888422DD1194876
:103A7000016841F00201016000681221012200F09A
:103A800002000590C020032304248DE81F00124883
:103A90006946FFF7D5FC0F481030016841F400116A
:103AA000016000680022114600F4001005901F20FC
:103AB00000F070F81F2000F05FF80022202011466F
:103AC00000F068F8202000F057F806B010BD0000A4
:103AD00000540040303802400004024070477047F4
:103AE00002488168027811448160704738000020E4
:103AF000032010B500F06EF8002000F005F800F08B
:103B000023F8002010BD000070B50D4D04464FF4A1
:103B10007A700C4A29781268B0FBF1F0B2FBF0F031
:103B200000F0C2FD48B9102C07D200222146501ED9
:103B300000F030F800206C6070BD012070BD000006
:103B400038000020440000200A4808B5016841F010
:103B500080510160006800F0805000900548001D11
:103B6000016841F480410160006800F480400090E9
:103B700008BD000040380240002809DB410900F080
:103B80001F028900012001F1E0219040C1F80001ED
:103B9000704700000E4BF0B41B680D46C3F30223C0
:103BA000C3F10706042E00D90426191D072901D2E6
:103BB000002300E0DB1E012404FA06F19C40491EAC
:103BC0002940641E994014402143F0BC03F09AB987
:103BD0000CED00E0064900F0070210B54FF6FF04B7
:103BE0000868044B204040EA02201843086010BDDA
:103BF0000CED00E00000FA051848F8B5016841F046
:103C0000805101600068164C00F0805000902068E0
:103C100040F480302060FFF711FD4FF47A760546BE
:103C200005E000BFFFF70AFD401BB0420FD86068F7
:103C3000C003F7D5206840F400302060FFF7FEFC99
:103C4000054606E0FFF7FAFC401BB04201D903200D
:103C5000F8BD60688003F5D50020F8BD403802400B
:103C6000007000402DE9F84F04460078DFF82494F6
:103C70004FF000063746C0070ED0D9F8001021F4E7
:103C80000001C9F80010D9F80010626B1143C9F89F
:103C90000010606B00B90126FE4D206884350003DA
:103CA0000ED5E16B286820F4401008432860E06BD3
:103CB000B0F5801F01D010B102E0012600E001271D
:103CC00020684FF4800BC0020CD5216C286820F4CA
:103CD000400008432860206C584501D1012601E0CE
:103CE00000B901272068C10100D50126800666D5EC
:103CF000E8483830016841F0805101600068DFF821
:103D000098A300F080500090DAF8001041F4807120
:103D1000CAF80010FFF792FC804605E0FFF78EFC22
:103D2000A0EB080064287DD8DAF80000C005F5D5BE
:103D3000DFF8608308F16808D8F8000010F44070DC
:103D40002AD0218E01F44071814225D0D8F800108C
:103D5000D8F8002021F4407142F48032C8F80020E5
:103D6000D8F8002022F48032C8F80020C8F80010EB
:103D7000D8F80000C0070FD0FFF760FC824607E0CC
:103D8000FFF75CFCA0EB0A0141F288308142CAD8FF
:103D9000D8F800008007F3D5206BC0F30121032978
:103DA0007ED0D9F8001021F4F811C9F80010228E45
:103DB000D8F80010C2F30B021143C8F800102078A5
:103DC000C00607D5286820F0807028602868A16B9D
:103DD000084328602188AF488830490405D5626EC1
:103DE000016821F44031114301602188090405D59F
:103DF000A26E016821F44021114301602168C903CA
:103E000005D5E26E016821F440111143016021687B
:103E1000890305D5226F016821F440011143016037
:103E2000217800E034E1490605D5626C016821F093
:103E30000301114301602178090605D5A26C0168D0
:103E400021F00C01114301602188C90505D5E26C00
:103E5000016821F03001114301602188890505D5F1
:103E6000226D016821F0C0011143016021884905DC
:103E700005D5626D016821F440711143016021880C
:103E8000090505D5A26D016821F440611143016067
:103E90002188C90407D5E26D016821F4405100E092
:103EA0005FE0114301602188890405D5226E016815
:103EB00021F44041114301602168490205D5A26FF8
:103EC000016821F080611143016021684FF0006AB0
:103ED000890209D5E26F016821F000611143016098
:103EE000E16F514500D1012721680A0700D501275C
:103EF000490305D5626F016821F0407111430160EB
:103F00002168090206D5D4F88020016821F080518B
:103F1000114301602168490106D5D4F88420016865
:103F200021F00051114301602068000106D5D4F84A
:103F30008810286820F00070084328602068C000BE
:103F400006D5D4F88C10286820F0806008432860DB
:103F5000DFF84891012E0ED02068B0F1007F0AD022
:103F60008FE04F4AD9F80030104023F4F812024392
:103F7000C9F800201BE7D9F800004E4620F0806009
:103F8000C9F80000FFF75AFB804605E0FFF756FB33
:103F9000A0EB080064287BD830680001F6D42178B3
:103FA0003C487C30C90712D0616B81B9237A6268C2
:103FB0000168D0F800C09201C1F3014142EA014218
:103FC000CCF3036142EA016141EA037101602168B7
:103FD0000A0303D5E26BB2F5801F04D0C9021AD5DB
:103FE000216C594517D16368016894F80CC00268C8
:103FF0009B01C1F3014143EA0141C2F3027241EA6C
:104000000C6141EA027101602968626A21F01F01B6
:10401000521E114329602168C90110D5238A6268A4
:104020000168D0F800C09201C1F3036142EA034283
:1040300042EA0162CCF3027142EA01710160216837
:1040400089010CD56168228A237B94F808C0890114
:1040500041EA024141EA036141EA0C7101603168C1
:10406000B04641F080613160FFF7E8FA064604E0AF
:10407000FFF7E4FA801B64280AD8D8F80000000192
:10408000F6D5E7B3D9F800004E4620F0805009E09D
:104090007BE0000008380240007000400038024019
:1040A000FFFCFF0FC9F80000FFF7C8FA074604E05D
:1040B000FFF7C4FAC01B642867D83068C04380008B
:1040C000F6D5216835480A0301D5E26B1AB1C90259
:1040D0001DD5216CD9B963690168277E02689B01EF
:1040E000C1F3014143EA0143C2F3027143EA0762AB
:1040F00042EA0171016029686FF0FF0300E04BE0C4
:10410000A26A21F4F85103EB0222114329602168CD
:10411000890212D5E16F51450FD1238C6269016884
:1041200007689201C1F3036142EA034242EA016275
:10413000C7F3027142EA017101602178090716D5BF
:1041400061690268D0F800C08B01277FC2F3036267
:10415000CCF3014143EA014141EA026141EA0771BE
:1041600001602868E16A20F4403008432860306824
:1041700040F080503060FFF761FA044608E000BF6D
:10418000FFF75CFA001B642802D90320BDE8F88F12
:104190003068C0438000F3D40020F7E7883802403D
:1041A0002DE9F04705000F4663D0444E306800F01B
:1041B0000F00B84209D2306820F00F003843306059
:1041C000306800F00F00B84253D128683C4C81079A
:1041D00012D5400703D5206840F4E05020602878CD
:1041E000000703D5206840F460402060A96820687B
:1041F00020F0F000084320602878C0072AD030491A
:1042000068680839012810D00968022810D0890789
:1042100000292EDA216821F0030101432160FFF714
:104220000DFA804641F288390DE009688903EFE70D
:104230008901EDE7FFF702FAA0EB0801494502D931
:104240000320BDE8F0876868216801F00C01B1EB3C
:10425000800FEFD1306800F00F00B8420BD9306802
:1042600020F00F0038433060306800F00F00B84293
:1042700001D00120E5E72878400705D5E9682068E6
:1042800020F4E050084320602878000706D528690C
:10429000216821F4604141EAC000206000F036F856
:1042A0002168084AC1F30311515CC84006490860FF
:1042B0000020FFF729FC0020C3E70000003C02407B
:1042C000083802405077000844000020044905489F
:1042D00009680068044AC1F38221515CC8407047F4
:1042E000083802404400002060770008044905486F
:1042F00009680068044AC1F34231515CC840704704
:10430000083802404400002060770008154910B5C5
:104310001548096811F00C0213D04110042A0FD07F
:10432000082A0ED10F4C241F2268236802F03F0296
:104330005B0207D52068C0F38810A0FB010106E0EE
:10434000084610BD2168C1F38811A1FB00010023BC
:10435000FBF76EFF2168C1F30141491C4900B0FB26
:10436000F1F010BD083802400024F4002DE9F84FA8
:1043700005004FF000076ED02878DFF82093A9F1F0
:10438000040AC007AAF104044CD0D9F8001048462A
:10439000C1F38101012908D00068C0F3810002281F
:1043A0000AD1DAF80000400206D52068800339D52A
:1043B00068680028DFD035E06868B0F5803F0BD032
:1043C00010B1B0F5A02F11D0206820F4803020600B
:1043D000206820F4802002E0206840F480302060D3
:1043E000686890B1FFF72AF906460AE0206840F4B1
:1043F00080202060F0E700BFFFF720F9801B6428D1
:1044000072D820688003F7D50CE0FFF717F906464D
:1044100005E000BFFFF712F9801B6428F0D8206880
:104420008003F7D42878800742D5D9F80010484691
:1044300011F00C0F08D00068C0F3810002280BD1E6
:10444000DAF80000400207D42068800718D5E86831
:10445000012800D114E01EE1E8680028206817D088
:1044600040F001002060FFF7E9F8064605E000BFD4
:10447000FFF7E4F8801B0228C2D820688007F7D530
:104480002869216821F0F80141EAC00020600FE0AE
:1044900020F001002060FFF7D1F8064605E000BFDC
:1044A000FFF7CCF8801B02281ED820688007F7D4BD
:1044B0002878000729D5794869696C300029804639
:1044C000016812D041F001010160FFF7B7F806461C
:1044D00005E000BFFFF7B2F8801B022804D8D8F827
:1044E00000008007F6D510E089E021F001010160AD
:1044F000FFF7A4F8064604E0FFF7A0F8801B0228A7
:104500007DD8D8F800008007F6D4287840076BD50E
:10451000DFF8888108F13808D8F80000C0000BD413
:10452000D8F8001041F08051C8F80010D8F8000009
:10453000012700F08050009059480168C90512D445
:104540000168834641F480710160FFF777F8064601
:1045500005E000BFFFF772F8801B64284FD8DBF836
:104560000000C005F6D54D4EA868683601280AD06F
:1045700008B1052811D0306820F0010030603068A3
:1045800020F0040002E0306840F001003060A868CC
:10459000A0B1FFF753F883460CE0306840F0040008
:1045A0003060F0E7FFF74AF8A0EB0B0141F28830EA
:1045B000814268D830688007F4D50EE0FFF73EF8F6
:1045C000834607E0FFF73AF8A0EB0B0141F2883091
:1045D000814258D830688007F4D42FB1D8F8001041
:1045E00021F08051C8F80010A869E0B3D9F8001094
:1045F000C1F3810102294ED00228206800E042E088
:1046000020F08070206003D0FFF718F805463DE0E9
:10461000FFF714F8064604E0FFF710F8801B0228A5
:1046200031D820688001F7D4D5E90921DFF874C0BA
:10463000D5E9070695F830304F0895F82C1030432F
:104640000CEB074545EA8212104340EA016040EA5C
:104650000370CAF80000206840F080702060FEF708
:10466000EDFF054605E014E0FEF7E8FF401B0228D9
:1046700009D820688001F7D50BE000BFFEF7DEFF08
:10468000401B022802D90320BDE8F88F2068800172
:10469000F4D40020F8E70120F6E7000008380240D3
:1046A000007000400000FFFF401EB0F1807F10B599
:1046B00001D3012010BD4FF0E02460610F2160178D
:1046C00002F020FC0020A0610721216110BD70478D
:1046D000704770472DE9F04390F83C20012A42D002
:1046E000012280F83C2051F80C4BDFF880804FF01D
:1046F000000991E8680051E9022723F44073B1F8FA
:104700000CC03B43CF6923F480631343026823F456
:104710000063234323F4805343EA050323F4005347
:1047200043EA060323F4804343EA07030C3923F4E6
:104730007023424543EA0C4302D00D4CA2420CD1F7
:104740008D8C23F47006D1E9073446EA055121F037
:104750008071194321F000732343536480F83C9027
:104760000020BDE8F0830220FBE7000000000140CC
:104770000004014070B590F83C20012A24D0134C6D
:10478000012580F83C50022280F83D2002685368E1
:10479000A242966802D00E4CA24203D14C6823F488
:1047A000700323430C6823F0700389681C43546032
:1047B000002326F0800602683143916080F83D5066
:1047C00080F83C30184670BD022070BD00000140EA
:1047D0000004014010B5040003D094F83D0010B16E
:1047E00007E0012010BD002084F83C00204600F0C6
:1047F0000DF8022084F83D002068211D01F026FFFD
:10480000012084F83D00002010BD000008B50068BC
:104810000B49884212D10B48016841F01001016038
:1048200000680022114600F0100000903620FFF7CB
:10483000B1F9BDE808403620FFF79EB908BD000079
:1048400000100040403802400168094ACB6843F03C
:104850000103CB60016888681040062806D0B0F5D7
:10486000803F03D0086840F00100086000207047D6
:1048700007000100704770B5044600680025016913
:10488000C943890715D4C168C943890711D4EA1EF1
:10489000026101212177206880698007204602D0CB
:1048A000FFF7E8FF04E000F020F9204600F004FAEA
:1048B000257720680169C943490717D4C168C943EE
:1048C000490713D402216FF00402026121772068A6
:1048D000806910F4407F204602D0FFF7CBFF04E050
:1048E00000F003F9204600F0E7F925772068016918
:1048F000C943090716D4C168C943090712D4042162
:104900006FF00802026121772068C06980072046A5
:1049100002D0FFF7AFFF04E000F0E7F8204600F018
:10492000CBF9257720680169C943C90617D4C16846
:10493000C943C90613D408216FF010020261217720
:104940002068C06910F4407F204602D0FFF792FF34
:1049500004E000F0CAF8204600F0AEF925772068A0
:104960000169C943C90708D1C168C943C90704D14E
:10497000891E0161204600F0C7F920680169C9431A
:10498000090609D4C168C943090605D46FF080013E
:1049900001612046FFF79CFE20680169C943C905F3
:1049A00009D4C168C943090605D46FF48071016157
:1049B0002046FFF78CFE20680169C943490609D4E7
:1049C000C168C943490605D46FF040010161204622
:1049D00000F0CEF920680169C94389060BD4C1688B
:1049E000C943890607D46FF0200101612046BDE864
:1049F0007040FFF76EBE70BD30B587B0044614211D
:104A00006846FBF75FFC24680021184D0220164A17
:104A10000123AC4211D1146844F0100414601268F0
:104A200002F0100205924FF4C4420092CDE9010158
:104A3000CDE903130E48694612E0B4F1804F11D15D
:104A4000146844F001041460126802F00102059237
:104A50000A220092CDE90101CDE903130548694618
:104A6000FEF7EEFC07B030BD3038024000000140D8
:104A7000001002400000024070B5044690F83C006F
:104A800001280ED0012584F83C50022084F83D0016
:104A90000C2A19D007DC5AB1042A0DD0082A1ED1DD
:104AA0000EE0022070BD102A12D0142A17D113E094
:104AB000206801F03FFE12E0206801F075FE0EE074
:104AC000206801F0ADFE0AE0206801F0E5FE06E096
:104AD000206801F00DFF02E0206801F035FF0020A2
:104AE00084F83D5084F83C0070BD704710B5040058
:104AF00003D094F83D0010B107E0012010BD002064
:104B000084F83C00204600F00CF8022084F83D00B8
:104B10002068211D01F09AFD012084F83D0000204D
:104B200010BD704770B5044690F83C000D46012852
:104B30000ED0012684F83C60022084F83D000C2A47
:104B400045D007DC5AB1042A1BD0082A78D12CE0C2
:104B5000022070BD102A4ED0142A71D15DE0206869
:104B600001F0E8FD2068816941F008018161206859
:104B7000816921F00401816120682A6981691143FA
:104B800011E0206801F010FE2068816941F40061A5
:104B900081612068816921F48061816120682969CF
:104BA000826942EA012181614AE0206801F038FE11
:104BB0002068C16941F00801C1612068C16921F024
:104BC0000401C16120682A69C169114311E02068AC
:104BD00001F062FE2068C16941F40061C161206892
:104BE000C16921F48061C16120682969C26942EA12
:104BF0000121C16124E0206801F07AFE2068416D46
:104C000041F0080141652068416D21F004014165D2
:104C100020682A69416D114311E0206801F094FE7B
:104C20002068416D41F4006141652068416D21F4C7
:104C30008061416520682969426D42EA0121416530
:104C4000002084F83D6084F83C0070BD10B504007D
:104C500003D094F83D0010B107E0012010BD002002
:104C600084F83C00204600F00DF8022084F83D0056
:104C70002068211D01F0EAFC012084F83D0000209D
:104C800010BD000008B500680949884201D10948F3
:104C900004E0B0F1804F09D10648001F016841F0DF
:104CA00001010160006800F00100009008BD0000F3
:104CB00000000140443802407047000010B5012256
:104CC0000446006801F028FD0C492068884202D0A3
:104CD0000B49884203D1416C41F400414164206892
:104CE000084A81681140062906D0B1F5803F03D0FB
:104CF000016841F001010160002010BD0000014089
:104D0000000401400700010070B572B60068154943
:104D1000884224D1144C6068401C6060A068401C2C
:104D2000A060E068401CE060FCF7C6F86068002501
:104D3000322804DB207808B1FCF7E6FE6560A06845
:104D4000B0F5FA7F05DB09484FF40071FEF769FC06
:104D5000A560E068322802DBFCF7C4FFE56062B6BC
:104D600070BD00000010004014000020000C024044
:104D7000704770472DE9F041026804460025D0696C
:104D80001168936810F00F0F5BD003F0010601F477
:104D90009077374369D0C70707D0CF0505D50127DE
:104DA0001762E26F42F00102E267820708D5DA0774
:104DB00006D0276802223A62E26F42F00402E267FC
:104DC000420708D5DA0706D0236804221A62E26F88
:104DD00042F00202E26702070AD501F020023243E4
:104DE00006D0236808221A62E26F42F00802E267E6
:104DF000E26F002A32D0800605D5880603D5216EE1
:104E000009B1204688472168E06F8968490601D4C6
:104E1000000725D5204601F094FE206881684906E8
:104E200019D5816821F040018160E06E98B11A497E
:104E30000165E06EFEF75FF900280FD0E06E016DAE
:104E400006E0830611D58B060FD5216E12E02046B1
:104E5000BDE8F04108472046FFF78BFFBDE8F08131
:104E60002046FFF786FFE567F8E7030605D50B0642
:104E700003D5616E0029EAD1F0E74006EED5480679
:104E8000ECD513682021204623F0400313606167AE
:104E9000656600F0D1F9E1E7B16A000810B50400D9
:104EA00002D0606F10B107E0012010BD002084F82F
:104EB0007000204600F026F8242060672068016812
:104EC00021F001010160204601F0AEFE0128ECD086
:104ED000606A10B1204601F069FD2068416821F444
:104EE000904141602068816821F02A01816020683A
:104EF000016841F0010101602046BDE8104001F069
:104F0000B9BD000070B586B0064614216846FBF7AF
:104F1000D9F92249306888423ED12148016841F4DC
:104F200000210160006800F4002005901C48103842
:104F3000016841F00401016000680025022100F0D1
:104F4000040005904FF4406008238DE823000322FD
:104F50001448CDE903236946FEF772FA124C402249
:104F600012484FF0006184E8270003152046C4E989
:104F70000435A561E56125626562FEF79FF908B118
:104F8000FBF770FE0022B46634201146A663FEF7DC
:104F900001FE3420FEF7F0FD06B070BD004C00406D
:104FA0004038024000080240541100207060024066
:104FB00070B5836F202B4BD1B9B1B2B190F870307E
:104FC000012B45D08368012680F87060002441657C
:104FD00035030466AB42A0F85820A0F85A204FF0E1
:104FE000FF0107D1026912B126E0012070BD40F235
:104FF000FF1121E04FF07F02E3B1B3F1805F1ED0DB
:10500000A0F85C402221C467816701688A6842F089
:1050100001028A608168A94201D10169B1B10D49DB
:10502000016680F870400068016841F49071016089
:10503000002070BD036933B9A0F85C10E2E7016994
:1050400009B13F21F8E7A0F85C20DBE70249E7E778
:10505000022070BDCD6B0008736B00082DE9F0478E
:1050600072B64B4C00264B4A4FF00109651C237861
:1050700043B14948012B494F4FF4006109D0022B3D
:1050800021D034E068782870A87868701078A8700B
:105090002DE05FF00003267012F803C007F803C08C
:1050A0005B1C0A2BF8DBFEF7BCFAC4F8109097EDF6
:1050B000040BB7EE001BB4EE410BF1EE10FA16D163
:1050C000FCF7C2FA13E0334B26700A335FF000029C
:1050D00007EB020813F802C0521C142A88F848C0D3
:1050E000F6DBFEF79EFAC4F81090FCF7B5FE2849EF
:1050F0000322491CC81CFBF7F0F8B8B1244903226D
:10510000491CC81DFBF7E9F8F0B121490322491CED
:1051100001F10B00FBF7E1F828B31E49012201F170
:105120002000FFF745FF62B6BDE8F08719490A2263
:1051300084F8009001F12000FFF73AFF00202E5480
:10514000401C0328FBDBEEE71249022014222070EA
:105150000A3101F11600FFF72BFF00202E54401CEE
:105160000328FBDBDFE70E482670017869B10021D8
:1051700001700849012201F12000FFF719FF00200A
:105180002E54401C0328FBDBCDE70121F0E7000093
:1051900024000020B4100020000C0240A00C0020CD
:1051A0001400002070B50446406F20283BD161B345
:1051B0005AB394F87000012835D0A4F85020A4F810
:1051C00052200025A06E0123E164212184F8703073
:1051D000E5676167D8B115491346C163A16E1448EC
:1051E0000864A16E1348C864A06E05652068A66EA9
:1051F00000F12802E16C3046FEF7D2F838B11021F8
:10520000E167202084F870506067012070BD21683C
:105210004020086284F870502068816841F0800165
:105220008160002070BD022070BD00000B6B000883
:10523000396B0008C56A000870477047FEE7000038
:105240000148FEF759BA0000A80F00200148FEF7F8
:1052500087BA0000A80F002010B5806B0021826B78
:105260001165C26B116590F84110602902D0FEF7FC
:105270007FFA10BD202180F84110FEF73BFA10BDE7
:10528000CA074FF028034FF0000210B506D090F87F
:105290004140422233EA040400D0F2228C0707D5B1
:1052A00090F8414042F04402A34301D042F0B002E2
:1052B0004B0701D542F0B80211238B4301D142F0D4
:1052C000900212238B4301D142F060020068016812
:1052D0009143016010BD000030B5144D1223446BA2
:1052E00000228B43AC4202D0114DAC420BD14C0793
:1052F00000D5B82211248C4301D142F0900283B929
:1053000042F060020DE04C0700D5B822CC0701D076
:1053100042F0F202890701D542F0F4020BB942F0E3
:105320002002006801681143016030BDFD5700088C
:10533000FD5A000801688A69D243920701D400220D
:105340008A6200688169C943C90703D0816941F055
:105350000101816170472DE9F041044690F8410058
:105360002821002508238143206804D0C36184F8E4
:105370004050BDE8F081876986694FF0FE0E816874
:10538000C268C7F30047D4F80CC00EEA164602F014
:10539000FE02BCF1020FC1F3090118D14FF0060C57
:1053A00006F006060CEAD11C66450FD1A66C0A462B
:1053B000761CA664A16C0229DBD1A564C36184F8C4
:1053C000405039462046FEF796F9D2E71646204669
:1053D0000421FFF755FF324684F84050F1E7000002
:1053E00070B5344A0025044690F84100202684F820
:1053F0004250E2626585626C282842EA01026264DA
:1054000025D0292823D02A2821D007212046FFF79C
:1054100037FF94F84100602801D084F8416025638B
:105420006563206824490268520402681AD522F490
:1054300080420260A06B002833D0016584F84050A0
:10544000A06BFDF758FE00282BD0A06B1CE00321B9
:105450002046FFF715FF19492820616384F84100B1
:105460002563DEE7120413D5026822F400420260CD
:10547000E06B002815D0016584F84050E06BFDF723
:105480003AFE00280DD0E06B016DBDE87040084782
:1054900094F84100602805D0204684F84050FEF77B
:1054A00067F970BD84F84160204684F84050FEF7EB
:1054B00021F970BD0000FFFF59520008DD5B0008B4
:1054C00070B50446164AC843002541074FF0200036
:1054D000E262256384F8410084F84250656311D488
:1054E0002068616A406A0870606A401C6062208DB2
:1054F00040B1618D401E2085491E6185606C40F081
:105500000400606407212046FFF7BAFE21681020DE
:10551000C861204684F84050FEF788F970BD00004D
:105520000000FFFF2DE9F041044600682026002519
:10553000C943C6612068CB06274A284F416801EA63
:10554000020141602563E762656306D4216810208B
:10555000C861606C40F0040060642046FFF7EAFE1A
:1055600003212046FFF78CFE606C94F841106029FF
:1055700000D028B1616C2046BDE8F041FFF730BF94
:1055800094F84100212812D094F8410022280CD12F
:1055900084F8416094F8420084F842504028204644
:1055A00084F8405014D0FEF742F9BDE8F08184F849
:1055B000416094F8420084F842504028204684F824
:1055C000405002D0FEF734F9EFE7FEF733F9ECE78D
:1055D000FEF72FF9E9E7000000E800FE0000FFFFFA
:1055E00070B504460025202084F8425094F84110FC
:1055F00021290ED0122184F8410021630221204686
:105600006563FFF73DFE204684F84050FEF70FF932
:1056100070BD112184F8410021630121204665639A
:10562000FFF72EFE204684F84050FEF701F970BDCA
:105630002DE9F0410446006820270E460568C76141
:1056400007212046FFF71CFE20683349426842F4D8
:1056500000424260206842680A4042602046FFF7EC
:1056600069FEE843410401D4A06B02E0000404D4C5
:10567000E06B10B1006840686085F04340070FD4CC
:10568000206826F00406616A406A0870606A401C5F
:105690006062208D20B1618D401E2085491E61858C
:1056A000608D18B1606C40F00400606400252563D3
:1056B00084F84250606C656368B1616C2046FFF706
:1056C0008FFE94F84100282814D131462046BDE8C9
:1056D000F041FFF7F5BEE06A104EB0420CD0204614
:1056E00000F01EF8E66284F84170204684F84050CD
:1056F000FEF79CF8BDE8F08194F8410084F8417011
:105700002228204684F8405002D0FEF7E8F9F1E75D
:10571000FEF7E4F9EEE7000000E800FE0000FFFFFE
:1057200070B504460025282084F8425094F84110B2
:10573000292911D094F841102A290CD1222184F86A
:105740004100216302212046FFF79AFD204684F89C
:105750004050FEF7C3F970BD212184F84100216358
:1057600001212046FFF78CFD204684F84050FEF7CB
:10577000B6F970BD2DE9F0410446006890460E462A
:105780008069C043C00635D4002520272068806981
:10579000C043800616D5701CF8D0FDF74FFFA0EB74
:1057A0000800B04201D8002EF0D1606C84F840505F
:1057B00040F02000606484F8417084F84250012079
:1057C000BDE8F08121681020C8612068C7612046CB
:1057D000FFF7B0FD2068084942680A404260606CEB
:1057E00040F00400606484F8417084F8425084F80A
:1057F0004050E4E70020E3E700E800FEF8B5044687
:1058000090F8400001281AD0CB43012584F840507D
:10581000DE064FF000056FEA020012D4C20610D473
:1058200021681020C861606C40F00400606412219F
:105830002046FFF751FD2046FFF77CFD60E0022087
:10584000F8BD314A1E0639D4460637D420680168AF
:1058500021F040010160608D002820682AD0416855
:10586000608DFF28C1F3090104D9FF2020854FF086
:10587000807308E0608DE36A2085934201D0E36A7B
:1058800001E04FF00073009594F82820204600F0C6
:1058900037FA608D218D401A608594F841002228E6
:1058A0002068016803D041F48041016028E041F4A0
:1058B0000041FAE74068800117D505E05E0618D47C
:1058C000460616D4608D20B140212046FFF788FDA2
:1058D00016E020684168890112D4E16A914204D13E
:1058E000416841F4804141600AE02046FFF778FEBC
:1058F00006E09A0604D4800602D42046FFF712FE82
:10590000002084F84050F8BD0000FFFFF8B50446C1
:1059100090F840000E46012816D0F0434FF00007E3
:10592000012184F84010C3066FEA02050ED4E9068F
:105930000CD421681020C861606C40F004006064E1
:105940002046FFF7F7FC55E00220F8BD410708D4D8
:10595000690706D4206826F00406616A406A087068
:1059600007E081070FD4A9070DD4606A2168007889
:105970008862606A401C6062208D401E2085608DB8
:10598000401E608536E02A4A010629D4690627D4DC
:10599000608D08B1208D20B120684068800142D51B
:1059A00024E020684168608DFF28C1F3090105D912
:1059B000FF2222854FF0807300970DE0608DE36A2F
:1059C00020850097934294F8280002D0E36AC2B27F
:1059D00002E04FF00073C2B2204600F091F909E0F6
:1059E000400607D4680605D4608D80B1402120466A
:1059F000FFF7F6FCF043800605D4A80603D4314631
:105A00002046FFF78FFD002084F84070F8BD206825
:105A100041688901EED4E16A914204D1416841F4C0
:105A200080414160E6E72046FFF7DAFDE2E700004B
:105A30000000FFFF2DE9F843174604461548DAB287
:105A4000DDE908981E4600900023204600F058F932
:105A500042464946204600F0BDF9B8B9012EFDB2D4
:105A600008D02068390A816242464946204600F043
:105A7000B1F958B920688562002240214B46204682
:105A8000CDF8008000F052F9002800D00120BDE8D8
:105A9000F8830000002000802DE9F84304461648F2
:105AA00017461E46DAB20090C3022046DDE9089888
:105AB00000F026F942464946204600F08BF9B8B975
:105AC000012EFDB208D02068390A8162424649465B
:105AD000204600F07FF958B92068856200228021B5
