:020000040800F2
:10000000A01500200D020008496B0008E557000804
:10001000E16A0008590D0008F575000800000000AD
:10002000000000000000000000000000E96B000874
:100030003D0F000800000000D36B0008296C000889
:1000400027020008270200082702000827020008EC
:1000500027020008270200082702000827020008DC
:1000600027020008270200082702000827020008CC
:10007000270200082702000827020008810E000856
:1000800027020008270200081908000827020008B4
:10009000270200082702000827020008270200089C
:1000A000270200082702000827020008270200088C
:1000B000270200082702000827020008E957000865
:1000C000270200082702000827020008270200086C
:1000D000270200082702000827020008270200085C
:1000E000270200082702000827020008270200084C
:1000F000270200082702000827020008270200083C
:10010000270200082702000827020008270200082B
:100110008170000827020008216D000827020008EE
:100120008D0E000827020008270200082702000899
:10013000270200082702000827020008890D00088E
:10014000710D00087D0D0008270200082702000835
:1001500027020008270200082702000827020008DB
:1001600027020008270200082702000827020008CB
:1001700027020008270200082702000800000000EC
:1001800027020008270200082702000827020008AB
:10019000270200082702000827020008270200089B
:1001A000270200082702000827020008270200088B
:1001B000270200082702000827020008270200087B
:1001C000270200082702000800000000270200089C
:1001D000270200082702000827020008270200085B
:1001E000270200082702000827020008270200084B
:1001F0002702000827020008DFF80CD000F09CF866
:1002000000480047B9790008A0150020064880473B
:1002100006480047FEE7FEE7FEE7FEE7FEE7FEE7EB
:10022000FEE7FEE7FEE7FEE7CD6C0008F9010008F7
:100230002DE9F05F0546002092469B46884606461B
:10024000814640241BE0284641464746224600F0AE
:1002500062F853465A46C01A914110D311461846C7
:10026000224600F049F82D1A67EB01084F46224656
:100270000120002100F040F817EB00094E41201E3C
:10028000A4F10104DFDC484631462A464346BDE876
:10029000F09F40EA01039B0703D009E008C9121F41
:1002A00008C0042AFAD203E011F8013B00F8013B30
:1002B000521EF9D27047D2B201E000F8012B491E5C
:1002C000FBD270470022F6E710B513460A460446F3
:1002D0001946FFF7F0FF204610BD30B50546002057
:1002E000034600E05B1C934205D2EC5CC85C201A1C
:1002F00001D1002CF6D130BD202A04DB203A00FACF
:1003000002F1002070479140C2F1200320FA03F36C
:10031000194390407047202A04DB203A21FA02F06A
:100320000021704721FA02F3D040C2F1200291402F
:100330000843194670470000064C074D06E0E06888
:1003400040F0010394E8070098471034AC42F6D31C
:10035000FFF756FF80800008A080000810B51C88B9
:1003600014805C8854809C88948022F81100108846
:100370001880508858809088988010BD2DE9F04FE3
:10038000FC4D00244FF004094FF0020805F1AF0BBB
:100390004FF0010A2DED028B81B0B5F8DE09B5F8FA
:1003A000E61988425ED0B5F8E009B5F8E819884248
:1003B00058D05946684607F014F90020A5F86E4A4F
:1003C00000F04CFDB5F8E009062814D0032812D03F
:1003D00005281FD085F8A94B042885F8A84B85F877
:1003E000A74B2AD085F8A59BB5F8DE19A5F8E61924
:1003F000A5F8E80950E085F8A94B85F8A84B85F8E1
:10040000A74B85F8A59B07F0F5F901B0BDEC028B71
:10041000BDE8F08F85F8A94B85F8A84B85F8A5AB0A
:10042000B5F8DA19A5F8AE1AB5F8DE19A5F8E61987
:10043000A5F8E80985F8A78B11E085F8A58BB5F834
:10044000E219A5F8B21AB5F8DE19A5F8E619A5F86B
:10045000E80995F8AA0B0128D7D085F8AAABA5F82A
:100460006E4A19E0AC46C34D19279CF8A70B95F8C6
:10047000A93BB5F8AE6A0128B5F8DC29B5F8DA1958
:1004800005F580650DD00228BFD1B142604601D08C
:10049000012A7CD0ACF86E4A07F04EF907F030F92B
:1004A000B3E760469CF8A8CBBCF1010F09D0BCF1C2
:1004B000020FAAD180F8A84B80F8A78BA0F86E4A4B
:1004C000EAE7B14200D06AB181469FEDAB8BA94803
:1004D000062BB0F8B60A98D2DFE803F0030B97EAD0
:1004E000FEF992E7A0F8AE1A80F8A94B80F8A88B25
:1004F000E7E0012878D8B1424E4677D0022A75D17C
:100500000B2007F0A3F9B6F8D41988426EDCB6F8D0
:10051000DA190520A6F8AE1A86F8A90B0020A6F86D
:100520006E8A07F093F900EE100AB8EEC00B85ED65
:10053000CE0BB4EEC80BF1EE10FA29D2B5EEC00B1B
:10054000F1EE10FA07DBBCEEC00B10EE100A00BF94
:100550008DF8000001E08DF800409DF8000000F0EB
:100560007DFC022007F072F990FBF7F0C6F8100945
:10057000002007F06BF90446012007F067F9002C12
:1005800008DB6FF00041621A90420BDB09E0CEE01D
:10059000FF20DDE704F10041884202DD4FF0004119
:1005A00000E0211A6FF0004381FB07400022191B75
:1005B000824101DA1C4607E04FF00041611A70F1F8
:1005C000FF3001DA4FF00044022007F03FF900EE5F
:1005D000100AB8EEC01B00EE104AB8EEC00B80EE59
:1005E000012B85EDD02B5AE007E0FFE786F8A9AB99
:1005F000A6F86EAAA6F8B67A77E0401E00D50020CD
:10060000A9F8B60A07F098F8FFE601284AD8D9F801
:1006100010094E46002806DD012007F017F996F86C
:10062000931B884210DB002000F018FC59466846F6
:1006300006F0D7FF032186F8A91BA6F8B67A96F82C
:10064000871B86F8BE1B44E086F8A98B95EDCE0B80
:1006500095EDD01B30EE410B85EDCE0BB4EEC80B03
:10066000F1EE10FA61D2B5EEC00BF1EE10FA57DAE6
:1006700003E000BF8DF8000001E08DF800409DF818
:10068000000000F0EBFBD6F810094FF00041884263
:1006900002DCC6F8101902E0401EC6F81009A6F8E0
:1006A000B67AB2E6401E00D50020A9F8B60AACE63C
:1006B00099F8871B484605290BD380F8A94B89F880
:1006C000A88B5946684606F08CFF00204EE010E0EB
:1006D00002E006F0B1FF98E601284946E2D881F829
:1006E000A9ABA1F86EAAA9F8B67A642000F0B6FB0F
:1006F00088E701284E46D5D886F8A98B95EDCE0B14
:1007000095EDD01B30EE410B85EDCE0BB4EEC80B52
:10071000F1EE10FA09D2B5EEC00BF1EE10FAACDB37
:10072000BCEEC00B10EE100AA4E7FF20A2E7A0F871
:10073000AE1A042B9FED120B80F8A7AB5246A0F81F
:10074000B64A85EDCE0B85EDD00BC0F8104980F888
:10075000A8ABA6D0074980F8A99BA0F86E2AB031B3
:100760006846ACF8B67A06F04BFA642000F076FBE7
:100770004BE6000048000020000000000000704030
:10078000000000000000000010B50146806B026C04
:1007900012F0500F05D0026CD20626D502F0EBF90C
:1007A00010BD016C41F40071016401688A6812F0A7
:1007B000405F17D18269AAB9CA6A12F4700F02D0D9
:1007C0008A6852050ED44A6822F020024A60016C01
:1007D00021F480710164016CC90403D4016C41F0FF
:1007E0000101016402F0BCF910BD806BC26C0846C7
:1007F000BDE81040104710B5806B40210164416C8A
:1008000041F00401416402F0B6F910BD10B5806BEF
:1008100002F0B0F910BD0000014802F0ADB90000CF
:10082000240E00204A496FF0706210B5D1F80433ED
:1008300023F44033C1F80433D1F80433446823432C
:10084000C1F8043301684B6823F480734B6001687E
:1008500003694C6844EA03234B6001684B6823F04A
:1008600040734B60016884684B6823434B600168A8
:100870008B6823F400638B600168C4688B68234332
:100880008B60816AD14201688A6822F070628A6056
:1008900001680DD0836A8A681A438A6001688A6891
:1008A00022F040528A600168C36A8A681A4302E0F3
:1008B0008A6822F040528A6001688A6822F0020247
:1008C0008A60016882698B6843EA42028A6090F814
:1008D00020100029016811D01E4A4B6843F40063C0
:1008E0004B6001684B6823F460434B600168446AC5
:1008F0004B6802EB443213434B6003E04A6822F436
:1009000000624A600168144BCA6A22F47002CA622B
:100910000168848BCA6A03EB04531A43CA620168F4
:100920008A6822F400728A60016890F830208B682F
:1009300043EA42228A6001688A6822F480628A60FF
:10094000016840698A6842EA8020886010BD000022
:100950000020014000E0FFFF0000F0FF2DE9F04F14
:10096000DFF8E083022700244FF0010908F1AF0B04
:100970002DED028B81B0B8F8DE09B8F8E61988428F
:1009800062D0B8F8E009B8F8E81988425CD0594656
:10099000684606F026FE0020A8F86E4A00F05EFACF
:1009A000B8F8E009062815D0032813D0052821D06F
:1009B000042838D088F8AC4B042188F8AB4B88F871
:1009C000AA4B88F8A51BB8F8DE19A8F8E619A8F80C
:1009D000E8095CE088F8AC4B042088F8AB4B88F859
:1009E000AA4B88F8A50B06F005FF01B0BDEC028B01
:1009F000BDE8F08F88F8AC4B88F8AB4B88F8AA4B71
:100A000088F8A59BB8F8DA19A8F8AE1AB8F8DE1974
:100A1000A8F8E619A8F8E80998F8A70B0228E4D086
:100A200088F8A77B31E088F8AC4B88F8AB4B88F8A6
:100A3000A57BB8F8E229A8F8B22AB8F8DE29A8F808
:100A4000E629A8F8E80919E0BE4D192698F8AA2B5E
:100A5000012A95F8AC1BB5F8B2AAB5F8E439B5F897
:100A6000E20905F580650CD0022ABED198F8AB2BBF
:100A7000012A32D0022AB8D188F8AB4B88F8AA9B59
:100A800003E0504501D0012B06D0A8F86E4A06F0CD
:100A900053FE06F035FEA8E79FEDAB0BA8F8B20AAF
:100AA000042988F8AA7B4A46A8F8B84A85EDD20BF3
:100AB00085EDD40BC8F8144988F8AB9B95D0A149B3
:100AC000042088F8AC0B6846A8F86E2AB031A8F864
:100AD000B86A06F095F864201AE0B8F8DA29B8F890
:100AE000AECA624504D0B8F8DCC9BCF1000F0CD026
:100AF0009FED978B934A0629B2F8B82ACBD2DFE84C
:100B000001F0030A94E5F8F36FE7A8F8AE2AE1E0F4
:100B100000F0A4F969E7012A7ED8504577D0022B6E
:100B200075D10B2006F09AFEB8F8D41988426EDC15
:100B3000B8F8E2190520A8F8B21A88F8AC0B002022
:100B4000A8F86E7A06F08AFE00EE100AB8EEC00B26
:100B500085EDD20BB4EEC80BF1EE10FA28D2B5EE4B
:100B6000C00BF1EE10FA06DBBCEEC00B10EE100A63
:100B70008DF8000001E08DF800409DF8000000F0C5
:100B80006DF9022006F06AFE90FBF6F0C8F8140931
:100B9000002006F063FE0446012006F05FFE002CF4
:100BA000014607DB6FF00040221A91420ADB08E0A1
:100BB000FF20DDE704F10040814202DD4FF00040FC
:100BC00000E0601A6FF0004280FB06400021121B1B
:100BD000814102DA6FF0004407E04FF00041611AF2
:100BE00070F1FF3001DA4FF00044022006F036FECB
:100BF00000EE100AB8EEC01B00EE104AB8EEC00BB3
:100C000080EE012B85EDD42B57E005E0FFE788F857
:100C1000AC9BA8F86E9A72E0521E00D50022A8F88C
:100C2000B82A00BF06F088FDDFE6012A48D8D8F8C8
:100C30001409002806DD012006F010FE98F8931B29
:100C4000884210DB002000F009F95946684606F09A
:100C5000C8FC032188F8AC1BA8F8B86A98F8871B71
:100C600088F8BE1B42E088F8AC7B95EDD20B95ED81
:100C7000D41B30EE410B85EDD20BB4EEC80BF1EE78
:100C800010FA5DD2B5EEC00BF1EE10FA53DA02E0C5
:100C90008DF8000001E08DF800409DF8000000F0A4
:100CA000DDF8D8F814094FF00041884202DCC8F89A
:100CB000141902E0401EC8F81409A8F8B86A94E6AE
:100CC000521E00D50022A8F8B82A8EE698F8870BA5
:100CD00005280BD388F8AC4B5946684688F8AB7B9F
:100CE00006F07FFC002013E70FE002E006F0DAFCDC
:100CF0007BE6012AE4D888F8AC9BA8F86E9A6420B9
:100D0000A8F8B86A00F0AAF88CE7012AD8D888F8C1
:100D1000AC7B95EDD20B95EDD41B30EE410B85ED00
:100D2000D20BB4EEC80BF1EE10FA09D2B5EEC00B3F
:100D3000F1EE10FAAFDBBCEEC00B10EE100AA7E725
:100D4000FF20A5E748000020000000000000000090
:100D50000000000000007040FEE70000034801684A
:100D6000002008640C21014804F07EBA1C10002009
:100D7000014802F05EBA0000280F0020014802F08E
:100D800058BA0000280F0020014802F052BA0000B3
:100D9000280F00200A480E230021012230B44FF40E
:100DA0007854C0E90612C0E900418160C160C0E921
:100DB0000413C0E9082330BC0146024802F02AB9F6
:100DC000CC0E0020280F002010B5FFF7E3FF0848E5
:100DD000012102F0A1F80648022102F09DF8044822
:100DE000102102F099F8BDE81040014802F040BC23
:100DF000280F002008B564208DF80000684600F038
:100E000007F80248042104F02FFA08BDDC0F002087
:100E100001789FED0D2B00EE101A9FED0E1B0C4874
:100E2000B8EE404BD0ED030A016884EE023BB8EE09
:100E3000600B33EE011B21EE000BBDEEC00B10EE7C
:100E4000100A8863704700000000000000409F40C7
:100E5000DC0F00209A9999999999A93F064964282D
:100E600081F8930B00D36420C0F1640081F89E0BDD
:100E70000248FFF7CDBF000048000020E60B00202D
:100E8000014802F03BBC00003C110020014802F088
:100E900035BC00006C0E002001681823CAB2103A5D
:100EA000B2FBF3F2054B6FF30901032A9B5CC365A8
:100EB00000D9091D81650846704700006080000860
:100EC00010B583694FF0C074826A0146002053B1A7
:100ED000B3F5005F15D072B1012A0CD0022A0AD0F6
:100EE000032A09D104E01AB1012A06D0022A03D14B
:100EF000C96AC90100D5012010BDC96AA142FAD052
:100F000010BD002AF7D0012AF2D0022AF3D0032A1A
:100F1000F3D010BD30B50468256825F48025256020
:100F2000046863608368402B036803D0996000689D
:100F3000C26030BD9A600068C16030BD704700007B
:100F4000FEB500240D46102106460848224602F050
:100F50005FFE642034700121009501232246CDE913
:100F600001100348A02102F023FFFEBD000402404F
:100F7000500F0020FEB5157850220F781C460178DE
:100F80006426089B42EA111047EA01118DE86800C7
:100F9000CAB241000248012302F00AFF2070FEBDE0
:100FA000500F00202DE9FC470078174609785022A1
:100FB000DDE90A9842EA10140F4D41EA0010C6B26A
:100FC0000020195C2954401C1028FADB0B48002231
:100FD000102102F01DFE002188F800103878610011
:100FE00001233246CDE90050054802F093FF89F80D
:100FF0000000BDE8FC870000120E00200004024043
:10100000500F0020704700000121017002480A467D
:10101000022102F0FDBD0000000C02400121017020
:1010200002480A46082102F0F3BD0000000C02400D
:101030000021017002480A46022102F0E9BD0000C9
:10104000000C02400021017002480A46082102F00B
:10105000DFBD0000000C024070B505460C46084696
:1010600000F003F82078287070BD012101707047EE
:1010700000210170704770472DE9FF4F87B09946F6
:101080008A464178DDE91A54DDF850E0DDE9163B87
:10109000DDE9187604F1A50284F8A310511E90F83A
:1010A000028004F1A30C84F8A48090F8038084F8F3
:1010B000A58090F80080B8F1570F09D0B8F1520F11
:1010C0000DD0B8F14C0F12D0B8F1450F77D0BCE07D
:1010D000CDE900E3031D6046FFF764FFB5E004F1CE
:1010E0009300159B00906046FFF744FFADE004F1CC
:1010F0008300009004F1A6036046FFF73BFF94F8DD
:10110000A60094F8A71088426DD000200DF10801C8
:1011100004EB400292F8843092F8832003EB022221
:1011200021F81020401C0828F2DB94F8A3000128C5
:101130000CD002280AD0032808D005281AD0062887
:1011400018D0082832D0092830D04CE0C006000E54
:10115000C21F824200D900225FF0000050FA82FCD8
:1011600004EB4C0C31F81030401C08282CF8023CE1
:10117000F4DB38E0021F904200D20022D0B21F28D8
:1011800001D9F82205E0D006000EC21F824200D924
:101190000022002050FA82FC04EB4C0C31F8103095
:1011A000401C0828ACF82E30F4DB1CE0C21F904233
:1011B00000D20022D0B21F2802D9F82006E028E091
:1011C000D006020ED01F904200D900205FF000022E
:1011D00052FA80FC04EB4C0C31F81230521C082AF5
:1011E000ACF84E30F4DB002034F8101047F8201033
:1011F000401C1828F8DB002004EB4001B1F8502017
:1012000045F82020098E46F82010401C1028F3DBFA
:101210001BE009995C223846FFF73BF80021F9658D
:10122000316308467163B163C6F83C105AF8202058
:1012300046F8202059F8202045F82020401C0C2892
:10124000F4DB29636963A963E963002094F8A310C0
:1012500094F8A42094F8A53084F8701084F87120D4
:1012600084F872302118401C102891F8932081F8DE
:101270007320F7DB04F1700006F034FC0020211825
:1012800091F870200BF80020401C1328F7DB0BB0FE
:10129000BDE8F08F0348C168006841630021014840
:1012A00003F0E2BF9C0F00202DE9F0412E4C0120FD
:1012B000821E04F580652DED028BB7EE008B85ED67
:1012C000C48B85EDC88BC4F80C29022185EDD88B21
:1012D00084F8C60B04F62C0284F8C21B602102F1CC
:1012E000600784F8A70002F1A0061046FEF7EAFFA7
:1012F00040213846FEF7E6FF40213046FEF7E2FF88
:10130000092084F8A20B85EDC68B04F5EE6006F08B
:10131000ADFA04F5F46006F0D9FA04F2FC7006F0B8
:10132000BDFA04F68E32511E481EFFF709FE04F680
:101330008F3006F013FCFFF711FDFFF745FDFFF7B7
:1013400059FDFFF75FFEFFF7A5FF01F083FA05F0F7
:1013500039F805F03DF805F049FCBDEC028BBDE81D
:10136000F04105F057BC0000480000202DE9F04F87
:10137000FF4800232DED048B97B090F8A01B80F858
:10138000871B90F9BD1A01EB410100EB4101B1F857
:10139000282AA0F8D029B1F82A2AA0F8D229B1F831
:1013A0002C1AA0F8D41990F9BE1A00EB8101B1F8FB
:1013B000342AA0F8D629B1F8361AA0F8D81990F82E
:1013C000A11B80F8881B90F9BF1A00EB8101B1F8CE
:1013D0003C2AA0F8DA29B1F83E1AA0F8DC1990F9F5
:1013E000C01A00EB410191F8412B80F8C62A91F810
:1013F000421B80F8C71A90F9C11A00EB8101B1F8BD
:10140000442AA0F8DE29B1F8461AA0F8E01990F9AC
:10141000C21A00EB8101B1F84C2AA0F8E229B1F818
:101420004E1AA0F8E41990F9C31A01EB81018C005F
:101430001A1903EB830102EB820200EB810100EB3E
:10144000820212F8B85F81F8D8535B1C142B5578D0
:1014500081F8D953957881F8DA53D57881F8DB5340
:10146000157981F8DC53557981F8DD53957981F848
:10147000DE53D57981F8DF53157A81F8E053557A38
:1014800081F8E153957A81F8E253D57A81F8E353F4
:10149000157B81F8E453557B81F8E553957B81F802
:1014A000E653D57B81F8E753157C81F8E853557CEA
:1014B00081F8E953957C81F8EA53D27C81F8EB23DB
:1014C000B6DBAC494FF0FF33A94A884691EDC80B13
:1014D00010469FEDA99B81EDC40BC2F80C3900F6B4
:1014E000CC010A91012492F8A42B00F68C0B00F693
:1014F0002C0A0026B7EE008B00F5DF600F90FAB1E2
:101500009B4F97F8A60B08B104F06CFF97F8AE0B51
:1015100008B105F0E7FA97F8B00B08B101F01AF836
:1015200097F8BB0B00287ED09149642597F8BA0B39
:10153000A831012850D0022864D0032873D161E07B
:101540008B4D85F8A44B85F8A64BA5F8AE6AA5F897
:10155000B06A85F8BF6BA5F8B26AA5F8B46A95F8C9
:10156000A50B032804D0032085F8A50B06F092F8FC
:1015700085F8AE4B85F8AD4B85F8B04BC5F81869CA
:1015800095F8AF0B042802D0042085F8AF0B85F83E
:10159000BB4B032085F8C06B85F8C16B85F8BA0B8F
:1015A00095F8BD0B012803D085F8BD4BA5F8BA6AA4
:1015B00095F8BC0B012803D085F8BC4B05F016FB51
:1015C00085F8B94B88EDD69B95F8B80B02285BD00F
:1015D000022085F8B80B55E097F8C10B58B197F881
:1015E000882B97F8C03B9A4212D1401E00D50020AC
:1015F00087F8C10B17E0022087F8BA0B6048FFF7A5
:1016000037FD10E097F8880B97F8C02B90420AD06E
:1016100015A887F8BA4BFFF71FFD97F8880B87F8D6
:10162000C00B87F8C15B97F8BD0BE8B197F8BC0B0E
:10163000012802D0022817D105E0022187F8BC1B3F
:10164000A7F8BA6A10E0B7F8BA0A0A2804D387F8EC
:10165000BC4B05F0CBFA07E0401CB0F5803F01DB46
:101660004FF6FF70A7F8BA0A97F8B90B0028AED06A
:1016700097F8B80B012802D0022805D105E0022016
:1016800087F8B80B88EDD68B05E298EDD60BB2EE55
:10169000041BB4EEC10BF1EE10FA73DB3448314693
:1016A000A4464FF0050E00F67732049200F6963607
:1016B00087F8B84B97F8C23B00F2FC720E928C3A56
:1016C00000F6DC29B51E00F5F4606C1CCDE90C02B7
:1016D000062B11AA7AD2DFE803F079030687F4EE2D
:1016E00087F8C2EBD7E197F88D0BFF2811D0AA2815
:1016F00051D0002087F8C2CB1154401C1028FBDBCE
:101700000023009245201A46194606F05DF80A9813
:10171000BAE1042287F8C22B87F8781BB84687F80D
:10172000791B032287F87A1B87F87B1B87F87C1BC1
:1017300087F87D1B87F87E1B87F87F1B87F8801B47
:10174000AA2788F8811B88F8821B049B88F8831BD2
:1017500088F8841B88F8851B88F8861B88F8C51BC9
:1017600088F8C32B88F8777B0093012300220AE0D6
:101770004800002048040020000000000000000095
:10178000DF0B002083E15720114606F01DF80A9A6E
:10179000CDE906281FE0032087F8C20B87F8C51B98
:1017A00087F8C40B00201154401C1028FBDB491C97
:1017B000FF29884600D9FF210092102300224C20E7
:1017C00006F002F80A9BCDE9063759E048E100BF70
:1017D00087F8C58B5FE18DE8700EDDE90E30DDE93D
:1017E0000C21FFF749FC56E197F8C40B01280CD0F7
:1017F000022897F8C50B2AD003284DD3042187F877
:10180000C4CB00BF87F8C51B45E197F8C53B062B45
:1018100004D3022087F8C40B0721F3E700201154FA
:10182000401C1028FBDB5B1CFF2B984600D9FF23D4
:101830000092D9B2102300224C2005F0C5FF0A9A6D
:10184000CDE906271CE000BF4FF0FF08C0E70928DC
:1018500002D387F8C41B43E70023D1545B1C102B31
:10186000FBDB401CFF28804600D9FF200092C1B25C
:10187000102300224C2005F0A7FF0A98CDE90607A7
:101880008DE8700EDDE90E30DDE90C21FFF7F4FB89
:10189000B8F1FF0FD8D89BE70023D1545B1C102B65
:1018A000FBDB401CFF2800D9FF2000921023002200
:1018B000C1B24C2036E0BFE003E000BF87F8C50BA3
:1018C000E9E097F8C30B012811D0022832D0032891
:1018D0006CD097F8C50B03287ED387F8C51B87F813
:1018E000C3CB0D98B2EE080B06F0A0F9D3E097F841
:1018F000C50B022808D387F8C51B022087F8C30B45
:101900000E98B2EE080BEFE705F086FF97F8C50BCF
:10191000401DFF2800D9FF2004990091C1B2102377
:101920000022572005F050FF0A98CDE906072FE066
:10193000FF20C3E797F8C50B022816D387F8C31B0F
:10194000032087F8C20B87F8C51B87F8C40B00205B
:101950001154401C1028FBDB491CFF2900D9FF2132
:101960000092102300224C200DE005F055FF97F85F
:10197000C50B0830FF2800D9FF2004990091C1B29F
:1019800010230022572005F01FFF0A99CDE9061702
:101990008DE8700EDDE90E30DDE90C21FFF76CFB00
:1019A00097F8C50B401CFF28C2D887E7042087F8AA
:1019B000C30B0C98B846B3EE070B07F6C33706F017
:1019C000D9F8B87805F028FFB878401CFF280746FA
:1019D00000D9FF20049900E00CE00091C1B210236F
:1019E0000022572005F0F0FE0A9BCDE9063816E0EC
:1019F000FF271EE0B84605F00FFF97F8C50B401C07
:101A0000FF28074600D9FF2004990091C1B2102396
:101A10000022572005F0D8FE0A99CDE906188DE876
:101A2000700EDDE90E30DDE90C21FFF725FBFF2FFD
:101A3000DED888F8C57B2EE098EDDA0BB4EE480BC3
:101A4000F1EE10FA09D197F8950B97F8C61B88426A
:101A500003D0062087F8C20B1DE006F04BF91AE010
:101A600098EDDA0BB5EEC00BF1EE10FA3FF4F3AEE1
:101A70000A984C2388EDDA9B87F8F8364FF0100C63
:101A800087F8FA1687F8FBC6CDE90607A3E630EE1D
:101A9000080B88EDD60B1A4814220F99FEF7F9FBB4
:101AA0001849002001F5436291F8943B82F86030B8
:101AB00091F8953B82F8613091F8963B82F862305C
:101AC0000C181318401C94F8DC4A132883F8634060
:101AD000F6DB0B48602251462C30FEF7DAFB084853
:101AE000402259468C30FEF7D4FB054840220A9923
:101AF000CC30FEF7CEFB17B0BDEC048BBDE8F08F09
:101B0000C40C0020480000202DE9FC5FFD4C052797
:101B100064224FF0020B23464FF6FF75002640F279
:101B2000022A94F8930B4FF4803984F8890B03F55B
:101B3000806094F8911B84F88A1B94F8A2CBB3F8C8
:101B4000AC3ABCF10A0F61D2DFE80CF06005781105
:101B5000781F29444E5A062284F8A22B4FF40070B5
:101B6000A4F8660A4FF4C871A4F8681A66E0042B5A
:101B700002D006F039F961E084F8A2BB4FF47A7123
:101B8000A4F8661AA4F868BA58E0012084F8A20BF9
:101B9000A4F866AAA4F8687AA4F86A0A4EE0012BB1
:101BA00001D051B113E0082184F8A21B40F20530A6
:101BB000A4F8660AA4F86C2A40E094F8A30B012864
:101BC00005D1581C484500D32846A4F8AC0A84F82F
:101BD000A31B33E0032084F8A20BA4F8666AA4F8E0
:101BE000A86AA4F8AA6A29E0A4F86C2A072384F852
:101BF000A23BA4F866AAA4F8687AA4F86ABA1DE021
:101C00000A219FEDC10B84F8A21B15E090EDCC0BCF
:101C1000B2EE041BB4EE410BF1EE10FA08D184F8D9
:101C2000A27B40F20120A4F8660AA4F86A7A05E0D3
:101C3000B7EE001B30EE010B80EDCC0BB448B5497C
:101C4000A0F166039A1ECDE90010911E6C3804F0D5
:101C500093FFAF49FE3191ED040BBDEEC00B10EECA
:101C6000100A012848D002284FD000216018491CD2
:101C70000A2990F8D22A80F8C82AF7DBA4485C38F1
:101C8000811C831E021FCDE90001811F523005F027
:101C900095FC9C4FB4F8700A07F6FA11B2378846E3
:101CA000A0F54072053A16D0B0F5017F42D0B0F5EC
:101CB000007F4DD0A0F54071063930D0A0F50071FD
:101CC000013964D0504570D1B4F8720A05286DD03E
:101CD00004286CD0A3E0B4F8720A3B46A4F87A0A50
:101CE0000A46B4F8740A0021FEF738FBB4F8760A05
:101CF00002213B4642461AE0002023180A5C401CA1
:101D00000A2883F8C82AF8DBB8E700200A18231845
:101D1000401C127E0A2883F8C82AF7DBAEE7B4F825
:101D2000721A0A203B464246B1FBF0F00121FEF751
:101D300015FB74E094F89F0BFF2802D384F89F6B87
:101D40006DE0401CFF2800DDFF2084F89F0B66E05B
:101D5000B4F8EA09B4F8721AFF2802D3A4F8EA69C1
:101D600005E0401C484500DB2846A4F8EA09A4F831
:101D7000EC1994F8890B642851D0322903D06429D6
:101D800001D0C8294BD1002005F050FE47E0B4F83F
:101D9000727AFF2F00D9FF27B4F8F209B4F8741A49
:101DA000FF2805D3A4F8F26908E02BE017E020E053
:101DB000401C484500DB2846A4F8F209A4F8F419B1
:101DC000F9B2B4F8760A1E29A4F87E0A05D90020D3
:101DD00005F02CFE002005F03DFEF8B206E0B4F858
:101DE000740A05F023FEB4F8F00908E005F064FE7B
:101DF00015E0B4F8740A05F02DFEB4F8F8090028CF
:101E0000F4D00CE0A0F50071033908D1B4F8720ADF
:101E100064214843484500DB2846A4F87C0A94F82E
:101E2000C40A58B9B4F8FA09A4F8540AB4F8FC0979
:101E3000A4F8560AB4F8FE09A4F8580A94F87A0AE5
:101E400084F8A00B94F8BD1AB4F8FA09E9B300219C
:101E500001EB410104EB4101A1F8280A94F8BD1AF5
:101E6000B4F8FC0991B3002101EB410104EB4101FD
:101E7000A1F82A0A94F8BD1AB4F8FE0939B3002172
:101E800001EB410104EB4101A1F82C0A94F8BD0AD1
:101E9000B8B3002084F8BD0A94F8BE1AB4F8EA0971
:101EA000D1B3002104EB8101A1F8340A94F8BE1AE1
:101EB000B4F8EC0989B3002104EB8101A1F8360ADA
:101EC00094F8BE0A50B3002002E08DE08EE08FE06F
:101ED00084F8BE0A94F89F0B84F8A10B94F8BF0A0B
:101EE000B4F8EE19E8B3002004EB8000A0F83C1A27
:101EF00094F8BF1AB4F8F009A1B3002104EB8101F2
:101F00000DE077E048000020000000000000000025
:101F10001A0B0020587F00086EE070E071E0A1F815
:101F20003E0A94F8BF0AE0B35FF0000084F8BF0AED
:101F300094F8C01A94F8EF0AA1B3002104EB410110
:101F400081F8410B94F8C01A94F8F00A59B30021B3
:101F500004EB410181F8420B94F8C00AE8B3002079
:101F600001E050E051E084F8C00A94F8C11AB4F8D6
:101F7000F20999B35FF0000104EB8101A1F8440A72
:101F800094F8C11AB4F8F40949B3002104EB8101B3
:101F9000A1F8460A94F8C10A80B3002084F8C10A67
:101FA00002E034E036E037E094F8C21AB4F8F609FB
:101FB00079B3002104EB8101A1F84C0A94F8C21A0C
:101FC000B4F8F80981B3002104EB8101A1F84E0AAD
:101FD00094F8C20A48B3002002E01FE020E021E0AC
:101FE00084F8C20ABDE8FC9F012131E701213BE7EB
:101FF000012145E701204DE7012153E716E00121CA
:102000005AE7012060E701206EE7012176E7012011
:102010008CE70DE0012191E7012199E701209FE77D
:102020000121A9E70121B1E704E005E00120B5E7BE
:102030000121BFE70121C7E70120CDE72DE9F04FDE
:1020400045499BB00DF1080C91F9BC3A002003EB17
:10205000C303C41801EB8404D4F864494CF820404D
:10206000401C0928F5DBB1F8A69A0123B1F8800AD3
:10207000189091F8930B1790B1F86E0A1690B1F87A
:102080007C0A1590B1F8E8B9B1F87EAA81F8C43A93
:102090000020B1F8545AB1F8563AB1F8584A81F8CC
:1020A000C40A65F30F0291F8917B0BAC91F8926B27
:1020B00063F31F4291F8905B01EB40083CF820303D
:1020C000A8F8003A24F81030401C0928F4DBA1F8E5
:1020D000129A4FEA1248189AA1F8142A179AA1F8EE
:1020E000162A169AA1F8182A159AA1F81A2AA1F800
:1020F0001CBAA1F81EAAA1F8208AA1F8227AA1F898
:10210000246AA1F8265A15490091A1F2191004F089
:1021100050FD009805F002FD1148002134F811200F
:1021200020F81120491C0929F8DBA0F81290189911
:1021300081821799C1821699018315994183A0F86C
:102140001CB0A0F81EA0A0F8208047848684C58417
:102150001BB0BDE8F08F000048000020610B00209C
:10216000780C0020344930B589B001F52D7005F0A8
:10217000E9FE324A0020324D6C4600BF05EB80017B
:10218000D1F8403902EBC00100EE103A91ED003B6E
:1021900091ED122BB8EE400B91ED241B20EE030BBA
:1021A000BCEEC00BB8EE400B30EE020B20EE010B84
:1021B000BCEEC00B10EE101A44F82010401C092889
:1021C000DCDB204804F006FD1F49002001EB800203
:1021D00054F82030401C09289362F7DB95F8C50AB3
:1021E00048B900BF05EB800254F82010C2F8AC19C2
:1021F000401C0928F6DB002095F8BC2A54F8201072
:10220000B2B1002202EBC2020244401C05EB820282
:102210000928C2F86419EFDB95F8BC0A50B1002018
:1022200085F8BC0AB5F8A40AA5F8A60A09B030BD1D
:102230000122E7E70120F3E788090020607F00081A
:1022400048000020EC0A0020780C0020F8B56D4C06
:10225000012084F8C50A002004EB8001D1F8AC29E4
:10226000401C0928C1F81C29F6DB002584F8C55A52
:10227000B4F8800A0723A4F85A0A94F8930B84F858
:102280008B0BB4F86E0AA4F85C0AB4F87C0AA4F8C4
:102290005E0AB4F8E819A4F8601AB4F87E1AA4F833
:1022A000621AB4F8A41A584AA4F8641A04F652241C
:1022B00002F1100117460E4605F02EFB208607237B
:1022C00060863A462089314605F026FBA0864FF409
:1022D000A061E1864FF444722287531C6387961DE8
:1022E000A687D71DE78794F87501A4F652246428C1
:1022F0003ED3B4F82C09A4F89A0AB4F83009434E36
:10230000A4F89C0AB4F82809A6F15903A4F89E0A77
:102310009A1EB4F83C09911EA4F8A00A881E04F67F
:102320001C14009604F011FCA6F16B00314605F078
:10233000A5FB208B083EA4F87601A6F1590320885E
:102340009A1EA4F87801911EA088A4F87A01208929
:10235000A4F87C01881E009604F0F7FBA6F161004A
:10236000314605F08BFB84F8AB52A4F61C1403E055
:1023700094F8C80B0A281FD3244E254A103600961D
:10238000A6F1AD03991E081D04F0DFFBA6F17D0048
:10239000314605F073FB083E0096A6F19D0303F15C
:1023A0002202911E881E04F0D0FBA6F1790031466E
:1023B00005F064FB84F8C85B144D94F88B0B18355A
:1023C000114BA5F1AF02A4F8A20A911E009520338B
:1023D00001F1420004F0B9FBA5F18700294605F0A0
:1023E0004DFB94F8C80B401CFF2800DDFF2084F84B
:1023F000C80B94F8C70B401CFF2800DDFF2084F8B1
:10240000C70BF8BD4800002038800008410B0020B1
:10241000587F00084C49002010B586B06A4691F8F4
:1024200048308DF8003091F849308DF8013091F83E
:102430004A308DF8023091F84B308DF803300C188B
:102440001318401C94F84C4010281C71F7DB104600
:1024500005F08AFC3D4B002293F8C30AE8B3002044
:1024600002EB820100EB800003EB810102EB8000B4
:1024700000EB800091F8684503EB800080F8B840DD
:1024800091F8694580F8B94091F86A4580F8BA40FA
:1024900091F86B4580F8BB4091F86C4580F8BC40E2
:1024A00091F86D4580F8BD4091F86E4580F8BE40CA
:1024B00091F86F4580F8BF4091F8704580F8C040B2
:1024C00091F8714580F8C14091F8724580F8C2409A
:1024D00091F8734580F8C34000E030E091F874450E
:1024E00080F8C44091F8754580F8C54091F876456C
:1024F00080F8C64091F8774580F8C74091F8784554
:1025000080F8C84091F8794580F8C94091F87A453B
:1025100080F8CA4091F87B1580F8CB10521C142A21
:102520009ADB93F8C30A60B15FF0000083F8C30A36
:10253000074890EDC60B80EDC80B06B010BD01201A
:102540008EE70120F2E70000180C00204800002070
:10255000480400202DE9FE4FAE4C002303272246FD
:1025600002F5396094F8AFCB02F692350290691EFD
:10257000D2F8180902F1A90BCDE90015012592F84E
:10258000B5AB92F8B19B411E0226EA07BCF1070FDA
:102590005BD2DFE80CF05A04FD62FDC6FD00BAF123
:1025A000010FD4460BD0BCF1020F11D0BCF1030FC8
:1025B00017D0BAF1040F48D101282DD0C9E0012865
:1025C0007ED184F8B73B84F8B53B84F8AF6BD8E094
:1025D000012875D184F8B57B00F0B6F9C4F8180964
:1025E000CFE001286CD184F8B55B00F0ADF9C4F8F8
:1025F000180994F8930B512894F8B70B07D20128C7
:1026000023D0502084F8B75BFEF728FCD1E00228E5
:102610001BD084F8B76BCCE084F8B63B84F8B56B7C
:1026200000F092F97C4AC4F81809511E481E00F0C7
:1026300021F994F89A0B84F8900B94F8980B84F88D
:10264000910B94F8990B84F8920BBDE8FE8FC4F8B7
:102650001829FAE7C4F81819F7E7D4F80C19042078
:10266000022922D00029F0D1BAF1040F84F8AF5B1F
:1026700005D084F8B50B00F067F9C4F8180994F890
:10268000AD0B03283ED0042848D000BF94F8930B2C
:102690003C2843D894F8B60B0128D6D03C2084F8C7
:1026A000B65BBDE8FE4FFEF7D9BB94F8871B052942
:1026B000CBD2052284F8AF2BB9F1040F0DD000E086
:1026C00047E084F8B10B00F03FF95449884201DD3E
:1026D000481C00E0401CC4F8180994F8AD0B03280E
:1026E00094F8B40B09D00128AFD084F8B45BBDE8EE
:1026F000FE4F4948C01CFEF787BC0228A5D084F8CD
:10270000B46B09E094F8930B5028BFD894F8B60B3B
:1027100003289AD084F8B67B5020C2E784F8B66BC1
:1027200093E7B9F1010FCC460BD0BCF1020F14D0E6
:10273000BCF1030F33D0B9F1040F86D1012840D08A
:1027400007E0012805D184F8B13B062084F8AF0BDF
:1027500017E090423FF77EAF79E70128F9D184F87E
:10276000B33B84F8B17B00F0EFF8C4F8180994F893
:10277000AD0B032894F8B20B07D00128D0D084F811
:10278000B25BBDE8FE4F00F0BDB80228C8D000E043
:102790003CE0002084F8B26BFEF760FBF1E7012813
:1027A000D7D184F8B23B84F8B15B00F0CDF8C4F81F
:1027B00018095B469DE8070003B0BDE8F04F00F044
:1027C0008DB884F8B43B84F8B16B00F0BDF8114FBC
:1027D000C4F8180994F8AD0BAC37032894F8B30B80
:1027E00008D001289CD007F52F6084F8B35BFEF772
:1027F0001FFC03E0022893D084F8B36B3B469DE8AE
:10280000070003B0BDE8F04F00F08AB884F8AF7B52
:102810001BE7000048000020E20B0020FEFFFF7FC6
:1028200010B5002303700B70012414700421084CB0
:102830001A46204601F0ECF900222046082101F05A
:10284000E7F901222046BDE81040022101F0E0B97D
:102850000010024008B5684600F002F808BD00000C
:102860000021017002480A46022101F0D1B900009E
:102870000010024010B50024047001230B70137087
:102880002246084C0421204601F0C2F901222046CC
:10289000082101F0BDF901222046BDE810400221C7
:1028A00001F0B6B90010024010B5012303700024F6
:1028B0000C70094C042113701A46204601F0A8F947
:1028C00000222046082101F0A3F901222046BDE89C
:1028D0001040022101F09CB9001002402DE9F041A6
:1028E0001C4615469A1C0E46591C07462046FFF703
:1028F00097FFA07828702078387060783070BDE835
:10290000F0810000044810B5FFF7AAFF034890F8D3
:102910009B1B80F8901B10BDE30B0020480000209B
:102920002DE9F0411C4615469A1C0E46591C0746D7
:102930002046FFF7B9FFA0782870207838706078BB
:102940003070BDE8F08100002A49084691F8B12BAB
:1029500090F8AD0B042A10D0022A16D0032A2FD0EB
:10296000012A35D091F8B50B042839D002283AD085
:1029700003283BD0D1F858087047032802D0D1F87B
:102980006C087047D1F87C08704703280FD091F885
:10299000872B012A0ED01748022AD0F86008F3D0FE
:1029A000032A0AD0042AEFD1D1F868087047D1F879
:1029B00078087047D1F85C087047D1F86408704710
:1029C000032802D0D1F870087047D1F83408704756
:1029D000032802D0D1F874087047D1F8380870473E
:1029E000D1F850087047D1F84C087047D1F8540816
:1029F000704700004800002070470000F8B500252F
:102A0000009590F83C20012A18D0012280F83C2043
:102A10000A6807234E4C0668092A1AD90A3A02EBBB
:102A20004207F268BB409A43F2600E680268A64211
:102A300006D10B7AD66846EA036308E00220F8BDA7
:102A40000A3E8B68D76806EB4606B3403B43D3602B
:102A50000EE002EB42073269BB409A4332610368E1
:102A60000E788A681F6906EB4606B2403A431A613F
:102A70004A681F23072A13D20668521E02EB8207F8
:102A8000726BBB409A43726303680E790A88761EA4
:102A90005F6B92B206EB8606B2403A435A6327E078
:102AA00006680D2A12D2D21F02EB8207326BBB409E
:102AB0009A43326302680E790B88F61F176B9BB23C
:102AC00006EB8606B3403B43136311E00D3A02EB7D
:102AD0008207F26ABB409A43F26202680E790B8861
:102AE0000D3ED76A9BB206EB8606B3403B43D362EA
:102AF000184A0368934208D10B68122B05D1D2F80B
:102B0000043343F48003C2F80433036893421AD1B8
:102B10000B68A34201D0112B15D1D2F8043343F432
:102B20000003C2F804330968A1420CD10A490B4AD8
:102B30000968B1FBF2F101EB8101490000E0491E97
:102B400000910029FBD180F83C500020F8BD000026
:102B500012000010002001404000002040420F0001
:102B600000680349884201D1FFF7FCBA70470000B2
:102B7000002001407047704770B504460068016846
:102B80004268C1F34001C2F3401251B34AB3216C11
:102B9000C90603D4216C41F400712164816811F0ED
:102BA000405F17D1A169A9B9C16A11F4700F02D0B1
:102BB000816849050ED4416821F020014160206CF4
:102BC00020F480702064206CC00403D4206C40F09A
:102BD000010020642046FFF7C3FF21686FF0120058
:102BE0000860206801684268C1F38001C2F3C01226
:102BF00089B382B3216CC90603D4216C41F400511E
:102C00002164816811F4401F1ED1816B11F4401FB3
:102C100002D08168490517D44168490514D48168F8
:102C200011F0405F10D1A16971B9416821F08001B4
:102C30004160206C20F480502064206CC00503D4D7
:102C4000206C40F0010020642046FFF7D5FE21688B
:102C50006FF00C00086020680168436811F0010FF4
:102C6000C3F380110ED069B10068C0070AD0206C90
:102C700040F480302064204600F046F821686FF070
:102C800001000860206801684268C1F34011002912
:102C9000C2F380620DD0002A0BD0616C6FF020056A
:102CA00041F00201616405602046FFF764FF20687F
:102CB000056070BD70B504004FF0000503D0206CB6
:102CC000002610B107E0012070BD204600F01EF87C
:102CD000666484F83C60206CC00610D4206C20F43C
:102CE000885040F0020020642046FDF79BFD66649A
:102CF000206C20F0020040F00100206400E001257B
:102D000084F83C60284670BD70470000F0B587B07D
:102D1000064614216846FDF7D5FA304930688842E6
:102D200059D12F48016841F48071016000682C4935
:102D300000F4807005901439086840F004000860C1
:102D4000086800F004000590086840F00100086081
:102D5000086800F001000590086840F00200086073
:102D6000086803240025694600F00200059013203E
:102D70008DE831001B4800F053FEF02069468DE8D5
:102D80003100194800F04CFE009469461748CDE91F
:102D9000014500F045FE164C16480115C4E9000532
:102DA0008715A5600B01C4E9035182142046C4E9CC
:102DB00007756562C4E9052300F070FD08B1FEF7F0
:102DC0005AF9B46300220421A663122001F096F997
:102DD000122001F085F907B0F0BD0000002001408D
:102DE0004438024000080240000002400004024053
:102DF0006C0E002010640240F8B50D460446002118
:102E0000009190F83C00012807D0012084F83C0094
:102E100020688368DB0702D011E00220F8BD8668D5
:102E2000364B46F00106866035480068B0FBF3F08B
:102E300000EB400000E0401E00900028FBD120681D
:102E40008368DB0758D0236C40F20166B34343F438
:102E5000807323644068400505D5206C20F4005041
:102E600040F480502064206CC00404D5606C20F0D5
:102E70000600606400E061646FF0220084F83C109A
:102E8000A36B2049D963A36B1F491964A36B1F4926
:102E9000D964216808602068416841F08061416020
:102EA0002068816841F48071816021681346A06BBD
:102EB0002A464C3100F064FD1549D1F80403C006E0
:102EC000206811D0884207D1826812F0405F03D198
:102ED000826842F080428260D1F80403C0060BD4BD
:102EE0000C492068884207D1816811F0405F03D106
:102EF000816841F0804181600020F8BD40420F00B0
:102F000040000020890700080D080008F7070008A6
:102F1000002001400022014090F82020012A07D023
:102F2000022A05D0416A41F48021416201207047A4
:102F3000006842690A43426100207047F0B590F88A
:102F400020500468A468012D05D0022D03D0416AE9
:102F500041F480215AE014F0406F01D1E50052D5D0
:102F6000C4F30164022C03D9416A41F400014DE02D
:102F700001264FF4C075A6401E608B68ABB1CE68C9
:102F80004F68D0F800C0334305EB041643EAC7038B
:102F90004CF8063007684FF4C27303EB04130E6954
:102FA000FE50097D012909D00DE00E88CB68076825
:102FB00043EA465305EB0416BB51EBE70168CE58D4
:102FC00046F48076CE50D2F805304FF4C67C1179A5
:102FD0000CEB041C06684FF4C47741EA032107EBAD
:102FE000041346F80C10167805EB0411D2F80120F2
:102FF000076846EA0222FA500068425842F001028D
:1030000042500020F0BD416A41F4001141620120AC
:10301000F0BD000030B590F820300268012B07D0D9
:10302000022B05D0416A41F480214162012030BD6C
:103030003E4C3F48A24200D00246D2F800328242C3
:1030400043F00103C2F800320CD1D2F8000220F4A0
:103050007C50C2F80002D2F800024B6A40EA03201A
:10306000C2F800020C7D0120D2F81C3204F01F04CB
:10307000A0408343C2F81C32CB69B3B9D2F80C32FA
:103080008343C2F80C328C894B684D6964F31F434B
:1030900002EBC504C4F840320C890B684D6964F337
:1030A0001F4302EBC504C4F84432CB69012B16D18F
:1030B000D2F80C320343C2F80C320C884B684D69CD
:1030C00064F31F4302EBC504C4F840320C89CB689B
:1030D0004D6964F31F4302EBC504C4F844328B69A5
:1030E000002BD2F804320FD053EA0003C2F80432A6
:1030F0000B69002BD2F8143208D00343C2F8143203
:10310000096A012904D008E08343EFE78343F5E728
:10311000D2F81C120143C2F81C12D2F8000220F0AF
:103120000100C2F80002002030BD00000034004061
:103130000064004070470000F0B590F82040012C7A
:1031400005D0022C03D0416A41F4802166E0046876
:1031500000295ED02469A4075DD005684FF4D874B7
:1031600004EB01142D5915F00405956005682D59DF
:1031700057D0ED08C2F8045007684FF4DA754FF4E1
:10318000DC7C4FF4DE763C59002905EB0115C4F3D5
:103190004007D7600CEB011406EB01110668765965
:1031A00006F00F06166106687659C6F30726966183
:1031B000066875594FEA15455561026812591A702B
:1031C000026812594FEA12225A70026812594FEAE5
:1031D00012429A70026812594FEA1262DA7002685B
:1031E00052581A71026852584FEA12225A710268F4
:1031F00052584FEA12429A71026851584FEA1161CF
:10320000D971006810D0016941F0200101610020EE
:10321000F0BDE4689FE7416A41F40011416201207A
:10322000F0BD6D0D1560A7E7C16841F02001C160D8
:10323000EDE72DE9F05F0546006800244669D0F807
:1032400004908768D0F80CB0D0F810A0F207D0F83E
:10325000188048D0F90714D001218160BA0703D53E
:10326000284600F032FA0CE0780702D54FF40064EB
:1032700007E0380702D54FF4805402E0284600F0FA
:1032800023FAF80516D52868BA054FF480718160D5
:1032900003D5284600F01BFA0CE0780502D544F46B
:1032A000005407E0380502D544F4804402E0284683
:1032B00000F00CFAF80316D52868BA034FF48031F1
:1032C000816003D5284600F004FA0CE0780302D5AB
:1032D00044F4004407E0380302D544F4803402E0AB
:1032E000284600F0F5F9300707D55FEACB6004D532
:1032F0002968102044F40074C86070074FF0080774
:1033000007D55FEA0B7004D52868C760284600F02F
:1033100075F9B00706D52868C068800702D028462E
:1033200000F06EF9700607D55FEACA6004D5296817
:10333000102044F480640861B00607D55FEA0A7083
:1033400004D528680761284600F08EF9F00606D5F6
:1033500028680069800702D0284600F086F9B0038B
:1033600008D55FEAC96005D529681020486028465D
:1033700000F07CF9F00307D55FEA097004D52868EE
:103380004760284600F0A6F9300446D55FEA497048
:1033900040D5F00504D55FEAC87001D044F00104BF
:1033A000B00504D55FEA887001D544F002047005C9
:1033B00004D55FEA487001D544F00404300529D5EE
:1033C00018F0700F26D008F07000402815D006DCE9
:1033D000102809D020280AD0302816D10AE0502819
:1033E0000ED0602811D10EE044F008040DE044F046
:1033F00010040AE044F0200407E044F0400404E034
:1034000044F0800401E044F480742868816921F06C
:1034100070018161296804204860002C05D0686A29
:10342000204368622846FFF785FEBDE8F09F70B52F
:10343000040003D094F8200010B104E0012070BD16
:10344000204600F081F82068016821F00201016047
:1034500000F0E4FB0526054604E000F0DFFB401B1E
:103460000A2811D8206840688007F6D420680168CF
:1034700041F00101016000F0D1FB05460BE000F0D6
:10348000CDFB401B0A2806D9606A40F40030606218
:1034900084F82060D2E720684068C007EFD0207E23
:1034A0000128206801683DD021F080010160607E24
:1034B00001282068016838D021F040010160A07E19
:1034C00001282068016833D021F020010160E07EEE
:1034D0000128206801682ED041F010010160207F92
:1034E00001282068016829D021F008010160607F6F
:1034F00001282068016824D021F004010160D4E98A
:103500000110D4E903326569491E184323682A4330
:10351000104300220843D8610121626284F8201020
:10352000104670BD41F08001C0E741F04001C5E7A1
:1035300041F02001CAE721F01001CFE741F0080176
:10354000D4E741F00401D9E710B586B00446142150
:103550006846FCF7B7FE26492068884246D12548D0
:10356000016841F400510160016801F400510591C6
:10357000016841F080610160016801F0806105919E
:10358000016841F000710160006800F00070059072
:1035900018481038016841F00201016000680221FA
:1035A000002200F002000590032309244FF440504C
:1035B0008DE81F001048694600F032FA002202210F
:1035C0003F2000F09BFD3F2000F08AFD00220121FA
:1035D000402000F093FD402000F082FD00220121F8
:1035E000412000F08BFD412000F07AFD06B010BDB7
:1035F000006800404038024000040240704700006C
:1036000010B572B6144B0021144A02F13400FFF7D2
:1036100093FD124812490088020A0A760E4A48763B
:10362000022014180B18401C14F8024C0A281C76AF
:10363000F7DB91ED040BB0EE001BB4EE410BF1EEA5
:1036400010FA01D1FEF760FA06484FF4806100F0ED
:10365000D8FA62B610BD000000000020F40E002071
:10366000180C0020000C02407047704770470000A3
:1036700070B5044690F82000012804D0606A40F438
:103680000020606218E0022084F8200020680168B1
:1036900021F00101016000F0C1FA05460EE000BF13
:1036A00000F0BCFA401B0A2808D9616A052041F4E1
:1036B0000031616284F82000012070BD20684068FC
:1036C000C007EDD1606270BD7047704770477047AA
:1036D00070477047704790F83510022903D0802159
:1036E000416501207047052180F8351000680168A8
:1036F00021F0010101600020704700002DE9F8432E
:1037000004464FF00009644B0820CDF800904FF4B8
:103710001652A56D94F85C101B682E68B3FBF2F787
:1037200000FA01F131420FD021680A6852070BD527
:103730000A6822F004020A6094F85C108840A860CD
:10374000606D40F00100606594F85C104FF0010876
:1037500008FA01F0304208D021684969090604D509
:10376000A860606D40F00200606594F85C10042071
:103770008840304208D021680968890704D5A860CC
:10378000606D40F00400606594F85C101020884083
:10379000304218D021680968090714D5A86020684C
:1037A0000168490304D50068000308D5A16C07E04F
:1037B0000168C90503D4016821F008010160216C8A
:1037C00009B12046884794F85C1020208840304298
:1037D00031D021680968C9062DD5A86094F8350054
:1037E00005282068016806D0490347D50068000312
:1037F0001DD4616C1CE021F0160101602068416954
:1038000021F080014161206C08B9A06C20B12068D2
:10381000016821F00801016094F85C303F229A4071
:10382000AA6084F8349084F83580216D1FE0E16B44
:1038300009B120468847606D00282BD0606DC00715
:1038400014D0052084F835002068016821F00101BA
:1038500001600098401C0090B84203D820680068BE
:10386000C007F6D184F8349084F83580E16C0029E3
:1038700010D001B02046BDE8F04308470168C905F3
:10388000D5D4036823F01003036084F8349084F8DF
:103890003580CCE7BDE8F883400000202DE9F047F3
:1038A000044600F0BBF9054664B14FF0000984F806
:1038B0003490022184F835102068016821F001015C
:1038C00001600EE00120BDE8F08700BF00F0A6F91E
:1038D000401B052805D920216165032084F83500A7
:1038E000F1E720680068C007F0D1D4E90020D4E9EE
:1038F0000251D4E9043C284304F118051943084354
:10390000116895E8E00140EA0C001C4B284319407F
:1039100040EA060040EA0700B8F1040F40EA01005F
:1039200003D1D4E90B131943084310602068012622
:10393000656A4069042D20F0070045EA00050CD1B6
:10394000D4E90A01054341B12046FDF7B9FA20B197
:103950004020606584F83560B4E720684561204602
:10396000FDF79AFA94F85C303F229A408260C4F8DE
:10397000549084F835600020A5E700003F8010E0F7
:103980002DE9F041044690F8340000250128A66D89
:103990000ED094F835C00127002084F83470BCF1B3
:1039A000010F07D0022584F834002846BDE8F081D5
:1039B0000220FBE7022784F8357060652046FDF79A
:1039C000A9FA94F85C103F208840B0602068016834
:1039D00041F0160101602068416941F080014161B8
:1039E000206C20B12068016841F008010160206866
:1039F000016841F001010160D7E7000070B504469D
:103A000000F00CF90546601C02D00448007804441C
:103A100000F004F9401BA042FAD370BD340000202E
:103A20002DE9F84FDFF89CE100224FF001084FF03C
:103A3000030B4FF00F0A00BF0B6808FA02F4234093
:103A4000A34271D14D68022D01D0122D0FD1D5089E
:103A50000E69570700EB8505A9462D6AFF0E0AFA85
:103A600007FCBE4025EA0C052E43C9F820600F79FB
:103A7000550006680BFA05FC07F0030726EA0C065A
:103A8000AF40374307604E68012E05D0022E03D0A9
:103A9000112E01D0122E0ED18668CF6826EA0C06B0
:103AA000AF403743876046680F79A643C7F30017D6
:103AB000974037434760C4688E6824EA0C04AE40E0
:103AC0002643C6604C68E40075D53F4C256845F434
:103AD00080452560246822F00306950704F480449D
:103AE00000943A4C2D0F2644D6F80848DFF8E0C081
:103AF0000AFA05F7604524EA070401D100272EE001
:103B0000344FB84201D1012729E0334FB84201D1E7
:103B1000022724E0314FB84201D103271FE0304F84
:103B2000B84202D104271AE045E02E4FB84201D135
:103B3000052714E02C4FB84201D106270FE02B4F88
:103B4000B84201D107270AE0294FB84201D108271E
:103B500005E0284FB84201D1092700E00A27AF400D
:103B600027437546C6F808784E68DEF80040F6032D
:103B700024EA030400D51C43124E2C60361D4D6808
:103B80003468AD0324EA030400D51C430D4F3460B0
:103B900008374D683C68ED0224EA030400D51C4355
:103BA000084D3C600C354E682C68B60224EA0304CC
:103BB00000D51C432C60521C102AFFF43DAFBDE819
:103BC000F88F0000003C01404438024000300140C2
:103BD000000002400004024000080240000C0240C5
:103BE000001002400014024000180240001C024075
:103BF00000200240002402400069084000D001205B
:103C00007047426931EA020200D1090481617047BC
:103C10000AB1816170470904FBE700000148806830
:103C2000704700003400002030B590F84120202A71
:103C300024D190F84020012A20D0012380F8403080
:103C4000242280F84120202300240268156825F0F2
:103C5000010515600268156825F480551560026835
:103C600015680D43156001680A6842F001020A6098
:103C700080F8413080F84040002030BD022030BD47
:103C800030B590F84120202A22D190F84020012A16
:103C90001ED0012380F84030242280F841202024C7
:103CA00000250268136823F001031360026813689B
:103CB00023F4706343EA0121116001680A6842F04D
:103CC00001020A6080F8414080F84050002030BD79
:103CD000022030BD704770470268436B91691268DB
:103CE000002B00D0184770477047000070B50400E3
:103CF00004D094F84100002510B106E0012070BD09
:103D0000204684F8405000F063F9242084F84100F4
:103D10002068016821F001010160D4E9001020F061
:103D2000706008612068816821F400418160E0686A
:103D300021680128A06806D040F404408860E0684B
:103D4000022803D006E040F40040F7E721684FF472
:103D50000060486020212068114A43681343436093
:103D60002068C26822F40042C26054F8106B0DCC87
:103D7000104340EA0320F06054F81C3CD4E90002F0
:103D80001043186054F81C0D026842F001020260F2
:103D9000656484F84110256384F84250002070BDAA
:103DA00000800002704770477047704770470000FE
:103DB0002DE9FF4F83B0044690F841009A469346A0
:103DC000DDE91087DDF84890202874D15FEA08000B
:103DD00014D09FB194F8400001286CD0012084F8E1
:103DE0004000FFF71BFF0122064619230090D10374
:103DF000204602F069FA002871D103E04FF4007008
:103E000060646CE00025C4F82480222184F841100D
:103E1000402084F8420065646785534665635A46CE
:103E200004992046CDE9009602F0D2F810B184F84A
:103E3000405054E0618DFF2734484FF08078FF29CF
:103E40004FF0007A04D927853A464346009005E0B2
:103E5000618D53462185009094F8282020460499CE
:103E600002F01CFA00224B4604212046009602F084
:103E70002BFAA0BB2068616A406A0870606A401C27
:103E80006062208D401E81B22185608D401E60855C
:103E9000608DD8B1D1B900224B46802120460096D2
:103EA00002F012FAD8B9608DFF2805D927853A4665
:103EB0004346009506E026E0608D53462085009538
:103EC00094F828202046049902F0E8F9608D002833
:103ED000C8D132464946204602F023FA18B10120E3
:103EE00007B0BDE8F08F21682020094AC861216829
:103EF0004B6813404B6084F8410084F84250002026
:103F000084F84050ECE70220EAE70000002400803B
:103F100000E800FE2DE9FC47044690F84100984671
:103F20009146DDE90A758A4620284BD11FB315B3A7
:103F300020688069C043000444D594F840000128FB
:103F400040D0012084F840002434FFF767FE0026AB
:103F50002122627740211C4A2760A1772662E580F2
:103F6000A260E28819492161243CFF2A07D9FF2178
:103F70004FF0807506E04FF4007060640FE0618DD3
:103F80004FF0007521851921CDE9001043464A46BE
:103F90005146204602F04EF820B184F840600120DE
:103FA000BDE8FC8700962B4694F828205146204611
:103FB00002F074F90121204684F8406001F05AFCB7
:103FC0000020EDE70220EBE70000FFFFA95E0008FC
:103FD00010B586B0044614216846FCF773F91649FB
:103FE0002068884225D11548016841F0020101602E
:103FF00000681221012200F002000590C020032376
:1040000004248DE81F000E486946FFF709FD0B48A0
:104010001030016841F400110160006800220521A0
:1040200000F4001005901F2000F068F81F2000F039
:1040300057F806B010BD0000005400403038024070
:1040400000040240704770470248816802781144BA
:104050008160704734000020032010B500F06EF836
:10406000002000F005F800F023F8002010BD00004B
:1040700070B50D4D04464FF47A700C4A29781268D9
:10408000B0FBF1F0B2FBF0F000F0C2FD48B9102C2B
:1040900007D200222146501E00F030F800206C604C
:1040A00070BD012070BD00003400002040000020E1
:1040B0000A4808B5016841F080510160006800F0CD
:1040C000805000900548001D016841F48041016066
:1040D000006800F48040009008BD000040380240B5
:1040E000002809DB410900F01F028900012001F1CD
:1040F000E0219040C1F80001704700000E4BF0B481
:104100001B680D46C3F30223C3F10706042E00D932
:104110000426191D072901D2002300E0DB1E01241B
:1041200004FA06F19C40491E2940641E994014403F
:104130002143F0BC03F05FBA0CED00E0064900F04B
:10414000070210B54FF6FF040868044B204040EA10
:1041500002201843086010BD0CED00E00000FA05D5
:104160001848F8B5016841F0805101600068164CAC
:1041700000F080500090206840F480302060FFF70D
:104180004DFD4FF47A76054605E000BFFFF746FD8A
:10419000401BB0420FD86068C003F7D5206840F4D8
:1041A00000302060FFF73AFD054606E0FFF736FDD8
:1041B000401BB04201D90320F8BD60688003F5D5EB
:1041C0000020F8BD40380240007000402DE9F84F53
:1041D00004460078DFF824944FF000063746C00705
:1041E0000ED0D9F8001021F40001C9F80010D9F858
:1041F0000010626B1143C9F80010606B00B9012612
:10420000FE4D2068843500030ED5E16B286820F44C
:10421000401008432860E06BB0F5801F01D010B15A
:1042200002E0012600E0012720684FF4800BC00265
:104230000CD5216C286820F4400008432860206CCD
:10424000584501D1012601E000B901272068C101CC
:1042500000D50126800666D5E8483830016841F06F
:10426000805101600068DFF898A300F08050009052
:10427000DAF8001041F48071CAF80010FFF7CEFCA4
:10428000804605E0FFF7CAFCA0EB080064287DD853
:10429000DAF80000C005F5D5DFF8608308F168089A
:1042A000D8F8000010F440702AD0218E01F440713B
:1042B000814225D0D8F80010D8F8002021F44071B0
:1042C00042F48032C8F80020D8F8002022F480326E
:1042D000C8F80020C8F80010D8F80000C0070FD0B8
:1042E000FFF79CFC824607E0FFF798FCA0EB0A0171
:1042F00041F288308142CAD8D8F800008007F3D54F
:10430000206BC0F3012103297ED0D9F8001021F4DD
:10431000F811C9F80010228ED8F80010C2F30B0271
:104320001143C8F800102078C00607D5286820F08F
:10433000807028602868A16B084328602188AF48F6
:104340008830490405D5626E016821F4403111437B
:1043500001602188090405D5A26E016821F440217D
:10436000114301602168C90305D5E26E016821F49B
:104370004011114301602168890305D5226F01684E
:1043800021F4400111430160217800E034E1490645
:1043900005D5626C016821F00301114301602178A9
:1043A000090605D5A26C016821F00C0111430160DA
:1043B0002188C90505D5E26C016821F0300111435F
:1043C00001602188890505D5226D016821F0C001B1
:1043D000114301602188490505D5626D016821F40A
:1043E0004071114301602188090505D5A26D01685E
:1043F00021F44061114301602188C90407D5E26DB1
:10440000016821F4405100E05FE011430160218820
:10441000890405D5226E016821F4404111430160F1
:104420002168490205D5A26F016821F0806111431E
:10443000016021684FF0006A890209D5E26F0168C6
:1044400021F0006111430160E16F514500D1012766
:1044500021680A0700D50127490305D5626F016865
:1044600021F04071114301602168090206D5D4F89A
:104470008020016821F080511143016021684901C9
:1044800006D5D4F88420016821F000511143016061
:104490002068000106D5D4F88810286820F0007044
:1044A000084328602068C00006D5D4F88C1028681E
:1044B00020F0806008432860DFF84891012E0ED07C
:1044C0002068B0F1007F0AD08FE04F4AD9F8003061
:1044D000104023F4F8120243C9F800201BE7D9F872
:1044E00000004E4620F08060C9F80000FFF796FB00
:1044F000804605E0FFF792FBA0EB080064287BD81C
:1045000030680001F6D421783C487C30C90712D0CD
:10451000616B81B9237A62680168D0F800C09201AA
:10452000C1F3014142EA0142CCF3036142EA016175
:1045300041EA0371016021680A0303D5E26BB2F519
:10454000801F04D0C9021AD5216C594517D1636860
:10455000016894F80CC002689B01C1F3014143EA71
:104560000141C2F3027241EA0C6141EA0271016049
:104570002968626A21F01F01521E114329602168D7
:10458000C90110D5238A62680168D0F800C0920181
:10459000C1F3036142EA034242EA0162CCF30271D1
:1045A00042EA01710160216889010CD56168228AA3
:1045B000237B94F808C0890141EA024141EA036182
:1045C00041EA0C7101603168B04641F080613160B0
:1045D000FFF724FB064604E0FFF720FB801B64285E
:1045E0000AD8D8F800000001F6D5E7B3D9F80000E2
:1045F0004E4620F0805009E07BE000000838024081
:104600000070004000380240FFFCFF0FC9F80000B6
:10461000FFF704FB074604E0FFF700FBC01B64281C
:1046200067D83068C0438000F6D5216835480A0352
:1046300001D5E26B1AB1C9021DD5216CD9B96369E4
:104640000168277E02689B01C1F3014143EA0143EF
:10465000C2F3027143EA076242EA0171016029680C
:104660006FF0FF0300E04BE0A26A21F4F85103EB86
:104670000222114329602168890212D5E16F514558
:104680000FD1238C6269016807689201C1F303614D
:1046900042EA034242EA0162C7F3027142EA01714F
:1046A00001602178090716D561690268D0F800C059
:1046B0008B01277FC2F30362CCF3014143EA01413E
:1046C00041EA026141EA077101602868E16A20F469
:1046D000403008432860306840F080503060FFF779
:1046E0009DFA044608E000BFFFF798FA001B642813
:1046F00002D90320BDE8F88F3068C0438000F3D4AE
:104700000020F7E7883802402DE9F04705000F4602
:1047100063D0444E306800F00F00B84209D23068D0
:1047200020F00F0038433060306800F00F00B842CE
:1047300053D128683C4C810712D5400703D5206827
:1047400040F4E05020602878000703D5206840F44A
:1047500060402060A968206820F0F00008432060D5
:104760002878C0072AD0304968680839012810D055
:104770000968022810D0890700292EDA216821F063
:10478000030101432160FFF749FA804641F288396D
:104790000DE009688903EFE78901EDE7FFF73EFACD
:1047A000A0EB0801494502D90320BDE8F0876868FD
:1047B000216801F00C01B1EB800FEFD1306800F0FF
:1047C0000F00B8420BD9306820F00F00384330603A
:1047D000306800F00F00B84201D00120E5E72878EA
:1047E000400705D5E968206820F4E05008432060C0
:1047F0002878000706D52869216821F4604141EA3C
:10480000C000206000F036F82168084AC1F30311A7
:10481000515CC840064908600020FFF729FC0020D1
:10482000C3E70000003C02400838024068800008EE
:10483000400000200449054809680068044AC1F3A3
:104840008221515CC8407047083802404000002077
:10485000788000080449054809680068044AC1F3E3
:104860004231515CC8407047083802404000002087
:1048700078800008154910B51548096811F00C0238
:1048800013D04110042A0FD0082A0ED10F4C241F38
:104890002268236802F03F025B0207D52068C0F35C
:1048A0008810A0FB010106E0084610BD2168C1F395
:1048B0008811A1FB00010023FBF7BAFC2168C1F3BA
:1048C0000141491C4900B0FBF1F010BD083802401D
:1048D0000024F4002DE9F84F05004FF000076ED0DA
:1048E0002878DFF82093A9F1040AC007AAF104048C
:1048F0004CD0D9F800104846C1F38101012908D0F5
:104900000068C0F3810002280AD1DAF800004002F2
:1049100006D52068800339D568680028DFD035E0E7
:104920006868B0F5803F0BD010B1B0F5A02F11D062
:10493000206820F480302060206820F4802002E08D
:10494000206840F480302060686890B1FFF766F915
:1049500006460AE0206840F480202060F0E700BFAF
:10496000FFF75CF9801B642872D820688003F7D5B4
:104970000CE0FFF753F9064605E000BFFFF74EF9DC
:10498000801B6428F0D820688003F7D4287880073B
:1049900042D5D9F80010484611F00C0F08D0006835
:1049A000C0F3810002280BD1DAF80000400207D4DE
:1049B0002068800718D5E868012800D114E01EE1BE
:1049C000E8680028206817D040F001002060FFF759
:1049D00025F9064605E000BFFFF720F9801B0228F5
:1049E000C2D820688007F7D52869216821F0F8012E
:1049F00041EAC00020600FE020F001002060FFF7D6
:104A00000DF9064605E000BFFFF708F9801B0228F4
:104A10001ED820688007F7D42878000729D5794860
:104A200069696C3000298046016812D041F00101AB
:104A30000160FFF7F3F8064605E000BFFFF7EEF868
:104A4000801B022804D8D8F800008007F6D510E0B3
:104A500089E021F001010160FFF7E0F8064604E07B
:104A6000FFF7DCF8801B02287DD8D8F8000080070B
:104A7000F6D4287840076BD5DFF8888108F138082C
:104A8000D8F80000C0000BD4D8F8001041F08051D5
:104A9000C8F80010D8F80000012700F080500090FE
:104AA00059480168C90512D40168834641F48071F0
:104AB0000160FFF7B3F8064605E000BFFFF7AEF868
:104AC000801B64284FD8DBF80000C005F6D54D4E9A
:104AD000A868683601280AD008B1052811D03068C6
:104AE00020F001003060306820F0040002E03068FF
:104AF00040F001003060A868A0B1FFF78FF883464E
:104B00000CE0306840F004003060F0E7FFF786F812
:104B1000A0EB0B0141F28830814268D830688007F1
:104B2000F4D50EE0FFF77AF8834607E0FFF776F852
:104B3000A0EB0B0141F28830814258D830688007E1
:104B4000F4D42FB1D8F8001021F08051C8F800102B
:104B5000A869E0B3D9F80010C1F3810102294ED051
:104B60000228206800E042E020F08070206003D03E
:104B7000FFF754F805463DE0FFF750F8064604E01D
:104B8000FFF74CF8801B022831D820688001F7D449
:104B9000D5E90921DFF874C0D5E9070695F830306A
:104BA0004F0895F82C1030430CEB074545EA82126C
:104BB000104340EA016040EA0370CAF80000206830
:104BC00040F080702060FFF729F8054605E014E00A
:104BD000FFF724F8401B022809D820688001F7D588
:104BE0000BE000BFFFF71AF8401B022802D9032090
:104BF000BDE8F88F20688001F4D40020F8E7012098
:104C0000F6E7000008380240007000400000FFFF97
:104C1000401EB0F1807F10B501D3012010BD4FF0D0
:104C2000E02460610F21601702F0E5FC0020A06124
:104C30000721216110BD7047704770472DE9F0438F
:104C400090F83C20012A42D0012280F83C2051F803
:104C50000C4BDFF880804FF0000991E8680051E9C3
:104C6000022723F44073B1F80CC03B43CF6923F40F
:104C700080631343026823F40063234323F48053C7
:104C800043EA050323F4005343EA060323F4804375
:104C900043EA07030C3923F47023424543EA0C43EB
:104CA00002D00D4CA2420CD18D8C23F47006D1E9B8
:104CB000073446EA055121F08071194321F0007351
:104CC0002343536480F83C900020BDE8F083022029
:104CD000FBE70000000001400004014070B590F8BF
:104CE0003C20012A24D0134C012580F83C5002229C
:104CF00080F83D2002685368A242966802D00E4CAC
:104D0000A24203D14C6823F4700323430C6823F0C0
:104D1000700389681C435460002326F080060268F3
:104D20003143916080F83D5080F83C30184670BDAA
:104D3000022070BD000001400004014010B50400D5
:104D400003D094F83D0010B107E0012010BD002011
:104D500084F83C00204600F00DF8022084F83D0065
:104D60002068211D01F0E2FF012084F83D000020B1
:104D700010BD000008B500680B49884212D10B48ED
:104D8000016841F01001016000680022012100F07B
:104D9000100000903620FFF7B1F9BDE8084036203A
:104DA000FFF79EB908BD00000010004040380240E7
:104DB0000168094ACB6843F00103CB600168886849
:104DC0001040062806D0B0F5803F03D0086840F0B8
:104DD000010008600020704707000100704770B5AF
:104DE0000446006800250169C943890715D4C168D4
:104DF000C943890711D4EA1E026101212177206885
:104E000080698007204602D0FFF7E8FF04E000F049
:104E100034F9204600F026FA257720680169C94355
:104E2000490717D4C168C943490713D402216FF059
:104E30000402026121772068806910F4407F2046D7
:104E400002D0FFF7CBFF04E000F017F9204600F096
:104E500009FA257720680169C943090716D4C16892
:104E6000C943090712D404216FF0080202612177B7
:104E70002068C0698007204602D0FFF7AFFF04E03A
:104E800000F0FBF8204600F0EDF925772068016975
:104E9000C943C90617D4C168C943C90613D4082138
:104EA0006FF01002026121772068C06910F4407F22
:104EB000204602D0FFF792FF04E000F0DEF8204623
:104EC00000F0D0F9257720680169C943C90708D1E6
:104ED000C168C943C90704D1891E0161204600F099
:104EE000E9F920680169C943090609D4C168C943C1
:104EF000090605D46FF0800101612046FFF79CFE92
:104F000020680169C943C90509D4C168C9430906B4
:104F100005D46FF4807101612046FFF78CFE206894
:104F20000169C943490609D4C168C943490605D482
:104F30006FF040010161204600F0EEF92068016940
:104F4000C94389060BD4C168C943890607D46FF0E9
:104F5000200101612046BDE87040FFF76EBE70BDC4
:104F600030B587B0044614216846FBF7ABF92468D6
:104F70000022214802231F490125844211D10868DB
:104F800040F0100008600868694600F010000590C5
:104F90004FF4C4400090CDE901321848CDE9032513
:104FA00024E01748B4F1804F12D0164DAC421FD107
:104FB0000C6844F001040C60096801F001010591DE
:104FC00008210091CDE90132CDE9032369460DE0C6
:104FD0000C6844F001040C600968009301F00101C1
:104FE000CDE901320392CDE904516946FEF718FD7F
:104FF00007B030BD303802400000014000100240D0
:1050000000000240000C004070B5044690F83C00DF
:1050100001280ED0012584F83C50022084F83D0080
:105020000C2A19D007DC5AB1042A0DD0082A1ED147
:105030000EE0022070BD102A12D0142A17D113E0FE
:10504000206801F0E7FE12E0206801F01DFF0EE08D
:10505000206801F055FF0AE0206801F08DFF06E0AE
:10506000206801F0B5FF02E0206801F0DDFF0020BC
:1050700084F83D5084F83C0070BD704710B50400C2
:1050800003D094F83D0010B107E0012010BD0020CE
:1050900084F83C00204600F00CF8022084F83D0023
:1050A0002068211D01F042FE012084F83D0000200F
:1050B00010BD704770B5044690F83C000D460128BD
:1050C0000ED0012684F83C60022084F83D000C2AB2
:1050D00045D007DC5AB1042A1BD0082A78D12CE02D
:1050E000022070BD102A4ED0142A71D15DE02068D4
:1050F00001F090FE2068816941F00801816120681B
:10510000816921F00401816120682A698169114364
:1051100011E0206801F0B8FE2068816941F4006167
:1051200081612068816921F4806181612068296939
:10513000826942EA012181614AE0206801F0E0FED3
:105140002068C16941F00801C1612068C16921F08E
:105150000401C16120682A69C169114311E0206816
:1051600001F00AFF2068C16941F40061C161206853
:10517000C16921F48061C16120682969C26942EA7C
:105180000121C16124E0206801F022FF2068416D07
:1051900041F0080141652068416D21F0040141653D
:1051A00020682A69416D114311E0206801F03CFF3D
:1051B0002068416D41F4006141652068416D21F432
:1051C0008061416520682969426D42EA012141659B
:1051D000002084F83D6084F83C0070BD10B50400E8
:1051E00003D094F83D0010B107E0012010BD00206D
:1051F00084F83C00204600F00DF8022084F83D00C1
:105200002068211D01F092FD012084F83D0000205E
:1052100010BD000008B501680E48814201D10E485A
:105220000FE00E48B1F1804F0BD00D4A914207D1EB
:10523000016841F008010160006800F0080000907A
:1052400008BD016841F001010160006800F0010043
:10525000F5E70000000001404438024040380240B9
:10526000000C00407047000010B5012204460068A1
:1052700001F0C2FD0C492068884202D00B498842E7
:1052800003D1416C41F4004141642068084A8168BF
:105290001140062906D0B1F5803F03D0016841F0E6
:1052A00001010160002010BD000001400004014028
:1052B0000700010070B500681449884224D1144CDD
:1052C0006068401C6060A068401CA060E068401CF2
:1052D000E060FCF74BF860680025322804DB20789A
:1052E00008B1FCF7ABFE6560A068B0F5FA7F05DB9E
:1052F00008484FF40071FEF784FCA560E0680A28B6
:1053000002DBFCF7A3FFE56070BD00000010004069
:1053100010000020000C0240704770472DE9F0415A
:10532000026804460025D0691168936810F00F0FD9
:105330005BD003F0010601F49077374369D0C707CB
:1053400007D0CF0505D501271762E26F42F00102B1
:10535000E267820708D5DA0706D0276802223A6298
:10536000E26F42F00402E267420708D5DA0706D08E
:10537000236804221A62E26F42F00202E267020727
:105380000AD501F02002324306D0236808221A62AF
:10539000E26F42F00802E267E26F002A32D0800634
:1053A00005D5880603D5216E09B1204688472168B6
:1053B000E06F8968490601D4000725D5204601F031
:1053C00030FF20688168490619D5816821F04001C5
:1053D0008160E06E98B11A490165E06EFEF77BF9D5
:1053E00000280FD0E06E016D06E0830611D58B0614
:1053F0000FD5216E12E02046BDE8F0410847204657
:10540000FFF78BFFBDE8F0812046FFF786FFE567D9
:10541000F8E7030605D50B0603D5616E0029EAD12E
:10542000F0E74006EED54806ECD51368202120466B
:1054300023F0400313606167656600F0D1F9E1E78E
:105440009171000810B5040002D0606F10B107E040
:10545000012010BD002084F87000204600F026F8DE
:10546000242060672068016821F001010160204666
:1054700001F04AFF0128ECD0606A10B1204601F02B
:1054800005FE2068416821F49041416020688168F0
:1054900021F02A0181602068016841F0010101606A
:1054A0002046BDE8104001F055BE000070B586B042
:1054B000064614216846FAF705FF224930688842FB
:1054C0003ED12148016841F400210160006800F4E8
:1054D000002005901C481038016841F0040101606B
:1054E00000680025022100F0040005904FF44060A0
:1054F00008238DE8230003221448CDE903236946DD
:10550000FEF78EFA124C402212484FF0006184E8F8
:10551000270003152046C4E90435A561E56125622D
:105520006562FEF7BBF908B1FBF7A5FDB466002282
:105530000621A6633420FEF7E1FD3420FEF7D0FDFE
:1055400006B070BD004C00404038024000080240E8
:105550003C1100207060024070B5836F202B4BD14E
:10556000B9B1B2B190F87030012B45D083680126F3
:1055700080F870600024416535030466AB42A0F8F2
:105580005820A0F85A204FF0FF0107D1026912B14C
:1055900026E0012070BD40F2FF1121E04FF07F02B4
:1055A000E3B1B3F1805F1ED0A0F85C402221C46754
:1055B000816701688A6842F001028A608168A942B5
:1055C00001D10169B1B10D49016680F870400068F0
:1055D000016841F490710160002070BD036933B926
:1055E000A0F85C10E2E7016909B13F21F8E7A0F8F3
:1055F0005C20DBE70249E7E7022070BDAD720008DE
:10560000537200082DE9F04772B64B4C00264B4A06
:105610004FF00109651C237843B14948012B494FDC
:105620004FF4006109D0022B21D034E06878287053
:10563000A87868701078A8702DE05FF000032670DD
:1056400012F803C007F803C05B1C0A2BF8DBFEF757
:10565000D8FAC4F8109097ED040BB7EE001BB4EE27
:10566000410BF1EE10FA16D1FCF74EFA13E0334B72
:1056700026700A335FF0000207EB020813F802C03D
:10568000521C142A88F848C0F6DBFEF7BAFAC4F8B0
:105690001090FCF7BFFE28490322491CC81CFAF7EA
:1056A0001CFEB8B124490322491CC81DFAF715FE97
:1056B000F0B121490322491C01F10B00FAF70DFE5C
:1056C00028B31E49012201F12000FFF745FF62B611
:1056D000BDE8F08719490A2284F8009001F1200002
:1056E000FFF73AFF00202E54401C0328FBDBEEE7B7
:1056F00012490220142220700A3101F11600FFF72E
:105700002BFF00202E54401C0328FBDBDFE70E4854
:105710002670017869B1002101700849012201F168
:105720002000FFF719FF00202E54401C0328FBDB4C
:10573000CDE70121F0E70000200000209C100020B0
:10574000000C0240180C00201000002070B5044628
:10575000406F20283BD161B35AB394F87000012800
:1057600035D0A4F85020A4F852200025A06E0123C3
:10577000E164212184F87030E5676167D8B115498B
:105780001346C163A16E14480864A16E1348C8642F
:10579000A06E05652068A66E00F12802E16C304617
:1057A000FEF7EEF838B11021E167202084F8705040
:1057B0006067012070BD21684020086284F8705045
:1057C0002068816841F080018160002070BD022066
:1057D00070BD0000EB71000819720008A571000887
:1057E00070477047FEE700000148FEF775BA0000F9
:1057F000500F002010B5806B0021826B1165C26BC9
:10580000116590F84110602902D0FEF76DFA10BDC5
:10581000202180F84110FEF75DFA10BDCA074FF055
:1058200028034FF0000210B506D090F84140422204
:1058300033EA040400D0F2228C0707D590F84140E7
:1058400042F04402A34301D042F0B0024B0701D51D
:1058500042F0B80211238B4301D142F0900212238F
:105860008B4301D142F060020068016891430160FE
:1058700010BD000030B5144D1223446B00228B4341
:10588000AC4202D0114DAC420BD14C0700D5B8222E
:1058900011248C4301D142F0900283B942F060029E
:1058A0000DE04C0700D5B822CC0701D042F0F2023F
:1058B000890701D542F0F4020BB942F020020068DA
:1058C00001681143016030BD995D000899600008CE
:1058D00001688A69D243920701D400228A62006873
:1058E0008169C943C90703D0816941F00101816120
:1058F00070472DE9F041044690F841002821002529
:1059000008238143206804D0C36184F84050BDE877
:10591000F081876986694FF0FE0E8168C268C7F31F
:105920000047D4F80CC00EEA164602F0FE02BCF1A5
:10593000020FC1F3090118D14FF0060C06F006065C
:105940000CEAD11C66450FD1A66C0A46761CA664EB
:10595000A16C0229DBD1A564C36184F840503946AB
:105960002046FEF7B8F9D2E7164620460421FFF795
:1059700055FF324684F84050F1E7000070B5344AD4
:105980000025044690F84100202684F84250E26247
:105990006585626C282842EA0102626425D02928C4
:1059A00023D02A2821D007212046FFF737FF94F87B
:1059B0004100602801D084F8416025636563206858
:1059C00024490268520402681AD522F48042026017
:1059D000A06B002833D0016584F84050A06BFDF720
:1059E0007AFE00282BD0A06B1CE003212046FFF795
:1059F00015FF19492820616384F841002563DEE71B
:105A0000120413D5026822F400420260E06B002801
:105A100015D0016584F84050E06BFDF75CFE00286E
:105A20000DD0E06B016DBDE87040084794F841006F
:105A3000602805D0204684F84050FEF755F970BD27
:105A400084F84160204684F84050FEF743F970BD69
:105A50000000FFFFF55700087961000870B50446A3
:105A6000164AC843002541074FF02000E262256333
:105A700084F8410084F84250656311D42068616A5B
:105A8000406A0870606A401C6062208D40B1618D80
:105A9000401E2085491E6185606C40F004006064F2
:105AA00007212046FFF7BAFE21681020C861204672
:105AB00084F84050FEF776F970BD00000000FFFF4B
:105AC0002DE9F0410446006820260025C943C6613F
:105AD0002068CB06274A284F416801EA020141604D
