:020000040800F2
:10000000B80B00200D02000849500008A943000861
:10001000ED4F0008990A00082F600008000000005A
:100020000000000000000000000000000956000869
:10003000E50B000800000000A55000080B56000862
:1000400027020008270200082702000827020008EC
:1000500027020008270200082702000827020008DC
:1000600027020008270200082702000827020008CC
:10007000270200082702000827020008290B0008B1
:100080002702000827020008550900082702000877
:10009000270200082702000827020008270200089C
:1000A000270200082702000827020008270200088C
:1000B000270200082702000801570008B94300087A
:1000C000AD430008270200082702000827020008A5
:1000D000270200082702000827020008270200085C
:1000E000270200082702000827020008270200084C
:1000F000270200082702000827020008270200083C
:10010000270200082702000827020008270200082B
:10011000CD5A00082702000827020008270200081D
:10012000350B0008270200082702000827020008F4
:1001300027020008270200082702000827020008FB
:1001400027020008270200082702000827020008EB
:1001500027020008270200082702000827020008DB
:1001600027020008270200082702000827020008CB
:1001700027020008270200082702000800000000EC
:1001800027020008270200082702000827020008AB
:10019000270200082702000827020008270200089B
:1001A000270200082702000827020008270200088B
:1001B000270200082702000827020008270200087B
:1001C000270200082702000800000000270200089C
:1001D000270200082702000827020008270200085B
:1001E000270200082702000827020008270200084B
:1001F0002702000827020008DFF80CD000F09CF866
:100200000048004771630008B80B0020064880478B
:1002100006480047FEE7FEE7FEE7FEE7FEE7FEE7EB
:10022000FEE7FEE7FEE7FEE7AD560008F90100082D
:100230002DE9F05F0546002092469B46884606461B
:10024000814640241BE0284641464746224600F0AE
:1002500062F853465A46C01A914110D311461846C7
:10026000224600F049F82D1A67EB01084F46224656
:100270000120002100F040F817EB00094E41201E3C
:10028000A4F10104DFDC484631462A464346BDE876
:10029000F09F40EA01039B0703D009E008C9121F41
:1002A00008C0042AFAD203E011F8013B00F8013B30
:1002B000521EF9D27047D2B201E000F8012B491E5C
:1002C000FBD270470022F6E710B513460A460446F3
:1002D0001946FFF7F0FF204610BD30B50546002057
:1002E000034600E05B1C934205D2EC5CC85C201A1C
:1002F00001D1002CF6D130BD202A04DB203A00FACF
:1003000002F1002070479140C2F1200320FA03F36C
:10031000194390407047202A04DB203A21FA02F06A
:100320000021704721FA02F3D040C2F1200291402F
:100330000843194670470000064C074D06E0E06888
:1003400040F0010394E8070098471034AC42F6D31C
:10035000FFF756FF90660008B06600082DE9F041EF
:10036000534C06461746204600F11403B4F81C53BC
:1003700000F2BE22B0F81E03A5F5407CBCF1050CCE
:1003800028D0B5F5017F3ED0B5F5007F42D0A5F568
:10039000007E4FF0010CBEF5837E25D0A5F50071DF
:1003A00001393ED0A5F50071023945D0A5F500719F
:1003B00003394DD0B5F57A7F60D0A5F50071593974
:1003C0005AD0B5F5167F60D05FF0030084F8F003D3
:1003D000BDE8F081022684F8F063A4F82603002526
:1003E0000D80B4F8200308E00A2084F8F003A1F897
:1003F00000C0B4F81E43B4FBF0F038800988BDE8B3
:10040000F04100F057B8072084F8F003BDE8F04150
:1004100006F07EB8092184F8F013BDE8F04106F03B
:1004200055B8052184F8F013050A1E2D02D90020C5
:1004300006F00EF8284607E084F8F0C306F008F846
:10044000B4F8B8020028C3D1BDE8F04106F014B8F2
:100450006422062184F8F0135043B0F5803F01DB9D
:100460004FF6FF70124A80B23080BDE8F0411C3276
:1004700002F5457105F027BB0420A7E7082184F8A1
:10048000F013BDE8F04106F00DB80B2184F8F0132D
:10049000A4F82A03B4F82003A4F82803B4F822032C
:1004A000A4F82E03B4F82403A4F82C0390E700006A
:1004B0000803002010B51C8814805C8854809C8838
:1004C000948022F8110010881880508858809088F5
:1004D000988010BD2DE9F04FF54C02254FF003092F
:1004E0004FF0000B26464FF001082DED028B81B036
:1004F00006F1110006F2C5360090B4F8AA02B4F86D
:10050000AE12884238D0B4F8AC12B4F8B0028142CE
:1005100032D00099304600F08FFB00205E46A4F8F0
:1005200016B300F0EFFAB4F8AC0228B1022803D0F9
:10053000012801D003280ED084F8DD6384F8DC6341
:1005400084F8DB6384F8D993B4F8AA12A4F8AE1245
:10055000A4F8B00231E084F8DD6384F8DC6384F849
:10056000D983B4F8A612A4F85413B4F8AA12A4F8C4
:10057000AE12A4F8B0021CE0CD49192794F8DB03B1
:10058000012891F8DDC3B1F85433B1F8A822B1F8CD
:10059000A61206D0022879D199420CD0012A76D031
:1005A00009E094F8DC03012810D002286ED184F809
:1005B000DCB384F8DB53A4F8168305F04DFE01B0DC
:1005C000BDEC028BBDE8F04F05F02ABE994200D089
:1005D0006AB1A2469FEDB78BB548BCF1060FB0F8E3
:1005E000580353D2DFE80CF0DB0A8FE6FDFCA4F8D9
:1005F000541384F8DDB384F8DC53EBE0012854464F
:100600007BD8994201D0022A04D084F8DD83A4F873
:100610001693F5E00520A4F8541384F8DD030020B8
:1006200005F062FE00EE100AB8EEC00B84ED0C0B74
:10063000B4EEC80BF1EE10FA0CD2B5EEC00BF1EE31
:1006400010FA05DBBCEEC00B10EE100AC0B202E0DF
:10065000002000E0FF2000F055FA022005F044FEE3
:100660003E46274690FBF6F10020C4F8EC1105F059
:100670003BFE0446012005F037FE002C014607DB57
:100680006FF00040221A91420ADB08E087E0DBE0CD
:1006900004F10040814202DD4FF0004000E0601AAA
:1006A0006FF0004280FB06400021121B814102DAFC
:1006B0006FF0004407E04FF00041611A70F1FF3025
:1006C00001DA4FF00044022005F00EFE00EE100AA1
:1006D000774A40462946B8EEC01B00EE104AB8EEF5
:1006E000C00B80EE012B87ED0E2BA7F85863A7F8FF
:1006F0001883A7F81A53D4E0FFE7401E00D5002066
:10070000AAF8580381E0012854464DD8D4F8EC01EA
:10071000002806DD012005F0E7FD94F8C8138842A3
:100720000FDB002000F0EEF90099304600F084FA6B
:1007300084F8DD93A4F8587394F8BF0384F8EB03AE
:100740003DE084F8DD5394ED0C0B94ED0E1B30EE80
:10075000410B84ED0C0BB4EEC80BF1EE10FA0DD288
:10076000B5EEC00BF1EE10FA06DB00BFBCEEC00B1D
:1007700010EE100AC0B202E0002000E0FF2000F0FE
:10078000C1F9D4F8EC014FF00041884202DCC4F812
:10079000EC1102E0401EC4F8EC01A4F8587301B05B
:1007A000BDEC028BBDE8F08F401E00D50020AAF8FA
:1007B0005803F4E79AF8BF135046052906D001B054
:1007C000BDEC028BBDE8F04F05F0FEBC80F8DDB358
:1007D0008AF8DC533046009900F02EFA002001E040
:1007E0001AE006E001B0BDEC028BBDE8F04F00F06E
:1007F00089B901285146D7D881F8DD83A1F816932D
:100800006420AAF8587300F07DF901B0BDEC028BAA
:10081000BDE8F04F05F020BD01285446C4D884F847
:10082000DD5394ED0C0B94ED0E1B30EE410B84ED7B
:100830000C0BB4EEC80BF1EE10FA9FD2B5EEC00B64
:10084000F1EE10FA98DB91E7A4F85413BCF1040F11
:100850009FED1A0B84F8DB83A4F858B384ED0C0BDE
:1008600084ED0E0BC4F8ECB184F8DC8397D004203F
:1008700084F8DD03A4F816530D4DA4F8587304F260
:1008800016341235284600F0B9F928783070642003
:1008900000F038F9064A4046A4F802800146A4F860
:1008A000048001B0BDEC028BBDE8F04F05F05EBEE8
:1008B000080300200000000000007040000000005D
:1008C0000000000010B50146806B026C12F0500F62
:1008D00005D0026CD20626D501F02DFB10BD016CAF
:1008E00041F40071016401688A6812F0405F17D119
:1008F0008269AAB9CA6A12F4700F02D08A685205D6
:100900000ED44A6822F020024A60016C21F4807102
:100910000164016CC90403D4016C41F0010101645C
:1009200001F0FEFA10BD806BC26C0846BDE81040B5
:10093000104710B5806B40210164416C41F0040107
:10094000416401F0F8FA10BD10B5806B01F0F2FAC5
:1009500010BD0000014801F0EFBA00003C0000208B
:100960004A496FF0706210B5D1F8043323F4403374
:10097000C1F80433D1F8043344682343C1F8043385
:1009800001684B6823F480734B60016803694C680D
:1009900044EA03234B6001684B6823F040734B60CB
:1009A000016884684B6823434B6001688B6823F4BB
:1009B00000638B600168C4688B6823438B60816A25
:1009C000D14201688A6822F070628A6001680DD0A5
:1009D000836A8A681A438A6001688A6822F04052F2
:1009E0008A600168C36A8A681A4302E08A6822F052
:1009F00040528A6001688A6822F002028A600168B7
:100A000082698B6843EA42028A6090F820100029CC
:100A1000016811D01E4A4B6843F400634B600168C3
:100A20004B6823F460434B600168446A4B6802EBF7
:100A3000443213434B6003E04A6822F400624A6088
:100A40000168144BCA6A22F47002CA620168848B7E
:100A5000CA6A03EB04531A43CA6201688A6822F423
:100A600000728A60016890F830208B6843EA422265
:100A70008A6001688A6822F480628A60016840693D
:100A80008A6842EA8020886010BD00000020014092
:100A900000E0FFFF0000F0FFFEE700000448042133
:100AA00010B503F01FFABDE8104000F023B80000B5
:100AB0009801002010B5007888B0642800D964201F
:100AC0000B4964236024CA68002100944243B2FBAE
:100AD000F3F00422CDE9010105480491694603F0D1
:100AE00035F90348042103F0FDF908B010BD0000FA
:100AF0009801002008B564208DF800006846FFF7D3
:100B0000D9FF08BD0649642881F8C80300D36420D2
:100B1000C0F1640081F8D0030248FFF7CBBF0000AA
:100B200008030020D8060020014801F0B7BC0000EF
:100B3000A4020020014801F0B1BC000084000020A4
:100B400001681823CAB2103AB2FBF3F2054B6FF3F7
:100B50000901032A9B5CC36500D9091D816508460C
:100B6000704700006E66000810B583694FF0C074CE
:100B7000826A0146002053B1B3F5005F15D072B10F
:100B8000012A0CD0022A0AD0032A09D104E01AB1A2
:100B9000012A06D0022A03D1C96AC90100D5012061
:100BA00010BDC96AA142FAD010BD002AF7D0012AAF
:100BB000F2D0022AF3D0032AF3D010BD30B5046876
:100BC000256825F480252560046863608368402BD0
:100BD000036803D099600068C26030BD9A60006805
:100BE000C16030BD704770470121017002480A465C
:100BF000022101F0D8BE0000000C0240012101706A
:100C000002480A46042101F0CEBE0000000C02405A
:100C10000021017002480A46022101F0C4BE000012
:100C2000000C02400021017002480A46042101F034
:100C3000BABE0000000C024070B505460C460846DE
:100C4000FFF7F0FF2078287070BD70B505460C46A0
:100C5000084600F003F82078287070BD012101706B
:100C60007047002101707047704700001A48032147
:100C700010B5002280F82610417680F82710817682
:100C80004170017011464318491C17299A70FADB0C
:100C900000214318491C0B29DA76FADB0F4808219A
:100CA0004FF0FF32C0F8E82180F8D613C83005F0C5
:100CB00023FB0A48F43005F035FBFFF7EFFEFFF7A2
:100CC00092FF00F0A9FF03F093FE03F09BFEBDE846
:100CD000104003F09DBE0000000700200803002024
:100CE0002DE9F04FCD4E8BB000256F46A6F57E74F2
:100CF00004EB85007119891CD0F8F420002005F060
:100D00006DFB78556D1C172DF2DB002000E009B952
:100D1000395C01B10121401C1728F8DBC04882462C
:100D200021B15C2200F18801FFF7B3FA002507AF7B
:100D300004EB850071191B31D0F8C820002005F0A4
:100D40004DFB78556D1C0B2DF2DB002000E009B93E
:100D5000395C01B10121401C0B28F8DB41B10020B6
:100D600004EB8001401C0B28D1F8C8200A64F7DB93
:100D7000D4F8D871D4F8DC510020A8493A4626317D
:100D800005F02CFBA549804600202A46273105F0B6
:100D900025FB58EA000116D0A049C4F89872AC3976
:100DA000A4F84C53A1F1B40005F054FC5FF000002E
:100DB00004EB8001401C0B28D1F8AC210A64F7DB5E
:100DC00004EB87000564D4F8E071D4F8E451002006
:100DD00092493A46193105F001FB904980460020BE
:100DE0002A461A3105F0FAFADFF834B258EA000060
:100DF0000BF1E40B11D00BF5FD71C4F89472A1F165
:100E0000B600A4F84A5305F025FC5C22594650462A
:100E1000FFF73FFA04EB8700C566012594F8D3136A
:100E200000204FF0FF324FF0020984F8BF1394F90D
:100E30005A1301EB410104EB4101B1F8D832A4F897
:100E40009C32B1F8DA32A4F89E32B1F8DC12A4F880
:100E5000A01294F95B1304EB8101B1F8E432A4F819
:100E6000A232B1F8E612A4F8A41294F8D41384F8CC
:100E7000C01394F95C1304EB8101B1F8EC32A4F8CF
:100E8000A632B1F8EE12A4F8A81294F95D1304EB9F
:100E9000410191F8B93384F8653391F8BA1384F8B5
:100EA000661394F95E1304EB8101B1F8F432A4F8EF
:100EB000AA32B1F8F612A4F8AC12C4F8E82194F8FA
:100EC000D813F1B194F8DA0308B103F0ABFD94F84C
:100ED000DF03A04608B104F08BF898F8E10308B1ED
:100EE00000F07EFC98F8EA0378B34D49642798F83F
:100EF000E9036239012829D002283DD003284CD1CA
:100F00003AE084F8D85384F8DA53A4F85403A4F8E8
:100F1000560384F8EC0384F8D99384F8DF5384F8FB
:100F2000DE5384F8E153C4F8F00194F8E013042987
:100F300002D0042284F8E02384F8EA53032284F8E0
:100F4000ED0384F8EE0384F8E92326E098F8EE0335
:100F500058B198F8C02398F8ED339A4212D1401E48
:100F600000D5002088F8EE0317E02C4888F8E993B4
:100F70002F38FFF776FE10E098F8C00398F8ED23BD
:100F800090420AD006A888F8E953FFF75EFE98F869
:100F9000C00388F8ED0388F8EE7394F8C50308B130
:100FA000012200E00022717801290ED000239A422C
:100FB00003D0032901D084F8C40300B1012070706C
:100FC00094F8D50318B1012102E00123EFE70021D5
:100FD000307801281FD00022914205D0032803D089
:100FE00094F8D50384F8C40394F8D50300B1012024
:100FF00051465C2230705846FFF74BF95FF0000015
:1010000004EB8001401C0B280A6CC1F8AC21F7DB13
:101010000BB0BDE8F08F0122DEE7000000070020E2
:10102000740300202DE9F04FFE4C85B0012540F2FD
:1010300002292046022694F8C713032784F8C11317
:101040004FF47A7A94F8D623B0F85203092A4ED294
:10105000DFE802F04D056411641B223D47000620C5
:1010600084F8D6034FF40071A4F810134FF4C8723B
:10107000A4F8122352E0042802D005F089FA4DE0CA
:1010800084F8D663A4F810A30FE084F8D653A4F82C
:101090001093A4F8125341E0012801D041B113E0AC
:1010A000072084F8D603A4F81093A4F8126335E05F
:1010B00094F8D723012A07D1401CB0F5803F01D313
:1010C0004FF6FF70A4F8520384F8D71326E084F893
:1010D000D6730020A4F81003A4F84E03A4F850031C
:1010E0001CE009209FEDD00B84F8D60314E094EDAA
:1010F0000A0BB2EE041BB4EE410BF1EE10FA07D16D
:10110000052184F8D613A4F810A3A4F8127305E0FF
:10111000B7EE001B30EE010B84ED0A0BC448C54945
:10112000A0F15D020B46CDE90010911E613803F07D
:101130008CFFBF49AF3191ED040BBDEEC00B10EE3B
:10114000100A012836D002284FF000003BD02118A9
:10115000401C0A2891F8712381F86723F7DBB44912
:10116000A34694F8C8234D3984F8C223881E831EF1
:10117000CDE90001021F811F453004F045FF94F8BE
:10118000EF0348B3A7495C469BF8F0034FF00A0E03
:1011900001F1140301F2BE2201F11C0C0B2801F530
:1011A0004C716ED2DFE800F06D1B21272D33393FE3
:1011B00045B8EE00002023180A5C401C0A2883F87A
:1011C0006723F8DBCBE70A182318401C127E0A2895
:1011D00083F86723F7DBC2E78BF8EF5381E004AABB
:1011E00003A902A8FFF7BAF8F6E004AA03A902A827
:1011F00000F042FCF0E004AA03A902A803F04CFBB3
:10120000EAE004AA03A902A803F04EFFE4E004AA5E
:1012100003A902A803F0F4FFDEE004AA03A902A8D0
:1012200004F09AF8D8E004AA03A902A804F040F94F
:10123000D2E0B4F81C03A0F54078B8F105087DD0E1
:10124000B0F5017F1ED0B0F5007F78D0A0F54076D4
:10125000063E0FD0A0F50072013A1CD0484529D1B6
:1012600084F8F053B4F81E0305F0F2F8B4F8B802AD
:10127000E8B1B1E084F8F0E3BBF81E13B1FBFEF077
:1012800095E0A4E007208BF8F00305F041F9A3E016
:10129000FFF710F9A0E0052084F8F003BBF81E0367
:1012A000040A1E2C02D9002005F0D2F8204605F0D1
:1012B000E3F891E0A0F50072033A51D0504509D10E
:1012C000BBF81E0305F0EEF886E080B2624604F03B
:1012D000FAFB81E0A0F50071593905D0B0F5167F11
:1012E00006D08BF8F07377E004208BF8F00373E0FE
:1012F0000B2084F8F003B4F81E03A4F82A03B4F812
:101300002003A4F82803B4F82203A4F82E03B4F8A9
:101310002403ABF82C035FE0B4F81C03A0F540787D
:10132000B8F1050845D0B0F5017FABD0B0F5007F2E
:1013300023D0A0F54076063E9CD001E039E042E0A3
:10134000A0F50072013AA6D0484589D0A0F50072F8
:10135000033A05D05045BDD1082084F8F003AFE72B
:10136000062084F8F003BBF81E0364225043B0F556
:10137000803FAADB4FF6FF70A7E7BBF81E0305F01E
:10138000A5F829E0B4F81C03A0F54078B8F10508E9
:101390000FD0B0F5017FC8D0B0F5007F13D0A0F515
:1013A0004076063EC9D1BBF81E13B1FBFEF0012109
:1013B0006EE784F8F0630021B4F81E03A4F8260356
:1013C000BBF8200364E7092084F8F003D5E704AAFA
:1013D00003A902A804F02CFE9BF85F13584659B9E4
:1013E000B0F8BE12A0F8FC12B0F8C012A0F8FE12BD
:1013F000B0F8C212A0F8001390F8601339B9B0F831
:10140000B212A0F80213B0F8B412A0F8041390F8C6
:10141000611399B9B0F8BA12A0F80613B0F8BC126B
:101420000AE00000080300200000000000000000A7
:101430007906002056660008A0F8081390F8621399
:1014400039B990F87B1380F8BD1390F87C1380F8BD
:10145000BE1390F8261380F8C313B0F82A53B0F8DF
:101460002823B0F82E43B0F82C33C0F8D851C0F878
:10147000DC21C0F8E041C0F8E43180F8D31390F8E3
:101480005A23B0F8BE12EAB35FF0000202EB420248
:1014900000EB4202A2F8D81290F85A23B0F8C0121A
:1014A0008AB3002202EB420200EB4202A2F8DA12F7
:1014B00090F85A23B0F8C21232B3002202EB420273
:1014C00000EB4202A2F8DC1290F85A13E9B30021B3
:1014D00080F85A1390F85B23B0F8B212B2B300222E
:1014E00000EB8202A2F8E41290F85B23B0F8B41289
:1014F0006AB3002200EB8202A2F8E61290F85B13B6
:1015000031B302E06AE06BE06CE0002180F85B132D
:1015100090F8D21380F8D41390F85C23B0F8B61288
:10152000EAB3002200EB8202A2F8EC1290F85C23EE
:10153000B0F8B812A2B3002200EB8202A2F8EE12B9
:1015400090F85C1369B3002103E04DE04EE04FE0FA
:1015500050E080F85C1390F85D2390F87B13D2B3D1
:101560005FF0000200EB420282F8B91390F85D23AD
:1015700090F87C1382B3002200EB420282F8BA1387
:1015800090F85D1349B3002180F85D1390F85E2355
:10159000B0F8BA1282B3002200EB820202E02CE023
:1015A0002DE02EE0A2F8F41290F85E23B0F8BC1201
:1015B0007AB3002200EB8202A2F8F61290F85E13D2
:1015C00041B3002180F85E1390F8D11380F8D51351
:1015D00005B0BDE8F08F16E017E018E0012255E7EE
:1015E00001225FE7012269E7012171E7012277E724
:1015F00001227FE7012189E70DE0012292E7012224
:101600009AE70121A0E70122ACE70122B4E701211A
:10161000BAE702E003E00122BEE70122CAE70121A6
:10162000D0E700002DE9F04F47480123002495B092
:1016300080F85F33B0F8FCC2B0F8FE52B0F8001387
:1016400080F85F4380F86033B0F80263B0F8047349
:1016500080F8604380F861336CF30F02B0F806C382
:10166000214665F31F429346B0F8082380F8614392
:1016700080F8623366F30F0890F8BD5390F8BE33DC
:1016800080F862436CF30F0990F9634367F31F48D6
:1016900062F31F4990F8C86365F3070AB0F8165360
:1016A00004EB840290F8C743C44690F8C383520009
:1016B000CE4663F30F2A8B1800EB8303D3F81C721A
:1016C00001AB43F82170491C0A29F4DB019F4FEA62
:1016D0001B41A0F8C4724FEA1E4BA0F8C682E14637
:1016E0000B91A0F8C8120AF0FF01A0F8CA52CAF381
:1016F000072AA0F8CC42A0F8CE62A0F8D0C2A0F889
:10170000D2B20D91A0F8D4121049A0F8D6A2A1F13E
:10171000E1000C9103F0B6FC0C9804F009FF0B48B3
:10172000CB300780A0F802800B998180C5800481AE
:101730004681A0F80C90A0F80EB00D990182A0F897
:1017400012A015B0BDE8F08F08030020AD06002000
:10175000204910B501F5147004F072FF1E4890F88E
:10176000641341B900EB8102D2F8F431C2F86C3253
:10177000491C0A29F6DB194A002100BF00EB81044D
:1017800002EB8103491CD4F8F4410A295C61F5DBC2
:101790005FF0000190F8633300EB8102D2F8F4218E
:1017A0009BB1002303EB830301EB4303491C00EBD4
:1017B00083030A29C3F81C22ECDB90F8631331B1D0
:1017C0005FF0000180F8631310BD0123EAE70121F7
:1017D000F8E70000FC040020080300207807002040
:1017E0002DE9F04FA24C89B00125234603F2C63003
:1017F00094F8E0C303F2C732009003F10B0BD3F867
:10180000F00100210392032793F8E6A3421E93F808
:10181000E2930226EB07BCF1070F46D2DFE80CF09B
:101820004504F465F4BCF400BAF1010FD4460AD0C3
:10183000BCF1020F10D0BCF1030F16D0BAF1040FA7
:1018400033D1A8B3BEE0002870D184F8E81384F83F
:10185000E61384F8E063CCE0002867D184F8E673EF
:1018600000F054FAC4F8F001C3E000285ED184F817
:10187000E65300F04BFAC4F8F00194F8C80351287D
:1018800094F8E80307D201280FD0502084F8E853D9
:10189000FFF738F903E0022807D084F8E86304A9C9
:1018A000009A5B46039800F0FBF909B0BDE8F08FA1
:1018B000FFE784F8E71384F8E66300F027FA6D4A3F
:1018C000C4F8F001511E481E00F0B6F994F8CC039C
:1018D00084F8C60394F8CA0384F8C703E5E7C4F89C
:1018E000F031E2E7C4F8F021DFE7D4F8E811042092
:1018F00011B30229D9D1052284F8E023B9F1040FEC
:1019000005D084F8E20300F001FAC4F8F00194F87D
:10191000DE03032894F8E50309D00128C5D0554813
:1019200084F8E553C01CFFF75FF9BEE74AE00228E0
:10193000BBD084F8E5632AE0BAF1040F84F8E053E1
:1019400005D084F8E60300F0E1F9C4F8F00194F85A
:10195000DE03032811D004281BD000BF94F8C8036D
:101960003C2816D894F8E70301289ED05FF03C008D
:1019700084F8E753FFF7C6F897E794F8C8035028B0
:10198000ECD894F8E70303288FD084F8E77350204D
:10199000F0E784F8E76388E7B9F1010FCC460AD095
:1019A000BCF1020F11D0BCF1030F2FD0B9F1040F1D
:1019B00094D150B306E028B984F8E213062084F8E5
:1019C000E00316E098428DDC89E70028FAD184F81C
:1019D000E41384F8E27300F099F9C4F8F00194F884
:1019E000DE03032894F8E30306D001289DD084F891
:1019F000E35300F069F958E7022896D0002084F8F4
:101A0000E363FFF77FF8F4E72FE00AE00028D9D17D
:101A100084F8E31384F8E25300F078F9C4F8F00195
:101A20003DE784F8E51384F8E26300F06FF9104FA6
:101A3000C4F8F00194F8DE030E37032894F8E403A9
:101A400008D0012898D007F5707084F8E453FFF7A8
:101A5000DFF803E002288FD084F8E46304A9009A39
:101A60003B46039800F03EF91FE784F8E0731CE75B
:101A700008030020D40600202DE9F041584D00272E
:101A80000F8016462A4602F11403B5F81C4302F2F1
:101A9000BE22A4F5407CBCF1050C27D0B4F5017F33
:101AA0003DD0B4F5007F41D00127A4F5007CBCF502
:101AB000837C26D0A4F50071013940D0A4F50071D3
:101AC000023949D0A4F50071033953D0B4F57A7FB7
:101AD00069D0A4F50070593863D0B4F5167F6BD087
:101AE0005FF0030085F8F003BDE8F081022085F87F
:101AF000F003B5F81E03A5F826030F80B5F8200300
:101B000007E00A2085F8F0030F80B5F81E43B4FB08
:101B1000F0F030800988BDE8F041FEF7CBBC07202B
:101B200085F8F003BDE8F04104F0F2BC092085F827
:101B3000F003B5F81E03BDE8F04104F0C7BC052072
:101B400085F8F003B5F81E03040A1E2C02D9002004
:101B500004F07EFC204609E085F8F073B5F81E031A
:101B600004F076FCB5F8B8020028BDD1BDE8F0411C
:101B700004F082BC062185F8F013B5F81E13642228
:101B80005143B1F5803F01DB4FF6FF71144A8BB230
:101B90000380BDE8F0411C32184602F5457103F0A0
:101BA00092BF04209EE7082085F8F003B5F81E03D5
:101BB000BDE8F04104F076BC0B2085F8F003B5F8E1
:101BC0001E03A5F82A03B5F82003A5F82803B5F8E5
:101BD0002203A5F82E03B5F82403A5F82C0383E708
:101BE0000803002010B5002303700B70012414704B
:101BF0000821084C1A46204600F0D5FE0022204657
:101C0000102100F0D0FE01222046BDE81040042142
:101C100000F0C9BE0010024008B5684600F002F8A6
:101C200008BD00000021017002480A46042100F0AE
:101C3000BABE00000010024010B500240470012359
:101C40000B7013702246084C0821204600F0ABFEB2
:101C500001222046102100F0A6FE01222046BDE808
:101C60001040042100F09FBE0010024010B5012377
:101C7000037000240C70094C082113701A4620468A
:101C800000F091FE00222046102100F08CFE01227F
:101C90002046BDE81040042100F085BE001002403F
:101CA0002DE9F0411C4615469A1C0E46591C074664
:101CB0002046FFF797FFA07828702078387060786A
:101CC0003070BDE8F0810000044810B5FFF7AAFFAE
:101CD000034890F8CD1380F8C61310BDD506002038
:101CE000080300202DE9F0411C4615469A1C0E46BB
:101CF000591C07462046FFF7B9FFA07828702078C6
:101D0000387060783070BDE8F081000029490846DD
:101D100091F8E22390F8DE03042A10D0022A16D0AC
:101D2000032A2FD0012A34D091F8E603042837D0B3
:101D3000022838D0032839D0D1F8980070470328FA
:101D400002D0D1F8AC007047D1F8BC00704703282E
:101D50000FD091F8BF23012A0ED01648022AD0F8DE
:101D6000A000F3D0032A0AD0042AEFD1D1F8A800AA
:101D70007047D1F8B8007047D1F89C007047D1F88F
:101D8000A4007047032802D0D1F8B0007047486F14
:101D90007047032802D0D1F8B4007047886F7047AD
:101DA000D1F890007047D1F88C007047D1F89400BA
:101DB000704700000803002070470000F8B50025B8
:101DC000009590F83C20012A18D0012280F83C2090
:101DD0000A6807234E4C0668092A1AD90A3A02EB08
:101DE0004207F268BB409A43F2600E680268A6425E
:101DF00006D10B7AD66846EA036308E00220F8BDF4
:101E00000A3E8B68D76806EB4606B3403B43D36077
:101E10000EE002EB42073269BB409A43326103682D
:101E20000E788A681F6906EB4606B2403A431A618B
:101E30004A681F23072A13D20668521E02EB820744
:101E4000726BBB409A43726303680E790A88761EF0
:101E50005F6B92B206EB8606B2403A435A6327E0C4
:101E600006680D2A12D2D21F02EB8207326BBB40EA
:101E70009A43326302680E790B88F61F176B9BB288
:101E800006EB8606B3403B43136311E00D3A02EBC9
:101E90008207F26ABB409A43F26202680E790B88AD
:101EA0000D3ED76A9BB206EB8606B3403B43D36236
:101EB000184A0368934208D10B68122B05D1D2F857
:101EC000043343F48003C2F80433036893421AD105
:101ED0000B68A34201D0112B15D1D2F8043343F47F
:101EE0000003C2F804330968A1420CD10A490B4A25
:101EF0000968B1FBF2F101EB8101490000E0491EE4
:101F000000910029FBD180F83C500020F8BD000072
:101F100012000010002001402000002040420F006D
:101F200000680349884201D1FFF712BC70470000E6
:101F3000002001407047704770B504460068016892
:101F40004268C1F34001C2F3401251B34AB3216C5D
:101F5000C90603D4216C41F400712164816811F039
:101F6000405F17D1A169A9B9C16A11F4700F02D0FD
:101F7000816849050ED4416821F020014160206C40
:101F800020F480702064206CC00403D4206C40F0E6
:101F9000010020642046FFF7C3FF21686FF01200A4
:101FA0000860206801684268C1F38001C2F3C01272
:101FB00089B382B3216CC90603D4216C41F400516A
:101FC0002164816811F4401F1ED1816B11F4401F00
:101FD00002D08168490517D44168490514D4816845
:101FE00011F0405F10D1A16971B9416821F0800101
:101FF0004160206C20F480502064206CC00503D424
:10200000206C40F0010020642046FFF7D5FE2168D7
:102010006FF00C00086020680168436811F0010F40
:10202000C3F380110ED069B10068C0070AD0206CDC
:1020300040F480302064204600F046F821686FF0BC
:1020400001000860206801684268C1F3401100295E
:10205000C2F380620DD0002A0BD0616C6FF02005B6
:1020600041F00201616405602046FFF764FF2068CB
:10207000056070BD70B504004FF0000503D0206C02
:10208000002610B107E0012070BD204600F01EF8C8
:10209000666484F83C60206CC00610D4206C20F488
:1020A000885040F0020020642046FEF759FC666428
:1020B000206C20F0020040F00100206400E00125C7
:1020C00084F83C60284670BD70470000F0B587B0CA
:1020D000064614216846FEF7F5F830493068884214
:1020E00059D12F48016841F48071016000682C4982
:1020F00000F4807005901439086840F0040008600E
:10210000086800F004000590086840F001000860CD
:10211000086800F001000590086840F002000860BF
:10212000086803240025694600F00200059013208A
:102130008DE831001B4800F043FBF02069468DE834
:102140003100194800F03CFB009469461748CDE97E
:10215000014500F035FB164C16480115C4E9000591
:102160008715A5600B01C4E9035182142046C4E918
:1021700007756562C4E9052300F060FA08B1FEF74F
:1021800073FD0022B46312201146A66300F0A8FD7F
:10219000122000F097FD07B0F0BD000000200140C4
:1021A000443802400008024000000240000402409F
:1021B0008400002010640240F8B50D46044600215A
:1021C000009190F83C00012807D0012084F83C00E1
:1021D00020688368DB0702D011E00220F8BD866822
:1021E000364B46F00106866035480068B0FBF3F0D8
:1021F00000EB400000E0401E00900028FBD120686A
:102200008368DB0758D0236C40F20166B34343F484
:10221000807323644068400505D5206C20F400508D
:1022200040F480502064206CC00404D5606C20F021
:102230000600606400E061646FF0220084F83C10E6
:10224000A36B2049D963A36B1F491964A36B1F4972
:10225000D964216808602068416841F0806141606C
:102260002068816841F48071816021681346A06B09
:102270002A464C3100F054FA1549D1F80403C0063F
:10228000206811D0884207D1826812F0405F03D1E4
:10229000826842F080428260D1F80403C0060BD409
:1022A0000C492068884207D1816811F0405F03D152
:1022B000816841F0804181600020F8BD40420F00FC
:1022C00020000020C508000849090008330900085B
:1022D000002001400022014070B5040003D094F8B2
:1022E000200010B104E0012070BD204600F082F80B
:1022F0002068016821F00201016000F059FB052609
:10230000054604E000F054FB401B0A2811D8206861
:1023100040688007F6D42068016841F0010101603F
:1023200000F046FB05460BE000F042FB401B0A288C
:1023300006D9606A40F40030606284F82060D2E719
:1023400020684068C007EFD0207E0128206801681F
:102350003DD021F080010160607E01282068016885
:1023600038D021F040010160A07E0128206801687A
:1023700033D021F020010160E07E0128206801684F
:102380002ED041F010010160207F012820680168F3
:1023900029D021F008010160607F012820680168D0
:1023A00024D021F004010160D4E90110D4E9033202
:1023B0006569491E184323682A43104300220843D5
:1023C000D8610121626284F82010104670BD41F08E
:1023D0008001C0E741F04001C5E741F02001CAE7B4
:1023E00021F01001CFE741F00801D4E741F00401EA
:1023F000D9E7000010B586B0044614216846FDF701
:1024000061FF1A49206888422ED11948016841F4B9
:1024100000510160016801F400510591016841F02B
:1024200080610160016801F080610591016841F0FF
:1024300000710160006800F0007005900C481038D1
:10244000016841F00201016000680221002200F0F1
:1024500002000590032309244FF440508DE81F002B
:102460000448694600F0ACF906B010BD00680040B1
:10247000403802400004024090F83510022903D091
:102480008021416501207047052180F835100068E2
:10249000016821F001010160002070472DE9F84337
:1024A00004464FF00009644B0820CDF800904FF42B
:1024B0001652A56D94F85C101B682E68B3FBF2F7FA
:1024C00000FA01F131420FD021680A6852070BD59A
:1024D0000A6822F004020A6094F85C108840A86040
:1024E000606D40F00100606594F85C104FF00108E9
:1024F00008FA01F0304208D021684969090604D57C
:10250000A860606D40F00200606594F85C100420E3
:102510008840304208D021680968890704D5A8603E
:10252000606D40F00400606594F85C1010208840F5
:10253000304218D021680968090714D5A8602068BE
:102540000168490304D50068000308D5A16C07E0C1
:102550000168C90503D4016821F008010160216CFC
:1025600009B12046884794F85C102020884030420A
:1025700031D021680968C9062DD5A86094F83500C6
:1025800005282068016806D0490347D50068000384
:102590001DD4616C1CE021F01601016020684169C6
:1025A00021F080014161206C08B9A06C20B1206845
:1025B000016821F00801016094F85C303F229A40E4
:1025C000AA6084F8349084F83580216D1FE0E16BB7
:1025D00009B120468847606D00282BD0606DC00788
:1025E00014D0052084F835002068016821F001012D
:1025F00001600098401C0090B84203D82068006831
:10260000C007F6D184F8349084F83580E16C002955
:1026100010D001B02046BDE8F04308470168C90565
:10262000D5D4036823F01003036084F8349084F851
:102630003580CCE7BDE8F883200000202DE9F04785
:10264000044600F0B5F9054664B14FF0000984F87E
:102650003490022184F835102068016821F00101CE
:1026600001600EE00120BDE8F08700BF00F0A0F996
:10267000401B052805D920216165032084F8350019
:10268000F1E720680068C007F0D1D4E90020D4E960
:102690000251D4E9043C284304F1180519430843C6
:1026A000116895E8E00140EA0C001C4B28431940F2
:1026B00040EA060040EA0700B8F1040F40EA0100D2
:1026C00003D1D4E90B131943084310602068012695
:1026D000656A4069042D20F0070045EA00050CD129
:1026E000D4E90A01054341B12046FEF73DFA20B185
:1026F0004020606584F83560B4E720684561204675
:10270000FEF71EFA94F85C303F229A408260C4F8CB
:10271000549084F835600020A5E700003F8010E069
:102720002DE9F041044690F8340000250128A66DFB
:102730000ED094F835C00127002084F83470BCF125
:10274000010F07D0022584F834002846BDE8F08147
:102750000220FBE7022784F8357060652046FEF70B
:102760002DFA94F85C103F208840B0602068016822
:1027700041F0160101602068416941F0800141612A
:10278000206C20B12068016841F0080101602068D8
:10279000016841F001010160D7E7000070B504460F
:1027A00000F006F90546601C02D004480078044495
:1027B00000F0FEF8401BA042FAD370BD14000020C8
:1027C0002DE9F84FDFF89CE100224FF001084FF0AF
:1027D000030B4FF00F0A00BF0B6808FA02F4234006
:1027E000A34271D14D68022D01D0122D0FD1D50811
:1027F0000E69570700EB8505A9462D6AFF0E0AFAF8
:1028000007FCBE4025EA0C052E43C9F820600F796D
:10281000550006680BFA05FC07F0030726EA0C06CC
:10282000AF40374307604E68012E05D0022E03D01B
:10283000112E01D0122E0ED18668CF6826EA0C0622
:10284000AF403743876046680F79A643C7F3001748
:10285000974037434760C4688E6824EA0C04AE4052
:102860002643C6604C68E40075D53F4C256845F4A6
:1028700080452560246822F00306950704F480440F
:1028800000943A4C2D0F2644D6F80848DFF8E0C0F3
:102890000AFA05F7604524EA070401D100272EE073
:1028A000344FB84201D1012729E0334FB84201D15A
:1028B000022724E0314FB84201D103271FE0304FF7
:1028C000B84202D104271AE045E02E4FB84201D1A8
:1028D000052714E02C4FB84201D106270FE02B4FFB
:1028E000B84201D107270AE0294FB84201D1082791
:1028F00005E0284FB84201D1092700E00A27AF4080
:1029000027437546C6F808784E68DEF80040F6039F
:1029100024EA030400D51C43124E2C60361D4D687A
:102920003468AD0324EA030400D51C430D4F346022
:1029300008374D683C68ED0224EA030400D51C43C7
:10294000084D3C600C354E682C68B60224EA03043E
:1029500000D51C432C60521C102AFFF43DAFBDE88B
:10296000F88F0000003C0140443802400030014034
:10297000000002400004024000080240000C024037
:10298000001002400014024000180240001C0240E7
:102990000020024000240240426931EA020200D1D4
:1029A0000904816170470AB1816170470904FBE73E
:1029B00001488068704700001400002030B590F88E
:1029C0004120202A24D190F84020012A20D0012340
:1029D00080F84030242280F841202023002402681F
:1029E000156825F0010515600268156825F4805505
:1029F0001560026815680D43156001680A6842F0A9
:102A000001020A6080F8413080F84040002030BD6B
:102A1000022030BD30B590F84120202A22D190F814
:102A20004020012A1ED0012380F84030242280F863
:102A30004120202400250268136823F0010313605D
:102A40000268136823F4706343EA0121116001688E
:102A50000A6842F001020A6080F8414080F8405064
:102A6000002030BD022030BD7047704730B403688D
:102A70009A691968D243D40509D4CC43240606D4F4
:102A8000456C4FF4807445F001054564DC615305E5
:102A90000AD4CB431B0607D4446C4FF4806344F044
:102AA000080444640468E36192050AD4C943090632
:102AB00007D4426C4FF4007142F002024264026893
:102AC000D161416C11F00B0F02D030BC01F00EBD92
:102AD00030BC70470268436B91691268002B00D0CC
:102AE000184770477047000070B5040004D094F890
:102AF0004100002510B106E0012070BD204684F899
:102B0000405000F04FF8242084F84100206801680C
:102B100021F001010160D4E9001020F0706008612B
:102B20002068816821F400418160E0682168012803
:102B3000A06806D040F404408860E068022803D012
:102B400006E040F40040F7E721684FF40060486079
:102B500020212068114A4368134343602068C268FB
:102B600022F40042C26054F8106B0DCC104340EACE
:102B70000320F06054F81C3CD4E9000210431860B4
:102B800054F81C0D026842F001020260656484F88A
:102B90004110256384F84250002070BD008000027F
:102BA0007047000010B586B0044614216846FDF752
:102BB00089FB1A49206888422DD11948016841F0E3
:102BC0000201016000681221012200F0020005905C
:102BD000C020032304248DE81F0012486946FFF734
:102BE000EFFD0F481030016841F4001101600068EA
:102BF0000022114600F4001005901F2000F070F82C
:102C00001F2000F05FF800222020114600F068F835
:102C1000202000F057F806B010BD0000005400401E
:102C20003038024000040240704770470248816813
:102C3000027811448160704714000020032010B511
:102C400000F06EF8002000F005F800F023F80020F6
:102C500010BD000070B50D4D04464FF47A700C4A5B
:102C600029781268B0FBF1F0B2FBF0F000F0C2FD81
:102C700048B9102C07D200222146501E00F030F82F
:102C800000206C6070BD012070BD000014000020A9
:102C9000200000200A4808B5016841F08051016019
:102CA000006800F0805000900548001D016841F464
:102CB00080410160006800F48040009008BD000081
:102CC00040380240002809DB410900F01F0289005A
:102CD000012001F1E0219040C1F80001704700009F
:102CE0000E4BF0B41B680D46C3F30223C3F1070675
:102CF000042E00D90426191D072901D2002300E063
:102D0000DB1E012404FA06F19C40491E2940641E82
:102D1000994014402143F0BC03F036BA0CED00E0BA
:102D2000064900F0070210B54FF6FF040868044B8F
:102D3000204040EA02201843086010BD0CED00E07E
:102D40000000FA051848F8B5016841F080510160AB
:102D50000068164C00F080500090206840F48030ED
:102D60002060FFF725FE4FF47A76054605E000BFA8
:102D7000FFF71EFE401BB0420FD86068C003F7D5B6
:102D8000206840F400302060FFF712FE054606E0A0
:102D9000FFF70EFE401BB04201D90320F8BD60686A
:102DA0008003F5D50020F8BD403802400070004097
:102DB0002DE9F84F04460078DFF824944FF0000620
:102DC0003746C0070ED0D9F8001021F40001C9F829
:102DD0000010D9F80010626B1143C9F80010606B45
:102DE00000B90126FE4D2068843500030ED5E16B45
:102DF000286820F4401008432860E06BB0F5801F7D
:102E000001D010B102E0012600E0012720684FF454
:102E1000800BC0020CD5216C286820F440000843C8
:102E20002860206C584501D1012601E000B9012736
:102E30002068C10100D50126800666D5E8483830F3
:102E4000016841F0805101600068DFF898A300F04C
:102E500080500090DAF8001041F48071CAF8001038
:102E6000FFF7A6FD804605E0FFF7A2FDA0EB0800F6
:102E700064287DD8DAF80000C005F5D5DFF8608356
:102E800008F16808D8F8000010F440702AD0218EAC
:102E900001F44071814225D0D8F80010D8F8002004
:102EA00021F4407142F48032C8F80020D8F80020A4
:102EB00022F48032C8F80020C8F80010D8F80000CA
:102EC000C0070FD0FFF774FD824607E0FFF770FDE3
:102ED000A0EB0A0141F288308142CAD8D8F800003C
:102EE0008007F3D5206BC0F3012103297ED0D9F8E8
:102EF000001021F4F811C9F80010228ED8F8001043
:102F0000C2F30B021143C8F800102078C00607D5A1
:102F1000286820F0807028602868A16B084328602A
:102F20002188AF488830490405D5626E016821F4D4
:102F30004031114301602188090405D5A26E016862
:102F400021F44021114301602168C90305D5E26ED7
:102F5000016821F44011114301602168890305D5FE
:102F6000226F016821F4400111430160217800E0E3
:102F700034E1490605D5626C016821F00301114373
:102F800001602178090605D5A26C016821F00C01C9
:102F9000114301602188C90505D5E26C016821F063
:102FA0003001114301602188890505D5226D016832
:102FB00021F0C001114301602188490505D5626DEA
:102FC000016821F44071114301602188090505D58C
:102FD000A26D016821F44061114301602188C90498
:102FE00007D5E26D016821F4405100E05FE0114334
:102FF00001602188890405D5226E016821F44041D1
:10300000114301602168490205D5A26F016821F0D2
:1030100080611143016021684FF0006A890209D57F
:10302000E26F016821F0006111430160E16F5145D9
:1030300000D1012721680A0700D50127490305D5DA
:10304000626F016821F0407111430160216809023B
:1030500006D5D4F88020016821F080511143016029
:103060002168490106D5D4F88420016821F0005177
:10307000114301602068000106D5D4F88810286843
:1030800020F00070084328602068C00006D5D4F8FE
:103090008C10286820F0806008432860DFF8489191
:1030A000012E0ED02068B0F1007F0AD08FE04F4A89
:1030B000D9F80030104023F4F8120243C9F8002078
:1030C0001BE7D9F800004E4620F08060C9F80000E8
:1030D000FFF76EFC804605E0FFF76AFCA0EB0800F6
:1030E00064287BD830680001F6D421783C487C30D5
:1030F000C90712D0616B81B9237A62680168D0F880
:1031000000C09201C1F3014142EA0142CCF30361E4
:1031100042EA016141EA0371016021680A0303D5B3
:10312000E26BB2F5801F04D0C9021AD5216C594553
:1031300017D16368016894F80CC002689B01C1F361
:10314000014143EA0141C2F3027241EA0C6141EAE2
:10315000027101602968626A21F01F01521E114349
:1031600029602168C90110D5238A62680168D0F8F6
:1031700000C09201C1F3036142EA034242EA0162E4
:10318000CCF3027142EA01710160216889010CD51A
:103190006168228A237B94F808C0890141EA0241D0
:1031A00041EA036141EA0C7101603168B04641F0C7
:1031B00080613160FFF7FCFB064604E0FFF7F8FB97
:1031C000801B64280AD8D8F800000001F6D5E7B3C0
:1031D000D9F800004E4620F0805009E07BE0000066
:1031E000083802400070004000380240FFFCFF0F2A
:1031F000C9F80000FFF7DCFB074604E0FFF7D8FB47
:10320000C01B642867D83068C0438000F6D52168A9
:1032100035480A0301D5E26B1AB1C9021DD5216CEC
:10322000D9B963690168277E02689B01C1F3014136
:1032300043EA0143C2F3027143EA076242EA0171C1
:10324000016029686FF0FF0300E04BE0A26A21F4FF
:10325000F85103EB0222114329602168890212D53B
:10326000E16F51450FD1238C6269016807689201B3
:10327000C1F3036142EA034242EA0162C7F3027109
:1032800042EA017101602178090716D56169026877
:10329000D0F800C08B01277FC2F30362CCF3014159
:1032A00043EA014141EA026141EA0771016028688D
:1032B000E16A20F4403008432860306840F08050D4
:1032C0003060FFF775FB044608E000BFFFF770FBB6
:1032D000001B642802D90320BDE8F88F3068C04382
:1032E0008000F3D40020F7E7883802402DE9F0474A
:1032F00005000F4663D0444E306800F00F00B8421E
:1033000009D2306820F00F0038433060306800F098
:103310000F00B84253D128683C4C810712D54007B2
:1033200003D5206840F4E05020602878000703D5DA
:10333000206840F460402060A968206820F0F00018
:10334000084320602878C0072AD0304968680839C7
:10335000012810D00968022810D0890700292EDA28
:10336000216821F0030101432160FFF721FB804622
:1033700041F288390DE009688903EFE78901EDE73B
:10338000FFF716FBA0EB0801494502D90320BDE871
:10339000F0876868216801F00C01B1EB800FEFD174
:1033A000306800F00F00B8420BD9306820F00F00F1
:1033B00038433060306800F00F00B84201D001207F
:1033C000E5E72878400705D5E968206820F4E05053
:1033D000084320602878000706D52869216821F471
:1033E000604141EAC000206000F036F82168084AD8
:1033F000C1F30311515CC840064908600020FFF783
:1034000029FC0020C3E70000003C024008380240CD
:103410007666000820000020044905480968006815
:10342000044AC1F38221515CC84070470838024009
:1034300020000020866600080449054809680068E5
:10344000044AC1F34231515CC84070470838024019
:103450002000002086660008154910B51548096847
:1034600011F00C0213D04110042A0FD0082A0ED1FB
:103470000F4C241F2268236802F03F025B0207D52D
:103480002068C0F38810A0FB010106E0084610BDCB
:103490002168C1F38811A1FB00010023FCF7C8FEDD
:1034A0002168C1F30141491C4900B0FBF1F010BD96
:1034B000083802400024F4002DE9F84F05004FF0D1
:1034C00000076ED02878DFF82093A9F1040AC0071E
:1034D000AAF104044CD0D9F800104846C1F3810188
:1034E000012908D00068C0F3810002280AD1DAF867
:1034F0000000400206D52068800339D5686800289E
:10350000DFD035E06868B0F5803F0BD010B1B0F582
:10351000A02F11D0206820F480302060206820F493
:10352000802002E0206840F480302060686890B11C
:10353000FFF73EFA06460AE0206840F4802020604B
:10354000F0E700BFFFF734FA801B642872D82068C8
:103550008003F7D50CE0FFF72BFA064605E000BF25
:10356000FFF726FA801B6428F0D820688003F7D480
:103570002878800742D5D9F80010484611F00C0F82
:1035800008D00068C0F3810002280BD1DAF80000EF
:10359000400207D42068800718D5E868012800D1C8
:1035A00014E01EE1E8680028206817D040F0010010
:1035B0002060FFF7FDF9064605E000BFFFF7F8F9C8
:1035C000801B0228C2D820688007F7D528692168A7
:1035D00021F0F80141EAC00020600FE020F0010076
:1035E0002060FFF7E5F9064605E000BFFFF7E0F9C8
:1035F000801B02281ED820688007F7D4287800078F
:1036000029D5794869696C3000298046016812D053
:1036100041F001010160FFF7CBF9064605E000BF6C
:10362000FFF7C6F9801B022804D8D8F800008007ED
:10363000F6D510E089E021F001010160FFF7B8F94B
:10364000064604E0FFF7B4F9801B02287DD8D8F8BD
:1036500000008007F6D4287840076BD5DFF8888112
:1036600008F13808D8F80000C0000BD4D8F80010D2
:1036700041F08051C8F80010D8F80000012700F090
:103680008050009059480168C90512D401688346EA
:1036900041F480710160FFF78BF9064605E000BF39
:1036A000FFF786F9801B64284FD8DBF80000C005BF
:1036B000F6D54D4EA868683601280AD008B105280D
:1036C00011D0306820F001003060306820F0040034
:1036D00002E0306840F001003060A868A0B1FFF758
:1036E00067F983460CE0306840F004003060F0E792
:1036F000FFF75EF9A0EB0B0141F28830814268D8F8
:1037000030688007F4D50EE0FFF752F9834607E0F2
:10371000FFF74EF9A0EB0B0141F28830814258D8F7
:1037200030688007F4D42FB1D8F8001021F0805110
:10373000C8F80010A869E0B3D9F80010C1F38101FE
:1037400002294ED00228206800E042E020F080707C
:10375000206003D0FFF72CF905463DE0FFF728F97C
:10376000064604E0FFF724F9801B022831D82068C0
:103770008001F7D4D5E90921DFF874C0D5E907063F
:1037800095F830304F0895F82C1030430CEB074576
:1037900045EA8212104340EA016040EA0370CAF829
:1037A0000000206840F080702060FFF701F90546B6
:1037B00005E014E0FFF7FCF8401B022809D8206858
:1037C0008001F7D50BE000BFFFF7F2F8401B02289D
:1037D00002D90320BDE8F88F20688001F4D40020CE
:1037E000F8E70120F6E700000838024000700040CA
:1037F0000000FFFF401EB0F1807F10B501D3012013
:1038000010BD4FF0E02460610F21601702F0BCFC96
:103810000020A0610721216110BD704770477047EB
:103820002DE9F04390F83C20012A42D0012280F893
:103830003C2051F80C4BDFF880804FF0000991E8F4
:10384000680051E9022723F44073B1F80CC03B43F0
:10385000CF6923F480631343026823F40063234396
:1038600023F4805343EA050323F4005343EA060399
:1038700023F4804343EA07030C3923F470234245C1
:1038800043EA0C4302D00D4CA2420CD18D8C23F4A0
:103890007006D1E9073446EA055121F080711943D9
:1038A00021F000732343536480F83C900020BDE86E
:1038B000F0830220FBE7000000000140000401400B
:1038C00070B590F83C20012A24D0134C012580F8D3
:1038D0003C50022280F83D2002685368A24296685C
:1038E00002D00E4CA24203D14C6823F47003234350
:1038F0000C6823F0700389681C435460002326F091
:10390000800602683143916080F83D5080F83C3079
:10391000184670BD022070BD000001400004014047
:1039200010B5040003D094F83D0010B107E0012069
:1039300010BD002084F83C00204600F00DF8022065
:1039400084F83D002068211D01F0E0FE012084F88C
:103950003D00002010BD000008B500680B498842FA
:1039600012D10B48016841F0040101600068002297
:10397000114600F0040000901E20FFF7B1F9BDE8E9
:1039800008401E20FFF79EB908BD00000008004057
:10399000403802400168094ACB6843F00103CB601C
:1039A000016888681040062806D0B0F5803F03D033
:1039B000086840F00100086000207047070001001F
:1039C00070B5044690F83C00012817D0324B012511
:1039D00084F83C50022084F83D002268906818402A
:1039E00020F47F4090600868502830D00DDC2028FB
:1039F0004DD005DC98B310283BD148E0022070BDC3
:103A0000302844D0402834D139E0602828D07028AC
:103A100006D0B0F5805F2CD0B0F5005F29D10AE068
:103A20004A682068D1E9021301F0E3FE206881684A
:103A300041F0770109E04A682068D1E9021301F0FA
:103A4000D8FE2068816841F48041816011E0CA6835
:103A50004968206802F014F82068502107E016E059
:103A6000CA684968206802F01CF82068602101F0EB
:103A7000C9FE002084F83D5084F83C0070BDCA683F
:103A80004968206801F0FCFF20684021EFE72268C8
:103A900001461046EBE7000088FFFEFF704770B557
:103AA0000446006800250169C943890715D4C16827
:103AB000C943890711D4EA1E0261012121772068D8
:103AC00080698007204602D0FFF7E8FF04E000F09D
:103AD00020F9204600F004FA257720680169C943DF
:103AE000490717D4C168C943490713D402216FF0AD
:103AF0000402026121772068806910F4407F20462B
:103B000002D0FFF7CBFF04E000F003F9204600F0FD
:103B1000E7F9257720680169C943090716D4C16808
:103B2000C943090712D404216FF00802026121770A
:103B30002068C0698007204602D0FFF7AFFF04E08D
:103B400000F0E7F8204600F0CBF9257720680169FE
:103B5000C943C90617D4C168C943C90613D408218B
:103B60006FF01002026121772068C06910F4407F75
:103B7000204602D0FFF792FF04E000F0CAF820468A
:103B800000F0AEF9257720680169C943C90708D15B
:103B9000C168C943C90704D1891E0161204600F0EC
:103BA000C7F920680169C943090609D4C168C94336
:103BB000090605D46FF0800101612046FFF72EFE53
:103BC00020680169C943C90509D4C168C943090608
:103BD00005D46FF4807101612046FFF71EFE206856
:103BE0000169C943490609D4C168C943490605D4D6
:103BF0006FF040010161204600F0C2F920680169C0
:103C0000C94389060BD4C168C943890607D46FF03C
:103C1000200101612046BDE87040FFF700BE70BD85
:103C200030B587B0044614216846FCF74BFB246886
:103C30000021184D0220164A0123AC4211D114680C
:103C400044F010041460126802F0100205924FF460
:103C5000C4420092CDE90101CDE903130E48694643
:103C600012E0B4F1804F11D1146844F001041460E3
:103C7000126802F0010205920A220092CDE90101C8
:103C8000CDE9031305486946FEF79AFD07B030BD3C
:103C900030380240000001400010024000000240A5
:103CA00070B5044690F83C0001280ED0012584F838
:103CB0003C50022084F83D000C2A19D007DC5AB190
:103CC000042A0DD0082A1ED10EE0022070BD102A51
:103CD00012D0142A17D113E0206801F09BFD12E0E6
:103CE000206801F0D1FD0EE0206801F009FE0AE035
:103CF000206801F041FE06E0206801F069FE02E064
:103D0000206801F091FE002084F83D5084F83C00CA
:103D100070BD704710B5040003D094F83D0010B199
:103D200007E0012010BD002084F83C00204600F090
:103D30000CF8022084F83D002068211D01F0E6FC0B
:103D4000012084F83D00002010BD704770B5044686
:103D500090F83C000D4601280ED0012684F83C6006
:103D6000022084F83D000C2A45D007DC5AB1042A11
:103D70001BD0082A78D12CE0022070BD102A4ED02A
:103D8000142A71D15DE0206801F044FD206881694A
:103D900041F0080181612068816921F0040181619D
:103DA00020682A698169114311E0206801F06CFDE7
:103DB0002068816941F4006181612068816921F492
:103DC0008061816120682969826942EA01218161FB
:103DD0004AE0206801F094FD2068C16941F00801C3
:103DE000C1612068C16921F00401C16120682A69AC
:103DF000C169114311E0206801F0BEFD2068C1696E
:103E000041F40061C1612068C16921F48061C16130
:103E100020682969C26942EA0121C16124E0206861
:103E200001F0D6FD2068416D41F008014165206830
:103E3000416D21F00401416520682A69416D1143FB
:103E400011E0206801F0F0FD2068416D41F400614F
:103E500041652068416D21F48061416520682969D0
:103E6000426D42EA01214165002084F83D6084F8FA
:103E70003C0070BD10B5040003D094F83D0010B1B3
:103E800007E0012010BD002084F83C00204600F02F
:103E90000DF8022084F83D002068211D01F036FC59
:103EA000012084F83D00002010BD000008B5006826
:103EB0000949884201D1094804E0B0F1804F09D195
:103EC0000648001F016841F001010160006800F030
:103ED0000100009008BD000000000140443802408D
:103EE0007047000010B501220446006801F074FC20
:103EF0000C492068884202D00B49884203D1416CAA
:103F000041F4004141642068084A81681140062953
:103F100006D0B1F5803F03D0016841F00101016096
:103F2000002010BD00000140000401400700010016
:103F300070B572B600680F49884219D10E4C2068DE
:103F4000401C20606068401C6060FCF7C9FE20686F
:103F50000025322802DBFDF765FB25606068B0F5BF
:103F6000FA7F05DB05484FF40071FEF715FD65602B
:103F700062B670BD0008004000000020000C024046
:103F8000704770472DE9F041026804460025D0696A
:103F90001168936810F00F0F5BD003F0010601F475
:103FA0009077374369D0C70707D0CF0505D50127DC
:103FB0001762E26F42F00102E267820708D5DA0772
:103FC00006D0276802223A62E26F42F00402E267FA
:103FD000420708D5DA0706D0236804221A62E26F86
:103FE00042F00202E26702070AD501F020023243E2
:103FF00006D0236808221A62E26F42F00802E267E4
:10400000E26F002A32D0800605D5880603D5216EDE
:1040100009B1204688472168E06F8968490601D4C4
:10402000000725D5204601F022FE20688168490658
:1040300019D5816821F040018160E06E98B11A497C
:104040000165E06EFEF718FA00280FD0E06E016DF2
:1040500006E0830611D58B060FD5216E12E02046AF
:10406000BDE8F04108472046FFF78BFFBDE8F0812F
:104070002046FFF786FFE567F8E7030605D50B0640
:1040800003D5616E0029EAD1F0E74006EED5480677
:10409000ECD513682021204623F0400313606167AC
:1040A000656600F07FF9E1E7DD5B000810B504000C
:1040B00002D0606F10B107E0012010BD002084F82D
:1040C0007000204600F026F8242060672068016810
:1040D00021F001010160204601F03CFE0128ECD0F6
:1040E000606A10B1204601F0F7FC2068416821F4B5
:1040F000904141602068816821F02A018160206838
:10410000016841F0010101602046BDE8104001F066
:1041100047BD000070B586B0064614216846FCF71E
:10412000D1F82249306888423ED12148016841F4E3
:1041300000210160006800F4002005901C48103840
:10414000016841F00401016000680025022100F0CF
:10415000040005904FF4406008238DE823000322FB
:104160001448CDE903236946FEF72AFB124C40228E
:1041700012484FF0006184E8270003152046C4E987
:104180000435A561E56125626562FEF757FA08B15D
:10419000FCF76AFD0022B46634201146A663FEF7E0
:1041A0009FFD3420FEF78EFD06B070BD004C004030
:1041B0004038024000080240A40200207060024023
:1041C00070B5836F202B4BD1B9B1B2B190F870307C
:1041D000012B45D08368012680F87060002441657A
:1041E00035030466AB42A0F85820A0F85A204FF0DF
:1041F000FF0107D1026912B126E0012070BD40F233
:10420000FF1121E04FF07F02E3B1B3F1805F1ED0D8
:10421000A0F85C402221C467816701688A6842F087
:1042200001028A608168A94201D10169B1B10D49D9
:10423000016680F870400068016841F49071016087
:10424000002070BD036933B9A0F85C10E2E7016992
:1042500009B13F21F8E7A0F85C20DBE70249E7E776
:10426000022070BDF95C00089F5C00082DE9F04158
:1042700072B6234D012723494FF000086C1C2878A3
:1042800048B3214E002085F800800A5C3254401C5F
:104290000A28FADB1D484FF40061FEF77DFBAF6092
:1042A00096ED040BB7EE001BB4EE410BF1EE10FAE5
:1042B00001D1FCF7B7FE12490322491CC81CFCF7C8
:1042C0000CF878B10F49012201F10C00FFF778FFDB
:1042D00062B6BDE8F08160782070A07860700878E0
:1042E000A070E8E707490A222F7001F10C00FFF7E0
:1042F00067FF002041462154401C0328FBDBE7E711
:10430000080000201802002028070020000C0240AE
:1043100070B50446406F20283BD161B35AB394F87E
:104320007000012835D0A4F85020A4F852200025B0
:10433000A06E0123E164212184F87030E567616794
:10434000D8B115491346C163A16E14480864A16E23
:104350001348C864A06E05652068A66E00F12802A7
:10436000E16C3046FEF7DCF938B11021E16720201E
:1043700084F870506067012070BD21684020086299
:1043800084F870502068816841F0800181600020CD
:1043900070BD022070BD0000375C0008655C00083D
:1043A000F15B000870477047FEE700000148FEF728
:1043B0005DBB00000C0100200148FEF78BBB000034
:1043C0000C01002010B5806B0021826B1165C26B5F
:1043D000116590F84110602902D0FEF783FB10BDF3
:1043E000202180F84110FEF73FFB10BDCA074FF0B7
:1043F00028034FF0000210B506D090F84140422249
:1044000033EA040400D0F2228C0707D590F841402B
:1044100042F04402A34301D042F0B0024B0701D561
:1044200042F0B80211238B4301D142F090021223D3
:104430008B4301D142F06002006801689143016042
:1044400010BD01688A69D243920701D400228A62B2
:1044500000688169C943C90703D0816941F001013E
:10446000816170472DE9F041044690F84100282110
:10447000002508238143206804D0C36184F840509C
:10448000BDE8F081876986694FF0FE0E8168C268D9
:10449000C7F30047D4F80CC00EEA164602F0FE023D
:1044A000BCF1020FC1F3090118D14FF0060C06F060
:1044B00006060CEAD11C66450FD1A66C0A46761C8E
:1044C000A664A16C0229DBD1A564C36184F84050C5
:1044D00039462046FEF7C9FAD2E71646204604219F
:1044E000FFF784FF324684F84050F1E770B5344A54
:1044F0000025044690F84100202684F84250E262EC
:104500006585626C282842EA0102626425D0292868
:1045100023D02A2821D007212046FFF767FF94F8EF
:104520004100602801D084F84160256365632068FC
:1045300024490268520402681AD522F480420260BB
:10454000A06B002833D0016584F84050A06BFDF7C4
:1045500093FF00282BD0A06B1CE003212046FFF71F
:1045600045FF19492820616384F841002563DEE78F
:10457000120413D5026822F400420260E06B0028A6
:1045800015D0016584F84050E06BFDF775FF0028F9
:104590000DD0E06B016DBDE87040084794F8410014
:1045A000602805D0204684F84050FEF79BFA70BD85
:1045B00084F84160204684F84050FEF755FA70BDFB
:1045C0000000FFFFC54300087547000870B50446AA
:1045D000164AC843002541074FF02000E2622563D8
:1045E00084F8410084F84250656311D42068616A00
:1045F000406A0870606A401C6062208D40B1618D25
:10460000401E2085491E6185606C40F00400606496
:1046100007212046FFF7EAFE21681020C8612046E6
:1046200084F84050FEF7BCFA70BD00000000FFFFA8
:104630002DE9F0410446006820270E460568C76151
:1046400007212046FFF7D2FE20683349426842F432
:1046500000424260206842680A4042602046FFF7FC
:10466000F0FEE843410401D4A06B02E0000404D44E
:10467000E06B10B1006840686085F04340070FD4DC
:10468000206826F00406616A406A0870606A401C6F
:104690006062208D20B1618D401E2085491E61859C
:1046A000608D18B1606C40F00400606400252563E3
:1046B00084F84250606C656368B1616C2046FFF716
:1046C00015FF94F84100282814D131462046BDE852
:1046D000F041FFF77BBFE06A104EB0420CD020469D
:1046E00000F01EF8E66284F84170204684F84050DD
:1046F000FEF756FABDE8F08194F8410084F8417065
:104700002228204684F8405002D0FEF78EFAF1E7C6
:10471000FEF78AFAEEE7000000E800FE0000FFFF67
:1047200070B504460025282084F8425094F84110C2
:10473000292911D094F841102A290CD1222184F87A
:104740004100216302212046FFF750FE204684F8F5
:104750004050FEF769FA70BD212184F841002163C1
:1047600001212046FFF742FE204684F84050FEF724
:104770005CFA70BD2DE9F04190F840300446C06A03
:104780000D46012B1DD0E943012384F840306FEA28
:104790000206404ACF064FF0807331D4F7062FD47B
:1047A000678D102187B12268D161616C41F00401ED
:1047B000616408B1984260D1616C2046FFF796FEB3
:1047C0005BE00220BDE8F08194F84130282B02D153
:1047D000B0F1007F04D094F84130292B05D00CE0D3
:1047E00029462046FFF7F2FE47E0904205D02068B8
:1047F000C1612046FFF725FE3CE02068C1613CE036
:104800004F0717D4770715D4618D71B1216825F052
:104810000405636A496A1970616A491C6162218DE5
:10482000491E2185618D491E6185618D29BB90429C
:1048300020D122E00A0706D4320704D429462046B4
:10484000FFF710FE19E0890717D4B10715D4618D61
:1048500069B1606A216800788862606A401C6062A1
:10486000608D401E6085208D401E208505E09842A9
:1048700000D010B92046FFF753FFE843800605D467
:10488000B00603D429462046FFF7D2FE002084F864
:10489000400097E70000FFFF2DE9F041534C06462A
:1048A0001746204600F11403B4F81C5300F2BE2250
:1048B000B0F81E03A5F5407CBCF1050C28D0B5F579
:1048C000017F3ED0B5F5007F42D0A5F5007E4FF0C8
:1048D000010CBEF5837E25D0A5F5007101393ED0CF
:1048E000A5F50071023945D0A5F5007103394DD009
:1048F000B5F57A7F60D0A5F5007159395AD0B5F574
:10490000167F60D05FF0030084F8F003BDE8F0810B
:10491000022684F8F063A4F8260300250D80B4F87D
:10492000200308E00A2084F8F003A1F800C0B4F8DE
:104930001E43B4FBF0F038800988BDE8F041FBF776
:10494000B9BD072084F8F003BDE8F04101F0E0BDF7
:10495000092184F8F013BDE8F04101F0B7BD05214D
:1049600084F8F013050A1E2D02D9002001F070FD15
:10497000284607E084F8F0C301F06AFDB4F8B802F5
:104980000028C3D1BDE8F04101F076BD64220621C4
:1049900084F8F0135043B0F5803F01DB4FF6FF7011
:1049A000124A80B23080BDE8F0411C3202F54571F8
:1049B00001F089B80420A7E7082184F8F013BDE8C6
:1049C000F04101F06FBD0B2184F8F013A4F82A0325
:1049D000B4F82003A4F82803B4F82203A4F82E03A3
:1049E000B4F82403A4F82C0390E700000803002087
:1049F000024909220248FDF7DFBB00004C070020F6
:104A00003C0000200148FEF7C5BF0000D80100208F
:104A1000024901220248FFF7D3BB00001802002020
:104A200024020020244A2DE9F04192F8D9C3BCF1B8
:104A3000010F27D0104602270323B0F8A6620124F5
:104A400090F8DB53BCF1020FB0F8AA12B0F8AC0238
:104A50000AD0BCF1030F2DD1B2F8AEC2614523D00C
:104A6000B2F8B0C260451FD028B1022803D0012897
:104A700001D003280AD082F8D933A2F8AE12A2F8E6
:104A8000B00211E0BDE8F041FBF724BD82F8D94344
:104A9000022DA2F85463A2F8AE12A2F8B00209D017
:104AA00082F8DB73A2F8164301F0D6FBBDE8F041B3
:104AB00001F0B6BBBDE8F081080300202DE9FF41FD
:104AC000414800214FF440353E4B009101240191B3
:104AD0004FF0090802910391C0E900350461846137
:104AE00081603A4B80F82010C0E90A31C0F81C8080
:104AF000C16080F830404461FDF7BCFA08B1FCF7B2
:104B0000B3F807253048042600966946CDE90145EB
:104B1000FDF754F908B1FCF7A7F80220694605240F
:104B2000CDE900402848FDF749F908B1FCF79CF8A9
:104B3000032069460627CDE900702348FDF73EF9BA
:104B400008B1FCF791F820486946CDE90056FDF719
:104B500035F908B1FCF788F808261B48CDE9006450
:104B60006946FDF72BF908B1FCF77EF81648444674
:104B7000CDE900876946FDF721F908B1FCF774F823
:104B80000A206946CDE900050F48FDF717F908B17D
:104B9000FCF76AF80B206946CDE900060A48FDF7E4
:104BA0000DF908B1FCF760F80E206946CDE9000464
:104BB0000548FDF703F9002801D0FCF755F8BDE8DA
:104BC000FF810000002001403C0000200100000F98
:104BD0001048002170B50E4D062405604FF4602288
:104BE000C0E9014100F10C044FF4801384E80E0089
:104BF000017641768176C17601774177FDF76CFBCE
:104C0000002803D0BDE87040FCF72EB870BD00004E
:104C100000680040E4000020114808B5016841F434
:104C200080010160016801F480010091016841F494
:104C30000011016000680022114600F4001000908D
:104C40000F20FEF74DF80F20FEF73CF80022382029
:104C50001146FEF745F8BDE808403820FEF732B8A7
:104C600030380240704700002DE9F04F87B0142122
:104C70006846FBF727FB4048016841F010010160DE
:104C8000016801F010010591016841F080010160A7
:104C9000016801F080010591016841F004010160A3
:104CA000016801F004010591016841F00101016012
:104CB000016801F001010591016841F00201016004
:104CC000016801F002010591016841F008010160ED
:104CD00000680022DFF8A4801C2100F00800059085
:104CE0004046FDF760FEDFF8989040F61E66002211
:104CF00031464846FDF757FEDFF888A04FF440776D
:104D0000002239465046FDF74EFEDFF87CB0002207
:104D100010215846FDF747FE0024694601251C2056
:104D20000090CDE9015440460394FDF749FD0096FB
:104D30006946CDE9015448460394FDF741FD402002
:104D40006946CDE9000450460294FDF739FD00970D
:104D50006946CDE9015450460394FDF731FD10201A
:104D60000090CDE90154694658460394FDF728FDAB
:104D700007B0BDE8F08F000030380240001002405C
:104D8000000C0240000802400004024013480021C9
:104D900010B5114C0123124A0460C0E90121C0E999
:104DA000033141618161C1610162FDF79DFE08B17E
:104DB000FBF75AFF09480021FDF700FE08B1FBF799
:104DC00053FF06480021FDF725FE002803D0BDE86B
:104DD0001040FBF749BF10BD005400400C010020FB
:104DE0006847402030B595B0002468461C211294D5
:104DF00013941494FBF766FA2C2107A8FBF762FAC8
:104E00002F4840F237422D4940F2CF7380E8160018
:104E1000C0E9033444618461FFF72CF808B1FBF763
:104E200023FF2748FEF776FF08B1FBF71DFF244854
:104E300012A9129413941494FEF742FD08B1FBF7E3
:104E400013FF60251E48CDE90054002269460294F4
:104E50000394049405940694FEF778FF08B1FBF7D9
:104E600003FF1748082269460094FEF719FF08B1AE
:104E7000FBF7FAFE12480C2269460095FEF766FF22
:104E800008B1FBF7F1FE4FF4005007940894099421
:104E900001030A94CDE90B40CDE90E41084807A96A
:104EA0000D9410941194FEF7BBFC08B1FBF7DCFEE7
:104EB0000348FEF7B5FE15B030BD0000000001400C
:104EC0005801002010B58AB0002468461C210794C0
:104ED00008940994FBF7F6F91A4840F2CF7140F2B2
:104EE00037424FF08043C0E9024104618461C0E968
:104EF0000032FEF7BFFF08B1FBF7B6FE114807A965
:104F000007940994FEF7DCFC08B1FBF7ADFE6020C6
:104F10006946CDE900040B48042202940494FEF78C
:104F200015FF08B1FBF7A0FE06480C226946FEF704
:104F30000DFF08B1FBF798FE0248FEF771FE0AB0BC
:104F400010BD00009801002010B588B0174800245B
:104F5000154940F2E73200946B23019402940394C4
:104F600004940594069480E81600C0E90334846133
:104F7000FEF7D6FC08B1FBF777FE4FF480500090A7
:104F80000A486946FEF71CFD08B1FBF76DFE0748AD
:104F900004A904940694FEF793FC002801D0FBF7C3
:104FA00063FE08B010BD000000080040D8010020DA
:104FB0000D48002110B50B4C0C224FF4E133046076
:104FC000C0E90131C160C0E904128161C1610162BF
:104FD0004162FFF76BF8002803D0BDE81040FBF7F3
:104FE00043BE10BD004C004024020020FEE700003C
:104FF0001448014690F8DE23D1F8E811012A0ED0BA
:10500000022A12D00146032A91F8E01313D0042A91
:1050100010D1022901D006290CD1022108E0022971
:1050200001D0002906D1042102E0012902D1032187
:1050300080F8DE137047022901D00629FAD1012138
:10504000F6E7000008030020704770B5DDE904456D
:105050000688360A2E70007868700888000AA870E2
:105060000878E8701088000A28711078687118882C
:10507000000AA8711878E8712088000A2872207840
:10508000687270BD002210B501EB420430F8123096
:105090001B0A01F8123010F81230521C0A2A6370F1
:1050A000F2DB10BD704700002DE9F041534C06467D
:1050B0001746204600F11403B4F81C5300F2BE2238
:1050C000B0F81E03A5F5407CBCF1050C28D0B5F561
:1050D000017F3ED0B5F5007F42D0A5F5007E4FF0B0
:1050E000010CBEF5837E25D0A5F5007101393ED0B7
:1050F000A5F50071023945D0A5F5007103394DD0F1
:10510000B5F57A7F60D0A5F5007159395AD0B5F55B
:10511000167F60D05FF0030084F8F003BDE8F081F3
:10512000022684F8F063A4F8260300250D80B4F865
:10513000200308E00A2084F8F003A1F800C0B4F8C6
:105140001E43B4FBF0F038800988BDE8F041FBF75E
:10515000B1B9072084F8F003BDE8F04101F0D8B9F7
:10516000092184F8F013BDE8F04101F0AFB9052141
:1051700084F8F013050A1E2D02D9002001F068F909
:10518000284607E084F8F0C301F062F9B4F8B802E9
:105190000028C3D1BDE8F04101F06EB964220621B8
:1051A00084F8F0135043B0F5803F01DB4FF6FF70F9
:1051B000124A80B23080BDE8F0411C3202F54571E0
:1051C00000F081BC0420A7E7082184F8F013BDE8B3
:1051D000F04101F067B90B2184F8F013A4F82A0319
:1051E000B4F82003A4F82803B4F82203A4F82E038B
:1051F000B4F82403A4F82C0390E70000080300206F
:105200002DE9F041534C06461746204600F11403A1
:10521000B4F81C5300F2BE22B0F81E03A5F5407C82
:10522000BCF1050C28D0B5F5017F3ED0B5F5007F67
:1052300042D0A5F5007E4FF0010CBEF5837E25D04F
:10524000A5F5007101393ED0A5F50071023945D0B0
:10525000A5F5007103394DD0B5F57A7F60D0A5F57D
:10526000007159395AD0B5F5167F60D05FF0030050
:1052700084F8F003BDE8F081022684F8F063A4F816
:10528000260300250D80B4F8200308E00A2084F8E6
:10529000F003A1F800C0B4F81E43B4FBF0F038806E
:1052A0000988BDE8F041FBF705B9072084F8F00351
:1052B000BDE8F04101F02CB9092184F8F013BDE8F4
:1052C000F04101F003B9052184F8F013050A1E2D01
:1052D00002D9002001F0BCF8284607E084F8F0C3AA
:1052E00001F0B6F8B4F8B8020028C3D1BDE8F04127
:1052F00001F0C2B86422062184F8F0135043B0F5DF
:10530000803F01DB4FF6FF70124A80B23080BDE86B
:10531000F0411C3202F5457100F0D5BB0420A7E72F
:10532000082184F8F013BDE8F04101F0BBB80B216F
:1053300084F8F013A4F82A03B4F82003A4F828038F
:10534000B4F82203A4F82E03B4F82403A4F82C0321
:1053500090E70000080300202DE9F041534C064679
:105360001746204600F11403B4F81C5300F2BE2285
:10537000B0F81E03A5F5407CBCF1050C28D0B5F5AE
:10538000017F3ED0B5F5007F42D0A5F5007E4FF0FD
:10539000010CBEF5837E25D0A5F5007101393ED004
:1053A000A5F50071023945D0A5F5007103394DD03E
:1053B000B5F57A7F60D0A5F5007159395AD0B5F5A9
:1053C000167F60D05FF0030084F8F003BDE8F08141
:1053D000022684F8F063A4F8260300250D80B4F8B3
:1053E000200308E00A2084F8F003A1F800C0B4F814
:1053F0001E43B4FBF0F038800988BDE8F041FBF7AC
:1054000059B8072084F8F003BDE8F04101F080B8F6
:10541000092184F8F013BDE8F04101F057B80521E7
:1054200084F8F013050A1E2D02D9002001F010F8AF
:10543000284607E084F8F0C301F00AF8B4F8B8028F
:105440000028C3D1BDE8F04101F016B8642206215E
:1054500084F8F0135043B0F5803F01DB4FF6FF7046
:10546000124A80B23080BDE8F0411C3202F545712D
:1054700000F029BB0420A7E7082184F8F013BDE859
:10548000F04101F00FB80B2184F8F013A4F82A03BF
:10549000B4F82003A4F82803B4F82203A4F82E03D8
:1054A000B4F82403A4F82C0390E7000008030020BC
:1054B0002DE9F041534C06461746204600F11403EF
:1054C000B4F81C5300F2BE22B0F81E03A5F5407CD0
:1054D000BCF1050C28D0B5F5017F3ED0B5F5007FB5
:1054E00042D0A5F5007E4FF0010CBEF5837E25D09D
:1054F000A5F5007101393ED0A5F50071023945D0FE
:10550000A5F5007103394DD0B5F57A7F60D0A5F5CA
:10551000007159395AD0B5F5167F60D05FF003009D
:1055200084F8F003BDE8F081022684F8F063A4F863
:10553000260300250D80B4F8200308E00A2084F833
:10554000F003A1F800C0B4F81E43B4FBF0F03880BB
:105550000988BDE8F041FAF7ADBF072084F8F003F1
:10556000BDE8F04100F0D4BF092184F8F013BDE894
:10557000F04100F0ABBF052184F8F013050A1E2DA1
:1055800002D9002000F064FF284607E084F8F0C349
:1055900000F05EFFB4F8B8020028C3D1BDE8F041C6
:1055A00000F06ABF6422062184F8F0135043B0F57E
:1055B000803F01DB4FF6FF70124A80B23080BDE8B9
:1055C000F0411C3202F5457100F07DBA0420A7E7D6
:1055D000082184F8F013BDE8F04100F063BF0B210F
:1055E00084F8F013A4F82A03B4F82003A4F82803DD
:1055F000B4F82203A4F82E03B4F82403A4F82C036F
:1056000090E70000080300207047FDF70FBB000083
:1056100030B5B7B0342124A8FAF754FE142131A8CC
:10562000FAF750FE90216846FAF74CFE1D480168D3
:1056300041F080510160006800F0805036901A48B7
:10564000016841F44041016000680224042300F431
:105650004040369001202C93D82582050104CDE9E5
:105660002A42CDE92D542F94CDE9240124A8FDF739
:1056700023FFFDF767FB4FF4A05000250F21CDE974
:105680003350359031A8CDE931140721FDF72EFEB6
:1056900014954FF48440199500906846FDF788FBF7
:1056A00037B030BD4038024000700040104A30B57D
:1056B0001048146800210F4B44F470041460083340
:1056C00005680D4A0D4C45F0010505601960036839
:1056D000051D1340074A03600C322C600568E30582
:1056E000034C25F480250560803C1160236030BDAB
:1056F00088ED00E000380240FFFFF6FE1030002485
:105700000148FEF7CCB90000D8010020F0B5274BC6
:105710004FF0804E264D02689842264E264F274C69
:1057200009D0704507D0A84205D0B04203D0B84296
:1057300001D0A04205D1D1F804C022F070024CEA99
:10574000020298421BD0704519D0A84217D0B0422F
:1057500015D0B84213D0A04211D0194DA8420ED096
:10576000184DA8420BD0184DA84208D0174DA8429A
:1057700005D0174DA84202D0164DA84203D1CD68DE
:1057800022F440722A434D6922F080022A430260CB
:1057900098428A68C2620A68826201D0A04201D13E
:1057A0000969016301214161F0BD00000000014071
:1057B0000004004000080040000C004000040140CC
:1057C00000400140004401400048014000180040F2
:1057D000001C00400020004010B5046A012301F0C5
:1057E0001F018B409C4304628A40016A114301629D
:1057F00010BD42EA032283680A4323F47F410A432F
:1058000082607047826822F070020A4342F007010A
:1058100081607047F0B5026ADFF860C0184F22F06F
:105820000102DFF860E00262066A4268836926F0DE
:1058300002060D68B8428C6803EA0C0323F00303E8
:1058400044EA060445EA030501D0704505D1CB685A
:1058500024F00804234323F00404B84201D0704527
:1058600005D122F44076D1E9053233431A43426030
:105870008561496841630462F0BD00008FFFFEFF4F
:105880000000014000040140F0B5026A194E1A4CB4
:1058900022F01002DFF864E00262056A4368826960
:1058A00025F02005D1F808C0A0420F6802EA0602E0
:1058B00022F4407245EA0C1542EA072201D07045F5
:1058C00006D1CE6825F0800545EA061525F040058D
:1058D000A04201D0704507D1D1E9054623F44063C9
:1058E00043EA840343EA8603436082614968816333
:1058F0000562F0BDFF8FFFFE000001400004014083
:10590000F0B5026A194F1A4E22F48072DFF864E093
:105910000262056A4368C26925F40075D1F808C0BF
:10592000B0420C6802EA070222F0030245EA0C25A5
:1059300044EA020401D0704506D1CF6825F4006224
:1059400042EA072222F48065B04201D0704507D1B7
:1059500023F44052D1E9053642EA031242EA061323
:105960004360C4614968C1630562F0BD8FFFFEFFFB
:105970000000014000040140F0B5026A124B114FD3
:1059800022F4805298420262046A4268C36924F495
:1059900000548E680D6803EA070323F4407344EA59
:1059A000063443EA052302D0084DA84204D14D69CC
:1059B00022F4804242EA85124260C3614968016470
:1059C0000462F0BDFF8FFFFE0000014000040140B3
:1059D000F0B5026ADFF844C022F480320262056A40
:1059E0004268446D25F400350E8960450C4F0B6804
:1059F00004EA070445EA064543EA040302D0094CD9
:105A0000A04204D14C6922F4803242EA042242606E
:105A10004365496881650562F0BD000000000140F2
:105A20008FFFFEFF00040140F0B5026ADFF844C0BA
:105A300022F480120262046A4268436D24F4001466
:105A40000E8960450C4F0D6803EA070344EA0654CB
:105A500043EA052302D0094DA84204D14D6922F43E
:105A6000802242EA8522426043654968C16504623A
:105A7000F0BD000000000140FF8FFFFE0004014068
:105A800010B5036A046A23F00A0324F001040462D7
:105A900084690B4324F0F00141EA02118161036241
:105AA00010BD10B5036A23F0100303628369046A12
:105AB00023F4704324F0A00443EA0232826144EAF2
:105AC0000111016210BD0880108070470148FEF787
:105AD00059BA00002402002090F82410C90706D00B
