:020000040800F2
:10000000581A00200D020008F1A00008316900080C
:100010008DA00008291100083FAB00080000000077
:1000200000000000000000000000000059A10008CE
:100030008D1600080000000041A1000885A10008FD
:1000400027020008270200082702000827020008EC
:1000500027020008270200082702000827020008DC
:1000600027020008270200082702000827020008CC
:10007000270200082702000827020008D1150008FF
:100080002702000827020008950B00082702000835
:10009000270200082702000827020008270200089C
:1000A000270200082702000827020008270200088C
:1000B0002702000827020008270200083569000807
:1000C000270200082702000827020008270200086C
:1000D000270200082702000827020008270200085C
:1000E000270200082702000827020008270200084C
:1000F000270200082702000827020008270200083C
:10010000270200082702000827020008270200082B
:10011000DDA50008270200087DA2000827020008CC
:10012000DD15000827020008270200082702000842
:1001300027020008270200082702000859110008BA
:10014000411100084D11000827020008270200088D
:1001500027020008270200082702000827020008DB
:1001600027020008270200082702000827020008CB
:1001700027020008270200082702000800000000EC
:1001800027020008270200082702000827020008AB
:10019000270200082702000827020008270200089B
:1001A000270200082702000827020008270200088B
:1001B000270200082702000827020008270200087B
:1001C000270200082702000800000000270200089C
:1001D000270200082702000827020008270200085B
:1001E000270200082702000827020008270200084B
:1001F0002702000827020008DFF80CD000F09CF866
:1002000000480047D9AF0008581A00200648804728
:1002100006480047FEE7FEE7FEE7FEE7FEE7FEE7EB
:10022000FEE7FEE7FEE7FEE729A20008F901000865
:100230002DE9F05F0546002092469B46884606461B
:10024000814640241BE0284641464746224600F0AE
:1002500062F853465A46C01A914110D311461846C7
:10026000224600F049F82D1A67EB01084F46224656
:100270000120002100F040F817EB00094E41201E3C
:10028000A4F10104DFDC484631462A464346BDE876
:10029000F09F40EA01039B0703D009E008C9121F41
:1002A00008C0042AFAD203E011F8013B00F8013B30
:1002B000521EF9D27047D2B201E000F8012B491E5C
:1002C000FBD270470022F6E710B513460A460446F3
:1002D0001946FFF7F0FF204610BD30B50546002057
:1002E000034600E05B1C934205D2EC5CC85C201A1C
:1002F00001D1002CF6D130BD202A04DB203A00FACF
:1003000002F1002070479140C2F1200320FA03F36C
:10031000194390407047202A04DB203A21FA02F06A
:100320000021704721FA02F3D040C2F1200291402F
:100330000843194670470000064C074D06E0E06888
:1003400040F0010394E8070098471034AC42F6D31C
:10035000FFF756FF08B7000828B700082DE9F05F3F
:10036000DFF82484022601254FF0050B4FF0000929
:100370002DED028BB8F8DC0DB8F8F21D884279D06B
:10038000B8F8DE0DB8F8F41D884273D001F00AFA0F
:1003900000204C46A8F8929E00F0FCFFB8F8DE0D55
:1003A000F0B1032827D001283BD088F8F04F02286D
:1003B00088F8EF4F88F8EE4F46D088F8EBBFB8F8D2
:1003C000DC1DA8F8F21DA8F8F40D0AF059FC0AF09B
:1003D0003BFC00BF88F8ED5FBDEC028BBDE8F09FF1
:1003E00088F8F04F88F8EF4F88F8EE4F88F8EBBFA9
:1003F0000AF0A0FCEEE788F8F04F88F8EF4F88F895
:10040000EE4F88F8EBBF0AF095FC98F8ED0F022844
:10041000E2D088F8ED6FBDEC028BBDE8F05F01F033
:10042000B1B988F8F04F88F8EF4F88F8EB5FB8F86B
:10043000D80DA8F8DA0EB8F8DC0DA8F8F20DA8F877
:10044000F45D88F8EE6F11E088F8EB6FB8F8E00D16
:10045000A8F8DE0EB8F8DC0DA8F8F20DA8F8F46DD7
:1004600098F8F40F0128B7D088F8F45FA8F8924EF6
:1004700018E0FFE7C44C192798F8EE0F012894F80C
:10048000F0CFB4F8DA3EB4F8DA2DB4F8D81D04F59C
:1004900000640FD002289FD1994201D0012A7BD05D
:1004A000A8F8929E0AF0ECFBBDEC028BBDE8F05F71
:1004B0000AF0CABB98F8EF0F012808D002288BD1A8
:1004C00088F8EF9F88F8EE6FA8F8929EEAE79942C5
:1004D00000D07AB1C2469FEDAD8BAB48BCF1060FA0
:1004E000B0F8E20EBFF478AFDFE80CF0030B93E84E
:1004F000FAF971E7A8F8DA1E88F8F09F88F8EF6F2C
:10050000E9E001287FD89942D04675D0022A73D1FC
:100510000B200AF09FFCB8F8E81D88426CDCB8F8A4
:10052000D81D0020A8F8DA1E88F8F0BFA8F8926E4F
:100530000AF090FC00EE100AB8EEC00B84ED2C0B14
:10054000B4EEC80BF1EE10FA0CD2B5EEC00BF1EE22
:1005500010FA05DBBCEEC00B10EE100AC0B202E0D0
:10056000002000E0FF2000F015FF02200AF072FCDE
:1005700090FBF7F0C8F8A40C00200AF06BFC0546CD
:1005800001200AF067FC002D014606DB6FF00040F9
:100590002A1A914209DB07E0D3E005F100408142CD
:1005A00002DD4FF0004000E0681A6FF0004280FB6F
:1005B00007500021521B814102DA6FF0004507E02D
:1005C0004FF00041691A70F1FF3001DA4FF0004539
:1005D00002200AF03FFC00EE100AB8EEC01B00EE4D
:1005E000105AB8EEC00B80EE012B84ED2E2BA8F82C
:1005F000E27EF1E607E0FFE788F8F05FA8F8925E98
:10060000A8F8E27E7CE0401E00D50020AAF8E20EA9
:1006100079E0012855464BD8D5F8A40C002806DD12
:1006200001200AF017FC95F8D21F884212DB002047
:1006300000F0B0FE01F0B6F8032085F8F00FA5F841
:10064000E27EB5F8F00DFF2800D9FF20514981F86E
:10065000250046E085F8F06F94ED2C0B94ED2E1BF1
:1006600030EE410B84ED2C0BB4EEC80BF1EE10FA1A
:100670000CD2B5EEC00BF1EE10FA05DBBCEEC00BF0
:1006800010EE100AC0B202E0002000E0FF2000F0EF
:1006900081FED5F8A40C4FF00041884202DCC5F879
:1006A000A41C02E0401EC5F8A40CA5F8E27E93E667
:1006B000401E00D50020AAF8E20E8DE6BAF8F01D23
:1006C0005046DAF8202991420BDB082909D080F83E
:1006D000F09F8AF8EF6F01F065F800204EE018E017
:1006E00005E0BDEC028BBDE8F05F0AF049BA0128D5
:1006F0005146DDD881F8F05FA1F8925EAAF8E27E5B
:10070000642000F047FEBDEC028BBDE8F05F0AF00C
:10071000B7BA01285546CBD885F8F06F94ED2C0B6D
:1007200094ED2E1B30EE410B84ED2C0BB4EEC80B78
:10073000F1EE10FAAAD2B5EEC00BF1EE10FAA3DB7F
:100740009CE7A8F8DA1EBCF1040F9FED130B88F8A4
:10075000EE5FA8F8E29E84ED2C0B84ED2E0BC8F81A
:10076000A49C88F8EF5FA2D0042088F8F00FA8F8C6
:10077000925EA8F8E27E01F005F86420BDEC028BE1
:10078000BDE8F05F00F006BE780000200000000029
:100790000000704078100020000000000000000001
:1007A0002DE9FC5FD04C012602270025B4F8DC0DB2
:1007B000B4F8F21D88427BD0B4F8DE0DB4F8F41D15
:1007C000884275D000F0EEFF0020A4F8925E00F0A1
:1007D000E1FDB4F8DE0D4FF0050828B1032819D06B
:1007E000012830D0022845D00AF0B6FA84F8EB8F01
:1007F000B4F8DC0DA4F8F20DB4F8DE0DA4F8F40D95
:1008000004F6DC540AF03CFA0AF01EFA84F811628D
:10081000BDE8FC9F0AF0A0FA84F8EB8FB4F8DC0D79
:10082000A4F8F20DB4F8DE0DA4F8F40D0AF028FADD
:100830000AF00AFA94F8ED0F0228E9D084F8ED7F67
:1008400000F0A0FFE4E70AF087FA84F8EB6FB4F851
:10085000D80DA4F8DA0EB4F8DC0DA4F8F20DB4F853
:10086000DE0DA4F8F40D94F8EE0F0228D0D084F831
:10087000EE7F15E00AF070FA84F8EB7FB4F8E00D33
:10088000A4F8DE0EB4F8DC0DA4F8F20DB4F8DE0D19
:10089000A4F8F40D94F8F40F0128B9D084F8F46F9B
:1008A000A4F8925E0AF0ECF90AF0CEF9B0E7FFE79F
:1008B00094F8F40F0B28ABD2DFE800F006070AFE2D
:1008C000F3F2F1F0EFEEED00A2E700F075FD9FE727
:1008D00094F8F50F012804D0022899D184F8F55F27
:1008E000DCE78148B4F8E02DB4F8DE3EB0F8E21D54
:1008F0009A4200D021B3DFF8F0814FF0190994F843
:10090000F6CFDFF8E8A108F5947BBCF1010FB8F849
:10091000E60E1AD0BCF1020F4FD0BCF1030F7CD011
:10092000BCF1040F8ED1012878D800BF84F8F66F8F
:100930003720A4F8926EA4F8E69E00F02BFD39E073
:10094000A4F8DE2E84F8F75F9BE001282DD89A42A8
:10095000ECD00229EAD10B200AF084FAB4F8E81DA1
:100960008842E3DCB4F8E00D5A46A4F8DE0EA4F8A1
:10097000927E84F8F67FA4F8E85EB4F8EA0DB4F845
:10098000EC1D04F55E6400EE900A00EE101ADAF831
:1009900004006946B8EE601BB8EE400BB7EE002BC2
:1009A00007F006FF84F8177232E7401E00D50020DA
:1009B000A4F8E60E0AF064F92AE7B4F8E60D0A286E
:1009C00014D3002000F0E6FC00F0ECFE84F8F75FA2
:1009D000032184F8F61FA4F8E69EB4F8F00DFF2872
:1009E00000D9FF20424981F825005CE094F8F70F18
:1009F000012838D00228D7D194F8C80FB4F8E81EDF
:100A00008842D1D0A4F8E80E84F8F76FB4F8EA0D64
:100A1000B4F8EC1D00EE100A01E02CE046E000EE18
:100A2000901AB8EE401BDAF804005A46B8EE600B94
:100A30009FED302B694607F0BBFE9DED000B9FED4F
:100A40002F1BB4EEC10BF1EE10FA12D2B5EEC00BB3
:100A5000F1EE10FA0ADBBCEEC00B10EE100A00BF7C
:100A600084F8D20FD4E684F8F77FD1E684F8D25F19
:100A7000CEE6FF20F4E7B4F8F00D032813D30828DE
:100A800011D084F8F65F84F8F57F00F08BFE00202B
:100A900000F080FCBCE624E020E01CE018E014E05C
:100AA00010E00CE008E00AF0A1F8B1E6401E00D525
:100AB0000020A4F8E60EABE606F03AFDA8E606F044
:100AC00049FEA5E606F04EFFA2E607F057F89FE6BE
:100AD00007F05CF99CE607F061FA99E607F066FB1F
:100AE00096E607F06BFC93E678000020E8B5000876
:100AF000781000200000000000000000000000004E
:100B00000000704010B50146806B026C12F0500F6F
:100B100005D0026CD20626D502F093FF10BD016C01
:100B200041F40071016401688A6812F0405F17D1D6
:100B30008269AAB9CA6A12F4700F02D08A68520593
:100B40000ED44A6822F020024A60016C21F48071C0
:100B50000164016CC90403D4016C41F0010101641A
:100B600002F064FF10BD806BC26C0846BDE8104007
:100B7000104710B5806B40210164416C41F00401C5
:100B8000416402F05EFF10BD10B5806B02F058FFAB
:100B900010BD0000014802F055BF0000DC1200202B
:100BA0004A496FF0706210B5D1F8043323F4403332
:100BB000C1F80433D1F8043344682343C1F8043343
:100BC00001684B6823F480734B60016803694C68CB
:100BD00044EA03234B6001684B6823F040734B6089
:100BE000016884684B6823434B6001688B6823F479
:100BF00000638B600168C4688B6823438B60816AE3
:100C0000D14201688A6822F070628A6001680DD062
:100C1000836A8A681A438A6001688A6822F04052AF
:100C20008A600168C36A8A681A4302E08A6822F00F
:100C300040528A6001688A6822F002028A60016874
:100C400082698B6843EA42028A6090F8201000298A
:100C5000016811D01E4A4B6843F400634B60016881
:100C60004B6823F460434B600168446A4B6802EBB5
:100C7000443213434B6003E04A6822F400624A6046
:100C80000168144BCA6A22F47002CA620168848B3C
:100C9000CA6A03EB04531A43CA6201688A6822F4E1
:100CA00000728A60016890F830208B6843EA422223
:100CB0008A6001688A6822F480628A6001684069FB
:100CC0008A6842EA8020886010BD00000020014050
:100CD00000E0FFFF0000F0FF2DE9F05FDFF8308457
:100CE000022601254FF0050B4FF000092DED028B78
:100CF000B8F8DC0DB8F8F21D88427CD0B8F8DE0DEB
:100D0000B8F8F41D88427AD000F04CFD00204C4623
:100D1000A8F8929E00F03EFBB8F8DE0DF0B1032873
:100D200027D001283BD088F8F34F022888F8F24FEB
:100D300088F8F14F4CD088F8EBBFB8F8DC1DA8F864
:100D4000F21DA8F8F40D09F09BFF09F07DFF00BF2C
:100D500088F8ED5FBDEC028BBDE8F09F88F8F34F9B
:100D600088F8F24F88F8F14F88F8EBBF09F0E2FFFE
:100D7000EEE788F8F34F88F8F24F88F8F14F88F8DB
:100D8000EBBF09F0D7FF98F8ED0F0228E2D088F802
:100D9000ED6FBDEC028BBDE8F05F00F0F3BC88F8AE
:100DA000F34F88F8F24F88F8F14F88F8EB5FB8F806
:100DB000D80DA8F8DA0EB8F8DC0DA8F8F20DA8F8EE
:100DC000F45D98F8EE0F0228C4D088F8EE6F11E0B9
:100DD00088F8EB6FB8F8E00DA8F8DE0EB8F8DC0D77
:100DE000A8F8F20DA8F8F46D98F8F40F0128B1D026
:100DF00088F8F45F00E002E0A8F8924E1DE0C44CD1
:100E0000192798F8F12F012A94F8F31FB4F8E00D90
:100E1000B4F8DECEB4F8E23D04F5006415D0022A41
:100E200098D198F8F22F012A33D0022A92D188F86B
:100E3000F29F88F8F15FA8F8929E09F021FFBDECBF
:100E4000028BBDE8F05F09F0FFBE604501D0012BC9
:100E500002D0A8F8929EF0E79FEDAE0BA8F8DE0E48
:100E6000042988F8F16FA8F8E49E84ED300B84ED36
:100E7000320BC8F8A89C88F8F25F87D0042088F865
:100E8000F30FA8F8925EA8F8E47E00F07BFC6420E3
:100E900004E1604500D073B1C2469FEDA08B9C4A2F
:100EA0000629B2F8E42EBFF455AFDFE801F0030BDA
:100EB00092E7FDFC4EE7A8F8DE0E88F8F39F88F86D
:100EC000F26FE8E0012A7ED86045D04674D0022B4C
:100ED00072D10B2009F0C6FFB8F8E81D88426BDC20
:100EE000B8F8E01D0020A8F8DE1E88F8F3BFA8F8C7
:100EF000926E09F0B7FF00EE100AB8EEC00B84ED59
:100F0000300BB4EEC80BF1EE10FA0CD2B5EEC00BFC
:100F1000F1EE10FA05DBBCEEC00B10EE100AC0B209
:100F200002E0002000E0FF2000F034FA022009F087
:100F300099FF90FBF7F0C8F8A80C002009F092FF89
:100F40000546012009F08EFF002D014605DB6FF0FC
:100F500000402A1A914208DB06E005F10040814278
:100F600002DD4FF0004000E0681A6FF0004280FBA5
:100F700007500021521B814102DA6FF0004507E063
:100F80004FF00041691A70F1FF3001DA4FF000456F
:100F9000022009F067FF00EE100AB8EEC01B00EE59
:100FA000105AB8EEC00B80EE012B84ED322BA8F85E
:100FB000E47ECFE607E0FFE788F8F35FA8F8925EEB
:100FC000A8F8E47E82E0521E00D50022AAF8E42EA2
:100FD0007FE0012A55464BD8D5F8A80C002806DD3D
:100FE000012009F03FFF95F8D21F884212DB002054
:100FF00000F0D0F900F0D6FB032085F8F30FA5F838
:10100000E47EB5F8F00DFF2800D9FF20454981F8AE
:1010100025004CE085F8F36F94ED300B94ED321B16
:1010200030EE410B84ED300BB4EEC80BF1EE10FA4C
:101030000CD2B5EEC00BF1EE10FA05DBBCEEC00B26
:1010400010EE100AC0B202E0002000E0FF2000F025
:10105000A1F9D5F8A80C4FF00041884202DCC5F890
:10106000A81C02E0401EC5F8A80CA5F8E47E71E6B5
:10107000521E00D50022AAF8E42E6BE6BAF8F01D45
:101080005046DAF8C029914211DB08290FD080F8C8
:10109000F39F8AF8F26F00F085FB0020BDEC028B15
:1010A000BDE8F05F01E01AE007E000F073B9BDECC5
:1010B000028BBDE8F05F09F099BD012A5046D7D8F0
:1010C00080F8F35FA0F8925EAAF8E47E642000F056
:1010D00061F9BDEC028BBDE8F05F09F0D1BD012ADA
:1010E0005546C5D885F8F36F94ED300B94ED321B5F
:1010F00030EE410B84ED300BB4EEC80BF1EE10FA7C
:10110000A4D2B5EEC00BF1EE10FA9DDB96E700001D
:101110007800002000000000000000000000000037
:101120000000704078100020FEE7000003480168CE
:10113000002008640C21014805F03CB9D4140020BB
:10114000014802F0F0BF0000E0130020014802F067
:10115000EABF0000E0130020014802F0E4BF0000F5
:10116000E01300202DE9F0474A4C012600254FF4FA
:10117000FF484FF4C14148480E27C4E9065684E8A9
:101180002201E5602146C4E90457C4E9086702F07A
:10119000A7FE14344FF4C3410F2084E86100143CCF
:1011A0003D4884E82201E56021462561C4E90867DD
:1011B00002F096FE4FF48049374844F8149B102102
:1011C00084E8620044E9045844F8085C44F8045C8C
:1011D000C4E903672F49143C02F082FE44F8149BD3
:1011E00011222C492C4884E8640044E9045844F84E
:1011F000085C44F8045CC4E90367143C02F070FE28
:10120000143447F6C0711222F00384E8640044E904
:10121000050544E9031544F8045CC4E903671D4966
:10122000143C1D4802F05CFE143447F6E0781320AD
:101230004FF4814184E86100143C174884E822019E
:10124000E56025611349C4E9086702F049FE1434DA
:1012500044F2E001142084E86100143C0E4884E864
:101260002201E56025610B49C4E9086702F038FEF8
:10127000143409481522390384E86400143C84E8D6
:101280002201E5602561C4E90867BDE8F04701492E
:1012900002F026BE84130020E0130020064810B59B
:1012A00003F0B6F9044802F0ABFE034803F039F846
:1012B000BDE8104000F002B8E013002010B5FFF7C1
:1012C00051FF0848012102F08DFD0648022102F07D
:1012D00089FD0448102102F085FDBDE81040014859
:1012E00003F06AB9E013002008B564208DF800000F
:1012F000684600F029F80248042105F05BF808BDB3
:101300009414002090ED000B9FED0A3B9FED0C2BF9
:101310000A4880EE031B90ED030A0168B8EE400B0B
:1013200031EE021B21EE000BBDEEC00B10EE100AD9
:10133000886370470000000000409F409414002024
:101340009A9999999999A93F01789FED0D2B00EEF3
:10135000101A9FED0E1B0C48B8EE404BD0ED030A5F
:10136000016884EE023BB8EE600B33EE011B21EE08
:10137000000BBDEEC00B10EE100A88637047000032
:101380000000000000409F40941400209A99999911
:101390009999A93F0649642881F8D20F00D36420A7
:1013A000C0F1640081F8DC0F0248FFF7CDBF0000F8
:1013B00078000020541000202DE9F041DFF804826D
:1013C0000020B8F8E01DB8F8DE2E914203D0B8F83E
:1013D000E22D012A07D0A8F8920E09F051FCBDE8D1
:1013E000F04109F031BCA8F8DE1E1927B8F87E1EBE
:1013F0000426754C012508297DD2DFE801F0041D83
:1014000037506A8399AF022188F8F41FA8F8E60ED6
:1014100098F8F50F012804D06C4888F8F55F08F0BB
:1014200041FB98F8F60F042866D088F8F66FA8F804
:10143000925EA8F8E67EBCE0032188F8F41FA8F8C5
:10144000EA0E98F8F80F012805D0604888F8F85F90
:10145000203808F02FFB98F8F90F04284CD088F8B2
:10146000F96FA8F8925EA8F8EA7EA2E088F8F46F17
:10147000A8F8EE0E98F8FB0F012805D0534888F81D
:10148000FB5F403808F02EFB98F8FC0F042833D09F
:1014900088F8FC6FA8F8925EA8F8EE7E89E0052136
:1014A00088F8F41FA8F8F20E98F8FE0F012805D06E
:1014B000464888F8FE5F603808F010FB98F8FF0F88
:1014C00004287DD088F8FF6FA8F8925EA8F8F27E15
:1014D0006FE0062288F8F42FA8F8F60E607801284D
:1014E00004D03A486570803808F0ECFAA0780428F7
:1014F00066D0A67001E047E062E0A8F8925EA8F826
:10150000F67E56E0072288F8F42FA8F8FA0E207924
:10151000012804D02B482571883008F0CFFA607973
:1015200004284DD06671A8F8925EA8F8FA7E40E0D3
:10153000082288F8F42FA8F8FE0EE079012804D0DC
:101540002048E571683008F0C5FA207A042837D0C1
:101550002672A8F8925EA8F8FE7E2AE0092288F892
:10156000F42FA8F8020FA07A012804D01548A5721C
:10157000483008F09BFAE07A042821D0E672A8F8F7
:10158000925EA8F8027F14E00A2288F8F42FA8F8E7
:10159000060F607B012804D00A486573283008F0E4
:1015A00095FAA07B04280BD0A673A8F8925EA8F841
:1015B000067F00F0E7F8BDE8F0416420FFF7EABEDF
:1015C000BDE8F0817800002078100020A001002004
:1015D000014803F067B80000F4150020014803F04B
:1015E00061B800002413002001681823CAB2103A21
:1015F000B2FBF3F2054B6FF30901032A9B5CC36551
:1016000000D9091D8165084670470000E8B600084A
:1016100010B583694FF0C074826A0146002053B14F
:10162000B3F5005F15D072B1012A0CD0022A0AD09E
:10163000032A09D104E01AB1012A06D0022A03D1F3
:10164000C96AC90100D5012010BDC96AA142FAD0FA
:1016500010BD002AF7D0012AF2D0022AF3D0032AC3
:10166000F3D010BD30B50468256825F480252560C9
:10167000046863608368402B036803D09960006846
:10168000C26030BD9A600068C16030BD7047000024
:10169000FEB500240D46102106460848224603F0F8
:1016A0004DFB642034700121009501232246CDE9D1
:1016B00001100348A02103F011FCFEBD000402400C
:1016C00008140020FEB5157850220F781C460178CA
:1016D0006426089B42EA111047EA01118DE8680070
:1016E000CAB241000248012303F0F8FB2070FEBD9E
:1016F000081400202DE9FC4700781746097850228D
:10170000DDE90A9842EA10140F4D41EA0010C6B212
:101710000020195C2954401C1028FADB0B480022D9
:10172000102103F00BFB002188F8001038786100CD
:1017300001233246CDE90050054803F081FC89F8C9
:101740000000BDE8FC870000CA120020000402402F
:101750000814002010B500F025F8BDE8104000F096
:1017600019B8000000220248102103F0E7BA000077
:10177000000C024002780821014803F0DFBA0000A3
:10178000000C024000220248042103F0D7BA0000F6
:10179000000C024001220248102103F0CFBA0000E1
:1017A000000C024001220248042103F0C7BA0000E5
:1017B000000C024070B505460C46084600F004F8DF
:1017C0002078287070BD00000121017002480A468F
:1017D000490203F0B3BA0000000802400021017082
:1017E00002480A464FF4007103F0A8BA000802400C
:1017F000704700002DE9FF4F87B0944605460078FA
:10180000DDE91631DDE914A2DDE91FB4DDE91A7660
:10181000DDE91898572838D052283FD04C2868D096
:1018200045282FD15C2261464846FEF732FD002153
:10183000C9F85C10C8F834100846C8F83810C8F861
:101840003C10089A52F8203048F820300A9A52F892
:10185000202047F82020401C0D28F2DB796300206F
:10186000DAF800203260B963DAF804207260F963B4
:10187000DAF80820C6F8082006EB8002401C05288C
:10188000D160F9DB0BB0BDE8F08FCDE900212B1D55
:10189000EA1CA91C681CFFF72DFFF3E71C981CAE7F
:1018A0006A7802701D98AA7802701E98EA78027011
:1018B000CDF800B096E80700FFF704FF1C98017808
:1018C000002084F890101D99097884F891101E99D1
:1018D000097884F8921000BF22181BF80010401CF1
:1018E000102882F89310F7DB04F1900009F034FC23
:1018F000C8E704F180000090EA1CA91C681C04F1F0
:10190000A303FFF7DFFE94F8A30094F8A410884225
:1019100067D000200DF1080104EB400292F88130FD
:1019200092F8802003EB022221F81020401C0828A6
:10193000F2DB687801280ED002280CD003280AD0E8
:1019400005281BD0062819D008282AD0092828D015
:101950000B283BD045E0C006020ED01F904200D9B4
:101960000020002252FA80F304EB430331F81250B6
:10197000521C082A23F8025CF4DB32E0C000203855
:10198000C0B2C21F824200D90022002050FA82F366
:1019900004EB430331F81050401C0828DD85F5DBCB
:1019A0001FE0C0003838C0B2C21F824200D90022F6
:1019B0005FF0000050FA82F304EB430331F810505B
:1019C000401C0828A3F84E50F4DB0AE05FF000004A
:1019D00004EB400331F81020401C0828A3F87020C5
:1019E000F6DB002034F8102049F82020401C18288D
:1019F000F8DB002004EB4001B1F8502047F820202C
:101A00000A8E48F82020401C1028F3DB5FF000000D
:101A100004EB4001B1F8701046F82010401C082873
:101A2000F6DB2FE70348C1680068416300210148E5
:101A300004F0C0BC541400202DE9F04F08202DED17
:101A4000028B85B009F026FBDFF898A10122B7EEE2
:101A5000008B0AF50065514605F500644FF0020958
:101A600085ED188B85ED2A8B931ECAF8A03C85ED79
:101A7000368BA4F5AC6084F82C2084F82890A4F56B
:101A8000906600F1600881F8EC21602100F1A00768
:101A9000FEF718FC40214046FEF714FC4021384672
:101AA000FEF710FC0020014646F82010401C0828D4
:101AB000FADB4D49484603914A4F81F81C90203982
:101AC0000291A1F140083E4681F81C90A1F1200945
:101AD000A1F1A00BC03989F81C0088F81C0087F818
:101AE000C400A83786F8A40088368BF81C00019142
:101AF000087720390091087701F6A81085ED208B32
:101B000009F0B8F906F67C1009F0F0F906F6D810DD
:101B100009F0D2F906F60C2009F0C6F906F645726E
:101B2000511E481EFFF7B4FD06F6467009F050FB43
:101B3000FFF7FCFAFFF7C2FBFFF7D6FBFFF70AFE41
:101B4000FFF770FF01F0EEFD05F0E2FC05F0E6FCAA
:101B500008F004FB08F00CFB9AF8F50F5546012835
:101B600002D1039807F09EFF95F8F80F012802D1E3
:101B7000029807F09FFF95F8FB0F012802D1484615
:101B800007F0B0FF95F8FE0F012802D1404607F09C
:101B9000A5FF6078012802D1384607F093FF20792D
:101BA000012802D1304607F089FFE079012802D1EF
:101BB000584607F08FFFA07A012802D1019807F05C
:101BC00075FF607B012807D1009805B0BDEC028B42
:101BD000BDE8F04F07F07ABF05B0BDEC028BBDE861
:101BE000F08F000078000020A00100202DE9F04FC8
:101BF00040222DED068BADB0FE491991A1F52C7058
:101C0000FEF747FBFB49602240312A91A1F52C7079
:101C1000FEF73FFBF7494022A0311391A1F52C704C
:101C2000FEF737FBF44A1AAB92F9110F02EB800072
:101C3000B0F83C1EA2F8D41DB0F83E0EA2F8D60DA6
:101C400092F8E50F82F8C60F92F9120F02EB8000AE
:101C5000B0F8441EA2F8D81DB0F8460EA2F8DA0D6E
:101C600092F8E60F2B9092F9130F02EB8000B0F878
:101C70004C1EA2F8DC1DB0F84E0EA2F8DE0D92F953
:101C8000140F02EB80010020B1F8544EA2F8E04D91
:101C9000B1F8561EA2F8E21D02EB8001D1F8801CBB
:101CA00043F82010401C0828F6DB92F8E71F0020BC
:101CB00082F8C71F92F8E81F149192F8E91F82F882
:101CC000C81F92F9151F01EBC101431802EB8004F4
:101CD00002EB8303D3F8643D401C0928C4F8B03CF0
:101CE000F3DB92F9161F0020C1EBC101431802EB90
:101CF000400402EB4303B3F85C3E401C0728A4F801
:101D0000E43DF3DBBD4E0023B2F8D60EA2F87E0E02
:101D100096ED260B86ED140B96ED280B86ED160B33
:101D2000B2F8D80EA2F8800E92F9170F00EB8000DF
:101D30008400191903EB830001EB810102EB8000A1
:101D400002EB810191F8F55101F2F51180F815557A
:101D50005B1C142B4D7880F816558D7880F817553C
:101D6000CD7880F818550D7980F819554D7980F89F
:101D70001A558D7980F81B55CD7980F81C550D7A50
:101D800080F81D554D7A80F81E558D7A80F81F55C4
:101D9000CD7A80F820550D7B80F821554D7B80F859
:101DA00022558D7B80F82355CD7B80F824550D7C02
:101DB00080F825554D7C80F826558D7C80F8275578
:101DC000C97C80F82815B4DB96ED2A1B9FED8C0B9F
:101DD000894C4FF0FF3286ED181B04F63501129145
:101DE00096ED221BB7EE008BB2EE04AB20469FEDC2
:101DF000869B21EE000B04F5346115914039189152
:101E000004F52A6B04F5805430EE080BBCEEC00BD1
:101E100010EE101A80F8CF1FB0F8D01EA0F8901E58
:101E2000C0F8A02C90F8EA0FC8B1734890F8EC0FF6
:101E300008B106F0CBFB607C08B108F029F9E07C22
:101E400008B101F0ABFAA07F002876D0607F70491E
:101E5000012863D0022877D003286ED174E0DFF820
:101E600098810125002788F8EA5F88F8EC5FA8F8D8
:101E7000DA7EA8F8DC7EA8F8DE7EA8F8E07E98F886
:101E8000EB0F042804D0042088F8EB0F08F0A6FE1E
:101E9000E07C65740128257402D0E574C8F8AC7C38
:101EA000A07C042803D00420A074C8F8AC7C0320D4
:101EB00094F82010A5776077012984F8267084F8BB
:101EC000277001D084F82050E07F012802D0E57708
:101ED00008F044F9257786ED349BE07E022803D094
:101EE0000220E07686ED348B94F8210084F82250AD
:101EF000012803D084F8215088F8D37F94F8240077
:101F0000012807D084F82450A8F80A7FA8F80C7F8D
:101F1000A8F80E7F022084F8230003E394F827003A
:101F200060B1354D94F8262095F8C63F934212D102
:101F3000401E00D5002084F8270017E002206077BB
:101F40003448FFF74BFC11E02B4D94F8262095F810
:101F5000C60F90420AD00120607722A8FFF72AFC22
:101F600095F8C61F642084F82610E4E794F8200052
:101F700020B1E07F012801D108F0F0F8207F00288F
:101F800009D0E07E012802D0022804D104E002201A
:101F9000E07686ED348B73E296ED340BB4EECA0B2B
:101FA000F1EE10FA7DDB1448002194F828C00123DB
:101FB00000F6D6770397BF1E02977F1C019700F6A5
:101FC00094272997343F0F97903F4FF0050E00F666
:101FD000B67800F5A47500F6247900F5386A00F6A5
:101FE0000420CDE91007BCF1060FE37625AA7DD2C7
:101FF00012E00000180C0020780000207808002073
:102000000B4C91061B2ECF3F00000000000000008B
:10201000660200204F100020DFE80CF0680306ADD8
:10202000F2F184F828E02BE2FD4890F8CC7FFF2FF6
:1020300027D0AA2F6AD0002084F828301154401CE1
:102040001028FBDB0023009245201A46194608F0B1
:102050005BFE23AA0992159A24A8CDE90A0905A9CD
:10206000189822AFCDF810B008970C9581E80504B8
:1020700029980090DDE91110DDE90F32FFF7BAFB76
:10208000FEE1042284F8282080F8B71F80F8B81FEA
:1020900080F8B91F80F8BA1F80F8BB1F80F8BC1FFA
:1020A00000E0E9E180F8BD1FAA2780F8BE1F0123E8
:1020B00080F8BF1F80F8C01F80F8C11F80F8C21FC2
:1020C00080F8C31F80F8C41F80F8C51F84F82B1048
:1020D00084F82920002280F8B67F57201146CDF8D9
:1020E000008008F011FE24A823AA00E0A0E1CDF8AA
:1020F0002C9022ABCDE90920159818990C95CDF8B4
:1021000010B0CDE90510CDE907A3B1E7032784F8A6
:102110002870042384F82A30002084F82B101154EE
:10212000401C1028FBDB491CFF290F4600D9FF216A
:102130000092102300224C2008F0E6FD24A923AAD7
:1021400022A8CDE90921CDE90B95159A189BCDF868
:1021500010B0CDE907A0CDE9053229980090DDE95E
:102160001110DDE90F32FFF745FBFF2F00D9FF27E4
:1021700084F82B7084E194F82A0001280BD00228FF
:102180003FD003284BD094F82B70032F60D304204A
:1021900084F82A3068E094F82B80B8F1060F02D357
:1021A0000320072142E000201154401C1028FBDBD3
:1021B00046E0C1B20092102300224C2008F0A4FD9A
:1021C00024A923AA22A8CDE90921CDE90B95159AC6
:1021D000189BCDF810B0CDE907A0CDE905322998BC
:1021E0000090DDE91110DDE90F32FFF703FBB8F1D4
:1021F000FF0F01D94FF0FF0884F82B8040E1FDE08C
:1022000035E094F82B80B8F10B0F02D384F82A1034
:1022100007E700201154401C1028FBDB10E094F865
:102220002B80B8F1090F06D302200A2184F82A0076
:1022300084F82B1024E10023D1545B1C102BFBDB12
:1022400008F10108B8F1FF0F4046B2D9FF20B0E70E
:1022500000201154401C1028FBDB7F1CFF2F00D9ED
:10226000FF270092F9B244E084F82B0008E194F8CB
:102270002900012813D0022824D003286BD0042879
:1022800078D094F82B00032875D384F82B103846A7
:10229000B2EE0A0B84F8293009F05EF8F0E094F809
:1022A0002B00022808D384F82B10032084F829007F
:1022B0000F98B2EE0A0BEFE708F0B2FD94F82B008E
:1022C000401D1FE094F82B00B8B10020032384F8D0
:1022D0002830042784F82A7084F8291084F82B10F9
:1022E0001154401C1028FBDB491CFF2900D9FF2199
:1022F0000092102300224C200DE008F091FD94F88C
:102300002B000B30FF2800D9FF20CDF80080C1B290
:1023100010230022572008F0F7FC24A923AA22A8A2
:10232000CDE90921CDE90B95159A189BCDF810B090
:10233000CDE907A0CDE9053229980090DDE911101B
:10234000DDE90F32FFF756FA94F82B00401CFF2806
:102350008AD9FF2088E794F82B0002280CD384F850
:102360002B10022084F829002998B0EE080B08F001
:102370003BFF85E006E014E008F052FD94F82B00E6
:102380000830BFE784F829E01098B3EE070B08F097
:1023900087FF94F82B0008F043FD94F82B00401CB5
:1023A000B0E708F03DFD94F82B00401CFF280746DD
:1023B00000D9FF20CDF80080C1B2102300225720A1
:1023C00008F0A2FC24A923AA22A8CDE90921CDE97D
:1023D0000B95159A189BCDF810B0CDE907A0CDE963
:1023E000053229980090DDE91110DDE90F32FFF781
:1023F00001FAFF2F7FF6BCAEFF27B9E696ED380B4A
:10240000B4EE480BF1EE10FA0CD1054894F82C10FC
:1024100090F8D50F884205D0062084F828002FE0D8
:102420007800002024AA23A922A808F0F9FF27E0B9
:1024300096ED380BB5EEC00BF1EE10FA3FF4E8AEB6
:10244000B0484C2786ED389B24AA4FF0100C23ABE4
:1024500080F8357880F8371880F838C822A8CDE998
:102460000932CDE90B95159A189BCDF810B0CDE93E
:1024700007A0CDE90532FBE530EE080B86ED340B05
:1024800094F82200B8B194F82100012802D0022863
:1024900011D10CE09B48002180F8D31F1A9951B14B
:1024A000022184F82110012280F8D32F03E09549FE
:1024B000012081F8D30F94F8240060B394F823002E
:1024C000012804D0022810D003282BD124E08D4805
:1024D000B0F80C1FB1F57A7F24D1B0F8802E02211C
:1024E000A0F80A2F84F823101CE08649B1F8800E6A
:1024F000B1F80A2F904215D0032084F82300B1F8D8
:102500000E0F401CB0F5803F01DB4FF6FF70A1F8C5
:102510000E0FFEF7C3FE05E07A49012084F8230080
:10252000A1F80C0F96ED3A0B764D30EE080BB5F88E
:10253000E40D86ED3A0B94F82D2014998A4209D0C7
:1025400086ED1E0B86ED3A9B84F82D10B5F8D21E51
:10255000A5F8941E6C4C84ED5A9B95F8D31F012965
:102560004FD184ED5A8B95F8C71F19B10020A5F8FB
:10257000960E44E0B0EE000B84ED5A0BB5F8E61D64
:1025800014293ED2B5F8F02D1C998A4239DBB0EE01
:10259000080B84ED5A0B1A9A824232DBB1EE000B23
:1025A00084ED5A0B1B99B1F1004F02DC6FF0004132
:1025B00000E0494200EE101AB5F8941E96ED1E1B7D
:1025C000401AB8EEC02B00EE100AB8EEC00B20EE99
:1025D0000A0B80EE013BB4EEC23BF1EE10FA10D8CC
:1025E000002085F8DE0F4848BA38FEF7ADFE01211D
:1025F000A5F8961EB1EE040B642084ED5A0B85F805
:10260000DD0F2B9800EE100AB5F8E40DA5F8D20EF8
:10261000B8EE400B95F8DD0FF0B300BF85F8D10F91
:1026200096ED221B9FED393BB5EE002B394821EE8C
:10263000031B00EE021B11EE101A11EE902A8DED15
:10264000001B8160C2601422B5F8960EA5F8D00E6A
:102650002D4812994C30FDF71CFE95F8D40F6022DE
:1026600084F86000594695F8D50F84F8610095F814
:10267000D60F84F8620024486430FDF70AFE224831
:1026800040221899C430FDF704FE234840221599D2
:10269000FDF7FFFD002000E031E005EB800204EBD8
:1026A0008001401CD2F8802B0828C1F84421F2DBBD
:1026B000D5F8D00D4022C4F87001DDE91810FDF7FF
:1026C000E8FD2A9860225946FDF7E3FD159940225E
:1026D0001398FDF7DEFD002005EB8001401C082863
:1026E000D1F8802BC1F8802CF6DB0C484168486893
:1026F000401C48602DB0BDEC068BBDE8F08F95F80E
:10270000D20F8BE778000020101100203FEB964F8E
:102710001E0DEE3FF808002014120020E8B5000856
:102720007CB5FD4C0025FD4994F8D10F84F8C90F04
:1027300091ED040BBDEEC00B10EE100A01285AD02B
:102740000228284660D02118401C0A2881F81A5F08
:10275000F9DBF349881C031F821FCDE90010891F94
:102760007A3008F0D9F9B4F8981EA1F54070053810
:1027700022D0B1F5017F7DD0B1F5007F4FF6FF701B
:102780004FF4803277D0A1F54073063B4CD0A1F5D1
:102790000073013B70D0A1F50073023B6DD0A1F531
:1027A0000073033B6AD0A1F50073073B03D0A1F58A
:1027B0000073053B75D01DE19FEDDA1BB4F89A0E4E
:1027C000A4F8120EB4F89C0EA4F8060EB4F89E0EEF
:1027D00000EE100AB8EE400B20EE010BBCEEC00B71
:1027E00010EE100AA4F80A0E94F8E20FFF2814D392
:1027F00084F8E25FFEE0002023180A5C401C0A28EF
:1028000083F81A2FF8DBA4E70A182318401C127E5D
:102810000A2883F81A2FF7DB9BE7401CFF2800DD0E
:10282000FF2084F8E20FE5E09FEDC00BB4F89A0EAC
:1028300001EE100AB8EE411B21EE001BBCEEC11BDD
:1028400011EE100AA4F8080EB4F89C0E01EE100A5E
:10285000B8EE411B21EE001BBCEEC11B11EE100AAD
:10286000A4F80E0EB4F8A00EA4F8100E94F8E30F1E
:10287000FF2804E007E015E04BE082E0A4E033D35A
:1028800084F8E35F36E094F8DF0FFF2802D384F882
:10289000DF5FAFE0401CFF2800DDFF2084F8DF0F82
:1028A000A8E09AE0B4F8F61DB4F89A3EFF2902D3E6
:1028B000A4F8F65D05E0491C914200DB0146A4F84E
:1028C000F61DA4F8F83D94F8C90F64280BD0322BFC
:1028D00003D0642B01D0C82B05D1002008F0F6FBF3
:1028E000002008F007FC85E0401CFF2800DDFF20E9
:1028F00084F8E30FB4F89E0E01EE100AB8EE411B07
:1029000021EE000BBCEEC00B10EE100AA4F80C0E6A
:1029100070E0B4F89A1EFF2900D9FF21CEB284F8E6
:10292000E06FB4F8FE1DB4F89C3EFF2902D3A4F872
:10293000FE5D05E0491C914200DB0146A4F8FE1D46
:102940001E2EA4F8003E09D9002008F0BFFB00208D
:1029500008F0D0FB012084F8E10F01E084F8E15F8A
:10296000B4F89E0E10B3FF28A4F8A40E01D80128D5
:1029700000D0002084F8E40F68485438FEF7FAFECF
:1029800038E0B4F89A0E012802D002280FD031E0C6
:10299000B4F89C0E08F09AFBB4F89E0EA4F8A80EAA
:1029A000B4F8FC0D0DE000BF84F8E05F22E0B4F85D
:1029B0009C0E08F09FFBB4F89E0EA4F8A80EB4F885
:1029C000040E0028F0D015E0B4F89A0EA4F8A20E78
:1029D000B4F89C0EA4F8A60E0CE0B4F8AA1EFF29C9
:1029E00002D3A4F8AA5E05E0491C914200DB01462F
:1029F000A4F8AA1E94F8180F58B9B4F8060EA4F853
:102A0000780EB4F8080EA4F87A0EB4F80A0EA4F8FA
:102A10007C0E94F8111FB4F8F60DE9B35FF00001D5
:102A200004EB8101A1F83C0E94F8111FB4F8F80DE5
:102A300099B3002104EB8101A1F83E0E94F8110F27
:102A400060B3002084F8110F94F8DF0F84F8E50FCD
:102A500094F8121FB4F8FA0DE9B3002104EB8101D8
:102A6000A1F8440E94F8121FB4F8FC0DA1B3002194
:102A700004EB8101A1F8460E94F8120F68B3002010
:102A800084F8120F94F8E00F84F8E60F94F8131FFF
:102A9000B4F8FE0DF1B302E079E07AE07BE00021CA
:102AA00004EB8101A1F84C0E94F8131FB4F8000E4A
:102AB00089B3002104EB8101A1F84E0E94F8130FA5
:102AC000C0B3002084F8130F94F8141FB4F8020E5A
:102AD00089B3002102E060E061E062E004EB810183
:102AE000A1F8540E94F8141FB4F8040EE9B30021B1
:102AF00004EB8101A1F8560E94F8140FB0B3002135
:102B000084F8141F002094F8E11F84F8E71F94F85C
:102B1000E21F11E047E048E078000020B0100020FC
:102B2000160F0020B728B3412619D93F9A999999D1
:102B30009999B93F3BE03DE084F8E81F94F8E31F22
:102B400084F8E91F94F8162F04EB4001B1F8061E33
:102B50007AB30022C2EBC2020244401C04EB4202E0
:102B60000728A2F85C1EEDDB01E025E026E094F8E2
:102B7000160F38B35FF0000084F8160FB4F8A80EF3
:102B8000A4F8D60EB4F8AA0EA4F8D80E7CBD012184
:102B900046E701214EE7012054E701215EE70121CC
:102BA00066E701206CE701217AE7012182E7012035
:102BB00088E705E001218DE7012199E701219FE7E1
:102BC0000122C7E70120D7E72DE9F04F46499BB026
:102BD0000DF1040C91F9103F002003EBC303C4185E
:102BE00001EB8404D4F81C4D4CF82040401C09280B
:102BF000F5DBB1F8D40E01231090B1F8A60E1390B6
:102C000091F8D10F1690B1F8920E1290B1F8A2AED1
:102C1000B1F8F49DB1F8A47E81F8183F0020B1F816
:102C2000786EB1F87A5EB1F87C3E81F8180F66F3E1
:102C30000F02B1F8D03D0BACB1F80CBE65F31F42EA
:102C4000B1F80E6E1FFA83F501EB40083CF8203016
:102C5000A8F8143E24F81030401C0928F4DB4FEA91
:102C60001248109AA1F8262E139AA1F8282E169A27
:102C7000A1F82A2E129AA1F82C2EA1F82EAEA1F8B6
:102C8000309EA1F8327EA1F8348EA1F836BEA1F8AC
:102C9000386EA1F83A5E15490091A1F5A47007F0CD
:102CA0003FFA009808F074FA1148002134F8112016
:102CB00020F81120491C0929F8DB10994182139949
:102CC00081821699C18212990183A0F81AA0A0F8F6
:102CD0001C90C783A0F82080A0F822B08684C58409
:102CE0001BB0BDE8F08F000078000020D40F00205A
:102CF000101100202DE9F041BD4901F559702DED6D
:102D0000108BB2B008F066FC00209FEDBA0BDFF824
:102D1000EC821AA908EB8002D2F8F83C01EBC00261
:102D2000401C01EE103A0928B8EE411B21EE001BB1
:102D300082ED001BEEDBB24C00200CAA01EBC005BB
:102D400004EBC00395ED002B93ED003B93ED0E1BC0
:102D500093ED1C0B32EE032B02EBC005401C062842
:102D600002EE010B85ED000BE8DB9DED2A1B9FEDCC
:102D7000A52B9FEDA60B002031EE021B05AC21EE2A
:102D8000000B8DED180B00BF02EBC00191ED000BA5
:102D9000BCEEC00B10EE101A44F82010401C07289F
:102DA000F2DB964FB3EE092BB7EE000B9FED994B7C
:102DB0009FED9A5B9FED9B6B9FED9C7B9DED269B12
:102DC0009FED9CAB9FED9D8BB6EE00FB9FED9D1B99
:102DD0008DED2C1B9FED9D1B8DED021B9FED9DCB63
:102DE0009DED28DB9FED9DEB9FED9E1B07F500679A
:102DF00089EE0ABB97ED243B1DEE0E1B33EE422BF2
:102E0000B0EE403B02EE043BB0EE404B02EE054B11
:102E1000B0EE405B02EE065B02EE070B83EE042B86
:102E200085EE003B9DED2C0B03EE082B3BEE4C3B5F
:102E300022EE0F2B22EE004B9DED020B22EE000B3B
:102E400023EE048B21EE009BBCEEC80BFCEEC90BFD
:102E500010EE101A01EB810110EE900A4E0000EB0B
:102E600080004500814807F06DF99DED140B804905
:102E7000002087ED240B00BF01EB800354F82020D5
:102E8000401C06289A62F7DBC1E910650B9A4046A0
:102E90008A6498F8191F79B900EB810354F821204E
:102EA000C3F8AC2D491C0629F6DBC0F8C46DC0F888
:102EB000C85D0B99C0F8CC1D5FF0000190F8102F91
:102EC00054F82130EAB3002202EBC2020A44491C42
:102ED00000EB82020629C2F81C3DEFDB90F8101FC0
:102EE00081B3002101EBC10100EB8101C1F8346D18
:102EF00090F8101F39B3002101EBC10100EB8101F3
:102F0000C1F8385D90F8102F0B99E2B35FF0000222
:102F100002EBC20200EB8202C2F83C1D90F8101FC7
:102F200091B3002280F8102F0021B0F8CE2EA0F827
:102F3000D42E00BF54F8212090F8153F2BB3002366
:102F400002E03FE040E041E003EBC3030B44491CD7
:102F500000EB83030629C3F8642DEBDB90F8151F03
:102F600079B3002101EBC10100EB8101C1F87C6D57
:102F700090F8151F81B3002101EBC10100EB810125
:102F8000C1F8805D02E023E024E026E090F8152FF0
:102F90000B9942B35FF0000202EBC20200EB820227
:102FA000C2F8841D90F8151FF9B1002180F8151F93
:102FB00087ED268B87ED289B32B0BDEC108BBDE8EA
:102FC000F0810CE001227FE701218BE7012193E7EB
:102FD00001229DE70122A5E703E00123B0E70121DB
:102FE000C0E70121C8E70122D6E70121DEE70000A2
:102FF000700D0020B4D934E70C684A3F78000020F7
:10300000F0B500081F85EB51B81ED53FF0C1071F72
:103010007CF042409AB1683A3B196C3FB01BB62D28
:10302000CA6C703FDD41EC4CA1F36A3FACA8C134DF
:103030000C1F713F0000000000607D400AD7A370A4
:103040003D0AEF3FF5597F9FD323D0400F72745054
:10305000FA16D0402F292982EB04293F797342893F
:10306000066E613FAA689DDD69E8213F460F00209A
:1030700010110020F8B5754C012084F8190F0020BC
:1030800004EB8001D1F8AC2D401C0928C1F8D42CE8
:10309000F6DB002684F8196FB4F8A60E0723A4F80F
:1030A000820E94F8D10F84F8CA0FB4F8920EA4F8E7
:1030B000840EB4F8A20EA4F8860EB4F8F41DA4F899
:1030C000881EB4F8A41EA4F88A1EB4F8CE1EA4F874
:1030D0008C1EB4F8961E5E4AA4F88E1E04F67C641C
:1030E00002F1100107F028FF594A0A2320862032F6
:1030F0006086E08802F1160107F01EFFA0864FF4FB
:10310000A061E1864FF444722287531C6387951DAA
:10311000A587D71D4F4DE787A4F67C6495F82E0050
:10312000642849D3B4F8E40CA5F59B73A4F8C40E45
:103130009A1EB4F8E80C911EA4F8C60EA5F1C407B7
:10314000B4F8E00CA4F8C80EB4F8F40CA4F8CA0E55
:10315000881E04F54E64009706F0CBFFA5F5A47019
:10316000394607F0DBFFD4E90301A4F54E64884239
:1031700002D9A4F8BC0E01E0A4F8BC1E354FB4F887
:10318000D40CA4F8BE0ECC3FB4F8D80CA7F172034F
:10319000A4F8C00E9A1EB4F8DC0C911EA4F8C20E5E
:1031A000881E009706F0A5FFA7F17A00394607F0C0
:1031B000B5FF85F82E6003E095F82F000A281FD38D
:1031C000244F254AB43F0097A7F1C803991E081D54
:1031D00006F08FFFA7F19600394607F09FFF083FE2
:1031E0000097A7F1B80303F12402911E881E06F090
:1031F00080FFA7F19200394607F090FF85F82F6015
:10320000144E94F8CA0FAC3EA4F8CC0EA6F1C60337
:1032100000961A1F911E01F1440006F06AFFA6F104
:10322000A000314607F07AFF95F82F00401CFF28D8
:1032300000DDFF2095F82E1085F82F00491CFF298E
:1032400000DDFF2185F82E10F8BD00007800002079
:1032500098B6000878100020E8B500084C49002016
:1032600010B586B06A4691F848308DF8003091F874
:1032700049308DF8013091F84A308DF8023091F8DC
:103280004B308DF803300C181318401C94F84C4048
:1032900010281C71F7DB104608F008F93D4B00229E
:1032A00093F8170FE8B3002002EB820100EB8000D7
:1032B00003EB810102EB800000EB800091F8A54652
:1032C00003EB800080F8F54191F8A64680F8F641BE
:1032D00091F8A74680F8F74191F8A84680F8F841A0
:1032E00091F8A94680F8F94191F8AA4680F8FA4188
:1032F00091F8AB4680F8FB4191F8AC4680F8FC4170
:1033000091F8AD4680F8FD4191F8AE4680F8FE4157
:1033100091F8AF4680F8FF4191F8B04680F800423E
:1033200000E030E091F8B14680F8014291F8B246F1
:1033300080F8024291F8B34680F8034291F8B4460F
:1033400080F8044291F8B54680F8054291F8B646F7
:1033500080F8064291F8B74680F8074291F8B8160F
:1033600080F80812521C142A9ADB93F8170F60B1E8
:103370005FF0000083F8170F074890ED200B80EDF9
:103380002A0B06B010BD01208EE70120F2E70000F5
:10339000B010002078000020780800202DE9F04FC0
:1033A000DFF8D4828BB041F230004FF0030A08F509
:1033B00080544FF0010940440390D8F8AC0C022728
:1033C000A37C08F2EF1208F57D61049201910026BA
:1033D00094F818E0411E94F814B0BD07072B08F5C7
:1033E00000621AD2DFE803F01904757875CB750016
:1033F000BEF1010F734608D0022B14D0032B38D036
:10340000042B0AD101284DD008E10128FCD1A67671
:10341000A7742676C5E0C8F8AC5C0BB0BDE8F08FA9
:10342000C8F8AC1CF9E7012810D000EE100A924948
:10343000B8EEC00B82ED1A0B92ED161B82ED1C1B31
:10344000039800F021F994F8300050B184F818A0E6
:1034500000F0E2F9C8F8AC0C00F0BCF9FEF79AF9FC
:10346000DBE7D8F8AC0CA842D5DD401EC8F8AC0CA0
:10347000D3E701286FD14D4684F8189000F0CCF9BD
:10348000C8F8AC0C98F8D20F5128A07E06D20128BB
:10349000C3D00020A576FDF77DFFCAE00228BCD08E
:1034A000A776C6E06676277600F0B6F9734A4446FA
:1034B000C8F8AC0C511E481E00F044F994F8DA0F1D
:1034C00084F8D00FB4F8E80D1428A6D3FEF74AF913
:1034D000A3E784F812A0A0E7D8F8A01C04200229D2
:1034E0001CD0002999D1BEF1040F4D4684F81290EA
:1034F00004D0207600F090F9C8F8AC0C207C0328AA
:103500002ED0042839D000BF98F8D20F3C2834D8E8
:10351000607E012881D03C2065762BE0B8F8F01D54
:1035200005299DD20522A274BBF1040F0AD0207593
:1035300000F072F95249884201DD481C00E0401C4D
:10354000C8F8AC0C207C0328E07D05D0012887D08A
:1035500084F81790BAE761E0022889D0E77508E09F
:1035600098F8D20F5028CFD8607E0328B0D084F8C6
:1035700019A05020FDF70EFF4FE767764DE7BBF12E
:10358000010F5B4608D0022B0ED0032B44D0042B36
:103590009ED1012854D041E001283FD10620A074DB
:1035A000267500F017F938E7012829D0A8420EDC6B
:1035B000C8F8AC5C0DE002288AD000206775FDF7E2
:1035C000E9FEEEE7012886D084F81590E9E7C8F80F
:1035D000AC1CA07D0128CFD1D8F8AC0C264900EE58
:1035E000100AB8EEC00B82ED1A0B92ED141B82ED9F
:1035F0001C1B039800F048F894F830000028BBD05A
:10360000A67584F814A000F007F9C8F8AC0C207C6B
:103610000328607DD6D1CEE7012803D0A8423FF72A
:10362000FFAEF8E6667584F8149000F0F5F8C8F877
:10363000AC0C06A9049B05A8019A00F0B7F8ECE6CB
:10364000E675277500F0E8F8C8F8AC0C207C0D4D45
:103650000328A07D06D001288ED084F81690FEF7AE
:1036600099F802E0022887D0A77506A9019A05A853
:103670002B4600F0BDF8D0E6780000205210002064
:10368000FEFFFF7F6A0200209FED172BB4EEC20BF6
:10369000F1EE10FA13D8B1EE040BB4EEC01BF1EE4C
:1036A00010FA0CDB91ED000BB7EE002B31EE400B66
:1036B000B4EEC20BF1EE10FA01D8012200E00022B4
:1036C000027091ED020B81ED000B91ED040B81ED89
:1036D000020B91ED060B81ED040B91ED080B81EDD2
:1036E000060B81ED081B70470000000000004E40F3
:1036F00010B5002303700B70012414700421084CD2
:103700001A46204601F01AFB00222046082101F04B
:1037100015FB01222046BDE81040022101F00EBB3E
:103720000010024008B5684600F002F808BD00002D
:103730000021017002480A46022101F0FFBA000090
:103740000010024010B50024047001230B701370A8
:103750002246084C0421204601F0F0FA01222046BE
:10376000082101F0EBFA01222046BDE810400221B9
:1037700001F0E4BA0010024010B5012303700024E8
:103780000C70094C042113701A46204601F0D6FA39
:1037900000222046082101F0D1FA01222046BDE88E
:1037A0001040022101F0CABA001002402DE9F04198
:1037B0001C4615469A1C0E46591C07462046FFF724
:1037C00097FFA07828702078387060783070BDE856
:1037D000F0810000044810B5FFF7AAFF034890F8F5
:1037E000DB1F80F8D01F10BD531000207800002090
:1037F0002DE9F0411C4615469A1C0E46591C0746F9
:103800002046FFF7B9FFA0782870207838706078DC
:103810003070BDE8F0810000294901F580531A7D20
:10382000187C042A0FD0022A15D0032A2ED0012A90
:1038300034D0187E042839D002283AD003283BD04F
:10384000D1F85C097047032802D0D1F8700970479D
:10385000D1F88009704703280FD0B1F8F02D012A64
:103860000ED01748022AD0F86409F3D0032A0AD0F0
:10387000042AEFD1D1F86C097047D1F87C09704760
:10388000D1F860097047D1F868097047032802D061
:10389000D1F874097047D1F838097047032802D06D
:1038A000D1F878097047D1F83C097047D1F854092C
:1038B0007047D1F850097047D1F858097047000097
:1038C0007800002070470000F8B50025009590F8BA
:1038D0003C20012A18D0012280F83C200A680723E6
:1038E0004E4C0668092A1AD90A3A02EB4207F268D6
:1038F000BB409A43F2600E680268A64206D10B7A7A
:10390000D66846EA036308E00220F8BD0A3E8B68E9
:10391000D76806EB4606B3403B43D3600EE002EBAC
:1039200042073269BB409A43326103680E788A6865
:103930001F6906EB4606B2403A431A614A681F23E4
:10394000072A13D20668521E02EB8207726BBB4035
:103950009A43726303680E790A88761E5F6B92B28F
:1039600006EB8606B2403A435A6327E006680D2A02
:1039700012D2D21F02EB8207326BBB409A433263F2
:1039800002680E790B88F61F176B9BB206EB860652
:10399000B3403B43136311E00D3A02EB8207F26A36
:1039A000BB409A43F26202680E790B880D3ED76ADB
:1039B0009BB206EB8606B3403B43D362184A0368CA
:1039C000934208D10B68122B05D1D2F8043343F48B
:1039D0008003C2F80433036893421AD10B68A342F0
:1039E00001D0112B15D1D2F8043343F40003C2F8EF
:1039F00004330968A1420CD10A490B4A0968B1FB9A
:103A0000F2F101EB8101490000E0491E009100291B
:103A1000FBD180F83C500020F8BD000012000010DF
:103A2000002001407000002040420F000068034960
:103A3000884201D1FFF75EB97047000000200140C5
:103A40007047704770B50446006801684268C1F36A
:103A50004001C2F3401251B34AB3216CC90603D4EA
:103A6000216C41F400712164816811F0405F17D12D
:103A7000A169A9B9C16A11F4700F02D08168490522
:103A80000ED4416821F020014160206C20F4807048
:103A90002064206CC00403D4206C40F0010020643A
:103AA0002046FFF7C3FF21686FF01200086020680E
:103AB00001684268C1F38001C2F3C01289B382B3C6
:103AC000216CC90603D4216C41F400512164816842
:103AD00011F4401F1ED1816B11F4401F02D0816888
:103AE000490517D44168490514D4816811F0405F35
:103AF00010D1A16971B9416821F080014160206C49
:103B000020F480502064206CC00503D4206C40F069
:103B1000010020642046FFF7D5FE21686FF00C00FD
:103B2000086020680168436811F0010FC3F3801139
:103B30000ED069B10068C0070AD0206C40F4803014
:103B40002064204600F046F821686FF0010008600C
:103B5000206801684268C1F340110029C2F3806205
:103B60000DD0002A0BD0616C6FF0200541F00201EE
:103B7000616405602046FFF764FF2068056070BD42
:103B800070B504004FF0000503D0206C002610B182
:103B900007E0012070BD204600F01EF8666484F83E
:103BA0003C60206CC00610D4206C20F4885040F09B
:103BB000020020642046FCF7F3FF6664206C20F0CE
:103BC000020040F00100206400E0012584F83C6020
:103BD000284670BD70470000F0B587B00646142136
:103BE0006846FCF76FFB30493068884259D12F484E
:103BF000016841F48071016000682C4900F4807014
:103C000005901439086840F004000860086800F066
:103C100004000590086840F001000860086800F0A2
:103C200001000590086840F002000860086803245D
:103C30000025694600F00200059013208DE8310050
:103C40001B4800F083FFF02069468DE831001948D9
:103C500000F07CFF009469461748CDE9014500F06B
:103C600075FF164C16480115C4E900058715A560B7
:103C70000B01C4E9035182142046C4E9077565624B
:103C8000C4E9052300F0DEFD08B1FDF7B1FDB46322
:103C900000220421A663122001F0D6FA122001F0BE
:103CA000C6FA07B0F0BD00000020014044380240D1
:103CB00000080240000002400004024024130020DB
:103CC00010640240F8B50D4604460021009190F8BA
:103CD0003C00012807D0012084F83C00206883685C
:103CE000DB0702D011E00220F8BD8668364B46F0B3
:103CF0000106866035480068B0FBF3F000EB400039
:103D000000E0401E00900028FBD120688368DB079C
:103D100058D0236C40F20166B34343F480732364AC
:103D20004068400505D5206C20F4005040F48050D8
:103D30002064206CC00404D5606C20F00600606430
:103D400000E061646FF0220084F83C10A36B20490E
:103D5000D963A36B1F491964A36B1F49D9642168F8
:103D600008602068416841F0806141602068816896
:103D700041F48071816021681346A06B2A464C3162
:103D800000F0D2FD1549D1F80403C006206811D017
:103D9000884207D1826812F0405F03D1826842F006
:103DA00080428260D1F80403C0060BD40C4920681D
:103DB000884207D1816811F0405F03D1816841F0EA
:103DC000804181600020F8BD40420F00700000205B
:103DD000050B0008890B0008730B00080020014048
:103DE0000022014090F82020012A07D0022A05D0A5
:103DF000416A41F4802141620120704700684269B4
:103E00000A43426100207047F0B590F820500468E2
:103E1000A468012D05D0022D03D0416A41F4802110
:103E20005AE014F0406F01D1E50052D5C4F30164AB
:103E3000022C03D9416A41F400014DE001264FF400
:103E4000C075A6401E608B68ABB1CE684F68D0F8D5
:103E500000C0334305EB041643EAC7034CF80630B1
:103E600007684FF4C27303EB04130E69FE50097D1B
:103E7000012909D00DE00E88CB68076843EA465354
:103E800005EB0416BB51EBE70168CE5846F480768B
:103E9000CE50D2F805304FF4C67C11790CEB041CDF
:103EA00006684FF4C47741EA032107EB041346F890
:103EB0000C10167805EB0411D2F80120076846EAC9
:103EC0000222FA500068425842F00102425000209B
:103ED000F0BD416A41F4001141620120F0BD0000D3
:103EE00030B590F820300268012B07D0022B05D0A6
:103EF000416A41F480214162012030BD3E4C3F487F
:103F0000A24200D00246D2F80032824243F00103BE
:103F1000C2F800320CD1D2F8000220F47C50C2F872
:103F20000002D2F800024B6A40EA0320C2F8000205
:103F30000C7D0120D2F81C3204F01F04A040834302
:103F4000C2F81C32CB69B3B9D2F80C328343C2F841
:103F50000C328C894B684D6964F31F4302EBC50436
:103F6000C4F840320C890B684D6964F31F4302EBBF
:103F7000C504C4F84432CB69012B16D1D2F80C32F7
:103F80000343C2F80C320C884B684D6964F31F433D
:103F900002EBC504C4F840320C89CB684D6964F368
:103FA0001F4302EBC504C4F844328B69002BD2F8DE
:103FB00004320FD053EA0003C2F804320B69002B1D
:103FC000D2F8143208D00343C2F81432096A012926
:103FD00004D008E08343EFE78343F5E7D2F81C12EF
:103FE0000143C2F81C12D2F8000220F00100C2F80E
:103FF0000002002030BD000000340040006400409A
:1040000010B504000FD000F003FB204600F016FAB4
:1040100020680021026842F400420260616284F874
:104020002010084610BD012010BD7047F0B590F873
:104030002040012C05D0022C03D0416A41F480219C
:1040400066E0046800295ED02469A4075DD0056895
:104050004FF4D87404EB01142D5915F00405956044
:1040600005682D5957D0ED08C2F8045007684FF481
:10407000DA754FF4DC7C4FF4DE763C59002905EB11
:104080000115C4F34007D7600CEB011406EB0111D6
:104090000668765906F00F06166106687659C6F36B
:1040A00007269661066875594FEA154555610268FD
:1040B00012591A70026812594FEA12225A70026895
:1040C00012594FEA12429A70026812594FEA12626C
:1040D000DA70026852581A71026852584FEA122276
:1040E0005A71026852584FEA12429A710268515846
:1040F0004FEA1161D971006810D0016941F02001C7
:1041000001610020F0BDE4689FE7416A41F40011BD
:1041100041620120F0BD6D0D1560A7E7C16841F057
:104120002001C160EDE72DE9F05F0546006800243D
:104130004669D0F804908768D0F80CB0D0F810A089
:10414000F207D0F8188048D0F90714D00121816017
:10415000BA0703D5284600F08CFA0CE0780702D5A0
:104160004FF4006407E0380702D54FF4805402E0B2
:10417000284600F07DFAF80516D52868BA054FF4F0
:104180008071816003D5284600F075FA0CE078054F
:1041900002D544F4005407E0380502D544F48044C5
:1041A00002E0284600F066FAF80316D52868BA033C
:1041B0004FF48031816003D5284600F05EFA0CE0B0
:1041C000780302D544F4004407E0380302D544F4F0
:1041D000803402E0284600F04FFA300707D55FEA46
:1041E000CB6004D52968102044F40074C8607007BF
:1041F0004FF0080707D55FEA0B7004D52868C76041
:10420000284600F09FF9B00706D52868C0688007E7
:1042100002D0284600F098F9700607D55FEACA6018
:1042200004D52968102044F480640861B00607D5DD
:104230005FEA0A7004D528680761284600F0B8F9DB
:10424000F00606D528680069800702D0284600F0ED
:10425000B0F9B00308D55FEAC96005D52968102018
:104260004860284600F0A6F9F00307D55FEA097018
:1042700004D528684760284600F000FA300446D587
:104280005FEA497040D5F00504D55FEAC87001D0F7
:1042900044F00104B00504D55FEA887001D544F00C
:1042A0000204700504D55FEA487001D544F00404A7
:1042B000300529D518F0700F26D008F0700040287E
:1042C00015D006DC102809D020280AD0302816D1B5
:1042D0000AE050280ED0602811D10EE044F0080406
:1042E0000DE044F010040AE044F0200407E044F03C
:1042F000400404E044F0800401E044F48074286841
:10430000816921F070018161296804204860002CD6
:1043100005D0686A204368622846FFF786FEBDE83C
:10432000F09F70B5040003D094F8200010B104E0B1
:10433000012070BD204600F0ABF82068016821F034
:104340000201016000F000FD0526054604E000F0D2
:10435000FBFC401B0A2811D8206840688007F6D46F
:104360002068016841F00101016000F0EDFC0546A4
:104370000BE000F0E9FC401B0A2806D9606A40F413
:104380000030606284F82060D2E720684068C0078F
:10439000EFD0207E0128206801683DD021F0800107
:1043A0000160607E01282068016838D021F040015A
:1043B0000160A07E01282068016833D021F020012F
:1043C0000160E07E0128206801682ED041F01001D4
:1043D0000160207F01282068016829D021F00801B0
:1043E0000160607F01282068016824D021F0040169
:1043F0000160D4E90110D4E903326569491E18430C
:1044000023682A43104300220843D86101216262D5
:1044100084F82010104670BD41F08001C0E741F0E3
:104420004001C5E741F02001CAE721F01001CFE7C4
:1044300041F00801D4E741F00401D9E710B5006864
:10444000104988421CD11048016821F400510160D4
:10445000016821F080610160016821F00071016054
:104460000A484FF4405100F0AFFA3F2000F0CEFE72
:10447000402000F0CBFEBDE81040412000F0C6BE59
:1044800010BD0000006800404038024000040240B7
:1044900010B586B0044614216846FBF713FF264981
:1044A0002068884246D12548016841F400510160E6
:1044B000016801F400510591016841F080610160DB
:1044C000016801F080610591016841F000710160AF
:1044D000006800F00070059018481038016841F03D
:1044E0000201016000680221002200F00200059034
:1044F000032309244FF440508DE81F0010486946FB
:1045000000F024FB002201213F2000F09DFE3F200F
:1045100000F08DFE00220221402000F095FE402098
:1045200000F085FE00220221412000F08DFE412096
:1045300000F07DFE06B010BD00680040403802402B
:10454000000402407047000010B572B6144B002101
:10455000144A02F13400FFF769FD1248124900883D
:10456000020A0A760E4A4876022014180B18401CDC
:1045700014F8024C0A281C76F7DB91ED040BB0EE20
:10458000001BB4EE410BF1EE10FA01D1FEF7C8F8B2
:1045900006484FF4806100F0CAFB62B610BD00000F
:1045A00030000020AC130020B0100020000C0240AE
:1045B000704770477047000070B5044690F82000BF
:1045C000012804D0606A40F40020606218E00220F4
:1045D00084F820002068016821F00101016000F0EA
:1045E000B3FB05460EE000BF00F0AEFB401B0A28FF
:1045F00008D9616A052041F40031616284F8200025
:10460000012070BD20684068C007EDD1606270BDB8
:1046100070B5044690F82000022804D0606A40F487
:104620008010606214E02068016841F001010160BF
:1046300000F08AFB05460DE000F086FB401B0A28CF
:1046400008D9616A052041F40031616284F82000D4
:10465000012070BD20684068C007EDD020680121AE
:10466000026822F00202026084F82010002070BD6F
:10467000704770477047704770477047704790F8B1
:104680003510022903D080214165012070470521A2
:1046900080F835100068016821F0010101600020F8
:1046A000704700002DE9F84304464FF00009644BC1
:1046B0000820CDF800904FF41652A56D94F85C10C8
:1046C0001B682E68B3FBF2F700FA01F131420FD0FC
:1046D00021680A6852070BD50A6822F004020A60B2
:1046E00094F85C108840A860606D40F0010060653F
:1046F00094F85C104FF0010808FA01F0304208D03D
:1047000021684969090604D5A860606D40F002007F
:10471000606594F85C1004208840304208D021681D
:104720000968890704D5A860606D40F004006065E1
:1047300094F85C1010208840304218D02168096835
:10474000090714D5A86020680168490304D50068EA
:10475000000308D5A16C07E00168C90503D401680E
:1047600021F008010160216C09B12046884794F8C6
:104770005C1020208840304231D021680968C90689
:104780002DD5A86094F8350005282068016806D06A
:10479000490347D5006800031DD4616C1CE021F07B
:1047A000160101602068416921F080014161206C9F
:1047B00008B9A06C20B12068016821F008010160EF
:1047C00094F85C303F229A40AA6084F8349084F8D0
:1047D0003580216D1FE0E16B09B120468847606D8F
:1047E00000282BD0606DC00714D0052084F8350058
:1047F0002068016821F0010101600098401C0090D0
:10480000B84203D820680068C007F6D184F8349015
:1048100084F83580E16C002910D001B02046BDE855
:10482000F04308470168C905D5D4036823F0100395
:10483000036084F8349084F83580CCE7BDE8F883D1
:10484000700000202DE9F047044600F07DFA05468F
:1048500064B14FF0000984F83490022184F83510D7
:104860002068016821F0010101600EE00120BDE82F
:10487000F08700BF00F068FA401B052805D9202109
:104880006165032084F83500F1E720680068C007FF
:10489000F0D1D4E90020D4E90251D4E9043C284302
:1048A00004F1180519430843116895E8E00140EA4E
:1048B0000C001C4B2843194040EA060040EA070060
:1048C000B8F1040F40EA010003D1D4E90B131943F6
:1048D0000843106020680126656A4069042D20F0B5
:1048E000070045EA00050CD1D4E90A01054341B1AE
:1048F0002046FCF78DFE20B14020606584F83560CD
:10490000B4E7206845612046FCF76EFE94F85C3001
:104910003F229A408260C4F8549084F835600020A9
:10492000A5E700003F8010E02DE9F041044690F833
:10493000340000250128A66D0ED094F835C001275B
:10494000002084F83470BCF1010F07D0022584F8F0
:1049500034002846BDE8F0810220FBE7022784F8F6
:10496000357060652046FCF77DFE94F85C103F20B2
:104970008840B0602068016841F01601016020683D
:10498000416941F080014161206C20B120680168DB
:1049900041F0080101602068016841F001010160F7
:1049A000D7E7000070B5044600F0CEF90546601C5C
:1049B00002D004480078044400F0C6F9401BA0422D
:1049C000FAD370BD640000202DE9F04FDFF84CE110
:1049D00000224FF001094FF00F0A00BF09FA02F45C
:1049E00001EA0403A3427CD122F003067644970730
:1049F000D6F808C83F0FDFF828810AFA07FB4045C0
:104A00000BEA0C0502D14FF0000C40E0DFF814C1B6
:104A1000604502D14FF0010C39E0DFF80CC1604570
:104A200002D14FF0020C32E0DFF800C1604502D144
:104A30004FF0030C2BE0DFF8F8C0604502D14FF0D7
:104A4000040C24E0DFF8ECC0604502D14FF0050C07
:104A50001DE0DFF8E4C0604502D14FF0060C16E01F
:104A6000DFF8D8C0604502D14FF0070C0FE0DFF847
:104A7000D0C0604502D14FF0080C08E0DFF8C4C098
:104A8000604502D14FF0090C01E04FF00A0C0CFA1E
:104A900007FCAC451DD1D6F80888DFF8ACC028EA81
:104AA0000B08C6F808880CF10405DCF800802E1D00
:104AB000371D28EA0308CCF80080D5F800C02CEA9E
:104AC000030CC5F800C035689D4335603D689D43C3
:104AD0003D6003230768D5084FEA42084FEA427C4D
:104AE00000E015E04FEADC6C03FA08F39F4307602F
:104AF0000AFA0CF600EB85052F6AB7432F6285682A
:104B00009D4385604568A5434560C4689C43C46077
:104B1000521C102AFFF462AFBDE8F08F0030014054
:104B2000000002400004024000080240000C024065
:104B3000001002400014024000180240001C024015
:104B40000020024000240240003C01402DE9F84FC3
:104B5000DFF89CE100224FF001084FF0030B4FF00B
:104B60000F0A00BF0B6808FA02F42340A34271D178
:104B70004D68022D01D0122D0FD1D5080E695707AF
:104B800000EB8505A9462D6AFF0E0AFA07FCBE4018
:104B900025EA0C052E43C9F820600F7955000668F8
:104BA0000BFA05FC07F0030726EA0C06AF40374373
:104BB00007604E68012E05D0022E03D0112E01D0C1
:104BC000122E0ED18668CF6826EA0C06AF40374316
:104BD000876046680F79A643C7F3001797403743AD
:104BE0004760C4688E6824EA0C04AE402643C66061
:104BF0004C68E40075D53F4C256845F48045256038
:104C0000246822F00306950704F4804400943A4C8B
:104C10002D0F2644D6F80848DFF8E0C00AFA05F759
:104C2000604524EA070401D100272EE0344FB84242
:104C300001D1012729E0334FB84201D1022724E0F6
:104C4000314FB84201D103271FE0304FB84202D1A3
:104C500004271AE045E02E4FB84201D1052714E0A1
:104C60002C4FB84201D106270FE02B4FB84201D19B
:104C700007270AE0294FB84201D1082705E0284F4D
:104C8000B84201D1092700E00A27AF402743754603
:104C9000C6F808784E68DEF80040F60324EA0304FC
:104CA00000D51C43124E2C60361D4D683468AD0390
:104CB00024EA030400D51C430D4F346008374D68C7
:104CC0003C68ED0224EA030400D51C43084D3C6017
:104CD0000C354E682C68B60224EA030400D51C4348
:104CE0002C60521C102AFFF43DAFBDE8F88F000085
:104CF000003C0140443802400030014000000240C6
:104D00000004024000080240000C02400010024073
:104D10000014024000180240001C02400020024023
:104D2000002402400069084000D001207047426919
:104D300031EA020200D10904816170470AB1816140
:104D400070470904FBE700000148806870470000D5
:104D50006400002030B590F84120202A24D190F83A
:104D60004020012A20D0012380F84030242280F8FE
:104D70004120202300240268156825F001051560F4
:104D80000268156825F480551560026815680D43A2
:104D9000156001680A6842F001020A6080F841303B
:104DA00080F84040002030BD022030BD30B590F882
:104DB0004120202A22D190F84020012A1ED0012330
:104DC00080F84030242280F8412020240025026809
:104DD000136823F0010313600268136823F47063FF
:104DE00043EA0121116001680A6842F001020A6089
:104DF00080F8414080F84050002030BD022030BD96
:104E0000704770470268436B91691268002B00D0AD
:104E1000184770477047000070B5040004D094F83C
:104E20004100002510B106E0012070BD204684F845
:104E3000405000F063F9242084F8410020680168A4
:104E400021F001010160D4E9001020F070600861D8
:104E50002068816821F400418160E06821680128B0
:104E6000A06806D040F404408860E068022803D0BF
:104E700006E040F40040F7E721684FF40060486026
:104E800020212068114A4368134343602068C268A8
:104E900022F40042C26054F8106B0DCC104340EA7B
:104EA0000320F06054F81C3CD4E900021043186061
:104EB00054F81C0D026842F001020260656484F837
:104EC0004110256384F84250002070BD008000022C
:104ED0007047704770477047704700002DE9FF4FDB
:104EE00083B0044690F841009A469346DDE9108766
:104EF000DDF84890202874D15FEA080014D09FB1F3
:104F000094F8400001286CD0012084F84000FFF79D
:104F10001BFF0122064619230090D103204602F010
:104F200079FA002871D103E04FF4007060646CE0FE
:104F30000025C4F82480222184F84110402084F800
:104F4000420065646785534665635A460499204666
:104F5000CDE9009602F0E2F810B184F8405054E038
:104F6000618DFF2734484FF08078FF294FF0007A99
:104F700004D927853A464346009005E0618D5346A3
:104F80002185009094F828202046049902F02CFAFC
:104F900000224B4604212046009602F03BFAA0BBBB
:104FA0002068616A406A0870606A401C6062208DF7
:104FB000401E81B22185608D401E6085608DD8B114
:104FC000D1B900224B4680212046009602F022FAF9
:104FD000D8B9608DFF2805D927853A464346009504
:104FE00006E026E0608D53462085009594F8282041
:104FF0002046049902F0F8F9608D0028C8D13246A5
:105000004946204602F033FA18B1012007B0BDE846
:10501000F08F21682020094AC86121684B6813403D
:105020004B6084F8410084F84250002084F84050DE
:10503000ECE70220EAE700000024008000E800FE20
:105040002DE9FC47044690F8410098469146DDE979
:105050000A758A4620284BD11FB315B32068806992
:10506000C043000444D594F84000012840D00120FA
:1050700084F840002434FFF767FE0026212262777F
:1050800040211C4A2760A1772662E580A260E28861
:1050900019492161243CFF2A07D9FF214FF080756F
:1050A00006E04FF4007060640FE0618D4FF0007512
:1050B00021851921CDE9001043464A465146204634
:1050C00002F05EF820B184F840600120BDE8FC8762
:1050D00000962B4694F828205146204602F084F989
:1050E0000121204684F8406001F06AFC0020EDE7D1
:1050F0000220EBE70000FFFFF56F000810B586B057
:10510000044614216846FBF7DDF8164920688842FA
:1051100025D11548016841F00201016000681221A3
:10512000012200F002000590C020032304248DE832
:105130001F000E486946FFF709FD0B481030016853
:1051400041F40011016000680022052100F4001004
:1051500005901F2000F078F81F2000F068F806B0D6
:1051600010BD0000005400403038024000040240EE
:105170007047704702488168027811448160704727
:1051800064000020032010B500F07EF8002000F03D
:1051900005F800F023F8002010BD000070B50D4D9B
:1051A00004464FF47A700C4A29781268B0FBF1F08B
:1051B000B2FBF0F000F0D2FD48B9102C07D200226B
:1051C0002146501E00F040F800206C6070BD0120A8
:1051D00070BD000064000020700000200A4808B57F
:1051E000016841F080510160006800F0805000903B
:1051F0000548001D016841F480410160006800F429
:105200008040009008BD00004038024000280DDBBF
:10521000410900F01F028900012001F1E0219040C6
:10522000C1F88001BFF34F8FBFF36F8F7047002825
:1052300009DB410900F01F028900012001F1E02192
:105240009040C1F8000170470E4BF0B41B680D464A
:10525000C3F30223C3F10706042E00D90426191D47
:10526000072901D2002300E0DB1E012404FA06F125
:105270009C40491E2940641E994014402143F0BCC3
:1052800005F05EBC0CED00E0064900F0070210B529
:105290004FF6FF040868044B204040EA0220184300
:1052A000086010BD0CED00E00000FA051848F8B5E4
:1052B000016841F0805101600068164C00F0805098
:1052C0000090206840F480302060FFF73DFD4FF4EF
:1052D0007A76054605E000BFFFF736FD401BB04279
:1052E0000FD86068C003F7D5206840F40030206014
:1052F000FFF72AFD054606E0FFF726FD401BB042FA
:1053000001D90320F8BD60688003F5D50020F8BD01
:1053100040380240007000402DE9F84F0446007804
:10532000DFF824944FF000063746C0070ED0D9F8B6
:10533000001021F40001C9F80010D9F80010626BC8
:105340001143C9F80010606B00B90126FE4D2068BA
:10535000843500030ED5E16B286820F44010084323
:105360002860E06BB0F5801F01D010B102E001268B
:1053700000E0012720684FF4800BC0020CD5216C9F
:10538000286820F4400008432860206C584501D16B
:10539000012601E000B901272068C10100D50126DE
:1053A000800666D5E8483830016841F080510160D8
:1053B0000068DFF898A300F080500090DAF8001041
:1053C00041F48071CAF80010FFF7BEFC804605E08A
:1053D000FFF7BAFCA0EB080064287DD8DAF80000DB
:1053E000C005F5D5DFF8608308F16808D8F800003B
:1053F00010F440702AD0218E01F44071814225D0F2
:10540000D8F80010D8F8002021F4407142F480321E
:10541000C8F80020D8F8002022F48032C8F8002014
:10542000C8F80010D8F80000C0070FD0FFF78CFCB8
:10543000824607E0FFF788FCA0EB0A0141F28830C2
:105440008142CAD8D8F800008007F3D5206BC0F39A
:10545000012103297ED0D9F8001021F4F811C9F8F0
:105460000010228ED8F80010C2F30B021143C8F8C6
:1054700000102078C00607D5286820F080702860CA
:105480002868A16B084328602188AF488830490408
:1054900005D5626E016821F4403111430160218815
:1054A000090405D5A26E016821F440211143016071
:1054B0002168C90305D5E26E016821F4401111434A
:1054C00001602168890305D5226F016821F440013C
:1054D00011430160217800E034E1490605D5626C92
:1054E000016821F00301114301602178090605D507
:1054F000A26C016821F00C01114301602188C905EB
:1055000005D5E26C016821F030011143016021886A
:10551000890505D5226D016821F0C00111430160A4
:105520002188490505D5626D016821F44071114358
:1055300001602188090505D5A26D016821F440614B
:10554000114301602188C90407D5E26D016821F487
:10555000405100E05FE0114301602188890405D5D6
:10556000226E016821F44041114301602168490223
:1055700005D5A26F016821F08061114301602168A7
:105580004FF0006A890209D5E26F016821F00061DD
:1055900011430160E16F514500D1012721680A07DD
:1055A00000D50127490305D5626F016821F04071DC
:1055B000114301602168090206D5D4F880200168F2
:1055C00021F08051114301602168490106D5D4F8CA
:1055D0008420016821F0005111430160206800011E
:1055E00006D5D4F88810286820F000700843286099
:1055F0002068C00006D5D4F88C10286820F08060A0
:1056000008432860DFF84891012E0ED02068B0F1E1
:10561000007F0AD08FE04F4AD9F80030104023F4C1
:10562000F8120243C9F800201BE7D9F800004E46E3
:1056300020F08060C9F80000FFF786FB804605E097
:10564000FFF782FBA0EB080064287BD830680001DC
:10565000F6D421783C487C30C90712D0616B81B9FF
:10566000237A62680168D0F800C09201C1F3014159
:1056700042EA0142CCF3036142EA016141EA03716B
:10568000016021680A0303D5E26BB2F5801F04D0E4
:10569000C9021AD5216C594517D16368016894F87D
:1056A0000CC002689B01C1F3014143EA0141C2F30E
:1056B000027241EA0C6141EA027101602968626A82
:1056C00021F01F01521E114329602168C90110D524
:1056D000238A62680168D0F800C09201C1F30361B7
:1056E00042EA034242EA0162CCF3027142EA0171EA
:1056F0000160216889010CD56168228A237B94F8B6
:1057000008C0890141EA024141EA036141EA0C71A2
:1057100001603168B04641F080613160FFF714FBF1
:10572000064604E0FFF710FB801B64280AD8D8F86F
:1057300000000001F6D5E7B3D9F800004E4620F08E
:10574000805009E07BE00000083802400070004013
:1057500000380240FFFCFF0FC9F80000FFF7F4FA21
:10576000074604E0FFF7F0FAC01B642867D83068EA
:10577000C0438000F6D5216835480A0301D5E26BA5
:105780001AB1C9021DD5216CD9B963690168277E98
:1057900002689B01C1F3014143EA0143C2F3027174
:1057A00043EA076242EA0171016029686FF0FF0372
:1057B00000E04BE0A26A21F4F85103EB022211430E
:1057C00029602168890212D5E16F51450FD1238CE0
:1057D0006269016807689201C1F3036142EA03420A
:1057E00042EA0162C7F3027142EA01710160217865
:1057F000090716D561690268D0F800C08B01277FC0
:10580000C2F30362CCF3014143EA014141EA026180
:1058100041EA077101602868E16A20F440300843DA
:105820002860306840F080503060FFF78DFA044601
:1058300008E000BFFFF788FA001B642802D90320A4
:10584000BDE8F88F3068C0438000F3D40020F7E74C
:10585000883802402DE9F04705000F4663D0444EDA
:10586000306800F00F00B84209D2306820F00F0015
:1058700038433060306800F00F00B84253D12868D8
:105880003C4C810712D5400703D5206840F4E05016
:1058900020602878000703D5206840F4604020602D
:1058A000A968206820F0F000084320602878C0072D
:1058B0002AD0304968680839012810D009680228C0
:1058C00010D0890700292EDA216821F00301014355
:1058D0002160FFF739FA804641F288390DE0096806
:1058E0008903EFE78901EDE7FFF72EFAA0EB080146
:1058F000494502D90320BDE8F0876868216801F0B6
:105900000C01B1EB800FEFD1306800F00F00B8420E
:105910000BD9306820F00F0038433060306800F059
:105920000F00B84201D00120E5E72878400705D5EF
:10593000E968206820F4E0500843206028780007D8
:1059400006D52869216821F4604141EAC000206041
:1059500000F036F82168084AC1F30311515CC840D1
:10596000064908600020FFF719FC0020C3E700008B
:10597000003C024008380240F0B6000870000020E9
:105980000449054809680068044AC1F38221515C52
:10599000C8407047083802407000002000B7000877
:1059A0000449054809680068044AC1F34231515C62
:1059B000C8407047083802407000002000B7000857
:1059C000154910B51548096811F00C0213D04110A3
:1059D000042A0FD0082A0ED10F4C241F22682368F6
:1059E00002F03F025B0207D52068C0F38810A0FBDD
:1059F000010106E0084610BD2168C1F38811A1FB32
:105A000000010023FAF714FC2168C1F30141491C8D
:105A10004900B0FBF1F010BD083802400024F4004A
:105A20002DE9F84F05004FF000076ED02878DFF819
:105A30002093A9F1040AC007AAF104044CD0D9F8B4
:105A400000104846C1F38101012908D00068C0F365
:105A5000810002280AD1DAF80000400206D5206849
:105A6000800339D568680028DFD035E06868B0F574
:105A7000803F0BD010B1B0F5A02F11D0206820F4DA
:105A800080302060206820F4802002E0206840F40C
:105A900080302060686890B1FFF756F906460AE04A
:105AA000206840F480202060F0E700BFFFF74CF949
:105AB000801B642872D820688003F7D50CE0FFF7BC
:105AC00043F9064605E000BFFFF73EF9801B642856
:105AD000F0D820688003F7D42878800742D5D9F819
