:020000040800F2
:10000000701500200D0200080D6A00083557000821
:10001000B1690008590D0008A5740008000000002F
:10002000000000000000000000000000AD6A0008B1
:100030003D0F000800000000976A0008D76A00081A
:1000400027020008270200082702000827020008EC
:1000500027020008270200082702000827020008DC
:1000600027020008270200082702000827020008CC
:10007000270200082702000827020008810E000856
:1000800027020008270200081908000827020008B4
:10009000270200082702000827020008270200089C
:1000A000270200082702000827020008270200088C
:1000B0002702000827020008270200084557000809
:1000C0003957000827020008270200082702000805
:1000D000270200082702000827020008270200085C
:1000E000270200082702000827020008270200084C
:1000F000270200082702000827020008270200083C
:10010000270200082702000827020008270200082B
:10011000316F000827020008D16B00082702000891
:100120008D0E000827020008270200082702000899
:10013000270200082702000827020008890D00088E
:10014000710D00087D0D0008270200082702000835
:1001500027020008270200082702000827020008DB
:1001600027020008270200082702000827020008CB
:1001700027020008270200082702000800000000EC
:1001800027020008270200082702000827020008AB
:10019000270200082702000827020008270200089B
:1001A000270200082702000827020008270200088B
:1001B000270200082702000827020008270200087B
:1001C000270200082702000800000000270200089C
:1001D000270200082702000827020008270200085B
:1001E000270200082702000827020008270200084B
:1001F0002702000827020008DFF80CD000F09CF866
:1002000000480047597800087015002006488047CC
:1002100006480047FEE7FEE7FEE7FEE7FEE7FEE7EB
:10022000FEE7FEE7FEE7FEE77D6B0008F901000848
:100230002DE9F05F0546002092469B46884606461B
:10024000814640241BE0284641464746224600F0AE
:1002500062F853465A46C01A914110D311461846C7
:10026000224600F049F82D1A67EB01084F46224656
:100270000120002100F040F817EB00094E41201E3C
:10028000A4F10104DFDC484631462A464346BDE876
:10029000F09F40EA01039B0703D009E008C9121F41
:1002A00008C0042AFAD203E011F8013B00F8013B30
:1002B000521EF9D27047D2B201E000F8012B491E5C
:1002C000FBD270470022F6E710B513460A460446F3
:1002D0001946FFF7F0FF204610BD30B50546002057
:1002E000034600E05B1C934205D2EC5CC85C201A1C
:1002F00001D1002CF6D130BD202A04DB203A00FACF
:1003000002F1002070479140C2F1200320FA03F36C
:10031000194390407047202A04DB203A21FA02F06A
:100320000021704721FA02F3D040C2F1200291402F
:100330000843194670470000064C074D06E0E06888
:1003400040F0010394E8070098471034AC42F6D31C
:10035000FFF756FF147E0008347E000810B51C8895
:1003600014805C8854809C88948022F81100108846
:100370001880508858809088988010BD2DE9F04FE3
:10038000FC4D00244FF004094FF0020805F1AF0BBB
:100390004FF0010A2DED028B81B0B5F8BA09B5F81E
:1003A000C21988425ED0B5F8BC09B5F8C4198842B4
:1003B00058D05946684607F06CF80020A5F84A4A1C
:1003C00000F04CFDB5F8BC09062814D0032812D063
:1003D00005281FD085F8814B042885F8804B85F8C7
:1003E0007F4B2AD085F87D9BB5F8BA19A5F8C219BC
:1003F000A5F8C40950E085F8814B85F8804B85F855
:100400007F4B85F87D9B07F045F901B0BDEC028B71
:10041000BDE8F08F85F8814B85F8804B85F87DAB82
:10042000B5F8B619A5F88A1AB5F8BA19A5F8C21917
:10043000A5F8C40985F87F8B11E085F87D8BB5F8A8
:10044000BE19A5F88E1AB5F8BA19A5F8C219A5F8FB
:10045000C40995F8820B0128D7D085F882ABA5F89E
:100460004A4A19E0AC46C34D19279CF87F0B95F812
:10047000813BB5F88A6A0128B5F8B829B5F8B619EC
:1004800005F580650DD00228BFD1B142604601D08C
:10049000012A7CD0ACF84A4A07F09EF807F080F8B1
:1004A000B3E760469CF880CBBCF1010F09D0BCF1EA
:1004B000020FAAD180F8804B80F87F8BA0F84A4ABF
:1004C000EAE7B14200D06AB181469FEDAB8BA94803
:1004D000062BB0F8900A98D2DFE803F0030B97EAF6
:1004E000FEF992E7A0F88A1A80F8814B80F8808B99
:1004F000E7E0012878D8B1424E4677D0022A75D17C
:100500000B2007F0F3F8B6F8B01988426EDCB6F8A5
:10051000B6190520A6F88A1A86F8810B0020A6F8DD
:100520004A8A07F0E3F800EE100AB8EEC00B85ED3A
:10053000CE0BB4EEC80BF1EE10FA29D2B5EEC00B1B
:10054000F1EE10FA07DBBCEEC00B10EE100A00BF94
:100550008DF8000001E08DF800409DF8000000F0EB
:100560007DFC022007F0C2F890FBF7F0C6F81009F6
:10057000002007F0BBF80446012007F0B7F8002C74
:1005800008DB6FF00041621A90420BDB09E0CEE01D
:10059000FF20DDE704F10041884202DD4FF0004119
:1005A00000E0211A6FF0004381FB07400022191B75
:1005B000824101DA1C4607E04FF00041611A70F1F8
:1005C000FF3001DA4FF00044022007F08FF800EE10
:1005D000100AB8EEC01B00EE104AB8EEC00B80EE59
:1005E000012B85EDD02B5AE007E0FFE786F881ABC1
:1005F000A6F84AAAA6F8907A77E0401E00D5002017
:10060000A9F8900A06F0E8FFFFE601284AD8D9F8D1
:1006100010094E46002806DD012007F067F896F81D
:100620006B1B884210DB002000F018FC594668461E
:1006300006F02FFF032186F8811BA6F8907A96F822
:10064000611B86F8961B44E086F8818B95EDCE0BF6
:1006500095EDD01B30EE410B85EDCE0BB4EEC80B03
:10066000F1EE10FA61D2B5EEC00BF1EE10FA57DAE6
:1006700003E000BF8DF8000001E08DF800409DF818
:10068000000000F0EBFBD6F810094FF00041884263
:1006900002DCC6F8101902E0401EC6F81009A6F8E0
:1006A000907AB2E6401E00D50020A9F8900AACE688
:1006B00099F8611B484605290BD380F8814B89F8CE
:1006C000808B5946684606F0E4FE00204EE010E0BC
:1006D00002E006F009FF98E601284946E2D881F8D1
:1006E00081ABA1F84AAAA9F8907A642000F0B6FB81
:1006F00088E701284E46D5D886F8818B95EDCE0B3C
:1007000095EDD01B30EE410B85EDCE0BB4EEC80B52
:10071000F1EE10FA09D2B5EEC00BF1EE10FAACDB37
:10072000BCEEC00B10EE100AA4E7FF20A2E7A0F871
:100730008A1A042B9FED120B80F87FAB5246A0F86B
:10074000904A85EDCE0B85EDD00BC0F8104980F8AE
:1007500080ABA6D0074980F8819BA0F84A2AB03127
:100760006846ACF8907A06F0ADF9642000F076FBAC
:100770004BE6000048000020000000000000704030
:10078000000000000000000010B50146806B026C04
:1007900012F0500F05D0026CD20626D502F055F9A2
:1007A00010BD016C41F40071016401688A6812F0A7
:1007B000405F17D18269AAB9CA6A12F4700F02D0D9
:1007C0008A6852050ED44A6822F020024A60016C01
:1007D00021F480710164016CC90403D4016C41F0FF
:1007E0000101016402F026F910BD806BC26C08465D
:1007F000BDE81040104710B5806B40210164416C8A
:1008000041F00401416402F020F910BD10B5806B85
:1008100002F01AF910BD0000014802F017B90000FB
:10082000F40D00204A496FF0706210B5D1F804331E
:1008300023F44033C1F80433D1F80433446823432C
:10084000C1F8043301684B6823F480734B6001687E
:1008500003694C6844EA03234B6001684B6823F04A
:1008600040734B60016884684B6823434B600168A8
:100870008B6823F400638B600168C4688B68234332
:100880008B60816AD14201688A6822F070628A6056
:1008900001680DD0836A8A681A438A6001688A6891
:1008A00022F040528A600168C36A8A681A4302E0F3
:1008B0008A6822F040528A6001688A6822F0020247
:1008C0008A60016882698B6843EA42028A6090F814
:1008D00020100029016811D01E4A4B6843F40063C0
:1008E0004B6001684B6823F460434B600168446AC5
:1008F0004B6802EB443213434B6003E04A6822F436
:1009000000624A600168144BCA6A22F47002CA622B
:100910000168848BCA6A03EB04531A43CA620168F4
:100920008A6822F400728A60016890F830208B682F
:1009300043EA42228A6001688A6822F480628A60FF
:10094000016840698A6842EA8020886010BD000022
:100950000020014000E0FFFF0000F0FF2DE9F04F14
:10096000DFF8E083022700244FF0010908F1AF0B04
:100970002DED028B81B0B8F8BA09B8F8C2198842D7
:1009800062D0B8F8BC09B8F8C41988425CD059469E
:10099000684606F07EFD0020A8F84A4A00F05EFA9C
:1009A000B8F8BC09062815D0032813D0052821D093
:1009B000042838D088F8844B042188F8834B88F8C1
:1009C000824B88F87D1BB8F8BA19A8F8C219A8F8A4
:1009D000C4095CE088F8844B042088F8834B88F8CD
:1009E000824B88F87D0B06F055FE01B0BDEC028B02
:1009F000BDE8F08F88F8844B88F8834B88F8824BE9
:100A000088F87D9BB8F8B619A8F88A1AB8F8BA1908
:100A1000A8F8C219A8F8C40998F87F0B0228E4D0F6
:100A200088F87F7B31E088F8844B88F8834B88F81E
:100A30007D7BB8F8BE29A8F88E2AB8F8BA29A8F89C
:100A4000C229A8F8C40919E0BE4D192698F8822BCE
:100A5000012A95F8841BB5F88EAAB5F8C039B5F807
:100A6000BE0905F580650CD0022ABED198F8832B0B
:100A7000012A32D0022AB8D188F8834B88F8829BA9
:100A800003E0504501D0012B06D0A8F84A4A06F0F1
:100A9000A3FD06F085FDA8E79FEDAB0BA8F88E0A35
:100AA000042988F8827B4A46A8F8924A85EDD20B41
:100AB00085EDD40BC8F8144988F8839B95D0A149DB
:100AC000042088F8840B6846A8F84A2AB031A8F8B0
:100AD000926A05F0F7FF64201AE0B8F8B629B8F872
:100AE0008ACA624504D0B8F8B8C9BCF1000F0CD06E
:100AF0009FED978B934A0629B2F8922ACBD2DFE872
:100B000001F0030A94E5F8F36FE7A8F88A2AE1E018
:100B100000F0A4F969E7012A7ED8504577D0022B6E
:100B200075D10B2006F0EAFDB8F8B01988426EDCEA
:100B3000B8F8BE190520A8F88E1A88F8840B002092
:100B4000A8F84A7A06F0DAFD00EE100AB8EEC00BFB
:100B500085EDD20BB4EEC80BF1EE10FA28D2B5EE4B
:100B6000C00BF1EE10FA06DBBCEEC00B10EE100A63
:100B70008DF8000001E08DF800409DF8000000F0C5
:100B80006DF9022006F0BAFD90FBF6F0C8F81409E2
:100B9000002006F0B3FD0446012006F0AFFD002C56
:100BA000014607DB6FF00040221A91420ADB08E0A1
:100BB000FF20DDE704F10040814202DD4FF00040FC
:100BC00000E0601A6FF0004280FB06400021121B1B
:100BD000814102DA6FF0004407E04FF00041611AF2
:100BE00070F1FF3001DA4FF00044022006F086FD7C
:100BF00000EE100AB8EEC01B00EE104AB8EEC00BB3
:100C000080EE012B85EDD42B57E005E0FFE788F857
:100C1000849BA8F84A9A72E0521E00D50022A8F8D8
:100C2000922A00BF06F0D8FCDFE6012A48D8D8F89F
:100C30001409002806DD012006F060FD98F86B1B02
:100C4000884210DB002000F009F95946684606F09A
:100C500020FC032188F8841BA8F8926A98F8611B8D
:100C600088F8961B42E088F8847B95EDD20B95EDD1
:100C7000D41B30EE410B85EDD20BB4EEC80BF1EE78
:100C800010FA5DD2B5EEC00BF1EE10FA53DA02E0C5
:100C90008DF8000001E08DF800409DF8000000F0A4
:100CA000DDF8D8F814094FF00041884202DCC8F89A
:100CB000141902E0401EC8F81409A8F8926A94E6D4
:100CC000521E00D50022A8F8922A8EE698F8610BF1
:100CD00005280BD388F8844B5946684688F8837BEF
:100CE00006F0D7FB002013E70FE002E006F02AFC35
:100CF0007BE6012AE4D888F8849BA8F84A9A642005
:100D0000A8F8926A00F0AAF88CE7012AD8D888F8E7
:100D1000847B95EDD20B95EDD41B30EE410B85ED28
:100D2000D20BB4EEC80BF1EE10FA09D2B5EEC00B3F
:100D3000F1EE10FAAFDBBCEEC00B10EE100AA7E725
:100D4000FF20A5E748000020000000000000000090
:100D50000000000000007040FEE70000034801684A
:100D6000002008640C21014804F024BAEC0F002094
:100D7000014802F0C8B90000F80E0020014802F056
:100D8000C2B90000F80E0020014802F0BCB9000012
:100D9000F80E00200A480E230021012230B44FF43F
:100DA0007854C0E90612C0E900418160C160C0E921
:100DB0000413C0E9082330BC0146024802F094B88D
:100DC0009C0E0020F80E002010B5FFF7E3FF084846
:100DD000012102F00BF80648022102F007F804484E
:100DE000102102F003F8BDE81040014802F0AABB50
:100DF000F80E002008B564208DF80000684600F069
:100E000007F80248042104F0D5F908BDAC0F002012
:100E100001789FED0D2B00EE101A9FED0E1B0C4874
:100E2000B8EE404BD0ED030A016884EE023BB8EE09
:100E3000600B33EE011B21EE000BBDEEC00B10EE7C
:100E4000100A8863704700000000000000409F40C7
:100E5000AC0F00209A9999999999A93F064964285D
:100E600081F86B0B00D36420C0F1640081F8760B2D
:100E70000248FFF7CDBF000048000020BE0B002055
:100E8000014802F0A5BB00000C110020014802F04F
:100E90009FBB00003C0E002001681823CAB2103A24
:100EA000B2FBF3F2054B6FF30901032A9B5CC365A8
:100EB00000D9091D8165084670470000F47D0008CF
:100EC00010B583694FF0C074826A0146002053B1A7
:100ED000B3F5005F15D072B1012A0CD0022A0AD0F6
:100EE000032A09D104E01AB1012A06D0022A03D14B
:100EF000C96AC90100D5012010BDC96AA142FAD052
:100F000010BD002AF7D0012AF2D0022AF3D0032A1A
:100F1000F3D010BD30B50468256825F48025256020
:100F2000046863608368402B036803D0996000689D
:100F3000C26030BD9A600068C16030BD704700007B
:100F4000FEB500240D46102106460848224602F050
:100F5000C9FD642034700121009501232246CDE9AA
:100F600001100348A02102F0C1FEFEBD00040240B2
:100F7000200F0020FEB5157850220F781C4601780E
:100F80006426089B42EA111047EA01118DE86800C7
:100F9000CAB241000248012302F0A8FE2070FEBD43
:100FA000200F00202DE9FC470078174609785022D1
:100FB000DDE90A9842EA10140F4D41EA0010C6B26A
:100FC0000020195C2954401C1028FADB0B48002231
:100FD000102102F087FD002188F8001038786100A8
:100FE00001233246CDE90050054802F031FF89F86F
:100FF0000000BDE8FC870000E20D00200004024074
:10100000200F0020704700000121017002480A46AD
:10101000022102F067BD0000000C024001210170B6
:1010200002480A46042102F05DBD0000000C0240A7
:101030000021017002480A46022102F053BD00005F
:10104000000C02400021017002480A46042102F00F
:1010500049BD0000000C024070B505460C4608462C
:1010600000F003F82078287070BD012101707047EE
:1010700000210170704770472DE9FF4F87B09946F6
:101080008A464178DDE91A54DDF850E0DDE9163B87
:10109000DDE9187604F1A50284F8A310511E90F83A
:1010A000028004F1A30C84F8A48090F8038084F8F3
:1010B000A58090F80080B8F1570F09D0B8F1520F11
:1010C0000DD0B8F14C0F12D0B8F1450F77D0BCE07D
:1010D000CDE900E3031D6046FFF764FFB5E004F1CE
:1010E0009300159B00906046FFF744FFADE004F1CC
:1010F0008300009004F1A6036046FFF73BFF94F8DD
:10110000A60094F8A71088426DD000200DF10801C8
:1011100004EB400292F8843092F8832003EB022221
:1011200021F81020401C0828F2DB94F8A3000128C5
:101130000CD002280AD0032808D005281AD0062887
:1011400018D0082832D0092830D04CE0C006000E54
:10115000C21F824200D900225FF0000050FA82FCD8
:1011600004EB4C0C31F81030401C08282CF8023CE1
:10117000F4DB38E0021F904200D20022D0B21F28D8
:1011800001D9F82205E0D006000EC21F824200D924
:101190000022002050FA82FC04EB4C0C31F8103095
:1011A000401C0828ACF82E30F4DB1CE0C21F904233
:1011B00000D20022D0B21F2802D9F82006E028E091
:1011C000D006020ED01F904200D900205FF000022E
:1011D00052FA80FC04EB4C0C31F81230521C082AF5
:1011E000ACF84E30F4DB002034F8101047F8201033
:1011F000401C1828F8DB002004EB4001B1F8502017
:1012000045F82020098E46F82010401C1028F3DBFA
:101210001BE009995C223846FFF73BF80021F9658D
:10122000316308467163B163C6F83C105AF8202058
:1012300046F8202059F8202045F82020401C0C2892
:10124000F4DB29636963A963E963002094F8A310C0
:1012500094F8A42094F8A53084F8701084F87120D4
:1012600084F872302118401C102891F8932081F8DE
:101270007320F7DB04F1700006F084FB00202118D6
:1012800091F870200BF80020401C1328F7DB0BB0FE
:10129000BDE8F08F2DE9F041294C01218A1E04F5AB
:1012A00080652DED028BB7EE008B85EDC48B85ED4F
:1012B000C88BC4F80C29022085EDD88B84F89E1BBE
:1012C00084F89A0B04F62C0000F1600784F8A7104C
:1012D000602100F1A006FEF7F5FF40213846FEF739
:1012E000F1FF40213046FEF7EDFF092084F87A0B2C
:1012F00085EDC68B04F5EE6006F008FA04F5F4609F
:1013000006F034FA04F2FC7006F018FA04F66732BC
:10131000511E481EFFF714FEFFF720FDFFF754FD96
:10132000FFF768FDFFF76EFE01F0FEF904F0F8FF2D
:1013300004F0FCFFBDEC028BBDE8F04105F0B8BB4A
:10134000480000202DE9F04FFF4800232DED048BCD
:1013500097B090F8781B80F8611B90F9971A01EB11
:10136000410100EB4101B1F8042AA0F8AC29B1F821
:10137000062AA0F8AE29B1F8081AA0F8B01990F919
:10138000981A00EB8101B1F8102AA0F8B229B1F83F
:10139000121AA0F8B41990F8791B80F8621B90F922
:1013A000991A00EB8101B1F8182AA0F8B629B1F812
:1013B0001A1AA0F8B81990F99A1A00EB410191F89D
:1013C0001B2B80F8A02A91F81C1B80F8A11A90F919
:1013D0009B1A00EB8101B1F8202AA0F8BA29B1F8D4
:1013E000221AA0F8BC1990F99C1A00EB8101B1F8FF
:1013F000282AA0F8BE29B1F82A1AA0F8C01990F935
:101400009D1A01EB81018C001A1903EB830102EB99
:10141000820200EB810100EB820212F8B85F81F8D2
:10142000D8535B1C142B557881F8D953957881F8E3
:10143000DA53D57881F8DB53157981F8DC53557987
:1014400081F8DD53957981F8DE53D57981F8DF5342
:10145000157A81F8E053557A81F8E153957A81F84D
:10146000E253D57A81F8E353157B81F8E453557B39
:1014700081F8E553957B81F8E653D57B81F8E753F6
:10148000157C81F8E853557C81F8E953957C81F807
:10149000EA53D27C81F8EB23B6DBAC49804600915D
:1014A0000246A9484FF0FF3391EDC80B9FEDA89B72
:1014B00081EDC40BC2F80C3900F6CC010A91032768
:1014C00098F87C2B012400F68C0B00F62C0A0026E1
:1014D000B7EE008B00F5DF600F90EAB198F87E0B55
:1014E00008B104F02DFF98F8860B08B105F062FAF8
:1014F00098F8880B08B100F0A9FF98F8930BE8B3AF
:101500009149642598F8920BA83101284AD0022805
:101510005ED003286DD15BE088F87C4B304688F8BC
:101520007E4B4546A8F88A6AA8F88C6A88F8976BBB
:10153000A8F88E6A88F87D7B88F8864B88F8854BFA
:1015400088F8884BC8F8186998F8871B042902D0D6
:10155000042185F8871B85F8934B85F8980B85F84F
:10156000990B85F8927B95F8951B012903D085F896
:10157000954BA5F8940A95F8940B00E039E0012802
:1015800003D085F8944B05F093FA85F8914B0098B9
:1015900080EDD69B95F8900B02285CD0022085F850
:1015A000900B55E098F8990B58B198F8622B98F881
:1015B000983B9A4212D1401E00D5002088F8990B22
:1015C00017E0022088F8920B6348FFF751FD10E006
:1015D00098F8620B98F8982B90420AD015A888F8D2
:1015E000924BFFF739FD98F8620B88F8980B88F852
:1015F000995B98F8950BE8B198F8940B012802D004
:10160000022817D105E0022188F8941BA8F8946AF3
:1016100010E0B8F8940A0A2804D388F8944B05F02F
:1016200047FA07E0401CB0F5803F01DB4FF6FF7042
:10163000A8F8940A98F8910B0028AED098F8900B6F
:10164000012802D0022806D106E0022088F8900B7B
:10165000009880EDD68BE8E10098B2EE041B90ED87
:10166000D60BB4EEC10BF1EE10FA6CDB3648314606
:10167000A4464FF0050E00F65132049200F66E3685
:1016800088F8904B98F89A3B00F2FC720E928C3AD4
:1016900000F6B629B51E00F5F4606C1CCDE90C020D
:1016A000062B11AA7BD2DFE803F07A03067EE4FA68
:1016B00088F89AEBB9E198F8660BFF281DD0AA28A4
:1016C0005BD00020474688F89ACB1154401C102864
:1016D000FBDB0023009245201A46194605F0C4FFA3
:1016E0000A99CDE9061700BF8DE8700EDDE90E30CE
:1016F000DDE90C21FFF7C0FC97E1042088F89A0B84
:1017000088F8521BAA2388F8531B88F8541B88F8C2
:10171000551B88F8561B88F8571B88F8581B88F803
:10172000591B88F85A1B88F85B1B88F85C1B049AC5
:1017300088F85D1B88F85E1B88F85F1B88F8601BC3
:1017400088F89D1B0AE06CE1480000204804002056
:101750000000000000000000B70B002088F89B7B11
:10176000572088F8513B012300920022114605F0D2
:101770007BFF0A99CDE90618B6E788F89A7B002026
:1017800088F89D1B88F89C7B1154401C1028FBDBBB
:10179000491CFF290F4600D9FF21009242E027E1B2
:1017A00088F89D7B41E198F89C0B01280BD098F8B4
:1017B0009D3B022825D0032B49D3042188F89CCBDC
:1017C00088F89D1B31E198F89D3B062B04D302203D
:1017D00088F89C0B0721F3E700201154401C1028C7
:1017E000FBDB5B1CFF2B1F4600D9FF230092D9B205
:1017F000102300224C2005F037FF0A98CDE9060897
:1018000019E0092B02D388F89C1B51E700201154E2
:10181000401C1028FBDB5B1CFF2B1F4600D9FF235D
:101820000092D9B2102300225FF04C0005F01CFF9B
:101830000A99CDE906188DE8700EDDE90E30DDE974
:101840000C21FFF719FCFF2FAAD9FF27A8E70020DA
:101850001154401C1028FBDB5B1CFF2B00D9FF231D
:101860000092D9B2102300224C2034E088F89D0B5E
:10187000DBE098F89B0B012812D002283FD0032808
:101880007ED098F89D0B03287BD388F89D1B88F8A1
:101890009BCB0D98B2EE080B06F00CF9C5E092E078
:1018A00098F89D0B022808D388F89D1B022088F821
:1018B0009B0B0E98B2EE080BEEE705F0FDFE98F8D4
:1018C0009D0B401DFF2800D9FF2004990091C1B253
:1018D00010230022572005F0C7FE0A98CDE906081C
:1018E0008DE8700EDDE90E30DDE90C21FFF7C4FB59
:1018F00098F89D0B401CFF28B8D9FF20B6E798F850
:101900009D0B022819D388F89B1B002088F89A7B2E
:1019100088F89D1B88F89C7B1154401C1028FBDB29
:10192000491C4746FF2900D9FF21009210230022BD
:101930004C2011E087F89D0B77E0474605F0BCFE90
:1019400097F89D0B0830FF2800D9FF2004990091DB
:10195000C1B210230022572005F086FE0A99CDE976
:1019600006178DE8700EDDE90E30DDE90C21FFF77A
:1019700083FB97F89D0B401CFF28DBD9FF20D9E79C
:1019800000E015E0042088F89B0B0C9808F69B37C4
:10199000B3EE070B06F032F8B87805F08DFEB87894
:1019A0000BE00499102300220091C1B257203DE7BB
:1019B000474605F081FE97F89D0B401CFF2807461F
:1019C000EFD9FF20EDE7009890EDDA0BB4EE480B6D
:1019D000F1EE10FA09D198F86D0B98F89E1B884229
:1019E00003D0062088F89A0B1FE006F0BFF81CE031
:1019F000009890EDDA0BB5EEC00BF1EE10FA3FF463
:101A000004AFDDF800C04C230A9810278CEDDA9B58
:101A100088F8F83688F8FA1688F8FB76CDE90608D3
:101A200062E630EE080B80EDD60B1A4814220F99AF
:101A3000FEF72FFC174A414698F86C3B4C3A0020C1
:101A400082F8603098F86D3B82F8613098F86E3B10
:101A500082F862300C181318401C94F8B64A132808
:101A600083F86340F6DB0B48602251462C30FEF7CA
:101A700010FC0848402259468C30FEF70AFC054805
:101A800040220A99CC30FEF704FC17B0BDEC048B61
:101A9000BDE8F08F940C00202DE9FC5FFD4C05277C
:101AA00064224FF0020B23464FF6FF75002640F2EA
:101AB000022A94F86B0B4FF4803984F8630B03F51A
:101AC000806094F8691B84F8641B94F87ACBB3F8AF
:101AD000883ABCF10A0F61D2DFE80CF0600578119A
:101AE000781F29444E5A062284F87A2B4FF400704E
:101AF000A4F8420A4FF4C871A4F8441A66E0042B13
:101B000002D006F0ADF861E084F87ABB4FF47A7148
:101B1000A4F8421AA4F844BA58E0012084F87A0BD9
:101B2000A4F842AAA4F8447AA4F8460A4EE0012B8D
:101B300001D051B113E0082184F87A1B40F205303E
:101B4000A4F8420AA4F8482A40E094F87B0B012844
:101B500005D1581C484500D32846A4F8880A84F8C3
:101B60007B1B33E0032084F87A0BA4F8426AA4F8C4
:101B7000846AA4F8866A29E0A4F8482A072384F82E
:101B80007A3BA4F842AAA4F8447AA4F846BA1DE025
:101B90000A219FEDC10B84F87A1B15E090EDCC0B68
:101BA000B2EE041BB4EE410BF1EE10FA08D184F84A
:101BB0007A7B40F20120A4F8420AA4F8467A05E0B4
:101BC000B7EE001B30EE010B80EDCC0BB448B549ED
:101BD000A0F164039A1ECDE90010911E6A3804F04A
:101BE0002DFFAF49F43191ED040BBDEEC00B10EEAB
:101BF000100A012848D002284FD000216018491C43
:101C00000A2990F8AC2A80F8A22AF7DBA4485A38AF
:101C1000811C831E021FCDE90001811F503005F099
:101C200025FC9C4FB4F84C0A07F6D611B23788460B
:101C3000A0F54072053A16D0B0F5017F42D0B0F55C
:101C4000007F4DD0A0F54071063930D0A0F500716D
:101C5000013964D0504570D1B4F84E0A05286DD0D2
:101C600004286CD0A3E0B4F84E0A3B46A4F8560A08
:101C70000A46B4F8500A0021FEF770FBB4F8520A85
:101C800002213B4642461AE0002023180A5C401C11
:101C90000A2883F8A22AF8DBB8E700200A182318DC
:101CA000401C127E0A2883F8A22AF7DBAEE7B4F8BC
:101CB0004E1A0A203B464246B1FBF0F00121FEF7E6
:101CC0004DFB74E094F8770BFF2802D384F8776B10
:101CD0006DE0401CFF2800DDFF2084F8770B66E0F4
:101CE000B4F8C609B4F84E1AFF2802D3A4F8C6699E
:101CF00005E0401C484500DB2846A4F8C609A4F8C6
:101D0000C81994F8630B642851D0322903D0642990
:101D100001D0C8294BD1002005F0D8FD47E0B4F828
:101D20004E7AFF2F00D9FF27B4F8CE09B4F8501A25
:101D3000FF2805D3A4F8CE6908E02BE017E020E0E7
:101D4000401C484500DB2846A4F8CE09A4F8D01969
:101D5000F9B2B4F8520A1E29A4F85A0A05D900208B
:101D600005F0B4FD002005F0C5FDF8B206E0B4F8BA
:101D7000500A05F0ABFDB4F8CC0908E005F0ECFD25
:101D800015E0B4F8500A05F0B5FDB4F8D409002800
:101D9000F4D00CE0A0F50071033908D1B4F84E0A74
:101DA00064214843484500DB2846A4F8580A94F8C3
:101DB0009E0A58B9B4F8D609A4F8300AB4F8D8097C
:101DC000A4F8320AB4F8DA09A4F8340A94F8560AE6
:101DD00084F8780B94F8971AB4F8D609E9B300217F
:101DE00001EB410104EB4101A1F8040A94F8971AB0
:101DF000B4F8D80991B3002101EB410104EB410192
:101E0000A1F8060A94F8971AB4F8DA0939B3002150
:101E100001EB410104EB4101A1F8080A94F8970A8B
:101E2000B8B3002084F8970A94F8981AB4F8C60951
:101E3000D1B3002104EB8101A1F8100A94F8981A9B
:101E4000B4F8C80989B3002104EB8101A1F8120A92
:101E500094F8980A50B3002002E08DE08EE08FE005
:101E600084F8980A94F8770B84F8790B94F8990A17
:101E7000B4F8CA19E8B3002004EB8000A0F8181ADF
:101E800094F8991AB4F8CC09A1B3002104EB8101AC
:101E90000DE077E048000020000000000000000096
:101EA000F40A0020D07D00086EE070E071E0A1F837
:101EB0001A0A94F8990AE0B35FF0000084F8990ACE
:101EC00094F89A1A94F8C90AA1B3002104EB4101CD
:101ED00081F81B0B94F89A1A94F8CA0A59B3002196
:101EE00004EB410181F81C0B94F89A0AE8B3002036
:101EF00001E050E051E084F89A0A94F89B1AB4F893
:101F0000CE0999B35FF0000104EB8101A1F8200A2A
:101F100094F89B1AB4F8D00949B3002104EB81016D
:101F2000A1F8220A94F89B0A80B3002084F89B0A47
:101F300002E034E036E037E094F89C1AB4F8D209B5
:101F400079B3002104EB8101A1F8280A94F89C1AC6
:101F5000B4F8D40981B3002104EB8101A1F82A0A65
:101F600094F89C0A48B3002002E01FE020E021E042
:101F700084F89C0ABDE8FC9F012131E701213BE781
:101F8000012145E701204DE7012153E716E001213A
:101F90005AE7012060E701206EE7012176E7012082
:101FA0008CE70DE0012191E7012199E701209FE7EE
:101FB0000121A9E70121B1E704E005E00120B5E72F
:101FC0000121BFE70121C7E70120CDE72DE9F04F4F
:101FD00045499BB00DF1080C91F9963A002003EBAE
:101FE000C303C41801EB8404D4F840494CF82040E2
:101FF000401C0928F5DBB1F8829A0123B1F85C0A8C
:10200000189091F86B0B1790B1F84A0A1690B1F836
:10201000580A1590B1F8C4B9B1F85AAA81F89E3A95
:102020000020B1F8305AB1F8323AB1F8344A81F8A8
:102030009E0A65F30F0291F8697B0BAC91F86A6B0D
:1020400063F31F4291F8685B01EB40083CF82030D5
:10205000A8F8DC3924F81030401C0928F4DBA1F87A
:10206000EE994FEA1248189AA1F8F029179AA1F8A8
:10207000F229169AA1F8F429159AA1F8F629A1F8DF
:10208000F8B9A1F8FAA9A1F8FC89A1F8FE79A1F89C
:10209000006AA1F8025A15490091A1F2171004F044
:1020A000EAFC009805F08AFC1148002134F8112060
:1020B00020F81120491C0929F8DBA0F81290189982
:1020C00081821799C1821699018315994183A0F8DD
:1020D0001CB0A0F81EA0A0F8208047848684C58488
:1020E0001BB0BDE8F08F0000480000203B0B002033
:1020F000480C0020264930B589B001F52A7005F05A
:102100005DFE244D00206C4605EB8001D1F81C19C2
:1021100044F82010401C0928F6DB1F4804F0BCFCE2
:102120001E49002001EB800254F82030401C092891
:102130009362F7DB95F89F0A48B900BF05EB800270
:1021400054F82010C2F88819401C0928F6DB00203A
:1021500095F8962A54F82010B2B1002202EBC20280
:102160000244401C05EB82020928C2F84019EFDB4B
:1021700095F8960A50B1002085F8960AB5F8800ABD
:10218000A5F8820A09B030BD0122E7E70120F3E794
:102190006409002048000020C80A0020480C0020E4
:1021A000F0B5564C8BB0012001A984F89F0A00209D
:1021B00004EB8002D2F8882941F82020401C09282D
:1021C000F6DB002084F89F0A4FF4A061B4F85C0AA3
:1021D000A4F8360A4FF44472B4F84A0A531C94F82F
:1021E0006B6B951DA4F8380AD71DB4F8580AA4F8EB
:1021F0003A0AB4F8C4C9A4F83CCAB4F85ACAA4F854
:102200003ECAB4F880CAA4F840CAA4F8761AA4F862
:10221000782A3B4AA4F87A3A0723A4F87C5A02F1B8
:1022200010010D46A4F87E7A04F5246405F0C4FA82
:10223000E08307232084294634F80A0C304A05F04D
:10224000BBFA304D6084A5F18B03009503F12202A7
:10225000911E881E04F0DBFBA5F15500294605F010
:102260005DFB0835264BA5F19502A684911E0095CD
:10227000203301F1280004F0CAFBA5F15B002946D8
:1022800005F04CFB0835204AA5F1A3030095991EE3
:10229000081D04F0BCFBA5F16100294605F03EFBDA
:1022A00005980835E084A5F1770306989A1E2085E5
:1022B000911E049860850998A085881E009504F0F9
:1022C000A6FBA5F16700294605F028FB079808350D
:1022D000E085A5F1770301989A1E2086911E029849
:1022E00060860398A086881E009504F090FBA5F1F7
:1022F0006D00294605F012FB0BB0F0BD4800002030
:10230000D27D0008130B0020D07D00084C4900202E
:1023100010B586B06A4691F848308DF8003091F8D3
:1023200049308DF8013091F84A308DF8023091F83B
:102330004B308DF803300C181318401C94F84C40A7
:1023400010281C71F7DB104605F04AFC3D4B0022BB
:1023500093F89D0AE8B3002002EB820100EB8000B5
:1023600003EB810102EB800000EB800091F86845EF
:1023700003EB800080F8B84091F8694580F8B940D7
:1023800091F86A4580F8BA4091F86B4580F8BB40F7
:1023900091F86C4580F8BC4091F86D4580F8BD40DF
:1023A00091F86E4580F8BE4091F86F4580F8BF40C7
:1023B00091F8704580F8C04091F8714580F8C140AF
:1023C00091F8724580F8C24091F8734580F8C34097
:1023D00000E030E091F8744580F8C44091F875450C
:1023E00080F8C54091F8764580F8C64091F8774569
:1023F00080F8C74091F8784580F8C84091F8794551
:1024000080F8C94091F87A4580F8CA4091F87B1568
:1024100080F8CB10521C142A9ADB93F89D0A60B105
:102420005FF0000083F89D0A074890EDC60B80ED31
:10243000C80B06B010BD01208EE70120F2E70000B6
:10244000E80B002048000020480400202DE9FE4F42
:10245000A64C012500274FF00309214601F66830FC
:1024600094F887CB01F66A3202900226D1F8180957
:10247000EB070192521E0092421E91F88DAB01F1C2
:10248000A90B91F8891BBCF1070F59D2DFE80CF0BA
:102490005804F260F2BCF200BAF1010F514609D0C3
:1024A000022910D0032917D0BAF1040F48D101280E
:1024B0002DD0BCE001287CD184F88F7B84F88D7B03
:1024C00084F8876BCAE0012873D184F88D9B00F0F3
:1024D000A5F9C4F81809C1E001286AD184F88D5B18
:1024E00000F09CF9C4F8180994F86B0B512894F883
:1024F0008F0B07D2012823D0502084F88F5BFEF782
:10250000ADFCC2E002281BD084F88F6BBDE084F8DC
:102510008E7B84F88D6B00F081F9754AC4F8180938
:10252000511E481E00F010F994F8720B84F8680BE5
:1025300094F8700B84F8690B94F8710B84F86A0BAB
:10254000BDE8FE8FC4F81839FAE7C4F81829F7E790
:10255000D4F80C290420022A21D0002AF0D1BAF1A3
:10256000040F84F8875B05D084F88D0B00F056F9D2
:10257000C4F8180994F8850B032836D0042840D0F5
:1025800094F86B0B3C283CD894F88E0B0128D7D0DC
:102590003C2084F88E5BBDE8FE4FFEF75FBC94F8EC
:1025A000612B052ACCD2052284F8872B042907D079
:1025B00000E03CE084F8890B00F030F9C4F8180919
:1025C00094F8850B032894F88C0B09D00128B7D018
:1025D00084F88C5BBDE8FE4F4548C01CFEF714BD77
:1025E0000228ADD084F88C6B09E094F86B0B50286E
:1025F000C6D894F88E0B0328A2D084F88E9B502066
:10260000C9E784F88E6B9BE7012908D0022911D015
:10261000032930D0042993D101283ED007E00128B6
:1026200005D184F8897B062084F8870B16E0984250
:102630008BDC87E70128FAD184F88B7B84F8899BAF
:1026400000F0ECF8C4F8180994F8850B032894F806
:102650008A0B07D00128D6D084F88A5BBDE8FE4FEC
:1026600000F0BAB80228CED0002084F88A6BFEF7BA
:10267000F5FBF3E736E00128D9D184F88A7B84F8AA
:10268000895B00F0CBF8C4F818095B469DE80700A9
:1026900003B0BDE8F04F00F08BB884F88C7B84F871
:1026A000896B00F0BBF8114FC4F8180994F8850B3A
:1026B000AC37032894F88B0B08D00128A3D007F679
:1026C000C82084F88B5BFEF7B3FC03E002289AD0A5
:1026D00084F88B6B3B469DE8070003B0BDE8F04FE4
:1026E00000F088B884F8879B2AE7000048000020A3
:1026F000BA0B002010B5002303700B700124147076
:102700000421084C1A46204601F0ECF9002220462C
:10271000082101F0E7F901222046BDE8104002211E
:1027200001F0E0B90010024008B5684600F002F878
:1027300008BD00000021017002480A46022101F094
:10274000D1B900000010024010B50024047001232C
:102750000B7013702246084C0421204601F0C2F988
:1027600001222046082101F0BDF901222046BDE8E2
:102770001040022101F0B6B90010024010B501234B
:10278000037000240C70094C042113701A46204673
:1027900001F0A8F900222046082101F0A3F9012246
:1027A0002046BDE81040022101F09CB90010024013
:1027B0002DE9F0411C4615469A1C0E46591C074649
:1027C0002046FFF797FFA07828702078387060784F
:1027D0003070BDE8F0810000044810B5FFF7AAFF93
:1027E000034890F8731B80F8681B10BDBB0B0020DA
:1027F000480000202DE9F0411C4615469A1C0E4663
:10280000591C07462046FFF7B9FFA07828702078AA
:10281000387060783070BDE8F08100002A490846C1
:1028200091F8892B90F8850B042A10D0022A16D033
:10283000032A2FD0012A35D091F88D0B042839D0E6
:1028400002283AD003283BD0D1F858087047032813
:1028500002D0D1F86C087047D1F87C087047032883
:102860000FD091F8612B012A0ED01748022AD0F818
:102870006008F3D0032A0AD0042AEFD1D1F86808FF
:102880007047D1F878087047D1F85C087047D1F8E4
:1028900064087047032802D0D1F870087047D1F857
:1028A00034087047032802D0D1F874087047D1F873
:1028B00038087047D1F850087047D1F84C08704775
:1028C000D1F854087047000048000020704700000D
:1028D000F8B50025009590F83C20012A18D0012277
:1028E00080F83C200A6807234E4C0668092A1AD94A
:1028F0000A3A02EB4207F268BB409A43F2600E6864
:102900000268A64206D10B7AD66846EA036308E05D
:102910000220F8BD0A3E8B68D76806EB4606B34036
:102920003B43D3600EE002EB42073269BB409A435F
:10293000326103680E788A681F6906EB4606B2406A
:102940003A431A614A681F23072A13D20668521EA7
:1029500002EB8207726BBB409A43726303680E7985
:102960000A88761E5F6B92B206EB8606B2403A4347
:102970005A6327E006680D2A12D2D21F02EB8207A3
:10298000326BBB409A43326302680E790B88F61FA4
:10299000176B9BB206EB8606B3403B43136311E013
:1029A0000D3A02EB8207F26ABB409A43F262026878
:1029B0000E790B880D3ED76A9BB206EB8606B340B4
:1029C0003B43D362184A0368934208D10B68122B29
:1029D00005D1D2F8043343F48003C2F8043303680A
:1029E00093421AD10B68A34201D0112B15D1D2F812
:1029F000043343F40003C2F804330968A1420CD144
:102A00000A490B4A0968B1FBF2F101EB8101490067
:102A100000E0491E00910029FBD180F83C500020C5
:102A2000F8BD00001200001000200140400000200E
:102A300040420F0000680349884201D1FFF75ABBAA
:102A400070470000002001407047704770B5044691
:102A5000006801684268C1F34001C2F3401251B3FB
:102A60004AB3216CC90603D4216C41F4007121647E
:102A7000816811F0405F17D1A169A9B9C16A11F449
:102A8000700F02D0816849050ED4416821F0200101
:102A90004160206C20F480702064206CC00403D45A
:102AA000206C40F0010020642046FFF7C3FF21683E
:102AB0006FF012000860206801684268C1F380016D
:102AC000C2F3C01289B382B3216CC90603D4216C4E
:102AD00041F400512164816811F4401F1ED1816BC3
:102AE00011F4401F02D08168490517D44168490597
:102AF00014D4816811F0405F10D1A16971B94168A7
:102B000021F080014160206C20F480502064206C12
:102B1000C00503D4206C40F0010020642046FFF77C
:102B2000D5FE21686FF00C000860206801684368DA
:102B300011F0010FC3F380110ED069B10068C00716
:102B40000AD0206C40F480302064204600F046F823
:102B500021686FF001000860206801684268C1F3D5
:102B600040110029C2F380620DD0002A0BD0616CA5
:102B70006FF0200541F00201616405602046FFF717
:102B800064FF2068056070BD70B504004FF000055B
:102B900003D0206C002610B107E0012070BD204654
:102BA00000F01EF8666484F83C60206CC00610D407
:102BB000206C20F4885040F0020020642046FDF78D
:102BC00031FE6664206C20F0020040F001002064B9
:102BD00000E0012584F83C60284670BD7047000085
:102BE000F0B587B0064614216846FDF76BFB304907
:102BF0003068884259D12F48016841F480710160E2
:102C000000682C4900F4807005901439086840F081
:102C100004000860086800F004000590086840F0AF
:102C200001000860086800F001000590086840F0A5
:102C300002000860086803240025694600F00200CD
:102C4000059013208DE831001B4800F053FEF02062
:102C500069468DE83100194800F04CFE0094694641
:102C60001748CDE9014500F045FE164C1648011500
:102C7000C4E900058715A5600B01C4E9035182145E
:102C80002046C4E907756562C4E9052300F070FDBC
:102C900008B1FEF7F0F90022B46312201146A663D2
:102CA00001F0D2F9122001F0C1F907B0F0BD000027
:102CB0000020014044380240000802400000024069
:102CC000000402403C0E002010640240F8B50D469E
:102CD00004460021009190F83C00012807D0012013
:102CE00084F83C0020688368DB0702D011E00220F2
:102CF000F8BD8668364B46F00106866035480068A8
:102D0000B0FBF3F000EB400000E0401E0090002814
:102D1000FBD120688368DB0758D0236C40F2016642
:102D2000B34343F4807323644068400505D5206CA9
:102D300020F4005040F480502064206CC00404D57E
:102D4000606C20F00600606400E061646FF02200B7
:102D500084F83C10A36B2049D963A36B1F49196405
:102D6000A36B1F49D964216808602068416841F05D
:102D7000806141602068816841F4807181602168D0
:102D80001346A06B2A464C3100F064FD1549D1F87A
:102D90000403C006206811D0884207D1826812F06F
:102DA000405F03D1826842F080428260D1F8040320
:102DB000C0060BD40C492068884207D1816811F005
:102DC000405F03D1816841F0804181600020F8BDFF
:102DD00040420F0040000020890700080D0800084D
:102DE000F7070008002001400022014090F8202051
:102DF000012A07D0022A05D0416A41F480214162AC
:102E000001207047006842690A4342610020704710
:102E1000F0B590F820500468A468012D05D0022D6B
:102E200003D0416A41F480215AE014F0406F01D18F
:102E3000E50052D5C4F30164022C03D9416A41F480
:102E400000014DE001264FF4C075A6401E608B685E
:102E5000ABB1CE684F68D0F800C0334305EB041621
:102E600043EAC7034CF8063007684FF4C27303EB1C
:102E700004130E69FE50097D012909D00DE00E886A
:102E8000CB68076843EA465305EB0416BB51EBE7F2
:102E90000168CE5846F48076CE50D2F805304FF413
:102EA000C67C11790CEB041C06684FF4C47741EA28
:102EB000032107EB041346F80C10167805EB0411F8
:102EC000D2F80120076846EA0222FA500068425808
:102ED00042F0010242500020F0BD416A41F400116D
:102EE00041620120F0BD000030B590F8203002684A
:102EF000012B07D0022B05D0416A41F480214162A9
:102F0000012030BD3E4C3F48A24200D00246D2F8DC
:102F10000032824243F00103C2F800320CD1D2F8F1
:102F2000000220F47C50C2F80002D2F800024B6A82
:102F300040EA0320C2F800020C7D0120D2F81C32C6
:102F400004F01F04A0408343C2F81C32CB69B3B91C
:102F5000D2F80C328343C2F80C328C894B684D692D
:102F600064F31F4302EBC504C4F840320C890B68BC
:102F70004D6964F31F4302EBC504C4F84432CB69C6
:102F8000012B16D1D2F80C320343C2F80C320C8854
:102F90004B684D6964F31F4302EBC504C4F840322B
:102FA0000C89CB684D6964F31F4302EBC504C4F878
:102FB00044328B69002BD2F804320FD053EA00035D
:102FC000C2F804320B69002BD2F8143208D0034344
:102FD000C2F81432096A012904D008E08343EFE7FC
:102FE0008343F5E7D2F81C120143C2F81C12D2F851
:102FF000000220F00100C2F80002002030BD0000F5
:10300000003400400064004070470000F0B590F8C4
:103010002040012C05D0022C03D0416A41F48021CC
:1030200066E0046800295ED02469A4075DD00568C5
:103030004FF4D87404EB01142D5915F00405956074
:1030400005682D5957D0ED08C2F8045007684FF4B1
:10305000DA754FF4DC7C4FF4DE763C59002905EB41
:103060000115C4F34007D7600CEB011406EB011106
:103070000668765906F00F06166106687659C6F39B
:1030800007269661066875594FEA1545556102682D
:1030900012591A70026812594FEA12225A700268C5
:1030A00012594FEA12429A70026812594FEA12629C
:1030B000DA70026852581A71026852584FEA1222A6
:1030C0005A71026852584FEA12429A710268515876
:1030D0004FEA1161D971006810D0016941F02001F7
:1030E00001610020F0BDE4689FE7416A41F40011EE
:1030F00041620120F0BD6D0D1560A7E7C16841F088
:103100002001C160EDE72DE9F05F0546006800246D
:103110004669D0F804908768D0F80CB0D0F810A0B9
:10312000F207D0F8188048D0F90714D00121816047
:10313000BA0703D5284600F032FA0CE0780702D52A
:103140004FF4006407E0380702D54FF4805402E0E2
:10315000284600F023FAF80516D52868BA054FF47A
:103160008071816003D5284600F01BFA0CE07805D9
:1031700002D544F4005407E0380502D544F48044F5
:1031800002E0284600F00CFAF80316D52868BA03C6
:103190004FF48031816003D5284600F004FA0CE03A
:1031A000780302D544F4004407E0380302D544F420
:1031B000803402E0284600F0F5F9300707D55FEAD1
:1031C000CB6004D52968102044F40074C8607007EF
:1031D0004FF0080707D55FEA0B7004D52868C76071
:1031E000284600F075F9B00706D52868C068800742
:1031F00002D0284600F06EF9700607D55FEACA6073
:1032000004D52968102044F480640861B00607D50D
:103210005FEA0A7004D528680761284600F08EF935
:10322000F00606D528680069800702D0284600F01D
:1032300086F9B00308D55FEAC96005D52968102072
:103240004860284600F07CF9F00307D55FEA097072
:1032500004D528684760284600F0A6F9300446D512
:103260005FEA497040D5F00504D55FEAC87001D027
:1032700044F00104B00504D55FEA887001D544F03C
:103280000204700504D55FEA487001D544F00404D7
:10329000300529D518F0700F26D008F070004028AE
:1032A00015D006DC102809D020280AD0302816D1E5
:1032B0000AE050280ED0602811D10EE044F0080436
:1032C0000DE044F010040AE044F0200407E044F06C
:1032D000400404E044F0800401E044F48074286871
:1032E000816921F070018161296804204860002C07
:1032F00005D0686A204368622846FFF785FEBDE86E
:10330000F09F70B5040003D094F8200010B104E0E1
:10331000012070BD204600F081F82068016821F08E
:103320000201016000F0E4FB0526054604E000F020
:10333000DFFB401B0A2811D8206840688007F6D4BC
:103340002068016841F00101016000F0D1FB0546F1
:103350000BE000F0CDFB401B0A2806D9606A40F460
:103360000030606284F82060D2E720684068C007BF
:10337000EFD0207E0128206801683DD021F0800137
:103380000160607E01282068016838D021F040018A
:103390000160A07E01282068016833D021F020015F
:1033A0000160E07E0128206801682ED041F0100104
:1033B0000160207F01282068016829D021F00801E0
:1033C0000160607F01282068016824D021F0040199
:1033D0000160D4E90110D4E903326569491E18433C
:1033E00023682A43104300220843D8610121626206
:1033F00084F82010104670BD41F08001C0E741F014
:103400004001C5E741F02001CAE721F01001CFE7F4
:1034100041F00801D4E741F00401D9E710B586B0C6
:10342000044614216846FCF74DFF2649206888426F
:1034300046D12548016841F400510160016801F45A
:1034400000510591016841F080610160016801F05F
:1034500080610591016841F000710160006800F031
:103460000070059018481038016841F002010160B1
:1034700000680221002200F00200059003230924C5
:103480004FF440508DE81F001048694600F032FAB2
:1034900000223F20114600F0D7FD3F2000F0C6FD7E
:1034A00000224020114600F0CFFD402000F0BEFD7C
:1034B00000224120114600F0C7FD412000F0B6FD7A
:1034C00006B010BD006800404038024000040240D1
:1034D0007047000010B572B6144B0021144A02F177
:1034E0003400FFF793FD124812490088020A0A7659
:1034F0000E4A4876022014180B18401C14F8024C8F
:103500000A281C76F7DB91ED040BB0EE001BB4EE3D
:10351000410BF1EE10FA01D1FEF7BEFA06484FF466
:10352000806100F0D8FA62B610BD000000000020F3
:10353000C40E0020E80B0020000C024070477047CA
:103540007047000070B5044690F82000012804D0B0
:10355000606A40F40020606218E0022084F82000D5
:103560002068016821F00101016000F0C1FA054600
:103570000EE000BF00F0BCFA401B0A2808D9616ABF
:10358000052041F40031616284F82000012070BD03
:1035900020684068C007EDD1606270BD7047704719
:1035A0007047704770477047704790F83510022990
:1035B00003D08021416501207047052180F8351036
:1035C0000068016821F001010160002070470000DF
:1035D0002DE9F84304464FF00009644B0820CDF86C
:1035E00000904FF41652A56D94F85C101B682E687D
:1035F000B3FBF2F700FA01F131420FD021680A68FB
:1036000052070BD50A6822F004020A6094F85C1095
:103610008840A860606D40F00100606594F85C101F
:103620004FF0010808FA01F0304208D021684969DA
:10363000090604D5A860606D40F00200606594F84A
:103640005C1004208840304208D02168096889074E
:1036500004D5A860606D40F00400606594F85C10CB
:1036600010208840304218D021680968090714D515
:10367000A86020680168490304D50068000308D5E4
:10368000A16C07E00168C90503D4016821F00801B5
:103690000160216C09B12046884794F85C10202015
:1036A0008840304231D021680968C9062DD5A8600C
:1036B00094F8350005282068016806D0490347D5ED
:1036C000006800031DD4616C1CE021F0160101604C
:1036D0002068416921F080014161206C08B9A06C2B
:1036E00020B12068016821F00801016094F85C3085
:1036F0003F229A40AA6084F8349084F83580216D86
:103700001FE0E16B09B120468847606D00282BD08F
:10371000606DC00714D0052084F83500206801686A
:1037200021F0010101600098401C0090B84203D8CC
:1037300020680068C007F6D184F8349084F835809A
:10374000E16C002910D001B02046BDE8F0430847E5
:103750000168C905D5D4036823F01003036084F819
:10376000349084F83580CCE7BDE8F8834000002031
:103770002DE9F047044600F0BBF9054664B14FF06F
:10378000000984F83490022184F83510206801681B
:1037900021F0010101600EE00120BDE8F08700BFCB
:1037A00000F0A6F9401B052805D9202161650320FA
:1037B00084F83500F1E720680068C007F0D1D4E94B
:1037C0000020D4E90251D4E9043C284304F118054F
:1037D00019430843116895E8E00140EA0C001C4BCE
:1037E0002843194040EA060040EA0700B8F1040FF8
:1037F00040EA010003D1D4E90B13194308431060D8
:1038000020680126656A4069042D20F0070045EA1A
:1038100000050CD1D4E90A01054341B12046FDF76A
:103820004FFB20B14020606584F83560B4E7206824
:1038300045612046FDF730FB94F85C303F229A400A
:103840008260C4F8549084F835600020A5E7000039
:103850003F8010E02DE9F041044690F83400002547
:103860000128A66D0ED094F835C00127002084F8F9
:103870003470BCF1010F07D0022584F834002846CB
:10388000BDE8F0810220FBE7022784F8357060650F
:103890002046FDF73FFB94F85C103F208840B06065
:1038A0002068016841F0160101602068416941F01B
:1038B00080014161206C20B12068016841F008015D
:1038C00001602068016841F001010160D7E7000054
:1038D00070B5044600F00CF90546601C02D004489F
:1038E0000078044400F004F9401BA042FAD370BDF4
:1038F000340000202DE9F84FDFF89CE100224FF062
:1039000001084FF0030B4FF00F0A00BF0B6808FAD5
:1039100002F42340A34271D14D68022D01D0122D33
:103920000FD1D5080E69570700EB8505A9462D6A0A
:10393000FF0E0AFA07FCBE4025EA0C052E43C9F823
:1039400020600F79550006680BFA05FC07F00307A5
:1039500026EA0C06AF40374307604E68012E05D0BB
:10396000022E03D0112E01D0122E0ED18668CF6800
:1039700026EA0C06AF403743876046680F79A643B6
:10398000C7F30017974037434760C4688E6824EA3E
:103990000C04AE402643C6604C68E40075D53F4C2D
:1039A000256845F480452560246822F003069507C4
:1039B00004F4804400943A4C2D0F2644D6F808486D
:1039C000DFF8E0C00AFA05F7604524EA070401D1F0
:1039D00000272EE0344FB84201D1012729E0334FB0
:1039E000B84201D1022724E0314FB84201D1032768
:1039F0001FE0304FB84202D104271AE045E02E4FB5
:103A0000B84201D1052714E02C4FB84201D1062756
:103A10000FE02B4FB84201D107270AE0294FB842E7
:103A200001D1082705E0284FB84201D1092700E05D
:103A30000A27AF4027437546C6F808784E68DEF877
:103A40000040F60324EA030400D51C43124E2C6008
:103A5000361D4D683468AD0324EA030400D51C43C9
:103A60000D4F346008374D683C68ED0224EA0304CA
:103A700000D51C43084D3C600C354E682C68B602DE
:103A800024EA030400D51C432C60521C102AFFF4C6
:103A90003DAFBDE8F88F0000003C014044380240D3
:103AA00000300140000002400004024000080240D3
:103AB000000C0240001002400014024000180240B6
:103AC000001C02400020024000240240006908401F
:103AD00000D001207047426931EA020200D1090496
:103AE000816170470AB1816170470904FBE70000FA
:103AF00001488068704700003400002030B590F81D
:103B00004120202A24D190F84020012A20D00123EE
:103B100080F84030242280F84120202300240268CD
:103B2000156825F0010515600268156825F48055B3
:103B30001560026815680D43156001680A6842F057
:103B400001020A6080F8413080F84040002030BD1A
:103B5000022030BD30B590F84120202A22D190F8C3
:103B60004020012A1ED0012380F84030242280F812
:103B70004120202400250268136823F0010313600C
:103B80000268136823F4706343EA0121116001683D
:103B90000A6842F001020A6080F8414080F8405013
:103BA000002030BD022030BD7047704730B403683C
:103BB0009A691968D243D40509D4CC43240606D4A3
:103BC000456C4FF4807445F001054564DC61530594
:103BD0000AD4CB431B0607D4446C4FF4806344F0F3
:103BE000080444640468E36192050AD4C9430906E1
:103BF00007D4426C4FF4007142F002024264026842
:103C0000D161416C11F00B0F02D030BC01F064BEE9
:103C100030BC70470268436B91691268002B00D07A
:103C2000184770477047000070B5040004D094F83E
:103C30004100002510B106E0012070BD204684F847
:103C4000405000F063F9242084F8410020680168A6
:103C500021F001010160D4E9001020F070600861DA
:103C60002068816821F400418160E06821680128B2
:103C7000A06806D040F404408860E068022803D0C1
:103C800006E040F40040F7E721684FF40060486028
:103C900020212068114A4368134343602068C268AA
:103CA00022F40042C26054F8106B0DCC104340EA7D
:103CB0000320F06054F81C3CD4E900021043186063
:103CC00054F81C0D026842F001020260656484F839
:103CD0004110256384F84250002070BD008000022E
:103CE0007047704770477047704700002DE9FF4FDD
:103CF00083B0044690F841009A469346DDE9108768
:103D0000DDF84890202874D15FEA080014D09FB1F4
:103D100094F8400001286CD0012084F84000FFF79F
:103D2000E7FE0122064619230090D103204602F047
:103D300079FA002871D103E04FF4007060646CE000
:103D40000025C4F82480222184F84110402084F802
:103D5000420065646785534665635A460499204668
:103D6000CDE9009602F0E2F810B184F8405054E03A
:103D7000618DFF2734484FF08078FF294FF0007A9B
:103D800004D927853A464346009005E0618D5346A5
:103D90002185009094F828202046049902F02CFAFE
:103DA00000224B4604212046009602F03BFAA0BBBD
:103DB0002068616A406A0870606A401C6062208DF9
:103DC000401E81B22185608D401E6085608DD8B116
:103DD000D1B900224B4680212046009602F022FAFB
:103DE000D8B9608DFF2805D927853A464346009506
:103DF00006E026E0608D53462085009594F8282043
:103E00002046049902F0F8F9608D0028C8D13246A6
:103E10004946204602F033FA18B1012007B0BDE848
:103E2000F08F21682020094AC86121684B6813403F
:103E30004B6084F8410084F84250002084F84050E0
:103E4000ECE70220EAE700000024008000E800FE22
:103E50002DE9FC47044690F8410098469146DDE97B
:103E60000A758A4620284BD11FB315B32068806994
:103E7000C043000444D594F84000012840D00120FC
:103E800084F840002434FFF733FE002621226277B5
:103E900040211C4A2760A1772662E580A260E28863
:103EA00019492161243CFF2A07D9FF214FF0807571
:103EB00006E04FF4007060640FE0618D4FF0007514
:103EC00021851921CDE9001043464A465146204636
:103ED00002F05EF820B184F840600120BDE8FC8764
:103EE00000962B4694F828205146204602F084F98B
:103EF0000121204684F8406001F06AFC0020EDE7D3
:103F00000220EBE70000FFFF055E000810B586B059
:103F1000044614216846FCF7D5F91A4920688842FE
:103F20002DD11948016841F0020101600068122199
:103F3000012200F002000590C020032304248DE834
:103F40001F0012486946FFF7D5FC0F481030016882
:103F500041F40011016000680022114600F40010D5
:103F600005901F2000F070F81F2000F05FF800227D
:103F70002020114600F068F8202000F057F806B025
:103F800010BD0000005400403038024000040240E0
:103F90007047704702488168027811448160704719
:103FA00034000020032010B500F06EF8002000F06F
:103FB00005F800F023F8002010BD000070B50D4D8D
:103FC00004464FF47A700C4A29781268B0FBF1F07D
:103FD000B2FBF0F000F0C2FD48B9102C07D200226D
:103FE0002146501E00F030F800206C6070BD0120AA
:103FF00070BD000034000020400000200A4808B5D1
:10400000016841F080510160006800F0805000902C
:104010000548001D016841F480410160006800F41A
:104020008040009008BD000040380240002809DBB5
:10403000410900F01F028900012001F1E0219040B8
:10404000C1F80001704700000E4BF0B41B680D462C
:10405000C3F30223C3F10706042E00D90426191D59
:10406000072901D2002300E0DB1E012404FA06F137
:104070009C40491E2940641E994014402143F0BCD5
:1040800003F011BA0CED00E0064900F0070210B58C
:104090004FF6FF040868044B204040EA0220184312
:1040A000086010BD0CED00E00000FA051848F8B5F6
:1040B000016841F0805101600068164C00F08050AA
:1040C0000090206840F480302060FFF711FD4FF42D
:1040D0007A76054605E000BFFFF70AFD401BB042B7
:1040E0000FD86068C003F7D5206840F40030206026
:1040F000FFF7FEFC054606E0FFF7FAFC401BB04266
:1041000001D90320F8BD60688003F5D50020F8BD13
:1041100040380240007000402DE9F84F0446007816
:10412000DFF824944FF000063746C0070ED0D9F8C8
:10413000001021F40001C9F80010D9F80010626BDA
:104140001143C9F80010606B00B90126FE4D2068CC
:10415000843500030ED5E16B286820F44010084335
:104160002860E06BB0F5801F01D010B102E001269D
:1041700000E0012720684FF4800BC0020CD5216CB1
:10418000286820F4400008432860206C584501D17D
:10419000012601E000B901272068C10100D50126F0
:1041A000800666D5E8483830016841F080510160EA
:1041B0000068DFF898A300F080500090DAF8001053
:1041C00041F48071CAF80010FFF792FC804605E0C8
:1041D000FFF78EFCA0EB080064287DD8DAF8000019
:1041E000C005F5D5DFF8608308F16808D8F800004D
:1041F00010F440702AD0218E01F44071814225D004
:10420000D8F80010D8F8002021F4407142F4803230
:10421000C8F80020D8F8002022F48032C8F8002026
:10422000C8F80010D8F80000C0070FD0FFF760FCF6
:10423000824607E0FFF75CFCA0EB0A0141F2883000
:104240008142CAD8D8F800008007F3D5206BC0F3AC
:10425000012103297ED0D9F8001021F4F811C9F802
:104260000010228ED8F80010C2F30B021143C8F8D8
:1042700000102078C00607D5286820F080702860DC
:104280002868A16B084328602188AF48883049041A
:1042900005D5626E016821F4403111430160218827
:1042A000090405D5A26E016821F440211143016083
:1042B0002168C90305D5E26E016821F4401111435C
:1042C00001602168890305D5226F016821F440014E
:1042D00011430160217800E034E1490605D5626CA4
:1042E000016821F00301114301602178090605D519
:1042F000A26C016821F00C01114301602188C905FD
:1043000005D5E26C016821F030011143016021887C
:10431000890505D5226D016821F0C00111430160B6
:104320002188490505D5626D016821F4407111436A
:1043300001602188090505D5A26D016821F440615D
:10434000114301602188C90407D5E26D016821F499
:10435000405100E05FE0114301602188890405D5E8
:10436000226E016821F44041114301602168490235
:1043700005D5A26F016821F08061114301602168B9
:104380004FF0006A890209D5E26F016821F00061EF
:1043900011430160E16F514500D1012721680A07EF
:1043A00000D50127490305D5626F016821F04071EE
:1043B000114301602168090206D5D4F88020016804
:1043C00021F08051114301602168490106D5D4F8DC
:1043D0008420016821F00051114301602068000130
:1043E00006D5D4F88810286820F0007008432860AB
:1043F0002068C00006D5D4F88C10286820F08060B2
:1044000008432860DFF84891012E0ED02068B0F1F3
:10441000007F0AD08FE04F4AD9F80030104023F4D3
:10442000F8120243C9F800201BE7D9F800004E46F5
:1044300020F08060C9F80000FFF75AFB804605E0D5
:10444000FFF756FBA0EB080064287BD8306800011A
:10445000F6D421783C487C30C90712D0616B81B911
:10446000237A62680168D0F800C09201C1F301416B
:1044700042EA0142CCF3036142EA016141EA03717D
:10448000016021680A0303D5E26BB2F5801F04D0F6
:10449000C9021AD5216C594517D16368016894F88F
:1044A0000CC002689B01C1F3014143EA0141C2F320
:1044B000027241EA0C6141EA027101602968626A94
:1044C00021F01F01521E114329602168C90110D536
:1044D000238A62680168D0F800C09201C1F30361C9
:1044E00042EA034242EA0162CCF3027142EA0171FC
:1044F0000160216889010CD56168228A237B94F8C8
:1045000008C0890141EA024141EA036141EA0C71B4
:1045100001603168B04641F080613160FFF7E8FA30
:10452000064604E0FFF7E4FA801B64280AD8D8F8AE
:1045300000000001F6D5E7B3D9F800004E4620F0A0
:10454000805009E07BE00000083802400070004025
:1045500000380240FFFCFF0FC9F80000FFF7C8FA5F
:10456000074604E0FFF7C4FAC01B642867D8306828
:10457000C0438000F6D5216835480A0301D5E26BB7
:104580001AB1C9021DD5216CD9B963690168277EAA
:1045900002689B01C1F3014143EA0143C2F3027186
:1045A00043EA076242EA0171016029686FF0FF0384
:1045B00000E04BE0A26A21F4F85103EB0222114320
:1045C00029602168890212D5E16F51450FD1238CF2
:1045D0006269016807689201C1F3036142EA03421C
:1045E00042EA0162C7F3027142EA01710160217877
:1045F000090716D561690268D0F800C08B01277FD2
:10460000C2F30362CCF3014143EA014141EA026192
:1046100041EA077101602868E16A20F440300843EC
:104620002860306840F080503060FFF761FA04463F
:1046300008E000BFFFF75CFA001B642802D90320E2
:10464000BDE8F88F3068C0438000F3D40020F7E75E
:10465000883802402DE9F04705000F4663D0444EEC
:10466000306800F00F00B84209D2306820F00F0027
:1046700038433060306800F00F00B84253D12868EA
:104680003C4C810712D5400703D5206840F4E05028
:1046900020602878000703D5206840F4604020603F
:1046A000A968206820F0F000084320602878C0073F
:1046B0002AD0304968680839012810D009680228D2
:1046C00010D0890700292EDA216821F00301014367
:1046D0002160FFF70DFA804641F288390DE0096844
:1046E0008903EFE78901EDE7FFF702FAA0EB080184
:1046F000494502D90320BDE8F0876868216801F0C8
:104700000C01B1EB800FEFD1306800F00F00B84220
:104710000BD9306820F00F0038433060306800F06B
:104720000F00B84201D00120E5E72878400705D501
:10473000E968206820F4E0500843206028780007EA
:1047400006D52869216821F4604141EAC000206053
:1047500000F036F82168084AC1F30311515CC840E3
:10476000064908600020FFF729FC0020C3E700008D
:10477000003C024008380240FC7D00084000002058
:104780000449054809680068044AC1F38221515C64
:10479000C840704708380240400000200C7E0008E6
:1047A0000449054809680068044AC1F34231515C74
:1047B000C840704708380240400000200C7E0008C6
:1047C000154910B51548096811F00C0213D04110B5
:1047D000042A0FD0082A0ED10F4C241F2268236808
:1047E00002F03F025B0207D52068C0F38810A0FBEF
:1047F000010106E0084610BD2168C1F38811A1FB44
:1048000000010023FBF714FD2168C1F30141491C9D
:104810004900B0FBF1F010BD083802400024F4005C
:104820002DE9F84F05004FF000076ED02878DFF82B
:104830002093A9F1040AC007AAF104044CD0D9F8C6
:1048400000104846C1F38101012908D00068C0F377
:10485000810002280AD1DAF80000400206D520685B
:10486000800339D568680028DFD035E06868B0F586
:10487000803F0BD010B1B0F5A02F11D0206820F4EC
:1048800080302060206820F4802002E0206840F41E
:1048900080302060686890B1FFF72AF906460AE088
:1048A000206840F480202060F0E700BFFFF720F987
:1048B000801B642872D820688003F7D50CE0FFF7CE
:1048C00017F9064605E000BFFFF712F9801B6428C0
:1048D000F0D820688003F7D42878800742D5D9F82B
:1048E0000010484611F00C0F08D00068C0F381009A
:1048F00002280BD1DAF80000400207D420688007B4
:1049000018D5E868012800D114E01EE1E868002805
:10491000206817D040F001002060FFF7E9F8064654
:1049200005E000BFFFF7E4F8801B0228C2D820682A
:104930008007F7D52869216821F0F80141EAC00015
:1049400020600FE020F001002060FFF7D1F806465C
:1049500005E000BFFFF7CCF8801B02281ED82068B6
:104960008007F7D42878000729D5794869696C3021
:1049700000298046016812D041F001010160FFF773
:10498000B7F8064605E000BFFFF7B2F8801B022823
:1049900004D8D8F800008007F6D510E089E021F0AF
:1049A00001010160FFF7A4F8064604E0FFF7A0F854
:1049B000801B02287DD8D8F800008007F6D428781C
:1049C00040076BD5DFF8888108F13808D8F8000077
:1049D000C0000BD4D8F8001041F08051C8F8001086
:1049E000D8F80000012700F0805000905948016875
:1049F000C90512D40168834641F480710160FFF754
:104A000077F8064605E000BFFFF772F8801B6428C0
:104A10004FD8DBF80000C005F6D54D4EA8686836C3
:104A200001280AD008B1052811D0306820F0010013
:104A30003060306820F0040002E0306840F001008F
:104A40003060A868A0B1FFF753F883460CE03068E7
:104A500040F004003060F0E7FFF74AF8A0EB0B01EC
:104A600041F28830814268D830688007F4D50EE082
:104A7000FFF73EF8834607E0FFF73AF8A0EB0B019B
:104A800041F28830814258D830688007F4D42FB181
:104A9000D8F8001021F08051C8F80010A869E0B3E0
:104AA000D9F80010C1F3810102294ED002282068F4
:104AB00000E042E020F08070206003D0FFF718F89B
:104AC00005463DE0FFF714F8064604E0FFF710F84E
:104AD000801B022831D820688001F7D4D5E909214C
:104AE000DFF874C0D5E9070695F830304F0895F81F
:104AF0002C1030430CEB074545EA8212104340EA84
:104B0000016040EA0370CAF80000206840F080703D
:104B10002060FEF7EDFF054605E014E0FEF7E8FF34
:104B2000401B022809D820688001F7D50BE000BFA0
:104B3000FEF7DEFF401B022802D90320BDE8F88FF4
:104B400020688001F4D40020F8E70120F6E7000097
:104B500008380240007000400000FFFF401EB0F126
:104B6000807F10B501D3012010BD4FF0E0246061BB
:104B70000F21601702F097FC0020A061072121613E
:104B800010BD7047704770472DE9F04390F83C2006
:104B9000012A42D0012280F83C2051F80C4BDFF86A
:104BA00080804FF0000991E8680051E9022723F462
:104BB0004073B1F80CC03B43CF6923F480631343C7
:104BC000026823F40063234323F4805343EA05037C
:104BD00023F4005343EA060323F4804343EA070324
:104BE0000C3923F47023424543EA0C4302D00D4CA8
:104BF000A2420CD18D8C23F47006D1E9073446EA29
:104C0000055121F08071194321F00073234353644F
:104C100080F83C900020BDE8F0830220FBE7000014
:104C2000000001400004014070B590F83C20012ACA
:104C300024D0134C012580F83C50022280F83D20FE
:104C400002685368A242966802D00E4CA24203D179
:104C50004C6823F4700323430C6823F070038968C5
:104C60001C435460002326F08006026831439160A3
:104C700080F83D5080F83C30184670BD022070BD71
:104C8000000001400004014010B5040003D094F876
:104C90003D0010B107E0012010BD002084F83C0069
:104CA000204600F00DF8022084F83D002068211D08
:104CB00001F094FF012084F83D00002010BD0000A9
:104CC00008B500680B49884212D10B48016841F0D1
:104CD0001001016000680022114600F010000090F1
:104CE0003620FFF7B1F9BDE808403620FFF79EB93E
:104CF00008BD000000100040403802400168094A29
:104D0000CB6843F00103CB60016888681040062837
:104D100006D0B0F5803F03D0086840F0010008607D
:104D20000020704707000100704770B50446006816
:104D300000250169C943890715D4C168C94389079A
:104D400011D4EA1E02610121217720688069800761
:104D5000204602D0FFF7E8FF04E000F034F92046D7
:104D600000F026FA257720680169C943490717D45E
:104D7000C168C943490713D402216FF004020261DC
:104D800021772068806910F4407F204602D0FFF729
:104D9000CBFF04E000F017F9204600F009FA257770
:104DA00020680169C943090716D4C168C9430907C6
:104DB00012D404216FF00802026121772068C069D3
:104DC0008007204602D0FFF7AFFF04E000F0FBF8B9
:104DD000204600F0EDF9257720680169C943C9062E
:104DE00017D4C168C943C90613D408216FF0100253
:104DF000026121772068C06910F4407F204602D00C
:104E0000FFF792FF04E000F0DEF8204600F0D0F952
:104E1000257720680169C943C90708D1C168C9431A
:104E2000C90704D1891E0161204600F0E9F9206814
:104E30000169C943090609D4C168C943090605D4F3
:104E40006FF0800101612046FFF79CFE2068016938
:104E5000C943C90509D4C168C943090605D46FF41B
:104E6000807101612046FFF78CFE20680169C9430B
:104E7000490609D4C168C943490605D46FF0400109
:104E80000161204600F0F0F920680169C9438906F4
:104E90000BD4C168C943890607D46FF020010161B2
:104EA0002046BDE87040FFF76EBE70BD30B587B0DC
:104EB000044614216846FBF705FA246800222148BD
:104EC00002231F490125844211D1086840F01000D7
:104ED00008600868694600F0100005904FF4C4406F
:104EE0000090CDE901321848CDE9032524E01748A8
:104EF000B4F1804F12D0164DAC421FD10C6844F073
:104F000001040C60096801F001010591082100917C
:104F1000CDE90132CDE9032369460DE00C6844F088
:104F200001040C600968009301F00101CDE9013230
:104F30000392CDE904516946FEF7DCFC07B030BDB1
:104F400030380240000001400010024000000240E2
:104F5000000C004070B5044690F83C0001280ED0CB
:104F6000012584F83C50022084F83D000C2A19D019
:104F700007DC5AB1042A0DD0082A1ED10EE0022007
:104F800070BD102A12D0142A17D113E0206801F046
:104F900099FE12E0206801F0CFFE0EE0206801F0DB
:104FA00007FF0AE0206801F03FFF06E0206801F0FB
:104FB00067FF02E0206801F08FFF002084F83D5079
:104FC00084F83C0070BD704710B5040003D094F81D
:104FD0003D0010B107E0012010BD002084F83C0026
:104FE000204600F00CF8022084F83D002068211DC6
:104FF00001F0F4FD012084F83D00002010BD704751
:1050000070B5044690F83C000D4601280ED00126EC
:1050100084F83C60022084F83D000C2A45D007DC6F
:105020005AB1042A1BD0082A78D12CE0022070BD86
:10503000102A4ED0142A71D15DE0206801F042FEA2
:105040002068816941F0080181612068816921F04F
:105050000401816120682A698169114311E0206897
:1050600001F06AFE2068816941F400618161206875
:10507000816921F48061816120682969826942EA3D
:10508000012181614AE0206801F092FE2068C16937
:1050900041F00801C1612068C16921F00401C161CA
:1050A00020682A69C169114311E0206801F0BCFE43
:1050B0002068C16941F40061C1612068C16921F4BF
:1050C0008061C16120682969C26942EA0121C16128
:1050D00024E0206801F0D4FE2068416D41F0080111
:1050E00041652068416D21F00401416520682A690D
:1050F000416D114311E0206801F0EEFE2068416D22
:1051000041F4006141652068416D21F48061416591
:1051100020682969426D42EA01214165002084F836
:105120003D6084F83C0070BD10B5040003D094F8D5
:105130003D0010B107E0012010BD002084F83C00C4
:10514000204600F00DF8022084F83D002068211D63
:1051500001F044FD012084F83D00002010BD000056
:1051600008B501680E48814201D10E480FE00E4893
:10517000B1F1804F0BD00D4A914207D1016841F047
:1051800008010160006800F00800009008BD016897
:1051900041F001010160006800F00100F5E7000046
:1051A000000001404438024040380240000C0040FA
:1051B0007047000010B501220446006801F074FD3C
:1051C0000C492068884202D00B49884203D1416CC7
:1051D00041F4004141642068084A81681140062971
:1051E00006D0B1F5803F03D0016841F001010160B4
:1051F000002010BD00000140000401400700010034
:1052000070B572B600681549884224D1144C6068A4
:10521000401C6060A068401CA060E068401CE0602A
:10522000FCF790F860680025322804DB207808B18C
:10523000FCF7CCFE6560A068B0F5FA7F05DB094895
:105240004FF40071FEF747FCA560E068322802DBEE
:10525000FCF7A6FFE56062B670BD000000100040DC
:1052600010000020000C0240704770472DE9F0410B
:10527000026804460025D0691168936810F00F0F8A
:105280005BD003F0010601F49077374369D0C7077C
:1052900007D0CF0505D501271762E26F42F0010262
:1052A000E267820708D5DA0706D0276802223A6249
:1052B000E26F42F00402E267420708D5DA0706D03F
:1052C000236804221A62E26F42F00202E2670207D8
:1052D0000AD501F02002324306D0236808221A6260
:1052E000E26F42F00802E267E26F002A32D08006E5
:1052F00005D5880603D5216E09B120468847216867
:10530000E06F8968490601D4000725D5204601F0E1
:10531000E0FE20688168490619D5816821F04001C6
:105320008160E06E98B11A490165E06EFEF73DF9C3
:1053300000280FD0E06E016D06E0830611D58B06C4
:105340000FD5216E12E02046BDE8F0410847204607
:10535000FFF78BFFBDE8F0812046FFF786FFE5678A
:10536000F8E7030605D50B0603D5616E0029EAD1DF
:10537000F0E74006EED54806ECD51368202120461C
:1053800023F0400313606167656600F0D1F9E1E73F
:105390004170000810B5040002D0606F10B107E042
:1053A000012010BD002084F87000204600F026F88F
:1053B000242060672068016821F001010160204617
:1053C00001F0FAFE0128ECD0606A10B1204601F02D
:1053D000B5FD2068416821F49041416020688168F2
:1053E00021F02A0181602068016841F0010101601B
:1053F0002046BDE8104001F005BE000070B586B043
:10540000064614216846FAF75DFF22493068884253
:105410003ED12148016841F400210160006800F498
:10542000002005901C481038016841F0040101601B
:1054300000680025022100F0040005904FF4406050
:1054400008238DE8230003221448CDE9032369468D
:10545000FEF750FA124C402212484FF0006184E8E7
:10546000270003152046C4E90435A561E5612562DE
:105470006562FEF77DF908B1FBF7FDFD0022B46619
:1054800034201146A663FEF7DFFD3420FEF7CEFD83
:1054900006B070BD004C0040403802400008024099
:1054A0000C1100207060024070B5836F202B4BD12F
:1054B000B9B1B2B190F87030012B45D083680126A4
:1054C00080F870600024416535030466AB42A0F8A3
:1054D0005820A0F85A204FF0FF0107D1026912B1FD
:1054E00026E0012070BD40F2FF1121E04FF07F0265
:1054F000E3B1B3F1805F1ED0A0F85C402221C46705
:10550000816701688A6842F001028A608168A94265
:1055100001D10169B1B10D49016680F870400068A0
:10552000016841F490710160002070BD036933B9D6
:10553000A0F85C10E2E7016909B13F21F8E7A0F8A3
:105540005C20DBE70249E7E7022070BD5D710008DF
:10555000037100082DE9F04772B64B4C00264B4A08
:105560004FF00109651C237843B14948012B494F8D
:105570004FF4006109D0022B21D034E06878287004
:10558000A87868701078A8702DE05FF0000326708E
:1055900012F803C007F803C05B1C0A2BF8DBFEF708
:1055A0009AFAC4F8109097ED040BB7EE001BB4EE16
:1055B000410BF1EE10FA16D1FCF76EFA13E0334B03
:1055C00026700A335FF0000207EB020813F802C0EE
:1055D000521C142A88F848C0F6DBFEF77CFAC4F89F
:1055E0001090FCF793FE28490322491CC81CFAF7C7
:1055F00074FEB8B124490322491CC81DFAF76DFE98
:10560000F0B121490322491C01F10B00FAF765FEB4
:1056100028B31E49012201F12000FFF745FF62B6C1
:10562000BDE8F08719490A2284F8009001F12000B2
:10563000FFF73AFF00202E54401C0328FBDBEEE767
:1056400012490220142220700A3101F11600FFF7DE
:105650002BFF00202E54401C0328FBDBDFE70E4805
:105660002670017869B1002101700849012201F119
:105670002000FFF719FF00202E54401C0328FBDBFD
:10568000CDE70121F0E70000200000206C10002091
:10569000000C0240E80B00201000002070B504460A
:1056A000406F20283BD161B35AB394F870000128B1
:1056B00035D0A4F85020A4F852200025A06E012374
:1056C000E164212184F87030E5676167D8B115493C
:1056D0001346C163A16E14480864A16E1348C864E0
:1056E000A06E05652068A66E00F12802E16C3046C8
:1056F000FEF7B0F838B11021E167202084F870502F
:105700006067012070BD21684020086284F87050F5
:105710002068816841F080018160002070BD022016
:1057200070BD00009B700008C9700008557000082B
:1057300070477047FEE700000148FEF737BA0000E7
:10574000200F00200148FEF765BA0000200F00205E
:1057500010B5806B0021826B1165C26B116590F8EA
:105760004110602902D0FEF75DFA10BD202180F8BB
:105770004110FEF719FA10BDCA074FF028034FF089
:10578000000210B506D090F84140422233EA0404EA
:1057900000D0F2228C0707D590F8414042F0440235
:1057A000A34301D042F0B0024B0701D542F0B8024A
:1057B00011238B4301D142F0900212238B4301D17C
:1057C00042F06002006801689143016010BD000072
:1057D00030B5144D1223446B00228B43AC4202D0EF
:1057E000114DAC420BD14C0700D5B82211248C438B
:1057F00001D142F0900283B942F060020DE04C0703
:1058000000D5B822CC0701D042F0F202890701D5B9
:1058100042F0F4020BB942F0200200680168114323
:10582000016030BDF55C0008F55F000801688A6919
:10583000D243920701D400228A6200688169C94379
:10584000C90703D0816941F00101816170472DE9E9
:10585000F041044690F841002821002508238143A7
:10586000206804D0C36184F84050BDE8F0818769A6
:1058700086694FF0FE0E8168C268C7F30047D4F80E
:105880000CC00EEA164602F0FE02BCF1020FC1F394
:10589000090118D14FF0060C06F006060CEAD11CDF
:1058A00066450FD1A66C0A46761CA664A16C022937
:1058B000DBD1A564C36184F8405039462046FEF729
:1058C00074F9D2E7164620460421FFF755FF324609
:1058D00084F84050F1E7000070B5344A00250446D2
:1058E00090F84100202684F84250E2626585626C9F
:1058F000282842EA0102626425D0292823D02A28D8
:1059000021D007212046FFF737FF94F84100602897
:1059100001D084F8416025636563206824490268EA
:10592000520402681AD522F480420260A06B00285B
:1059300033D0016584F84050A06BFDF736FE002897
:105940002BD0A06B1CE003212046FFF715FF19495F
:105950002820616384F841002563DEE7120413D533
:10596000026822F400420260E06B002815D0016555
:1059700084F84050E06BFDF718FE00280DD0E06B76
:10598000016DBDE87040084794F84100602805D0DB
:10599000204684F84050FEF745F970BD84F8416018
:1059A000204684F84050FEF7FFF870BD0000FFFF6E
:1059B00051570008D560000870B50446164AC84320
:1059C000002541074FF02000E262256384F8410082
:1059D00084F84250656311D42068616A406A087097
:1059E000606A401C6062208D40B1618D401E208540
:1059F000491E6185606C40F0040060640721204608
:105A0000FFF7BAFE21681020C861204684F8405094
:105A1000FEF766F970BD00000000FFFF2DE9F041C0
:105A20000446006820260025C943C6612068CB06CD
:105A3000274A284F416801EA020141602563E76275
:105A4000656306D421681020C861606C40F00400D2
:105A500060642046FFF7EAFE03212046FFF78CFE34
:105A6000606C94F84110602900D028B1616C204628
:105A7000BDE8F041FFF730BF94F84100212812D073
:105A800094F8410022280CD184F8416094F8420037
:105A900084F842504028204684F8405014D0FEF745
:105AA00020F9BDE8F08184F8416094F8420084F860
:105AB00042504028204684F8405002D0FEF712F9A8
:105AC000EFE7FEF711F9ECE7FEF70DF9E9E7000063
:105AD00000E800FE0000FFFF70B50446002520200E
