:020000040800F2
:10000000780C00200D02000805530008B1470008D5
:10001000A952000859090008775D00080000000097
:10002000000000000000000000000000A5530008D0
:100030002D0B0008000000008F530008BD5300087E
:1000400027020008270200082702000827020008EC
:1000500027020008270200082702000827020008DC
:1000600027020008270200082702000827020008CC
:10007000270200082702000827020008710A00086A
:1000800027020008270200081508000827020008B8
:10009000270200082702000827020008270200089C
:1000A000270200082702000827020008270200088C
:1000B000270200082702000827020008C14700089D
:1000C000B547000827020008270200082702000899
:1000D000270200082702000827020008270200085C
:1000E000270200082702000827020008270200084C
:1000F000270200082702000827020008270200083C
:10010000270200082702000827020008270200082B
:100110001558000827020008B554000827020008F7
:100120007D0A0008270200082702000827020008AD
:1001300027020008270200082702000875090008A6
:100140005D09000869090008270200082702000865
:1001500027020008270200082702000827020008DB
:1001600027020008270200082702000827020008CB
:1001700027020008270200082702000800000000EC
:1001800027020008270200082702000827020008AB
:10019000270200082702000827020008270200089B
:1001A000270200082702000827020008270200088B
:1001B000270200082702000827020008270200087B
:1001C000270200082702000800000000270200089C
:1001D000270200082702000827020008270200085B
:1001E000270200082702000827020008270200084B
:1001F0002702000827020008DFF80CD000F09CF866
:100200000048004701600008780C0020064880473D
:1002100006480047FEE7FEE7FEE7FEE7FEE7FEE7EB
:10022000FEE7FEE7FEE7FEE761540008F90100087B
:100230002DE9F05F0546002092469B46884606461B
:10024000814640241BE0284641464746224600F0AE
:1002500062F853465A46C01A914110D311461846C7
:10026000224600F049F82D1A67EB01084F46224656
:100270000120002100F040F817EB00094E41201E3C
:10028000A4F10104DFDC484631462A464346BDE876
:10029000F09F40EA01039B0703D009E008C9121F41
:1002A00008C0042AFAD203E011F8013B00F8013B30
:1002B000521EF9D27047D2B201E000F8012B491E5C
:1002C000FBD270470022F6E710B513460A460446F3
:1002D0001946FFF7F0FF204610BD30B50546002057
:1002E000034600E05B1C934205D2EC5CC85C201A1C
:1002F00001D1002CF6D130BD202A04DB203A00FACF
:1003000002F1002070479140C2F1200320FA03F36C
:10031000194390407047202A04DB203A21FA02F06A
:100320000021704721FA02F3D040C2F1200291402F
:100330000843194670470000064C074D06E0E06888
:1003400040F0010394E8070098471034AC42F6D31C
:10035000FFF756FFCC620008EC62000810B51C885D
:1003600014805C8854809C88948022F81100108846
:100370001880508858809088988010BD2DE9F05FD3
:10038000FB49032502264FF0000B01F203474FF013
:1003900001092DED028BB1F89202B1F8BE22904214
:1003A0004ED0B1F89402B1F8C022904248D08846AD
:1003B0003846C91D00F0E4FB00205C46A8F836B3BF
:1003C00000F044FBB8F894124046042905D00629F1
:1003D00003D0032910D005291DD080F81C4480F8D3
:1003E0001B4480F81A4480F81854B0F89222A0F800
:1003F000BE22A8F8C01248E080F81C4480F81B44D4
:1004000080F81A4480F81854B0F89212A0F8BE127E
:10041000A8F8C05239E080F81C4480F81B4480F8EA
:100420001894B0F88E32A0F88233B0F89232A0F867
:10043000BE32A0F8C01280F81A64A8F8369324E0FF
:10044000CB48192491F81A84B8F1010F90F81C24B4
:10045000B0F882C3B0F89032B0F88E0207D0B8F18D
:10046000020F78D160450ED0012B75D00BE091F8CA
:100470001B84B8F1010F10D0B8F1020F6BD181F8D5
:100480001BB481F81A64A1F8369305F0DDFCBDECCD
:10049000028BBDE8F05F05F0BBBC604500D063B1E6
:1004A0008A469FEDB48BB249062AB1F886137FD2F3
:1004B000DFE802F07E0C89DCF4F2A1F88203384612
:1004C00081F81CB481F81B64C91DE1E0012956467E
:1004D00073D8604501D0022B04D086F81C94A6F88E
:1004E0003653E2E0A6F882030521002086F81C14AA
:1004F00005F0F2FC00EE100AB8EEC00B86ED0A0B18
:10050000B4EEC80BF1EE10FA0CD2B5EEC00BF1EE62
:1005100010FA05DBBCEEC00B10EE100AC0B202E010
:10052000002000E0FF2000F091FA022005F0D4FC4A
:1005300090FBF4F0C6F8E401002005F0CDFC054680
:10054000012005F0C9FC002D07DB6FF000416A1A9D
:1005500090420ADB08E02BE0E3E005F1004188422D
:1005600002DD4FF0004100E0291A6FF0004381FBEB
:1005700004500022591B824101DA1D4607E04FF06A
:100580000041691A70F1FF3001DA4FF00045022096
:1005900005F0A2FC00EE100AB8EEC01B00EE105AE7
:1005A000B8EEC00B80EE012B86ED0C2BA6F886432F
:1005B000BDEC028BBDE8F09FFFE7491E00D500218E
:1005C000AAF8861376E001294AD8DAF8E401D04681
:1005D000002806DD012005F07FFC98F8071488420A
:1005E00010DB002000F032FA46463846F11D00F0DC
:1005F000C7FA86F81C54A6F8864396F8FE0386F8D8
:100600002C0438E088F81C6498ED0A0B98ED0C1B5C
:1006100030EE410B88ED0A0BB4EEC80BF1EE10FA88
:100620000CD2B5EEC00BF1EE10FA05DBBCEEC00B40
:1006300010EE100AC0B202E0002000E0FF2000F03F
:1006400005FAD8F8E4014FF00041884202DCC8F80E
:10065000E41102E0401EC8F8E401A8F88643A7E7C9
:10066000491E00D50021AAF88613A1E79AF8FE03D7
:100670005146052805D0BDEC028BBDE8F05F05F0C2
:100680009BBB81F81CB4384681F81B640AF1070152
:1006900000F076FA002065E012E0FFE701295046FD
:1006A000DED880F81C94A0F836536420AAF886435C
:1006B00000F0CCF9BDEC028BBDE8F05F05F0C4BBE7
:1006C00001295546CCD885F81C6495ED0A0B95EDAB
:1006D0000C1B30EE410B85ED0A0BB4EEC80BF1EEAE
:1006E00010FA0CD2B5EEC00BF1EE10FA05DBBCEE41
:1006F000C00B10EE100AC0B202E0002000E0FF20A4
:1007000000F0A4F9D5F8E4014FF00041884202DC82
:10071000C5F8E41102E0401EC5F8E401A5F88643DF
:1007200046E7A1F88203042A9FED140B81F81A947E
:10073000A1F886B381ED0A0B81ED0C0BC1F8E4B191
:1007400081F81B948BD0042081F81C04A1F8366337
:10075000A1F88643064C0834204600F0F3F92078CF
:1007600038706420BDEC028BBDE8F05F00F06EB91C
:100770003800002000000000000070400000000071
:100780000000000010B50146806B026C12F0500FA3
:1007900005D0026CD20626D501F01FFB10BD016CFE
:1007A00041F40071016401688A6812F0405F17D15A
:1007B0008269AAB9CA6A12F4700F02D08A68520517
:1007C0000ED44A6822F020024A60016C21F4807144
:1007D0000164016CC90403D4016C41F0010101649E
:1007E00001F0F0FA10BD806BC26C0846BDE8104005
:1007F000104710B5806B40210164416C41F0040149
:10080000416401F0EAFA10BD10B5806B01F0E4FA22
:1008100010BD0000014801F0E1BA000050050020C1
:100820004A496FF0706210B5D1F8043323F44033B5
:10083000C1F80433D1F8043344682343C1F80433C6
:1008400001684B6823F480734B60016803694C684E
:1008500044EA03234B6001684B6823F040734B600C
:10086000016884684B6823434B6001688B6823F4FC
:1008700000638B600168C4688B6823438B60816A66
:10088000D14201688A6822F070628A6001680DD0E6
:10089000836A8A681A438A6001688A6822F0405233
:1008A0008A600168C36A8A681A4302E08A6822F093
:1008B00040528A6001688A6822F002028A600168F8
:1008C00082698B6843EA42028A6090F8201000290E
:1008D000016811D01E4A4B6843F400634B60016805
:1008E0004B6823F460434B600168446A4B6802EB39
:1008F000443213434B6003E04A6822F400624A60CA
:100900000168144BCA6A22F47002CA620168848BBF
:10091000CA6A03EB04531A43CA6201688A6822F464
:1009200000728A60016890F830208B6843EA4222A6
:100930008A6001688A6822F480628A60016840697E
:100940008A6842EA8020886010BD000000200140D3
:1009500000E0FFFF0000F0FFFEE70000014801F0AB
:100960009ABD000054060020014801F094BD00002B
:1009700054060020014801F08EBD000054060020FE
:100980000A480E230021012230B44FF47854C0E904
:100990000612C0E900418160C160C0E90413C0E9EA
:1009A000082330BC0146024801F066BCF80500206F
:1009B000540600207047000010B5FFF7E1FF08481B
:1009C000012101F0DBFB0648022101F0D7FB0448BE
:1009D000102101F0D3FBBDE81040014801F07ABFBF
:1009E0005406002008B564208DF80000684600F029
:1009F00007F80248042103F06FFC08BD0807002037
:100A000001789FED0D2B00EE101A9FED0E1B0C4888
:100A1000B8EE404BD0ED030A016884EE023BB8EE1D
:100A2000600B33EE011B21EE000BBDEEC00B10EE90
:100A3000100A8863704700000000000000409F40DB
:100A4000080700209A9999999999A93F064964281D
:100A500081F8070400D36420C0F1640081F80F041A
:100A60000248FFF7CDBF00003800002047040020F7
:100A7000014801F075BF000014080020014801F092
:100A80006FBF00009805002001681823CAB2103A11
:100A9000B2FBF3F2054B6FF30901032A9B5CC365BC
:100AA00000D9091D8165084670470000AA62000848
:100AB00010B583694FF0C074826A0146002053B1BB
:100AC000B3F5005F15D072B1012A0CD0022A0AD00A
:100AD000032A09D104E01AB1012A06D0022A03D15F
:100AE000C96AC90100D5012010BDC96AA142FAD066
:100AF00010BD002AF7D0012AF2D0022AF3D0032A2F
:100B0000F3D010BD30B50468256825F48025256034
:100B1000046863608368402B036803D099600068B1
:100B2000C26030BD9A600068C16030BD70477047D8
:100B30000121017002480A46022102F09BB900001F
:100B4000000C02400121017002480A46042102F013
:100B500091B90000000C02400021017002480A46D1
:100B6000022102F087B90000000C02400021017050
:100B700002480A46042102F07DB90000000C024040
:100B800070B505460C460846FFF7F0FF2078287040
:100B900070BD70B505460C46084600F003F8207895
:100BA000287070BD012101707047002101707047ED
:100BB000704700001C48032110B5002280F8261061
:100BC000417680F8271081764170017011464318F4
:100BD000491C17299A70FADB00214318491C0B297C
:100BE000DA76FADB114808214FF0FF32C0F8E02135
:100BF00080F81514C03005F077F90C48EC3005F09A
:100C000089F90B48FFF7D6FEFFF7D6FEFFF7EAFE9D
:100C1000FFF78DFF00F052FF04F042F804F046F8B1
:100C2000BDE8104004F0C0BB68040020380000207C
:100C3000CE0200202DE9F04FE84F8DB0002502AE26
:100C4000A7F5866404EB85007919891CD0F8EC209F
:100C5000002005F00BFA70556D1C172DF2DB0020FB
:100C600000E009B9315C01B10121401C1728F8DB13
:100C7000DB48009021B15C2200F18801FFF709FBFD
:100C800000254FEA070A09AE04EB85020AEB0501CD
:100C90000020D2F8C0201B3105F0E8F970556D1C1A
:100CA0000B2DF1DB002000E009B9315C01B101211D
:100CB000401C0B28F8DB49B15FF0000004EB800119
:100CC000401C0B28D1F8C0208A63F7DBD4F8D06130
:100CD000D4F8D4510020C1493246263105F0C6F976
:100CE000BE49074600202A46273105F0BFF93843A0
:100CF00015D0BA49C4F88062B839A4F87853A1F184
:100D0000F80005F0B7FA002004EB8001401C0B2826
:100D1000D1F8A4218A63F7DB04EB86008563D4F85D
:100D2000D861D4F8DC510020AC493246193105F0C5
:100D30009DF9AA49074600202A461A3105F096F97E
:100D4000A749384301F1E401019111D001F22E21AC
:100D5000C4F87C62A1F1FA00A4F8765305F08AFA8F
:100D60005C22DDE90001FFF794FA04EB860045669A
:100D7000022694F8120401254FF0FF314FF0000BCA
:100D800084F8FE0394F98A0300EB400004EB400072
:100D9000B0F8FC22A4F88422B0F8FE22A4F886223F
:100DA000B0F80003A4F8880294F98B0304EB8000E8
:100DB000B0F80823A4F88A22B0F80A03A4F88C0239
:100DC00094F8130484F8FF0394F98C0304EB800077
:100DD000B0F81023A4F88E22B0F81203A4F8900201
:100DE00094F98D0304EB400090F8FA2384F89223E1
:100DF00090F8FB0384F8930394F98E0304EB8000CE
:100E0000B0F81823A4F89222B0F81A03A4F89402B8
:100E1000C4F8E01194F81704E8B194F8190408B183
:100E200003F04EFF94F81E04A04608B104F03EFA09
:100E300098F8200408B100F0C9FC98F82904E8B338
:100E400098F828046427C14601283BD002284FD0D7
:100E5000032860D14CE084F81754584684F819549C
:100E6000A4F882B3A4F884B384F82DB484F8186489
:100E700084F81E5484F81D5484F82054C4F8E8B152
:100E800094F81F14042902D0042284F81F2484F843
:100E90002954032284F82E04214684F82F0484F870
:100EA000282494F82B24012A03D081F82B54A1F88C
:100EB000880391F82A0401284DD000E02BE084F843
:100EC0002A543DE099F82F0458B199F8FF1399F886
:100ED0002E24914212D1401E00D5002088F82F0404
:100EE00019E03E4888F828642838FFF75EFE12E0D3
:100EF00099F8FF0399F82E1488420CD0384908A8B5
:100F000089F828546439FFF744FE99F8FF0389F8FB
:100F10002E0489F82F7498F82B04E0B198F82A046D
:100F2000012802D0022816D104E088F82A64A8F823
:100F300088B310E0B8F888030A2804D388F82A5444
:100F400004F032FA07E0401CB0F5803F01DB4FF6B9
:100F5000FF70A8F8880394F8031409B1012300E096
:100F600000239AF801205046012A0ED00025AB42FA
:100F700003D0032A01D084F8021401B10121417089
:100F800094F8141419B1012202E00125EFE70022C0
:100F9000017801291FD000239A4205D0032903D0EC
:100FA00094F8141484F8021494F8141401B1012173
:100FB0008AF800105C22DDE90010FFF76AF90020D2
:100FC00004EB8001401C0B288A6BC1F8A421F7DBDD
:100FD0000DB0BDE8F08F0123DEE7000068040020BB
:100FE0009C0000202DE9FC47FE4C0221002640F227
:100FF000022720464FF6FF754FF4007A40F2012990
:1010000094F805244FF4803884F8002494F81534BB
:10101000B0F88003092B4BD2DFE803F04A05610DDD
:101020006119213A4400062284F815244FF4C8714E
:10103000A4F830A31CE0042802D005F0B9F84EE073
:1010400084F815144FF47A70A4F8300310E00120EE
:1010500084F81504A4F83073A4F832033FE00128A3
:1010600001D042B111E0072084F81504A4F83073D0
:10107000A4F8321333E094F81614012905D1401C6A
:10108000404500D32846A4F8800384F8162426E0BF
:10109000032084F81504A4F83063A4F87C63A4F852
:1010A0007E631CE009209FEDD00B84F8150414E04A
:1010B00094ED080BB2EE041BB4EE410BF1EE10FA06
:1010C00007D1052084F81504A4F83093A4F834035C
:1010D00005E0B7EE001B30EE010B84ED080BC448B1
:1010E000C449A0F16A020B46CDE90010911E6E388A
:1010F00004F020F9BE49BA3191ED040BBDEEC00BEE
:1011000010EE100A01283BD002284FF0000040D01A
:101110002118401C0A2891F89E2381F89423F7DBBC
:10112000B34994F807245E3984F80124881E831E8D
:10113000CDE90001021F811F563004F009FEA94AC3
:10114000B4F8380302F10A03A0F54071053902F240
:10115000CE220DD0B0F5017F24D0504546D1B4F851
:10116000C202B4F83A13FF282AD3A4F8C2622DE0D1
:10117000B4F83A030021A4F84203B4F83C034FE06A
:10118000002023180A5C401C0A2883F89423F8DB0B
:10119000C6E70A182318401C127E0A2883F89423F5
:1011A000F7DBBDE794F81104FF2802D384F811643B
:1011B00066E0401CFF2800DDFF2084F811045FE09A
:1011C000401C404500DB2846A4F8C202A4F8C41223
:1011D00094F80104642853D0322903D0642901D043
:1011E000C8294DD1002004F07BFF49E0A0F54071F3
:1011F00006390FD048452AD1B4F83A73FF2F00D9E9
:10120000FF27B4F8CA02B4F83C13FF280BD3A4F8A4
:10121000CA620EE0B4F83A130A20B1FBF0F00121E3
:10122000FFF79CF82CE0401C404500DB2846A4F862
:10123000CA02A4F8CC12F9B2B4F83E031E29A4F8ED
:101240004E0302D9002004F04BFFF8B208E0B84288
:1012500009D1B4F83A0304F043FFB4F8C80278B9EE
:1012600004F070FF0CE0A0F50071033908D1B4F868
:101270003A0364214843404500DB2846A4F8440370
:1012800094F88F0358B9B4F8CE02A4F82003B4F848
:10129000D002A4F82203B4F8D202A4F82403B4F8CC
:1012A0004833B4F84603B4F84C23B4F84A13C4F8EE
:1012B000D031C4F8D401C4F8D821C4F8DC1194F8B2
:1012C000420384F8120494F88A13B4F8CE02E9B306
:1012D0005FF0000101EB410104EB4101A1F8FC02C8
:1012E00094F88A13B4F8D00289B3002101EB4101CC
:1012F00004EB4101A1F8FE0294F88A13B4F8D2027B
:1013000031B3002101EB410104EB4101A1F80003DD
:1013100094F88A03E8B3002084F88A0394F88B13C6
:10132000B4F8C202B1B3002104EB8101A1F80803B3
:1013300094F88B13B4F8C40269B3002104EB810163
:10134000A1F80A0394F88B0330B302E075E076E06D
:1013500077E0002084F88B0394F8110484F81304D8
:1013600094F88C03B4F8C612D0B3002004EB8000CC
:10137000A0F8101394F88C13B4F8C80289B30021B4
:1013800004EB8101A1F8120394F88C03A0B30020B0
:1013900003E058E059E05AE05BE084F88C0394F8ED
:1013A0008D1394F8A80341B35FF0000104EB4101F1
:1013B00081F8FA0394F88D1394F8A903D1B30021AE
:1013C00004EB410181F8FB0394F88D0398B30020EE
:1013D00084F88D0394F88E13B4F8CA0261B30DE05B
:1013E00039E03AE038000020000000000000000072
:1013F000D60300207662000831E032E05FF00001A1
:1014000004EB8101A1F8180394F88E13B4F8CC0210
:1014100079B3002104EB8101A1F81A0394F88E033B
:1014200040B3002084F88E0394F8100484F8140468
:10143000BDE8FC8717E018E019E001214AE7012127
:1014400054E701215EE7012066E701216CE70121F5
:1014500074E701207EE7012088E7012190E7012061
:1014600096E70121A2E70121AAE70120B0E70121C7
:10147000C6E700E001E00121CCE70120D2E700004F
:101480002DE9F04F4749012400239BB018460DF188
:10149000080C81F88F43B1F82053B1F82243B1F81A
:1014A000246381F88F3391F9903365F30F02B1F81B
:1014B0004453139564F31F42B1F84E5303EBC30337
:1014C000129591F807441894B1F836431794B1F87F
:1014D000C0A291F805B491F8069491F80474C41868
:1014E00001EB8404D4F810424CF82040401C092839
:1014F000F5DBB1F87A6300200BAC91F8025400BF21
:1015000001EB40083CF82030A8F8D43224F8103021
:10151000401C0928F4DBA1F8E6624FEA1248A1F862
:10152000E852189AA1F8EA22179AA1F8EC22139A25
:10153000A1F8EE22A1F8F0A2129AA1F8F222A1F8E5
:10154000F482A1F8F6B2A1F8F892A1F8FA7216495D
:101550000091A1F1FE0003F00AFF009804F008FEDC
:101560001148002110F1CE0034F8112020F811208C
:10157000491C0929F8DB468285821899C18217998E
:10158000018313994183A0F81CA01299C183A0F88C
:101590002080A0F822B0A0F82490C7841BB0BDE83A
:1015A000F08F0000380000200A040020274930B5E1
:1015B00089B001F5247004F053FE254D00206C46DF
:1015C00005EB8001D1F8EC1144F82010401C0928EB
:1015D000F6DB204803F0DCFE95F8910348B900BF24
:1015E00005EB800254F82010C2F85812401C09285C
:1015F000F6DB1949002000BF01EB800254F82030CF
:10160000401C09289362F7DB5FF0000095F89023F7
:1016100054F82010B2B1002202EBC2020244401C76
:1016200005EB82020928C2F81012EFDB95F890034F
:1016300050B1002085F89003B5F87403A5F87A033B
:1016400009B030BD0122E7E70120F3E724020020C2
:1016500038000020AC030020D8040020F0B5574C1F
:101660008BB00122002001A9B4F844C3A4F826C31A
:10167000B4F84E33A4F82833B4F8363394F807544A
:10168000A4F82A33B4F8C032A4F82C3384F8912398
:1016900004EB8002D2F8582241F82020401C09288F
:1016A000F6DB002084F891034FF4A061B4F87403D2
:1016B00094F802644FF44472A4F82E03531CA4F867
:1016C0006A13971DA4F86C2340F2173E3C4A60460B
:1016D000A4F86E330723A4F8707302F110010F46CB
:1016E000A4F872E304F2363404F03AFC6083072372
:1016F000334A3946A083304604F032FC314FE08350
:10170000A7F17C03009703F12602911E881E03F0C7
:10171000FAFDA7F14000394604F0F6FC258407F1F4
:101720000805274BA5F18A02111D0095203301F110
:101730002A0003F0E8FDA5F14600294604F0E4FC88
:1017400008356684A5F190031F4A181F009503F120
:101750002E0103F0D8FDA5F14C00294604F0D4FC7D
:1017600005980835A084A5F1620306989A1EE084C6
:10177000911E0498208509986085881E009503F0C5
:10178000C2FDA5F15200294604F0BEFC07980835B9
:10179000A085A5F1620301989A1EE085911E02982A
:1017A000208603986086881E009503F0ACFDA5F1A5
:1017B0005800294604F0A8FC0BB0F0BD380000200A
:1017C00088620008E2030020766200082DE9FC5FD1
:1017D000AB4C01250022214601F2044394F81FC4BA
:1017E00001F2054BD1F8E801032701939B1C0093FC
:1017F000431E91F825A4022691F82194E907BCF133
:10180000070F5ED2DFE80CF05D04FE65FEC3FE004C
:10181000BAF1010FD4460BD0BCF1020F11D0BCF1CC
:10182000030F17D0BAF1040F4BD1012830D0C6E016
:1018300001287CD184F8272484F8252484F81F64A7
:10184000D4E0012873D184F8257400F0B1F9C4F80C
:10185000E801CBE001286AD184F8255400F0A8F90A
:10186000C4F8E80194F80704512809D294F8270431
:10187000012826D0502084F82754FFF7E7F8CCE061
:1018800094F82704234602281BD083F82764C4E079
:1018900084F8262484F8256400F08AF9794AC4F88B
:1018A000E801511E481E00F019F994F80B0484F861
:1018B000040494F8090484F8050494F80A0484F8EC
:1018C0000604BDE8FC9FC4F8E811FAE7C4F8E83163
:1018D000F7E7D4F8E0110420022922D00029F0D142
:1018E000BAF1040F84F81F5405D084F8250400F0E1
:1018F0005FF9C4F8E80194F81D04032838D00428DF
:1019000042D000BF94F807043C283DD894F8260440
:101910000128D6D03C2084F82654BDE8FC5FFFF7B0
:1019200095B894F8FE130529CBD2052200E046E0D5
:10193000B9F1040F84F81F2405D084F8210400F0C5
:1019400037F9C4F8E80194F81D04032894F8240436
:1019500009D00128B5D084F82454BDE8FC5F49487B
:10196000C01CFFF7E5B80228ABD084F8246409E076
:1019700094F807045028C5D894F826040328A0D06A
:1019800084F826745020C8E784F8266499E7B9F1F2
:10199000010FCC460BD0BCF1020F13D0BCF1030FEA
:1019A00031D0B9F1040F8CD101283FD007E00128D4
:1019B00005D184F82124062084F81F0416E088420B
:1019C00084DC80E70128FAD184F8232484F8217488
:1019D00000F0EEF8C4F8E80194F81D04032894F828
:1019E000220407D00128D1D084F82254BDE8FC5F3E
:1019F00000F0BCB80228C9D0002084F82264FFF7A8
:101A000025F8F3E739E00128D9D184F8222484F8B5
:101A1000215400F0CDF8C4F8E801631CDDE90012A0
:101A200002B05846BDE8F05F00F08CB884F824247A
:101A300084F8216400F0BCF8C4F8E80194F81D04AF
:101A400003280AD094F8230401289FD00D4884F875
:101A50002354801CFFF780F806E094F82304234603
:101A6000022893D083F82364231DDDE9001202B01D
:101A70005846BDE8F05F00F087B884F81F7420E78F
:101A8000380000204304002010B5002303700B70C1
:101A9000012414700421084C1A46204601F0EAF98A
:101AA00000222046082101F0E5F901222046BDE888
:101AB0001040022101F0DEB90010024008B568466E
:101AC00000F002F808BD00000021017002480A463B
:101AD000022101F0CFB900000010024010B500242F
:101AE000047001230B7013702246084C0421204619
:101AF00001F0C0F901222046082101F0BBF90122C2
:101B00002046BDE81040022101F0B4B900100240A7
:101B100010B50123037000240C70094C04211370CC
:101B20001A46204601F0A6F900222046082101F0BD
:101B3000A1F901222046BDE81040022101F09AB926
:101B4000001002402DE9F0411C4615469A1C0E4635
:101B5000591C07462046FFF797FFA0782870207889
:101B6000387060783070BDE8F0810000044810B52E
:101B7000FFF7AAFF034890F80C1480F8041410BD76
:101B800044040020380000202DE9F0411C46154691
:101B90009A1C0E46591C07462046FFF7B9FFA0784D
:101BA00028702078387060783070BDE8F0810000CF
:101BB0002949084691F8212490F81D04042A10D0E0
:101BC000022A16D0032A2FD0012A34D091F82504F6
:101BD000042837D0022838D0032839D0D1F8900013
:101BE0007047032802D0D1F8A4007047D1F8B400A0
:101BF000704703280FD091F8FE23012A0ED0164813
:101C0000022AD0F89800F3D0032A0AD0042AEFD190
:101C1000D1F8A0007047D1F8B0007047D1F8940017
:101C20007047D1F89C007047032802D0D1F8A80073
:101C30007047C86E7047032802D0D1F8AC007047D7
:101C4000086F7047D1F888007047D1F8840070475A
:101C5000D1F88C0070470000380000207047000069
:101C6000F8B50025009590F83C20012A18D00122F3
:101C700080F83C200A6807234E4C0668092A1AD9C6
:101C80000A3A02EB4207F268BB409A43F2600E68E0
:101C90000268A64206D10B7AD66846EA036308E0DA
:101CA0000220F8BD0A3E8B68D76806EB4606B340B3
:101CB0003B43D3600EE002EB42073269BB409A43DC
:101CC000326103680E788A681F6906EB4606B240E7
:101CD0003A431A614A681F23072A13D20668521E24
:101CE00002EB8207726BBB409A43726303680E7902
:101CF0000A88761E5F6B92B206EB8606B2403A43C4
:101D00005A6327E006680D2A12D2D21F02EB82071F
:101D1000326BBB409A43326302680E790B88F61F20
:101D2000176B9BB206EB8606B3403B43136311E08F
:101D30000D3A02EB8207F26ABB409A43F2620268F4
:101D40000E790B880D3ED76A9BB206EB8606B34030
:101D50003B43D362184A0368934208D10B68122BA5
:101D600005D1D2F8043343F48003C2F80433036886
:101D700093421AD10B68A34201D0112B15D1D2F88E
:101D8000043343F40003C2F804330968A1420CD1C0
:101D90000A490B4A0968B1FBF2F101EB81014900E4
:101DA00000E0491E00910029FBD180F83C50002042
:101DB000F8BD000012000010002001403400002097
:101DC00040420F0000680349884201D1FFF7EEBB93
:101DD00070470000002001407047704770B504460E
:101DE000006801684268C1F34001C2F3401251B378
:101DF0004AB3216CC90603D4216C41F400712164FB
:101E0000816811F0405F17D1A169A9B9C16A11F4C5
:101E1000700F02D0816849050ED4416821F020017D
:101E20004160206C20F480702064206CC00403D4D6
:101E3000206C40F0010020642046FFF7C3FF2168BA
:101E40006FF012000860206801684268C1F38001E9
:101E5000C2F3C01289B382B3216CC90603D4216CCA
:101E600041F400512164816811F4401F1ED1816B3F
:101E700011F4401F02D08168490517D44168490513
:101E800014D4816811F0405F10D1A16971B9416823
:101E900021F080014160206C20F480502064206C8F
:101EA000C00503D4206C40F0010020642046FFF7F9
:101EB000D5FE21686FF00C00086020680168436857
:101EC00011F0010FC3F380110ED069B10068C00793
:101ED0000AD0206C40F480302064204600F046F8A0
:101EE00021686FF001000860206801684268C1F352
:101EF00040110029C2F380620DD0002A0BD0616C22
:101F00006FF0200541F00201616405602046FFF793
:101F100064FF2068056070BD70B504004FF00005D7
:101F200003D0206C002610B107E0012070BD2046D0
:101F300000F01EF8666484F83C60206CC00610D483
:101F4000206C20F4885040F0020020642046FEF708
:101F500067FC6664206C20F0020040F00100206401
:101F600000E0012584F83C60284670BD7047000001
:101F7000F0B587B0064614216846FEF7A3F930494C
:101F80003068884259D12F48016841F4807101605E
:101F900000682C4900F4807005901439086840F0FE
:101FA00004000860086800F004000590086840F02C
:101FB00001000860086800F001000590086840F022
:101FC00002000860086803240025694600F002004A
:101FD000059013208DE831001B4800F053FEF020DF
:101FE00069468DE83100194800F04CFE00946946BE
:101FF0001748CDE9014500F045FE164C164801157D
:10200000C4E900058715A5600B01C4E903518214DA
:102010002046C4E907756562C4E9052300F070FD38
:1020200008B1FEF7C5FD0022B46312201146A66375
:1020300001F0BEF8122001F0ADF807B0F0BD0000CD
:1020400000200140443802400008024000000240E5
:10205000000402409805002010640240F8B50D46C7
:1020600004460021009190F83C00012807D001208F
:1020700084F83C0020688368DB0702D011E002206E
:10208000F8BD8668364B46F0010686603548006824
:10209000B0FBF3F000EB400000E0401E0090002891
:1020A000FBD120688368DB0758D0236C40F20166BF
:1020B000B34343F4807323644068400505D5206C26
:1020C00020F4005040F480502064206CC00404D5FB
:1020D000606C20F00600606400E061646FF0220034
:1020E00084F83C10A36B2049D963A36B1F49196482
:1020F000A36B1F49D964216808602068416841F0DA
:10210000806141602068816841F48071816021684C
:102110001346A06B2A464C3100F064FD1549D1F8F6
:102120000403C006206811D0884207D1826812F0EB
:10213000405F03D1826842F080428260D1F804039C
:10214000C0060BD40C492068884207D1816811F081
:10215000405F03D1816841F0804181600020F8BD7B
:1021600040420F00340000208507000809080008DD
:10217000F3070008002001400022014090F82020D1
:10218000012A07D0022A05D0416A41F48021416228
:1021900001207047006842690A434261002070478D
:1021A000F0B590F820500468A468012D05D0022DE8
:1021B00003D0416A41F480215AE014F0406F01D10C
:1021C000E50052D5C4F30164022C03D9416A41F4FD
:1021D00000014DE001264FF4C075A6401E608B68DB
:1021E000ABB1CE684F68D0F800C0334305EB04169E
:1021F00043EAC7034CF8063007684FF4C27303EB99
:1022000004130E69FE50097D012909D00DE00E88E6
:10221000CB68076843EA465305EB0416BB51EBE76E
:102220000168CE5846F48076CE50D2F805304FF48F
:10223000C67C11790CEB041C06684FF4C47741EAA4
:10224000032107EB041346F80C10167805EB041174
:10225000D2F80120076846EA0222FA500068425884
:1022600042F0010242500020F0BD416A41F40011E9
:1022700041620120F0BD000030B590F820300268C6
:10228000012B07D0022B05D0416A41F48021416225
:10229000012030BD3E4C3F48A24200D00246D2F859
:1022A0000032824243F00103C2F800320CD1D2F86E
:1022B000000220F47C50C2F80002D2F800024B6AFF
:1022C00040EA0320C2F800020C7D0120D2F81C3243
:1022D00004F01F04A0408343C2F81C32CB69B3B999
:1022E000D2F80C328343C2F80C328C894B684D69AA
:1022F00064F31F4302EBC504C4F840320C890B6839
:102300004D6964F31F4302EBC504C4F84432CB6942
:10231000012B16D1D2F80C320343C2F80C320C88D0
:102320004B684D6964F31F4302EBC504C4F84032A7
:102330000C89CB684D6964F31F4302EBC504C4F8F4
:1023400044328B69002BD2F804320FD053EA0003D9
:10235000C2F804320B69002BD2F8143208D00343C0
:10236000C2F81432096A012904D008E08343EFE778
:102370008343F5E7D2F81C120143C2F81C12D2F8CD
:10238000000220F00100C2F80002002030BD000071
:10239000003400400064004070470000F0B590F841
:1023A0002040012C05D0022C03D0416A41F4802149
:1023B00066E0046800295ED02469A4075DD0056842
:1023C0004FF4D87404EB01142D5915F004059560F1
:1023D00005682D5957D0ED08C2F8045007684FF42E
:1023E000DA754FF4DC7C4FF4DE763C59002905EBBE
:1023F0000115C4F34007D7600CEB011406EB011183
:102400000668765906F00F06166106687659C6F317
:1024100007269661066875594FEA154555610268A9
:1024200012591A70026812594FEA12225A70026841
:1024300012594FEA12429A70026812594FEA126218
:10244000DA70026852581A71026852584FEA122222
:102450005A71026852584FEA12429A7102685158F2
:102460004FEA1161D971006810D0016941F0200173
:1024700001610020F0BDE4689FE7416A41F400116A
:1024800041620120F0BD6D0D1560A7E7C16841F004
:102490002001C160EDE72DE9F05F054600680024EA
:1024A0004669D0F804908768D0F80CB0D0F810A036
:1024B000F207D0F8188048D0F90714D001218160C4
:1024C000BA0703D5284600F032FA0CE0780702D5A7
:1024D0004FF4006407E0380702D54FF4805402E05F
:1024E000284600F023FAF80516D52868BA054FF4F7
:1024F0008071816003D5284600F01BFA0CE0780556
:1025000002D544F4005407E0380502D544F4804471
:1025100002E0284600F00CFAF80316D52868BA0342
:102520004FF48031816003D5284600F004FA0CE0B6
:10253000780302D544F4004407E0380302D544F49C
:10254000803402E0284600F0F5F9300707D55FEA4D
:10255000CB6004D52968102044F40074C86070076B
:102560004FF0080707D55FEA0B7004D52868C760ED
:10257000284600F075F9B00706D52868C0688007BE
:1025800002D0284600F06EF9700607D55FEACA60EF
:1025900004D52968102044F480640861B00607D58A
:1025A0005FEA0A7004D528680761284600F08EF9B2
:1025B000F00606D528680069800702D0284600F09A
:1025C00086F9B00308D55FEAC96005D529681020EF
:1025D0004860284600F07CF9F00307D55FEA0970EF
:1025E00004D528684760284600F0A6F9300446D58F
:1025F0005FEA497040D5F00504D55FEAC87001D0A4
:1026000044F00104B00504D55FEA887001D544F0B8
:102610000204700504D55FEA487001D544F0040453
:10262000300529D518F0700F26D008F0700040282A
:1026300015D006DC102809D020280AD0302816D161
:102640000AE050280ED0602811D10EE044F00804B2
:102650000DE044F010040AE044F0200407E044F0E8
:10266000400404E044F0800401E044F480742868ED
:10267000816921F070018161296804204860002C83
:1026800005D0686A204368622846FFF785FEBDE8EA
:10269000F09F70B5040003D094F8200010B104E05E
:1026A000012070BD204600F081F82068016821F00B
:1026B0000201016000F0E4FB0526054604E000F09D
:1026C000DFFB401B0A2811D8206840688007F6D439
:1026D0002068016841F00101016000F0D1FB05466E
:1026E0000BE000F0CDFB401B0A2806D9606A40F4DD
:1026F0000030606284F82060D2E720684068C0073C
:10270000EFD0207E0128206801683DD021F08001B3
:102710000160607E01282068016838D021F0400106
:102720000160A07E01282068016833D021F02001DB
:102730000160E07E0128206801682ED041F0100180
:102740000160207F01282068016829D021F008015C
:102750000160607F01282068016824D021F0040115
:102760000160D4E90110D4E903326569491E1843B8
:1027700023682A43104300220843D8610121626282
:1027800084F82010104670BD41F08001C0E741F090
:102790004001C5E741F02001CAE721F01001CFE771
:1027A00041F00801D4E741F00401D9E710B586B043
:1027B000044614216846FDF785FD264920688842B5
:1027C00046D12548016841F400510160016801F4D7
:1027D00000510591016841F080610160016801F0DC
:1027E00080610591016841F000710160006800F0AE
:1027F0000070059018481038016841F0020101602E
:1028000000680221002200F0020005900323092441
:102810004FF440508DE81F001048694600F032FA2E
:1028200000223F20114600F0C3FC3F2000F0B2FC24
:1028300000224020114600F0BBFC402000F0AAFC22
:1028400000224120114600F0B3FC412000F0A2FC20
:1028500006B010BD0068004040380240000402404D
:102860007047000010B572B6144B0021144A02F1F3
:102870003400FFF793FD124812490088020A0A76D5
:102880000E4A4876022014180B18401C14F8024C0B
:102890000A281C76F7DB91ED040BB0EE001BB4EEBA
:1028A000410BF1EE10FA01D1FEF79CFB06484FF404
:1028B000806100F0D8FA62B610BD00000000002070
:1028C0002006002090040020000C02407047704752
:1028D0007047000070B5044690F82000012804D02D
:1028E000606A40F40020606218E0022084F8200052
:1028F0002068016821F00101016000F0C1FA05467D
:102900000EE000BF00F0BCFA401B0A2808D9616A3B
:10291000052041F40031616284F82000012070BD7F
:1029200020684068C007EDD1606270BD7047704795
:102930007047704770477047704790F8351002290C
:1029400003D08021416501207047052180F83510B2
:102950000068016821F0010101600020704700005B
:102960002DE9F84304464FF00009644B0820CDF8E8
:1029700000904FF41652A56D94F85C101B682E68F9
:10298000B3FBF2F700FA01F131420FD021680A6877
:1029900052070BD50A6822F004020A6094F85C1012
:1029A0008840A860606D40F00100606594F85C109C
:1029B0004FF0010808FA01F0304208D02168496957
:1029C000090604D5A860606D40F00200606594F8C7
:1029D0005C1004208840304208D0216809688907CB
:1029E00004D5A860606D40F00400606594F85C1048
:1029F00010208840304218D021680968090714D592
:102A0000A86020680168490304D50068000308D560
:102A1000A16C07E00168C90503D4016821F0080131
:102A20000160216C09B12046884794F85C10202091
:102A30008840304231D021680968C9062DD5A86088
:102A400094F8350005282068016806D0490347D569
:102A5000006800031DD4616C1CE021F016010160C8
:102A60002068416921F080014161206C08B9A06CA7
:102A700020B12068016821F00801016094F85C3001
:102A80003F229A40AA6084F8349084F83580216D02
:102A90001FE0E16B09B120468847606D00282BD00C
:102AA000606DC00714D0052084F8350020680168E7
:102AB00021F0010101600098401C0090B84203D849
:102AC00020680068C007F6D184F8349084F8358017
:102AD000E16C002910D001B02046BDE8F043084762
:102AE0000168C905D5D4036823F01003036084F896
:102AF000349084F83580CCE7BDE8F88334000020BA
:102B00002DE9F047044600F0BBF9054664B14FF0EB
:102B1000000984F83490022184F835102068016897
:102B200021F0010101600EE00120BDE8F08700BF47
:102B300000F0A6F9401B052805D920216165032076
:102B400084F83500F1E720680068C007F0D1D4E9C7
:102B50000020D4E90251D4E9043C284304F11805CB
:102B600019430843116895E8E00140EA0C001C4B4A
:102B70002843194040EA060040EA0700B8F1040F74
:102B800040EA010003D1D4E90B1319430843106054
:102B900020680126656A4069042D20F0070045EA97
:102BA00000050CD1D4E90A01054341B12046FDF7E7
:102BB0007FFF20B14020606584F83560B4E720686D
:102BC00045612046FDF760FF94F85C303F229A4053
:102BD0008260C4F8549084F835600020A5E70000B6
:102BE0003F8010E02DE9F041044690F834000025C4
:102BF0000128A66D0ED094F835C00127002084F876
:102C00003470BCF1010F07D0022584F83400284647
:102C1000BDE8F0810220FBE7022784F8357060658B
:102C20002046FDF76FFF94F85C103F208840B060AD
:102C30002068016841F0160101602068416941F097
:102C400080014161206C20B12068016841F00801D9
:102C500001602068016841F001010160D7E70000D0
:102C600070B5044600F00CF90546601C02D004481B
:102C70000078044400F004F9401BA042FAD370BD70
:102C8000280000202DE9F84FDFF89CE100224FF0EA
:102C900001084FF0030B4FF00F0A00BF0B6808FA52
:102CA00002F42340A34271D14D68022D01D0122DB0
:102CB0000FD1D5080E69570700EB8505A9462D6A87
:102CC000FF0E0AFA07FCBE4025EA0C052E43C9F8A0
:102CD00020600F79550006680BFA05FC07F0030722
:102CE00026EA0C06AF40374307604E68012E05D038
:102CF000022E03D0112E01D0122E0ED18668CF687D
:102D000026EA0C06AF403743876046680F79A64332
:102D1000C7F30017974037434760C4688E6824EABA
:102D20000C04AE402643C6604C68E40075D53F4CA9
:102D3000256845F480452560246822F00306950740
:102D400004F4804400943A4C2D0F2644D6F80848E9
:102D5000DFF8E0C00AFA05F7604524EA070401D16C
:102D600000272EE0344FB84201D1012729E0334F2C
:102D7000B84201D1022724E0314FB84201D10327E4
:102D80001FE0304FB84202D104271AE045E02E4F31
:102D9000B84201D1052714E02C4FB84201D10627D3
:102DA0000FE02B4FB84201D107270AE0294FB84264
:102DB00001D1082705E0284FB84201D1092700E0DA
:102DC0000A27AF4027437546C6F808784E68DEF8F4
:102DD0000040F60324EA030400D51C43124E2C6085
:102DE000361D4D683468AD0324EA030400D51C4346
:102DF0000D4F346008374D683C68ED0224EA030447
:102E000000D51C43084D3C600C354E682C68B6025A
:102E100024EA030400D51C432C60521C102AFFF442
:102E20003DAFBDE8F88F0000003C0140443802404F
:102E3000003001400000024000040240000802404F
:102E4000000C024000100240001402400018024032
:102E5000001C02400020024000240240006908409B
:102E600000D001207047426931EA020200D1090412
:102E7000816170470AB1816170470904FBE7000076
:102E800001488068704700002800002030B590F8A5
:102E90004120202A24D190F84020012A20D001236B
:102EA00080F84030242280F841202023002402684A
:102EB000156825F0010515600268156825F4805530
:102EC0001560026815680D43156001680A6842F0D4
:102ED00001020A6080F8413080F84040002030BD97
:102EE000022030BD30B590F84120202A22D190F840
:102EF0004020012A1ED0012380F84030242280F88F
:102F00004120202400250268136823F00103136088
:102F10000268136823F4706343EA012111600168B9
:102F20000A6842F001020A6080F8414080F840508F
:102F3000002030BD022030BD7047704730B40368B8
:102F40009A691968D243D40509D4CC43240606D41F
:102F5000456C4FF4807445F001054564DC61530510
:102F60000AD4CB431B0607D4446C4FF4806344F06F
:102F7000080444640468E36192050AD4C94309065D
:102F800007D4426C4FF4007142F0020242640268BE
:102F9000D161416C11F00B0F02D030BC01F0AABC22
:102FA00030BC70470268436B91691268002B00D0F7
:102FB000184770477047000070B5040004D094F8BB
:102FC0004100002510B106E0012070BD204684F8C4
:102FD000405000F04FF8242084F841002068016838
:102FE00021F001010160D4E9001020F07060086157
:102FF0002068816821F400418160E068216801282F
:10300000A06806D040F404408860E068022803D03D
:1030100006E040F40040F7E721684FF400604860A4
:1030200020212068114A4368134343602068C26826
:1030300022F40042C26054F8106B0DCC104340EAF9
:103040000320F06054F81C3CD4E9000210431860DF
:1030500054F81C0D026842F001020260656484F8B5
:103060004110256384F84250002070BD00800002AA
:103070007047000010B586B0044614216846FDF77D
:1030800021F91A49206888422DD11948016841F078
:103090000201016000681221012200F00200059087
:1030A000C020032304248DE81F0012486946FFF75F
:1030B000E9FD0F481030016841F40011016000681B
:1030C0000022114600F4001005901F2000F070F857
:1030D0001F2000F05FF800222020114600F068F861
:1030E000202000F057F806B010BD0000005400404A
:1030F000303802400004024070477047024881683F
:10310000027811448160704728000020032010B528
:1031100000F06EF8002000F005F800F023F8002021
:1031200010BD000070B50D4D04464FF47A700C4A86
:1031300029781268B0FBF1F0B2FBF0F000F0C2FDAC
:1031400048B9102C07D200222146501E00F030F85A
:1031500000206C6070BD012070BD000028000020C0
:10316000340000200A4808B5016841F08051016030
:10317000006800F0805000900548001D016841F48F
:1031800080410160006800F48040009008BD0000AC
:1031900040380240002809DB410900F01F02890085
:1031A000012001F1E0219040C1F8000170470000CA
:1031B0000E4BF0B41B680D46C3F30223C3F10706A0
:1031C000042E00D90426191D072901D2002300E08E
:1031D000DB1E012404FA06F19C40491E2940641EAE
:1031E000994014402143F0BC02F0C6BD0CED00E054
:1031F000064900F0070210B54FF6FF040868044BBB
:10320000204040EA02201843086010BD0CED00E0A9
:103210000000FA051848F8B5016841F080510160D6
:103220000068164C00F080500090206840F4803018
:103230002060FFF725FE4FF47A76054605E000BFD3
:10324000FFF71EFE401BB0420FD86068C003F7D5E1
:10325000206840F400302060FFF712FE054606E0CB
:10326000FFF70EFE401BB04201D90320F8BD606895
:103270008003F5D50020F8BD4038024000700040C2
:103280002DE9F84F04460078DFF824944FF000064B
:103290003746C0070ED0D9F8001021F40001C9F854
:1032A0000010D9F80010626B1143C9F80010606B70
:1032B00000B90126FE4D2068843500030ED5E16B70
:1032C000286820F4401008432860E06BB0F5801FA8
:1032D00001D010B102E0012600E0012720684FF480
:1032E000800BC0020CD5216C286820F440000843F4
:1032F0002860206C584501D1012601E000B9012762
:103300002068C10100D50126800666D5E84838301E
:10331000016841F0805101600068DFF898A300F077
:1033200080500090DAF8001041F48071CAF8001063
:10333000FFF7A6FD804605E0FFF7A2FDA0EB080021
:1033400064287DD8DAF80000C005F5D5DFF8608381
:1033500008F16808D8F8000010F440702AD0218ED7
:1033600001F44071814225D0D8F80010D8F800202F
:1033700021F4407142F48032C8F80020D8F80020CF
:1033800022F48032C8F80020C8F80010D8F80000F5
:10339000C0070FD0FFF774FD824607E0FFF770FD0E
:1033A000A0EB0A0141F288308142CAD8D8F8000067
:1033B0008007F3D5206BC0F3012103297ED0D9F813
:1033C000001021F4F811C9F80010228ED8F800106E
:1033D000C2F30B021143C8F800102078C00607D5CD
:1033E000286820F0807028602868A16B0843286056
:1033F0002188AF488830490405D5626E016821F400
:103400004031114301602188090405D5A26E01688D
:1034100021F44021114301602168C90305D5E26E02
:10342000016821F44011114301602168890305D529
:10343000226F016821F4400111430160217800E00E
:1034400034E1490605D5626C016821F0030111439E
:1034500001602178090605D5A26C016821F00C01F4
:10346000114301602188C90505D5E26C016821F08E
:103470003001114301602188890505D5226D01685D
:1034800021F0C001114301602188490505D5626D15
:10349000016821F44071114301602188090505D5B7
:1034A000A26D016821F44061114301602188C904C3
:1034B00007D5E26D016821F4405100E05FE011435F
:1034C00001602188890405D5226E016821F44041FC
:1034D000114301602168490205D5A26F016821F0FE
:1034E00080611143016021684FF0006A890209D5AB
:1034F000E26F016821F0006111430160E16F514505
:1035000000D1012721680A0700D50127490305D505
:10351000626F016821F04071114301602168090266
:1035200006D5D4F88020016821F080511143016054
:103530002168490106D5D4F88420016821F00051A2
:10354000114301602068000106D5D4F8881028686E
:1035500020F00070084328602068C00006D5D4F829
:103560008C10286820F0806008432860DFF84891BC
:10357000012E0ED02068B0F1007F0AD08FE04F4AB4
:10358000D9F80030104023F4F8120243C9F80020A3
:103590001BE7D9F800004E4620F08060C9F8000013
:1035A000FFF76EFC804605E0FFF76AFCA0EB080021
:1035B00064287BD830680001F6D421783C487C3000
:1035C000C90712D0616B81B9237A62680168D0F8AB
:1035D00000C09201C1F3014142EA0142CCF3036110
:1035E00042EA016141EA0371016021680A0303D5DF
:1035F000E26BB2F5801F04D0C9021AD5216C59457F
:1036000017D16368016894F80CC002689B01C1F38C
:10361000014143EA0141C2F3027241EA0C6141EA0D
:10362000027101602968626A21F01F01521E114374
:1036300029602168C90110D5238A62680168D0F821
:1036400000C09201C1F3036142EA034242EA01620F
:10365000CCF3027142EA01710160216889010CD545
:103660006168228A237B94F808C0890141EA0241FB
:1036700041EA036141EA0C7101603168B04641F0F2
:1036800080613160FFF7FCFB064604E0FFF7F8FBC2
:10369000801B64280AD8D8F800000001F6D5E7B3EB
:1036A000D9F800004E4620F0805009E07BE0000091
:1036B000083802400070004000380240FFFCFF0F55
:1036C000C9F80000FFF7DCFB074604E0FFF7D8FB72
:1036D000C01B642867D83068C0438000F6D52168D5
:1036E00035480A0301D5E26B1AB1C9021DD5216C18
:1036F000D9B963690168277E02689B01C1F3014162
:1037000043EA0143C2F3027143EA076242EA0171EC
:10371000016029686FF0FF0300E04BE0A26A21F42A
:10372000F85103EB0222114329602168890212D566
:10373000E16F51450FD1238C6269016807689201DE
:10374000C1F3036142EA034242EA0162C7F3027134
:1037500042EA017101602178090716D561690268A2
:10376000D0F800C08B01277FC2F30362CCF3014184
:1037700043EA014141EA026141EA077101602868B8
:10378000E16A20F4403008432860306840F08050FF
:103790003060FFF775FB044608E000BFFFF770FBE1
:1037A000001B642802D90320BDE8F88F3068C043AD
:1037B0008000F3D40020F7E7883802402DE9F04775
:1037C00005000F4663D0444E306800F00F00B84249
:1037D00009D2306820F00F0038433060306800F0C4
:1037E0000F00B84253D128683C4C810712D54007DE
:1037F00003D5206840F4E05020602878000703D506
:10380000206840F460402060A968206820F0F00043
:10381000084320602878C0072AD0304968680839F2
:10382000012810D00968022810D0890700292EDA53
:10383000216821F0030101432160FFF721FB80464D
:1038400041F288390DE009688903EFE78901EDE766
:10385000FFF716FBA0EB0801494502D90320BDE89C
:10386000F0876868216801F00C01B1EB800FEFD19F
:10387000306800F00F00B8420BD9306820F00F001C
:1038800038433060306800F00F00B84201D00120AA
:10389000E5E72878400705D5E968206820F4E0507E
:1038A000084320602878000706D52869216821F49C
:1038B000604141EAC000206000F036F82168084A03
:1038C000C1F30311515CC840064908600020FFF7AE
:1038D00029FC0020C3E70000003C024008380240F9
:1038E000B2620008340000200449054809680068F5
:1038F000044AC1F38221515CC84070470838024035
:1039000034000020C26200080449054809680068C4
:10391000044AC1F34231515CC84070470838024044
:1039200034000020C2620008154910B51548096826
:1039300011F00C0213D04110042A0FD0082A0ED126
:103940000F4C241F2268236802F03F025B0207D558
:103950002068C0F38810A0FB010106E0084610BDF6
:103960002168C1F38811A1FB00010023FCF760FC72
:103970002168C1F30141491C4900B0FBF1F010BDC1
:10398000083802400024F4002DE9F84F05004FF0FC
:1039900000076ED02878DFF82093A9F1040AC00749
:1039A000AAF104044CD0D9F800104846C1F38101B3
:1039B000012908D00068C0F3810002280AD1DAF892
:1039C0000000400206D52068800339D568680028C9
:1039D000DFD035E06868B0F5803F0BD010B1B0F5AE
:1039E000A02F11D0206820F480302060206820F4BF
:1039F000802002E0206840F480302060686890B148
:103A0000FFF73EFA06460AE0206840F48020206076
:103A1000F0E700BFFFF734FA801B642872D82068F3
:103A20008003F7D50CE0FFF72BFA064605E000BF50
:103A3000FFF726FA801B6428F0D820688003F7D4AB
:103A40002878800742D5D9F80010484611F00C0FAD
:103A500008D00068C0F3810002280BD1DAF800001A
:103A6000400207D42068800718D5E868012800D1F3
:103A700014E01EE1E8680028206817D040F001003B
:103A80002060FFF7FDF9064605E000BFFFF7F8F9F3
:103A9000801B0228C2D820688007F7D528692168D2
:103AA00021F0F80141EAC00020600FE020F00100A1
:103AB0002060FFF7E5F9064605E000BFFFF7E0F9F3
:103AC000801B02281ED820688007F7D428780007BA
:103AD00029D5794869696C3000298046016812D07F
:103AE00041F001010160FFF7CBF9064605E000BF98
:103AF000FFF7C6F9801B022804D8D8F80000800719
:103B0000F6D510E089E021F001010160FFF7B8F976
:103B1000064604E0FFF7B4F9801B02287DD8D8F8E8
:103B200000008007F6D4287840076BD5DFF888813D
:103B300008F13808D8F80000C0000BD4D8F80010FD
:103B400041F08051C8F80010D8F80000012700F0BB
:103B50008050009059480168C90512D40168834615
:103B600041F480710160FFF78BF9064605E000BF64
:103B7000FFF786F9801B64284FD8DBF80000C005EA
:103B8000F6D54D4EA868683601280AD008B1052838
:103B900011D0306820F001003060306820F004005F
:103BA00002E0306840F001003060A868A0B1FFF783
:103BB00067F983460CE0306840F004003060F0E7BD
:103BC000FFF75EF9A0EB0B0141F28830814268D823
:103BD00030688007F4D50EE0FFF752F9834607E01E
:103BE000FFF74EF9A0EB0B0141F28830814258D823
:103BF00030688007F4D42FB1D8F8001021F080513C
:103C0000C8F80010A869E0B3D9F80010C1F3810129
:103C100002294ED00228206800E042E020F08070A7
:103C2000206003D0FFF72CF905463DE0FFF728F9A7
:103C3000064604E0FFF724F9801B022831D82068EB
:103C40008001F7D4D5E90921DFF874C0D5E907066A
:103C500095F830304F0895F82C1030430CEB0745A1
:103C600045EA8212104340EA016040EA0370CAF854
:103C70000000206840F080702060FFF701F90546E1
:103C800005E014E0FFF7FCF8401B022809D8206883
:103C90008001F7D50BE000BFFFF7F2F8401B0228C8
:103CA00002D90320BDE8F88F20688001F4D40020F9
:103CB000F8E70120F6E700000838024000700040F5
:103CC0000000FFFF401EB0F1807F10B501D301203E
:103CD00010BD4FF0E02460610F21601702F04CF836
:103CE0000020A0610721216110BD70477047704717
:103CF0002DE9F04390F83C20012A42D0012280F8BF
:103D00003C2051F80C4BDFF880804FF0000991E81F
:103D1000680051E9022723F44073B1F80CC03B431B
:103D2000CF6923F480631343026823F400632343C1
:103D300023F4805343EA050323F4005343EA0603C4
:103D400023F4804343EA07030C3923F470234245EC
:103D500043EA0C4302D00D4CA2420CD18D8C23F4CB
:103D60007006D1E9073446EA055121F08071194304
:103D700021F000732343536480F83C900020BDE899
:103D8000F0830220FBE70000000001400004014036
:103D900070B590F83C20012A24D0134C012580F8FE
:103DA0003C50022280F83D2002685368A242966887
:103DB00002D00E4CA24203D14C6823F4700323437B
:103DC0000C6823F0700389681C435460002326F0BC
:103DD000800602683143916080F83D5080F83C30A5
:103DE000184670BD022070BD000001400004014073
:103DF00010B5040003D094F83D0010B107E0012095
:103E000010BD002084F83C00204600F00DF8022090
:103E100084F83D002068211D01F052FB012084F848
:103E20003D00002010BD000008B500680B49884225
:103E300012D10B48016841F01001016000680022B6
:103E4000114600F0100000903620FFF7B1F9BDE8F0
:103E500008403620FFF79EB908BD00000010004062
:103E6000403802400168094ACB6843F00103CB6047
:103E7000016888681040062806D0B0F5803F03D05E
:103E8000086840F00100086000207047070001004A
:103E9000704770B50446006800250169C943890769
:103EA00015D4C168C943890711D4EA1E02610121F2
:103EB0002177206880698007204602D0FFF7E8FF5D
:103EC00004E000F020F9204600F004FA257720688D
:103ED0000169C943490717D4C168C943490713D4C5
:103EE00002216FF00402026121772068806910F4DA
:103EF000407F204602D0FFF7CBFF04E000F003F93B
:103F0000204600F0E7F9257720680169C9430907D1
:103F100016D4C168C943090712D404216FF00802FE
:103F2000026121772068C0698007204602D0FFF730
:103F3000AFFF04E000F0E7F8204600F0CBF925776A
:103F400020680169C943C90617D4C168C943C906B5
:103F500013D408216FF01002026121772068C06934
:103F600010F4407F204602D0FFF792FF04E000F0FB
:103F7000CAF8204600F0AEF9257720680169C943E8
:103F8000C90708D1C168C943C90704D1891E0161A5
:103F9000204600F0C7F920680169C943090609D421
:103FA000C168C943090605D46FF08001016120464C
:103FB000FFF79CFE20680169C943C90509D4C1689F
:103FC000C943090605D46FF4807101612046FFF7EB
:103FD0008CFE20680169C943490609D4C168C943F8
:103FE000490605D46FF040010161204600F0CCF98C
:103FF00020680169C94389060BD4C168C943890691
:1040000007D46FF0200101612046BDE87040FFF742
:104010006EBE70BD30B587B0044614216846FCF70B
:1040200051F924680021184D0220164A0123AC42A0
:1040300011D1146844F010041460126802F01002E8
:1040400005924FF4C4420092CDE90101CDE903137A
:104050000E48694612E0B4F1804F11D1146844F063
:1040600001041460126802F0010205920A22009213
:10407000CDE90101CDE9031305486946FEF702FECB
:1040800007B030BD3038024000000140001002404F
:104090000000024070B5044690F83C0001280ED0A4
:1040A000012584F83C50022084F83D000C2A19D0E8
:1040B00007DC5AB1042A0DD0082A1ED10EE00220D6
:1040C00070BD102A12D0142A17D113E0206801F015
:1040D0006BFA12E0206801F0A1FA0EE0206801F00E
:1040E000D9FA0AE0206801F011FB06E0206801F02F
:1040F00039FB02E0206801F061FB002084F83D50AC
:1041000084F83C0070BD704710B5040003D094F8EB
:104110003D0010B107E0012010BD002084F83C00F4
:10412000204600F00CF8022084F83D002068211D94
:1041300001F0C6F9012084F83D00002010BD704751
:1041400070B5044690F83C000D4601280ED00126BB
:1041500084F83C60022084F83D000C2A45D007DC3E
:104160005AB1042A1BD0082A78D12CE0022070BD55
:10417000102A4ED0142A71D15DE0206801F014FAA3
:104180002068816941F0080181612068816921F01E
:104190000401816120682A698169114311E0206866
:1041A00001F03CFA2068816941F400618161206876
:1041B000816921F48061816120682969826942EA0C
:1041C000012181614AE0206801F064FA2068C16938
:1041D00041F00801C1612068C16921F00401C16199
:1041E00020682A69C169114311E0206801F08EFA44
:1041F0002068C16941F40061C1612068C16921F48E
:104200008061C16120682969C26942EA0121C161F6
:1042100024E0206801F0A6FA2068416D41F0080111
:1042200041652068416D21F00401416520682A69DB
:10423000416D114311E0206801F0C0FA2068416D22
:1042400041F4006141652068416D21F48061416560
:1042500020682969426D42EA01214165002084F805
:104260003D6084F83C0070BD10B5040003D094F8A4
:104270003D0010B107E0012010BD002084F83C0093
:10428000204600F00DF8022084F83D002068211D32
:1042900001F016F9012084F83D00002010BD000057
:1042A00008B500680949884201D1094804E0B0F125
:1042B000804F09D10648001F016841F001010160EB
:1042C000006800F00100009008BD000000000140FF
:1042D000443802407047000010B5012204460068CF
:1042E00001F054F90C492068884202D00B498842F9
:1042F00003D1416C41F4004141642068084A81685F
:104300001140062906D0B1F5803F03D0016841F085
:1043100001010160002010BD0000014000040140C7
:104320000700010070B572B600681449884222D1B6
:10433000134C2068401C20606068401C6060A068CE
:10434000401CA060FCF776FC20680025322802DBC8
:10435000FDF796F825606068B0F5FA7F05DB09483F
:104360004FF40071FEF77FFD6560A068322802DB24
:10437000FDF774F9A56062B670BD00000010004042
:1043800010000020000C0240704770472DE9F041FA
:10439000026804460025D0691168936810F00F0F79
:1043A0005BD003F0010601F49077374369D0C7076B
:1043B00007D0CF0505D501271762E26F42F0010251
:1043C000E267820708D5DA0706D0276802223A6238
:1043D000E26F42F00402E267420708D5DA0706D02E
:1043E000236804221A62E26F42F00202E2670207C7
:1043F0000AD501F02002324306D0236808221A624F
:10440000E26F42F00802E267E26F002A32D08006D3
:1044100005D5880603D5216E09B120468847216855
:10442000E06F8968490601D4000725D5204601F0D0
:10443000C2FA20688168490619D5816821F04001D7
:104440008160E06E98B11A490165E06EFEF775FA79
:1044500000280FD0E06E016D06E0830611D58B06B3
:104460000FD5216E12E02046BDE8F04108472046F6
:10447000FFF78BFFBDE8F0812046FFF786FFE56779
:10448000F8E7030605D50B0603D5616E0029EAD1CE
:10449000F0E74006EED54806ECD51368202120460B
:1044A00023F0400313606167656600F07FF9E1E780
:1044B0002559000810B5040002D0606F10B107E064
:1044C000012010BD002084F87000204600F026F87E
:1044D000242060672068016821F001010160204606
:1044E00001F0DCFA0128ECD0606A10B1204601F03E
:1044F00097F92068416821F4904141602068816803
:1045000021F02A0181602068016841F00101016009
:104510002046BDE8104001F0E7B9000070B586B054
:10452000064614216846FBF7CDFE224930688842D2
:104530003ED12148016841F400210160006800F487
:10454000002005901C481038016841F0040101600A
:1045500000680025022100F0040005904FF440603F
:1045600008238DE8230003221448CDE9032369467C
:10457000FEF788FB124C402212484FF0006184E89D
:10458000270003152046C4E90435A561E5612562CD
:104590006562FEF7B5FA08B1FCF70AFB0022B466C3
:1045A00034201146A663FEF703FE3420FEF7F2FD29
:1045B00006B070BD004C0040403802400008024088
:1045C000140800207060024070B5836F202B4BD11F
:1045D000B9B1B2B190F87030012B45D08368012693
:1045E00080F870600024416535030466AB42A0F892
:1045F0005820A0F85A204FF0FF0107D1026912B1EC
:1046000026E0012070BD40F2FF1121E04FF07F0253
:10461000E3B1B3F1805F1ED0A0F85C402221C467F3
:10462000816701688A6842F001028A608168A94254
:1046300001D10169B1B10D49016680F8704000688F
:10464000016841F490710160002070BD036933B9C5
:10465000A0F85C10E2E7016909B13F21F8E7A0F892
:104660005C20DBE70249E7E7022070BD415A000801
:10467000E75900082DE9F04172B6234D012723497F
:104680004FF000086C1C287848B3214E002085F8B4
:1046900000800A5C3254401C0A28FADB1D484FF4A3
:1046A0000061FEF7E0FBAF6096ED040BB7EE001B78
:1046B000B4EE410BF1EE10FA01D1FCF793FC124974
:1046C0000322491CC81CFBF708FE78B10F490122E0
:1046D00001F10C00FFF778FF62B6BDE8F081607869
:1046E0002070A07860700878A070E8E707490A2277
:1046F0002F7001F10C00FFF767FF002041462154A5
:10470000401C0328FBDBE7E71C0000208807002093
:1047100090040020000C024070B50446406F202831
:104720003BD161B35AB394F87000012835D0A4F896
:104730005020A4F852200025A06E0123E16421211D
:1047400084F87030E5676167D8B115491346C163D5
:10475000A16E14480864A16E1348C864A06E056574
:104760002068A66E00F12802E16C3046FEF73AFAA6
:1047700038B11021E167202084F870506067012073
:1047800070BD21684020086284F8705020688168FC
:1047900041F080018160002070BD022070BD0000EA
:1047A0007F590008AD590008395900087047704713
:1047B000FEE700000148FEF7C1BB00007C060020B8
:1047C0000148FEF7EFBB00007C06002010B5806BAF
:1047D0000021826B1165C26B116590F84110602950
:1047E00002D0FEF7E7FB10BD202180F84110FEF754
:1047F000A3FB10BDCA074FF028034FF0000210B50D
:1048000006D090F84140422233EA040400D0F2225C
:104810008C0707D590F8414042F04402A34301D0F1
:1048200042F0B0024B0701D542F0B80211238B438E
:1048300001D142F0900212238B4301D142F0600279
:10484000006801689143016010BD01688A69D24324
:10485000920701D400228A6200688169C943C907AE
:1048600003D0816941F00101816170472DE9F04178
:10487000044690F841002821002508238143206840
:1048800004D0C36184F84050BDE8F081876986692F
:104890004FF0FE0E8168C268C7F30047D4F80CC021
:1048A0000EEA164602F0FE02BCF1020FC1F3090146
:1048B00018D14FF0060C06F006060CEAD11C66452E
:1048C0000FD1A66C0A46761CA664A16C0229DBD126
:1048D000A564C36184F8405039462046FEF72DFB9D
:1048E000D2E7164620460421FFF784FF324684F8BB
:1048F0004050F1E770B5344A0025044690F8410075
:10490000202684F84250E2626585626C282842EADB
:104910000102626425D0292823D02A2821D007212A
:104920002046FFF767FF94F84100602801D084F823
:104930004160256365632068244902685204026867
:104940001AD522F480420260A06B002833D00165A2
:1049500084F84050A06BFDF7F0FF00282BD0A06B2F
:104960001CE003212046FFF745FF19492820616319
:1049700084F841002563DEE7120413D5026822F4AF
:1049800000420260E06B002815D0016584F84050B9
:10499000E06BFDF7D2FF00280DD0E06B016DBDE8A4
:1049A0007040084794F84100602805D0204684F8FC
:1049B0004050FEF7FFFA70BD84F84160204684F84D
:1049C0004050FEF7B9FA70BD0000FFFFCD47000868
:1049D0007D4B000870B50446164AC84300254107C0
:1049E0004FF02000E262256384F8410084F84250D1
:1049F000656311D42068616A406A0870606A401C6F
:104A00006062208D40B1618D401E2085491E618508
:104A1000606C40F00400606407212046FFF7EAFE66
:104A200021681020C861204684F84050FEF720FB22
:104A300070BD00000000FFFF2DE9F0410446006852
:104A400020270E460568C76107212046FFF7D2FEE2
:104A500020683349426842F400424260206842685C
:104A60000A4042602046FFF7F0FEE843410401D4CB
:104A7000A06B02E0000404D4E06B10B10068406851
:104A80006085F04340070FD4206826F00406616A71
:104A9000406A0870606A401C6062208D20B1618DA0
:104AA000401E2085491E6185608D18B1606C40F004
:104AB000040060640025256384F84250606C6563DF
:104AC00068B1616C2046FFF715FF94F84100282873
:104AD00014D131462046BDE8F041FFF77BBFE06AC4
:104AE000104EB0420CD0204600F01EF8E66284F86A
:104AF0004170204684F84050FEF7BAFABDE8F081D4
:104B000094F8410084F841702228204684F84050EF
:104B100002D0FEF7F2FAF1E7FEF7EEFAEEE7000058
:104B200000E800FE0000FFFF70B5044600252820C5
:104B300084F8425094F84110292911D094F841107A
:104B40002A290CD1222184F8410021630221204628
:104B5000FFF750FE204684F84050FEF7CDFA70BDB6
:104B6000212184F84100216301212046FFF742FE04
:104B7000204684F84050FEF7C0FA70BD2DE9F041A0
:104B800090F840300446C06A0D46012B1DD0E94321
:104B9000012384F840306FEA0206404ACF064FF006
:104BA000807331D4F7062FD4678D102187B1226826
:104BB000D161616C41F00401616408B1984260D137
:104BC000616C2046FFF796FE5BE00220BDE8F081B5
:104BD00094F84130282B02D1B0F1007F04D094F832
:104BE0004130292B05D00CE029462046FFF7F2FE84
:104BF00047E0904205D02068C1612046FFF725FEBE
:104C00003CE02068C1613CE04F0717D4770715D41A
:104C1000618D71B1216825F00405636A496A1970D4
:104C2000616A491C6162218D491E2185618D491E81
:104C30006185618D29BB904220D122E00A0706D40C
:104C4000320704D429462046FFF710FE19E08907F1
:104C500017D4B10715D4618D69B1606A21680078F5
:104C60008862606A401C6062608D401E6085208D95
:104C7000401E208505E0984200D010B92046FFF77D
:104C800053FFE843800605D4B00603D429462046E6
:104C9000FFF7D2FE002084F8400097E70000FFFFF6
:104CA0000148FFF7DFB80000480700200249012251
:104CB0000248FFF789BC0000880700209407002005
:104CC000284A2DE9F04192F818C4BCF1010F28D010
:104CD000104602270323B0F88E62012490F81A547C
:104CE000BCF1020FB0F89212B0F894020AD0BCF1F5
:104CF000030F35D1B2F8BEC261452BD0B2F8C0C2A5
:104D0000604527D0042805D0062803D003280CD0FE
:104D1000052811D082F81834A2F8BE12A2F8C002F9
:104D200018E0BDE8F041FBF729BB82F81834A2F87F
:104D3000BE12A2F8C0320DE082F81844022DA2F88B
:104D40008263A2F8BE12A2F8C00209D082F81A74D7
:104D5000A2F8364301F078F8BDE8F04101F058B808
:104D6000BDE8F081380000202DE9FF4141480021D5
:104D70004FF440353E4B0091012401914FF009085A
:104D800002910391C0E900358160046181613A4B71
:104D900080F82010C0E90A31C0F81C80C16080F89A
:104DA00030404161FDF7B8F808B1FBF701FF072576
:104DB0003048042600966946CDE90145FCF750FFCE
:104DC00008B1FBF7F5FE022069460524CDE9004055
:104DD0002848FCF745FF08B1FBF7EAFE03206946C7
:104DE0000627CDE900702348FCF73AFF08B1FBF72E
:104DF000DFFE20486946CDE90056FCF731FF08B1D7
:104E0000FBF7D6FE08261B48CDE900646946FCF78F
:104E100027FF08B1FBF7CCFE16484446CDE90087D2
:104E20006946FCF71DFF08B1FBF7C2FE0A20694680
:104E3000CDE900050F48FCF713FF08B1FBF7B8FEFA
:104E40000B206946CDE900060A48FCF709FF08B1C6
:104E5000FBF7AEFE0E206946CDE900040548FCF7DD
:104E6000FFFE002801D0FBF7A3FEBDE8FF81000094
:104E700000200140500500200100000F10480021D3
:104E800070B50E4D032405604FF46022C0E9014166
:104E900000F10C044FF4801384E80E000176417693
:104EA0008176C17601774177FDF7F3FB002803D0C7
:104EB000BDE87040FBF77CBE70BD0000006800409C
:104EC00054060020114808B5016841F480010160D2
:104ED000016801F480010091016841F40011016052
:104EE00000680022114600F4001000900F20FEF729
:104EF0005FF90F20FEF74EF9002238201146FEF729
:104F000057F9BDE808403820FEF744B93038024070
:104F1000704700002DE9F04F87B014216846FBF779
:104F2000D1F94C48016841F010010160016801F0BD
:104F300010010591016841F080010160016801F0F4
:104F400080010591016841F004010160016801F0F0
:104F500004010591016841F001010160016801F05F
:104F600001010591016841F002010160016801F051
:104F700002010591016841F008010160006800220A
:104F8000DFF8D4800E2100F0080005904046FDF7C0
:104F900071FFDFF8C89040F61E6600223146484691
:104FA000FDF768FFDFF8B8A04FF4407700223946DC
:104FB0005046FDF75FFFDFF8ACB0002210215846E5
:104FC000FDF758FF0024694601250E200090CDE929
:104FD000015440460394FDF755FE00966946CDE91D
:104FE000015448460394FDF74DFE40206946CDE943
:104FF000000450460294FDF745FE00976946CDE94E
:10500000015450460394FDF73DFE10200090CDE979
:105010000154694658460394FDF734FE02264FF0CA
:1050200009082902584602AACDE900160327694655
:1050300082E8A001FDF726FE6902584602AACDE9E2
:105040000016694682E89001FDF71CFE07B0BDE836
:10505000F08F00003038024000100240000C024087
:1050600000080240000402401348002110B5114C12
:105070000123124A0460C0E90121C0E90331416102
:105080008161C1610162FDF797FF08B1FBF790FDF7
:1050900009480021FDF7FAFE08B1FBF789FD064833
:1050A0000021FDF71FFF002803D0BDE81040FBF7EB
:1050B0007FBD10BD005400407C06002068474020A2
:1050C00030B595B0002468461C21129413941494B2
:1050D000FBF7F8F82C2107A8FBF7F4F82F4840F26B
:1050E00037422D4940F2CF7380E81600C0E90334FF
:1050F00044618461FFF7B8F808B1FBF759FD274810
:10510000FFF702F808B1FBF753FD244812A91294E7
:1051100013941494FEF73CFE08B1FBF749FD60259B
:105120001E48CDE900540022694602940394049479
:1051300005940694FFF704F808B1FBF739FD17480A
:10514000082269460094FEF7A5FF08B1FBF730FD81
:1051500012480C2269460095FEF7F2FF08B1FBF7F2
:1051600027FD4FF4005007940894099401030A9412
:10517000CDE90B40CDE90E41084807A90D941094E4
:105180001194FEF7B5FD08B1FBF712FD0348FEF7D9
:1051900041FF15B030BD000000000140C8060020EE
:1051A00010B58AB0002468461C210794089409941D
:1051B000FBF788F81A4840F2CF7140F237424FF0BF
:1051C0008043C0E9024104618461C0E90032FFF715
:1051D0004BF808B1FBF7ECFC114807A907940994B8
:1051E000FEF7D6FD08B1FBF7E3FC60206946CDE988
:1051F00000040B48042202940494FEF7A1FF08B1B6
:10520000FBF7D6FC06480C226946FEF799FF08B169
:10521000FBF7CEFC0248FEF7FDFE0AB010BD000011
:10522000080700203EB5104800246B2140F2E73209
:10523000009401940294C0E902410A4B8461C0E9E0
:105240000032FEF7D5FD08B1FBF7B2FC064869460F
:1052500000940294FEF79CFD002801D0FBF7A8FC07
:105260003EBD000000100040480700200D4800210E
:1052700010B50B4C0C224FF4E1330460C0E901314E
:10528000C160C0E904128161C16101624162FFF73E
:1052900011F9002803D0BDE81040FBF789BC10BD10
:1052A000004C004094070020FEE70000144801462F
:1052B00090F81D24D1F8E011012A0ED0022A12D054
:1052C0000146032A91F81F1413D0042A10D1022991
:1052D00001D006290CD1022108E0022901D00029C1
:1052E00006D1042102E0012902D1032180F81D1416
:1052F0007047022901D00629FAD10121F6E7000002
:1053000038000020704730B50588039C2D0A2570B1
:10531000007860700888000AA0700878E070108833
:10532000000A2071107860711888000AA07118783E
:10533000E07130BD70B5DDE904450688360A2E708F
:10534000007868700888000AA8700878E8701088EB
:10535000000A2871107868711888000AA8711878F6
:10536000E8712088000A28722078687270BD0022D7
:1053700010B501EB420430F812301B0A01F812306C
:1053800010F81230521C142A6370F2DB10BD704703
:1053900010B5402104460248FDF760FD208010BD95
:1053A0000008024070470000024909220248FCF749
:1053B00055BE0000B404002050050020FDF79EBE3D
:1053C00030B5B7B0342124A8FAF77CFF142131A8F6
:1053D000FAF778FF90216846FAF774FF1E480168D3
:1053E00041F080510160006800F0805036901B4809
:1053F000016841F44041016000680224042300F484
:105400004040369001202C93D82582050104CDE937
:105410002A42CDE92D542F94CDE9240124A8FEF78A
:10542000B3FAFDF7F7FEE2024FF4A0510025CDE9F3
:10543000341231AA0F20072182E8310031A8FEF78B
:10544000BDF914954FF48440199500906846FDF716
:1054500017FF37B030BD00004038024000700040F8
:10546000104A30B51048146800210F4B44F4700402
:105470001460083305680D4A0D4C45F001050560C0
:1054800019600368051D1340074A03600C322C6045
:105490000568E305034C25F480250560803C116018
:1054A000236030BD88ED00E000380240FFFFF6FECB
:1054B000103000240148FEF7ECBC00004807002033
:1054C000F0B5274B4FF0804E264D02689842264E8D
:1054D000264F274C09D0704507D0A84205D0B042CE
:1054E00003D0B84201D0A04205D1D1F804C022F0C7
:1054F00070024CEA020298421BD0704519D0A842B3
:1055000017D0B04215D0B84213D0A04211D0194DD7
:10551000A8420ED0184DA8420BD0184DA84208D072
:10552000174DA84205D0174DA84202D0164DA842EB
:1055300003D1CD6822F440722A434D6922F08002E3
:105540002A43026098428A68C2620A68826201D075
:10555000A04201D10969016301214161F0BD000050
:10556000000001400004004000080040000C004022
:105570000004014000400140004401400048014057
:1055800000180040001C00400020004010B5046AD4
:10559000012301F01F018B409C4304628A40016A91
:1055A0001143016210BD0000F0B5026ADFF860C06F
:1055B000184F22F00102DFF860E00262066A4268DA
:1055C000836926F002060D68B8428C6803EA0C0372
:1055D00023F0030344EA060445EA030501D07045BD
:1055E00005D1CB6824F00804234323F00404B84217
:1055F00001D0704505D122F44076D1E9053233431C
:105600001A4342608561496841630462F0BD00004D
:105610008FFFFEFF0000014000040140F0B5026A68
:10562000194E1A4C22F01002DFF864E00262056A9B
:105630004368826925F02005D1F808C0A0420F68B0
:1056400002EA060222F4407245EA0C1542EA0722F9
:1056500001D0704506D1CE6825F0800545EA0615D3
:1056600025F04005A04201D0704507D1D1E905469B
:1056700023F4406343EA840343EA86034360826180
:10568000496881630562F0BDFF8FFFFE00000140A5
:1056900000040140F0B5026A194F1A4E22F48072DC
:1056A000DFF864E00262056A4368C26925F40075A8
:1056B000D1F808C0B0420C6802EA070222F00302E7
:1056C00045EA0C2544EA020401D0704506D1CF68B2
:1056D00025F4006242EA072222F48065B04201D03C
:1056E000704507D123F44052D1E9053642EA03124E
:1056F00042EA06134360C4614968C1630562F0BDB4
:105700008FFFFEFF0000014000040140F0B5026A77
:10571000124B114F22F4805298420262046A42688E
:10572000C36924F400548E680D6803EA070323F468
:10573000407344EA063443EA052302D0084DA842E8
:1057400004D14D6922F4804242EA85124260C3616D
:10575000496801640462F0BDFF8FFFFE0000014054
:1057600000040140F0B5026ADFF844C022F4803240
:105770000262056A4268446D25F400350E89604571
:105780000C4F0B6804EA070445EA064543EA0403A4
:1057900002D0094CA04204D14C6922F4803242EA82
:1057A000042242604365496881650562F0BD0000DE
:1057B000000001408FFFFEFF00040140F0B5026AC7
:1057C000DFF844C022F480120262046A4268436D2A
:1057D00024F400140E8960450C4F0D6803EA07039A
:1057E00044EA065443EA052302D0094DA84204D1F5
:1057F0004D6922F4802242EA85224260436549686D
:10580000C1650462F0BD000000000140FF8FFFFE93
:10581000000401400148FEF7B9BD000094070020D4
:1058200090F82410C90706D00168836A4A6822F4F8
:1058300000321A434A6090F82410890706D501689F
:10584000C36A4A6822F480321A434A6090F82410EE
:10585000490706D50168036B4A6822F480221A437F
:105860004A6090F82410090706D50168436B4A681E
:1058700022F400421A434A6090F82410C90606D563
:105880000168836B8A6822F480521A438A6090F818
:105890002410890606D50168C36B8A6822F4005279
:1058A0001A438A6090F82410490611D50168036CE8
:1058B0004A6822F480121A434A60016CB1F5801FD5
:1058C00006D10168436C4A6822F4C0021A434A6058
:1058D00090F82410090606D50168826C486820F407
:1058E000002010434860704738B500250446C5675E
:1058F000FDF7C6FA03462068006800070BD56FF075
:105900007E400090002220464FF4001100F0F0F994
:1059100008B1032038BD2020606784F87050A0676C
:10592000002038BD10B5806B0021A0F85A10A0F8F7
:105930005210FEF72AFD10BD70B5846B002521685A
:10594000606FA66F8968090606D5212804D1A4F8DE
:105950005250204600F03FF820688068400606D587
:10596000222E04D1A4F85A50204600F024F8E06F0B
:1059700040F01000E0672046FEF707FD70BD10B54F
:10598000C169806BB1F5807F0DD00021A0F8521065
:1059900001688A6822F080028A600068016841F02C
:1059A0004001016010BDFEF701FF10BD10B5806B16
:1059B000FEF7FDFE10BD10B50168202200230C6823
:1059C00024F490740C6001688C6824F001048C60ED
:1059D0008267036610BD016820220B6823F0C003B4
:1059E0000B604267704710B5816FB0F85C202229C8
:1059F000016804D0886940F00800886110BD496AD8
:105A0000436D11401980416D891C4165B0F85A10F1
:105A1000491EA0F85A10B0F85A100029EED10168BA
:105A2000202200230C6824F490740C6001688C68B8
:105A300024F001048C6082670366FEF71BFE10BD34
:105A400010B5816FB0F85C202229016804D0886904
:105A500040F00800886110BD496A436D114019701B
:105A6000416D491C4165B0F85A10491EA0F85A1002
:105A7000B0F85A100029EED10168202200230C68EA
:105A800024F490740C6001688C6824F001048C602C
:105A900082670366FEF7EEFD10BD00002DE9F041C0
:105AA00004468068DFF818C2864F2368D4E90452A0
:105AB000E16928431E6800250A438349104306EA2A
:105AC0000C0606431E604FF400422068E6684368F7
:105AD00023F44053334343602368A669206AD3F814
