:020000040800F2
:10000000081800200D020008356E0008D95A0008B3
:10001000CD6D00082D0D0008BB7800080000000021
:10002000000000000000000000000000D56E000885
:10003000110F000800000000BF6E0008016F0008EB
:1000400027020008270200082702000827020008EC
:1000500027020008270200082702000827020008DC
:1000600027020008270200082702000827020008CC
:10007000270200082702000827020008550E000882
:100080002702000827020008F907000827020008D5
:10009000270200082702000827020008270200089C
:1000A000270200082702000827020008270200088C
:1000B000270200082702000827020008DD5A00086E
:1000C000270200082702000827020008270200086C
:1000D000270200082702000827020008270200085C
:1000E000270200082702000827020008270200084C
:1000F000270200082702000827020008270200083C
:10010000270200082702000827020008270200082B
:100110005973000827020008F96F00082702000839
:10012000610E0008270200082702000827020008C5
:100130002702000827020008270200085D0D0008BA
:10014000450D0008510D000827020008270200088D
:1001500027020008270200082702000827020008DB
:1001600027020008270200082702000827020008CB
:1001700027020008270200082702000800000000EC
:1001800027020008270200082702000827020008AB
:10019000270200082702000827020008270200089B
:1001A000270200082702000827020008270200088B
:1001B000270200082702000827020008270200087B
:1001C000270200082702000800000000270200089C
:1001D000270200082702000827020008270200085B
:1001E000270200082702000827020008270200084B
:1001F0002702000827020008DFF80CD000F09CF866
:10020000004800478D7C00080818002006488047F9
:1002100006480047FEE7FEE7FEE7FEE7FEE7FEE7EB
:10022000FEE7FEE7FEE7FEE7A56F0008F90100081C
:100230002DE9F05F0546002092469B46884606461B
:10024000814640241BE0284641464746224600F0AE
:1002500062F853465A46C01A914110D311461846C7
:10026000224600F049F82D1A67EB01084F46224656
:100270000120002100F040F817EB00094E41201E3C
:10028000A4F10104DFDC484631462A464346BDE876
:10029000F09F40EA01039B0703D009E008C9121F41
:1002A00008C0042AFAD203E011F8013B00F8013B30
:1002B000521EF9D27047D2B201E000F8012B491E5C
:1002C000FBD270470022F6E710B513460A460446F3
:1002D0001946FFF7F0FF204610BD30B50546002057
:1002E000034600E05B1C934205D2EC5CC85C201A1C
:1002F00001D1002CF6D130BD202A04DB203A00FACF
:1003000002F1002070479140C2F1200320FA03F36C
:10031000194390407047202A04DB203A21FA02F06A
:100320000021704721FA02F3D040C2F1200291402F
:100330000843194670470000064C074D06E0E06888
:1003400040F0010394E8070098471034AC42F6D31C
:10035000FFF756FFE08300080084000810B51C88F2
:1003600014805C8854809C88948022F81100108846
:100370001880508858809088988010BD2DE9F05FD3
:10038000DFF8D083022700244FF004094FF0010A60
:100390002DED028BB8F8220CB8F82A1C88425FD0E9
:1003A000B8F8240CB8F82C1C884259D000F03CFE58
:1003B0000020A8F8B44C00F03BFDB8F8240CA0B124
:1003C000032812D001281ED088F8EF4D022888F8A3
:1003D000EE4D88F8ED4D27D088F8EB9DB8F8221C3B
:1003E000A8F82A1CA8F82C0C32E088F8EF4D88F801
:1003F000EE4D88F8ED4D88F8EB9DBDEC028BBDE825
:10040000F05F07F055BB88F8EF4D88F8EE4D88F89F
:10041000EBADB8F81E1CA8F8F61CB8F8221CA8F81A
:100420002A1CA8F82CAC5DE088F8EB7DB8F8260C07
:10043000A8F8FA0CB8F8220CA8F82A0CA8F82C7C1A
:1004400098F8F00D01287CD088F8F0ADA8F8B44CED
:1004500007F0D0FABDEC028BBDE8F05F07F0B2BA4E
:10046000BC4D192698F8ED0D012895F8EFCDB5F89B
:10047000F63CB5F8202CB5F81E1C05F5806529D092
:1004800002285ED19942E1D0012ADFD150469FED8A
:10049000B20BA8F8F61CBCF1040F88F8EDADA8F873
:1004A000FE4C85EDD80B85EDDA0BC8F8544B88F877
:1004B000EEAD46D088F8EF9DA8F8B40CA8F8FE6C15
:1004C00000F0A2FD5FF06400BDEC028BBDE8F05FC0
:1004D00000F0AEBC98F8EE0D012806D0022830D10D
:1004E00088F8EE4D88F8ED7DB0E7994200D07AB1FA
:1004F000C1469FED9B8B9748BCF1060F4FF0004B18
:10050000B0F8FE0C1DD2DFE80CF0D80A8FE2FAF248
:10051000A8F8F61C88F8EF4D88F8EE7DE3E0012896
:100520004C467BD8994272D0022A70D10B2007F03A
:10053000EBFAB4F8181C884269DCB4F81E1C0520DC
:1005400000E0BAE0A4F8F61C84F8EF0D0020A4F84F
:10055000B47C07F0D9FA00EE100AB8EEC00B85EDB6
:10056000D80BB4EEC80BF1EE10FA0CD2B5EEC00BFE
:10057000F1EE10FA05DBBCEEC00B10EE100AC0B2B3
:1005800002E0002000E0FF2000F052FC022007F013
:10059000BBFA90FBF6F0C4F8540B002007F0B4FA55
:1005A0000746012007F0B0FA002F05DB6FF000418D
:1005B0007A1A904207DB05E007F10041884201DD2D
:1005C000594600E0391A6FF0004381FB06700022A3
:1005D000D91B824101DA1F4607E04FF00041791A2A
:1005E00070F1FF3001DA4FF00047022007F08CFA7B
:1005F00000EE100AB8EEC01B00EE107AB8EEC00B89
:1006000080EE012B85EDDA2B55E007E0FFE784F85B
:10061000EFADA4F8B4ACA4F8FE6C79E0401E00D5B0
:100620000020A9F8FE0C76E001284C4649D8D4F801
:10063000540B002806DD012007F066FA94F8D31D5C
:1006400088420EDB002000F0F3FB00F0EDFC0320FD
:1006500084F8EF0DA4F8FE6C94F8C60D84F8060E2D
:1006600047E084F8EF7D95EDD80B95EDDA1B30EE81
:10067000410B85EDD80BB4EEC80BF1EE10FA0DD29C
:10068000B5EEC00BF1EE10FA06DB00BFBCEEC00BFE
:1006900010EE100AC0B202E0002000E0FF2000F0DF
:1006A000C7FBD4F8540B584502DCC4F854BB02E035
:1006B000401EC4F8540BA4F8FE6CBDEC028BBDE8E0
:1006C000F09F401E00D50020A9F8FE0CF5E70C2095
:1006D00007F01AFA99F8C62D4946904209DC81F8CC
:1006E000EF4D89F8EE7D00F09FFC0020ECE618E06D
:1006F00005E0BDEC028BBDE8F05F07F0FFB8012814
:100700004946DED881F8EFADA1F8B4ACA9F8FE6C8B
:10071000642000F08DFBBDEC028BBDE8F05F07F0BC
:1007200069B901284C46CCD884F8EF7D95EDD80BFB
:1007300095EDDA1B30EE410B85EDD80BB4EEC80B0E
:10074000F1EE10FAAAD2B5EEC00BF1EE10FAA3DB6F
:100750009CE70000480000200000000000000000AE
:10076000000000000000704010B50146806B026C74
:1007700012F0500F05D0026CD20626D502F075FBA0
:1007800010BD016C41F40071016401688A6812F0C7
:10079000405F17D18269AAB9CA6A12F4700F02D0F9
:1007A0008A6852050ED44A6822F020024A60016C21
:1007B00021F480710164016CC90403D4016C41F01F
:1007C0000101016402F046FB10BD806BC26C08465B
:1007D000BDE81040104710B5806B40210164416CAA
:1007E00041F00401416402F040FB10BD10B5806B84
:1007F00002F03AFB10BD0000014802F037BB0000D8
:100800008C1000204A496FF0706210B5D1F80433A3
:1008100023F44033C1F80433D1F80433446823434C
:10082000C1F8043301684B6823F480734B6001689E
:1008300003694C6844EA03234B6001684B6823F06A
:1008400040734B60016884684B6823434B600168C8
:100850008B6823F400638B600168C4688B68234352
:100860008B60816AD14201688A6822F070628A6076
:1008700001680DD0836A8A681A438A6001688A68B1
:1008800022F040528A600168C36A8A681A4302E013
:100890008A6822F040528A6001688A6822F0020267
:1008A0008A60016882698B6843EA42028A6090F834
:1008B00020100029016811D01E4A4B6843F40063E0
:1008C0004B6001684B6823F460434B600168446AE5
:1008D0004B6802EB443213434B6003E04A6822F456
:1008E00000624A600168144BCA6A22F47002CA624C
:1008F0000168848BCA6A03EB04531A43CA62016815
:100900008A6822F400728A60016890F830208B684F
:1009100043EA42228A6001688A6822F480628A601F
:10092000016840698A6842EA8020886010BD000042
:100930000020014000E0FFFF0000F0FF2DE9F05F24
:10094000DFF8D483022700244FF0040A4FF0010996
:100950002DED028BB8F8220CB8F82A1C884262D020
:10096000B8F8240CB8F82C1C88425CD000F05CFB72
:100970000020A8F8B44C00F05BFAB8F8240CA0B141
:10098000032812D001281ED088F8F24D022888F8DA
:10099000F14D31D088F8F04D88F8EBADB8F8221C55
:1009A000A8F82A1CA8F82C0C35E088F8F24D88F835
:1009B000F14D88F8F04D88F8EBADBDEC028BBDE849
:1009C000F05F07F075B888F8F24D88F8F14D88F8B7
:1009D000F04D88F8EB9DB8F81E1CA8F8F61CB8F886
:1009E000221CA8F82A1CA8F82C9C98F8ED0D0228C7
:1009F00070D088F8ED7D0CE088F8EB7DB8F8261C07
:100A0000A8F8FA1CB8F8221CA8F82A1CA8F82C7C14
:100A100023E0A8F8B44C06F0EDFFBDEC028BBDE876
:100A2000F05F06F0CFBFBC4D192698F8F02D012AD3
:100A300095F8F21DB5F8260CB5F8FACCB5F8283CB7
:100A400005F580650CD0022A44D198F8F12D012AD1
:100A500027D0022A3ED188F8F14D88F8F09DD8E7DA
:100A60006045D6D0012BD4D19FEDAC0BA8F8FA0C81
:100A7000042988F8F07D4A46A8F8004D85EDDC0B86
:100A800085EDDE0BC8F8584B88F8F19D22D088F828
:100A9000F2ADA8F8B42CA8F8006D00F0B5FA642007
:100AA00000E1604500D073B1C2469FED9E8B9A4A2B
:100AB00006294FF0004BB2F8002D0BD2DFE801F011
:100AC000D90B90E3FCFBA8F8FA0C88F8F24D88F8F3
:100AD000F17DE4E0CDE0012A54467BD8604572D038
:100AE000022B70D10B2007F017F8B4F8181C8842BD
:100AF00069DCB4F8261C0520A4F8FA1C84F8F20D71
:100B00000020A4F8B47C07F007F800EE100AB8EE55
:100B1000C00B85EDDC0BB4EEC80BF1EE10FA0CD275
:100B2000B5EEC00BF1EE10FA05DBBCEEC00B10EE1B
:100B3000100AC0B202E0002000E0FF2000F078F9C7
:100B4000022006F0E9FF90FBF6F0C4F8580B0020F5
:100B500006F0E2FF0746012006F0DEFF002F014607
:100B600005DB6FF000403A1A914207DB05E007F120
:100B70000040814201DD584600E0781A6FF00042E3
:100B800080FB06700021D21B814102DA6FF0004722
:100B900007E04FF00041791A70F1FF3001DA4FF0B1
:100BA0000047022006F0B8FF00EE100AB8EEC01BA6
:100BB00000EE107AB8EEC00B80EE012B85EDDE2B37
:100BC00055E007E0FFE784F8F29DA4F8B49CA4F890
:100BD000006D7FE0521E00D50022AAF8002D7CE0B7
:100BE000012A544649D8D4F8580B002806DD0120C4
:100BF00006F092FF94F8D31D88420EDB002000F02F
:100C000017F900F011FA032084F8F20DA4F8006D32
:100C100094F8C60D84F8060E4AE084F8F27D95ED4E
:100C2000DC0B95EDDE1B30EE410B85EDDC0BB4EEFD
:100C3000C80BF1EE10FA0DD2B5EEC00BF1EE10FAC2
:100C400006DB00BFBCEEC00B10EE100AC0B202E023
:100C5000002000E0FF2000F0EBF8D4F8580B5845D6
:100C600002DCC4F858BB02E0401EC4F8580BA4F8DC
:100C7000006DBDEC028BBDE8F09F521E00D5002236
:100C8000AAF8002DF5E70C2006F046FF9AF8C62DCD
:100C9000514690420CDC81F8F24D8AF8F17D00F06B
:100CA000C3F90020BDEC028BBDE8F05F00F0C0B8D6
:100CB000BDEC028B01E016E003E0BDE8F05F06F05A
:100CC00053BE012A5046D8D880F8F29DA0F8B49CB3
:100CD000AAF8006D642000F0ABF8BDEC028BBDE813
:100CE000F05F06F087BE012A5446C6D884F8F27D2C
:100CF00095EDDC0B95EDDE1B30EE410B85EDDC0B4D
:100D0000B4EEC80BF1EE10FAA4D2B5EEC00BF1EEC2
:100D100010FA9DDB96E7000048000020000000006C
:100D2000000000000000000000007040FEE700002E
:100D300003480168002008640C21014804F00EBC3F
:100D400084120020014802F0EEBB00009011002048
:100D5000014802F0E8BB000090110020014802F0B9
:100D6000E2BB0000901100200A480E23002101225E
:100D700030B44FF47854C0E90612C0E900418160F4
:100D8000C160C0E90413C0E9082330BC0146024831
:100D900002F0BABA341100209011002010B5FFF70C
:100DA000E3FF0848012102F031FA0648022102F06F
:100DB0002DFA0448102102F029FABDE8104001483C
:100DC00002F0D0BD9011002008B564208DF800001D
:100DD000684600F007F80248042104F0BFFB08BD94
:100DE0004412002001789FED0D2B00EE101A9FEDAC
:100DF0000E1B0C48B8EE404BD0ED030A016884EEA0
:100E0000023BB8EE600B33EE011B21EE000BBDEE92
:100E1000C00B10EE100A886370470000000000004D
:100E200000409F40441200209A9999999999A93FAE
:100E30000649642881F8D30D00D36420C0F1640012
:100E400081F8DD0D0248FFF7CDBF0000480000200B
:100E5000250E0020014802F0CBBD0000A4130020A5
:100E6000014802F0C5BD0000D4100020016818231D
:100E7000CAB2103AB2FBF3F2054B6FF30901032A31
:100E80009B5CC36500D9091D816508467047000059
:100E9000C083000810B583694FF0C074826A0146B0
:100EA000002053B1B3F5005F15D072B1012A0CD008
:100EB000022A0AD0032A09D104E01AB1012A06D075
:100EC000022A03D1C96AC90100D5012010BDC96A2F
:100ED000A142FAD010BD002AF7D0012AF2D0022A8E
:100EE000F3D0032AF3D010BD30B50468256825F48B
:100EF00080252560046863608368402B036803D005
:100F000099600068C26030BD9A600068C16030BD01
:100F100070470000FEB500240D4610210646084823
:100F2000224602F0EFFF6420347001210095012376
:100F30002246CDE901100348A02103F0B3F8FEBD1D
:100F400000040240B8110020FEB5157850220F7839
:100F50001C4601786426089B42EA111047EA0111F9
:100F60008DE86800CAB241000248012303F09AF8F4
:100F70002070FEBDB81100202DE9FC47007817460F
:100F800009785022DDE90A9842EA10140F4D41EA2F
:100F90000010C6B20020195C2954401C1028FADB4E
:100FA0000B480022102102F0ADFF002188F800104C
:100FB0003878610001233246CDE90050054803F03E
:100FC00023F989F80000BDE8FC8700007A100020B2
:100FD00000040240B811002010B500F025F8BDE86B
:100FE000104000F019B8000000220248102102F061
:100FF00089BF0000000C024002780821014802F07D
:1010000081BF0000000C024000220248042102F0CF
:1010100079BF0000000C024001220248102102F0BA
:1010200071BF0000000C024001220248042102F0BE
:1010300069BF0000000C024070B505460C4608462A
:1010400000F004F82078287070BD000001210170C4
:1010500002480A46490202F055BF0000000802405B
:101060000021017002480A464FF4007102F04ABFA5
:1010700000080240704700002DE9FF4F87B041781B
:101080009B46DDE91C54DDF86490179BDDE91A7678
:10109000DDE914AE84F8B31004F1B50290F80280D3
:1010A000511E84F8B48004F1B30C90F8038084F8E6
:1010B000B58090F80080B8F1570F09D0B8F1520F01
:1010C0000DD0B8F14C0F12D0B8F1450F70D0E7E059
:1010D000CDE900E3031D6046FFF74EFFE0E004F1B9
:1010E000A300169B00906046FFF72EFFD8E004F1A6
:1010F0009300009004F1B6036046FFF725FF94F8D3
:10110000B60094F8B71088427DD000200DF1080198
:1011100004EB400292F8943092F8932003EB022201
:1011200021F81020401C0828F2DB94F8B3000128B5
:101130000ED002280CD003280AD005281CD006287F
:101140001AD0082835D0092833D00B284ED05AE0C1
:10115000C006020ED01F904200D900205FF00002AE
:1011600052FA80FC04EB4C0C31F81230521C082A65
:101170002CF8023CF4DB46E0021F904200D2002231
:10118000D0B21F2801D9F82005E0D006020ED01FEA
:10119000904200D90020002252FA80FC04EB4C0C53
:1011A00031F81230521C082AACF82E30F4DB2AE059
:1011B0004AE0C21F904200D20022D0B21F2801D9BB
:1011C000F82305E0D006020ED31F934200D9002376
:1011D0005FF0000050FA83FC04EB4C0C31F8102057
:1011E000401C0828ACF84E20F4DB0CE00122002063
:1011F00050FA82FC04EB4C0C31F81030401C0828EB
:10120000ACF86E30F4DB002034F8102049F82020D0
:10121000401C1828F8DB002004EB4001B1F85020F6
:1012200046F82020098E47F82010401C1028F3DBD8
:101230005FF0000004EB4001B1F8701045F8201099
:10124000401C0828F6DB2BE009995C224846FFF792
:1012500020F80020C9F85C0078630146B863F863A1
:10126000089A52F8212047F821205BF8212046F8FF
:101270002120491C0D29F3DB70630021DAF80020DE
:101280002A60B063DAF804206A60F063DAF80820B4
:10129000C5F8082005EB8102491C0529D060F9DB5F
:1012A00094F8B310002094F8B42094F8B53084F882
:1012B000801084F8812084F882302118401C102886
:1012C00091F8A32081F88320F7DB04F1800006F079
:1012D0005BFD0020211891F8802018990A54401CC9
:1012E0001328F7DB0BB0BDE8F08F00000348C1689E
:1012F000006841630021014804F030B90412002065
:101300002DE9F041344C35482DED028BB7EE008BC2
:1013100084EDC88BFFF766FDA4F58068012184ED9C
:10132000D28B8B1EC8F8503B84EDE28B04F5AA608B
:1013300088F80D1E022288F8092E04F5C66588F883
:10134000B710602100F1600700F1A006FEF7BAFFB8
:1013500040213846FEF7B6FF40213046FEF7B2FF87
:101360000020014645F82010401C0828FADB09211E
:1013700088F8E81D1A4884EDCC8B06F0D5FB184898
:10138000343006F00DFC1648903006F0EFFB1448A0
:10139000C43006F0E3FB134A511E481EFFF7BAFDA6
:1013A0001048401C06F02CFDFFF7C2FCFFF7F6FCCE
:1013B000FFF70AFDFFF710FEFFF798FF01F0C4FBEF
:1013C00005F07AF905F07EF905F086FDBDEC028B9B
:1013D000BDE8F04105F08ABD48040020B88300084C
:1013E000C8080020160E00202DE9F04FFD494022CC
:1013F000A1F52C702DED068BA7B02391FEF749FFC8
:10140000F849602240312291A1F52C70FEF741FF8E
:10141000F4494022A0312191A1F52C70FEF739FF4B
:10142000F14819AA90F8E31D80F8C61D90F9051D32
:1014300001EB410100EB4101B1F86C3CA0F8143C18
:10144000B1F86E3CA0F8163CB1F8701CA0F8181C5E
:1014500090F9061D00EB8101B1F8783CA0F81A3C28
:10146000B1F87A1CA0F81C1C90F8E41D80F8C71D88
:1014700090F9071D00EB8101B1F8803CA0F81E3CFB
:10148000B1F8821CA0F8201C90F8E51D259190F978
:10149000081D00EB8101B1F8883CA0F8223CB1F8AE
:1014A0008A1CA0F8241C90F9091D00EB810300217F
:1014B000B3F8904CA0F8264CB3F8923CA0F8283C26
:1014C00000EB8103D3F8303B42F82130491C082956
:1014D000F6DB90F8E61D002380F8C81D90F8E71DA4
:1014E000249190F90A1D01EB81018C00191903EB7D
:1014F000830501EB810100EB810200EB850112F80D
:10150000C65F81F8E6535B1C142B557881F8E753CE
:10151000957881F8E853D57881F8E953157981F801
:10152000EA53557981F8EB53957981F8EC53D579E5
:1015300081F8ED53157A81F8EE53557A81F8EF531F
:10154000957A81F8F053D57A81F8F153157B81F8BB
:10155000F253557B81F8F353957B81F8F453D57B97
:1015600081F8F553157C81F8F653557C81F8F753D3
:10157000957C81F8F853D27C81F8F923B6DB9B4D3A
:101580009FED9B0B8046024697484FF0FF3395ED49
:10159000D21BB7EE008BB2EE04AB9FED979B00F22F
:1015A0000671129185EDC81B95EDCE1B00F51F61EC
:1015B0000D9100F515600B9021EE000B40390E9156
:1015C00030EE080BBCEEC00B10EE100A82F8D00D06
:1015D000C2F8503B98F8EA0DF8B192F8EC0D1446B9
:1015E00008B105F079F894F8F40D08B105F0F0FBB6
:1015F00094F8F60D08B101F037F994F8010E0028BF
:1016000071D07949642694F8000EB83101285CD075
:10161000022870D0032866D16DE0012688F8EA6DB3
:1016200088F8EC6D0027A8F8F67C4446A8F8F87C0A
:10163000A8F8FA7CA8F8FC7C98F8EB0D032804D0F5
:10164000032084F8EB0D06F087F984F8F46D84F834
:10165000F36D84F8F66DC4F85C7B94F8F50D0428FE
:1016600002D0042084F8F50D84F8016E032084F87C
:10167000077E84F8087E84F8000E94F8030E012893
:1016800003D084F8036EA4F8027D94F8020E0128BA
:1016900003D084F8026E05F01FFC84F8FF6D85ED21
:1016A000E09B94F8FE0D022804D0022084F8FE0D81
:1016B00085EDE08B84F8056E94F8040E012803D0C4
:1016C00084F8046E84F8D47DCDE294F8080E58B105
:1016D00094F8C72D94F8073E9A4212D1401E00D5C7
:1016E000002084F8080E18E0022084F8000E444818
:1016F000FFF7B6FC11E094F8C70D94F8072E90425E
:101700000BD0012084F8000E26A8FFF795FC94F872
:10171000C70D84F8070E84F8086E94F8030EE8B13C
:1017200094F8020E012802D0022817D104E000200C
:10173000022184F8021E0FE0B4F8020D0A2805D336
:10174000012084F8020E05F0C7FB07E0401CB0F54D
:10175000803F01DB4FF6FF70A4F8020D94F8FF0DF7
:10176000A04600280BD098F8FE0D012802D00228D0
:1017700005D105E0022088F8FE0D85EDE08B58E2EA
:1017800095EDE00BB4EECA0BF1EE10FA7DDB164AD4
:10179000012105204FF0000C02F6B653009388F8A3
:1017A000FE1D02F6441698F8093E02F523691396C9
:1017B000343E1196903E02F6215702F6D75B02F6B0
:1017C000D55A02F6D65402F6B402CDE90F26062BFE
:1017D00015AA70D2DFE803F06F031695FCFB88F8BA
:1017E000090E26E2980A0020480000204804002044
:1017F0000B4C91061B2ECF3F0000000000000000A4
:10180000200E002098F8CD0DFF2817D0AA2853D01D
:10181000002088F8091E61461154401C1028FBDB8B
:101820000023009245201A46194606F02BF9DDE9FF
:101830000D12CDF82090CDE90621F0E1042188F8C1
:10184000091E88F8B7CD464688F8B8CD604688F8B6
:10185000B9CDAA2388F8BACD88F8BBCD88F8BCCD1D
:1018600088F8BDCD88F8BECD88F8BFCD88F8C0CD4A
:1018700088F8C1CD88F8C2CD88F8C3CD86F8C4CD2C
:1018800086F8C50D86F80C0E00E0CEE186F80A1E3B
:1018900000225720114686F8B63D012306F0F2F8E3
:1018A000DDE90D230996CDF82090CDE906320B999C
:1018B000CDE9047119E09BE1032088F8090E0423A7
:1018C00088F80CCE0020614688F80B3E1154401C6D
:1018D0001028FBDB491CFF290E4600D9FF2100928E
:1018E0005DE000BF88F80C6EA3E11398CDE902AB70
:1018F000CDE90004DDE91130DDE90F21FFF7BCFB84
:1019000097E198F80B3E012B0BD0022B1CD0032B38
:101910002DD098F80C0E032860D3042088F80B1EF5
:1019200069E098F80C6E062E02D30320072124E00C
:10193000002061461154401C1028FBDB11E0C1B2AD
:1019400000922CE0FF26CDE798F80C6E0B2E02D308
:1019500088F80BCE43E7002061461154401C102844
:10196000FBDB761CFF2E3046E9D9FF20E7E798F82D
:101970000C6E092E06D302200A2188F80B0E88F877
:101980000C1E56E1002061461154401C1028FBDB60
:10199000761CFF2E314600D9FF210092C9B21023D8
:1019A00000224C2006F06EF8DDE90D23CDE9089801
:1019B000CDE906320B98CDE902ABCDE9047013985E
:1019C000CDE90004DDE91130DDE90F2101E0FDE0A2
:1019D00014E0FFF751FBFF2EB4D883E700216346E4
:1019E0005354491C1029FBDB401CFF2800D9FF2061
:1019F0000092C1B248E088F80C0E1AE198F80A3E4D
:101A0000012B14D0022B27D0032B6BD0042B78D0C2
:101A100098F80C0E032875D388F80CCE88F80A1EA7
:101A2000DDF84000B2EE0A0B06F0AEFA01E198F8DC
:101A30000C0E022808D388F80CCE032188F80A1E61
:101A40001198B2EE0A0BEFE706F044F898F80C0E86
:101A5000401D3FE0FF20CEE798F80C0EA0B388F8B9
:101A60000ACE032088F8090E042388F80CCE002043
:101A7000614688F80B3E1154401C1028FBDB491CC2
:101A8000FF2900D9FF210092102300225FF04C00B3
:101A900005F0F8FFDDE90D12CDE90898CDE9062142
:101AA0000B98CDE902ABCDE904701398CDE90004A1
:101AB000DDE91130DDE90F21FFF7DEFA98F80C0EB1
:101AC000401CFF28C6D896E7FFE706F003F898F811
:101AD0000C0E0B30FF2800D9FF2010230022C1B2CA
:101AE0005720D5E798F80C0E02280CD388F80CCEB6
:101AF000022188F80A1E1398B0EE080B06F08CF944
:101B000097E006E03AE005F0E5FF98F80C0E0830A3
:101B1000E0E788F80A0E0F98B3EE070B06F0D8F945
:101B200098F80C0E05F0D6FF98F80C0E401CFF2814
:101B300000D9FF20C1B210230022572005F0A2FFD8
:101B4000DDE90D12CDE908984646CDE906210B984E
:101B5000CDE902ABCDE904701398CDE90004DDE9CD
:101B60001130DDE90F21FFF787FA96F80C0E401CC3
:101B7000FF2800D9FF2086F80C0E5AE005F0AAFFD6
:101B800098F80C0E401CFF28064600D9FF20C1B271
:101B900010230022572005F075FFDDE90D01CDE986
:101BA0000898CDE906100B98CDE902ABCDE9047099
:101BB0001398CDE90004DDE91130DDE90F21FFF7CD
:101BC0005BFAFF2E7FF6BFAEFF268BE695EDE40BAA
:101BD000B4EE480BF1EE10FA07D198F8D61D98F83C
:101BE0000D0E814201D00620F9E506F031FA20E021
:101BF00095EDE40BB5EEC00BF1EE10FAF4D00D9AB2
:101C00004C2385EDE49B88F8063710260E9B88F858
:101C100008C788F80967CDE90632CDF820900B98FF
:101C2000CDF82480CDE904705FE630EE080B85ED39
:101C3000E00B98F8051E4046A9B190F8041E012952
:101C400002D002290FD10BE0002180F8D41D199990
:101C500049B1022180F8041E012288F8D42D02E047
:101C6000012188F8D41D95EDE60BB8F8140C444614
:101C700030EE081B00EE100AB8EE400B85EDE61BB7
:101C800098F80E2E24998A4205D085EDCA1B85ED61
:101C9000E69B84F80E1E94F8D41D012940D194F8D7
:101CA000C81DE9BB94F8C62D1B998A4238DB1999E7
:101CB000884235DC1A98B0F1004F02DC6FF000402A
:101CC00000E0404295EDD02B95EDCA3B01EE100AA5
:101CD00030EE422BB8EEC11B22EE0A2B82EE034BF4
:101CE000B4EEC14BF1EE10FA78D80120A4F8B60C8E
:101CF00085EDD00B25989FED3A3B00EE100AB5EE2E
:101D0000002BB8EE401B95EDCE0B20EE030B01EE41
:101D1000020B8DED000B10EE101A10EE902A00E071
:101D20005CE031488163C2631422129900F2C470EE
:101D3000FEF7AFFA2D4D002094F8D51D85F8601000
:101D400094F8D61D85F8611094F8D71D85F86210B7
:101D500022182918401C92F8212D132881F863209D
:101D6000F6DB224860220B997830FEF792FA1F4882
:101D700040220E99D830FEF78CFA1D4840220D996A
:101D8000FEF787FA5FF0000004EB800205EB8001AC
:101D9000401CD2F8302A0828C1F85821F4DB0E99EB
:101DA00040222398FEF775FA0B9960222298FEF7DD
:101DB00070FA0D9940222198FEF76BFA5FF000004F
:101DC00004EB8001401C0828D1F8302AC1F8302BE0
:101DD000F6DB27B0BDEC068BBDE8F08F002085E771
:101DE0003FEB964F1E0DEE3F48070020C00E00202F
:101DF000D80F00202DE9FC5FFD4C642201274FF035
:101E0000020B23464FF6FF75002640F2022994F894
:101E1000D30D4FF4803A84F8C90D03F5806094F82F
:101E2000D21D84F8CA1D94F8E8CDB3F8F43CBCF197
:101E30000A0F5ED2DFE80CF05D057611761F2641B1
:101E40004B57062284F8E82D4FF40070A4F8AC0C30
:101E50004FF4C871A4F8AE1C64E0042B02D006F065
:101E600075F95FE084F8E8BD4FF47A71A4F8AC1C12
:101E7000A4F8AEBC56E084F8E87DA4F8AC9CA4F8C5
:101E8000AE7C46E0012B01D051B113E0082184F86B
:101E9000E81D40F20530A4F8AC0CA4F8B22C41E0E7
:101EA00094F8E90D012805D1581C504500D3284667
:101EB000A4F8F40C84F8E91D34E0032084F8E80D5C
:101EC000A4F8AC6CA4F8F06CA4F8F26C2AE0A4F8C6
:101ED000B22C072384F8E83DA4F8AC9CA4F8AE7CAF
:101EE000A4F8B0BC1EE00A219FEDC20B84F8E81DE7
:101EF00016E090EDD60B9FEDC11BB4EE410BF1EE59
:101F000010FA09D1052184F8E81D40F20120A4F857
:101F1000AC0CA4F8B07C05E0B7EE001B30EE010B72
:101F200080EDD60BB748B849A0F165039A1ECDE9FC
:101F30000010911E6B3804F095FFB44991ED040B2D
:101F4000BDEEC00B10EE100A012856D002284FF04B
:101F500000005BD02118401C0A2891F8172D81F849
:101F60000D2DF7DBA7485938811C831E021FCDE9D0
:101F70000001811F4F3005F08DFC9D4AB4F8B80C6C
:101F800002F63E41C0328846A0F540739346053BB9
:101F900016D0B0F5017F50D0B0F5007F5BD0A0F532
:101FA000407106393ED0A0F50071013979D048451D
:101FB00074D1B4F8BA0C012871D0022870D0C5E0F1
:101FC000B4F8BA0C1346A4F8C20C0A46B4F8BC0C18
:101FD0000021FEF7C3F9B4F8BE0C02215B4642466D
:101FE000FEF7BCF994F8E10DFF2818D0401CFF283B
:101FF00000DDFF2084F8E10DA8E0002023180A5C32
:10200000401C0A2883F80D2DF8DBABE70A182318CB
:10201000401C127E0A2883F80D2DF7DBA2E784F816
:10202000E16D93E0B4F8BA1C0A2013464246B1FBB6
:10203000F0F00121FEF792F988E094F8DE0DFF2818
:1020400002D384F8DE6D81E0401CFF2800DDFF2014
:1020500084F8DE0D7AE0B4F82E0CB4F8BA1CFF2830
:1020600002D3A4F82E6C05E0401C504500DB284646
:10207000A4F82E0CA4F8301C94F8C90D642865D07F
:10208000322903D0642901D0C8295FD1002005F08E
:1020900035FE002005F046FE58E002E04AE036E05A
:1020A0003FE0B4F8BA0CFF2800D9FF20C2B284F890
:1020B000DF2DB4F8360CB4F8BC1CFF2802D3A4F80A
:1020C000366C05E0401C504500DB2846A4F8360C71
:1020D0001E2AA4F8381C08D9002005F00FFE0020A5
:1020E00005F020FE84F8E07D01E084F8E06DB4F8AE
:1020F000BE0C58B3FF28A4F8C60C00D9FF20401E20
:1021000084F8E20D41483638FEF776FF1EE0B4F859
:10211000BC0C05F0F3FDB4F8340C08E084F8DF6D76
:1021200014E0B4F8BC0C05F0FDFDB4F83C0C00283C
:10213000F4D00BE0A0F50071033907D1B4F8BA0C64
:10214000A4F8C40CB4F8BC0CA4F8C80C94F80B0D9B
:1021500058B9B4F83E0CA4F8980CB4F8400CA4F8A4
:102160009A0CB4F8420CA4F89C0C94F8C20C84F8B5
:10217000E30D94F8051DB4F83E0CC1B35FF0000107
:1021800001EB410104EB4101A1F86C0C94F8051D31
:10219000B4F8400CE1B3002101EB410104EB410133
:1021A000A1F86E0C94F8051DB4F8420C89B3002117
:1021B00001EB410104EB4101A1F8700C94F8050D0D
:1021C00040B3002084F8050D94F8061DB4F82E0CD9
:1021D000F1B3002104EB8101A1F8780C94F8061DFD
:1021E000B4F8300CA9B3002104EB810113E087E0BF
:1021F0004800002000000000000000000000000077
:10220000007097405F0D0020BC820008600E002027
:1022100078E079E07CE0A1F87A0C94F8060DE0B360
:102220005FF0000084F8060D94F8DE0D84F8E40DEC
:1022300094F8071DB4F8320C81B3002104EB81013E
:10224000A1F8800C94F8071DB4F8340C39B301E000
:1022500060E061E05FF0000104EB8101A1F8820C15
:1022600094F8070DE8B3002084F8070D94F8DF0D0B
:1022700084F8E50D94F8080DB4F8361C90B30020EE
:1022800004EB8000A0F8881C94F8081DB4F8380C02
:1022900049B3002104EB810102E03FE040E041E06E
:1022A000A1F88A0C94F8080D80B3002084F8080D7A
:1022B00094F8091DB4F83A0C49B3002104EB8101EC
:1022C000A1F8900C94F8091DB4F83C0C81B30021DE
:1022D00004EB8101A1F8920C94F8090D48B3002099
:1022E00002E021E022E025E084F8090D94F8E00DF9
:1022F00084F8E60D94F8E10D84F8E70DBDE8FC9F45
:1023000001213DE7012147E7012151E714E015E0F4
:10231000012057E701215DE7012165E7012081E701
:1023200001218BE7012197E701209DE70120A7E725
:1023300006E007E00121ADE70120B7E70121BDE795
:102340000121C5E70120CBE72DE9F04F45499BB0BE
:102350000DF1080C91F9043D002003EBC303C418F0
:1023600001EB8404D4F8A84B4CF82040401C092809
:10237000F5DBB1F8EE9C0123B1F8C80C189091F888
:10238000D30D1790B1F8B40C1690B1F8C40C159099
:10239000B1F82CBCB1F8C6AC81F80B3D0020B1F807
:1023A000985CB1F89A3CB1F89C4C81F80B0D65F340
:1023B0000F0291F8D27D0BAC91F8DF6D63F31F42F1
:1023C00091F8D15D01EB40083CF82030A8F8443C7E
:1023D00024F81030401C0928F4DBA1F8569C4FEA81
:1023E0001248189AA1F8582C179AA1F85A2C169A44
:1023F000A1F85C2C159AA1F85E2CA1F860BCA1F89C
:1024000062ACA1F8648CA1F8667CA1F8686CA1F8B4
:102410006A5C15490091A1F58C7004F040FD0098AC
:1024200005F0CEFC1148002134F8112020F81120CD
:10243000491C0929F8DBA0F8129018998182179994
:10244000C1821699018315994183A0F81CB0A0F8A8
:102450001EA0A0F8208047848684C5841BB0BDE8F8
:10246000F08F000048000020A40D0020C00E0020C6
:10247000324930B589B001F52E7005F015FF304AAC
:102480000020324D6C469FED2F1B00BF05EB8001F5
:10249000D1F8843B02EBC00100EE103A91ED003B15
:1024A00091ED124BB8EE400B91ED242B00EE013B69
:1024B00003EE042BBCEEC20B10EE101A44F82010F1
:1024C000401C0928E2DB224804F0FAFC21490020E4
:1024D00001EB800254F82030401C09289362F7DB9E
:1024E00095F80C0D48B900BF05EB800254F8201098
:1024F000C2F8F01B401C0928F6DB002095F8042DDB
:1025000054F82010B2B1002202EBC2020244401C77
:1025100005EB82020928C2F8A81BEFDB95F8040D31
:1025200050B1002085F8040DB5F8EC0CA5F8EE0CC0
:1025300009B030BD0122E7E70120F3E7CC0B002012
:10254000C0820008B4D934E70C684A3F4800002034
:10255000340D0020C00E0020F8B56F4C012084F827
:102560000C0D002004EB8001D1F8F02B401C092851
:10257000C1F8602BF6DB002584F80C5DB4F8C80CBC
:102580000723A4F89E0C94F8D30D84F8CB0DB4F86F
:10259000B40CA4F8A00CB4F8C40CA4F8A20CB4F8C1
:1025A0002C1CA4F8A41CB4F8C61CA4F8A61CB4F8EF
:1025B000EC1CA4F8A81CB4F8B61C584AA4F8AA1C31
:1025C00004F69A4402F1100117460E4605F00EFB80
:1025D0002086072360863A46A088314605F006FB30
:1025E000A0864FF4A061E1864FF444722287531C09
:1025F0006387961DA687D71DE78794F87501A4F613
:102600009A4464283ED3B4F8700BA4F8E20CB4F8F2
:10261000740B434EA4F8E40CB4F86C0BA6F154030D
:10262000A4F8E60C9A1EB4F8800B911EA4F8E80CEE
:10263000881E04F53664009604F0FDFBA6F16600E2
:10264000314605F083FB208B083EA4F87A01A6F101
:10265000540320889A1EA4F87C01911EA088A4F837
:102660007E012089A4F88001881E009604F0E3FB17
:10267000A6F15C00314605F069FB84F8AF52A4F581
:10268000366403E094F8100E0A281FD3244E254A1E
:1026900010360096A6F1AC03991E081D04F0CBFB82
:1026A000A6F17800314605F051FB083E0096A6F1F0
:1026B0009C0303F12602911E881E04F0BCFBA6F1C8
:1026C0007400314605F042FB84F8105E144D94F816
:1026D000CB0D1835A4F8EA0CA5F1AA0300951A1F32
:1026E000911E01F1460004F0A6FBA5F182002946E7
:1026F00005F02CFB94F8100E401CFF2800DDFF2095
:1027000084F8100E94F80F0E401CFF2800DDFF2007
:1027100084F80F0EF8BD00004800002098830008E0
:10272000840D0020BC8200084C49002010B586B002
:102730006A4691F848308DF8003091F849308DF8AC
:10274000013091F84A308DF8023091F84B308DF815
:1027500003300C181318401C94F84C4010281C71BE
:10276000F7DB104605F0B2FC3D4B002293F80A0D52
:10277000E8B3002002EB820100EB800003EB810153
:1027800002EB800000EB800091F8764503EB8000BF
:1027900080F8C64091F8774580F8C74091F87845B1
:1027A00080F8C84091F8794580F8C94091F87A4599
:1027B00080F8CA4091F87B4580F8CB4091F87C4581
:1027C00080F8CC4091F87D4580F8CD4091F87E4569
:1027D00080F8CE4091F87F4580F8CF4091F8804551
:1027E00080F8D04091F8814580F8D14000E030E099
:1027F00091F8824580F8D24091F8834580F8D34023
:1028000091F8844580F8D44091F8854580F8D5400A
:1028100091F8864580F8D64091F8874580F8D740F2
:1028200091F8884580F8D84091F8891580F8D9103A
:10283000521C142A9ADB93F80A0D60B15FF0000075
:1028400083F80A0D074890EDCC0B80EDD20B06B053
:1028500010BD01208EE70120F2E70000600E00208D
:1028600048000020480400202DE9F04FA64C89B014
:102870000125224602F6D15094F8F5CD02F6D25148
:10288000009002F1B90BD2F85C0B002303910327EF
:1028900092F8FBAD411E92F8F79D0226EA07BCF1C3
:1028A000070F47D2DFE80CF04604F665F6C4F600E1
:1028B000BAF1010FD4460BD0BCF1020F11D0BCF11C
:1028C000030F17D0BAF1040F34D1012835D0C7E077
:1028D000012873D184F8FD3D84F8FB3D84F8F56D43
:1028E000D5E001286AD184F8FB7D00F0A7F9C4F88F
:1028F0005C0BCCE0012861D184F8FB5D00F09EF90F
:10290000C4F85C0B94F8D30D512894F8FD0D07D250
:1029100001280FD0502084F8FD5DFEF789FA03E00E
:10292000022807D084F8FD6D04A9009A5B4603983D
:1029300000F04EF909B0BDE8F08F84F8FC3D84F852
:10294000FB6D00F07BF9714AC4F85C0B511E481E08
:1029500000F00AF994F8DB0D84F8D10D94F8D90D44
:1029600084F8D20DE6E7C4F85C2BE3E7C4F85C1BFF
:10297000E0E7D4F8501B0420022920D00029D9D147
:10298000BAF1040F84F8F55D05D084F8FB0D00F072
:1029900055F9C4F85C0B94F8F30D032837D00428DC
:1029A00043D000BF94F8D30D3C283ED894F8FC0DDA
:1029B0000128BFD03C2084F8FC5D33E050E094F85F
:1029C000C61D0529B6D2052284F8F52DB9F1040FEC
:1029D0000BD084F8F70D00F031F94D49884201DD44
:1029E000481C00E0401CC4F85C0B94F8F30D03286D
:1029F00094F8FA0D06D001289CD084F8FA5DFEF711
:102A0000F3FA97E7022895D084F8FA6D09E094F874
:102A1000D30D5028C6D894F8FC0D03288AD084F82A
:102A2000FC7D5020FEF704FA84E784F8FC6D81E712
:102A3000B9F1010FCC460BD0BCF1020F13D0BCF1A1
:102A4000030F30D0B9F1040F8CD1012836D007E044
:102A5000012805D184F8F73D062084F8F50D16E02D
:102A6000904283DC7FE70128FAD184F8F93D84F8AD
:102A7000F77D00F0E3F8C4F85C0B94F8F30D03283D
:102A800094F8F80D07D00128BBD084F8F85D00F069
:102A9000B3F84FE734E00228B3D0002084F8F86D93
:102AA000FEF7C6F9F3E70128DAD184F8F83D84F897
:102AB000F75D00F0C3F8C4F85C0B35E784F8FA3D25
:102AC00084F8F76D00F0BAF80F4FC4F85C0B94F877
:102AD000F30DBC37032894F8F90D06D0012890D0E7
:102AE00084F8F95DFEF798FA03E0022889D084F8AB
:102AF000F96D04A9009A3B46039800F08BF819E79A
:102B000084F8F57D16E7000048000020230E002021
:102B1000FEFFFF7F10B5002303700B7001241470BB
:102B20000421084C1A46204601F0ECF90022204608
:102B3000082101F0E7F901222046BDE810400221FA
:102B400001F0E0B90010024008B5684600F002F854
:102B500008BD00000021017002480A46022101F070
:102B6000D1B900000010024010B500240470012308
:102B70000B7013702246084C0421204601F0C2F964
:102B800001222046082101F0BDF901222046BDE8BE
:102B90001040022101F0B6B90010024010B5012327
:102BA000037000240C70094C042113701A4620464F
:102BB00001F0A8F900222046082101F0A3F9012222
:102BC0002046BDE81040022101F09CB900100240EF
:102BD0002DE9F0411C4615469A1C0E46591C074625
:102BE0002046FFF797FFA07828702078387060782B
:102BF0003070BDE8F0810000044810B5FFF7AAFF6F
:102C0000034890F8DC1D80F8D11D10BD240E002073
:102C1000480000202DE9F0411C4615469A1C0E463E
:102C2000591C07462046FFF7B9FFA0782870207886
:102C3000387060783070BDE8F08100002A4908469D
:102C400091F8F72D90F8F30D042A10D0022A16D02F
:102C5000032A2FD0012A35D091F8FB0D042839D052
:102C600002283AD003283BD0D1F80C08704703283B
:102C700002D0D1F820087047D1F8300870470328F7
:102C80000FD091F8C62D012A0ED01748022AD0F88D
:102C90001408F3D0032A0AD0042AEFD1D1F81C0873
:102CA0007047D1F82C087047D1F810087047D1F858
:102CB00018087047032802D0D1F824087047D1F8CB
:102CC000E8077047032802D0D1F828087047D1F8E8
:102CD000EC077047D1F804087047D1F80008704736
:102CE000D1F8080870470000480000207047000035
:102CF000F8B50025009590F83C20012A18D0012253
:102D000080F83C200A6807234E4C0668092A1AD925
:102D10000A3A02EB4207F268BB409A43F2600E683F
:102D20000268A64206D10B7AD66846EA036308E039
:102D30000220F8BD0A3E8B68D76806EB4606B34012
:102D40003B43D3600EE002EB42073269BB409A433B
:102D5000326103680E788A681F6906EB4606B24046
:102D60003A431A614A681F23072A13D20668521E83
:102D700002EB8207726BBB409A43726303680E7961
:102D80000A88761E5F6B92B206EB8606B2403A4323
:102D90005A6327E006680D2A12D2D21F02EB82077F
:102DA000326BBB409A43326302680E790B88F61F80
:102DB000176B9BB206EB8606B3403B43136311E0EF
:102DC0000D3A02EB8207F26ABB409A43F262026854
:102DD0000E790B880D3ED76A9BB206EB8606B34090
:102DE0003B43D362184A0368934208D10B68122B05
:102DF00005D1D2F8043343F48003C2F804330368E6
:102E000093421AD10B68A34201D0112B15D1D2F8ED
:102E1000043343F40003C2F804330968A1420CD11F
:102E20000A490B4A0968B1FBF2F101EB8101490043
:102E300000E0491E00910029FBD180F83C500020A1
:102E4000F8BD0000120000100020014040000020EA
:102E500040420F0000680349884201D1FFF708BBD8
:102E600070470000002001407047704770B504466D
:102E7000006801684268C1F34001C2F3401251B3D7
:102E80004AB3216CC90603D4216C41F4007121645A
:102E9000816811F0405F17D1A169A9B9C16A11F425
:102EA000700F02D0816849050ED4416821F02001DD
:102EB0004160206C20F480702064206CC00403D436
:102EC000206C40F0010020642046FFF7C3FF21681A
:102ED0006FF012000860206801684268C1F3800149
:102EE000C2F3C01289B382B3216CC90603D4216C2A
:102EF00041F400512164816811F4401F1ED1816B9F
:102F000011F4401F02D08168490517D44168490572
:102F100014D4816811F0405F10D1A16971B9416882
:102F200021F080014160206C20F480502064206CEE
:102F3000C00503D4206C40F0010020642046FFF758
:102F4000D5FE21686FF00C000860206801684368B6
:102F500011F0010FC3F380110ED069B10068C007F2
:102F60000AD0206C40F480302064204600F046F8FF
:102F700021686FF001000860206801684268C1F3B1
:102F800040110029C2F380620DD0002A0BD0616C81
:102F90006FF0200541F00201616405602046FFF7F3
:102FA00064FF2068056070BD70B504004FF0000537
:102FB00003D0206C002610B107E0012070BD204630
:102FC00000F01EF8666484F83C60206CC00610D4E3
:102FD000206C20F4885040F0020020642046FDF769
:102FE00011FC6664206C20F0020040F001002064B7
:102FF00000E0012584F83C60284670BD7047000061
:10300000F0B587B0064614216846FDF75BF93049F4
:103010003068884259D12F48016841F480710160BD
:1030200000682C4900F4807005901439086840F05D
:1030300004000860086800F004000590086840F08B
:1030400001000860086800F001000590086840F081
:1030500002000860086803240025694600F00200A9
:10306000059013208DE831001B4800F053FEF0203E
:1030700069468DE83100194800F04CFE009469461D
:103080001748CDE9014500F045FE164C16480115DC
:10309000C4E900058715A5600B01C4E9035182143A
:1030A0002046C4E907756562C4E9052300F070FD98
:1030B00008B1FDF7DFFFB46300220421A6631220EC
:1030C00001F096F9122001F085F907B0F0BD00007B
:1030D0000020014044380240000802400000024045
:1030E00000040240D410002010640240F8B50D46E0
:1030F00004460021009190F83C00012807D00120EF
:1031000084F83C0020688368DB0702D011E00220CD
:10311000F8BD8668364B46F0010686603548006883
:10312000B0FBF3F000EB400000E0401E00900028F0
:10313000FBD120688368DB0758D0236C40F201661E
:10314000B34343F4807323644068400505D5206C85
:1031500020F4005040F480502064206CC00404D55A
:10316000606C20F00600606400E061646FF0220093
:1031700084F83C10A36B2049D963A36B1F491964E1
:10318000A36B1F49D964216808602068416841F039
:10319000806141602068816841F4807181602168AC
:1031A0001346A06B2A464C3100F064FD1549D1F856
:1031B0000403C006206811D0884207D1826812F04B
:1031C000405F03D1826842F080428260D1F80403FC
:1031D000C0060BD40C492068884207D1816811F0E1
:1031E000405F03D1816841F0804181600020F8BDDB
:1031F00040420F004000002069070008ED0700086A
:10320000D7070008002001400022014090F820204C
:10321000012A07D0022A05D0416A41F48021416287
:1032200001207047006842690A43426100207047EC
:10323000F0B590F820500468A468012D05D0022D47
:1032400003D0416A41F480215AE014F0406F01D16B
:10325000E50052D5C4F30164022C03D9416A41F45C
:1032600000014DE001264FF4C075A6401E608B683A
:10327000ABB1CE684F68D0F800C0334305EB0416FD
:1032800043EAC7034CF8063007684FF4C27303EBF8
:1032900004130E69FE50097D012909D00DE00E8846
:1032A000CB68076843EA465305EB0416BB51EBE7CE
:1032B0000168CE5846F48076CE50D2F805304FF4EF
:1032C000C67C11790CEB041C06684FF4C47741EA04
:1032D000032107EB041346F80C10167805EB0411D4
:1032E000D2F80120076846EA0222FA5000684258E4
:1032F00042F0010242500020F0BD416A41F4001149
:1033000041620120F0BD000030B590F82030026825
:10331000012B07D0022B05D0416A41F48021416284
:10332000012030BD3E4C3F48A24200D00246D2F8B8
:103330000032824243F00103C2F800320CD1D2F8CD
:10334000000220F47C50C2F80002D2F800024B6A5E
:1033500040EA0320C2F800020C7D0120D2F81C32A2
:1033600004F01F04A0408343C2F81C32CB69B3B9F8
:10337000D2F80C328343C2F80C328C894B684D6909
:1033800064F31F4302EBC504C4F840320C890B6898
:103390004D6964F31F4302EBC504C4F84432CB69A2
:1033A000012B16D1D2F80C320343C2F80C320C8830
:1033B0004B684D6964F31F4302EBC504C4F8403207
:1033C0000C89CB684D6964F31F4302EBC504C4F854
:1033D00044328B69002BD2F804320FD053EA000339
:1033E000C2F804320B69002BD2F8143208D0034320
:1033F000C2F81432096A012904D008E08343EFE7D8
:103400008343F5E7D2F81C120143C2F81C12D2F82C
:10341000000220F00100C2F80002002030BD0000D0
:10342000003400400064004070470000F0B590F8A0
:103430002040012C05D0022C03D0416A41F48021A8
:1034400066E0046800295ED02469A4075DD00568A1
:103450004FF4D87404EB01142D5915F00405956050
:1034600005682D5957D0ED08C2F8045007684FF48D
:10347000DA754FF4DC7C4FF4DE763C59002905EB1D
:103480000115C4F34007D7600CEB011406EB0111E2
:103490000668765906F00F06166106687659C6F377
:1034A00007269661066875594FEA15455561026809
:1034B00012591A70026812594FEA12225A700268A1
:1034C00012594FEA12429A70026812594FEA126278
:1034D000DA70026852581A71026852584FEA122282
:1034E0005A71026852584FEA12429A710268515852
:1034F0004FEA1161D971006810D0016941F02001D3
:1035000001610020F0BDE4689FE7416A41F40011C9
:1035100041620120F0BD6D0D1560A7E7C16841F063
:103520002001C160EDE72DE9F05F05460068002449
:103530004669D0F804908768D0F80CB0D0F810A095
:10354000F207D0F8188048D0F90714D00121816023
:10355000BA0703D5284600F032FA0CE0780702D506
:103560004FF4006407E0380702D54FF4805402E0BE
:10357000284600F023FAF80516D52868BA054FF456
:103580008071816003D5284600F01BFA0CE07805B5
:1035900002D544F4005407E0380502D544F48044D1
:1035A00002E0284600F00CFAF80316D52868BA03A2
:1035B0004FF48031816003D5284600F004FA0CE016
:1035C000780302D544F4004407E0380302D544F4FC
:1035D000803402E0284600F0F5F9300707D55FEAAD
:1035E000CB6004D52968102044F40074C8607007CB
:1035F0004FF0080707D55FEA0B7004D52868C7604D
:10360000284600F075F9B00706D52868C06880071D
:1036100002D0284600F06EF9700607D55FEACA604E
:1036200004D52968102044F480640861B00607D5E9
:103630005FEA0A7004D528680761284600F08EF911
:10364000F00606D528680069800702D0284600F0F9
:1036500086F9B00308D55FEAC96005D5296810204E
:103660004860284600F07CF9F00307D55FEA09704E
:1036700004D528684760284600F0A6F9300446D5EE
:103680005FEA497040D5F00504D55FEAC87001D003
:1036900044F00104B00504D55FEA887001D544F018
:1036A0000204700504D55FEA487001D544F00404B3
:1036B000300529D518F0700F26D008F0700040288A
:1036C00015D006DC102809D020280AD0302816D1C1
:1036D0000AE050280ED0602811D10EE044F0080412
:1036E0000DE044F010040AE044F0200407E044F048
:1036F000400404E044F0800401E044F4807428684D
:10370000816921F070018161296804204860002CE2
:1037100005D0686A204368622846FFF785FEBDE849
:10372000F09F70B5040003D094F8200010B104E0BD
:10373000012070BD204600F081F82068016821F06A
:103740000201016000F0E4FB0526054604E000F0FC
:10375000DFFB401B0A2811D8206840688007F6D498
:103760002068016841F00101016000F0D1FB0546CD
:103770000BE000F0CDFB401B0A2806D9606A40F43C
:103780000030606284F82060D2E720684068C0079B
:10379000EFD0207E0128206801683DD021F0800113
:1037A0000160607E01282068016838D021F0400166
:1037B0000160A07E01282068016833D021F020013B
:1037C0000160E07E0128206801682ED041F01001E0
:1037D0000160207F01282068016829D021F00801BC
:1037E0000160607F01282068016824D021F0040175
:1037F0000160D4E90110D4E903326569491E184318
:1038000023682A43104300220843D86101216262E1
:1038100084F82010104670BD41F08001C0E741F0EF
:103820004001C5E741F02001CAE721F01001CFE7D0
:1038300041F00801D4E741F00401D9E710B586B0A2
:10384000044614216846FCF73DFD2649206888425D
:1038500046D12548016841F400510160016801F436
:1038600000510591016841F080610160016801F03B
:1038700080610591016841F000710160006800F00D
:103880000070059018481038016841F0020101608D
:1038900000680221002200F00200059003230924A1
:1038A0004FF440508DE81F001048694600F032FA8E
:1038B000002202213F2000F09BFD3F2000F08AFD06
:1038C00000220121402000F093FD402000F082FD05
:1038D00000220121412000F08BFD412000F07AFD03
:1038E00006B010BD006800404038024000040240AD
:1038F0007047000010B572B6144B0021144A02F153
:103900003400FFF793FD124812490088020A0A7634
:103910000E4A4876022014180B18401C14F8024C6A
:103920000A281C76F7DB91ED040BB0EE001BB4EE19
:10393000410BF1EE10FA01D1FEF75CFA06484FF4A4
:10394000806100F0D8FA62B610BD000000000020CF
:103950005C110020600E0020000C02407047704790
:103960007047000070B5044690F82000012804D08C
:10397000606A40F40020606218E0022084F82000B1
:103980002068016821F00101016000F0C1FA0546DC
:103990000EE000BF00F0BCFA401B0A2808D9616A9B
:1039A000052041F40031616284F82000012070BDDF
:1039B00020684068C007EDD1606270BD70477047F5
:1039C0007047704770477047704790F8351002296C
:1039D00003D08021416501207047052180F8351012
:1039E0000068016821F001010160002070470000BB
:1039F0002DE9F84304464FF00009644B0820CDF848
:103A000000904FF41652A56D94F85C101B682E6858
:103A1000B3FBF2F700FA01F131420FD021680A68D6
:103A200052070BD50A6822F004020A6094F85C1071
:103A30008840A860606D40F00100606594F85C10FB
:103A40004FF0010808FA01F0304208D021684969B6
:103A5000090604D5A860606D40F00200606594F826
:103A60005C1004208840304208D02168096889072A
:103A700004D5A860606D40F00400606594F85C10A7
:103A800010208840304218D021680968090714D5F1
:103A9000A86020680168490304D50068000308D5C0
:103AA000A16C07E00168C90503D4016821F0080191
:103AB0000160216C09B12046884794F85C102020F1
:103AC0008840304231D021680968C9062DD5A860E8
:103AD00094F8350005282068016806D0490347D5C9
:103AE000006800031DD4616C1CE021F01601016028
:103AF0002068416921F080014161206C08B9A06C07
:103B000020B12068016821F00801016094F85C3060
:103B10003F229A40AA6084F8349084F83580216D61
:103B20001FE0E16B09B120468847606D00282BD06B
:103B3000606DC00714D0052084F835002068016846
:103B400021F0010101600098401C0090B84203D8A8
:103B500020680068C007F6D184F8349084F8358076
:103B6000E16C002910D001B02046BDE8F0430847C1
:103B70000168C905D5D4036823F01003036084F8F5
:103B8000349084F83580CCE7BDE8F883400000200D
:103B90002DE9F047044600F0BBF9054664B14FF04B
:103BA000000984F83490022184F8351020680168F7
:103BB00021F0010101600EE00120BDE8F08700BFA7
:103BC00000F0A6F9401B052805D9202161650320D6
:103BD00084F83500F1E720680068C007F0D1D4E927
:103BE0000020D4E90251D4E9043C284304F118052B
:103BF00019430843116895E8E00140EA0C001C4BAA
:103C00002843194040EA060040EA0700B8F1040FD3
:103C100040EA010003D1D4E90B13194308431060B3
:103C200020680126656A4069042D20F0070045EAF6
:103C300000050CD1D4E90A01054341B12046FDF746
:103C400029F920B14020606584F83560B4E7206828
:103C500045612046FDF70AF994F85C303F229A400E
:103C60008260C4F8549084F835600020A5E7000015
:103C70003F8010E02DE9F041044690F83400002523
:103C80000128A66D0ED094F835C00127002084F8D5
:103C90003470BCF1010F07D0022584F834002846A7
:103CA000BDE8F0810220FBE7022784F835706065EB
:103CB0002046FDF719F994F85C103F208840B06069
:103CC0002068016841F0160101602068416941F0F7
:103CD00080014161206C20B12068016841F0080139
:103CE00001602068016841F001010160D7E7000030
:103CF00070B5044600F00CF90546601C02D004487B
:103D00000078044400F004F9401BA042FAD370BDCF
:103D1000340000202DE9F84FDFF89CE100224FF03D
:103D200001084FF0030B4FF00F0A00BF0B6808FAB1
:103D300002F42340A34271D14D68022D01D0122D0F
:103D40000FD1D5080E69570700EB8505A9462D6AE6
:103D5000FF0E0AFA07FCBE4025EA0C052E43C9F8FF
:103D600020600F79550006680BFA05FC07F0030781
:103D700026EA0C06AF40374307604E68012E05D097
:103D8000022E03D0112E01D0122E0ED18668CF68DC
:103D900026EA0C06AF403743876046680F79A64392
:103DA000C7F30017974037434760C4688E6824EA1A
:103DB0000C04AE402643C6604C68E40075D53F4C09
:103DC000256845F480452560246822F003069507A0
:103DD00004F4804400943A4C2D0F2644D6F8084849
:103DE000DFF8E0C00AFA05F7604524EA070401D1CC
:103DF00000272EE0344FB84201D1012729E0334F8C
:103E0000B84201D1022724E0314FB84201D1032743
:103E10001FE0304FB84202D104271AE045E02E4F90
:103E2000B84201D1052714E02C4FB84201D1062732
:103E30000FE02B4FB84201D107270AE0294FB842C3
:103E400001D1082705E0284FB84201D1092700E039
:103E50000A27AF4027437546C6F808784E68DEF853
:103E60000040F60324EA030400D51C43124E2C60E4
:103E7000361D4D683468AD0324EA030400D51C43A5
:103E80000D4F346008374D683C68ED0224EA0304A6
:103E900000D51C43084D3C600C354E682C68B602BA
:103EA00024EA030400D51C432C60521C102AFFF4A2
:103EB0003DAFBDE8F88F0000003C014044380240AF
:103EC00000300140000002400004024000080240AF
:103ED000000C024000100240001402400018024092
:103EE000001C0240002002400024024000690840FB
:103EF00000D001207047426931EA020200D1090472
:103F0000816170470AB1816170470904FBE70000D5
:103F100001488068704700003400002030B590F8F8
:103F20004120202A24D190F84020012A20D00123CA
:103F300080F84030242280F84120202300240268A9
:103F4000156825F0010515600268156825F480558F
:103F50001560026815680D43156001680A6842F033
:103F600001020A6080F8413080F84040002030BDF6
:103F7000022030BD30B590F84120202A22D190F89F
:103F80004020012A1ED0012380F84030242280F8EE
:103F90004120202400250268136823F001031360E8
:103FA0000268136823F4706343EA01211160016819
:103FB0000A6842F001020A6080F8414080F84050EF
:103FC000002030BD022030BD704770470268436B4F
:103FD00091691268002B00D01847704770470000A5
:103FE00070B5040004D094F84100002510B106E03B
:103FF000012070BD204684F8405000F063F9242071
:1040000084F841002068016821F001010160D4E9D1
:10401000001020F0706008612068816821F4004180
:104020008160E06821680128A06806D040F404405F
:104030008860E068022803D006E040F40040F7E71B
:1040400021684FF40060486020212068114A4368CD
:10405000134343602068C26822F40042C26054F8EF
:10406000106B0DCC104340EA0320F06054F81C3C68
:10407000D4E900021043186054F81C0D026842F0A5
:1040800001020260656484F84110256384F842509F
:10409000002070BD00800002704770477047704775
:1040A000704700002DE9FF4F83B0044690F84100AF
:1040B0009A469346DDE91087DDF84890202874D1B0
:1040C0005FEA080014D09FB194F8400001286CD03A
:1040D000012084F84000FFF71BFF01220646192348
:1040E0000090D103204602F069FA002871D103E064
:1040F0004FF4007060646CE00025C4F82480222135
:1041000084F84110402084F8420065646785534676
:1041100065635A4604992046CDE9009602F0D2F82C
:1041200010B184F8405054E0618DFF2734484FF0BF
:104130008078FF294FF0007A04D927853A46434614
:10414000009005E0618D53462185009094F8282069
:104150002046049902F01CFA00224B460421204616
:10416000009602F02BFAA0BB2068616A406A0870D2
:10417000606A401C6062208D401E81B22185608D86
:10418000401E6085608DD8B1D1B900224B46802198
:104190002046009602F012FAD8B9608DFF2805D9A2
:1041A00027853A464346009506E026E0608D534653
:1041B0002085009594F828202046049902F0E8F91B
:1041C000608D0028C8D132464946204602F023FAC5
:1041D00018B1012007B0BDE8F08F21682020094AFE
:1041E000C86121684B6813404B6084F8410084F833
:1041F0004250002084F84050ECE70220EAE700003B
:104200000024008000E800FE2DE9FC47044690F8F9
:10421000410098469146DDE90A758A4620284BD12F
:104220001FB315B320688069C043000444D594F8D7
:104230004000012840D0012084F840002434FFF7DA
:1042400067FE00262122627740211C4A2760A17761
:104250002662E580A260E28819492161243CFF2A98
:1042600007D9FF214FF0807506E04FF400706064BD
:104270000FE0618D4FF0007521851921CDE9001007
:1042800043464A465146204602F04EF820B184F893
:1042900040600120BDE8FC8700962B4694F828205A
:1042A0005146204602F074F90121204684F840600E
:1042B00001F05AFC0020EDE70220EBE70000FFFFD1
:1042C0009D61000810B586B0044614216846FBF7CE
:1042D000F9FF16492068884225D11548016841F048
:1042E0000201016000681221012200F00200059025
:1042F000C020032304248DE81F000E486946FFF701
:1043000009FD0B481030016841F40011016000689C
:104310000022052100F4001005901F2000F068F82D
:104320001F2000F057F806B010BD000000540040F8
:1043300030380240000402407047704702488168EC
:10434000027811448160704734000020032010B5CA
:1043500000F06EF8002000F005F800F023F80020CF
:1043600010BD000070B50D4D04464FF47A700C4A34
:1043700029781268B0FBF1F0B2FBF0F000F0C2FD5A
:1043800048B9102C07D200222146501E00F030F808
:1043900000206C6070BD012070BD00003400002062
:1043A000400000200A4808B5016841F080510160D2
:1043B000006800F0805000900548001D016841F43D
:1043C00080410160006800F48040009008BD00005A
:1043D00040380240002809DB410900F01F02890033
:1043E000012001F1E0219040C1F800017047000078
:1043F0000E4BF0B41B680D46C3F30223C3F107064E
:10440000042E00D90426191D072901D2002300E03B
:10441000DB1E012404FA06F19C40491E2940641E5B
:10442000994014402143F0BC03F048BA0CED00E081
:10443000064900F0070210B54FF6FF040868044B68
:10444000204040EA02201843086010BD0CED00E057
:104450000000FA051848F8B5016841F08051016084
:104460000068164C00F080500090206840F48030C6
:104470002060FFF74DFD4FF47A76054605E000BF5A
:10448000FFF746FD401BB0420FD86068C003F7D568
:10449000206840F400302060FFF73AFD054606E052
:1044A000FFF736FD401BB04201D90320F8BD60681C
:1044B0008003F5D50020F8BD403802400070004070
:1044C0002DE9F84F04460078DFF824944FF00006F9
:1044D0003746C0070ED0D9F8001021F40001C9F802
:1044E0000010D9F80010626B1143C9F80010606B1E
:1044F00000B90126FE4D2068843500030ED5E16B1E
:10450000286820F4401008432860E06BB0F5801F55
:1045100001D010B102E0012600E0012720684FF42D
:10452000800BC0020CD5216C286820F440000843A1
:104530002860206C584501D1012601E000B901270F
:104540002068C10100D50126800666D5E8483830CC
:10455000016841F0805101600068DFF898A300F025
:1045600080500090DAF8001041F48071CAF8001011
:10457000FFF7CEFC804605E0FFF7CAFCA0EB080081
:1045800064287DD8DAF80000C005F5D5DFF860832F
:1045900008F16808D8F8000010F440702AD0218E85
:1045A00001F44071814225D0D8F80010D8F80020DD
:1045B00021F4407142F48032C8F80020D8F800207D
:1045C00022F48032C8F80020C8F80010D8F80000A3
:1045D000C0070FD0FFF79CFC824607E0FFF798FC6E
:1045E000A0EB0A0141F288308142CAD8D8F8000015
:1045F0008007F3D5206BC0F3012103297ED0D9F8C1
:10460000001021F4F811C9F80010228ED8F800101B
:10461000C2F30B021143C8F800102078C00607D57A
:10462000286820F0807028602868A16B0843286003
:104630002188AF488830490405D5626E016821F4AD
:104640004031114301602188090405D5A26E01683B
:1046500021F44021114301602168C90305D5E26EB0
:10466000016821F44011114301602168890305D5D7
:10467000226F016821F4400111430160217800E0BC
:1046800034E1490605D5626C016821F0030111434C
:1046900001602178090605D5A26C016821F00C01A2
:1046A000114301602188C90505D5E26C016821F03C
:1046B0003001114301602188890505D5226D01680B
:1046C00021F0C001114301602188490505D5626DC3
:1046D000016821F44071114301602188090505D565
:1046E000A26D016821F44061114301602188C90471
:1046F00007D5E26D016821F4405100E05FE011430D
:1047000001602188890405D5226E016821F44041A9
:10471000114301602168490205D5A26F016821F0AB
:1047200080611143016021684FF0006A890209D558
:10473000E26F016821F0006111430160E16F5145B2
:1047400000D1012721680A0700D50127490305D5B3
:10475000626F016821F04071114301602168090214
:1047600006D5D4F88020016821F080511143016002
:104770002168490106D5D4F88420016821F0005150
:10478000114301602068000106D5D4F8881028681C
:1047900020F00070084328602068C00006D5D4F8D7
:1047A0008C10286820F0806008432860DFF848916A
:1047B000012E0ED02068B0F1007F0AD08FE04F4A62
:1047C000D9F80030104023F4F8120243C9F8002051
:1047D0001BE7D9F800004E4620F08060C9F80000C1
:1047E000FFF796FB804605E0FFF792FBA0EB080081
:1047F00064287BD830680001F6D421783C487C30AE
:10480000C90712D0616B81B9237A62680168D0F858
:1048100000C09201C1F3014142EA0142CCF30361BD
:1048200042EA016141EA0371016021680A0303D58C
:10483000E26BB2F5801F04D0C9021AD5216C59452C
:1048400017D16368016894F80CC002689B01C1F33A
:10485000014143EA0141C2F3027241EA0C6141EABB
:10486000027101602968626A21F01F01521E114322
:1048700029602168C90110D5238A62680168D0F8CF
:1048800000C09201C1F3036142EA034242EA0162BD
:10489000CCF3027142EA01710160216889010CD5F3
:1048A0006168228A237B94F808C0890141EA0241A9
:1048B00041EA036141EA0C7101603168B04641F0A0
:1048C00080613160FFF724FB064604E0FFF720FB20
:1048D000801B64280AD8D8F800000001F6D5E7B399
:1048E000D9F800004E4620F0805009E07BE000003F
:1048F000083802400070004000380240FFFCFF0F03
:10490000C9F80000FFF704FB074604E0FFF700FBCF
:10491000C01B642867D83068C0438000F6D5216882
:1049200035480A0301D5E26B1AB1C9021DD5216CC5
:10493000D9B963690168277E02689B01C1F301410F
:1049400043EA0143C2F3027143EA076242EA01719A
:10495000016029686FF0FF0300E04BE0A26A21F4D8
:10496000F85103EB0222114329602168890212D514
:10497000E16F51450FD1238C62690168076892018C
:10498000C1F3036142EA034242EA0162C7F30271E2
:1049900042EA017101602178090716D56169026850
:1049A000D0F800C08B01277FC2F30362CCF3014132
:1049B00043EA014141EA026141EA07710160286866
:1049C000E16A20F4403008432860306840F08050AD
:1049D0003060FFF79DFA044608E000BFFFF798FA41
:1049E000001B642802D90320BDE8F88F3068C0435B
:1049F0008000F3D40020F7E7883802402DE9F04723
:104A000005000F4663D0444E306800F00F00B842F6
:104A100009D2306820F00F0038433060306800F071
:104A20000F00B84253D128683C4C810712D540078B
:104A300003D5206840F4E05020602878000703D5B3
:104A4000206840F460402060A968206820F0F000F1
:104A5000084320602878C0072AD0304968680839A0
:104A6000012810D00968022810D0890700292EDA01
:104A7000216821F0030101432160FFF749FA8046D4
:104A800041F288390DE009688903EFE78901EDE714
:104A9000FFF73EFAA0EB0801494502D90320BDE823
:104AA000F0876868216801F00C01B1EB800FEFD14D
:104AB000306800F00F00B8420BD9306820F00F00CA
:104AC00038433060306800F00F00B84201D0012058
:104AD000E5E72878400705D5E968206820F4E0502C
:104AE000084320602878000706D52869216821F44A
:104AF000604141EAC000206000F036F82168084AB1
:104B0000C1F30311515CC840064908600020FFF75B
:104B100029FC0020C3E70000003C024008380240A6
:104B2000C88300084000002004490548096800685F
:104B3000044AC1F38221515CC840704708380240E2
:104B400040000020D883000804490548096800682F
:104B5000044AC1F34231515CC840704708380240F2
:104B600040000020D8830008154910B51548096891
:104B700011F00C0213D04110042A0FD0082A0ED1D4
:104B80000F4C241F2268236802F03F025B0207D506
:104B90002068C0F38810A0FB010106E0084610BDA4
:104BA0002168C1F38811A1FB00010023FBF740FB42
:104BB0002168C1F30141491C4900B0FBF1F010BD6F
:104BC000083802400024F4002DE9F84F05004FF0AA
:104BD00000076ED02878DFF82093A9F1040AC007F7
:104BE000AAF104044CD0D9F800104846C1F3810161
:104BF000012908D00068C0F3810002280AD1DAF840
:104C00000000400206D52068800339D56868002876
:104C1000DFD035E06868B0F5803F0BD010B1B0F55B
:104C2000A02F11D0206820F480302060206820F46C
:104C3000802002E0206840F480302060686890B1F5
:104C4000FFF766F906460AE0206840F480202060FD
:104C5000F0E700BFFFF75CF9801B642872D820687A
:104C60008003F7D50CE0FFF753F9064605E000BFD7
:104C7000FFF74EF9801B6428F0D820688003F7D432
:104C80002878800742D5D9F80010484611F00C0F5B
:104C900008D00068C0F3810002280BD1DAF80000C8
:104CA000400207D42068800718D5E868012800D1A1
:104CB00014E01EE1E8680028206817D040F00100E9
:104CC0002060FFF725F9064605E000BFFFF720F951
:104CD000801B0228C2D820688007F7D52869216880
:104CE00021F0F80141EAC00020600FE020F001004F
:104CF0002060FFF70DF9064605E000BFFFF708F951
:104D0000801B02281ED820688007F7D42878000767
:104D100029D5794869696C3000298046016812D02C
:104D200041F001010160FFF7F3F8064605E000BF1E
:104D3000FFF7EEF8801B022804D8D8F8000080079F
:104D4000F6D510E089E021F001010160FFF7E0F8FD
:104D5000064604E0FFF7DCF8801B02287DD8D8F86F
:104D600000008007F6D4287840076BD5DFF88881EB
:104D700008F13808D8F80000C0000BD4D8F80010AB
:104D800041F08051C8F80010D8F80000012700F069
:104D90008050009059480168C90512D401688346C3
:104DA00041F480710160FFF7B3F8064605E000BFEB
:104DB000FFF7AEF8801B64284FD8DBF80000C00571
:104DC000F6D54D4EA868683601280AD008B10528E6
:104DD00011D0306820F001003060306820F004000D
:104DE00002E0306840F001003060A868A0B1FFF731
:104DF0008FF883460CE0306840F004003060F0E744
:104E0000FFF786F8A0EB0B0141F28830814268D8A9
:104E100030688007F4D50EE0FFF77AF8834607E0A4
:104E2000FFF776F8A0EB0B0141F28830814258D8A9
:104E300030688007F4D42FB1D8F8001021F08051E9
:104E4000C8F80010A869E0B3D9F80010C1F38101D7
:104E500002294ED00228206800E042E020F0807055
:104E6000206003D0FFF754F805463DE0FFF750F807
:104E7000064604E0FFF74CF8801B022831D8206872
:104E80008001F7D4D5E90921DFF874C0D5E9070618
:104E900095F830304F0895F82C1030430CEB07454F
:104EA00045EA8212104340EA016040EA0370CAF802
:104EB0000000206840F080702060FFF729F8054668
:104EC00005E014E0FFF724F8401B022809D8206809
:104ED0008001F7D50BE000BFFFF71AF8401B02284E
:104EE00002D90320BDE8F88F20688001F4D40020A7
:104EF000F8E70120F6E700000838024000700040A3
:104F00000000FFFF401EB0F1807F10B501D30120EB
:104F100010BD4FF0E02460610F21601702F0CEFC5D
:104F20000020A0610721216110BD704770477047C4
:104F30002DE9F04390F83C20012A42D0012280F86C
:104F40003C2051F80C4BDFF880804FF0000991E8CD
:104F5000680051E9022723F44073B1F80CC03B43C9
:104F6000CF6923F480631343026823F4006323436F
:104F700023F4805343EA050323F4005343EA060372
:104F800023F4804343EA07030C3923F4702342459A
:104F900043EA0C4302D00D4CA2420CD18D8C23F479
:104FA0007006D1E9073446EA055121F080711943B2
:104FB00021F000732343536480F83C900020BDE847
:104FC000F0830220FBE700000000014000040140E4
:104FD00070B590F83C20012A24D0134C012580F8AC
:104FE0003C50022280F83D2002685368A242966835
:104FF00002D00E4CA24203D14C6823F47003234329
:105000000C6823F0700389681C435460002326F069
:10501000800602683143916080F83D5080F83C3052
:10502000184670BD022070BD000001400004014020
:1050300010B5040003D094F83D0010B107E0012042
:1050400010BD002084F83C00204600F00DF802203E
:1050500084F83D002068211D01F0D4FF012084F870
:105060003D00002010BD000008B500680B498842D3
:1050700012D10B48016841F0100101600068002264
:10508000012100F0100000903620FFF7B1F9BDE8D3
:1050900008403620FFF79EB908BD00000010004010
:1050A000403802400168094ACB6843F00103CB60F5
:1050B000016888681040062806D0B0F5803F03D00C
:1050C000086840F0010008600020704707000100F8
:1050D000704770B50446006800250169C943890717
:1050E00015D4C168C943890711D4EA1E02610121A0
:1050F0002177206880698007204602D0FFF7E8FF0B
:1051000004E000F034F9204600F026FA2577206804
:105110000169C943490717D4C168C943490713D472
:1051200002216FF00402026121772068806910F487
:10513000407F204602D0FFF7CBFF04E000F017F9D4
:10514000204600F009FA257720680169C94309075C
:1051500016D4C168C943090712D404216FF00802AC
:10516000026121772068C0698007204602D0FFF7DE
:10517000AFFF04E000F0FBF8204600F0EDF92577E2
:1051800020680169C943C90617D4C168C943C90663
:1051900013D408216FF01002026121772068C069E2
:1051A00010F4407F204602D0FFF792FF04E000F0A9
:1051B000DEF8204600F0D0F9257720680169C94360
:1051C000C90708D1C168C943C90704D1891E016153
:1051D000204600F0E9F920680169C943090609D4AD
:1051E000C168C943090605D46FF0800101612046FA
:1051F000FFF79CFE20680169C943C90509D4C1684D
:10520000C943090605D46FF4807101612046FFF798
:105210008CFE20680169C943490609D4C168C943A5
:10522000490605D46FF040010161204600F0EEF917
:1052300020680169C94389060BD4C168C94389063E
:1052400007D46FF0200101612046BDE87040FFF7F0
:105250006EBE70BD30B587B0044614216846FBF7BA
:1052600031F824680022214802231F490125844285
:1052700011D1086840F0100008600868694600F025
:10528000100005904FF4C4400090CDE90132184859
:10529000CDE9032524E01748B4F1804F12D0164D14
:1052A000AC421FD10C6844F001040C60096801F0A5
:1052B0000101059108210091CDE90132CDE90323D7
:1052C00069460DE00C6844F001040C600968009325
:1052D00001F00101CDE901320392CDE904516946A3
:1052E000FEF718FD07B030BD303802400000014025
:1052F0000010024000000240000C004070B504465F
:1053000090F83C0001280ED0012584F83C50022082
:1053100084F83D000C2A19D007DC5AB1042A0DD0BC
:10532000082A1ED10EE0022070BD102A12D0142AC5
:1053300017D113E0206801F0D9FE12E0206801F0D7
:105340000FFF0EE0206801F047FF0AE0206801F03F
:105350007FFF06E0206801F0A7FF02E0206801F06F
:10536000CFFF002084F83D5084F83C0070BD7047AA
:1053700010B5040003D094F83D0010B107E00120FF
:1053800010BD002084F83C00204600F00CF80220FC
:1053900084F83D002068211D01F034FE012084F8CE
:1053A0003D00002010BD704770B5044690F83C00E9
:1053B0000D4601280ED0012684F83C60022084F8B6
:1053C0003D000C2A45D007DC5AB1042A1BD0082A1C
:1053D00078D12CE0022070BD102A4ED0142A71D151
:1053E0005DE0206801F082FE2068816941F00801DB
:1053F00081612068816921F00401816120682A6946
:105400008169114311E0206801F0AAFE20688169DA
:1054100041F4006181612068816921F480618161CA
:1054200020682969826942EA012181614AE0206895
:1054300001F0D2FE2068C16941F00801C161206815
:10544000C16921F00401C16120682A69C169114361
:1054500011E0206801F0FCFE2068C16941F40061A0
:10546000C1612068C16921F48061C1612068296936
:10547000C26942EA0121C16124E0206801F014FF01
:105480002068416D41F0080141652068416D21F0BF
:105490000401416520682A69416D114311E02068CB
:1054A00001F02EFF2068416D41F4006141652068E4
:1054B000416D21F48061416520682969426D42EAAD
:1054C00001214165002084F83D6084F83C0070BDF6
:1054D00010B5040003D094F83D0010B107E001209E
:1054E00010BD002084F83C00204600F00DF802209A
:1054F00084F83D002068211D01F084FD012084F81E
:105500003D00002010BD000008B501680E48814232
:1055100001D10E480FE00E48B1F1804F0BD00D4A7B
:10552000914207D1016841F008010160006800F074
:105530000800009008BD016841F0010101600068A9
:1055400000F00100F5E7000000000140443802408F
:1055500040380240000C00407047000010B50122A6
:105560000446006801F0B4FD0C492068884202D06E
:105570000B49884203D1416C41F4004141642068E9
:10558000084A81681140062906D0B1F5803F03D052
:10559000016841F001010160002010BD00000140E0
:1055A000000401400700010070B5006814498842FA
:1055B00024D1144C6068401C6060A068401CA0604E
:1055C000E068401CE060FBF70FFF606800253228B0
:1055D00004DB207808B1FCF7B7FE6560A068B0F581
:1055E000FA7F05DB08484FF40071FEF784FCA560E4
:1055F000E0680A2802DBFCF7AFFFE56070BD000041
:105600000010004010000020000C0240704770475E
:105610002DE9F041026804460025D06911689368BD
:1056200010F00F0F5BD003F0010601F490773743C1
:1056300069D0C70707D0CF0505D501271762E26FEC
:1056400042F00102E267820708D5DA0706D0276830
:1056500002223A62E26F42F00402E267420708D592
:10566000DA0706D0236804221A62E26F42F00202CF
:10567000E26702070AD501F02002324306D0236810
:1056800008221A62E26F42F00802E267E26F002A23
:1056900032D0800605D5880603D5216E09B1204693
:1056A00088472168E06F8968490601D4000725D53D
:1056B000204601F022FF20688168490619D58168DB
:1056C00021F040018160E06E98B11A490165E06EF9
:1056D000FEF77BF900280FD0E06E016D06E083062F
:1056E00011D58B060FD5216E12E02046BDE8F041A2
:1056F00008472046FFF78BFFBDE8F0812046FFF703
:1057000086FFE567F8E7030605D50B0603D5616E4E
:105710000029EAD1F0E74006EED54806ECD513683B
:105720002021204623F0400313606167656600F086
:10573000D1F9E1E76974000810B5040002D0606F88
:1057400010B107E0012010BD002084F87000204651
:1057500000F026F8242060672068016821F001012C
:105760000160204601F03CFF0128ECD0606A10B1D6
:10577000204601F0F7FD2068416821F49041416026
:105780002068816821F02A0181602068016841F069
:10579000010101602046BDE8104001F047BE000055
:1057A00070B586B0064614216846FAF78BFD22498B
:1057B000306888423ED12148016841F400210160EF
:1057C000006800F4002005901C481038016841F082
:1057D0000401016000680025022100F0040005902A
:1057E0004FF4406008238DE8230003221448CDE9DC
:1057F00003236946FEF78EFA124C402212484FF0FE
:10580000006184E8270003152046C4E90435A5613A
:10581000E56125626562FEF7BBF908B1FBF72AFC7A
:10582000B46600220621A6633420FEF7E1FD342091
:10583000FEF7D0FD06B070BD004C0040403802407D
:1058400000080240A41300207060024070B5836F0E
:10585000202B4BD1B9B1B2B190F87030012B45D0AB
:105860008368012680F87060002441653503046672
:10587000AB42A0F85820A0F85A204FF0FF0107D102
:10588000026912B126E0012070BD40F2FF1121E053
:105890004FF07F02E3B1B3F1805F1ED0A0F85C400F
:1058A0002221C467816701688A6842F001028A6028
:1058B0008168A94201D10169B1B10D49016680F841
:1058C00070400068016841F490710160002070BD73
:1058D000036933B9A0F85C10E2E7016909B13F211F
:1058E000F8E7A0F85C20DBE70249E7E7022070BD9B
:1058F000857500082B7500082DE9F04772B64B4CF2
:1059000000264B4A4FF00109651C237843B14948F2
:10591000012B494F4FF4006109D0022B21D034E014
:1059200068782870A87868701078A8702DE05FF00B
:105930000003267012F803C007F803C05B1C0A2B93
:10594000F8DBFEF7D8FAC4F8109097ED040BB7EE29
:10595000001BB4EE410BF1EE10FA16D1FCF74AFA37
:1059600013E0334B26700A335FF0000207EB0208A6
:1059700013F802C0521C142A88F848C0F6DBFEF760
:10598000BAFAC4F81090FCF7CFFE28490322491C4C
:10599000C81CFAF7A2FCB8B124490322491CC81D4F
:1059A000FAF79BFCF0B121490322491C01F10B00DD
:1059B000FAF793FC28B31E49012201F12000FFF7FA
:1059C00045FF62B6BDE8F08719490A2284F80090C5
:1059D00001F12000FFF73AFF00202E54401C03285D
:1059E000FBDBEEE712490220142220700A3101F19C
:1059F0001600FFF72BFF00202E54401C0328FBDB72
:105A0000DFE70E482670017869B10021017008496E
:105A1000012201F12000FFF719FF00202E54401C45
:105A20000328FBDBCDE70121F0E700002000002088
:105A300004130020000C0240600E00201000002023
:105A400070B50446406F20283BD161B35AB394F837
:105A50007000012835D0A4F85020A4F85220002569
:105A6000A06E0123E164212184F87030E56761674D
:105A7000D8B115491346C163A16E14480864A16EDC
:105A80001348C864A06E05652068A66E00F1280260
:105A9000E16C3046FEF7EEF838B11021E1672020C6
:105AA00084F870506067012070BD21684020086252
:105AB00084F870502068816841F080018160002086
:105AC00070BD022070BD0000C3740008F1740008AE
:105AD0007D74000870477047FEE700000148FEF73C
