:020000040800F2
:10000000C01A00200D020008D9940008B567000846
:100010006D94000879120008279F00080000000076
:1000200000000000000000000000000041950008F2
:10003000E917000800000000299500086D950008E8
:1000400027020008270200082702000827020008EC
:1000500027020008270200082702000827020008DC
:1000600027020008270200082702000827020008CC
:100070002702000827020008270200082D170008A1
:100080002702000827020008C50C00082702000804
:10009000270200082702000827020008270200089C
:1000A000270200082702000827020008270200088C
:1000B000270200082702000827020008B967000885
:1000C000270200082702000827020008270200086C
:1000D000270200082702000827020008270200085C
:1000E000270200082702000827020008270200084C
:1000F000270200082702000827020008270200083C
:10010000270200082702000827020008270200082B
:10011000C599000827020008659600082702000814
:1001200039170008270200082702000827020008E4
:10013000270200082702000827020008A912000869
:10014000911200089D1200082702000827020008EB
:1001500027020008270200082702000827020008DB
:1001600027020008270200082702000827020008CB
:1001700027020008270200082702000800000000EC
:1001800027020008270200082702000827020008AB
:10019000270200082702000827020008270200089B
:1001A000270200082702000827020008270200088B
:1001B000270200082702000827020008270200087B
:1001C000270200082702000800000000270200089C
:1001D000270200082702000827020008270200085B
:1001E000270200082702000827020008270200084B
:1001F0002702000827020008DFF80CD000F09CF866
:1002000000480047F1A30008C01A002006488047B4
:1002100006480047FEE7FEE7FEE7FEE7FEE7FEE7EB
:10022000FEE7FEE7FEE7FEE711960008F901000889
:100230002DE9F05F0546002092469B46884606461B
:10024000814640241BE0284641464746224600F0AE
:1002500062F853465A46C01A914110D311461846C7
:10026000224600F049F82D1A67EB01084F46224656
:100270000120002100F040F817EB00094E41201E3C
:10028000A4F10104DFDC484631462A464346BDE876
:10029000F09F40EA01039B0703D009E008C9121F41
:1002A00008C0042AFAD203E011F8013B00F8013B30
:1002B000521EF9D27047D2B201E000F8012B491E5C
:1002C000FBD270470022F6E710B513460A460446F3
:1002D0001946FFF7F0FF204610BD30B50546002057
:1002E000034600E05B1C934205D2EC5CC85C201A1C
:1002F00001D1002CF6D130BD202A04DB203A00FACF
:1003000002F1002070479140C2F1200320FA03F36C
:10031000194390407047202A04DB203A21FA02F06A
:100320000021704721FA02F3D040C2F1200291402F
:100330000843194670470000064C074D06E0E06888
:1003400040F0010394E8070098471034AC42F6D31C
:10035000FFF756FFE0AB000800AC00082DE9F05FA6
:10036000FF48022701264FF0000B00F580542DEDC9
:10037000028BB0F85C1EB0F8722E91427ED0B0F8BD
:100380005E1E8046B0F8742E91427DD001F0B8FA1E
:1003900000205D46A8F812BF01F078F8B8F85E1E9C
:1003A0004046E9B1032928D001293ED002294ED088
:1003B00084F86250052284F8615084F8605004F893
:1003C0005D2FB0F85C2EA0F8722EA8F8741E09F00C
:1003D0004FFE09F031FEA670BDEC028BBDE8F09F28
:1003E00084F86250052084F85D0084F8615084F838
:1003F00060505D3409F098FEEDE784F86250052006
:1004000084F85D0084F8615084F860505D3409F030
:100410008BFEA0785D3C0228DED084F85F70BDECD6
:10042000028BBDE8F05F01F05BBA84F8625084F89B
:10043000615004F85D6FB0F8581EA0F85A1FB0F86C
:100440005C1EA0F8721EA0F8746EE77019E084F8C4
:10045000625084F8615084F8605084F85D70B0F8A0
:10046000601EA0F85E1FB0F85C1EA0F8721EA0F817
:10047000747E94F866100129AED000E004E084F8A0
:100480006660A8F8125F1BE0B54D41F2620194F876
:1004900060804FF01909B8F1010F4B5DB5F85ACFE4
:1004A000B5F85A2EB5F8581E05F5006510D0B8F10C
:1004B000020F91D1614501D0012A7DD0A0F812BF71
:1004C00009F0D6FDBDEC028BBDE8F05F09F0B4BDCC
:1004D00094F86180B8F1010F09D0B8F1020FE8D1AA
:1004E00084F861B084F86070A0F812BFE8E7614555
:1004F000824600D06AB19FED9B8B9948062BB0F8DD
:10050000620FBFF469AFDFE803F0030B96EBFCFB6F
:1005100062E7AAF85A1F84F862B084F86170EBE0D1
:10052000012879D86145D04678D0022A76D10B20AF
:1005300009F09CFEB8F8681E88426FDCB8F8581EB7
:100540000520A8F85A1F84F862000020A8F8127F3E
:1005500009F08CFE00EE100AB8EEC00B85ED4C0BD6
:10056000B4EEC80BF1EE10FA0CD2B5EEC00BF1EE02
:1005700010FA05DBBCEEC00B10EE100AC0B202E0B0
:10058000002000E0FF2000F081FF022009F06EFE55
:100590004E4690FBF6F0C8F8240D002009F066FEE8
:1005A0000446012009F062FE002C014607DB6FF0D3
:1005B0000040221A914200E0DCE008DB06E004F192
:1005C0000040814202DD4FF0004000E0601A6FF011
:1005D000004280FB06400021121B814102DA6FF0CD
:1005E000004407E04FF00041611A70F1FF3001DA7A
:1005F0004FF00044022009F039FE00EE100AB8EE78
:10060000C01B00EE104AB8EEC00B80EE012B85ED4A
:100610004E2BA8F8626FDFE607E0FFE784F8626020
:10062000A8F8126FA8F8629F7BE0401E00D500205A
:10063000AAF8620F78E0012856464BD8D6F8240D68
:10064000002806DD012009F011FE94F844108842CC
:1006500011DB002000F01AFF01F052F9032184F8A9
:100660006210A6F8629FB6F8700EFF2800D9FF202E
:1006700084F8920046E084F8627095ED4C0B95ED9D
:100680004E1B30EE410B85ED4C0BB4EEC80BF1EE7A
:1006900010FA0DD2B5EEC00BF1EE10FA06DB00BF7A
:1006A000BCEEC00B10EE100AC0B202E0002000E069
:1006B000FF2000F0EBFED6F8240D4FF000418842F9
:1006C00002DCC6F8241D02E0401EC6F8240DA6F880
:1006D000629F81E6401E00D50020AAF8620F7BE6EB
:1006E000BAF8701EDAF8A00981420BDB082909D09C
:1006F00084F8617084F862B001F002F9002055E0DE
:1007000018E005E0BDEC028BBDE8F05F09F02CBC01
:1007100001285146DED884F86260A1F8126FAAF869
:10072000629F642000F0B2FEBDEC028BBDE8F05F7A
:1007300009F09EBC01285646CCD884F8627095ED2D
:100740004C0B95ED4E1B30EE410B85ED4C0BB4EE92
:10075000C80BF1EE10FAABD2B5EEC00B06E000000C
:10076000480400200000000000007040F1EE10FA84
:100770009CDB95E7A0F85A1F042B9FED0F0B84F824
:100780006060A0F862BF85ED4C0B85ED4E0BC0F8A4
:1007900024BD84F861609CD0042284F86220A0F813
:1007A000126FA0F8629F01F09BF86420BDEC028BF1
:1007B000BDE8F05F00F06ABE00000000000000002D
:1007C0002DE9F04FDFF85C940126022700252DED7E
:1007D000028B83B0B9F85C1E09F58054B9F8720E2B
:1007E000814278D0B9F85E1EB9F8740E814272D099
:1007F00001F086F80020A9F8125F00F047FEB9F872
:100800005E0E4FF00508E0B1032821D001282ED05C
:10081000022843D009F09AFC84F85D80B9F85C1E88
:10082000A9F8721EB9F85E1EA9F8741E09F020FC22
:1008300009F002FC84F85F6003B0BDEC028BBDE8F8
:10084000F08F09F083FC84F85D8009F06DFCF1E71E
:1008500009F07CFC84F85D8009F066FC94F85F0088
:100860000228E9D084F85F7001F03AF8E4E709F073
:100870006DFC84F85D60B9F8581EA9F85A1FB9F8E4
:100880005C1EA9F8721EB9F85E1EA9F8741E94F8D1
:1008900060100229D0D084F8607015E009F056FC91
:1008A00084F85D70B9F8601EA9F85E1FB9F85C1E87
:1008B000A9F8721EB9F85E1EA9F8741E94F86610A5
:1008C000012930D1B8E706E0A9F8125F09F0D0FBA2
:1008D00009F0B2FBB0E794F86680D2489FEDD28B66
:1008E000B8F10C0F4FF0190AB0F866BEB0F8601EF0
:1008F000B0F85E2FB0F862CEB0F8703E9CD2DFE860
:1009000008F006070ABBF4F3F2F1F0EFEEED93E71F
:1009100000F0D0FD90E794F86700012804D0022889
:100920008AD184F86750AFE0914202D0BCF1000F49
:100930001ED0DFF8F0E294F868800EF5C0700290E7
:10094000B8F1010FBEF8660F19D0B8F1020F57D0F9
:10095000B8F1030F7CD0B8F1040F87D101284946C4
:1009600075D884F86860A1F8126FA9F866AFB1E095
:10097000A9F85E1F84F8685084F8677070E0012859
:1009800038D89142C8462ED0BCF1020F2BD10B2093
:1009900009F074FCB8F8682E4146904223DCB1F8A7
:1009A000600EA1F85E0F6946A148A8F8127F84F88E
:1009B0006870029A406807F03BFE9DED000BB4EEB4
:1009C000C80BF1EE10FA0AD2B5EEC00BF1EE10FA38
:1009D0003BDB00BFBCEEC00B10EE100A00E0FF20B6
:1009E00084F8440028E784F86860A8F8126FA8F833
:1009F00066AF6FE0401E00D50020A9F8660FB7E093
:100A0000BBF10A0F4E460ED3002000F03FFD00F070
:100A100077FF032184F86810A6F866AFB9E000BF3D
:100A200084F89200DCE082486946029A406807F048
:100A3000FFFD9DED000BB4EEC80BF1EE10FACED227
:100A4000B5EEC00BF1EE10FAC4DABDE000E00DE047
:100A5000052B7DD3082B7BD084F8677084F8685011
:100A600000F04EFF002000F011FDE5E6401E00D52D
:100A70000020A9F8660FDFE694F86900012806D087
:100A80000228AFD184F8695084F866601CE791426F
:100A900002D0BCF1000F29D0DFF888E194F86A8019
:100AA0000EF5B0700290B8F1010FBEF8680F24D0B7
:100AB000B8F1020F5FD0B8F1030F71D0B8F1040F95
:100AC00090D1012849466CD884F86A60A1F8126F69
:100AD000A9F868AF372000F0D9FC49E09EE09AE021
:100AE00096E092E08EE08AE086E082E0A9F85E1F60
:100AF00084F86A5084F86970B2E7012833D89142CB
:100B0000C84629D0BCF1020F26D10B2009F0B6FB54
:100B1000B8F8682E414690421EDCB1F8600EA1F88C
:100B20005E0F69464248A8F8127F84F86A70029AFC
:100B3000406808F057F99DED000BB4EEC80BF1EEDC
:100B400010FABFF44CAFB5EEC00BF1EE10FA00E0B6
:100B500046E0BFF63FAF37E084F86A60A8F8126F4E
:100B6000A8F868AFB6E7401E00D50020A9F8680FC6
:100B700009F07EFA60E6BBF10A0F4E4612D3002060
:100B800000F084FC00F0BCFE032184F86A10A6F893
:100B900068AFB6F8700EFF287FF642AFFF203FE740
:100BA00015E020E022486946029A406808F01AF9E8
:100BB0009DED000BB4EEC80BF1EE10FAC1D2B5EE0C
:100BC000C00BF1EE10FAC4DA84F8445034E6052B79
:100BD00006D3082B04D084F8697084F86A503FE784
:100BE00009F0FAF928E6401E00D50020A9F8680FA0
:100BF00022E606F0DFFB1FE606F0D8FC1CE606F056
:100C0000D1FD19E606F0CAFE16E606F0C3FF13E6AC
:100C100007F0D8F810E607F0EDF90DE607F002FB53
:100C20000AE60000480400200000000000007040B8
:100C3000ACAA000810B50146806B026C12F0500F90
:100C400005D0026CD20626D502F081FF10BD016CE2
:100C500041F40071016401688A6812F0405F17D1A5
:100C60008269AAB9CA6A12F4700F02D08A68520562
:100C70000ED44A6822F020024A60016C21F480718F
:100C80000164016CC90403D4016C41F001010164E9
:100C900002F052FF10BD806BC26C0846BDE81040E8
:100CA000104710B5806B40210164416C41F0040194
:100CB000416402F04CFF10BD10B5806B02F046FF9E
:100CC00010BD0000014802F043BF0000CC0000202E
:100CD0004A496FF0706210B5D1F8043323F4403301
:100CE000C1F80433D1F8043344682343C1F8043312
:100CF00001684B6823F480734B60016803694C689A
:100D000044EA03234B6001684B6823F040734B6057
:100D1000016884684B6823434B6001688B6823F447
:100D200000638B600168C4688B6823438B60816AB1
:100D3000D14201688A6822F070628A6001680DD031
:100D4000836A8A681A438A6001688A6822F040527E
:100D50008A600168C36A8A681A4302E08A6822F0DE
:100D600040528A6001688A6822F002028A60016843
:100D700082698B6843EA42028A6090F82010002959
:100D8000016811D01E4A4B6843F400634B60016850
:100D90004B6823F460434B600168446A4B6802EB84
:100DA000443213434B6003E04A6822F400624A6015
:100DB0000168144BCA6A22F47002CA620168848B0B
:100DC000CA6A03EB04531A43CA6201688A6822F4B0
:100DD00000728A60016890F830208B6843EA4222F2
:100DE0008A6001688A6822F480628A6001684069CA
:100DF0008A6842EA8020886010BD0000002001401F
:100E000000E0FFFF0000F0FF2DE9F05FFF48022740
:100E100001264FF0000B00F580542DED028BB0F849
:100E20005C1EB0F8722E91427DD0B0F85E1E8046F6
:100E3000B0F8742E914276D000F062FD00205D463D
:100E4000A8F812BF00F022FBB8F85E1E4046E9B1D8
:100E5000032928D001293ED0022955D084F86550B5
:100E6000052284F8645084F8635004F85D2FB0F8CC
:100E70005C2EA0F8722EA8F8741E09F0F9F809F09B
:100E8000DBF8A670BDEC028BBDE8F09F84F86550DE
:100E9000052084F85D0084F8645084F863505D3464
:100EA00009F042F9EDE784F86550052084F85D000B
:100EB00084F8645084F863505D3409F035F9A07803
:100EC0005D3C0228DED084F85F70BDEC028BBDE88B
:100ED000F05F00F005BD84F8655084F8645084F834
:100EE000635084F85D60B0F8581EA0F85A1FB0F83F
:100EF0005C1EA0F8721EA0F8746E94F860100229AF
:100F0000C0D084F8607019E084F8655084F86450AB
:100F100084F8635084F85D70B0F8601EA0F85E1F1E
:100F2000B0F85C1E00E00CE0A0F8721EA0F8747E21
:100F300094F866100129A5D084F86660A8F8125FBD
:100F400023E0B24D41F2650294F863804FF0190935
:100F5000B8F1010FB5F8601EB5F85ECF525DB5F877
:100F6000623E05F5006518D0B8F1020F8AD194F8F9
:100F70006480B8F1010F34D0B8F1020F82D184F847
:100F800064B084F86360A0F812BF09F071F8BDEC9A
:100F9000028BBDE8F05F09F04FB8614501D0012B2D
:100FA00002D0A0F812BFF0E79FED990BA0F85E1FEA
:100FB000042A84F86370A0F864BF85ED500B85EDBA
:100FC000520BC0F828BD84F8646099D0042284F8DC
:100FD0006520A0F8126FA0F8649F00F081FC6420E7
:100FE00005E16145824600D06BB19FED8B8B874850
:100FF000062AB0F8640FBFF445AFDFE802F0030B38
:1010000094E9FEFD3EE7AAF85E1F84F865B084F817
:101010006470E9E0012877D86145D04676D0022B8C
:1010200074D10B2009F02AF9B8F8681E88426DDCEB
:10103000B8F8601E0520A8F85E1F84F8650000203F
:10104000A8F8127F09F01AF900EE100AB8EEC00BEA
:1010500085ED500BB4EEC80BF1EE10FA0CD2B5EEE4
:10106000C00BF1EE10FA05DBBCEEC00B10EE100A5F
:10107000C0B202E0002000E0FF2000F007FA0220EA
:1010800009F0FCF84E4690FBF6F0C8F8280D002059
:1010900009F0F4F80446012009F0F0F8002C0146AC
:1010A00005DB6FF00040221A914208DB06E004F1F4
:1010B0000040814202DD4FF0004000E0601A6FF016
:1010C000004280FB06400021121B814102DA6FF0D2
:1010D000004407E04FF00041611A70F1FF3001DA7F
:1010E0004FF00044022009F0C9F800EE100AB8EEF3
:1010F000C01B00EE104AB8EEC00B80EE012B85ED50
:10110000522BA8F8646FBDE607E0FFE784F865603E
:10111000A8F8126FA8F8649F8DE0401E00D500204B
:10112000AAF8640F8AE0012856464BD8D6F8280D55
:10113000002806DD012009F0A1F894F84410884247
:1011400011DB002000F0A2F900F0DAFB032184F8A3
:101150006510A6F8649FB6F8700EFF2800D9FF202E
:1011600084F892004CE084F8657095ED500B95ED95
:10117000521B30EE410B85ED500BB4EEC80BF1EE77
:1011800010FA0DD2B5EEC00BF1EE10FA06DB00BF7F
:10119000BCEEC00B10EE100AC0B202E0002000E06E
:1011A000FF2000F073F9D6F8280D4FF00041884277
:1011B00002DCC6F8281D02E0401EC6F8280DA6F87D
:1011C000649F5FE6401E00D50020AAF8640F59E630
:1011D000BAF8701EDAF8400A814211DB08290FD0F4
:1011E00084F8647084F865B000F08AFB0020BDECE0
:1011F000028BBDE8F05F01E026E013E000F046B9A5
:10120000BDEC028BBDE8F05F0AE00000480400205E
:10121000000000000000000000000000000070401E
:1012200008F0DABE01285146CCD884F86560A1F8F0
:10123000126FAAF8649F642000F028F9BDEC028BBD
:10124000BDE8F05F08F014BF01285646BAD884F80C
:10125000657095ED500B95ED521B30EE410B85ED11
:10126000500BB4EEC80BF1EE10FA99D2B5EEC00BEC
:10127000F1EE10FA92DB8BE7FEE70000034801680D
:10128000002008640C21014804F0D8BFC4020020EB
:10129000014802F0BABF0000D0010020014802F06E
:1012A000B4BF0000D0010020014802F0AEBF000032
:1012B000D00100202DE9F041314C012600254FF4EA
:1012C000FF484FF4C1412F480E27C4E9065684E871
:1012D0002201E5602146C4E90457C4E9086702F029
:1012E00085FE14344FF4C3410F22264884E864007D
:1012F000143C84E82201E56021462561C4E90867C1
:1013000002F074FE14341122B00384E8640044E94E
:1013100005054FF4FE411B4844E9031544F8045CFD
:10132000C4E903671649143C02F060FE143447F622
:10133000C0711222F00384E8640044E9050544E921
:10134000031544F8045CC4E903670D49143C0D48D7
:1013500002F04CFE152247F6E0713803143484E89D
:10136000640044E9050544E9031544F8045CC4E954
:101370000367BDE8F0410249024802F037BE0000B1
:1013800074010020D001002010B5094C20680168CC
:1013900041F0010101600A2003F01AFB20680021DE
:1013A0000268016020684168C907FCD110BD0000D7
:1013B000D001002010B5FFF77DFF0848012102F0A1
:1013C00097FD0648022102F093FD0448102102F027
:1013D0008FFDBDE81040014803F034B9D001002072
:1013E00008B564208DF80000684600F029F802482E
:1013F000042104F023FF08BD8402002090ED000BBF
:101400009FED0A3B9FED0C2B0A4880EE031B90EDED
:10141000030A0168B8EE400B31EE021B21EE000B0F
:10142000BDEEC00B10EE100A88637047000000008C
:1014300000409F40840200209A9999999999A93F68
:1014400001789FED0D2B00EE101A9FED0E1B0C483E
:10145000B8EE404BD0ED030A016884EE023BB8EED3
:10146000600B33EE011B21EE000BBDEEC00B10EE46
:10147000100A8863704700000000000000409F4091
:10148000840200209A9999999999A93F074964285B
:1014900081F8440000D3642041F24E02C0F16400A0
:1014A00081F84E0002481044FFF7CABF48140020DC
:1014B000480400202DE9F041DFF864820020B8F8EC
:1014C000601EB8F85E2F914203D0B8F8622E012A50
:1014D00007D0A8F8120F08F0CBFDBDE8F04108F0E6
:1014E000ABBDA8F85E1F1926B8F8FE1E04278D4C68
:1014F000012509297ED2DFE801F0051E38516B88ED
:10150000A2BCD600022184F86610A8F8660F94F8F1
:101510006700012804D0844884F8675007F0B6FCBF
:1015200094F86800042866D084F86870A8F8125F00
:10153000A8F8666FEBE0032184F86610A8F8680F3E
:1015400094F86900012805D0774884F8695020385C
:1015500007F0A0FC94F86A0004284CD084F86A7064
:10156000A8F8125FA8F8686FD1E084F86670A8F850
:101570006A0F94F86B00012805D06B4884F86B5013
:10158000483807F09DFC94F86C00042833D084F8A8
:101590006C70A8F8125FA8F86A6FB8E0052184F8AB
:1015A0006610A8F86C0F94F86D00012805D05E480D
:1015B00084F86D50703807F083FC94F86E000428AE
:1015C00019D084F86E70A8F8125FA8F86C6F9EE0CE
:1015D000062184F86610A8F86E0F94F86F000128B1
:1015E00005D0514884F86F50983807F05DFC94F8A6
:1015F000700001E072E070E004286ED084F8707032
:10160000A8F8125FA8F86E6F81E0072184F86610D1
:10161000A8F8700F94F87100012805D0404884F8AC
:101620007150C03007F040FC94F87200042875D067
:1016300084F87270A8F8125FA8F8706F67E008214C
:1016400084F86610A8F8720F94F87300012805D08A
:10165000334884F87350903007F02CFC94F87400F1
:1016600004285BD084F87470A8F8125FA8F8726F31
:101670004DE0092184F86610A8F8760F94F87600FA
:10168000012805D0264884F87650603007F012FC17
:1016900094F87700042841D084F87770A8F8125F96
:1016A000A8F8766F33E00A2184F86610A8F87A0F5C
:1016B00094F87900012805D0194884F87950303021
:1016C00007F0ECFB94F87A00042827D084F87A70AD
:1016D000A8F8125FA8F87A6F19E01FE00B2184F8D0
:1016E0006610A8F87E0F94F87C00012805D084F8D5
:1016F0007C5088F82A5088F8295094F87D000428F6
:101700000CD084F87D70A8F8125FA8F87E6F00F006
:10171000E7F8BDE8F0416420FFF7B8BEBDE8F0810E
:101720004804002048140020C8050020014802F0A9
:10173000CFBF0000E4030020014802F0C9BF000051
:101740001401002001681823CAB2103AB2FBF3F268
:10175000054B6FF30901032A9B5CC36500D9091D82
:101760008165084670470000C0AB000810B583696A
:101770004FF0C074826A0146002053B1B3F5005F98
:1017800015D072B1012A0CD0022A0AD0032A09D13D
:1017900004E01AB1012A06D0022A03D1C96AC9019C
:1017A00000D5012010BDC96AA142FAD010BD002A9F
:1017B000F7D0012AF2D0022AF3D0032AF3D010BDC9
:1017C00030B50468256825F48025256004686360C9
:1017D0008368402B036803D099600068C26030BD05
:1017E0009A600068C16030BD70470000FEB50024FB
:1017F0000D46102106460848224603F0F3F96420FE
:1018000034700121009501232246CDE901100348DF
:10181000A02103F0B7FAFEBD00040240F801002049
:10182000FEB5157850220F781C4601786426089B77
:1018300042EA111047EA01118DE86800CAB241007E
:101840000248012303F09EFA2070FEBDF80100203B
:101850002DE9FC470078174609785022DDE90A98FF
:1018600042EA10140F4D41EA0010C6B20020195C84
:101870002954401C1028FADB0B480022102103F0E9
:10188000B1F9002188F80010387861000123324650
:10189000CDE90050054803F027FB89F80000BDE8BA
:1018A000FC870000BA00002000040240F80100207C
:1018B00010B500F025F8BDE8104000F019B80000A0
:1018C00000220248102103F08DB90000000C0240F4
:1018D00002780821014803F085B90000000C02409D
:1018E00000220248042103F07DB90000000C0240F0
:1018F00001220248102103F075B90000000C0240DB
:1019000001220248042103F06DB90000000C0240DE
:1019100070B505460C46084600F004F8207828709B
:1019200070BD00000121017002480A46490203F01F
:1019300059B90000000802400021017002480A461F
:101940004FF4007103F04EB90008024070470000E8
:101950002DE9FF4F87B0944605460078DDE9163142
:10196000DDE914A2DDE91FB4DDE91A76DDE9189896
:10197000572838D052283FD04C2868D045282FD13E
:101980005C2261464846FEF784FC0021C9F85C10E1
:10199000C8F834100846C8F83810C8F83C10089A3F
:1019A00052F8203048F820300A9A52F8202047F8A0
:1019B0002020401C0D28F2DB79630020DAF800209B
:1019C0003260B963DAF804207260F963DAF808204B
:1019D000C6F8082006EB8002401C0528D160F9DB20
:1019E0000BB0BDE8F08FCDE900212B1DEA1CA91C2E
:1019F000681CFFF72DFFF3E71C981CAE6A78027095
:101A00001D98AA7802701E98EA780270CDF800B08E
:101A100096E80700FFF704FF1C980178002084F87F
:101A200090101D99097884F891101E99097884F80E
:101A3000921000BF22181BF80010401C102882F8DA
:101A40009310F7DB04F1900008F0E2FDC8E704F121
:101A500080000090EA1CA91C681C04F1A303FFF796
:101A6000DFFE94F8A30094F8A410884267D0002009
:101A70000DF1080104EB400292F8813092F88020C9
:101A800003EB022221F81020401C0828F2DB6878C2
:101A900001280ED002280CD003280AD005281BD01C
:101AA000062819D008282AD0092828D00B283BD08E
:101AB00045E0C006020ED01F904200D9002000224F
:101AC00052FA80F304EB430331F81250521C082AF7
:101AD00023F8025CF4DB32E0C0002038C0B2C21F41
:101AE000824200D90022002050FA82F304EB430323
:101AF00031F81050401C0828DD85F5DB1FE0C000E0
:101B00003838C0B2C21F824200D900225FF0000004
:101B100050FA82F304EB430331F81050401C0828BC
:101B2000A3F84E50F4DB0AE05FF0000004EB400342
:101B300031F81020401C0828A3F87020F6DB0020A4
:101B400034F8102049F82020401C1828F8DB002029
:101B500004EB4001B1F8502047F820200A8E48F8E5
:101B60002020401C1028F3DB5FF0000004EB400154
:101B7000B1F8701046F82010401C0828F6DB2FE75B
:101B80000348C168006841630021014804F056BB66
:101B9000440200202DE9F04F08202DED028B87B084
:101BA00008F090FC72480321724D0E1FB7EE008BB7
:101BB000A5F5006A4FF0010B85ED388B017005F536
:101BC000006441704FF0020981705A46C17051465D
:101BD00085ED4A8BCAF8206DA4F59C6085ED568B87
:101BE00084F899B0A4F5806684F8959000F16008B7
:101BF00000F1A00781F844226021FEF763FB402139
:101C00004046FEF75FFB40213846FEF75BFB0020B5
:101C10004FEA000146F82010401C0828FADB9FED2F
:101C2000560B57485646059080ED020B203804901D
:101C300080ED020B2838039080ED020B28380290CB
:101C400080ED020B28380190A0F1280880ED020BEE
:101C5000A8F1C007484688ED020B07F1600187F83C
:101C6000B8909037009181F82890A1F1300989F857
:101C700028008AF8280001F51F6085ED408B08F0E8
:101C800005FB07F6F41008F03DFB07F5256008F0AA
:101C90001FFB07F6842008F013FB07F6AF72511EF6
:101CA000481EFFF7A3FD07F57B6008F0EDFCFFF78A
:101CB000E5FAFFF77FFBFFF793FBFFF7F9FDFFF76F
:101CC0005FFF01F0B5FD05F065FB05F069FB07F06E
:101CD00039FC07F041FC94F86700012802D105980F
:101CE00007F0D4F894F86900012802D1049807F0AD
:101CF000D1F894F86B00012802D1039807F0E0F8BE
:101D000094F86D00012802D1029807F0D9F894F8F0
:101D10006F00012802D1019807F0C6F894F871000D
:101D2000012802D1404607F0BFF894F8730001285B
:101D300002D1384607F0BEF894F87600012802D1A7
:101D4000009807F0B7F894F87900012802D14846C6
:101D500007F0A4F894F87C00012803D186F82AB093
:101D600086F829B007B0BDEC028BBDE8F08F00000B
:101D700038000020480C002000000000000049400E
:101D8000C80500202DE9F04F40222DED068BADB0A7
:101D9000FE491A91A1F52C70FEF77BFAFB496022EF
:101DA00040311991A1F52C70FEF773FAF7494022E2
:101DB000A0311891A1F52C70FEF76BFAF44A1BAB19
:101DC00002F5805492F9830F02EB8000B0F8BC1E3C
:101DD000A2F8541EB0F8BE0EA2F8560E94F85700A2
:101DE00084F8380092F9840F02EB8000B0F8C41E2A
:101DF000A2F8581EB0F8C60EA2F85A0E94F8580071
:101E00002B9092F9850F02EB8000B0F8CC1EA2F85F
:101E10005C1EB0F8CE0EA2F85E0E92F9860F02EBB1
:101E200080010020B1F8D45EA2F8605EB1F8D61E41
:101E3000A2F8621E02EB8001D1F8001D43F82010C9
:101E4000401C0828F6DB94F85910002084F839105B
:101E500094F85A100E9194F85B1084F83A1092F9A5
:101E6000871F01EBC101431802EB800502EB8303DE
:101E7000D3F8E43D401C0928C5F8303DF3DB92F966
:101E8000881F0020C1EBC101431802EB400502EBA3
:101E90004303B3F8DC3E401C0728A5F8643EF3DB9F
:101EA000BC4E0023B2F8560FA2F8FE0E96ED460B7C
:101EB00086ED340B96ED480B86ED360BB2F8580FD5
:101EC000A2F8000F92F9890F00EB800085005919E4
:101ED00003EB830001EB810102EB800002EB810147
:101EE00091F84D7201F24D2180F86D755B1C142B39
:101EF0004F7880F86E758F7880F86F75CF7880F89E
:101F000070750F7980F871754F7980F872758F79D7
:101F100080F87375CF7980F874750F7A80F87575CD
:101F20004F7A80F876758F7A80F87775CF7A80F857
:101F300078750F7B80F879754F7B80F87A758F7B89
:101F400080F87B75CF7B80F87C750F7C80F87D7581
:101F50004F7C80F87E758F7C80F87F75C97C80F817
:101F60008015B4DB96ED4A1B9FED8B0B88484FF034
:101F7000FF3386ED381B00F68D02179296ED421B5B
:101F8000B7EE008BB2EE04AB01464FF004089FEDB4
:101F9000849B21EE000B00F53C6A00F5386212923A
:101FA00000F5326B30EE080BBCEEC00B10EE100AE1
:101FB00084F84100B1F8500FA1F8100FC1F8203D8E
:101FC00094F85C00E0B194F85E0008B106F03CFAC9
:101FD00094F8800008B107F04BFA94F8820008B139
:101FE00001F09EFA94F88D00002873D094F88C00CC
:101FF0006D49012860D0022877D003286AD174E0A7
:10200000DFF88C91012584F85C50002784F85E503D
:10201000A9F85A7FA9F85C7FA9F85E7FA9F8607FCC
:1020200094F85D00042803D084F85D8007F0CCFFAD
:1020300094F8820084F880507F34012804F87F5996
:1020400003D084F88250C9F82C7D94F881000428CC
:1020500003D084F88180C9F82C7D032094F88F1078
:1020600084F88D5084F88C00012984F8937084F8EA
:10207000947001D084F88F5094F88E00012803D01A
:1020800084F88E5007F05EFA84F88B5086ED549BEE
:1020900094F88A00022804D0022084F88A0086ED91
:1020A000548B94F8900084F89150012803D084F860
:1020B000905084F84570F5E294F8940058B194F883
:1020C000383094F89320934215D1401E00D500205B
:1020D00084F894001BE0022084F88C002C4841F224
:1020E00049010844FFF728FC11E094F8380094F8FF
:1020F000932090420BD0012004F88C0F23A8FFF707
:1021000007FC14F8541C6420E17120728C3C94F894
:102110008F0028B194F88E00012801D107F012FA3F
:1021200094F88B0000280BD094F88A00012802D084
:10213000022805D105E0022084F88A0086ED548B40
:1021400097E296ED540BB4EECA0BF1EE10FA79DB80
:102150000F4841F2280394F8952041F248050121E7
:1021600084F88A1003440C93AF1E41F2470C4319C4
:102170000293C319039300EB0C034FF0000E00F51C
:10218000D0754FF0050C00F696790FE0681000202E
:1021900048040020480C00200B4C91061B2ECF3F1A
:1021A00000000000000000008E060020049300F5EF
:1021B00040630693EC3B2A93343B1493903B00F628
:1021C0008420062ACDE9150326AB7DD2DFE802F094
:1021D0007C0306B1F8F784F895C04AE294F83E0013
:1021E000FF2830D0AA2877D0002084F895107146B7
:1021F0001954401C1028FBDB0093002345201A468D
:10220000194607F07BFF25A9069F24AACDF82C903C
:1022100023ABCDE90921129802AA0C95CDE9050A54
:10222000CDE9077392E80B00CDF810B00193CDE92A
:1022300002102A980090DDE91610DDE91432FFF74C
:1022400087FB16E211E2AA2184F8281084F8958011
:10225000704684F829E0002284F82AE0012384F8FB
:102260002BE084F82CE084F82DE084F82EE084F84C
:102270002FE084F830E084F831E084F832E00C9903
:1022800084F833E084F834E084F8350084F83600CC
:1022900084F8370084F89800572084F896800091DD
:1022A000114607F02BFF24A90991069925A823AB15
:1022B000129ACDE90A0902A80C95CDE90713CDE9D8
:1022C000052A90E80E0001E0A5E105E0CDE9022134
:1022D000CDF810B00193ACE7032284F8952084F880
:1022E00097800020714684F898E01954401C10280B
:1022F000FBDB491CFF290F4600D9FF210093102367
:1023000000224C2007F0FAFE25A924AA23A8CDE933
:102310000921CDE90B950699129BCDE9071002A87A
:10232000CDE9053A90E80E004CE100BF84F89870C2
:102330009FE194F8970001280CD002281DD00328B3
:1023400032D094F89800032842D384F8971084F888
:1023500098808EE194F89800062802D30320072184
:1023600028E0002172465A54491C1029FBDB401C0E
:10237000FF28074612D9FF2010E094F898700B2F21
:1023800002D384F897E026E7002071461954401CD8
:102390001028FBDB7F1CFF2F3846ECD8002200936F
:1023A0001023C1B24C20FAE094F89870092F08D39A
:1023B00002200A2184F8970084F8981059E113E16B
:1023C00029E0002071461954401C1028FBDBE1E78E
:1023D000002172465A54491C1029FBDB401CFF287F
:1023E00000D9FF200093C1B2102300224C2007F037
:1023F00085FE25A924AACDE90921CDE90B9523A9BC
:102400001298069ACDE9050ACDE9072178E000BFC8
:1024100084F898002DE194F89600012813D0022842
:1024200024D003287DD004287CD094F89800032879
:1024300079D384F898E084F896101698B2EE0A0BD7
:1024400008F0E6F915E194F89800022808D384F81A
:1024500098E0032084F896001498B2EE0A0BEFE798
:1024600007F0E8FE94F89800401D31E094F89800D9
:1024700048B300207146032284F8952084F89780A1
:1024800084F896E084F898E01954401C1028FBDB8F
:10249000491CFF2900D9FF210093102300224C2062
:1024A00007F02CFE25A924AA23A8CDE90921CDE90E
:1024B0000B950699129BCDE9071002A8CDE9053AC4
:1024C00090E80E001FE007F0B5FE94F898000B307E
:1024D000FF2800D9FF200C990091C1B210230022DF
:1024E000572007F00BFE25A924AA23A8CDE909212E
:1024F000CDE90B950699129BCDE90710CDE9053A78
:1025000002AF97E80E000193CDF810B0CDE902219B
:102510002A980090DDE91610DDE91432FFF718FA69
:1025200002E009E01DE02BE094F89800401CFF2831
:102530007FF66EAFFF206BE794F8980002280AD36D
:1025400084F898E0022084F896002A98B0EE080BF0
:1025500008F0A6F88DE007F06DFE94F898000830BA
:10256000B6E784F896C01598B3EE070B08F0F4F8B8
:1025700094F8980007F05EFE94F89800401CA7E7D6
:1025800007F058FE94F898707F1CFF2F384600D94A
:10259000FF200C990091C1B210230022572007F0B0
:1025A000ADFD25A924AA23A8CDE90921CDE90B95E4
:1025B00006990DF10808129BCDE90710CDE9053AFF
:1025C00098E80E000193CDF810B0CDE902212A98C9
:1025D0000090DDE91610DDE91432FFF7B9F9FF2F9D
:1025E0007FF6A4AEFF27A1E696ED580BB4EE480B9C
:1025F000F1EE10FA09D194F8470094F89910884246
:1026000003D0062084F8950033E025AA24A923A846
:1026100008F062F92DE096ED580BB5EEC00BF1EE27
:1026200010FA3FF4B0AE9E484C2786ED589B25AA81
:102630004FF0100C24AB80F88D7880F88FE880F88C
:1026400090C823A8CDE90932CDE90B950699129BD4
:10265000CDE9071002A9CDE9053A91E80D00CDF8C2
:1026600010B00193CDE90220E3E530EE080B86EDD2
:10267000540B94F89100A8B194F89000012802D06E
:1026800002280FD10BE0002084F845001B9848B1C8
:10269000022084F89000012184F8451002E0012016
:1026A00084F8450096ED5A0B30EE080B86ED5A0B78
:1026B00094F89A100E9881420BD0794886ED3E0B23
:1026C00086ED5A9B0E9984F89A10B0F8521FA0F824
:1026D000141F744D85ED5A9B94F8450001280AD1CA
:1026E00085ED5A8B94F83900F0B36D490020A1F8BC
:1026F000160F84F84F006A4F2B9800EE100AB7F8B7
:10270000640EA7F8520FB8EE400B94F84F0060B378
:1027100084F8430096ED421B9FED633BB5EE002B22
:10272000634821EE031B00EE021B11EE101A11EE9E
:10273000902A8DED001B8160C2601422B7F8160F3D
:10274000A7F8500F574817994C30FDF7A2FD94F8A1
:10275000460085F8600094F8470085F8610094F819
:10276000480085F8620001E045E095E04D486022B0
:1027700059466430FDF78DFD4A4840221299C43015
:10278000FDF787FD4B4840225146FDF782FD0020B2
:1027900007EB800205EB8001401CD2F8002C0828D2
:1027A000C1F84421F4DBD7F8500E4022C5F870017F
:1027B00012991A98FDF76DFD199860225946FDF798
:1027C00068FD189840225146FDF763FD5FF0000058
:1027D00007EB8001401C0828D1F8002CC1F8002D1F
:1027E000F6DB354841684868401C48602DB0BDECB8
:1027F000068BBDE8F08F2A4FB0EE000B85ED5A0B2B
:10280000B7F8660E1428BFF476AFB7F8700E1D99AE
:102810008842FFF670AFB0EE080B85ED5A0BB7F8A3
:10282000641E1B9881423FF766AFB1EE000B85ED49
:102830005A0B1C98B0F1004F02DC6FF0004000E032
:10284000404200EE100AB7F8140F96ED3E1B081A2E
:10285000B8EEC02B00EE100AB8EEC00B20EE0A0B4B
:1028600080EE013BB4EEC23BF1EE10FA3FF643AF0F
:10287000002084F850000A4841F250010844FEF755
:10288000DFFD0120A7F8160FB1EE040B85ED5A0B02
:10289000642184F84F102EE794F8440038E70000D4
:1028A00048040020481500203FEB964F1E0DEE3FD8
:1028B000480D00204C160020ACAA00082DE9FC4170
:1028C000FD490026A1F1A004A1F5855594F8430027
:1028D00084F83B0091ED040BBDEEC00B10EE100A26
:1028E000012852D00228304658D02918401C0A2806
:1028F00081F88C6FF9DBF148811C831E021FCDE942
:102900000001811F6E3007F0FBFAB5F8180FA0F533
:10291000407105391AD0B0F5017F7CD0B0F5007F49
:102920004FF6FF724FF4803372D0A0F54071063934
:1029300044D0A0F5007101396BD0A0F500710239C7
:1029400068D0A0F50071033973D011E19FEDDC1B55
:10295000B5F81A0FA5F8920EB5F81C0FA5F8860E5B
:10296000B5F81E0F00EE100AB8EE400B20EE010B7A
:10297000BCEEC00B10EE100AA5F88A0E94F85400B5
:10298000FF2814D384F85460F2E000202B180A5C6E
:10299000401C0A2883F88C2FF8DBACE70A182B18A8
:1029A000401C127E0A2883F88C2FF7DBA3E7401C1B
:1029B000FF2800DDFF2084F85400D9E09FEDC20B12
:1029C000B5F81A0F01EE100AB8EE411B21EE001BFC
:1029D000BCEEC11B11EE100AA5F8880EB5F81C0F4D
:1029E00001EE100AB8EE411B21EE001BBCEEC11B2C
:1029F00011EE100AA5F88E0EB5F8200FA5F8900E6E
:102A000094F85500FF2837D384F855603AE002E087
:102A100010E046E081E094F85100FF2802D384F8EA
:102A20005160A5E0401CFF2800DDFF2084F8510024
:102A30009EE095E0B5F8761EB5F81A0FFF2902D38F
:102A4000A5F8766E05E0491C994200DB1146A5F811
:102A5000761EA5F8780E94F83B1064290BD0322826
:102A600003D0642801D0C82805D1002007F08AFDD2
:102A7000002007F09BFD7BE0401CFF2800DDFF20CD
:102A800084F85500B5F81E0F01EE100AB8EE411B90
:102A900021EE000BBCEEC00B10EE100AA5F88C0E58
:102AA00066E0B5F81A0FFF2800D9FF20C1B284F8FC
:102AB0005210B5F87E0EB5F81C7FFF2802D3A5F89A
:102AC0007E6E05E0401C984200DB1046A5F87E0EA5
:102AD0001E29A5F8807E09D9002007F053FD0020AB
:102AE00007F064FD012084F8530001E084F853608E
:102AF000B5F81E0F30B3FF28A5F8240F01D8012820
:102B000009D0002184F85610714941F2560008445A
:102B1000FEF7DEFE2CE00121F4E7B5F81A0F0128DC
:102B200002D002280FD023E0B5F81C0F07F02AFDD1
:102B3000B5F81E0FA5F8280FB5F87C0E0DE000BF04
:102B400084F8526014E0B5F81C0F07F02FFDB5F8BB
:102B50001E0FA5F8280FB5F8840E0028F0D007E066
:102B6000B5F81A0FA5F8220FB5F81C0FA5F8260F17
:102B700095F88A0F58B9B5F8860EA5F8F80EB5F88D
:102B8000880EA5F8FA0EB5F88A0EA5F8FC0E95F891
:102B9000831FB5F8760EE9B35FF0000105EB810104
:102BA000A1F8BC0E95F8831FB5F8780E99B30021F3
:102BB00005EB8101A1F8BE0E95F8830F60B30020EC
:102BC00085F8830F94F8510084F8570095F8841F16
:102BD000B5F87A0EE9B3002105EB8101A1F8C40E26
:102BE00095F8841FB5F87C0EA1B3002105EB810197
:102BF000A1F8C60E95F8840F68B3002085F8840FFD
:102C000094F8520084F8580095F8851FB5F87E0EA8
:102C1000F1B302E07AE07BE07DE0002105EB810189
:102C2000A1F8CC0E95F8851FB5F8800E89B3002168
:102C300005EB8101A1F8CE0E95F8850F50B3002069
:102C400085F8850F95F8861FB5F8820E99B3002197
:102C500002E062E063E064E005EB8101A1F8D40EDC
:102C600095F8861FB5F8840EA1B3002105EB81010C
:102C7000A1F8D60E95F8860F68B3002185F8861F57
:102C8000002094F8531084F8591094F8541002E07E
:102C900049E04AE04BE084F85A1094F8551084F863
:102CA0005B1000BF95F8882F05EB4001B1F8861E38
:102CB00082B3002210E03CE0E814002066130020FC
:102CC000B728B3412619D93F9A9999999999B93F4B
:102CD000480400202FE030E0C2EBC2020244401C56
:102CE00005EB42020728A2F8DC1EDBDB95F8880F13
:102CF00038B3002085F8880FB5F8280FA5F8560FCF
:102D0000B5F82A0FA5F8580FBDE8FC81012145E769
:102D100001214DE713E0012052E701215CE7012189
:102D200064E701206AE7012178E7012180E70120BB
:102D300086E701218CE7012198E701219EE7012226
:102D4000B8E70120D6E700002DE9F04F46489BB0D8
:102D500001AB90F9824F002104EBC4040D1900EB84
:102D60008505D5F89C5D43F82150491C0929F5DB00
:102D70003E4901250024864691F8431016912146CC
:102D8000B0F854AFB0F8266F1396B0F8126F1296E1
:102D9000B0F822BFB0F8749EB0F8248F80F88A5F34
:102DA000B0F8F85EB0F8FACEB0F8FC6E80F88A4F52
:102DB00065F30F02B0F8506E0BACB0F88C5E6CF39C
:102DC0001F42BEF88E7EB6B20EEB410C33F82100E6
:102DD000ACF8940E24F81100491C0929F4DB110CFD
:102DE0001191AEF8A6AE139AAEF8A82E169AAEF8C8
:102DF000AA2E129AAEF8AC2EAEF8AEBEAEF8B09EC9
:102E0000AEF8B28EAEF8B41E1849AEF8B65EAEF8A3
:102E1000B87E3239AEF8BA6EA1F59D70009106F019
:102E200073FB009807F010FC1148002134F81120C2
:102E300020F81120491C0929F8DBA0F812A01399E9
:102E400081821699C18212990183A0F81AB0A0F864
:102E50001C90A0F81E801199018445848784C68443
:102E60001BB0BDE8F08F000048040020481400208B
:102E7000481500202DE9F041BD4901F553702DEDB5
:102E8000108BB2B007F008FE00209FEDBA0BDFF800
:102E9000EC821AA908EB8002D2F8783D01EBC0025F
:102EA000401C01EE103A0928B8EE411B21EE001B30
:102EB00082ED001BEEDBB24C00200CAA01EBC0053A
:102EC00004EBC00395ED002B93ED003B93ED0E1B3F
:102ED00093ED1C0B32EE032B02EBC005401C0628C1
:102EE00002EE010B85ED000BE8DB9DED2A1B9FED4B
:102EF000A52B9FEDA60B002031EE021B05AC21EEA9
:102F0000000B8DED180B00BF02EBC00191ED000B23
:102F1000BCEEC00B10EE101A44F82010401C07281D
:102F2000F2DB964FB3EE092BB7EE000B9FED994BFA
:102F30009FED9A5B9FED9B6B9FED9C7B9DED269B90
:102F40009FED9CAB9FED9D8BB6EE00FB9FED9D1B17
:102F50008DED2C1B9FED9D1B8DED021B9FED9DCBE1
:102F60009DED28DB9FED9DEB9FED9E1B07F5006718
:102F700089EE0ABB97ED443B1DEE0E1B33EE422B50
:102F8000B0EE403B02EE043BB0EE404B02EE054B90
:102F9000B0EE405B02EE065B02EE070B83EE042B05
:102FA00085EE003B9DED2C0B03EE082B3BEE4C3BDE
:102FB00022EE0F2B22EE004B9DED020B22EE000BBA
:102FC00023EE048B21EE009BBCEEC80BFCEEC90B7C
:102FD00010EE101A01EB810110EE900A4E0000EB8A
:102FE00080004500814806F0A1FA9DED140B804950
:102FF000002087ED440B00BF01EB800354F8202034
:10300000401C06289A62F7DBC1E910650B9A40461E
:103010008A6498F88B1F79B900EB810354F821205A
:10302000C3F82C2E491C0629F6DBC0F8446EC0F804
:10303000485E0B99C0F84C1E5FF0000190F8822F9B
:1030400054F82130EAB3002202EBC2020A44491CC0
:1030500000EB82020629C2F89C3DEFDB90F8821F4C
:1030600081B3002101EBC10100EB8101C1F8B46D16
:1030700090F8821F39B3002101EBC10100EB8101FF
:10308000C1F8B85D90F8822F0B99E2B35FF00002AF
:1030900002EBC20200EB8202C2F8BC1D90F8821F54
:1030A00091B3002280F8822F0021B0F84E2FA0F8B3
:1030B000542F00BF54F8212090F8873F2BB30023F2
:1030C00002E03FE040E041E003EBC3030B44491C56
:1030D00000EB83030629C3F8E42DEBDB90F8871F90
:1030E00079B3002101EBC10100EB8101C1F8FC6D56
:1030F00090F8871F81B3002101EBC10100EB810132
:10310000C1F8005E02E023E024E026E090F8872F7B
:103110000B9942B35FF0000202EBC20200EB8202A5
:10312000C2F8041E90F8871FF9B1002180F8871FAC
:1031300087ED468B87ED489B32B0BDEC108BBDE828
:10314000F0810CE001227FE701218BE7012193E769
:1031500001229DE70122A5E703E00123B0E7012159
:10316000C0E70121C8E70122D6E70121DEE7000020
:10317000C0110020B4D934E70C684A3F480400204D
:10318000C8AA00081F85EB51B81ED53FF0C1071F24
:103190007CF042409AB1683A3B196C3FB01BB62DA7
:1031A000CA6C703FDD41EC4CA1F36A3FACA8C1345E
:1031B0000C1F713F0000000000607D400AD7A37023
:1031C0003D0AEF3FF5597F9FD323D0400F727450D3
:1031D000FA16D0402F292982EB04293F79734289BE
:1031E000066E613FAA689DDD69E8213F96130020C5
:1031F00048150020F8B5764D012085F88B0F00208A
:1032000005EB8001D1F82C2E401C0928C1F8542D63
:10321000F6DB704C002685F88B6F0723B5F8260F78
:10322000A5F8020F94F8430084F83C00B5F8120F9B
:10323000A5F8040FB5F8220FA5F8060FB5F8741E0F
:10324000A5F8081FB5F8241FA5F80A1FB5F84E1FEA
:10325000A5F80C1FB5F8161F5F4AA5F80E1F05F656
:10326000FA6502F1100107F073F85B4A0A236886D9
:103270002032A886288902F1160107F069F8E8864D
:103280004FF4A06129874FF444726A87531CAB87BF
:10329000971DEF8740F2173CA5F840C0A5F6FA65E8
:1032A00094F89B00642849D3B5F8640DA4F1B603E3
:1032B000A5F8440F9A1EB5F8680D911EA5F8460FA3
:1032C000A4F15207B5F8600DA5F8480FB5F8740DD4
:1032D000A5F84A0F881E05F55665009706F0FDF81B
:1032E000A4F1C800394607F075F9D5E90301A5F541
:1032F0005665884202D9A5F83C0F01E0A5F83C1FAD
:10330000344FB5F8540DA5F83E0F5A3FB5F8580D97
:10331000A7F16403A5F8400F9A1EB5F85C0D911E45
:10332000A5F8420F881E009706F0D7F8A7F16C00A9
:10333000394607F04FF984F89B6003E094F89C004D
:103340000A281FD3234F254A423F0097A7F1BA030B
:10335000991E081D06F0C1F8A7F18800394607F04C
:1033600039F9083F0097A7F1AA0303F12402911E3F
:10337000881E06F0B2F8A7F18400394607F02AF952
:1033800084F89C60134E94F83C003A3EA5F84C0F2C
:10339000A6F1B80300961A1F911E01F1440006F031
:1033A0009CF8A6F19200314607F014F994F89C00BD
:1033B000401CFF2800DDFF2094F89B1084F89C003F
:1033C000491CFF2900DDFF2184F89B10F8BD000097
:1033D000480400204814002070AB0008ACAA000884
:1033E0004C49002010B586B06A4691F848308DF8F7
:1033F000003091F849308DF8013091F84A308DF85D
:10340000023091F84B308DF803300C181318401C23
:1034100094F84C4010281C71F7DB104607F0A8FA0E
:103420003D4B002293F8890FE8B3002002EB8201A4
:1034300000EB800003EB810102EB800000EB8000D9
:1034400091F8FD4603EB800080F84D4291F8FE466E
:1034500080F84E4291F8FF4680F84F4291F80047BD
:1034600080F8504291F8014780F8514291F80247A4
:1034700080F8524291F8034780F8534291F804478C
:1034800080F8544291F8054780F8554291F8064774
:1034900080F8564291F8074780F8574291F808475C
:1034A00080F8584200E030E091F8094780F859422E
:1034B00091F80A4780F85A4291F80B4780F85B422E
:1034C00091F80C4780F85C4291F80D4780F85D4216
:1034D00091F80E4780F85E4291F80F4780F85F42FE
:1034E00091F8101780F86012521C142A9ADB93F896
:1034F000890F60B15FF0000083F8890F074890EDF5
:10350000400B80ED4A0B06B010BD01208EE7012074
:10351000F2E70000E814002048040020480C0020D6
:103520002DE9FF5FB14D41F2420001264FF0030942
:1035300005F5805428440090D5F82C0D05F247215C
:1035400094F881C000230191421E94F887A00227BD
:1035500094F883B0F107BCF1070F2AD2DFE80CF032
:103560002904FD6DFDD2FD00BAF1010FD4460BD048
:10357000BCF1020F11D0BCF1030F1CD0BCF1040F41
:1035800017D1012838D0D5E001287BD184F88930C3
:1035900084F8817084F88730F4E0012872D184F8CF
:1035A000879000F0BDF9C5F82C0D00F099F9FEF7F1
:1035B0009FF9BDE8FF9F012864D184F8876000F07F
:1035C000AFF9C5F82C0D94F84400512894F88900FF
:1035D00007D20128EDD0002084F88960FDF756FF5E
:1035E00003E00228E5D084F8897003A9DDE900230F
:1035F00002A800F061F9DCE784F8883084F887706D
:10360000423400F08DF9C5F82C0D41F24C01774899
:1036100042187749481E00F01BF9A07A2070B5F8CF
:10362000680E1428C5D300BFFEF74AF9C1E7C5F8F4
:103630002C1DBEE7C5F82C2DBBE7D5F8201D0420B6
:10364000022920D00029B4D1BAF1040F84F8816096
:1036500005D084F8870000F063F9C5F82C0D94F8C4
:103660007F0003283DD0042849D000BF94F84400CF
:10367000462844D894F8880001289AD0462084F837
:10368000886039E056E0B5F8701E052901D3082995
:103690008FD1052284F88120BBF1040F0BD084F870
:1036A000830000F03DF95349884201DD481C00E0E9
:1036B000401CC5F82C0D94F87F0003280AD194F81B
:1036C0004400502806D894F88600022893D084F845
:1036D000867010E094F8860001288CD084F886600B
:1036E000A2E794F844005028C0D894F88800032832
:1036F0009CD084F888905020FDF7C8FE59E784F8E4
:10370000887056E7BBF1010FDC460BD0BCF1020F0D
:1037100014D0BCF1030F38D0BCF1040F86D10128BE
:103720003ED007E0012805D1062084F8810084F806
:10373000833027E088423FF77DAF78E70128F9D151
:1037400084F8853084F8839000F0EAF8C5F82C0DF1
:1037500094F87F0003280FD100E043E094F8440080
:10376000502809D894F884000228C7D0002084F893
:103770008470FDF78BFE05E094F884000128BDD02D
:1037800084F8846000F0ACF813E70128D2D184F803
:10379000843084F8836000F0C3F8C5F82C0D24E76A
:1037A00084F8863084F883707F3400F0B9F8C5F867
:1037B0002C0D14F87F09104D032894F8850006D0CD
:1037C00001289BD084F88560FEF792F803E0022878
:1037D00094D084F8857003A9009A02A82B4600F0C3
:1037E0008BF8E6E684F88190E3E6000048040020C8
:1037F00093140020FEFFFF7F9206002010B50023E7
:1038000003700B70012414700421084C1A462046E2
:1038100001F0E8F900222046082101F0E3F9012235
:103820002046BDE81040022101F0DCB90010024042
:1038300008B5684600F002F808BD000000210170DC
:1038400002480A46022101F0CDB9000000100240F2
:1038500010B50024047001230B7013702246084C2D
:103860000421204601F0BEF901222046082101F082
:10387000B9F901222046BDE81040022101F0B2B999
:103880000010024010B50123037000240C70094C95
:10389000042113701A46204601F0A4F900222046A4
:1038A000082101F09FF901222046BDE810400221C5
:1038B00001F098B9001002402DE9F0411C46154670
:1038C0009A1C0E46591C07462046FFF797FFA07822
:1038D00028702078387060783070BDE8F081000082
:1038E000044810B5FFF7AAFF02480B38C17A0170EF
:1038F00010BD0000951400202DE9F0411C4615462E
:103900009A1C0E46591C07462046FFF7BBFFA078BD
:1039100028702078387060783070BDE8F081000041
:103920002A4901F5805393F8832093F87F00042AF5
:1039300010D0022A16D0032A2FD0012A35D093F8AE
:103940008700042839D002283AD003283BD0D1F888
:10395000DC097047032802D0D1F8F0097047D1F88C
:10396000000A704703280FD0B1F8702E012A0ED03C
:103970001648022AD0F8E409F3D0032A0AD0042A10
:10398000EFD1D1F8EC097047D1F8FC097047D1F8B4
:10399000E0097047D1F8E8097047032802D0D1F850
:1039A000F4097047D1F8B8097047032802D0D1F85C
:1039B000F8097047D1F8BC097047D1F8D4097047AD
:1039C000D1F8D0097047D1F8D809704748040020D1
:1039D00070470000F8B50025009590F83C20012ABA
:1039E00018D0012280F83C200A6807234E4C066854
:1039F000092A1AD90A3A02EB4207F268BB409A43F5
:103A0000F2600E680268A64206D10B7AD66846EAD2
:103A1000036308E00220F8BD0A3E8B68D76806EB16
:103A20004606B3403B43D3600EE002EB42073269E7
:103A3000BB409A43326103680E788A681F6906EBBF
:103A40004606B2403A431A614A681F23072A13D236
:103A50000668521E02EB8207726BBB409A43726388
:103A600003680E790A88761E5F6B92B206EB8606B3
:103A7000B2403A435A6327E006680D2A12D2D21F99
:103A800002EB8207326BBB409A43326302680E79C5
:103A90000B88F61F176B9BB206EB8606B3403B43C1
:103AA000136311E00D3A02EB8207F26ABB409A43BE
:103AB000F26202680E790B880D3ED76A9BB206EB64
:103AC0008606B3403B43D362184A0368934208D149
:103AD0000B68122B05D1D2F8043343F48003C2F8EB
:103AE0000433036893421AD10B68A34201D0112B0F
:103AF00015D1D2F8043343F40003C2F80433096843
:103B0000A1420CD10A490B4A0968B1FBF2F101EB61
:103B10008101490000E0491E00910029FBD180F895
:103B20003C500020F8BD00001200001000200140B1
:103B30007400002040420F0000680349884201D110
:103B4000FFF798B9704700000020014070477047A8
:103B500070B50446006801684268C1F34001C2F3D1
:103B6000401251B34AB3216CC90603D4216C41F40D
:103B700000712164816811F0405F17D1A169A9B972
:103B8000C16A11F4700F02D0816849050ED44168F2
:103B900021F020014160206C20F480702064206CB2
:103BA000C00403D4206C40F0010020642046FFF7DD
:103BB000C3FF21686FF01200086020680168426846
:103BC000C1F38001C2F3C01289B382B3216CC9066C
:103BD00003D4216C41F400512164816811F4401F29
:103BE0001ED1816B11F4401F02D08168490517D4A2
:103BF0004168490514D4816811F0405F10D1A16972
:103C000071B9416821F080014160206C20F480503E
:103C10002064206CC00503D4206C40F001002064B7
:103C20002046FFF7D5FE21686FF00C000860206881
:103C30000168436811F0010FC3F380110ED069B120
:103C40000068C0070AD0206C40F480302064204611
:103C500000F046F821686FF00100086020680168F4
:103C60004268C1F340110029C2F380620DD0002ADE
:103C70000BD0616C6FF0200541F0020161640560BA
:103C80002046FFF764FF2068056070BD70B5040032
:103C90004FF0000503D0206C002610B107E0012092
:103CA00070BD204600F01EF8666484F83C60206C0D
:103CB000C00610D4206C20F4885040F0020020642C
:103CC0002046FDF705F86664206C20F0020040F005
:103CD0000100206400E0012584F83C60284670BDA6
:103CE00070470000F0B587B0064614216846FCF71F
:103CF000E9FA30493068884259D12F48016841F4C7
:103D00008071016000682C4900F4807005901439BE
:103D1000086840F004000860086800F0040005909E
:103D2000086840F001000860086800F00100059094
:103D3000086840F00200086008680324002569460E
:103D400000F00200059013208DE831001B4800F0C0
:103D500051FEF02069468DE83100194800F04AFE16
:103D6000009469461748CDE9014500F043FE164C22
:103D700016480115C4E900058715A5600B01C4E9C3
:103D8000035182142046C4E907756562C4E905231E
:103D900000F06EFD08B1FDF7D9FDB46300220421E7
:103DA000A663122001F094F9122001F083F907B004
:103DB000F0BD0000002001404438024000080240ED
:103DC0000000024000040240140100201064024080
:103DD000F8B50D4604460021009190F83C000128FA
:103DE00007D0012084F83C0020688368DB0702D0FC
:103DF00011E00220F8BD8668364B46F00106866069
:103E000035480068B0FBF3F000EB400000E0401ED6
:103E100000900028FBD120688368DB0758D0236C12
:103E200040F20166B34343F4807323644068400565
:103E300005D5206C20F4005040F480502064206CA4
:103E4000C00404D5606C20F00600606400E061648A
:103E50006FF0220084F83C10A36B2049D963A36B58
:103E60001F491964A36B1F49D96421680860206841
:103E7000416841F0806141602068816841F480714F
:103E8000816021681346A06B2A464C3100F062FD28
:103E90001549D1F80403C006206811D0884207D123
:103EA000826812F0405F03D1826842F080428260F3
:103EB000D1F80403C0060BD40C492068884207D10E
:103EC000816811F0405F03D1816841F080418160D9
:103ED0000020F8BD40420F0074000020350C00089F
:103EE000B90C0008A30C000800200140002201408A
:103EF00090F82020012A07D0022A05D0416A41F417
:103F00008021416201207047006842690A43426192
:103F100000207047F0B590F820500468A468012D87
:103F200005D0022D03D0416A41F480215AE014F0FB
:103F3000406F01D1E50052D5C4F30164022C03D9CE
:103F4000416A41F400014DE001264FF4C075A640DE
:103F50001E608B68ABB1CE684F68D0F800C03343A9
:103F600005EB041643EAC7034CF8063007684FF424
:103F7000C27303EB04130E69FE50097D012909D0B9
:103F80000DE00E88CB68076843EA465305EB04163C
:103F9000BB51EBE70168CE5846F48076CE50D2F89C
:103FA00005304FF4C67C11790CEB041C06684FF405
:103FB000C47741EA032107EB041346F80C10167886
:103FC00005EB0411D2F80120076846EA0222FA50F4
:103FD0000068425842F0010242500020F0BD416AA0
:103FE00041F4001141620120F0BD000030B590F8AD
:103FF00020300268012B07D0022B05D0416A41F422
:1040000080214162012030BD3E4C3F48A24200D099
:104010000246D2F80032824243F00103C2F8003275
:104020000CD1D2F8000220F47C50C2F80002D2F881
:1040300000024B6A40EA0320C2F800020C7D012016
:10404000D2F81C3204F01F04A0408343C2F81C3293
:10405000CB69B3B9D2F80C328343C2F80C328C89E5
:104060004B684D6964F31F4302EBC504C4F840324A
:104070000C890B684D6964F31F4302EBC504C4F857
:104080004432CB69012B16D1D2F80C320343C2F86B
:104090000C320C884B684D6964F31F4302EBC50476
:1040A000C4F840320C89CB684D6964F31F4302EBBE
:1040B000C504C4F844328B69002BD2F804320FD007
:1040C00053EA0003C2F804320B69002BD2F8143211
:1040D00008D00343C2F81432096A012904D008E069
:1040E0008343EFE78343F5E7D2F81C120143C2F89C
:1040F0001C12D2F8000220F00100C2F800020020D9
:1041000030BD0000003400400064004070470000F3
:10411000F0B590F82040012C05D0022C03D0416A64
:1041200041F4802166E0046800295ED02469A40778
:104130005DD005684FF4D87404EB01142D5915F0C7
:104140000405956005682D5957D0ED08C2F8045054
:1041500007684FF4DA754FF4DC7C4FF4DE763C5997
:10416000002905EB0115C4F34007D7600CEB0114DF
:1041700006EB01110668765906F00F06166106680F
:104180007659C6F307269661066875594FEA1545B4
:104190005561026812591A70026812594FEA1222C8
:1041A0005A70026812594FEA12429A700268125904
:1041B0004FEA1262DA70026852581A710268525855
:1041C0004FEA12225A71026852584FEA12429A710B
:1041D000026851584FEA1161D971006810D0016925
:1041E00041F0200101610020F0BDE4689FE7416AD1
:1041F00041F4001141620120F0BD6D0D1560A7E78B
:10420000C16841F02001C160EDE72DE9F05F05468E
:10421000006800244669D0F804908768D0F80CB094
:10422000D0F810A0F207D0F8188048D0F90714D0C1
:1042300001218160BA0703D5284600F030FA0CE06E
:10424000780702D54FF4006407E0380702D54FF431
:10425000805402E0284600F021FAF80516D52868B7
:10426000BA054FF48071816003D5284600F019FA31
:104270000CE0780502D544F4005407E0380502D577
:1042800044F4804402E0284600F00AFAF80316D508
:104290002868BA034FF48031816003D5284600F0C6
:1042A00002FA0CE0780302D544F4004407E0380336
:1042B00002D544F4803402E0284600F0F3F93007D8
:1042C00007D55FEACB6004D52968102044F4007458
:1042D000C86070074FF0080707D55FEA0B7004D578
:1042E0002868C760284600F075F9B00706D5286829
:1042F000C068800702D0284600F06EF9700607D526
:104300005FEACA6004D52968102044F4806408611B
:10431000B00607D55FEA0A7004D528680761284609
:1043200000F08CF9F00606D528680069800702D0F5
:10433000284600F084F9B00308D55FEAC96005D5C6
:10434000296810204860284600F07AF9F00307D564
:104350005FEA097004D528684760284600F0A4F990
:10436000300446D55FEA497040D5F00504D55FEAD0
:10437000C87001D044F00104B00504D55FEA88702C
:1043800001D544F00204700504D55FEA487001D5F8
:1043900044F00404300529D518F0700F26D008F039
:1043A0007000402815D006DC102809D020280AD03B
:1043B000302816D10AE050280ED0602811D10EE026
:1043C00044F008040DE044F010040AE044F0200436
:1043D00007E044F0400404E044F0800401E044F4C9
:1043E00080742868816921F0700181612968042046
:1043F0004860002C05D0686A204368622846FFF7B1
:1044000085FEBDE8F09F70B5040003D094F820004D
:1044100010B104E0012070BD204600F081F8206852
:10442000016821F00201016000F0E2FB052605466B
:1044300004E000F0DDFB401B0A2811D8206840682A
:104440008007F6D42068016841F00101016000F0A6
:10445000CFFB05460BE000F0CBFB401B0A2806D93A
:10446000606A40F40030606284F82060D2E720681F
:104470004068C007EFD0207E0128206801683DD049
:1044800021F080010160607E01282068016838D039
:1044900021F040010160A07E01282068016833D02E
:1044A00021F020010160E07E0128206801682ED003
:1044B00041F010010160207F01282068016829D0A7
:1044C00021F008010160607F01282068016824D084
:1044D00021F004010160D4E90110D4E903326569D7
:1044E000491E184323682A43104300220843D86119
:1044F0000121626284F82010104670BD41F08001F5
:10450000C0E741F04001C5E741F02001CAE721F0D2
:104510001001CFE741F00801D4E741F00401D9E7E9
:1045200010B586B0044614216846FBF7CBFE264939
:104530002068884246D12548016841F40051016055
:10454000016801F400510591016841F0806101604A
:10455000016801F080610591016841F0007101601E
:10456000006800F00070059018481038016841F0AC
:104570000201016000680221002200F002000590A3
:10458000032309244FF440508DE81F00104869466A
:1045900000F030FA002201213F2000F099FD3F2079
:1045A00000F088FD00220221402000F091FD402013
:1045B00000F080FD00220221412000F089FD412011
:1045C00000F078FD06B010BD0068004040380240A1
:1045D0000004024070470000154A0021134B02F10D
:1045E000340010B5FFF794FD114812490088020A03
:1045F0000A760E4A4876022014180B18401C14F84C
:10460000024C0A281C76F7DB91ED040BB0EE001B80
:10461000B4EE410BF1EE10FA01D1FEF74FF9BDE80F
:10462000104005484FF4806100F0D5BA000000202A
:104630009C010020E8140020000C024070477047E5
:104640007047000070B5044690F82000012804D09F
:10465000606A40F40020606218E0022084F82000C4
:104660002068016821F00101016000F0C1FA0546EF
:104670000EE000BF00F0BCFA401B0A2808D9616AAE
:10468000052041F40031616284F82000012070BDF2
:1046900020684068C007EDD1606270BD7047704708
:1046A0007047704770477047704790F8351002297F
:1046B00003D08021416501207047052180F8351025
:1046C0000068016821F001010160002070470000CE
:1046D0002DE9F84304464FF00009644B0820CDF85B
:1046E00000904FF41652A56D94F85C101B682E686C
:1046F000B3FBF2F700FA01F131420FD021680A68EA
:1047000052070BD50A6822F004020A6094F85C1084
:104710008840A860606D40F00100606594F85C100E
:104720004FF0010808FA01F0304208D021684969C9
:10473000090604D5A860606D40F00200606594F839
:104740005C1004208840304208D02168096889073D
:1047500004D5A860606D40F00400606594F85C10BA
:1047600010208840304218D021680968090714D504
:10477000A86020680168490304D50068000308D5D3
:10478000A16C07E00168C90503D4016821F00801A4
:104790000160216C09B12046884794F85C10202004
:1047A0008840304231D021680968C9062DD5A860FB
:1047B00094F8350005282068016806D0490347D5DC
:1047C000006800031DD4616C1CE021F0160101603B
:1047D0002068416921F080014161206C08B9A06C1A
:1047E00020B12068016821F00801016094F85C3074
:1047F0003F229A40AA6084F8349084F83580216D75
:104800001FE0E16B09B120468847606D00282BD07E
:10481000606DC00714D0052084F835002068016859
:1048200021F0010101600098401C0090B84203D8BB
:1048300020680068C007F6D184F8349084F8358089
:10484000E16C002910D001B02046BDE8F0430847D4
:104850000168C905D5D4036823F01003036084F808
:10486000349084F83580CCE7BDE8F88374000020EC
:104870002DE9F047044600F0BBF9054664B14FF05E
:10488000000984F83490022184F83510206801680A
:1048900021F0010101600EE00120BDE8F08700BFBA
:1048A00000F0A6F9401B052805D9202161650320E9
:1048B00084F83500F1E720680068C007F0D1D4E93A
:1048C0000020D4E90251D4E9043C284304F118053E
:1048D00019430843116895E8E00140EA0C001C4BBD
:1048E0002843194040EA060040EA0700B8F1040FE7
:1048F00040EA010003D1D4E90B13194308431060C7
:1049000020680126656A4069042D20F0070045EA09
:1049100000050CD1D4E90A01054341B12046FCF75A
:1049200025FF20B14020606584F83560B4E7206839
:1049300045612046FCF706FF94F85C303F229A4020
:104940008260C4F8549084F835600020A5E7000028
:104950003F8010E02DE9F041044690F83400002536
:104960000128A66D0ED094F835C00127002084F8E8
:104970003470BCF1010F07D0022584F834002846BA
:10498000BDE8F0810220FBE7022784F835706065FE
:104990002046FCF715FF94F85C103F208840B0607B
:1049A0002068016841F0160101602068416941F00A
:1049B00080014161206C20B12068016841F008014C
:1049C00001602068016841F001010160D7E7000043
:1049D00070B5044600F00CF90546601C02D004488E
:1049E0000078044400F004F9401BA042FAD370BDE3
:1049F000680000202DE9F84FDFF89CE100224FF01D
:104A000001084FF0030B4FF00F0A00BF0B6808FAC4
:104A100002F42340A34271D14D68022D01D0122D22
:104A20000FD1D5080E69570700EB8505A9462D6AF9
:104A3000FF0E0AFA07FCBE4025EA0C052E43C9F812
:104A400020600F79550006680BFA05FC07F0030794
:104A500026EA0C06AF40374307604E68012E05D0AA
:104A6000022E03D0112E01D0122E0ED18668CF68EF
:104A700026EA0C06AF403743876046680F79A643A5
:104A8000C7F30017974037434760C4688E6824EA2D
:104A90000C04AE402643C6604C68E40075D53F4C1C
:104AA000256845F480452560246822F003069507B3
:104AB00004F4804400943A4C2D0F2644D6F808485C
:104AC000DFF8E0C00AFA05F7604524EA070401D1DF
:104AD00000272EE0344FB84201D1012729E0334F9F
:104AE000B84201D1022724E0314FB84201D1032757
:104AF0001FE0304FB84202D104271AE045E02E4FA4
:104B0000B84201D1052714E02C4FB84201D1062745
:104B10000FE02B4FB84201D107270AE0294FB842D6
:104B200001D1082705E0284FB84201D1092700E04C
:104B30000A27AF4027437546C6F808784E68DEF866
:104B40000040F60324EA030400D51C43124E2C60F7
:104B5000361D4D683468AD0324EA030400D51C43B8
:104B60000D4F346008374D683C68ED0224EA0304B9
:104B700000D51C43084D3C600C354E682C68B602CD
:104B800024EA030400D51C432C60521C102AFFF4B5
:104B90003DAFBDE8F88F0000003C014044380240C2
:104BA00000300140000002400004024000080240C2
:104BB000000C0240001002400014024000180240A5
:104BC000001C02400020024000240240006908400E
:104BD00000D001207047426931EA020200D1090485
:104BE000816170470AB1816170470904FBE70000E9
:104BF00001488068704700006800002030B590F8D8
:104C00004120202A24D190F84020012A20D00123DD
:104C100080F84030242280F84120202300240268BC
:104C2000156825F0010515600268156825F48055A2
:104C30001560026815680D43156001680A6842F046
:104C400001020A6080F8413080F84040002030BD09
:104C5000022030BD30B590F84120202A22D190F8B2
:104C60004020012A1ED0012380F84030242280F801
:104C70004120202400250268136823F001031360FB
:104C80000268136823F4706343EA0121116001682C
:104C90000A6842F001020A6080F8414080F8405002
:104CA000002030BD022030BD704770470268436B62
:104CB00091691268002B00D01847704770470000B8
:104CC00070B5040004D094F84100002510B106E04E
:104CD000012070BD204684F8405000F063F9242084
:104CE00084F841002068016821F001010160D4E9E5
:104CF000001020F0706008612068816821F4004194
:104D00008160E06821680128A06806D040F4044072
:104D10008860E068022803D006E040F40040F7E72E
:104D200021684FF40060486020212068114A4368E0
:104D3000134343602068C26822F40042C26054F802
:104D4000106B0DCC104340EA0320F06054F81C3C7B
:104D5000D4E900021043186054F81C0D026842F0B8
:104D600001020260656484F84110256384F84250B2
:104D7000002070BD00800002704770477047704788
:104D8000704700002DE9FF4F83B0044690F84100C2
:104D90009A469346DDE91087DDF84890202874D1C3
:104DA0005FEA080014D09FB194F8400001286CD04D
:104DB000012084F84000FFF71BFF0122064619235B
:104DC0000090D103204602F067FA002871D103E079
:104DD0004FF4007060646CE00025C4F82480222148
:104DE00084F84110402084F842006564678553468A
:104DF00065635A4604992046CDE9009602F0D0F842
:104E000010B184F8405054E0618DFF2734484FF0D2
:104E10008078FF294FF0007A04D927853A46434627
:104E2000009005E0618D53462185009094F828207C
:104E30002046049902F01AFA00224B46042120462B
:104E4000009602F029FAA0BB2068616A406A0870E7
:104E5000606A401C6062208D401E81B22185608D99
:104E6000401E6085608DD8B1D1B900224B468021AB
:104E70002046009602F010FAD8B9608DFF2805D9B7
:104E800027853A464346009506E026E0608D534666
:104E90002085009594F828202046049902F0E6F930
:104EA000608D0028C8D132464946204602F021FADA
:104EB00018B1012007B0BDE8F08F21682020094A11
:104EC000C86121684B6813404B6084F8410084F846
:104ED0004250002084F84050ECE70220EAE700004E
:104EE0000024008000E800FE2DE9FC47044690F80D
:104EF000410098469146DDE90A758A4620284BD143
:104F00001FB315B320688069C043000444D594F8EA
:104F10004000012840D0012084F840002434FFF7ED
:104F200067FE00262122627740211C4A2760A17774
:104F30002662E580A260E28819492161243CFF2AAB
:104F400007D9FF214FF0807506E04FF400706064D0
:104F50000FE0618D4FF0007521851921CDE900101A
:104F600043464A465146204602F04CF820B184F8A8
:104F700040600120BDE8FC8700962B4694F828206D
:104F80005146204602F072F90121204684F8406023
:104F900001F058FC0020EDE70220EBE70000FFFFE6
:104FA000796E000810B586B0044614216846FBF7F8
:104FB00089F916492068884225D11548016841F0D1
:104FC0000201016000681221012200F00200059038
:104FD000C020032304248DE81F000E486946FFF714
:104FE00009FD0B481030016841F4001101600068B0
:104FF0000022052100F4001005901F2000F068F841
:105000001F2000F057F806B010BD0000005400400B
:1050100030380240000402407047704702488168FF
:10502000027811448160704768000020032010B5A9
:1050300000F06EF8002000F005F800F023F80020E2
:1050400010BD000070B50D4D04464FF47A700C4A47
:1050500029781268B0FBF1F0B2FBF0F000F0C2FD6D
:1050600048B9102C07D200222146501E00F030F81B
:1050700000206C6070BD012070BD00006800002041
:10508000740000200A4808B5016841F080510160B1
:10509000006800F0805000900548001D016841F450
:1050A00080410160006800F48040009008BD00006D
:1050B00040380240002809DB410900F01F02890046
:1050C000012001F1E0219040C1F80001704700008B
:1050D0000E4BF0B41B680D46C3F30223C3F1070661
:1050E000042E00D90426191D072901D2002300E04F
:1050F000DB1E012404FA06F19C40491E2940641E6F
:10510000994014402143F0BC04F00EBF0CED00E0C8
:10511000064900F0070210B54FF6FF040868044B7B
:10512000204040EA02201843086010BD0CED00E06A
:105130000000FA051848F8B5016841F08051016097
:105140000068164C00F080500090206840F48030D9
:105150002060FFF74DFD4FF47A76054605E000BF6D
:10516000FFF746FD401BB0420FD86068C003F7D57B
:10517000206840F400302060FFF73AFD054606E065
:10518000FFF736FD401BB04201D90320F8BD60682F
:105190008003F5D50020F8BD403802400070004083
:1051A0002DE9F84F04460078DFF824944FF000060C
:1051B0003746C0070ED0D9F8001021F40001C9F815
:1051C0000010D9F80010626B1143C9F80010606B31
:1051D00000B90126FE4D2068843500030ED5E16B31
:1051E000286820F4401008432860E06BB0F5801F69
:1051F00001D010B102E0012600E0012720684FF441
:10520000800BC0020CD5216C286820F440000843B4
:105210002860206C584501D1012601E000B9012722
:105220002068C10100D50126800666D5E8483830DF
:10523000016841F0805101600068DFF898A300F038
:1052400080500090DAF8001041F48071CAF8001024
:10525000FFF7CEFC804605E0FFF7CAFCA0EB080094
:1052600064287DD8DAF80000C005F5D5DFF8608342
:1052700008F16808D8F8000010F440702AD0218E98
:1052800001F44071814225D0D8F80010D8F80020F0
:1052900021F4407142F48032C8F80020D8F8002090
:1052A00022F48032C8F80020C8F80010D8F80000B6
:1052B000C0070FD0FFF79CFC824607E0FFF798FC81
:1052C000A0EB0A0141F288308142CAD8D8F8000028
:1052D0008007F3D5206BC0F3012103297ED0D9F8D4
:1052E000001021F4F811C9F80010228ED8F800102F
:1052F000C2F30B021143C8F800102078C00607D58E
:10530000286820F0807028602868A16B0843286016
:105310002188AF488830490405D5626E016821F4C0
:105320004031114301602188090405D5A26E01684E
:1053300021F44021114301602168C90305D5E26EC3
:10534000016821F44011114301602168890305D5EA
:10535000226F016821F4400111430160217800E0CF
:1053600034E1490605D5626C016821F0030111435F
:1053700001602178090605D5A26C016821F00C01B5
:10538000114301602188C90505D5E26C016821F04F
:105390003001114301602188890505D5226D01681E
:1053A00021F0C001114301602188490505D5626DD6
:1053B000016821F44071114301602188090505D578
:1053C000A26D016821F44061114301602188C90484
:1053D00007D5E26D016821F4405100E05FE0114320
:1053E00001602188890405D5226E016821F44041BD
:1053F000114301602168490205D5A26F016821F0BF
:1054000080611143016021684FF0006A890209D56B
:10541000E26F016821F0006111430160E16F5145C5
:1054200000D1012721680A0700D50127490305D5C6
:10543000626F016821F04071114301602168090227
:1054400006D5D4F88020016821F080511143016015
:105450002168490106D5D4F88420016821F0005163
:10546000114301602068000106D5D4F8881028682F
:1054700020F00070084328602068C00006D5D4F8EA
:105480008C10286820F0806008432860DFF848917D
:10549000012E0ED02068B0F1007F0AD08FE04F4A75
:1054A000D9F80030104023F4F8120243C9F8002064
:1054B0001BE7D9F800004E4620F08060C9F80000D4
:1054C000FFF796FB804605E0FFF792FBA0EB080094
:1054D00064287BD830680001F6D421783C487C30C1
:1054E000C90712D0616B81B9237A62680168D0F86C
:1054F00000C09201C1F3014142EA0142CCF30361D1
:1055000042EA016141EA0371016021680A0303D59F
:10551000E26BB2F5801F04D0C9021AD5216C59453F
:1055200017D16368016894F80CC002689B01C1F34D
:10553000014143EA0141C2F3027241EA0C6141EACE
:10554000027101602968626A21F01F01521E114335
:1055500029602168C90110D5238A62680168D0F8E2
:1055600000C09201C1F3036142EA034242EA0162D0
:10557000CCF3027142EA01710160216889010CD506
:105580006168228A237B94F808C0890141EA0241BC
:1055900041EA036141EA0C7101603168B04641F0B3
:1055A00080613160FFF724FB064604E0FFF720FB33
:1055B000801B64280AD8D8F800000001F6D5E7B3AC
:1055C000D9F800004E4620F0805009E07BE0000052
:1055D000083802400070004000380240FFFCFF0F16
:1055E000C9F80000FFF704FB074604E0FFF700FBE3
:1055F000C01B642867D83068C0438000F6D5216896
:1056000035480A0301D5E26B1AB1C9021DD5216CD8
:10561000D9B963690168277E02689B01C1F3014122
:1056200043EA0143C2F3027143EA076242EA0171AD
:10563000016029686FF0FF0300E04BE0A26A21F4EB
:10564000F85103EB0222114329602168890212D527
:10565000E16F51450FD1238C62690168076892019F
:10566000C1F3036142EA034242EA0162C7F30271F5
:1056700042EA017101602178090716D56169026863
:10568000D0F800C08B01277FC2F30362CCF3014145
:1056900043EA014141EA026141EA07710160286879
:1056A000E16A20F4403008432860306840F08050C0
:1056B0003060FFF79DFA044608E000BFFFF798FA54
:1056C000001B642802D90320BDE8F88F3068C0436E
:1056D0008000F3D40020F7E7883802402DE9F04736
:1056E00005000F4663D0444E306800F00F00B8420A
:1056F00009D2306820F00F0038433060306800F085
:105700000F00B84253D128683C4C810712D540079E
:1057100003D5206840F4E05020602878000703D5C6
:10572000206840F460402060A968206820F0F00004
:10573000084320602878C0072AD0304968680839B3
:10574000012810D00968022810D0890700292EDA14
:10575000216821F0030101432160FFF749FA8046E7
:1057600041F288390DE009688903EFE78901EDE727
:10577000FFF73EFAA0EB0801494502D90320BDE836
:10578000F0876868216801F00C01B1EB800FEFD160
:10579000306800F00F00B8420BD9306820F00F00DD
:1057A00038433060306800F00F00B84201D001206B
:1057B000E5E72878400705D5E968206820F4E0503F
:1057C000084320602878000706D52869216821F45D
:1057D000604141EAC000206000F036F82168084AC4
:1057E000C1F30311515CC840064908600020FFF76F
:1057F00029FC0020C3E70000003C024008380240BA
:10580000C8AB000874000020044905480968006816
:10581000044AC1F38221515CC840704708380240F5
:1058200074000020D8AB00080449054809680068E6
:10583000044AC1F34231515CC84070470838024005
:1058400074000020D8AB0008154910B51548096848
:1058500011F00C0213D04110042A0FD0082A0ED1E7
:105860000F4C241F2268236802F03F025B0207D519
:105870002068C0F38810A0FB010106E0084610BDB7
:105880002168C1F38811A1FB00010023FAF7D0FCC5
:105890002168C1F30141491C4900B0FBF1F010BD82
:1058A000083802400024F4002DE9F84F05004FF0BD
:1058B00000076ED02878DFF82093A9F1040AC0070A
:1058C000AAF104044CD0D9F800104846C1F3810174
:1058D000012908D00068C0F3810002280AD1DAF853
:1058E0000000400206D52068800339D5686800288A
:1058F000DFD035E06868B0F5803F0BD010B1B0F56F
:10590000A02F11D0206820F480302060206820F47F
:10591000802002E0206840F480302060686890B108
:10592000FFF766F906460AE0206840F48020206010
:10593000F0E700BFFFF75CF9801B642872D820688D
:105940008003F7D50CE0FFF753F9064605E000BFEA
:10595000FFF74EF9801B6428F0D820688003F7D445
:105960002878800742D5D9F80010484611F00C0F6E
:1059700008D00068C0F3810002280BD1DAF80000DB
:10598000400207D42068800718D5E868012800D1B4
:1059900014E01EE1E8680028206817D040F00100FC
:1059A0002060FFF725F9064605E000BFFFF720F964
:1059B000801B0228C2D820688007F7D52869216893
:1059C00021F0F80141EAC00020600FE020F0010062
:1059D0002060FFF70DF9064605E000BFFFF708F964
:1059E000801B02281ED820688007F7D4287800077B
:1059F00029D5794869696C3000298046016812D040
:105A000041F001010160FFF7F3F8064605E000BF31
:105A1000FFF7EEF8801B022804D8D8F800008007B2
:105A2000F6D510E089E021F001010160FFF7E0F810
:105A3000064604E0FFF7DCF8801B02287DD8D8F882
:105A400000008007F6D4287840076BD5DFF88881FE
:105A500008F13808D8F80000C0000BD4D8F80010BE
:105A600041F08051C8F80010D8F80000012700F07C
:105A70008050009059480168C90512D401688346D6
:105A800041F480710160FFF7B3F8064605E000BFFE
:105A9000FFF7AEF8801B64284FD8DBF80000C00584
:105AA000F6D54D4EA868683601280AD008B10528F9
:105AB00011D0306820F001003060306820F0040020
:105AC00002E0306840F001003060A868A0B1FFF744
:105AD0008FF883460CE0306840F004003060F0E757
