:020000040800F2
:10000000481800200D0200080D710008AD5D0008C1
:10001000A57000088D0F0008937B00080000000009
:10002000000000000000000000000000AD710008AA
:100030007D1100080000000097710008D9710008C8
:1000400027020008270200082702000827020008EC
:1000500027020008270200082702000827020008DC
:1000600027020008270200082702000827020008CC
:10007000270200082702000827020008C110000814
:100080002702000827020008510A0008270200087A
:10009000270200082702000827020008270200089C
:1000A000270200082702000827020008270200088C
:1000B000270200082702000827020008B15D000897
:1000C000270200082702000827020008270200086C
:1000D000270200082702000827020008270200085C
:1000E000270200082702000827020008270200084C
:1000F000270200082702000827020008270200083C
:10010000270200082702000827020008270200082B
:100110003176000827020008D17200082702000883
:10012000CD10000827020008270200082702000857
:10013000270200082702000827020008BD0F000858
:10014000A50F0008B10F00082702000827020008C9
:1001500027020008270200082702000827020008DB
:1001600027020008270200082702000827020008CB
:1001700027020008270200082702000800000000EC
:1001800027020008270200082702000827020008AB
:10019000270200082702000827020008270200089B
:1001A000270200082702000827020008270200088B
:1001B000270200082702000827020008270200087B
:1001C000270200082702000800000000270200089C
:1001D000270200082702000827020008270200085B
:1001E000270200082702000827020008270200084B
:1001F0002702000827020008DFF80CD000F09CF866
:10020000004800476D7F00084818002006488047D6
:1002100006480047FEE7FEE7FEE7FEE7FEE7FEE7EB
:10022000FEE7FEE7FEE7FEE77D720008F901000841
:100230002DE9F05F0546002092469B46884606461B
:10024000814640241BE0284641464746224600F0AE
:1002500062F853465A46C01A914110D311461846C7
:10026000224600F049F82D1A67EB01084F46224656
:100270000120002100F040F817EB00094E41201E3C
:10028000A4F10104DFDC484631462A464346BDE876
:10029000F09F40EA01039B0703D009E008C9121F41
:1002A00008C0042AFAD203E011F8013B00F8013B30
:1002B000521EF9D27047D2B201E000F8012B491E5C
:1002C000FBD270470022F6E710B513460A460446F3
:1002D0001946FFF7F0FF204610BD30B50546002057
:1002E000034600E05B1C934205D2EC5CC85C201A1C
:1002F00001D1002CF6D130BD202A04DB203A00FACF
:1003000002F1002070479140C2F1200320FA03F36C
:10031000194390407047202A04DB203A21FA02F06A
:100320000021704721FA02F3D040C2F1200291402F
:100330000843194670470000064C074D06E0E06888
:1003400040F0010394E8070098471034AC42F6D31C
:10035000FFF756FF688700088887000810B51C88DB
:1003600014805C8854809C88948022F81100108846
:100370001880508858809088988010BD2DE9F05FD3
:10038000DFF8D083022700244FF0050B4FF0010A5D
:100390002DED028BB8F82E0CB8F83A1C88425FD0CD
:1003A000B8F8300CB8F83C1C884259D000F072FF05
:1003B0000020A8F8D24C00F071FEB8F8300CA0B1C3
:1003C000032812D001281ED088F81E4E022888F873
:1003D0001D4E88F81C4E27D088F81ABEB8F82E1C7F
:1003E000A8F83A1CA8F83C0C32E088F81E4E88F8B1
:1003F0001D4E88F81C4E88F81ABEBDEC028BBDE875
:10040000F05F07F0C5BC88F81E4E88F81D4E88F8CE
:100410001AAEB8F82A1CA8F81C1DB8F82E1CA8F8AB
:100420003A1CA8F83CAC5DE088F81A7EB8F8320CAB
:10043000A8F8200DB8F82E0CA8F83A0CA8F83C7CC7
:1004400098F8220E01287DD088F822AEA8F8D24C68
:1004500007F040FCBDEC028BBDE8F05F07F01EBC6E
:10046000BC4D192698F81C0E012895F81ECEB5F83B
:100470001C3DB5F82C2CB5F82A1C05F5806529D053
:1004800002285FD19942E1D0012ADFD150469FED89
:10049000B20BA8F81C1DBCF1040F88F81CAEA8F81C
:1004A000244D85EDD80B85EDDA0BC8F85C4B88F848
:1004B0001DAE47D0042188F81E1EA8F8D20CA8F85B
:1004C000246D00F0D7FE6420BDEC028BBDE8F05F28
:1004D00000F0E4BD98F81D0E012806D0022831D1A5
:1004E00088F81D4E88F81C7EB0E7994200D06AB1AA
:1004F000C1469FED9B8B9748BCF1060FB0F8240DC9
:1005000020D2DFE80CF0DC0A91E6FDF5A8F81C1D0E
:1005100088F81E4E88F81D7EE6E001284C467DD8FE
:10052000994274D0022A72D10B2007F05DFCB4F816
:10053000241C88426BDCB4F82A1CA4F81C1D84F827
:100540001EBE00E0BBE00020A4F8D27C07F04CFC0B
:1005500000EE100AB8EEC00B85EDD80BB4EEC80B58
:10056000F1EE10FA0CD2B5EEC00BF1EE10FA05DB8D
:10057000BCEEC00B10EE100AC0B202E0002000E09A
:10058000FF2000F08BFD022007F02EFC90FBF6F020
:10059000C4F85C0B002007F027FC0746012007F099
:1005A00023FC002F014605DB6FF000403A1A914210
:1005B00008DB06E007F10040814202DD4FF0004019
:1005C00000E0781A6FF0004280FB06700021D21B19
:1005D000814102DA6FF0004707E04FF00041791ADD
:1005E00070F1FF3001DA4FF00047022007F0FCFB0A
:1005F00000EE100AB8EEC01B00EE107AB8EEC00B89
:1006000080EE012B85EDDA2B57E007E0FFE784F859
:100610001EAEA4F8D2ACA4F8246D7AE0401E00D53A
:100620000020A9F8240D77E001284C464BD8D4F8D7
:100630005C0B002806DD012007F0D6FB94F8001EB5
:1006400088420EDB002000F029FD00F023FE03208D
:1006500084F81E0EA4F8246D94F8F20D84F8390E77
:1006600048E084F81E7E95EDD80B95EDDA1B30EE50
:10067000410B85EDD80BB4EEC80BF1EE10FA0DD29C
:10068000B5EEC00BF1EE10FA06DB00BFBCEEC00BFE
:1006900010EE100AC0B202E0002000E0FF2000F0DF
:1006A000FDFCD4F85C0B4FF00041884202DCC4F83A
:1006B0005C1B02E0401EC4F85C0BA4F8246DBDEC8A
:1006C000028BBDE8F09F401E00D50020A9F8240D44
:1006D000F5E799F8F21D484605290BD3082909D0FA
:1006E00080F81E4E89F81D7E00F0D4FD0020EBE658
:1006F00018E005E0BDEC028BBDE8F05F07F06ABAD8
:1007000001284946DFD881F81EAEA1F8D2ACA9F87D
:10071000246D642000F0C2FCBDEC028BBDE8F05FEC
:1007200007F0D8BA01284C46CDD884F81E7E95ED46
:10073000D80B95EDDA1B30EE410B85EDD80BB4EEFE
:10074000C80BF1EE10FAA9D2B5EEC00BF1EE10FA1B
:10075000A2DB9BE75000002000000000000000002A
:1007600000000000000070402DE9F047DFF83C92E7
:10077000012602274FF019084B46002499F8220E53
:1007800093F824CE93F8231E0128B3F8322CB3F843
:10079000205DB3F8343C0BD002287DD101294846B6
:1007A0002FD0022978D180F8234E80F8226E04E001
:1007B000AA42484601D0012B07D0A9F8D24C07F035
:1007C00089FABDE8F04707F069BAA0F8202D0129A1
:1007D00080F8227EA0F8284D05D080F8236E80F89E
:1007E000456E80F83C6EBCF1040F65D0042180F8A2
:1007F000241EA0F8D26CA9F8288D00F03BFD6420DF
:10080000C6E0AA4200D0EBB16849BCF1010FB1F8D3
:10081000281D1CD0BCF1020F5DD0BCF1030F70D0BD
:10082000BCF1040F48D101296CD880F8246EA0F8DF
:10083000D26CA9F8288D372000F030FCBDE8F047D5
:1008400007F048BAA0F8202D80F8254E99E001293C
:100850003BD8AA424D4631D0022B2FD10B2007F0B6
:10086000CBFAB5F8241C884228DCB5F8320CA5F880
:10087000200DA5F8D27C85F8247EA5F82A4DB5F880
:10088000360C05F63245B7EE002B00EE100AB8EE36
:10089000401BB1EE0C0B00E00EE007F09FFBE88878
:1008A000B7EE002B00EE100AB8EE401BB1EE0C0BB9
:1008B00007F094FB85F8F371BDE8F08785F8246EA6
:1008C000A5F8D26CA5F8288DB5E7491E00D5002102
:1008D000A9F8281DB2E7B9F8220C4D460A2812D310
:1008E000002000F0DBFB00F0D5FC85F8254E03214D
:1008F00085F8241EA5F8288D95F8F21D85F8391E77
:100900004AE038E04CE095F8250E01282BD002286B
:10091000D2D1B5F8360CB5F82A1D8842CCD0A5F84E
:100920002A0D85F8256EB5F8380C9FED212B00EEC9
:10093000100AB8EE401BB1EE0C0B07F04FFB9FED19
:100940001E1BB4EEC10BF1EE10FA12D2B5EEC00BC5
:10095000F1EE10FA0ADBBCEEC00B10EE100A00BF7D
:1009600085F8000EA8E785F8257EA5E785F8004EF6
:10097000A2E7FF20F4E790F8F21D03290CD3082921
:100980000AD080F8244E89F8237E00F083FC0020F2
:10099000BDE8F04700F082BBBDE8F04707F050B972
:1009A000491E00D50021A9F8281D85E75000002028
:1009B0000000000000000000000000000000704087
:1009C00010B50146806B026C12F0500F05D0026C1E
:1009D000D20626D502F0B3FB10BD016C41F40071C4
:1009E000016401688A6812F0405F17D18269AAB970
:1009F000CA6A12F4700F02D08A6852050ED44A688F
:100A000022F020024A60016C21F480710164016CC3
:100A1000C90403D4016C41F00101016402F084FBBC
:100A200010BD806BC26C0846BDE81040104710B581
:100A3000806B40210164416C41F00401416402F08B
:100A40007EFB10BD10B5806B02F078FB10BD00007E
:100A5000014802F075BB0000CC1000204A496FF03D
:100A6000706210B5D1F8043323F44033C1F8043375
:100A7000D1F8043344682343C1F8043301684B6858
:100A800023F480734B60016803694C6844EA0323D4
:100A90004B6001684B6823F040734B6001688468C9
:100AA0004B6823434B6001688B6823F400638B60C1
:100AB0000168C4688B6823438B60816AD1420168F6
:100AC0008A6822F070628A6001680DD0836A8A6841
:100AD0001A438A6001688A6822F040528A6001687D
:100AE000C36A8A681A4302E08A6822F040528A6028
:100AF00001688A6822F002028A60016882698B6854
:100B000043EA42028A6090F820100029016811D05F
:100B10001E4A4B6843F400634B6001684B6823F442
:100B200060434B600168446A4B6802EB44321343F4
:100B30004B6003E04A6822F400624A600168144B8B
:100B4000CA6A22F47002CA620168848BCA6A03EB23
:100B500004531A43CA6201688A6822F400728A60E8
:100B6000016890F830208B6843EA42228A6001686D
:100B70008A6822F480628A60016840698A6842EA71
:100B80008020886010BD00000020014000E0FFFFD1
:100B90000000F0FF2DE9F05FDFF8DC83022700247E
:100BA0004FF0050B4FF001092DED028BB8F82E0C1C
:100BB000B8F83A1C884267D0B8F8300CB8F83C1C3A
:100BC000884261D000F066FB0020A8F8D24C00F00B
:100BD00065FAB8F8300CA0B1032812D001281ED055
:100BE00088F8214E022888F8204E88F81F4E2FD012
:100BF00088F81ABEB8F82E1CA8F83A1CA8F83C0CC5
:100C00003AE088F8214E88F8204E88F81F4E88F880
:100C10001ABEBDEC028BBDE8F05F07F0B9B888F8EA
:100C2000214E88F8204E88F81F4E88F81A9EB8F892
:100C30002A1CA8F81C1DB8F82E1CA8F83A1CA8F805
:100C40003C9C98F81C0E022874D088F81C7E11E099
:100C500088F81A7EB8F8320CA8F8200DB8F82E0CD7
:100C6000A8F83A0CA8F83C7C98F8220E012861D02C
:100C700088F8229EA8F8D24C07F02CF8BDEC028B25
:100C8000BDE8F05F07F00AB8BB4D192698F81F2E93
:100C9000012A95F8211EB5F8320CB5F820CDB5F82B
:100CA000343C05F580650CD0022A43D198F8202EFB
:100CB000012A28D0022A3DD188F8204E88F81F9EAC
:100CC000D8E76045D6D0012BD4D19FEDAC0BA8F866
:100CD000200D042988F81F7E4A46A8F8264D85ED88
:100CE000DC0B85EDDE0BC8F8604B88F8209E21D028
:100CF000042088F8210EA8F8D22CA8F8266D00F060
:100D0000B9FA6420FFE0604500D063B1C2469FEDB0
:100D10009D8B994A0629B2F8262D0BD2DFE801F007
:100D2000DB0B90E5FDFCA8F8200D88F8214E88F833
:100D3000207EE5E0CFE0012A54467BD8604572D0A2
:100D4000022B70D10B2007F057F8B4F8241C88420E
:100D500069DCB4F8321C0020A4F8201D84F821BE00
:100D6000A4F8D27C07F048F800EE100AB8EEC00BE9
:100D700085EDDC0BB4EEC80BF1EE10FA0CD2B5EE3B
:100D8000C00BF1EE10FA05DBBCEEC00B10EE100A42
:100D9000C0B202E0002000E0FF2000F07FF9022056
:100DA00007F02AF890FBF6F0C4F8600B002007F07B
:100DB00023F80746012007F01FF8002F014605DB46
:100DC0006FF000403A1A914208DB06E007F100405C
:100DD000814202DD4FF0004000E0781A6FF00042DF
:100DE00080FB06700021D21B814102DA6FF00047C0
:100DF00007E04FF00041791A70F1FF3001DA4FF04F
:100E00000047022006F0F8FF00EE100AB8EEC01B03
:100E100000EE107AB8EEC00B80EE012B85EDDE2BD4
:100E200057E007E0FFE784F8219EA4F8D29CA4F8DD
:100E3000266D80E0521E00D50022AAF8262D7DE006
:100E4000012A54464BD8D4F8600B002806DD012057
:100E500006F0D2FF94F8001E88420EDB002000F05E
:100E60001DF900F017FA032084F8210EA4F8266D6E
:100E700094F8F20D84F8390E4BE084F8217E95ED5C
:100E8000DC0B95EDDE1B30EE410B85EDDC0BB4EE9B
:100E9000C80BF1EE10FA0DD2B5EEC00BF1EE10FA60
:100EA00006DB00BFBCEEC00B10EE100AC0B202E0C1
:100EB000002000E0FF2000F0F1F8D4F8600B4FF0C4
:100EC0000041884202DCC4F8601B02E0401EC4F806
:100ED000600BA4F8266DBDEC028BBDE8F09F521E9E
:100EE00000D50022AAF8262DF5E79AF8F21D504603
:100EF00003290ED308290CD080F8214E8AF8207ED1
:100F000000F0C8F90020BDEC028BBDE8F05F00F0F6
:100F1000C5B8BDEC028B01E016E003E0BDE8F05F70
:100F200006F08EBE012A5046D9D880F8219EA0F83E
:100F3000D29CAAF8266D642000F0B0F8BDEC028BBC
:100F4000BDE8F05F06F0C6BE012A5446C7D884F853
:100F5000217E95EDDC0B95EDDE1B30EE410B85ED32
:100F6000DC0BB4EEC80BF1EE10FAA3D2B5EEC00B59
:100F7000F1EE10FA9CDB95E7500000200000000025
:100F8000000000000000000000007040FEE70000CC
:100F900003480168002008640C21014804F048BCA3
:100FA000C4120020014802F028BC0000D01100202B
:100FB000014802F022BC0000D0110020014802F0DC
:100FC0001CBC0000D01100200A480E230021012281
:100FD00030B44FF47854C0E90612C0E90041816092
:100FE000C160C0E90413C0E9082330BC01460248CF
:100FF00002F0F4BA74110020D011002010B5FFF7F0
:10100000E3FF0848012102F06BFA0648022102F0D2
:1010100067FA0448102102F063FABDE81040014865
:1010200002F00ABED011002008B564208DF800003F
:10103000684600F00DF80248042104F0F9FB08BDF1
:1010400084120020014909688863704784120020D7
:1010500001789FED0D2B00EE101A9FED0E1B0C4832
:10106000B8EE404BD0ED030A016884EE023BB8EEC7
:10107000600B33EE011B21EE000BBDEEC00B10EE3A
:10108000100A8863704700000000000000409F4085
:10109000841200209A9999999999A93F0649642840
:1010A00081F8000E00D36420C0F1640081F80A0EBC
:1010B0000248FFF7CDBF0000500000205A0E00206C
:1010C000014802F0FFBD0000E4130020014802F0D7
:1010D000F9BD00001411002001681823CAB2103AAB
:1010E000B2FBF3F2054B6FF30901032A9B5CC36566
:1010F00000D9091D8165084670470000488700082F
:1011000010B583694FF0C074826A0146002053B164
:10111000B3F5005F15D072B1012A0CD0022A0AD0B3
:10112000032A09D104E01AB1012A06D0022A03D108
:10113000C96AC90100D5012010BDC96AA142FAD00F
:1011400010BD002AF7D0012AF2D0022AF3D0032AD8
:10115000F3D010BD30B50468256825F480252560DE
:10116000046863608368402B036803D0996000685B
:10117000C26030BD9A600068C16030BD7047000039
:10118000FEB500240D46102106460848224603F00D
:1011900023F8642034700121009501232246CDE913
:1011A00001100348A02103F0E7F8FEBD000402404F
:1011B000F8110020FEB5157850220F781C460178F2
:1011C0006426089B42EA111047EA01118DE8680085
:1011D000CAB241000248012303F0CEF82070FEBDE0
:1011E000F81100202DE9FC470078174609785022B5
:1011F000DDE90A9842EA10140F4D41EA0010C6B228
:101200000020195C2954401C1028FADB0B480022EE
:10121000102102F0E1FF002188F800103878610009
:1012200001233246CDE90050054803F057F989F80B
:101230000000BDE8FC870000BA1000200004024056
:10124000F811002010B500F025F8BDE8104000F0BE
:1012500019B8000000220248102102F0BDBF0000B2
:10126000000C024002780821014802F0B5BF0000DE
:10127000000C024000220248042102F0ADBF000031
:10128000000C024001220248102102F0A5BF00001C
:10129000000C024001220248042102F09DBF000020
:1012A000000C024070B505460C46084600F004F8F4
:1012B0002078287070BD00000121017002480A46A4
:1012C000490202F089BF00000008024000210170BD
:1012D00002480A464FF4007102F07EBF0008024047
:1012E000704700002DE9FF4F87B041789B46DDE94C
:1012F0001C54DDF86490179BDDE91A76DDE914AE25
:1013000084F8B31004F1B50290F80280511E84F8FD
:10131000B48004F1B30C90F8038084F8B58090F8A1
:101320000080B8F1570F09D0B8F1520F0DD0B8F1C5
:101330004C0F12D0B8F1450F70D0E7E0CDE900E3D3
:10134000031D6046FFF74EFFE0E004F1A300169B8B
:1013500000906046FFF72EFFD8E004F19300009064
:1013600004F1B6036046FFF725FF94F8B60094F841
:10137000B71088427DD000200DF1080104EB400237
:1013800092F8943092F8932003EB022221F8102077
:10139000401C0828F2DB94F8B30001280ED0022884
:1013A0000CD003280AD005281CD006281AD00828FB
:1013B00035D0092833D00B284ED05AE0C006020E93
:1013C000D01F904200D900205FF0000252FA80FC4A
:1013D00004EB4C0C31F81230521C082A2CF8023C59
:1013E000F4DB46E0021F904200D20022D0B21F2858
:1013F00001D9F82005E0D006020ED01F904200D996
:101400000020002252FA80FC04EB4C0C31F8123020
:10141000521C082AACF82E30F4DB2AE04AE0C21F46
:10142000904200D20022D0B21F2801D9F82305E053
:10143000D006020ED31F934200D900235FF00000B4
:1014400050FA83FC04EB4C0C31F81020401C0828A7
:10145000ACF84E20F4DB0CE00122002050FA82FCB4
:1014600004EB4C0C31F81030401C0828ACF86E30FE
:10147000F4DB002034F8102049F82020401C182804
:10148000F8DB002004EB4001B1F8502046F82020A2
:10149000098E47F82010401C1028F3DB5FF0000095
:1014A00004EB4001B1F8701045F82010401C0828EA
:1014B000F6DB2BE009995C224846FEF7EAFE0020A5
:1014C000C9F85C0078630146B863F863089A52F87B
:1014D000212047F821205BF8212046F82120491CD3
:1014E0000D29F3DB70630021DAF800202A60B06375
:1014F000DAF804206A60F063DAF80820C5F80820FA
:1015000005EB8102491C0529D060F9DB94F8B31082
:10151000002094F8B42094F8B53084F8801084F852
:10152000812084F882302118401C102891F8A320D3
:1015300081F88320F7DB04F1800006F041FE0020F3
:10154000211891F8802018990A54401C1328F7DBC1
:101550000BB0BDE8F08F00000348C168006841632C
:101560000021014804F064B9441200202DE9F0473D
:10157000DFF8EC804FF0FF334FF001094FF0020A23
:1015800008F580642DED028BB7EE008B84EDC88BDF
:1015900084EDD28BC8F8583B04F5AB6084EDE48B46
:1015A00088F8419E602188F83DAE04F5C76500F1DA
:1015B000600788F8B79000F1A006FEF783FE40218F
:1015C0003846FEF77FFE40213046FEF77BFE0020C6
:1015D0004FEA000145F82010401C0828FADB88F883
:1015E00038AD092184EDCC8B1E48454688F8171E7E
:1015F00006F00AFC1B48343006F042FC19489030D3
:1016000006F024FC1748C43006F018FC164A511E98
:10161000481EFFF7B5FD1448401C06F00DFEFFF70D
:10162000B7FCFFF7EBFCFFF7FFFCFFF70BFEFFF744
:1016300093FF01F0F3FB05F0A9F905F0ADF905F012
:10164000B7FD05F0BFFD95F8230E012803D185F8FD
:10165000459E85F83C9EBDEC028BBDE8F0870000FE
:1016600050000020D80800204A0E00202DE9F04F3D
:1016700040222DED068BA7B0FE492391A1F52C70D9
:10168000FEF707FEFB49602240312291A1F52C7044
:10169000FEF7FFFDF7494022A0312191A1F52C7002
:1016A000FEF7F7FDF44810AB90F8121E80F8F21D1B
:1016B00090F92F1D01EB410100EB4101B1F8802CA5
:1016C000A0F8202CB1F8822CA0F8222CB1F8841CB0
:1016D000A0F8241C90F9301D00EB8101B1F88C2C8E
:1016E000A0F8262CB1F88E1CA0F8281C90F8131E28
:1016F00080F8F31D90F9311D00EB8101B1F8942CB5
:10170000A0F82A2CB1F8961CA0F82C1C90F8141EF6
:10171000259190F9321D00EB8101B1F89C2CA0F8C5
:101720002E2CB1F89E1CA0F8301C90F9331D00EB54
:1017300081020021B2F8A44CA0F8324CB2F8A62CD9
:10174000A0F8342C00EB8102D2F8382B43F821208A
:10175000491C0829F6DB90F8151E002380F8F41DBB
:1017600090F8161E249190F9341D00EB8101B1F818
:10177000AC2CA0F8362CB1F8AE1CA0F8381C90F9AF
:10178000351D01EB81018C001A1903EB830102EB7B
:10179000820200EB810100EB820212F8C65F81F841
:1017A000E6535B1C142B557881F8E753957881F844
:1017B000E853D57881F8E953157981F8EA535579DA
:1017C00081F8EB53957981F8EC53D57981F8ED5395
:1017D000157A81F8EE53557A81F8EF53957A81F8AE
:1017E000F053D57A81F8F153157B81F8F253557B8C
:1017F00081F8F353957B81F8F453D57B81F8F55349
:10180000157C81F8F653557C81F8F753957C81F867
:10181000F853D27C81F8F923B6DB984D9FED981BE5
:101820008046014695EDD20B93484FF0FF3385ED8E
:10183000C80B00F206721A9295EDCE0BB7EE008B34
:10184000B2EE049B9FED90AB20EE010B00F6F81278
:101850000D9200F658100C90403A0E9230EE080BA4
:10186000BCEEC00B10EE100A81F8FC0DB1F8100DA3
:10187000A1F8D00CC1F8583B98F8190EF0B191F8C6
:101880001B0E0C4608B105F091F894F8270E08B12C
:1018900005F00AFC94F8290E08B101F04FF994F80C
:1018A000340E002870D0744994F8330EB8310128F2
:1018B0005CD0022870D0032866D16DE0012688F83C
:1018C000196E88F81B6E0027A8F81C7D4446A8F8FE
:1018D0001E7DA8F8207DA8F8227D98F81A0E04280D
:1018E00004D0042084F81A0E06F0A2F984F8276EBA
:1018F00084F8266E84F8296EC4F8647B94F8280E68
:10190000042802D0042084F8280E84F8346E0320C2
:1019100084F83A7E84F83B7E84F8330E94F8360ED1
:10192000012803D084F8366EA4F82C7D94F8350E87
:10193000012803D084F8356E05F03AFC84F8326E45
:1019400085EDE0AB94F8310E022804D0022084F833
:10195000310E85EDE08B84F8386E94F8370E01284F
:1019600003D084F8376E84F8017EA2E294F83B0E2F
:1019700058B194F8F32D94F83A3E9A4212D1401E91
:1019800000D5002084F83B0E18E0022084F8330EC6
:101990003F48FFF79BFC11E094F8F30D94F83A2EC2
:1019A00090420BD0012084F8330E26A8FFF77AFC72
:1019B00094F8F31D642084F83A1EE3E794F8360E99
:1019C000E8B194F8350E012802D0022817D104E0BE
:1019D0000020022184F8351E0FE0B4F82C0D0A28EF
:1019E00005D3012084F8350E05F0E2FB07E0401C2A
:1019F000B0F5803F01DB4FF6FF70A4F82C0D94F892
:101A0000320EA04600280BD098F8310E012802D0E3
:101A1000022805D105E0022088F8310E85EDE08B23
:101A20002DE295EDE00BB4EEC90BF1EE10FA7CDB84
:101A3000114A012105204FF0000C02F6E2530093F9
:101A400088F8311E02F64C1398F83D6E02F63829DC
:101A500002F64D571B9302F6046402F6026B02F67F
:101A6000036A343B199302F6BC020B92903B189325
:101A70001DAA0FE0A80A00205000002050040020FA
:101A80000B4C91061B2ECF3F000000000000000011
:101A9000550E0020062E6FD2DFE806F06E03068793
:101AA000FBF688F83D0EEAE198F8F90DFF2828D0FA
:101AB000AA2862D0002088F83D1E61461154401CBF
:101AC0001028FBDB0023009245201A46194606F039
:101AD00049F9DDE90D12CDF82090CDF82480CDE94B
:101AE00006210C98CDE902B41B99CDE90470CDE92B
:101AF000001A00BF0B9A1899DDE91930FFF7F2FBC5
:101B0000BDE1042188F83D1E88F8E3CD464688F8FB
:101B1000E4CD604688F8E5CD88F8E6CD88F8E7CDD5
:101B200088F8E8CD88F8E9CD00E0A4E188F8EACDAE
:101B3000AA2388F8EBCD002288F8ECCD88F8EDCD0B
:101B400088F8EECD88F8EFCD86F8F0CD86F8F10D67
:101B500086F8400E572086F83E1E114686F8E23D74
:101B6000012306F0FFF8DDE90D23CDF8209009965A
:101B7000CDE906320C98B5E75BE1032088F83D0E0D
:101B8000042388F840CE0020614688F83F3E115477
:101B9000401C1028FBDB491CFF290E4600D9FF2101
:101BA000009222E088F8406E69E198F83F3E012BF0
:101BB0000BD0022B36D0032B42D098F8403E032B9B
:101BC00055D3042088F83F1E60E098F8406E062E3A
:101BD00002D30320072139E0002160465054491CFC
:101BE0001029FBDB3DE0C1B20092102300224C2003
:101BF00006F0B8F8DDE90D23CDE90898CDE9063205
:101C00000C98CDE902B41B99CDE90470CDE9001A16
:101C10000B9A1899DDE91930FFF764FBFF2EC1D943
:101C2000FF26BFE798F8406E0B2E02D388F83FCE10
:101C300037E7002061461154401C1028FBDB10E000
:101C400098F8406E092E06D302200A2188F83F0E2C
:101C500088F8401E13E1002061461154401C1028F2
:101C6000FBDB761CFF2E3046BDD9FF20BBE70020F2
:101C700061461154401C1028FBDB5B1CFF2B00D974
:101C8000FF230092D9B247E0C1E002E088F8400E9D
:101C9000F5E098F83E3E012B13D0022B24D0032B05
:101CA00067D0042B7CD098F8400E032871D388F8B5
:101CB00040CE88F83E1E1898B2EE0A0B06F080FB64
:101CC000DDE098F8400E022808D388F840CE0321C2
:101CD00088F83E1E1998B2EE0A0BEFE706F06AF894
:101CE00098F8400E401D20E098F8400EC0B188F8EA
:101CF0003ECE032088F83D0E042388F840CE002015
:101D0000614688F83F3E1154401C1028FBDB491CFB
:101D1000FF2900D9FF210092102300224C200BE064
:101D200006F048F898F8400E0B30FF2800D9FF2045
:101D3000C1B210230022572006F014F8DDE90D127D
:101D4000CDE90898CDE906210C98CDE902B41B999C
:101D5000CDE90470CDE9001A0B9A1899DDE9193024
:101D6000FFF7C0FA98F8400E401CFF288ED9FF20DC
:101D70008CE798F8400E02280CD388F840CE022158
:101D800088F83E1E1B98B0EE080B06F061FA76E06C
:101D900006E014E006F00EF898F8400E0830C4E7AC
:101DA00088F83E0E0B98B3EE070B06F0ADFA98F8E4
:101DB000400E05F0FFFF98F8400E401CB5E705F017
:101DC000F9FF98F8400E401CFF28064600D9FF2076
:101DD000C1B210230022572005F0C4FFDDE90D0138
:101DE000CDE90898CDE906100C98CDE902B4CDE90B
:101DF00004701B98CDE9000A0B9A1899DDE9193097
:101E0000FFF770FAFF2E7FF60CAFFF26CAE695EDBE
:101E1000E60BB4EE480BF1EE10FA07D198F8031E6A
:101E200098F8410E814201D006203AE606F02CFBDC
:101E300025E095EDE60BB5EEC00BF1EE10FAF4D00F
:101E40000D9A4C2385EDE6AB88F8063710260E9BDD
:101E500088F808C788F80967CDE906320C98CDF8EC
:101E60002090CDF82480CDE902B4CDE904701B9810
:101E7000CDE9000A3EE630EE080B85EDE00B98F860
:101E8000381E4046A9B190F8371E012902D0022918
:101E90000FD10BE0002180F8011E109949B10221F9
:101EA00080F8371E012288F8012E02E0012188F80F
:101EB000011E95EDE80BB8F8200C444630EE080BF7
:101EC00085EDE80B98F8422E24998A4209D085EDD9
:101ED000CA0B85EDE8AB84F8421EB4F8121DA4F8D5
:101EE000D61C6D4E86ED5EAB94F8011E01294BD1D8
:101EF00086ED5E8B94F8F41D19B10020A4F8D80C7F
:101F000040E0B0EE000B86ED5E0B94F8F21D129AE5
:101F1000914239DBB0EE080B86ED5E0B109A8242DF
:101F200032DBB1EE000B86ED5E0B1199B1F1004F83
:101F300002DC6FF0004100E0494200EE101AB4F8F4
:101F4000D61C95EDCA1B401AB8EEC02B00EE100A45
:101F5000B8EEC00B20EE090B80EE013BB4EEC23BA5
:101F6000F1EE10FA10D8002084F80C0E4A489C3884
:101F7000FFF76EF80121A4F8D81CB1EE040B642021
:101F800086ED5E0B84F80B0E259800EE100AB4F86F
:101F9000200CA4F8120DB8EE400B94F80B0EE8B329
:101FA00084F8FF0D95EDCE1B9FED3C3BB5EE002B6D
:101FB0003C4821EE031B00EE021B11EE101A11EE3D
:101FC000902A8DED001B8163C2631422B4F8D80CF3
:101FD000A4F8100D30481A994C30FEF75AF994F8CD
:101FE000021E002086F8601094F8031E86F8611027
:101FF00094F8041E86F8621022183118401C92F8DA
:102000004D2D132881F86320F6DB234860220C99BC
:102010007830FEF73EF92048402200E039E00E9982
:10202000D830FEF736F9204840220D99FEF731F9F5
:102030005FF0000004EB800206EB8001401CD2F848
:10204000382A0828C1F85821F4DB0E994022239839
:10205000FEF71FF90C9960222298FEF71AF90D99E4
:1020600040222198FEF715F95FF0000004EB800193
:10207000401C0828D1F8382AC1F8382BF6DB0B4869
:1020800041684868401C486027B0BDEC068BBDE83D
:10209000F08F94F8000E83E7F80E00203FEB964F88
:1020A0001E0DEE3F5007002010100020F48600089F
:1020B0002DE9FC5FFE4C002604F6486194F8FF0D04
:1020C00084F8F50D91ED040BBDEEC00B10EE100A77
:1020D000012858D0022830465ED02118401C0A281A
:1020E00081F8396DF9DBF348811C831E021FCDE9AD
:1020F0000001811F593005F039FDED490127B4F881
:10210000DA0C4FF4803901F652424FF6FF75C031B8
:1021100040F2022AA0F540738B46053B009216D090
:10212000B0F5017F59D0B0F5007F64D0A0F54071C3
:1021300006393DD0A0F5007101397CD050457BD1E6
:10214000B4F8DC0C012878D0022877D0DCE0B4F8B1
:10215000DC0C0B46A4F8E40C0021B4F8DE0CFEF70E
:10216000FDF8B4F8E00C0221009A5B46FEF7F6F8A1
:1021700094F8100EFF2818D0401CFF2800DDFF2027
:1021800084F8100EC0E0002023180A5C401C0A28C6
:1021900083F8392DF8DBA6E70B182218401C1B7EAC
:1021A0000A2882F8393DF7DB9DE784F8106EABE032
:1021B000B4F8DC1C0A20A0465B46B1FBF0F001211C
:1021C000FEF7CCF8B8F84E0CFF28B8F8E00CA8F8E9
:1021D0004E0C37D3A8F8506C3CE094F80D0EFF2855
:1021E00002D384F80D6E8FE0401CFF2800DDFF2035
:1021F00084F80D0E88E0B4F83E1CB4F8DC0CFF291E
:1022000002D3A4F83E6C05E0491C494500DB294691
:10221000A4F83E1CA4F8400C94F8F51D642973D072
:10222000322803D0642801D0C8286DD1002005F0E1
:1022300081FF002003E012E05AE046E04FE005F0A5
:102240008DFF61E0B8F8500C401C484500DB284683
:10225000A8F8500CB8F8E00CA8F8500C54E0B4F80A
:10226000DC0CFF2800D9FF20C2B284F80E2EB4F88F
:10227000460CB4F8DE1CFF2802D3A4F8466C05E037
:10228000401C484500DB2846A4F8460C1E2AA4F84A
:10229000481C08D9002005F04DFF002005F05EFF26
:1022A00084F80F7E01E084F80F6EB4F8E00C58B3A8
:1022B000FF28A4F8E80C01D8012800D0002084F8F9
:1022C000110E7D48FEF7CEFF1EE0B4F8DE0C05F0DF
:1022D00031FFB4F8440C08E084F80E6E14E0B4F852
:1022E000DE0C05F03BFFB4F84C0C0028F4D00BE0FA
:1022F000A0F50071033907D1B4F8DC0CA4F8E60CA2
:10230000B4F8DE0CA4F8EA0C94F8360D58B9B4F819
:10231000520CA4F8B40CB4F8540CA4F8B60CB4F8ED
:10232000560CA4F8B80C022394F8FE1D642294F80D
:10233000E4BC84F8F71D94F8178E6048B8F10A0FD2
:1023400062D2DFE808F061057A117A2128454F5BF7
:10235000062284F8172E4FF40070A4F8C80C4FF42E
:10236000C871A4F8CA1C68E0B4F81A0D042802D099
:1023700006F008F961E084F8173E4FF47A70A4F88B
:10238000C80CA4F8CA3C58E084F8177EA4F8C8AC7E
:10239000A4F8CA7C48E0B4F81A0D012801D051B164
:1023A00013E0082184F8171E40F20530A4F8C80C89
:1023B000A4F8CE2C41E094F8182E012A05D1401C37
:1023C000484500D32846A4F81A0D84F8181E34E0B6
:1023D000032084F8170EA4F8C86CA4F8166DA4F8AE
:1023E000186D2AE0A4F8CE2C072184F8171EA4F853
:1023F000C8ACA4F8CA7CA4F8CC3C1EE00A2184F83E
:10240000171E9FED2F0B16E090EDD60B9FED2E1BA8
:10241000B4EE410BF1EE10FA09D1052184F8171E34
:1024200040F20120A4F8C80CA4F8CC7C05E0B7EE7B
:10243000001B30EE010B80EDD60B1E4824496330A3
:10244000A0F175039A1ECDE90010911E7B3804F0AF
:1024500075FE84F812BE94F82F1DB4F8520C31B3F7
:102460005FF0000101EB410104EB4101A1F8800C98
:1024700094F82F1DB4F8540C61B3002101EB410115
:1024800004EB4101A1F8820C94F82F1DB4F8560C0E
:10249000E9B3002101EB410104EB4101A1F8840CF7
:1024A00094F82F0DA0B3002084F82F0D13E0BBE0AB
:1024B00050000020300D0020610E0020500400204C
:1024C00000000000000000000000000000709740C5
:1024D000F4860008AAE094F8301DB4F83E0CE1B38D
:1024E0005FF0000104EB8101A1F88C0C94F8301D21
:1024F000B4F8400C91B3002104EB8101A1F88E0CDB
:1025000094F8300D58B3002084F8300D01E08FE0CE
:1025100090E094F80D0E84F8130E94F8311DB4F881
:10252000420CE9B35FF0000104EB8101A1F8940CC7
:1025300094F8311DB4F8440C99B3002104EB8101E7
:10254000A1F8960C94F8310D60B3002084F8310D99
:1025500094F80E0E84F8140E02E06DE06EE06FE069
:1025600094F8321DB4F8460CE9B3002104EB810164
:10257000A1F89C0C94F8321DB4F8480CA1B30021CA
:1025800004EB8101A1F89E0C94F8320D68B3002091
:1025900084F8320D94F8331DB4F84A0C31B302E0DC
:1025A00050E051E052E0002104EB8101A1F8A40CBD
:1025B00094F8331DB4F84C0CA1B3002104EB810155
:1025C000A1F8A60C94F8330D68B3002084F8330DFD
:1025D00094F80F0E84F8150E94F8100E84F8160E69
:1025E00094F8341D03E033E035E036E037E0B4F82A
:1025F0004E0C79B35FF0000104EB8101A1F8AC0C43
:1026000094F8341DB4F8500C79B3002104EB810127
:10261000A1F8AE0C94F8340D40B3002084F8340DCA
:10262000BDE8FC9F1DE01EE001211BE7012125E71D
:1026300001212FE7012037E7012153E701215BE763
:10264000012061E701216FE7012177E701207DE7A4
:1026500001218BE70BE0012192E7012098E701219E
:10266000A2E70121AAE70120B0E702E003E001218F
:10267000C2E70121CAE70120D0E700002DE9F04FB1
:1026800045499BB00DF1080C91F92E3D002003EB5C
:10269000C303C41801EB8404D4F8B04B4CF82040B9
:1026A000401C0928F5DBB1F8149D0123B1F8EA0CB0
:1026B000189091F8FF0D1790B1F8D20C1690B1F860
:1026C000E60C1590B1F83CBCB1F8E8AC81F8363DA9
:1026D0000020B1F8B45CB1F8B63CB1F8B84C81F860
:1026E000360D65F30F0291F8FE7D0BAC91F80E6E7E
:1026F00063F31F4291F8FD5D01EB40083CF8203088
:10270000A8F8583C24F81030401C0928F4DBA1F844
:102710006A9C4FEA1248189AA1F86C2C179AA1F8F3
:102720006E2C169AA1F8702C159AA1F8722CA1F8AB
:1027300074BCA1F876ACA1F8788CA1F87A7CA1F8E9
:102740007C6CA1F87E5C15490091A1F5987004F0AD
:1027500012FD009805F050FD1148002134F81120B9
:1027600020F81120491C0929F8DBA0F812901899CB
:1027700081821799C1821699018315994183A0F826
:102780001CB0A0F81EA0A0F8208047848684C584D1
:102790001BB0BDE8F08F000050000020D80D0020D5
:1027A000F80E00201D4810B504F0F6FC1C4901F598
:1027B000387005F095FF1B4A0020014602EB8003AC
:1027C000401C09289962F9DB174890F8372D32B977
:1027D00000EB8203C3F8F81B521C092AF8DB002225
:1027E00090F82E3DABB1002303EBC3031344521CFE
:1027F00000EB8303092AC3F8B01BF1DB90F82E1D10
:1028000049B1002180F82E1DB0F80E1DA0F8141D4E
:1028100010BD0123E8E70121F4E700005E0D002070
:10282000DC0B0020F80E002050000020F8B56F4CA3
:10283000012084F8370D002004EB8001D1F8F82B3B
:10284000401C0928C1F8682BF6DB002584F8375DA9
:10285000B4F8EA0C0723A4F8BA0C94F8FF0D84F836
:10286000F60DB4F8D20CA4F8BC0CB4F8E60CA4F83D
:10287000BE0CB4F83C1CA4F8C01CB4F8E81CA4F8C6
:10288000C21CB4F80E1DA4F8C41CB4F8D81C584AD5
:10289000A4F8C61C04F6BA4402F1100105F016FBB8
:1028A000534A0A2360862032A086208802F116014E
:1028B00005F00CFBE0864FF4A06121874FF44472D1
:1028C0006287531CA387961DE687D71DA4F8407026
:1028D00094F88901A4F6BA4464283ED3B4F8780B7E
:1028E000A4F8040DB4F87C0B424EA4F8060DB4F81D
:1028F000740BA6F15E03A4F8080D9A1EB4F8880BB9
:10290000911EA4F80A0D881E04F66834009604F09F
:10291000FEFBA6F17000314605F034FC208B083E2A
:10292000A4F89401A6F15E0320889A1EA4F89601EB
:10293000911EA088A4F898012089A4F89A01881E05
:10294000009604F0E4FBA6F16600314605F01AFC9F
:1029500084F8DB52A4F6683403E094F8440E0A28A5
:102960001FD3244E244A10360096A6F1BC03991EAC
:10297000081D04F0CCFBA6F18200314605F002FCF4
:10298000083E0096A6F1AC0303F12C02911E881EAE
:1029900004F0BDFBA6F17E00314605F0F3FB84F8A0
:1029A000445E144D94F8F60D1835A4F80C0DA5F1FD
:1029B000BA0300951A1F911E01F14C0004F0A7FB09
:1029C000A5F18C00294605F0DDFB94F8440E401C6F
:1029D000FF2800DDFF2084F8440E94F8430E401CCD
:1029E000FF2800DDFF2084F8430EF8BD50000020D2
:1029F000FC860008B80D0020F48600084C49002031
:102A000010B586B06A4691F848308DF8003091F8DC
:102A100049308DF8013091F84A308DF8023091F844
:102A20004B308DF803300C181318401C94F84C40B0
:102A300010281C71F7DB104605F064FD3D4B0022A9
:102A400093F8350DE8B3002002EB820100EB800023
:102A500003EB810102EB800000EB800091F87645EA
:102A600003EB800080F8C64091F8774580F8C740B6
:102A700091F8784580F8C84091F8794580F8C940C8
:102A800091F87A4580F8CA4091F87B4580F8CB40B0
:102A900091F87C4580F8CC4091F87D4580F8CD4098
:102AA00091F87E4580F8CE4091F87F4580F8CF4080
:102AB00091F8804580F8D04091F8814580F8D14068
:102AC00000E030E091F8824580F8D24091F88345EB
:102AD00080F8D34091F8844580F8D44091F885453A
:102AE00080F8D54091F8864580F8D64091F8874522
:102AF00080F8D74091F8884580F8D84091F889153A
:102B000080F8D910521C142A9ADB93F8350D60B165
:102B10005FF0000083F8350D074890EDCC0B80ED99
:102B2000D20B06B010BD01208EE70120F2E70000B5
:102B3000980E002050000020500400202DE9F04F96
:102B4000A64C89B00125224602F6FD5094F828CE05
:102B500002F6FE51009002F1B90BD2F8640B00238B
:102B60000391032792F82EAE411E92F82A9E022668
:102B7000EA07BCF1070F47D2DFE80CF04604F66520
:102B8000F6C4F600BAF1010FD4460BD0BCF1020F27
:102B900011D0BCF1030F17D0BAF1040F34D10128C2
:102BA00035D0C7E0012873D184F8303E84F82E3E3A
:102BB00084F8286ED5E001286AD184F82E7E00F0D2
:102BC000A7F9C4F8640BCCE0012861D184F82E5E2B
:102BD00000F09EF9C4F8640B94F8000E512894F8A4
:102BE000300E07D201280FD0502084F8305EFEF757
:102BF00055FA03E0022807D084F8306E04A9009A41
:102C00005B46039800F04EF909B0BDE8F08F84F8F8
:102C10002F3E84F82E6E00F07BF9714AC4F8640BE5
:102C2000511E481E00F00AF994F8080E84F8FD0DB4
:102C300094F8060E84F8FE0DE6E7C4F8642BE3E78B
:102C4000C4F8641BE0E7D4F8581B0420022920D004
:102C50000029D9D1BAF1040F84F8285E05D084F890
:102C60002E0E00F055F9C4F8640B94F8260E0328D4
:102C700037D0042843D000BF94F8000E3C283ED83B
:102C800094F82F0E0128BFD03C2084F82F5E33E04B
:102C900050E094F8F21D0529B6D2052284F8282EBA
:102CA000B9F1040F0BD084F82A0E00F031F94D4928
:102CB000884201DD481C00E0401CC4F8640B94F815
:102CC000260E032894F82D0E06D001289CD084F8F7
:102CD0002D5EFEF7BFFA97E7022895D084F82D6E97
:102CE00009E094F8000E5028C6D894F82F0E032857
:102CF0008AD084F82F7E5020FEF7D0F984E784F83C
:102D00002F6E81E7B9F1010FCC460BD0BCF1020F59
:102D100013D0BCF1030F30D0B9F1040F8CD10128CE
:102D200036D007E0012805D184F82A3E062084F831
:102D3000280E16E0904283DC7FE70128FAD184F860
:102D40002C3E84F82A7E00F0E3F8C4F8640B94F873
:102D5000260E032894F82B0E07D00128BBD084F848
:102D60002B5E00F0B3F84FE734E00228B3D0002028
:102D700084F82B6EFEF792F9F3E70128DAD184F894
:102D80002B3E84F82A5E00F0C3F8C4F8640B35E7E4
:102D900084F82D3E84F82A6E00F0BAF80F4FC4F87C
:102DA000640B94F8260EBC37032894F82C0E06D03A
:102DB000012890D084F82C5EFEF764FA03E0022824
:102DC00089D084F82C6E04A9009A3B46039800F041
:102DD0008BF819E784F8287E16E7000050000020E1
:102DE000580E0020FEFFFF7F10B5002303700B700C
:102DF000012414700421084C1A46204601F0ECF915
:102E000000222046082101F0E7F901222046BDE812
:102E10001040022101F0E0B90010024008B56846F8
:102E200000F002F808BD00000021017002480A46C7
:102E3000022101F0D1B900000010024010B50024B9
:102E4000047001230B7013702246084C04212046A5
:102E500001F0C2F901222046082101F0BDF901224A
:102E60002046BDE81040022101F0B6B90010024032
:102E700010B50123037000240C70094C0421137059
:102E80001A46204601F0A8F900222046082101F048
:102E9000A3F901222046BDE81040022101F09CB9AF
:102EA000001002402DE9F0411C4615469A1C0E46C2
:102EB000591C07462046FFF797FFA0782870207816
:102EC000387060783070BDE8F0810000044810B5BB
:102ED000FFF7AAFF034890F8091E80F8FD1D10BDFA
:102EE000590E0020500000202DE9F0411C461546E7
:102EF0009A1C0E46591C07462046FFF7B9FFA078DA
:102F000028702078387060783070BDE8F08100005B
:102F10002A49084691F82A2E90F8260E042A10D045
:102F2000022A16D0032A2FD0012A35D091F82E0E6E
:102F3000042839D002283AD003283BD0D1F814080D
:102F40007047032802D0D1F828087047D1F8380814
:102F5000704703280FD091F8F22D012A0ED01748A0
:102F6000022AD0F81C08F3D0032A0AD0042AEFD191
:102F7000D1F824087047D1F834087047D1F8180800
:102F80007047D1F820087047032802D0D1F82C08E8
:102F90007047D1F8F0077047032802D0D1F8300805
:102FA0007047D1F8F4077047D1F80C087047D1F892
:102FB00008087047D1F81008704700005000002042
:102FC00070470000F8B50025009590F83C20012AD4
:102FD00018D0012280F83C200A6807234E4C06686E
:102FE000092A1AD90A3A02EB4207F268BB409A430F
:102FF000F2600E680268A64206D10B7AD66846EAED
:10300000036308E00220F8BD0A3E8B68D76806EB30
:103010004606B3403B43D3600EE002EB4207326901
:10302000BB409A43326103680E788A681F6906EBD9
:103030004606B2403A431A614A681F23072A13D250
:103040000668521E02EB8207726BBB409A437263A2
:1030500003680E790A88761E5F6B92B206EB8606CD
:10306000B2403A435A6327E006680D2A12D2D21FB3
:1030700002EB8207326BBB409A43326302680E79DF
:103080000B88F61F176B9BB206EB8606B3403B43DB
:10309000136311E00D3A02EB8207F26ABB409A43D8
:1030A000F26202680E790B880D3ED76A9BB206EB7E
:1030B0008606B3403B43D362184A0368934208D163
:1030C0000B68122B05D1D2F8043343F48003C2F805
:1030D0000433036893421AD10B68A34201D0112B29
:1030E00015D1D2F8043343F40003C2F8043309685D
:1030F000A1420CD10A490B4A0968B1FBF2F101EB7C
:103100008101490000E0491E00910029FBD180F8AF
:103110003C500020F8BD00001200001000200140CB
:103120004800002040420F0000680349884201D156
:10313000FFF738BB70470000002001407047704720
:1031400070B50446006801684268C1F34001C2F3EB
:10315000401251B34AB3216CC90603D4216C41F427
:1031600000712164816811F0405F17D1A169A9B98C
:10317000C16A11F4700F02D0816849050ED441680C
:1031800021F020014160206C20F480702064206CCC
:10319000C00403D4206C40F0010020642046FFF7F7
:1031A000C3FF21686FF01200086020680168426860
:1031B000C1F38001C2F3C01289B382B3216CC90686
:1031C00003D4216C41F400512164816811F4401F43
:1031D0001ED1816B11F4401F02D08168490517D4BC
:1031E0004168490514D4816811F0405F10D1A1698C
:1031F00071B9416821F080014160206C20F4805059
:103200002064206CC00503D4206C40F001002064D1
:103210002046FFF7D5FE21686FF00C00086020689B
:103220000168436811F0010FC3F380110ED069B13A
:103230000068C0070AD0206C40F48030206420462B
:1032400000F046F821686FF001000860206801680E
:103250004268C1F340110029C2F380620DD0002AF8
:103260000BD0616C6FF0200541F0020161640560D4
:103270002046FFF764FF2068056070BD70B504004C
:103280004FF0000503D0206C002610B107E00120AC
:1032900070BD204600F01EF8666484F83C60206C27
:1032A000C00610D4206C20F4885040F00200206446
:1032B0002046FDF7D3FB6664206C20F0020040F04E
:1032C0000100206400E0012584F83C60284670BDC0
:1032D00070470000F0B587B0064614216846FCF739
:1032E000F1FF30493068884259D12F48016841F4D4
:1032F0008071016000682C4900F4807005901439D9
:10330000086840F004000860086800F004000590B8
:10331000086840F001000860086800F001000590AE
:10332000086840F002000860086803240025694628
:1033300000F00200059013208DE831001B4800F0DA
:1033400053FEF02069468DE83100194800F04CFE2C
:10335000009469461748CDE9014500F045FE164C3A
:1033600016480115C4E900058715A5600B01C4E9DD
:10337000035182142046C4E907756562C4E9052338
:1033800000F070FD08B1FDF7ABFFB463002204212B
:10339000A663122001F096F9122001F085F907B01A
:1033A000F0BD000000200140443802400008024007
:1033B000000002400004024014110020106402408A
:1033C000F8B50D4604460021009190F83C00012814
:1033D00007D0012084F83C0020688368DB0702D016
:1033E00011E00220F8BD8668364B46F00106866083
:1033F00035480068B0FBF3F000EB400000E0401EF1
:1034000000900028FBD120688368DB0758D0236C2C
:1034100040F20166B34343F480732364406840057F
:1034200005D5206C20F4005040F480502064206CBE
:10343000C00404D5606C20F00600606400E06164A4
:103440006FF0220084F83C10A36B2049D963A36B72
:103450001F491964A36B1F49D9642168086020685B
:10346000416841F0806141602068816841F4807169
:10347000816021681346A06B2A464C3100F064FD40
:103480001549D1F80403C006206811D0884207D13D
:10349000826812F0405F03D1826842F0804282600D
:1034A000D1F80403C0060BD40C492068884207D128
:1034B000816811F0405F03D1816841F080418160F3
:1034C0000020F8BD40420F0048000020C10900085C
:1034D000450A00082F0A0008002001400022014090
:1034E00090F82020012A07D0022A05D0416A41F431
:1034F0008021416201207047006842690A434261AD
:1035000000207047F0B590F820500468A468012DA1
:1035100005D0022D03D0416A41F480215AE014F015
:10352000406F01D1E50052D5C4F30164022C03D9E8
:10353000416A41F400014DE001264FF4C075A640F8
:103540001E608B68ABB1CE684F68D0F800C03343C3
:1035500005EB041643EAC7034CF8063007684FF43E
:10356000C27303EB04130E69FE50097D012909D0D3
:103570000DE00E88CB68076843EA465305EB041656
:10358000BB51EBE70168CE5846F48076CE50D2F8B6
:1035900005304FF4C67C11790CEB041C06684FF41F
:1035A000C47741EA032107EB041346F80C101678A0
:1035B00005EB0411D2F80120076846EA0222FA500E
:1035C0000068425842F0010242500020F0BD416ABA
:1035D00041F4001141620120F0BD000030B590F8C7
:1035E00020300268012B07D0022B05D0416A41F43C
:1035F00080214162012030BD3E4C3F48A24200D0B4
:103600000246D2F80032824243F00103C2F800328F
:103610000CD1D2F8000220F47C50C2F80002D2F89B
:1036200000024B6A40EA0320C2F800020C7D012030
:10363000D2F81C3204F01F04A0408343C2F81C32AD
:10364000CB69B3B9D2F80C328343C2F80C328C89FF
:103650004B684D6964F31F4302EBC504C4F8403264
:103660000C890B684D6964F31F4302EBC504C4F871
:103670004432CB69012B16D1D2F80C320343C2F885
:103680000C320C884B684D6964F31F4302EBC50490
:10369000C4F840320C89CB684D6964F31F4302EBD8
:1036A000C504C4F844328B69002BD2F804320FD021
:1036B00053EA0003C2F804320B69002BD2F814322B
:1036C00008D00343C2F81432096A012904D008E083
:1036D0008343EFE78343F5E7D2F81C120143C2F8B6
:1036E0001C12D2F8000220F00100C2F800020020F3
:1036F00030BD00000034004000640040704700000E
:10370000F0B590F82040012C05D0022C03D0416A7E
:1037100041F4802166E0046800295ED02469A40792
:103720005DD005684FF4D87404EB01142D5915F0E1
:103730000405956005682D5957D0ED08C2F804506E
:1037400007684FF4DA754FF4DC7C4FF4DE763C59B1
:10375000002905EB0115C4F34007D7600CEB0114F9
:1037600006EB01110668765906F00F061661066829
:103770007659C6F307269661066875594FEA1545CE
:103780005561026812591A70026812594FEA1222E2
:103790005A70026812594FEA12429A70026812591E
:1037A0004FEA1262DA70026852581A71026852586F
:1037B0004FEA12225A71026852584FEA12429A7125
:1037C000026851584FEA1161D971006810D001693F
:1037D00041F0200101610020F0BDE4689FE7416AEB
:1037E00041F4001141620120F0BD6D0D1560A7E7A5
:1037F000C16841F02001C160EDE72DE9F05F0546A9
:10380000006800244669D0F804908768D0F80CB0AE
:10381000D0F810A0F207D0F8188048D0F90714D0DB
:1038200001218160BA0703D5284600F032FA0CE086
:10383000780702D54FF4006407E0380702D54FF44B
:10384000805402E0284600F023FAF80516D52868CF
:10385000BA054FF48071816003D5284600F01BFA49
:103860000CE0780502D544F4005407E0380502D591
:1038700044F4804402E0284600F00CFAF80316D520
:103880002868BA034FF48031816003D5284600F0E0
:1038900004FA0CE0780302D544F4004407E038034E
:1038A00002D544F4803402E0284600F0F5F93007F0
:1038B00007D55FEACB6004D52968102044F4007472
:1038C000C86070074FF0080707D55FEA0B7004D592
:1038D0002868C760284600F075F9B00706D5286843
:1038E000C068800702D0284600F06EF9700607D540
:1038F0005FEACA6004D52968102044F48064086136
:10390000B00607D55FEA0A7004D528680761284623
:1039100000F08EF9F00606D528680069800702D00D
:10392000284600F086F9B00308D55FEAC96005D5DE
:10393000296810204860284600F07CF9F00307D57C
:103940005FEA097004D528684760284600F0A6F9A8
:10395000300446D55FEA497040D5F00504D55FEAEA
:10396000C87001D044F00104B00504D55FEA887046
:1039700001D544F00204700504D55FEA487001D512
:1039800044F00404300529D518F0700F26D008F053
:103990007000402815D006DC102809D020280AD055
:1039A000302816D10AE050280ED0602811D10EE040
:1039B00044F008040DE044F010040AE044F0200450
:1039C00007E044F0400404E044F0800401E044F4E3
:1039D00080742868816921F0700181612968042060
:1039E0004860002C05D0686A204368622846FFF7CB
:1039F00085FEBDE8F09F70B5040003D094F8200068
:103A000010B104E0012070BD204600F081F820686C
:103A1000016821F00201016000F0E4FB0526054683
:103A200004E000F0DFFB401B0A2811D82068406842
:103A30008007F6D42068016841F00101016000F0C0
:103A4000D1FB05460BE000F0CDFB401B0A2806D950
:103A5000606A40F40030606284F82060D2E7206839
:103A60004068C007EFD0207E0128206801683DD063
:103A700021F080010160607E01282068016838D053
:103A800021F040010160A07E01282068016833D048
:103A900021F020010160E07E0128206801682ED01D
:103AA00041F010010160207F01282068016829D0C1
:103AB00021F008010160607F01282068016824D09E
:103AC00021F004010160D4E90110D4E903326569F1
:103AD000491E184323682A43104300220843D86133
:103AE0000121626284F82010104670BD41F080010F
:103AF000C0E741F04001C5E741F02001CAE721F0ED
:103B00001001CFE741F00801D4E741F00401D9E703
:103B100010B586B0044614216846FCF7D3FB26494D
:103B20002068884246D12548016841F4005101606F
:103B3000016801F400510591016841F08061016064
:103B4000016801F080610591016841F00071016038
:103B5000006800F00070059018481038016841F0C6
:103B60000201016000680221002200F002000590BD
:103B7000032309244FF440508DE81F001048694684
:103B800000F032FA002202213F2000F09BFD3F208E
:103B900000F08AFD00220121402000F093FD40202A
:103BA00000F082FD00220121412000F08BFD412028
:103BB00000F07AFD06B010BD0068004040380240B9
:103BC000000402407047000010B572B6144B00218B
:103BD000144A02F13400FFF793FD1248124900889D
:103BE000020A0A760E4A4876022014180B18401C66
:103BF00014F8024C0A281C76F7DB91ED040BB0EEAA
:103C0000001BB4EE410BF1EE10FA01D1FEF750FAB1
:103C100006484FF4806100F0D8FA62B610BD00008B
:103C2000080000209C110020980E0020000C02408B
:103C3000704770477047000070B5044690F8200048
:103C4000012804D0606A40F40020606218E002207D
:103C500084F820002068016821F00101016000F073
:103C6000C1FA05460EE000BF00F0BCFA401B0A286E
:103C700008D9616A052041F40031616284F82000AE
:103C8000012070BD20684068C007EDD1606270BD42
:103C9000704770477047704770477047704790F89B
:103CA0003510022903D0802141650120704705218C
:103CB00080F835100068016821F0010101600020E2
:103CC000704700002DE9F84304464FF00009644BAB
:103CD0000820CDF800904FF41652A56D94F85C10B2
:103CE0001B682E68B3FBF2F700FA01F131420FD0E6
:103CF00021680A6852070BD50A6822F004020A609C
:103D000094F85C108840A860606D40F00100606528
:103D100094F85C104FF0010808FA01F0304208D026
:103D200021684969090604D5A860606D40F0020069
:103D3000606594F85C1004208840304208D0216807
:103D40000968890704D5A860606D40F004006065CB
:103D500094F85C1010208840304218D0216809681F
:103D6000090714D5A86020680168490304D50068D4
:103D7000000308D5A16C07E00168C90503D40168F8
:103D800021F008010160216C09B12046884794F8B0
:103D90005C1020208840304231D021680968C90673
:103DA0002DD5A86094F8350005282068016806D054
:103DB000490347D5006800031DD4616C1CE021F065
:103DC000160101602068416921F080014161206C89
:103DD00008B9A06C20B12068016821F008010160D9
:103DE00094F85C303F229A40AA6084F8349084F8BA
:103DF0003580216D1FE0E16B09B120468847606D79
:103E000000282BD0606DC00714D0052084F8350041
:103E10002068016821F0010101600098401C0090B9
:103E2000B84203D820680068C007F6D184F83490FF
:103E300084F83580E16C002910D001B02046BDE83F
:103E4000F04308470168C905D5D4036823F010037F
:103E5000036084F8349084F83580CCE7BDE8F883BB
:103E6000480000202DE9F047044600F0BBF9054664
:103E700064B14FF0000984F83490022184F83510C1
:103E80002068016821F0010101600EE00120BDE819
:103E9000F08700BF00F0A6F9401B052805D92021B6
:103EA0006165032084F83500F1E720680068C007E9
:103EB000F0D1D4E90020D4E90251D4E9043C2843EC
:103EC00004F1180519430843116895E8E00140EA38
:103ED0000C001C4B2843194040EA060040EA07004A
:103EE000B8F1040F40EA010003D1D4E90B131943E0
:103EF0000843106020680126656A4069042D20F09F
:103F0000070045EA00050CD1D4E90A01054341B197
:103F10002046FDF7F5F820B14020606584F8356053
:103F2000B4E7206845612046FDF7D6F894F85C3088
:103F30003F229A408260C4F8549084F83560002093
:103F4000A5E700003F8010E02DE9F041044690F81D
:103F5000340000250128A66D0ED094F835C0012745
:103F6000002084F83470BCF1010F07D0022584F8DA
:103F700034002846BDE8F0810220FBE7022784F8E0
:103F8000357060652046FDF7E5F894F85C103F2039
:103F90008840B0602068016841F016010160206827
:103FA000416941F080014161206C20B120680168C5
:103FB00041F0080101602068016841F001010160E1
:103FC000D7E7000070B5044600F00CF90546601C08
:103FD00002D004480078044400F004F9401BA042D9
:103FE000FAD370BD3C0000202DE9F84FDFF89CE1CA
:103FF00000224FF001084FF0030B4FF00F0A00BFF3
:104000000B6808FA02F42340A34271D14D68022DD7
:1040100001D0122D0FD1D5080E69570700EB850589
:10402000A9462D6AFF0E0AFA07FCBE4025EA0C05D8
:104030002E43C9F820600F79550006680BFA05FC7D
:1040400007F0030726EA0C06AF40374307604E68C7
:10405000012E05D0022E03D0112E01D0122E0ED12A
:104060008668CF6826EA0C06AF403743876046680B
:104070000F79A643C7F30017974037434760C468DA
:104080008E6824EA0C04AE402643C6604C68E40007
:1040900075D53F4C256845F480452560246822F09D
:1040A0000306950704F4804400943A4C2D0F2644EF
:1040B000D6F80848DFF8E0C00AFA05F7604524EAB8
:1040C000070401D100272EE0344FB84201D1012767
:1040D00029E0334FB84201D1022724E0314FB842E2
:1040E00001D103271FE0304FB84202D104271AE064
:1040F00045E02E4FB84201D1052714E02C4FB842BD
:1041000001D106270FE02B4FB84201D107270AE063
:10411000294FB84201D1082705E0284FB84201D104
:10412000092700E00A27AF4027437546C6F80878FC
:104130004E68DEF80040F60324EA030400D51C4371
:10414000124E2C60361D4D683468AD0324EA03041A
:1041500000D51C430D4F346008374D683C68ED02B4
:1041600024EA030400D51C43084D3C600C354E681E
:104170002C68B60224EA030400D51C432C60521CB0
:10418000102AFFF43DAFBDE8F88F0000003C01406D
:104190004438024000300140000002400004024068
:1041A00000080240000C02400010024000140240CF
:1041B00000180240001C024000200240002402407F
:1041C0000069084000D001207047426931EA0202CC
:1041D00000D10904816170470AB181617047090407
:1041E000FBE7000001488068704700003C000020A9
:1041F00030B590F84120202A24D190F84020012A9F
:1042000020D0012380F84030242280F84120202350
:1042100000240268156825F001051560026815681C
:1042200025F480551560026815680D431560016816
:104230000A6842F001020A6080F8413080F840408C
:10424000002030BD022030BD30B590F84120202A3A
:1042500022D190F84020012A1ED0012380F840305E
:10426000242280F84120202400250268136823F0CE
:10427000010313600268136823F4706343EA0121A9
:10428000116001680A6842F001020A6080F841404A
:1042900080F84050002030BD022030BD704770478C
:1042A0000268436B91691268002B00D01847704771
:1042B0007047000070B5040004D094F84100002558
:1042C00010B106E0012070BD204684F8405000F097
:1042D00063F9242084F841002068016821F001017D
:1042E0000160D4E9001020F07060086120688168E6
:1042F00021F400418160E06821680128A06806D0AF
:1043000040F404408860E068022803D006E040F4EE
:104310000040F7E721684FF40060486020212068E2
:10432000114A4368134343602068C26822F4004284
:10433000C26054F8106B0DCC104340EA0320F060CB
:1043400054F81C3CD4E900021043186054F81C0DCA
:10435000026842F001020260656484F8411025633E
:1043600084F84250002070BD008000027047704702
:1043700070477047704700002DE9FF4F83B0044637
:1043800090F841009A469346DDE91087DDF84890A1
:10439000202874D15FEA080014D09FB194F840003F
:1043A00001286CD0012084F84000FFF71BFF012298
:1043B000064619230090D103204602F069FA00282E
:1043C00071D103E04FF4007060646CE00025C4F824
:1043D0002480222184F84110402084F84200656442
:1043E0006785534665635A4604992046CDE9009691
:1043F00002F0D2F810B184F8405054E0618DFF27EC
:1044000034484FF08078FF294FF0007A04D927858F
:104410003A464346009005E0618D53462185009061
:1044200094F828202046049902F01CFA00224B46FA
:1044300004212046009602F02BFAA0BB2068616A96
:10444000406A0870606A401C6062208D401E81B224
:104450002185608D401E6085608DD8B1D1B9002264
:104460004B4680212046009602F012FAD8B9608DA2
:10447000FF2805D927853A464346009506E026E001
:10448000608D53462085009594F828202046049995
:1044900002F0E8F9608D0028C8D13246494620462E
:1044A00002F023FA18B1012007B0BDE8F08F2168AF
:1044B0002020094AC86121684B6813404B6084F88A
:1044C000410084F84250002084F84050ECE702207C
:1044D000EAE700000024008000E800FE2DE9FC4728
:1044E000044690F8410098469146DDE90A758A46EF
:1044F00020284BD11FB315B320688069C043000446
:1045000044D594F84000012840D0012084F84000B0
:104510002434FFF767FE00262122627740211C4ADF
:104520002760A1772662E580A260E28819492161AF
:10453000243CFF2A07D9FF214FF0807506E04FF495
:10454000007060640FE0618D4FF0007521851921C6
:10455000CDE9001043464A465146204602F04EF847
:1045600020B184F840600120BDE8FC8700962B460E
:1045700094F828205146204602F074F90121204683
:1045800084F8406001F05AFC0020EDE70220EBE7E0
:104590000000FFFF7164000810B586B004461421C6
:1045A0006846FBF78FFE16492068884225D11548DA
:1045B000016841F00201016000681221012200F04F
:1045C00002000590C020032304248DE81F000E483C
:1045D0006946FFF709FD0B481030016841F40011EE
:1045E000016000680022052100F4001005901F20E2
:1045F00000F068F81F2000F057F806B010BD00006A
:1046000000540040303802400004024070477047B8
:104610000248816802781144816070473C000020A4
:10462000032010B500F06EF8002000F005F800F04F
:1046300023F8002010BD000070B50D4D04464FF466
:104640007A700C4A29781268B0FBF1F0B2FBF0F0F6
:1046500000F0C2FD48B9102C07D200222146501E9E
:1046600000F030F800206C6070BD012070BD0000CB
:104670003C000020480000200A4808B5016841F0CD
:1046800080510160006800F0805000900548001DD6
:10469000016841F480410160006800F480400090AE
:1046A00008BD000040380240002809DB410900F045
:1046B0001F028900012001F1E0219040C1F80001B2
:1046C000704700000E4BF0B41B680D46C3F3022385
:1046D000C3F10706042E00D90426191D072901D2AB
:1046E000002300E0DB1E012404FA06F19C40491E71
:1046F0002940641E994014402143F0BC03F04ABA9B
:104700000CED00E0064900F0070210B54FF6FF047B
:104710000868044B204040EA02201843086010BD9E
:104720000CED00E00000FA051848F8B5016841F00A
:10473000805101600068164C00F0805000902068A5
:1047400040F480302060FFF74DFD4FF47A76054647
:1047500005E000BFFFF746FD401BB0420FD8606880
:10476000C003F7D5206840F400302060FFF73AFD21
:10477000054606E0FFF736FD401BB04201D9032095
:10478000F8BD60688003F5D50020F8BD40380240D0
:10479000007000402DE9F84F04460078DFF82494BB
:1047A0004FF000063746C0070ED0D9F8001021F4AC
:1047B0000001C9F80010D9F80010626B1143C9F864
:1047C0000010606B00B90126FE4D2068843500039F
:1047D0000ED5E16B286820F4401008432860E06B98
:1047E000B0F5801F01D010B102E0012600E00127E2
:1047F00020684FF4800BC0020CD5216C286820F48F
:10480000400008432860206C584501D1012601E092
:1048100000B901272068C10100D50126800666D5B0
:10482000E8483830016841F0805101600068DFF8E5
:1048300098A300F080500090DAF8001041F48071E5
:10484000CAF80010FFF7CEFC804605E0FFF7CAFC6F
:10485000A0EB080064287DD8DAF80000C005F5D583
:10486000DFF8608308F16808D8F8000010F44070A1
:104870002AD0218E01F44071814225D0D8F8001051
:10488000D8F8002021F4407142F48032C8F80020AA
:10489000D8F8002022F48032C8F80020C8F80010B0
:1048A000D8F80000C0070FD0FFF79CFC824607E055
:1048B000FFF798FCA0EB0A0141F288308142CAD888
:1048C000D8F800008007F3D5206BC0F3012103293D
:1048D0007ED0D9F8001021F4F811C9F80010228E0A
:1048E000D8F80010C2F30B021143C8F8001020786A
:1048F000C00607D5286820F0807028602868A16B62
:10490000084328602188AF488830490405D5626E85
:10491000016821F44031114301602188090405D563
:10492000A26E016821F44021114301602168C9038E
:1049300005D5E26E016821F4401111430160216840
:10494000890305D5226F016821F4400111430160FC
:10495000217800E034E1490605D5626C016821F058
:104960000301114301602178090605D5A26C016895
:1049700021F00C01114301602188C90505D5E26CC5
:10498000016821F03001114301602188890505D5B6
:10499000226D016821F0C0011143016021884905A1
:1049A00005D5626D016821F44071114301602188D1
:1049B000090505D5A26D016821F44061114301602C
:1049C0002188C90407D5E26D016821F4405100E057
:1049D0005FE0114301602188890405D5226E0168DA
:1049E00021F44041114301602168490205D5A26FBD
:1049F000016821F080611143016021684FF0006A75
:104A0000890209D5E26F016821F00061114301605C
:104A1000E16F514500D1012721680A0700D5012720
:104A2000490305D5626F016821F0407111430160AF
:104A30002168090206D5D4F88020016821F0805150
:104A4000114301602168490106D5D4F8842001682A
:104A500021F00051114301602068000106D5D4F80F
:104A60008810286820F00070084328602068C00083
:104A700006D5D4F88C10286820F0806008432860A0
:104A8000DFF84891012E0ED02068B0F1007F0AD0E7
:104A90008FE04F4AD9F80030104023F4F812024357
:104AA000C9F800201BE7D9F800004E4620F08060CE
:104AB000C9F80000FFF796FB804605E0FFF792FB80
:104AC000A0EB080064287BD830680001F6D4217878
:104AD0003C487C30C90712D0616B81B9237A626887
:104AE0000168D0F800C09201C1F3014142EA0142DD
:104AF000CCF3036142EA016141EA0371016021687C
:104B00000A0303D5E26BB2F5801F04D0C9021AD59F
:104B1000216C594517D16368016894F80CC002688C
:104B20009B01C1F3014143EA0141C2F3027241EA30
:104B30000C6141EA027101602968626A21F01F017B
:104B4000521E114329602168C90110D5238A626869
:104B50000168D0F800C09201C1F3036142EA034248
:104B600042EA0162CCF3027142EA017101602168FC
:104B700089010CD56168228A237B94F808C08901D9
:104B800041EA024141EA036141EA0C710160316886
:104B9000B04641F080613160FFF724FB064604E037
:104BA000FFF720FB801B64280AD8D8F8000000011A
:104BB000F6D5E7B3D9F800004E4620F0805009E062
:104BC0007BE00000083802400070004000380240DE
:104BD000FFFCFF0FC9F80000FFF704FB074604E0E5
:104BE000FFF700FBC01B642867D83068C043800013
:104BF000F6D5216835480A0301D5E26B1AB1C9021E
:104C00001DD5216CD9B963690168277E02689B01B3
:104C1000C1F3014143EA0143C2F3027143EA07626F
:104C200042EA0171016029686FF0FF0300E04BE088
:104C3000A26A21F4F85103EB022211432960216892
:104C4000890212D5E16F51450FD1238C6269016849
:104C500007689201C1F3036142EA034242EA01623A
:104C6000C7F3027142EA017101602178090716D584
:104C700061690268D0F800C08B01277FC2F303622C
:104C8000CCF3014143EA014141EA026141EA077183
:104C900001602868E16A20F44030084328603068E9
:104CA00040F080503060FFF79DFA044608E000BFF6
:104CB000FFF798FA001B642802D90320BDE8F88F9B
:104CC0003068C0438000F3D40020F7E78838024002
:104CD0002DE9F04705000F4663D0444E306800F0E0
:104CE0000F00B84209D2306820F00F00384330601E
:104CF000306800F00F00B84253D128683C4C81075F
:104D000012D5400703D5206840F4E0502060287891
:104D1000000703D5206840F460402060A96820683F
:104D200020F0F000084320602878C0072AD03049DE
:104D300068680839012810D00968022810D089074E
:104D400000292EDA216821F0030101432160FFF7D9
:104D500049FA804641F288390DE009688903EFE796
:104D60008901EDE7FFF73EFAA0EB0801494502D9BA
:104D70000320BDE8F0876868216801F00C01B1EB01
:104D8000800FEFD1306800F00F00B8420BD93068C7
:104D900020F00F0038433060306800F00F00B84258
:104DA00001D00120E5E72878400705D5E9682068AB
:104DB00020F4E050084320602878000706D52869D1
:104DC000216821F4604141EAC000206000F036F81B
:104DD0002168084AC1F30311515CC84006490860C4
:104DE0000020FFF729FC0020C3E70000003C024040
:104DF0000838024050870008480000200449054850
:104E000009680068044AC1F38221515CC8407047B8
:104E1000083802404800002060870008044905481F
:104E200009680068044AC1F34231515CC8407047C8
:104E3000083802404800002060870008154910B576
:104E40001548096811F00C0213D04110042A0FD044
:104E5000082A0ED10F4C241F2268236802F03F025B
:104E60005B0207D52068C0F38810A0FB010106E0B3
:104E7000084610BD2168C1F38811A1FB0001002381
:104E8000FBF7D6F92168C1F30141491C4900B0FB89
:104E9000F1F010BD083802400024F4002DE9F84F6D
:104EA00005004FF000076ED02878DFF82093A9F1B5
:104EB000040AC007AAF104044CD0D9F800104846EF
:104EC000C1F38101012908D00068C0F381000228E4
:104ED0000AD1DAF80000400206D52068800339D5EF
:104EE00068680028DFD035E06868B0F5803F0BD0F7
:104EF00010B1B0F5A02F11D0206820F480302060D0
:104F0000206820F4802002E0206840F48030206097
:104F1000686890B1FFF766F906460AE0206840F439
:104F200080202060F0E700BFFFF75CF9801B642859
:104F300072D820688003F7D50CE0FFF753F90646D6
:104F400005E000BFFFF74EF9801B6428F0D8206809
:104F50008003F7D42878800742D5D9F80010484656
:104F600011F00C0F08D00068C0F3810002280BD1AB
:104F7000DAF80000400207D42068800718D5E868F6
:104F8000012800D114E01EE1E8680028206817D04D
:104F900040F001002060FFF725F9064605E000BF5C
:104FA000FFF720F9801B0228C2D820688007F7D5B8
:104FB0002869216821F0F80141EAC00020600FE073
:104FC00020F001002060FFF70DF9064605E000BF64
:104FD000FFF708F9801B02281ED820688007F7D445
:104FE0002878000729D5794869696C3000298046FE
:104FF000016812D041F001010160FFF7F3F80646A5
:1050000005E000BFFFF7EEF8801B022804D8D8F8AF
:1050100000008007F6D510E089E021F00101016071
:10502000FFF7E0F8064604E0FFF7DCF8801B0228F3
:105030007DD8D8F800008007F6D4287840076BD5D3
:10504000DFF8888108F13808D8F80000C0000BD4D8
:10505000D8F8001041F08051C8F80010D8F80000CE
:10506000012700F08050009059480168C90512D40A
:105070000168834641F480710160FFF7B3F806468A
:1050800005E000BFFFF7AEF8801B64284FD8DBF8BF
:105090000000C005F6D54D4EA868683601280AD034
:1050A00008B1052811D0306820F001003060306868
:1050B00020F0040002E0306840F001003060A86891
:1050C000A0B1FFF78FF883460CE0306840F0040091
:1050D0003060F0E7FFF786F8A0EB0B0141F2883073
:1050E000814268D830688007F4D50EE0FFF77AF87F
:1050F000834607E0FFF776F8A0EB0B0141F288301A
:10510000814258D830688007F4D42FB1D8F8001005
:1051100021F08051C8F80010A869E0B3D9F8001058
:10512000C1F3810102294ED00228206800E042E04C
:1051300020F08070206003D0FFF754F805463DE072
:10514000FFF750F8064604E0FFF74CF8801B0228F2
:1051500031D820688001F7D4D5E90921DFF874C07F
:10516000D5E9070695F830304F0895F82C103043F4
:105170000CEB074545EA8212104340EA016040EA21
:105180000370CAF80000206840F080702060FFF7CC
:1051900029F8054605E014E0FFF724F8401B022833
:1051A00009D820688001F7D50BE000BFFFF71AF897
:1051B000401B022802D90320BDE8F88F2068800137
:1051C000F4D40020F8E70120F6E700000838024098
:1051D000007000400000FFFF401EB0F1807F10B55E
:1051E00001D3012010BD4FF0E02460610F21601752
:1051F00002F0D0FC0020A0610721216110BD7047A2
:10520000704770472DE9F04390F83C20012A42D0C6
:10521000012280F83C2051F80C4BDFF880804FF0E1
:10522000000991E8680051E9022723F44073B1F8BE
:105230000CC03B43CF6923F480631343026823F41B
:105240000063234323F4805343EA050323F400530C
:1052500043EA060323F4804343EA07030C3923F4AB
:105260007023424543EA0C4302D00D4CA2420CD1BC
:105270008D8C23F47006D1E9073446EA055121F0FC
:105280008071194321F000732343536480F83C90EC
:105290000020BDE8F0830220FBE700000000014091
:1052A0000004014070B590F83C20012A24D0134C32
:1052B000012580F83C50022280F83D2002685368A6
:1052C000A242966802D00E4CA24203D14C6823F44D
:1052D000700323430C6823F0700389681C435460F7
:1052E000002326F0800602683143916080F83D502B
:1052F00080F83C30184670BD022070BD00000140AF
:105300000004014010B5040003D094F83D0010B132
:1053100007E0012010BD002084F83C00204600F08A
:105320000DF8022084F83D002068211D01F0D6FF11
:10533000012084F83D00002010BD000008B5006881
:105340000B49884212D10B48016841F010010160FD
:1053500000680022012100F0100000903620FFF7C5
:10536000B1F9BDE808403620FFF79EB908BD00003E
:1053700000100040403802400168094ACB6843F001
:105380000103CB60016888681040062806D0B0F59C
:10539000803F03D0086840F001000860002070479B
:1053A00007000100704770B50446006800250169D8
:1053B000C943890715D4C168C943890711D4EA1EB6
:1053C000026101212177206880698007204602D090
:1053D000FFF7E8FF04E000F034F9204600F026FA79
:1053E000257720680169C943490717D4C168C943B3
:1053F000490713D402216FF004020261217720686B
:10540000806910F4407F204602D0FFF7CBFF04E014
:1054100000F017F9204600F009FA257720680169A5
:10542000C943090716D4C168C943090712D4042126
:105430006FF00802026121772068C069800720466A
:1054400002D0FFF7AFFF04E000F0FBF8204600F0C9
:10545000EDF9257720680169C943C90617D4C168E9
:10546000C943C90613D408216FF0100202612177E5
:105470002068C06910F4407F204602D0FFF792FFF9
:1054800004E000F0DEF8204600F0D0F9257720682F
:105490000169C943C90708D1C168C943C90704D113
:1054A000891E0161204600F0E9F920680169C943BD
:1054B000090609D4C168C943090605D46FF0800103
:1054C00001612046FFF79CFE20680169C943C905B8
:1054D00009D4C168C943090605D46FF4807101611C
:1054E0002046FFF78CFE20680169C943490609D4AC
:1054F000C168C943490605D46FF0400101612046E7
:1055000000F0EEF920680169C94389060BD4C1682F
:10551000C943890607D46FF0200101612046BDE828
:105520007040FFF76EBE70BD30B587B004461421E1
:105530006846FAF7C7FE24680022214802231F4963
:105540000125844211D1086840F010000860086805
:10555000694600F0100005904FF4C4400090CDE97A
:1055600001321848CDE9032524E01748B4F1804FF3
:1055700012D0164DAC421FD10C6844F001040C60EF
:10558000096801F00101059108210091CDE901327E
:10559000CDE9032369460DE00C6844F001040C607A
:1055A0000968009301F00101CDE901320392CDE9D0
:1055B00004516946FEF718FD07B030BD303802408F
:1055C000000001400010024000000240000C0040BA
:1055D00070B5044690F83C0001280ED0012584F8EF
:1055E0003C50022084F83D000C2A19D007DC5AB147
:1055F000042A0DD0082A1ED10EE0022070BD102A08
:1056000012D0142A17D113E0206801F0DBFE12E05B
:10561000206801F011FF0EE0206801F049FF0AE068
:10562000206801F081FF06E0206801F0A9FF02E098
:10563000206801F0D1FF002084F83D5084F83C0040
:1056400070BD704710B5040003D094F83D0010B150
:1056500007E0012010BD002084F83C00204600F047
:105660000CF8022084F83D002068211D01F036FE70
:10567000012084F83D00002010BD704770B504463D
:1056800090F83C000D4601280ED0012684F83C60BD
:10569000022084F83D000C2A45D007DC5AB1042AC8
:1056A0001BD0082A78D12CE0022070BD102A4ED0E1
:1056B000142A71D15DE0206801F084FE20688169C0
:1056C00041F0080181612068816921F00401816154
:1056D00020682A698169114311E0206801F0ACFE5D
:1056E0002068816941F4006181612068816921F449
:1056F0008061816120682969826942EA01218161B2
:105700004AE0206801F0D4FE2068C16941F0080138
:10571000C1612068C16921F00401C16120682A6962
:10572000C169114311E0206801F0FEFE2068C169E3
:1057300041F40061C1612068C16921F48061C161E7
:1057400020682969C26942EA0121C16124E0206818
:1057500001F016FF2068416D41F0080141652068A5
:10576000416D21F00401416520682A69416D1143B2
:1057700011E0206801F030FF2068416D41F40061C4
:1057800041652068416D21F4806141652068296987
:10579000426D42EA01214165002084F83D6084F8B1
:1057A0003C0070BD10B5040003D094F83D0010B16A
:1057B00007E0012010BD002084F83C00204600F0E6
:1057C0000DF8022084F83D002068211D01F086FDBF
:1057D000012084F83D00002010BD000008B50168DC
:1057E0000E48814201D10E480FE00E48B1F1804FC2
:1057F0000BD00D4A914207D1016841F008010160C8
:10580000006800F00800009008BD016841F0010147
:105810000160006800F00100F5E7000000000140B1
:105820004438024040380240000C004070470000FD
:1058300010B501220446006801F0B6FD0C4920684D
:10584000884202D00B49884203D1416C41F40041A7
:1058500041642068084A81681140062906D0B1F5E4
:10586000803F03D0016841F001010160002010BDBC
:1058700000000140000401400700010070B500680D
:105880001449884224D1144C6068401C6060A068B0
:10589000401CA060E068401CE060FBF7E7FE606829
:1058A0000025322804DB207808B1FCF7E7FE6560AC
:1058B000A068B0F5FA7F05DB08484FF40071FEF7E9
:1058C00084FCA560E0680A2802DBFCF7AFFFE56016
:1058D00070BD00000010004018000020000C0240C5
:1058E000704770472DE9F041026804460025D069F1
:1058F0001168936810F00F0F5BD003F0010601F4FC
:105900009077374369D0C70707D0CF0505D5012762
:105910001762E26F42F00102E267820708D5DA07F8
:1059200006D0276802223A62E26F42F00402E26780
:10593000420708D5DA0706D0236804221A62E26F0C
:1059400042F00202E26702070AD501F02002324368
:1059500006D0236808221A62E26F42F00802E2676A
:10596000E26F002A32D0800605D5880603D5216E65
:1059700009B1204688472168E06F8968490601D44B
:10598000000725D5204601F024FF206881684906DC
:1059900019D5816821F040018160E06E98B11A4903
:1059A0000165E06EFEF77BF900280FD0E06E016D17
:1059B00006E0830611D58B060FD5216E12E0204636
:1059C000BDE8F04108472046FFF78BFFBDE8F081B6
:1059D0002046FFF786FFE567F8E7030605D50B06C7
:1059E00003D5616E0029EAD1F0E74006EED54806FE
:1059F000ECD513682021204623F040031360616733
:105A0000656600F0D1F9E1E74177000810B50400C0
:105A100002D0606F10B107E0012010BD002084F8B3
:105A20007000204600F026F8242060672068016896
:105A300021F001010160204601F03EFF0128ECD079
:105A4000606A10B1204601F0F9FD2068416821F438
:105A5000904141602068816821F02A0181602068BE
:105A6000016841F0010101602046BDE8104001F0ED
:105A700049BE000070B586B0064614216846FAF7A4
:105A800021FC2249306888423ED12148016841F416
:105A900000210160006800F4002005901C481038C7
:105AA000016841F00401016000680025022100F056
:105AB000040005904FF4406008238DE82300032282
:105AC0001448CDE903236946FEF78EFA124C4022B2
:105AD00012484FF0006184E8270003152046C4E90E
