:020000040800F2
:10000000E81900200D0200085994000859650008FD
:10001000F193000819110008DF9E0008000000009D
:10002000000000000000000000000000F99400083B
:100030007515000800000000E394000825950008ED
:1000400027020008270200082702000827020008EC
:1000500027020008270200082702000827020008DC
:1000600027020008270200082702000827020008CC
:10007000270200082702000827020008B914000818
:100080002702000827020008890B00082702000841
:10009000270200082702000827020008270200089C
:1000A000270200082702000827020008270200088C
:1000B0002702000827020008270200085D650008E3
:1000C000270200082702000827020008270200086C
:1000D000270200082702000827020008270200085C
:1000E000270200082702000827020008270200084C
:1000F000270200082702000827020008270200083C
:10010000270200082702000827020008270200082B
:100110007D990008270200081D96000827020008A4
:10012000C51400082702000827020008270200085B
:1001300027020008270200082702000849110008CA
:10014000311100083D1100082702000827020008AD
:1001500027020008270200082702000827020008DB
:1001600027020008270200082702000827020008CB
:1001700027020008270200082702000800000000EC
:1001800027020008270200082702000827020008AB
:10019000270200082702000827020008270200089B
:1001A000270200082702000827020008270200088B
:1001B000270200082702000827020008270200087B
:1001C000270200082702000800000000270200089C
:1001D000270200082702000827020008270200085B
:1001E000270200082702000827020008270200084B
:1001F0002702000827020008DFF80CD000F09CF866
:1002000000480047A5A30008E819002006488047D9
:1002100006480047FEE7FEE7FEE7FEE7FEE7FEE7EB
:10022000FEE7FEE7FEE7FEE7C9950008F9010008D2
:100230002DE9F05F0546002092469B46884606461B
:10024000814640241BE0284641464746224600F0AE
:1002500062F853465A46C01A914110D311461846C7
:10026000224600F049F82D1A67EB01084F46224656
:100270000120002100F040F817EB00094E41201E3C
:10028000A4F10104DFDC484631462A464346BDE876
:10029000F09F40EA01039B0703D009E008C9121F41
:1002A00008C0042AFAD203E011F8013B00F8013B30
:1002B000521EF9D27047D2B201E000F8012B491E5C
:1002C000FBD270470022F6E710B513460A460446F3
:1002D0001946FFF7F0FF204610BD30B50546002057
:1002E000034600E05B1C934205D2EC5CC85C201A1C
:1002F00001D1002CF6D130BD202A04DB203A00FACF
:1003000002F1002070479140C2F1200320FA03F36C
:10031000194390407047202A04DB203A21FA02F06A
:100320000021704721FA02F3D040C2F1200291402F
:100330000843194670470000064C074D06E0E06888
:1003400040F0010394E8070098471034AC42F6D31C
:10035000FFF756FF08AB000828AB00082DE9F05F57
:10036000DFF82484022601254FF0050B4FF0000929
:100370002DED028BB8F8900DB8F8A61D884279D003
:10038000B8F8920DB8F8A81D884273D001F07EF934
:1003900000204C46A8F84C9E00F062FFB8F8920D81
:1003A000F0B1032827D001283BD088F8B64F0228A7
:1003B00088F8B54F88F8B44F46D088F8B1BFB8F880
:1003C000901DA8F8A61DA8F8A80D09F029FE09F0AF
:1003D0000BFE00BF88F8B35FBDEC028BBDE8F09F59
:1003E00088F8B64F88F8B54F88F8B44F88F8B1BF91
:1003F00009F074FEEEE788F8B64F88F8B54F88F834
:10040000B44F88F8B1BF09F069FE98F8B30F02281D
:10041000E2D088F8B36FBDEC028BBDE8F05F01F06D
:1004200025B988F8B64F88F8B54F88F8B15FB8F8A5
:100430008C0DA8F8960EB8F8900DA8F8A60DA8F89F
:10044000A85D88F8B46F11E088F8B16FB8F8940D22
:10045000A8F89A0EB8F8900DA8F8A60DA8F8A86DFF
:1004600098F8BA0F0128B7D088F8BA5FA8F84C4EB0
:1004700018E0FFE7C44C192798F8B40F012894F846
:10048000B6CFB4F8963EB4F88E2DB4F88C1D04F5B2
:1004900000640FD002289FD1994201D0012A7BD05D
:1004A000A8F84C9E09F0BCFDBDEC028BBDE8F05FE6
:1004B00009F09ABD98F8B50F012808D002288BD111
:1004C00088F8B59F88F8B46FA8F84C9EEAE799427F
:1004D00000D07AB1C2469FEDAD8BAB48BCF1060FA0
:1004E000B0F89E0EBFF478AFDFE80CF0030B93E892
:1004F000FAF971E7A8F8961E88F8B69F88F8B56FE4
:10050000E9E001287FD89942D04675D0022A73D1FC
:100510000B2009F085FEB8F89C1D88426CDCB8F809
:100520008C1D0020A8F8961E88F8B6BFA8F84C6E5F
:1005300009F076FE00EE100AB8EEC00B84ED1A0B3F
:10054000B4EEC80BF1EE10FA0CD2B5EEC00BF1EE22
:1005500010FA05DBBCEEC00B10EE100AC0B202E0D0
:10056000002000E0FF2000F07BFE022009F058FE92
:1005700090FBF7F0C8F85C0C002009F051FE05462E
:10058000012009F04DFE002D014606DB6FF0004012
:100590002A1A914209DB07E0D3E005F100408142CD
:1005A00002DD4FF0004000E0681A6FF0004280FB6F
:1005B00007500021521B814102DA6FF0004507E02D
:1005C0004FF00041691A70F1FF3001DA4FF0004539
:1005D000022009F025FE00EE100AB8EEC01B00EE66
:1005E000105AB8EEC00B80EE012B84ED1C2BA8F83E
:1005F0009E7EF1E607E0FFE788F8B65FA8F84C5E5C
:10060000A8F89E7E7CE0401E00D50020AAF89E0E31
:1006100079E0012855464BD8D5F85C0C002806DD5A
:10062000012009F0FDFD95F8961F884211DB00209E
:1006300000F016FE01F02AF8032085F8B60FA5F8A1
:100640009E7EB5F8A40DFF2800D9FF2085F8E90F9C
:1006500047E085F8B66F94ED1A0B94ED1C1B30EE55
:10066000410B84ED1A0BB4EEC80BF1EE10FA0DD26B
:10067000B5EEC00BF1EE10FA06DB00BFBCEEC00B0E
:1006800010EE100AC0B202E0002000E0FF2000F0EF
:10069000E7FDD5F85C0C4FF00041884202DCC5F85C
:1006A0005C1C02E0401EC5F85C0CA5F89E7E93E63B
:1006B000401E00D50020AAF89E0E8DE6BAF8A41DB3
:1006C0005046DAF8D82891420BDB082909D080F887
:1006D000B69F8AF8B56F00F0D9FF00204EE018E011
:1006E00005E0BDEC028BBDE8F05F09F019BC012804
:1006F0005146DDD881F8B65FA1F84C5EAAF89E7E1F
:10070000642000F0ADFDBDEC028BBDE8F05F09F0A8
:1007100087BC01285546CBD885F8B66F94ED1A0BE7
:1007200094ED1C1B30EE410B84ED1A0BB4EEC80B9C
:10073000F1EE10FAAAD2B5EEC00BF1EE10FAA3DB7F
:100740009CE7A8F8961EBCF1040F9FED120B88F8E9
:10075000B45FA8F89E9E84ED1A0B84ED1C0BC8F8BC
:100760005C9C88F8B55FA2D0042088F8B60FA8F882
:100770004C5EA8F89E7E00F079FF6420BDEC028BF1
:10078000BDE8F05F00F06CBD5000002000000000EC
:100790000000704000000000000000002DE9FC5F38
:1007A000CF4C012602270025B4F8900DB4F8A61D01
:1007B00088427BD0B4F8920DB4F8A81D884275D059
:1007C00000F064FF0020A4F84C5E00F049FDB4F88E
:1007D000920D4FF0050828B1032819D0012830D018
:1007E000022845D009F08CFC84F8B18FB4F8900D44
:1007F000A4F8A60DB4F8920DA4F8A80D04F5596458
:1008000009F00EFC09F0F0FB84F82362BDE8FC9FC0
:1008100009F076FC84F8B18FB4F8900DA4F8A60D19
:10082000B4F8920DA4F8A80D09F0FAFB09F0DCFB6E
:1008300094F8B30F0228E9D084F8B37F00F016FFD4
:10084000E4E709F05DFC84F8B16FB4F88C0DA4F80E
:10085000960EB4F8900DA4F8A60DB4F8920DA4F875
:10086000A80D94F8B40F0228D0D084F8B47F15E016
:1008700009F046FC84F8B17FB4F8940DA4F89A0E00
:10088000B4F8900DA4F8A60DB4F8920DA4F8A80D34
:1008900094F8BA0F0128B9D084F8BA6FA4F84C5E66
:1008A00009F0BEFB09F0A0FBB0E7FFE794F8BA0F30
:1008B0000B28ABD2DFE800F006070AFCFFF0EFEEF2
:1008C000EDECEB00A2E700F0DDFC9FE794F8BB0F36
:1008D000012804D0022899D184F8BB5FDCE7804866
:1008E000B4F8942DB4F89A3EB0F8961D9A4200D010
:1008F00021B3DFF8EC814FF0190994F8BCCFDFF891
:10090000E4A108F5807BBCF1010FB8F8A20E1AD063
:10091000BCF1020F4FD0BCF1030F7DD0BCF1040F2E
:100920008ED1012879D800BF84F8BC6F3720A4F895
:100930004C6EA4F8A29E00F093FC39E0A4F89A2E25
:1009400084F8BD5F99E001282DD89A42ECD00229A5
:10095000EAD10B2009F06CFCB4F89C1D8842E3DC62
:10096000B4F8940D5A46A4F89A0EA4F84C7E84F874
:10097000BC7FA4F8A45EB4F89E0DB4F8A01D04F6E4
:10098000945400EE900A00EE101ADAF8040069465A
:10099000B8EE601BB8EE400BB7EE002B07F0ECFC96
:1009A00084F8297232E7401E00D50020A4F8A20E78
:1009B00009F036FB2AE7B4F89A0D0A2813D3002071
:1009C00000F04EFC00F062FE84F8BD5F032184F865
:1009D000BC1FA4F8A29EB4F8A40DFF2800D9FF20E4
:1009E00084F8E90F5BE094F8BD0F012837D00228A6
:1009F000D8D194F88A0FB4F8A41E8842D2D0A4F8B3
:100A0000A40E84F8BD6FB4F89E0DB4F8A01D00EEDE
:100A1000100A00EE901A01E029E043E0B8EE401B16
:100A2000DAF804005A46B8EE600B9FED2F2B6946AA
:100A300007F0A2FC9DED000B9FED2D1BB4EEC10B4A
:100A4000F1EE10FA11D2B5EEC00BF1EE10FA09DB9F
:100A5000BCEEC00B10EE100A84F8960FD6E684F8B0
:100A6000BD7FD3E684F8965FD0E6FF20F4E7B4F8C4
:100A7000A40D032813D3082811D084F8BC5F84F890
:100A8000BB7F00F003FE002000F0EAFBBEE624E09E
:100A900020E01CE018E014E010E00CE008E009F0B1
:100AA00075FAB3E6401E00D50020A4F8A20EADE60C
:100AB00006F052FBAAE606F053FCA7E606F054FD4A
:100AC000A4E606F055FEA1E606F056FF9EE607F006
:100AD00057F89BE607F058F998E607F059FA95E6BB
:100AE00050000020E4A90008000000000000000001
:100AF000000000000000704010B50146806B026CE1
:100B000012F0500F05D0026CD20626D502F0EDFE91
:100B100010BD016C41F40071016401688A6812F033
:100B2000405F17D18269AAB9CA6A12F4700F02D065
:100B30008A6852050ED44A6822F020024A60016C8D
:100B400021F480710164016CC90403D4016C41F08B
:100B50000101016402F0BEFE10BD806BC26C08464C
:100B6000BDE81040104710B5806B40210164416C16
:100B700041F00401416402F0B8FE10BD10B5806B75
:100B800002F0B2FE10BD0000014802F0AFBE00004E
:100B90006C1200204A496FF0706210B5D1F804332E
:100BA00023F44033C1F80433D1F8043344682343B9
:100BB000C1F8043301684B6823F480734B6001680B
:100BC00003694C6844EA03234B6001684B6823F0D7
:100BD00040734B60016884684B6823434B60016835
:100BE0008B6823F400638B600168C4688B682343BF
:100BF0008B60816AD14201688A6822F070628A60E3
:100C000001680DD0836A8A681A438A6001688A681D
:100C100022F040528A600168C36A8A681A4302E07F
:100C20008A6822F040528A6001688A6822F00202D3
:100C30008A60016882698B6843EA42028A6090F8A0
:100C400020100029016811D01E4A4B6843F400634C
:100C50004B6001684B6823F460434B600168446A51
:100C60004B6802EB443213434B6003E04A6822F4C2
:100C700000624A600168144BCA6A22F47002CA62B8
:100C80000168848BCA6A03EB04531A43CA62016881
:100C90008A6822F400728A60016890F830208B68BC
:100CA00043EA42228A6001688A6822F480628A608C
:100CB000016840698A6842EA8020886010BD0000AF
:100CC0000020014000E0FFFF0000F0FF2DE9F05F91
:100CD000DFF83084022601254FF0050B4FF00009A4
:100CE0002DED028BB8F8900DB8F8A61D88427CD087
:100CF000B8F8920DB8F8A81D88427AD000F0C6FC6A
:100D000000204C46A8F84C9E00F0AAFAB8F8920DC4
:100D1000F0B1032827D001283BD088F8B94F02282A
:100D200088F8B84F88F8B74F4CD088F8B1BFB8F8FA
:100D3000901DA8F8A61DA8F8A80D09F071F909F0F2
:100D400053F900BF88F8B35FBDEC028BBDE8F09F9C
:100D500088F8B94F88F8B84F88F8B74F88F8B1BF0E
:100D600009F0BCF9EEE788F8B94F88F8B84F88F871
:100D7000B74F88F8B1BF09F0B1F998F8B30F02285E
:100D8000E2D088F8B36FBDEC028BBDE8F05F00F0F5
:100D90006DBC88F8B94F88F8B84F88F8B74F88F815
:100DA000B15FB8F88C0DA8F8960EB8F8900DA8F8B9
:100DB000A60DA8F8A85D98F8B40F0228C4D088F84A
:100DC000B46F11E088F8B16FB8F8940DA8F89A0ED6
:100DD000B8F8900DA8F8A60DA8F8A86D98F8BA0F65
:100DE0000128B1D088F8BA5F00E002E0A8F84C4EC4
:100DF0001DE0C44C192798F8B72F012A94F8B91FA1
:100E0000B4F8940DB4F89ACEB4F8963D04F50064A5
:100E100015D0022A98D198F8B82F012A33D0022A87
:100E200092D188F8B89F88F8B75FA8F84C9E09F06F
:100E3000F7F8BDEC028BBDE8F05F09F0D5B860456E
:100E400001D0012B02D0A8F84C9EF0E79FEDAE0B2D
:100E5000A8F89A0E042988F8B76FA8F8A09E84ED28
:100E60001E0B84ED200BC8F8609C88F8B85F87D013
:100E7000042088F8B90FA8F84C5EA8F8A07E00F00E
:100E8000F5FB642004E1604500D073B1C2469FEDDC
:100E9000A08B9C4A0629B2F8A02EBFF455AFDFE81C
:100EA00001F0030B92E7FDFC4EE7A8F89A0E88F8D4
:100EB000B99F88F8B86FE8E0012A7ED86045D0462F
:100EC00074D0022B72D10B2009F0B2F9B8F89C1D36
:100ED00088426BDCB8F8941D0020A8F89A1E88F8A8
:100EE000B9BFA8F84C6E09F0A3F900EE100AB8EEED
:100EF000C00B84ED1E0BB4EEC80BF1EE10FA0CD251
:100F0000B5EEC00BF1EE10FA05DBBCEEC00B10EE37
:100F1000100AC0B202E0002000E0FF2000F0A0F9BB
:100F2000022009F085F990FBF7F0C8F8600C00206A
:100F300009F07EF90546012009F07AF9002D0146F5
:100F400005DB6FF000402A1A914208DB06E005F14C
:100F50000040814202DD4FF0004000E0681A6FF06F
:100F6000004280FB07500021521B814102DA6FF0E2
:100F7000004507E04FF00041691A70F1FF3001DAD7
:100F80004FF00045022009F053F900EE100AB8EEC8
:100F9000C01B00EE105AB8EEC00B80EE012B84EDA2
:100FA000202BA8F8A07ECFE607E0FFE788F8B95F1E
:100FB000A8F84C5EA8F8A07E82E0521E00D5002260
:100FC000AAF8A02E7FE0012A55464BD8D5F8600C30
:100FD000002806DD012009F02BF995F8961F8842BC
:100FE00011DB002000F03CF900F050FB032085F8F5
:100FF000B90FA5F8A07EB5F8A40DFF2800D9FF20F1
:1010000085F8E90F4DE085F8B96F94ED1E0B94ED6E
:10101000201B30EE410B84ED1E0BB4EEC80BF1EE3D
:1010200010FA0DD2B5EEC00BF1EE10FA06DB00BFE0
:10103000BCEEC00B10EE100AC0B202E0002000E0CF
:10104000FF2000F00DF9D5F8600C4FF00041884208
:1010500002DCC5F8601C02E0401EC5F8600CA5F873
:10106000A07E71E6521E00D50022AAF8A02E6BE6E3
:10107000BAF8A41D5046DAF87829914211DB082904
:101080000FD080F8B99F8AF8B86F00F0FFFA0020FF
:10109000BDEC028BBDE8F05F01E01AE007E000F074
:1010A000DFB8BDEC028BBDE8F05F08F06FBF012A2E
:1010B0005046D7D880F8B95FA0F84C5EAAF8A07E59
:1010C000642000F0CDF8BDEC028BBDE8F05F08F0C5
:1010D000A7BF012A5546C5D885F8B96F94ED1E0BF8
:1010E00094ED201B30EE410B84ED1E0BB4EEC80BCB
:1010F000F1EE10FAA4D2B5EEC00BF1EE10FA9DDBC2
:1011000096E70000500000200000000000000000F2
:101110000000000000007040FEE700000348016886
:10112000002008640C21014804F058BF641400201A
:10113000014802F038BF000070130020014802F09F
:1011400032BF000070130020014802F02CBF0000E5
:10115000701300200A480E230021012230B44FF4FE
:101160007854C0E90612C0E900418160C160C0E95D
:101170000413C0E9082330BC0146024802F004BE53
:10118000141300207013002010B5FFF7E3FF084888
:10119000012102F07BFD0648022102F077FD0448A0
:1011A000102102F073FDBDE81040014803F01AB9A8
:1011B0007013002008B564208DF80000684600F028
:1011C00029F80248042104F009FF08BD2414002076
:1011D00090ED000B9FED0A3B9FED0C2B0A4880EE33
:1011E000031B90ED030A0168B8EE400B31EE021BC1
:1011F00021EE000BBDEEC00B10EE100A88637047A5
:101200000000000000409F40241400209A99999902
:101210009999A93F01789FED0D2B00EE101A9FEDD3
:101220000E1B0C48B8EE404BD0ED030A016884EE6B
:10123000023BB8EE600B33EE011B21EE000BBDEE5E
:10124000C00B10EE100A8863704700000000000019
:1012500000409F40241400209A9999999999A93F98
:101260000649642881F8960F00D36420C0F1640019
:1012700081F8A00F0248FFF7CDBF0000500000200A
:10128000F00F00202DE9F041894C0020B4F8941DA6
:10129000B4F89A2E914203D0B4F8962D012A07D0C3
:1012A000A4F84C0E08F0BCFEBDE8F04108F09CBE6E
:1012B000A4F89A1E1927B4F8321E0426012508291D
:1012C0007ED2DFE801F0041D37506A87A1BB0221FE
:1012D00084F8BA1FA4F8A20E94F8BB0F012804D01A
:1012E000744884F8BB5F07F095FD94F8BC0F0428A0
:1012F00067D084F8BC6FA4F84C5EA4F8A27ECEE060
:10130000032184F8BA1FA4F8A60E94F8BE0F012892
:1013100005D0684884F8BE5F203807F08BFD94F84C
:10132000BF0F04284DD084F8BF6FA4F84C5EA4F81A
:10133000A67EB4E084F8BA6FA4F8AA0E94F8C10FA0
:10134000012805D05B4884F8C15F403807F06AFD8A
:1013500094F8C20F042834D084F8C26FA4F84C5E0D
:10136000A4F8AA7E9BE0052184F8BA1FA4F8AE0E6B
:1013700094F8C40F012805D04E4884F8C45F603843
:1013800007F054FD94F8C50F04281AD084F8C56FEF
:10139000A4F84C5EA4F8AE7E81E0062184F8BA1F62
:1013A000A4F8B20E94F8C70F012805D0404884F87D
:1013B000C75F803007F042FD94F8C80F042801E0B1
:1013C00056E073E072D084F8C86FA4F84C5EA4F8BD
:1013D000B27E64E0072184F8BA1FA4F8B60E94F830
:1013E000CA0F012805D0324884F8CA5F603007F080
:1013F00015FD94F8CB0F042858D084F8CB6FA4F8CF
:101400004C5EA4F8B67E4AE0082184F8BA1FA4F81E
:10141000BA0E94F8CD0F012805D0254884F8CD5F89
:10142000403007F00FFD94F8CE0F04283ED084F82A
:10143000CE6FA4F84C5EA4F8BA7E30E0092184F89F
:10144000BA1FA4F8BE0E94F8D00F012805D0184892
:1014500084F8D05F203007F0F9FC94F8D10F04280D
:1014600024D084F8D16FA4F84C5EA4F8BE7E16E0B8
:101470000A2184F8BA1FA4F8C20E94F8D30F0128E9
:1014800003D084F8D35FA577657794F8D40F042848
:101490000CD084F8D46FA4F84C5EA4F8C27E00F09F
:1014A000E5F8BDE8F0416420FFF7DABEBDE8F08161
:1014B0005000002050010020014802F0D9BF000078
:1014C00084150020014802F0D3BF0000B4120020B0
:1014D00001681823CAB2103AB2FBF3F2054B6FF35E
:1014E0000901032A9B5CC36500D9091D8165084673
:1014F00070470000E8AA000810B583694FF0C07477
:10150000826A0146002053B1B3F5005F15D072B175
:10151000012A0CD0022A0AD0032A09D104E01AB108
:10152000012A06D0022A03D1C96AC90100D50120C7
:1015300010BDC96AA142FAD010BD002AF7D0012A15
:10154000F2D0022AF3D0032AF3D010BD30B50468DC
:10155000256825F480252560046863608368402B36
:10156000036803D099600068C26030BD9A6000686B
:10157000C16030BD70470000FEB500240D4610214B
:1015800006460848224603F0FDF964203470012124
:10159000009501232246CDE901100348A02103F064
:1015A000C1FAFEBD0004024098130020FEB5157874
:1015B00050220F781C4601786426089B42EA1110DD
:1015C00047EA01118DE86800CAB2410002480123D0
:1015D00003F0A8FA2070FEBD981300202DE9FC4707
:1015E0000078174609785022DDE90A9842EA10147B
:1015F0000F4D41EA0010C6B20020195C2954401C6E
:101600001028FADB0B480022102103F0BBF900215F
:1016100088F800103878610001233246CDE9005087
:10162000054803F031FB89F80000BDE8FC870000A5
:101630005A120020000402409813002010B500F058
:1016400025F8BDE8104000F019B80000002202485B
:10165000102103F097B90000000C02400278082125
:10166000014803F08FB90000000C0240002202483C
:10167000042103F087B90000000C02400122024857
:10168000102103F07FB90000000C02400122024843
:10169000042103F077B90000000C024070B5054644
:1016A0000C46084600F004F82078287070BD000051
:1016B0000121017002480A46490203F063B90000A3
:1016C000000802400021017002480A464FF40071F0
:1016D00003F058B900080240704700002DE9FF4FA1
:1016E00087B0944605460078DDE91631DDE914A29D
:1016F000DDE91FB4DDE91A76DDE91898572838D0FE
:1017000052283FD04C2868D045282FD15C22614612
:101710004846FEF7BEFD0021C9F85C10C8F8341039
:101720000846C8F83810C8F83C10089A52F820301B
:1017300048F820300A9A52F8202047F82020401C10
:101740000D28F2DB79630020DAF800203260B963FB
:10175000DAF804207260F963DAF80820C6F8082085
:1017600006EB8002401C0528D160F9DB0BB0BDE818
:10177000F08FCDE900212B1DEA1CA91C681CFFF786
:101780002DFFF3E71C981CAE6A7802701D98AA78AA
:1017900002701E98EA780270CDF800B096E8070053
:1017A000FFF704FF1C980178002084F890101D9921
:1017B000097884F891101E99097884F8921000BF76
:1017C00022181BF80010401C102882F89310F7DB39
:1017D00004F1900008F064FEC8E704F18000009076
:1017E000EA1CA91C681C04F1A303FFF7DFFE94F8B0
:1017F000A30094F8A410884267D000200DF10801DE
:1018000004EB400292F8813092F8802003EB022230
:1018100021F81020401C0828F2DB687801280ED03F
:1018200002280CD003280AD005281BD0062819D07E
:1018300008282AD0092828D00B283BD045E0C0062C
:10184000020ED01F904200D90020002252FA80F3ED
:1018500004EB430331F81250521C082A23F8025CAF
:10186000F4DB32E0C0002038C0B2C21F824200D98F
:101870000022002050FA82F304EB430331F81050A9
:10188000401C0828DD85F5DB1FE0C0003838C0B2F9
:10189000C21F824200D900225FF0000050FA82F39A
:1018A00004EB430331F81050401C0828A3F84E50B5
:1018B000F4DB0AE05FF0000004EB400331F8102095
:1018C000401C0828A3F87020F6DB002034F8102014
:1018D00049F82020401C1828F8DB002004EB4001C8
:1018E000B1F8502047F820200A8E48F82020401CEC
:1018F0001028F3DB5FF0000004EB4001B1F870103A
:1019000046F82010401C0828F6DB2FE70348C16882
:10191000006841630021014804F060BBE41300202B
:101920002DE9F04FDFF8A0914FF0FF334FF00108A1
:101930004FF0020A09F500674A462DED028BB7EE1B
:10194000008B85B087ED0A8B87ED148BC9F8583C66
:1019500007F54E7487ED248BA4F1E00089F8F08F31
:1019600089F8ECAF602100F1600682F8C48100F1D3
:10197000A005FEF7A7FC40213046FEF7A3FC40215E
:101980002846FEF79FFC00204FEA000144F8201093
:10199000401C0828FADB4D49504603914C464A4EFC
:1019A00081F81CA0A1F1200A354680398AF81C0074
:1019B00086F8DC00C03685F8BC00A03502910877B7
:1019C0002039019108772039A1F1200B0091087787
:1019D0008BF81C0089F81C00092087ED0E8B89F814
:1019E000AE0F01F6481008F02BFC05F61C1008F0AD
:1019F00063FC05F6781008F045FC05F6AC1008F01D
:101A000039FC05F56F62511E481EFFF7B5FD05F65E
:101A1000F16008F081FDFFF781FBFFF7B5FBFFF7F1
:101A2000C9FBFFF70BFEFFF771FF01F0CDFD05F0DD
:101A300083FB05F087FB07F061FD07F069FD94F873
:101A4000BB0F012802D1039807F0E4F994F8BE0F08
:101A5000012802D1504607F0EDF994F8C10F012892
:101A600002D1304607F0DEF994F8C40F012802D104
:101A7000284607F0DBF994F8C70F012802D1029835
:101A800007F0DCF994F8CA0F012802D1019807F099
:101A9000C5F994F8CD0F012802D1009807F0D2F9CA
:101AA00094F8D00F012802D1584607F0CFF994F8E6
:101AB000D30F012803D184F81E8084F81D8005B05F
:101AC000BDEC028BBDE8F08F5000002050010020DB
:101AD0002DE9F04F40222DED068BABB0FE49189159
:101AE000A1F52C70FEF7D5FBFB4960224031179120
:101AF000A1F52C70FEF7CDFBF7494022A0311691DD
:101B0000A1F52C70FEF7C5FBF44A19AB92F9C90E8A
:101B100002EB8000B0F8F01DA2F8881DB0F8F20DBD
:101B2000A2F88A0D92F8A90F82F8880F92F9CA0ECE
:101B300002EB8000B0F8F81DA2F88C1DB0F8FA0D89
:101B4000A2F88E0D92F8AA0F2A9092F9CB0E02EB12
:101B50008000B0F8001EA2F8901DB0F8020EA2F8A6
:101B6000920D92F9CC0E02EB80010020B1F8084EE4
:101B7000A2F8944DB1F80A1EA2F8961D02EB80015E
:101B8000D1F8381C43F82010401C0828F6DB92F8E6
:101B9000AB1F002082F8891F92F8AC1F299192F8A0
:101BA000AD1F82F88A1F92F9CD1E01EBC1014318C7
:101BB00002EB800402EB8303D3F81C3D401C092890
:101BC000C4F8683CF3DB92F9CE1E0020C1EBC101E2
:101BD000431802EB400402EB4303B3F8103E401CF1
:101BE0000728A4F8983DF3DBB2F88E0E0023A2F884
:101BF000320E92F9CF0E00EB80008400191903EB2E
:101C0000830001EB810102EB800002EB810191F87E
:101C1000CD5101F2CD1180F8ED545B1C142B4D78A1
:101C200080F8EE548D7880F8EF54CD7880F8F05439
:101C30000D7980F8F1544D7980F8F2548D7980F85F
:101C4000F354CD7980F8F4540D7A80F8F5544D7A38
:101C500080F8F6548D7A80F8F754CD7A80F8F854ED
:101C60000D7B80F8F9544D7B80F8FA548D7B80F819
:101C7000FB54CD7B80F8FC540D7C80F8FD544D7CEA
:101C800080F8FE548D7C80F8FF54C97C80F80015E4
:101C9000B4DB934D9FED931B90494FF0FF3395EDCF
:101CA000140B08464FF0040885ED0A0B00F60D02F0
:101CB000159295ED100BB7EE008BB2EE04AB9FEDD5
:101CC0008B9B20EE010B00F6F8221092403A00F6B2
:101CD0005820CDE90E0230EE080BBCEEC00B10EE22
:101CE000100A81F8920FB1F8880EA1F84A0EC1F8D7
:101CF000583C91F8B00FE8B10C4694F8B20F08B117
:101D000006F048FA94F8D70F08B107F073FB94F87F
:101D1000D90F08B101F0E8FA94F8E40F00286DD06B
:101D200094F8E30F734901285AD002286ED0032893
:101D30007ED16BE0694C0126002784F8B06F84F8EF
:101D4000B26FA4F8967EA4F8987EA4F89A7EA4F8C0
:101D50009C7E94F8B10F042803D084F8B18F08F06A
:101D60000DF984F8D76F84F8D66F84F8D96FC4F86A
:101D7000647C94F8D80F042801D084F8D88F03200D
:101D800084F8E46F84F8EA7F84F8EB7F84F8E30F4B
:101D900094F8E60F012803D084F8E66FA4F8C67E15
:101DA00094F8E50F012803D084F8E56F07F0A6FB4F
:101DB00084F8E26F85ED229B94F8E10F022804D0AD
:101DC000022084F8E10F85ED228B84F8E86F94F807
:101DD000E70F012803D084F8E76F84F8977F19E3B1
:101DE00094F8EB0F58B194F8882F94F8EA3F9A4290
:101DF00012D1401E00D5002084F8EB0F18E002201D
:101E000084F8E30F3C48FFF75DFC11E094F8880F7D
:101E100094F8EA2F90420BD0012084F8E30F21A818
:101E2000FFF73CFC94F8881F642084F8EA1FE3E77E
:101E300094F8E60FE8B194F8E50F012802D00228E3
:101E400017D104E00020022184F8E51F0FE0B4F868
:101E5000C60E0A2805D3012084F8E50F07F04EFBD3
:101E600007E0401CB0F5803F01DB4FF6FF70A4F89F
:101E7000C60E94F8E20F274600280BD097F8E10F22
:101E8000012802D0022805D105E0022087F8E10FE1
:101E900085ED228BA7E295ED220BB4EECA0BF1EE95
:101EA00010FA7CDB0D48012300214FF0050C00F6F1
:101EB0007872009287F8E13F223297F8EC6F00F5D4
:101EC00090790392521E00F6E664019200F6383AC9
:101ED00000F6987B12E00000A80B002050000020C4
:101EE000500800200B4C91061B2ECF3F0000000035
:101EF0000000000016020020EB0F002000F64C222C
:101F00002892343A1492903A00F6BC10062ECDE98D
:101F1000120224AA7ED2DFE806F07D030697FAF9C2
:101F200087F8ECCF5FE297F88F0FFF281FD0AA2821
:101F30005ED0002087F8EC3F1154401C1028FBDBDA
:101F40000023009245201A46194608F0B1F822AB4A
:101F50000993109B23AA21A8CDF83090CDE90A243B
:101F60000F9ACDE907A0CDE905230E9933E287F852
:101F7000EC8FAA2287F8791F87F87A1F87F87B1FD2
:101F800087F87C1F87F87D1F87F87E1F87F87F1FE3
:101F900087F8801F87F8811F87F8821F00E01EE204
:101FA00087F8831F012387F8841F572087F8851F30
:101FB00087F8861F87F8871F87F8EF1F87F8ED8F50
:101FC00087F8782F0022114608F072F823AE22AB72
:101FD00005AACDE90936109B21A9CDE90B490F9837
:101FE000089182E809040E98CDF808B0049022E028
:101FF000032087F8EC0F87F8EF1F002087F8EE8F9B
:102000001154401C1028FBDB491CFF290E4600D947
:10201000FF2100E0BEE11023009200224C2008F0D6
:1020200047F80AA823A922AA099280E8120282E1AD
:1020300087F8EF6FD7E128980090DDE91430DDE9EB
:102040001221FFF74BFBCEE197F8EE0F01280DD0E0
:10205000022841D003284DD097F8EF0F3E460328C1
:1020600063D386F8EE3F86F8EF8FBCE197F8EF8FE9
:10207000B8F1060F02D30320072142E000201154DB
:10208000401C1028FBDB48E0C1B200921023002264
:102090004C2008F00DF80AAB23A922AA099283E884
:1020A0001202DDE90F2321A8CDE907A0CDE9052320
:1020B0000E98049028980090DDE91430DDE9122193
:1020C000CDF808B0FFF70AFBB8F1FF0F01D94FF0C8
:1020D000FF0887F8EF8F86E197F8EF8FB8F10B0FC5
:1020E00002D387F8EE1F1BE700201154401C102874
:1020F000FBDB12E097F8EF8FB8F1090F08D302204D
:102100000A2187F8EE0F87F8EF1F6CE12BE13EE024
:1021100000201154401C1028FBDB08F10108B8F125
:10212000FF0F4046B0D9FF20AEE70023D1545B1C1F
:10213000102BFBDB401CFF2800D9FF200092C1B20E
:10214000102300224C2007F0B3FF0AA923A822AADB
:10215000099281E81102DDE90F2321A8CDE907A04A
:10216000CDE905230E98049028980090DDE91430FD
:10217000DDE91221CDF808B0FFF7B0FA96F8EF0FBD
:10218000401CFF2800D9FF2086F8EF0F2BE197F8BD
:10219000ED0F012813D0022831D0032862D0042883
:1021A0007DD097F8EF0F03286CD387F8EF1F87F8DF
:1021B000ED3F1398B2EE0A0B08F072FA13E197F8AC
:1021C000EF0F022808D387F8EF1F032087F8ED0FE1
:1021D0001498B2EE0A0BEFE708F008F897F8EF0F43
:1021E000401D55E0C1B210230022572007F060FFC8
:1021F0000AAB23A922AA099283E8120220E097F8E9
:10220000EF0F48B387F8ED1F032087F8EC0F00208D
:1022100087F8EF1F87F8EE8F1154401C1028FBDB66
:10222000491CFF2900D9FF210092102300224C20D5
:1022300007F03EFF0AA823A922AA099280E8120209
:10224000DDE90F2321A8CDE907A0CDE905230E98EC
:10225000CDF808B004904AE007F0C8FF97F8EF0FF8
:102260000B3015E097F8EF0F02280CD387F8EF1F1B
:10227000022087F8ED0F2898B0EE080B08F058F907
:10228000B1E00CE042E007F0B1FF97F8EF0F083043
:10229000FF28A7D9FF20A5E787F8EF0FA3E087F86D
:1022A000EDCF1298B3EE070B08F09EF997F8EF0FF9
:1022B00007F09CFF97F8EF0F401CFF2800D9FF2084
:1022C000C1B210230022572007F0F2FE0AAB23A967
:1022D00022AA099283E81202DDE90F2321A8CDE9A1
:1022E00007A0CDE905230E99CDF808B004912898F0
:1022F0000090DDE91430DDE91221FFF7EFF997F8DE
:10230000EF0F401CFF28C7D9FF20C5E707F06EFF7D
:1023100097F8EF6F761CFF2E304600D9FF20C1B230
:1023200010230022572007F0C3FE0AAB23A922AADC
:10233000099283E81202DDE90F2321A8CDE907A065
:10234000CDE905230E98049028980090DDE914301B
:10235000DDE91221CDF808B0FFF7C0F9FF2E7FF6B6
:1023600067AEFF2664E695ED260BB4EE480BF1EE62
:1023700010FA09D197F8991F97F8F00F814203D00E
:10238000062087F8EC0F2EE023AA22A921A808F046
:10239000EBF928E095ED260BB5EEC00BF1EE10FA47
:1023A0003FF4A1AE85ED269B4C2387F80D3887F8C6
:1023B0000F180AAB4FF0100C87F810C822AE099620
:1023C00023AA83E81402DDE90F2305AE21A886E8DD
:1023D0000C040E990890CDF808B004912BE630EE6D
:1023E000080B85ED220B97F8E81F384691B190F85D
:1023F000E71F012902D002290CD129E0002180F831
:10240000971F199931B1022280F8E72F012100BFEF
:1024100087F8971F95ED280B754C30EE080B85ED6E
:10242000280B94F8F11F2998814209D085ED0C0BF7
:1024300085ED289B84F8F10FB4F88A0EA4F84E0EAF
:102440006C4E86ED5A9B94F8970F012802D053E00A
:102450000121DDE786ED5A8B94F8890F18B1002031
:10246000A4F8500E46E0B0EE000B86ED5A0BB4F81F
:102470009A0D142840D2B4F8A41D1B9881423BDB6E
:10248000B0EE080B86ED5A0BB4F8981D19988142EE
:1024900032DCB1EE000B86ED5A0B1A98B0F1004F0A
:1024A00002DC6FF0004000E0404200EE100AB4F899
:1024B0004E0E95ED0C1B081AB8EEC02B00EE100A5C
:1024C000B8EEC00B20EE0A0B80EE013BB4EEC23B2F
:1024D000F1EE10FA10D8002084F8A20F4548B63863
:1024E000FEF798FE0121A4F8501EB1EE040B642003
:1024F00086ED5A0B84F8A10F2A9800EE100AB4F862
:10250000980DA4F88A0EB8EE400B94F8A10FE8B32A
:1025100084F8950F95ED101B9FED373BB5EE002B22
:10252000374821EE031B00EE021B11EE101A11EECC
:10253000902A8DED001B016442641422B4F8500E01
:10254000A4F8880E2B4815994C30FDF7A2FE94F89C
:10255000980F602286F8600094F8990F86F8610061
:1025600094F89A0F86F8620022480E996430FDF7BD
:1025700090FE204840220F99C430FDF78AFE214882
:1025800040221099FDF785FE002000E02DE004EBCD
:10259000800206EB8001401CD2F8382B0828C1F8D5
:1025A0004421F2DB0F9940221898FDF772FE0E9934
:1025B00060221798FDF76DFE109940221698FDF7DE
:1025C00068FE002004EB8001401C0828D1F8382B5D
:1025D000C1F8382CF6DB0C4841684868401C48605C
:1025E0002BB0BDEC068BBDE8F08F94F8960F8FE70B
:1025F00050000020A81000203FEB964F1E0DEE3F2C
:1026000050080020AC110020E4A900082DE9FC5F6F
:10261000FE4C002504F6F87194F8950F84F88B0FA2
:1026200091ED040BBDEEC00B10EE100A01283ED058
:102630000228284644D02118401C0A2881F8D25E7E
:10264000F9DBF348811E031FCDE90010821F891FAB
:10265000783007F031FCB4F8520E012640F2053B09
:102660004FF6FF77584540F202294FF4803A37D1B0
:102670009FEDE81BB4F8540EA4F8C60DB4F8560E3E
:10268000A4F8BA0DB4F8580E00EE100AB8EE400BDC
:1026900020EE010BBCEEC00B10EE100AA4F8BE0D2C
:1026A00094F8A60FFF2814D384F8A65F00E1002059
:1026B00023180A5C401C0A2883F8D22EF8DBC0E7F6
:1026C0000B182218401C1B7E0A2882F8D23EF7DB2A
:1026D000B7E7401CFF2800DDFF2084F8A60FE7E0E5
:1026E000B0F5017F3CD0B0F5007F47D0A0F5407138
:1026F00006390CD0A0F5007101397CD0484577D15E
:10270000B4F8540E012874D0022873D0D0E09FEDA5
:10271000C30BB4F8540E01EE100AB8EE411B21EEC3
:10272000001BBCEEC11B11EE100AA4F8BC0DB4F8DE
:10273000560E01EE100AB8EE411B21EE001BBCEE56
:10274000C11B11EE100AA4F8C20DB4F85A0EA4F879
:10275000C40D94F8A70FFF2832D384F8A75F35E0A3
:1027600094F8A30FFF2802D384F8A35FA0E0401CD5
:10277000FF2800DDFF2084F8A30F99E0B4F8AA0D2C
:10278000B4F8541EFF2802D3A4F8AA5D05E0401C4B
:10279000504500DB3846A4F8AA0DA4F8AC1D94F807
:1027A0008B0F64280BD0322903D0642901D0C829AB
:1027B0007ED1002007F02EFE002007F03FFE77E0DC
:1027C000401CFF2800DDFF2084F8A70FB4F8580E46
:1027D000B0EE401B00EE900AB8EE600B20EE010B4D
:1027E000BCEEC00B10EE100AA4F8C00D60E002E0D1
:1027F00052E036E043E0B4F8540EFF2800D9FF2041
:10280000C2B284F8A42FB4F8B20DB4F8561EFF2853
:1028100002D3A4F8B25D05E0401C504500DB384609
:10282000A4F8B20D1E2AA4F8B41D08D9002007F0A0
:10283000F1FD002007F002FE84F8A56F01E084F8A6
:10284000A55FB4F8580E30B3FF28A4F85E0E01D887
:10285000012800D0002084F8A80F7248FEF7FEFE81
:1028600026E0B4F8560E07F0D5FDB4F8580EA4F8DB
:10287000620EB4F8B00D0CE084F8A45F18E0B4F870
:10288000560E07F0DBFDB4F8580EA4F8620EB4F84B
:10289000B80D0028F0D00BE0A0F50071033907D186
:1028A000B4F8540EA4F85C0EB4F8560EA4F8600EFA
:1028B00094F8D00E58B9B4F8BA0DA4F82C0EB4F8A8
:1028C000BC0DA4F82E0EB4F8BE0DA4F8300E642290
:1028D00094F8941F022084F88D1F94F8AECF524BC9
:1028E000BCF10A0F60D2DFE80CF05F0578117821A7
:1028F00028434D59062284F8AE2F4FF40070A4F8F7
:10290000420E4FF4C871A4F8441E66E0B4F8941E59
:10291000042902D007F0AEFF5FE084F8AE0F4FF459
:102920007A71A4F8421EA4F8440E56E084F8AE6F03
:10293000A4F8429EA4F8446E46E0B4F8940E012830
:1029400001D041B111E0082184F8AE1FA4F842BEC5
:10295000A4F8482E41E094F8AF2F012A05D1401C7D
:10296000504500D33846A4F8940E84F8AF1F34E0E5
:10297000032084F8AE0FA4F8425EA4F8905EA4F899
:10298000925E2AE0A4F8482E072384F8AE3FA4F80C
:10299000429EA4F8446EA4F8460E1EE00A2084F875
:1029A000AE0F9FED220B16E093ED180B9FED211B50
:1029B000B4EE410BF1EE10FA09D1052184F8AE1FF7
:1029C00040F20120A4F8420EA4F8466E05E0B7EEEE
:1029D000001B30EE010B83ED180B0D4817498230B8
:1029E000A0F194039A1ECDE90010911E9A3806F0CA
:1029F0004BFD94F8C91EB4F8AA0D31B15FF0000187
:102A000004EB8101A1F8F00D1AE0B9E050000020BC
:102A1000AA0E0020B728B3412619D93F9A9999994F
:102A20009999B93FF80F00205008002000000000DD
:102A3000000000000000000000709740E4A90008BA
:102A400094F8C91EB4F8AC0DE9B3002104EB810180
:102A5000A1F8F20D94F8C90EB0B3002084F8C90EA5
:102A600094F8A30F84F8A90F94F8CA1EB4F8AE0D19
:102A700059B3002104EB8101A1F8F80D94F8CA1EA6
:102A8000B4F8B00DE9B3002104EB8101A1F8FA0D0F
:102A900094F8CA0EB0B3002084F8CA0E94F8A40FBC
:102AA00084F8AA0F94F8CB1EB4F8B20D59B30021E4
:102AB00004EB8101A1F8000E94F8CB1EB4F8B40D1C
:102AC000E9B3002102E05DE05EE05FE004EB81013C
:102AD000A1F8020E94F8CB0E90B3002084F8CB0E30
:102AE00094F8CC1EB4F8B60D59B3002104EB810163
:102AF000A1F8080E94F8CC1EB4F8B80DF1B300217B
:102B000002E045E046E047E004EB8101A1F80A0E4F
:102B100094F8CC0E98B3002184F8CC1E002094F8D1
:102B2000A51F84F8AB1F94F8A61F84F8AC1F94F877
:102B3000A71F84F8AD1F00BF94F8CE2E02E02DE051
:102B40002EE02FE004EB4001B1F8BA1D82B3002261
:102B5000C2EBC2020244401C04EB42020728A2F866
:102B6000101EE9DB94F8CE0E28B3002084F8CE0EB8
:102B7000B4F8620EA4F88E0EBDE8FC9F14E015E0D8
:102B800001213DE7012161E7012067E7012171E7AC
:102B9000012179E701207FE7012189E7012191E700
:102BA00001209BE70121A1E70121A9E70121B3E76A
:102BB000FFE70122CCE70120D8E700002DE9F04F24
:102BC00045499BB00DF1080C91F9C83E002003EB7C
:102BD000C303C41801EB8404D4F8D44C4CF820404F
:102BE000401C0928F5DBB1F88C9E0123B1F8600E7A
:102BF000189091F8950F1790B1F84C0E1690B1F807
:102C00005C0E1590B1F8A8BDB1F85EAE81F8D03E6B
:102C10000020B1F82C5EB1F82E3EB1F8304E81F8AC
:102C2000D00E65F30F02B1F8C07D0BACB1F8C26DE8
:102C300063F31F42B1F8BC5D01EB40083CF8203063
:102C4000A8F8C83D24F81030401C0928F4DBA1F88E
:102C5000DA9D4FEA1248189AA1F8DC2D179AA1F8CC
:102C6000DE2D169AA1F8E02D159AA1F8E22DA1F813
:102C7000E4BDA1F8E6ADA1F8E88DA1F8EA7DA1F8E0
:102C8000EC6DA1F8EE5D15490091A1F5AB7006F071
:102C900018FC009807F020FC1148002134F811209E
:102CA00020F81120491C0929F8DBA0F81290189986
:102CB00081821799C1821699018315994183A0F8E1
:102CC0001CB0A0F81EA0A0F8208047848684C5848C
:102CD0001BB0BDE8F08F0000500000206E0F0020F8
:102CE000A81000202DE9F0419F4901F55B702DED02
:102CF000108BA8B007F06CFE00209FED9C1B9D4C34
:102D00000EAA00BF04EB800102EBC003401CD1F807
:102D1000B01C092800EE101AB8EE400B20EE010B93
:102D200083ED000BEEDB944D0020694602EBC006FC
:102D300005EBC00396ED002B93ED003B93ED0E1BCE
:102D400093ED1C0B32EE032B01EBC006401C062852
:102D500002EE010B86ED000BE8DB9DED1E1B9FEDE7
:102D6000872B9FED880B002031EE021B20AD21EE5A
:102D7000000B8DED0C0B00BF01EBC00292ED000BC0
:102D8000BCEEC00B10EE102A45F82020401C07288E
:102D9000F2DBDFF8F881B3EE092BB7EE000B9FED05
:102DA0007C5B9FED7D6B9FED7E7B9FED7F8B9DED33
:102DB0001ADB9FED7FEB9FED809BB6EE00FB9FED56
:102DC000803B9FED811B9DED1CBB9FED81CB98ED62
:102DD000124B8DEE0EAB34EE422BB0EE414B08F2AF
:102DE00086601BEE0C4BB0EE40BB02EE05BBB0EEB6
:102DF000405B02EE065BB0EE406B02EE076B02EE4C
:102E0000080B8BEE052B3AEE411B86EE005B05EEC0
:102E1000092B22EE0F0B20EE030B21EE001B24EEFC
:102E2000002BFCEEC10BBCEEC20B10EE907A10EE44
:102E3000106A06F057FB9DED080B002088ED120B81
:102E400008F6580101EB800355F82020401C0728A4
:102E50009A62F7DBC1E9117694F8D10E68B900BF28
:102E600004EB800255F82010C2F8641D401C0728AE
:102E7000F6DBC4F8807DC4F8846D002094F8C82E79
:102E800055F82010F2B3002202EBC2020244401CAB
:102E900004EB82020728C2F8D41CEFDB94F8C80EBA
:102EA00088B3002000EBC00004EB8000C0F8F07C89
:102EB00094F8C80E40B3002000EBC00004EB800083
:102EC000C0F8F46C94F8C80ED8B3002184F8C81E7A
:102ED0000020B4F8861EA4F88C1E00BF55F8201000
:102EE00094F8CD2E72B3002202EBC2020244401CC1
:102EF00004EB82020728C2F81C1DEFDB94F8CD0E0C
:102F000058B302E01FE020E021E0002000EBC00009
:102F100004EB8000C0F8387D94F8CD0EF8B10020A5
:102F200000EBC00004EB8000C0F83C6D94F8CD0EBF
:102F3000B8B1002084F8CD0E28B0BDEC108BBDE8F0
:102F4000F08106E007E001229EE70120AAE70120C8
:102F5000B2E70121BAE70122C6E70120D6E7012046
:102F6000DEE70120E6E70000000D0020B4D934E7D9
:102F70000C684A3F50000020F0A900081F85EB5163
:102F8000B81ED53FF0C1071F7CF04240500800201A
:102F90009AB1683A3B196C3FB01BB62DCA6C703FB2
:102FA000DD41EC4CA1F36A3FACA8C1340C1F713F6A
:102FB0000000000000607D400AD7A3703D0AEF3F8B
:102FC00037B83BDCDE002440809F71E14048263F5B
:102FD00079734289066E613FF8B56F4C012084F821
:102FE000D10E002004EB8001D1F8642D401C09288B
:102FF000C1F88C2CF6DB002584F8D15EB4F8600EA5
:103000000723A4F8340E94F8950F84F88C0FB4F8C5
:103010004C0EA4F8360EB4F85C0EA4F8380EB4F8D2
:10302000A81DA4F83A1EB4F85E1EA4F83C1EB4F81D
:10303000861EA4F83E1EB4F8501E584AA4F8401E3E
:1030400004F6346402F1100107F05CF9534A0A23D4
:10305000208620326086208802F1160107F052F99E
:10306000A0864FF4A061E1864FF444722287531C7E
:103070006387961DA687D71DE78794F8BE01A4F63F
:10308000346464283ED3B4F89C0CA4F87C0EB4F8E5
:10309000A00C434EA4F87E0EB4F8980CA6F17C0365
:1030A000A4F8800E9A1EB4F8AC0C911EA4F8820EFF
:1030B000881E04F68C44009606F0CFF9A6F18E0027
:1030C000314607F0CFF9208B083EA4F8E801A6F1BD
:1030D0007C0320889A1EA4F8EA01911EA088A4F817
:1030E000EC012089A4F8EE01881E009606F0B5F9DF
:1030F000A6F18400314607F0B5F984F86653A4F6CA
:103100008C4403E094F8F30F0A281FD3244E254A79
:1031100010360096A6F1D803991E081D06F09DF9F9
:10312000A6F1A000314607F09DF9083E0096A6F1F1
:10313000C80303F12A02911E881E06F08EF9A6F13B
:103140009C00314607F08EF984F8F35F144D94F833
:103150008C0F1835A4F8840EA5F1D60300951A1F1C
:10316000911E01F14A0006F078F9A5F1AA0029465E
:1031700007F078F994F8F30F401CFF2800DDFF20DA
:1031800084F8F30F94F8F20F401CFF2800DDFF20B5
:1031900084F8F20FF8BD00005000002098AA000843
:1031A0004E0F0020E4A900084C49002010B586B05D
:1031B0006A4691F848308DF8003091F849308DF822
:1031C000013091F84A308DF8023091F84B308DF88B
:1031D00003300C181318401C94F84C4010281C7134
:1031E000F7DB104607F006FB3D4B002293F8CF0EAD
:1031F000E8B3002002EB820100EB800003EB8101C9
:1032000002EB800000EB800091F87D4603EB80002C
:1032100080F8CD4191F87E4680F8CE4191F87F4606
:1032200080F8CF4191F8804680F8D04191F88146EE
:1032300080F8D14191F8824680F8D24191F88346D6
:1032400080F8D34191F8844680F8D44191F88546BE
:1032500080F8D54191F8864680F8D64191F88746A6
:1032600080F8D74191F8884680F8D84100E030E0F6
:1032700091F8894680F8D94191F88A4680F8DA4178
:1032800091F88B4680F8DB4191F88C4680F8DC4160
:1032900091F88D4680F8DD4191F88E4680F8DE4148
:1032A00091F88F4680F8DF4191F8901680F8E01190
:1032B000521C142A9ADB93F8CF0E60B15FF0000025
:1032C00083F8CF0E074890ED0E0B80ED140B06B07F
:1032D00010BD01208EE70120F2E700004810002019
:1032E00050000020500800202DE9F04FA54C89B077
:1032F0000125224602F6937094F8D8CF02F6947115
:10330000009002F2C71BD2F8640C0023039103273C
:1033100092F8DEAF411E92F8DA9F0226EA07BCF16E
:10332000070F47D2DFE80CF04604F665F6C4F60056
:10333000BAF1010FD4460BD0BCF1020F11D0BCF191
:10334000030F17D0BAF1040F34D1012835D0C7E0EC
:10335000012873D184F8E03F84F8DE3F84F8D86F09
:10336000D5E001286AD184F8DE7F00F0A7F9C4F81F
:10337000640CCCE0012861D184F8DE5F00F09EF996
:10338000C4F8640C94F8960F512894F8E00F07D213
:1033900001280FD0002084F8E05FFDF761FF03E013
:1033A000022807D084F8E06F04A9009A5B460398CE
:1033B00000F04EF909B0BDE8F08F84F8DF3F84F8E3
:1033C000DE6F00F07BF9704AC4F8640C511E481E91
:1033D00000F00AF994F89E0F84F8930F94F89C0F6C
:1033E00084F8940FE6E7C4F8642CE3E7C4F8641C9F
:1033F000E0E7D4F8581C0420022920D00029D9D1B4
:10340000BAF1040F84F8D85F05D084F8DE0F00F01D
:1034100055F9C4F8640C94F8D60F032837D0042863
:1034200043D000BF94F8960F3C283ED894F8DF0FA5
:103430000128BFD03C2084F8DF5F33E050E0B4F8CF
:10344000A41D0529B6D2052284F8D82FB9F1040F9E
:103450000BD084F8DA0F00F031F94C49884201DDD5
:10346000481C00E0401CC4F8640C94F8D60F0328F4
:1034700094F8DD0F06D001289CD084F8DD5FFEF7BC
:10348000E5F897E7022895D084F8DD6F09E094F815
:10349000960F5028C6D894F8DF0F03288AD084F8F6
:1034A000DF7F5020FDF7DCFE84E784F8DF6F81E7E3
:1034B000B9F1010FCC460BD0BCF1020F13D0BCF117
:1034C000030F30D0B9F1040F8CD1012836D007E0BA
:1034D000012805D184F8DA3F062084F8D80F16E0D9
:1034E000904283DC7FE70128FAD184F8DC3F84F83E
:1034F000DA7F00F0E3F8C4F8640C94F8D60F0328E0
:1035000094F8DB0F07D00128BBD084F8DB5F00F014
:10351000B3F84FE733E00228B3D0002084F8DB6F24
:10352000FDF79EFEF3E70128DAD184F8DB3F84F84B
:10353000DA5F00F0C3F8C4F8640C35E784F8DD3FC7
:1035400084F8DA6F00F0BAF8C4F8640C94F8D60F77
:103550000F4F032894F8DC0F06D0012891D084F88F
:10356000DC5FFEF78BF803E002288AD084F8DC6F7A
:1035700004A9009A3B46039800F08CF81AE784F8F7
:10358000D87F17E750000020EE0F0020FEFFFF7FDE
:103590001A02002010B5002303700B700124147070
:1035A0000421084C1A46204601F0ECF9002220467E
:1035B000082101F0E7F901222046BDE81040022170
:1035C00001F0E0B90010024008B5684600F002F8CA
:1035D00008BD00000021017002480A46022101F0E6
:1035E000D1B900000010024010B50024047001237E
:1035F0000B7013702246084C0421204601F0C2F9DA
:1036000001222046082101F0BDF901222046BDE833
:103610001040022101F0B6B90010024010B501239C
:10362000037000240C70094C042113701A462046C4
:1036300001F0A8F900222046082101F0A3F9012297
:103640002046BDE81040022101F09CB90010024064
:103650002DE9F0411C4615469A1C0E46591C07469A
:103660002046FFF797FFA0782870207838706078A0
:103670003070BDE8F0810000044810B5FFF7AAFFE4
:10368000034890F89F1F80F8931F10BDEF0F002094
:10369000500000202DE9F0411C4615469A1C0E46AC
:1036A000591C07462046FFF7B9FFA07828702078FC
:1036B000387060783070BDE8F08100002A49084613
:1036C00091F8DA2F90F8D60F042A10D0022A16D0DB
:1036D000032A2FD0012A35D091F8DE0F042839D0E3
:1036E00002283AD003283BD0D1F8140970470328A8
:1036F00002D0D1F828097047D1F83809704703285B
:103700000FD0B1F8A42D012A0ED01748022AD0F804
:103710001C09F3D0032A0AD0042AEFD1D1F82409D6
:103720007047D1F834097047D1F818097047D1F8BB
:1037300020097047032802D0D1F82C097047D1F82E
:10374000F0087047032802D0D1F830097047D1F84B
:10375000F4087047D1F80C097047D1F80809704790
:10376000D1F8100970470000500000207047000099
:10377000F8B50025009590F83C20012A18D00122C8
:1037800080F83C200A6807234E4C0668092A1AD99B
:103790000A3A02EB4207F268BB409A43F2600E68B5
:1037A0000268A64206D10B7AD66846EA036308E0AF
:1037B0000220F8BD0A3E8B68D76806EB4606B34088
:1037C0003B43D3600EE002EB42073269BB409A43B1
:1037D000326103680E788A681F6906EB4606B240BC
:1037E0003A431A614A681F23072A13D20668521EF9
:1037F00002EB8207726BBB409A43726303680E79D7
:103800000A88761E5F6B92B206EB8606B2403A4398
:103810005A6327E006680D2A12D2D21F02EB8207F4
:10382000326BBB409A43326302680E790B88F61FF5
:10383000176B9BB206EB8606B3403B43136311E064
:103840000D3A02EB8207F26ABB409A43F2620268C9
:103850000E790B880D3ED76A9BB206EB8606B34005
:103860003B43D362184A0368934208D10B68122B7A
:1038700005D1D2F8043343F48003C2F8043303685B
:1038800093421AD10B68A34201D0112B15D1D2F863
:10389000043343F40003C2F804330968A1420CD195
:1038A0000A490B4A0968B1FBF2F101EB81014900B9
:1038B00000E0491E00910029FBD180F83C50002017
:1038C000F8BD000012000010002001404800002058
:1038D00040420F0000680349884201D1FFF702BA55
:1038E00070470000002001407047704770B50446E3
:1038F000006801684268C1F34001C2F3401251B34D
:103900004AB3216CC90603D4216C41F400712164CF
:10391000816811F0405F17D1A169A9B9C16A11F49A
:10392000700F02D0816849050ED4416821F0200152
:103930004160206C20F480702064206CC00403D4AB
:10394000206C40F0010020642046FFF7C3FF21688F
:103950006FF012000860206801684268C1F38001BE
:10396000C2F3C01289B382B3216CC90603D4216C9F
:1039700041F400512164816811F4401F1ED1816B14
:1039800011F4401F02D08168490517D441684905E8
:1039900014D4816811F0405F10D1A16971B94168F8
:1039A00021F080014160206C20F480502064206C64
:1039B000C00503D4206C40F0010020642046FFF7CE
:1039C000D5FE21686FF00C0008602068016843682C
:1039D00011F0010FC3F380110ED069B10068C00768
:1039E0000AD0206C40F480302064204600F046F875
:1039F00021686FF001000860206801684268C1F327
:103A000040110029C2F380620DD0002A0BD0616CF6
:103A10006FF0200541F00201616405602046FFF768
:103A200064FF2068056070BD70B504004FF00005AC
:103A300003D0206C002610B107E0012070BD2046A5
:103A400000F01EF8666484F83C60206CC00610D458
:103A5000206C20F4885040F0020020642046FDF7DE
:103A600099F86664206C20F0020040F001002064A8
:103A700000E0012584F83C60284670BD70470000D6
:103A8000F0B587B0064614216846FCF71BFC3049A8
:103A90003068884259D12F48016841F48071016033
:103AA00000682C4900F4807005901439086840F0D3
:103AB00004000860086800F004000590086840F001
:103AC00001000860086800F001000590086840F0F7
:103AD00002000860086803240025694600F002001F
:103AE000059013208DE831001B4800F053FEF020B4
:103AF00069468DE83100194800F04CFE0094694693
:103B00001748CDE9014500F045FE164C1648011551
:103B1000C4E900058715A5600B01C4E903518214AF
:103B20002046C4E907756562C4E9052300F070FD0D
:103B300008B1FDF7D1FDB46300220421A663122071
:103B400001F096F9122001F085F907B0F0BD0000F0
:103B500000200140443802400008024000000240BA
:103B600000040240B412002010640240F8B50D4673
:103B700004460021009190F83C00012807D0012064
:103B800084F83C0020688368DB0702D011E0022043
:103B9000F8BD8668364B46F00106866035480068F9
:103BA000B0FBF3F000EB400000E0401E0090002866
:103BB000FBD120688368DB0758D0236C40F2016694
:103BC000B34343F4807323644068400505D5206CFB
:103BD00020F4005040F480502064206CC00404D5D0
:103BE000606C20F00600606400E061646FF0220009
:103BF00084F83C10A36B2049D963A36B1F49196457
:103C0000A36B1F49D964216808602068416841F0AE
:103C1000806141602068816841F480718160216821
:103C20001346A06B2A464C3100F064FD1549D1F8CB
:103C30000403C006206811D0884207D1826812F0C0
:103C4000405F03D1826842F080428260D1F8040371
:103C5000C0060BD40C492068884207D1816811F056
:103C6000405F03D1816841F0804181600020F8BD50
:103C700040420F0048000020F90A00087D0B0008B0
:103C8000670B0008002001400022014090F820202E
:103C9000012A07D0022A05D0416A41F480214162FD
:103CA00001207047006842690A4342610020704762
:103CB000F0B590F820500468A468012D05D0022DBD
:103CC00003D0416A41F480215AE014F0406F01D1E1
:103CD000E50052D5C4F30164022C03D9416A41F4D2
:103CE00000014DE001264FF4C075A6401E608B68B0
:103CF000ABB1CE684F68D0F800C0334305EB041673
:103D000043EAC7034CF8063007684FF4C27303EB6D
:103D100004130E69FE50097D012909D00DE00E88BB
:103D2000CB68076843EA465305EB0416BB51EBE743
:103D30000168CE5846F48076CE50D2F805304FF464
:103D4000C67C11790CEB041C06684FF4C47741EA79
:103D5000032107EB041346F80C10167805EB041149
:103D6000D2F80120076846EA0222FA500068425859
:103D700042F0010242500020F0BD416A41F40011BE
:103D800041620120F0BD000030B590F8203002689B
:103D9000012B07D0022B05D0416A41F480214162FA
:103DA000012030BD3E4C3F48A24200D00246D2F82E
:103DB0000032824243F00103C2F800320CD1D2F843
:103DC000000220F47C50C2F80002D2F800024B6AD4
:103DD00040EA0320C2F800020C7D0120D2F81C3218
:103DE00004F01F04A0408343C2F81C32CB69B3B96E
:103DF000D2F80C328343C2F80C328C894B684D697F
:103E000064F31F4302EBC504C4F840320C890B680D
:103E10004D6964F31F4302EBC504C4F84432CB6917
:103E2000012B16D1D2F80C320343C2F80C320C88A5
:103E30004B684D6964F31F4302EBC504C4F840327C
:103E40000C89CB684D6964F31F4302EBC504C4F8C9
:103E500044328B69002BD2F804320FD053EA0003AE
:103E6000C2F804320B69002BD2F8143208D0034395
:103E7000C2F81432096A012904D008E08343EFE74D
:103E80008343F5E7D2F81C120143C2F81C12D2F8A2
:103E9000000220F00100C2F80002002030BD000046
:103EA000003400400064004070470000F0B590F816
:103EB0002040012C05D0022C03D0416A41F480211E
:103EC00066E0046800295ED02469A4075DD0056817
:103ED0004FF4D87404EB01142D5915F004059560C6
:103EE00005682D5957D0ED08C2F8045007684FF403
:103EF000DA754FF4DC7C4FF4DE763C59002905EB93
:103F00000115C4F34007D7600CEB011406EB011157
:103F10000668765906F00F06166106687659C6F3EC
:103F200007269661066875594FEA1545556102687E
:103F300012591A70026812594FEA12225A70026816
:103F400012594FEA12429A70026812594FEA1262ED
:103F5000DA70026852581A71026852584FEA1222F7
:103F60005A71026852584FEA12429A7102685158C7
:103F70004FEA1161D971006810D0016941F0200148
:103F800001610020F0BDE4689FE7416A41F400113F
:103F900041620120F0BD6D0D1560A7E7C16841F0D9
:103FA0002001C160EDE72DE9F05F054600680024BF
:103FB0004669D0F804908768D0F80CB0D0F810A00B
:103FC000F207D0F8188048D0F90714D00121816099
:103FD000BA0703D5284600F032FA0CE0780702D57C
:103FE0004FF4006407E0380702D54FF4805402E034
:103FF000284600F023FAF80516D52868BA054FF4CC
:104000008071816003D5284600F01BFA0CE078052A
:1040100002D544F4005407E0380502D544F4804446
:1040200002E0284600F00CFAF80316D52868BA0317
:104030004FF48031816003D5284600F004FA0CE08B
:10404000780302D544F4004407E0380302D544F471
:10405000803402E0284600F0F5F9300707D55FEA22
:10406000CB6004D52968102044F40074C860700740
:104070004FF0080707D55FEA0B7004D52868C760C2
:10408000284600F075F9B00706D52868C068800793
:1040900002D0284600F06EF9700607D55FEACA60C4
:1040A00004D52968102044F480640861B00607D55F
:1040B0005FEA0A7004D528680761284600F08EF987
:1040C000F00606D528680069800702D0284600F06F
:1040D00086F9B00308D55FEAC96005D529681020C4
:1040E0004860284600F07CF9F00307D55FEA0970C4
:1040F00004D528684760284600F0A6F9300446D564
:104100005FEA497040D5F00504D55FEAC87001D078
:1041100044F00104B00504D55FEA887001D544F08D
:104120000204700504D55FEA487001D544F0040428
:10413000300529D518F0700F26D008F070004028FF
:1041400015D006DC102809D020280AD0302816D136
:104150000AE050280ED0602811D10EE044F0080487
:104160000DE044F010040AE044F0200407E044F0BD
:10417000400404E044F0800401E044F480742868C2
:10418000816921F070018161296804204860002C58
:1041900005D0686A204368622846FFF785FEBDE8BF
:1041A000F09F70B5040003D094F8200010B104E033
:1041B000012070BD204600F081F82068016821F0E0
:1041C0000201016000F0E4FB0526054604E000F072
:1041D000DFFB401B0A2811D8206840688007F6D40E
:1041E0002068016841F00101016000F0D1FB054643
:1041F0000BE000F0CDFB401B0A2806D9606A40F4B2
:104200000030606284F82060D2E720684068C00710
:10421000EFD0207E0128206801683DD021F0800188
:104220000160607E01282068016838D021F04001DB
:104230000160A07E01282068016833D021F02001B0
:104240000160E07E0128206801682ED041F0100155
:104250000160207F01282068016829D021F0080131
:104260000160607F01282068016824D021F00401EA
:104270000160D4E90110D4E903326569491E18438D
:1042800023682A43104300220843D8610121626257
:1042900084F82010104670BD41F08001C0E741F065
:1042A0004001C5E741F02001CAE721F01001CFE746
:1042B00041F00801D4E741F00401D9E710B586B018
:1042C000044614216846FBF7FDFF26492068884212
:1042D00046D12548016841F400510160016801F4AC
:1042E00000510591016841F080610160016801F0B1
:1042F00080610591016841F000710160006800F083
:104300000070059018481038016841F00201016002
:1043100000680221002200F0020005900323092416
:104320004FF440508DE81F001048694600F032FA03
:10433000002202213F2000F09BFD3F2000F08AFD7B
:1043400000220121402000F093FD402000F082FD7A
:1043500000220121412000F08BFD412000F07AFD78
:1043600006B010BD00680040403802400004024022
:104370007047000010B572B6144B0021144A02F1C8
:104380003400FFF793FD124812490088020A0A76AA
:104390000E4A4876022014180B18401C14F8024CE0
:1043A0000A281C76F7DB91ED040BB0EE001BB4EE8F
:1043B000410BF1EE10FA01D1FEF728F906484FF44F
:1043C000806100F0D8FA62B610BD0000080000203D
:1043D0003C13002048100020000C0240704770473A
:1043E0007047000070B5044690F82000012804D002
:1043F000606A40F40020606218E0022084F8200027
:104400002068016821F00101016000F0C1FA054651
:104410000EE000BF00F0BCFA401B0A2808D9616A10
:10442000052041F40031616284F82000012070BD54
:1044300020684068C007EDD1606270BD704770476A
:104440007047704770477047704790F835100229E1
:1044500003D08021416501207047052180F8351087
:104460000068016821F00101016000207047000030
:104470002DE9F84304464FF00009644B0820CDF8BD
:1044800000904FF41652A56D94F85C101B682E68CE
:10449000B3FBF2F700FA01F131420FD021680A684C
:1044A00052070BD50A6822F004020A6094F85C10E7
:1044B0008840A860606D40F00100606594F85C1071
:1044C0004FF0010808FA01F0304208D0216849692C
:1044D000090604D5A860606D40F00200606594F89C
:1044E0005C1004208840304208D0216809688907A0
:1044F00004D5A860606D40F00400606594F85C101D
:1045000010208840304218D021680968090714D566
:10451000A86020680168490304D50068000308D535
:10452000A16C07E00168C90503D4016821F0080106
:104530000160216C09B12046884794F85C10202066
:104540008840304231D021680968C9062DD5A8605D
:1045500094F8350005282068016806D0490347D53E
:10456000006800031DD4616C1CE021F0160101609D
:104570002068416921F080014161206C08B9A06C7C
:1045800020B12068016821F00801016094F85C30D6
:104590003F229A40AA6084F8349084F83580216DD7
:1045A0001FE0E16B09B120468847606D00282BD0E1
:1045B000606DC00714D0052084F8350020680168BC
:1045C00021F0010101600098401C0090B84203D81E
:1045D00020680068C007F6D184F8349084F83580EC
:1045E000E16C002910D001B02046BDE8F043084737
:1045F0000168C905D5D4036823F01003036084F86B
:10460000349084F83580CCE7BDE8F883480000207A
:104610002DE9F047044600F0BBF9054664B14FF0C0
:10462000000984F83490022184F83510206801686C
:1046300021F0010101600EE00120BDE8F08700BF1C
:1046400000F0A6F9401B052805D92021616503204B
:1046500084F83500F1E720680068C007F0D1D4E99C
:104660000020D4E90251D4E9043C284304F11805A0
:1046700019430843116895E8E00140EA0C001C4B1F
:104680002843194040EA060040EA0700B8F1040F49
:1046900040EA010003D1D4E90B1319430843106029
:1046A00020680126656A4069042D20F0070045EA6C
:1046B00000050CD1D4E90A01054341B12046FCF7BD
:1046C0001BFF20B14020606584F83560B4E72068A6
:1046D00045612046FCF7FCFE94F85C303F229A408E
:1046E0008260C4F8549084F835600020A5E700008B
:1046F0003F8010E02DE9F041044690F83400002599
:104700000128A66D0ED094F835C00127002084F84A
:104710003470BCF1010F07D0022584F8340028461C
:10472000BDE8F0810220FBE7022784F83570606560
:104730002046FCF70BFF94F85C103F208840B060E7
:104740002068016841F0160101602068416941F06C
:1047500080014161206C20B12068016841F00801AE
:1047600001602068016841F001010160D7E70000A5
:1047700070B5044600F00CF90546601C02D00448F0
:104780000078044400F004F9401BA042FAD370BD45
:104790003C0000202DE9F84FDFF89CE100224FF0AB
:1047A00001084FF0030B4FF00F0A00BF0B6808FA27
:1047B00002F42340A34271D14D68022D01D0122D85
:1047C0000FD1D5080E69570700EB8505A9462D6A5C
:1047D000FF0E0AFA07FCBE4025EA0C052E43C9F875
:1047E00020600F79550006680BFA05FC07F00307F7
:1047F00026EA0C06AF40374307604E68012E05D00D
:10480000022E03D0112E01D0122E0ED18668CF6851
:1048100026EA0C06AF403743876046680F79A64307
:10482000C7F30017974037434760C4688E6824EA8F
:104830000C04AE402643C6604C68E40075D53F4C7E
:10484000256845F480452560246822F00306950715
:1048500004F4804400943A4C2D0F2644D6F80848BE
:10486000DFF8E0C00AFA05F7604524EA070401D141
:1048700000272EE0344FB84201D1012729E0334F01
:10488000B84201D1022724E0314FB84201D10327B9
:104890001FE0304FB84202D104271AE045E02E4F06
:1048A000B84201D1052714E02C4FB84201D10627A8
:1048B0000FE02B4FB84201D107270AE0294FB84239
:1048C00001D1082705E0284FB84201D1092700E0AF
:1048D0000A27AF4027437546C6F808784E68DEF8C9
:1048E0000040F60324EA030400D51C43124E2C605A
:1048F000361D4D683468AD0324EA030400D51C431B
:104900000D4F346008374D683C68ED0224EA03041B
:1049100000D51C43084D3C600C354E682C68B6022F
:1049200024EA030400D51C432C60521C102AFFF417
:104930003DAFBDE8F88F0000003C01404438024024
:104940000030014000000240000402400008024024
:10495000000C024000100240001402400018024007
:10496000001C024000200240002402400069084070
:1049700000D001207047426931EA020200D10904E7
:10498000816170470AB1816170470904FBE700004B
:1049900001488068704700003C00002030B590F866
:1049A0004120202A24D190F84020012A20D0012340
:1049B00080F84030242280F841202023002402681F
:1049C000156825F0010515600268156825F4805505
:1049D0001560026815680D43156001680A6842F0A9
:1049E00001020A6080F8413080F84040002030BD6C
:1049F000022030BD30B590F84120202A22D190F815
:104A00004020012A1ED0012380F84030242280F863
:104A10004120202400250268136823F0010313605D
:104A20000268136823F4706343EA0121116001688E
:104A30000A6842F001020A6080F8414080F8405064
:104A4000002030BD022030BD704770470268436BC4
:104A500091691268002B00D018477047704700001A
:104A600070B5040004D094F84100002510B106E0B0
:104A7000012070BD204684F8405000F063F92420E6
:104A800084F841002068016821F001010160D4E947
:104A9000001020F0706008612068816821F40041F6
:104AA0008160E06821680128A06806D040F40440D5
:104AB0008860E068022803D006E040F40040F7E791
:104AC00021684FF40060486020212068114A436843
:104AD000134343602068C26822F40042C26054F865
:104AE000106B0DCC104340EA0320F06054F81C3CDE
:104AF000D4E900021043186054F81C0D026842F01B
:104B000001020260656484F84110256384F8425014
:104B1000002070BD008000027047704770477047EA
:104B2000704700002DE9FF4F83B0044690F8410024
:104B30009A469346DDE91087DDF84890202874D125
:104B40005FEA080014D09FB194F8400001286CD0AF
:104B5000012084F84000FFF71BFF012206461923BD
:104B60000090D103204602F069FA002871D103E0D9
:104B70004FF4007060646CE00025C4F824802221AA
:104B800084F84110402084F84200656467855346EC
:104B900065635A4604992046CDE9009602F0D2F8A2
:104BA00010B184F8405054E0618DFF2734484FF035
:104BB0008078FF294FF0007A04D927853A4643468A
:104BC000009005E0618D53462185009094F82820DF
:104BD0002046049902F01CFA00224B46042120468C
:104BE000009602F02BFAA0BB2068616A406A087048
:104BF000606A401C6062208D401E81B22185608DFC
:104C0000401E6085608DD8B1D1B900224B4680210D
:104C10002046009602F012FAD8B9608DFF2805D917
:104C200027853A464346009506E026E0608D5346C8
:104C30002085009594F828202046049902F0E8F990
:104C4000608D0028C8D132464946204602F023FA3A
:104C500018B1012007B0BDE8F08F21682020094A73
:104C6000C86121684B6813404B6084F8410084F8A8
:104C70004250002084F84050ECE70220EAE70000B0
:104C80000024008000E800FE2DE9FC47044690F86F
:104C9000410098469146DDE90A758A4620284BD1A5
:104CA0001FB315B320688069C043000444D594F84D
:104CB0004000012840D0012084F840002434FFF750
:104CC00067FE00262122627740211C4A2760A177D7
:104CD0002662E580A260E28819492161243CFF2A0E
:104CE00007D9FF214FF0807506E04FF40070606433
:104CF0000FE0618D4FF0007521851921CDE900107D
:104D000043464A465146204602F04EF820B184F808
:104D100040600120BDE8FC8700962B4694F82820CF
:104D20005146204602F074F90121204684F8406083
:104D300001F05AFC0020EDE70220EBE70000FFFF46
:104D40001D6C000810B586B0044614216846FBF7B8
:104D5000B9FA16492068884225D11548016841F002
:104D60000201016000681221012200F0020005909A
:104D7000C020032304248DE81F000E486946FFF776
:104D800009FD0B481030016841F400110160006812
:104D90000022052100F4001005901F2000F068F8A3
:104DA0001F2000F057F806B010BD0000005400406E
:104DB0003038024000040240704770470248816862
:104DC00002781144816070473C000020032010B538
:104DD00000F06EF8002000F005F800F023F8002045
:104DE00010BD000070B50D4D04464FF47A700C4AAA
:104DF00029781268B0FBF1F0B2FBF0F000F0C2FDD0
:104E000048B9102C07D200222146501E00F030F87D
:104E100000206C6070BD012070BD00003C000020CF
:104E2000480000200A4808B5016841F0805101603F
:104E3000006800F0805000900548001D016841F4B2
:104E400080410160006800F48040009008BD0000CF
:104E500040380240002809DB410900F01F028900A8
:104E6000012001F1E0219040C1F8000170470000ED
:104E70000E4BF0B41B680D46C3F30223C3F10706C3
:104E8000042E00D90426191D072901D2002300E0B1
:104E9000DB1E012404FA06F19C40491E2940641ED1
:104EA000994014402143F0BC05F01AB80CED00E025
:104EB000064900F0070210B54FF6FF040868044BDE
:104EC000204040EA02201843086010BD0CED00E0CD
:104ED0000000FA051848F8B5016841F080510160FA
:104EE0000068164C00F080500090206840F480303C
:104EF0002060FFF74DFD4FF47A76054605E000BFD0
:104F0000FFF746FD401BB0420FD86068C003F7D5DD
:104F1000206840F400302060FFF73AFD054606E0C7
:104F2000FFF736FD401BB04201D90320F8BD606891
:104F30008003F5D50020F8BD4038024000700040E5
:104F40002DE9F84F04460078DFF824944FF000066E
:104F50003746C0070ED0D9F8001021F40001C9F877
:104F60000010D9F80010626B1143C9F80010606B93
:104F700000B90126FE4D2068843500030ED5E16B93
:104F8000286820F4401008432860E06BB0F5801FCB
:104F900001D010B102E0012600E0012720684FF4A3
:104FA000800BC0020CD5216C286820F44000084317
:104FB0002860206C584501D1012601E000B9012785
:104FC0002068C10100D50126800666D5E848383042
:104FD000016841F0805101600068DFF898A300F09B
:104FE00080500090DAF8001041F48071CAF8001087
:104FF000FFF7CEFC804605E0FFF7CAFCA0EB0800F7
:1050000064287DD8DAF80000C005F5D5DFF86083A4
:1050100008F16808D8F8000010F440702AD0218EFA
:1050200001F44071814225D0D8F80010D8F8002052
:1050300021F4407142F48032C8F80020D8F80020F2
:1050400022F48032C8F80020C8F80010D8F8000018
:10505000C0070FD0FFF79CFC824607E0FFF798FCE3
:10506000A0EB0A0141F288308142CAD8D8F800008A
:105070008007F3D5206BC0F3012103297ED0D9F836
:10508000001021F4F811C9F80010228ED8F8001091
:10509000C2F30B021143C8F800102078C00607D5F0
:1050A000286820F0807028602868A16B0843286079
:1050B0002188AF488830490405D5626E016821F423
:1050C0004031114301602188090405D5A26E0168B1
:1050D00021F44021114301602168C90305D5E26E26
:1050E000016821F44011114301602168890305D54D
:1050F000226F016821F4400111430160217800E032
:1051000034E1490605D5626C016821F003011143C1
:1051100001602178090605D5A26C016821F00C0117
:10512000114301602188C90505D5E26C016821F0B1
:105130003001114301602188890505D5226D016880
:1051400021F0C001114301602188490505D5626D38
:10515000016821F44071114301602188090505D5DA
:10516000A26D016821F44061114301602188C904E6
:1051700007D5E26D016821F4405100E05FE0114382
:1051800001602188890405D5226E016821F440411F
:10519000114301602168490205D5A26F016821F021
:1051A00080611143016021684FF0006A890209D5CE
:1051B000E26F016821F0006111430160E16F514528
:1051C00000D1012721680A0700D50127490305D529
:1051D000626F016821F0407111430160216809028A
:1051E00006D5D4F88020016821F080511143016078
:1051F0002168490106D5D4F88420016821F00051C6
:10520000114301602068000106D5D4F88810286891
:1052100020F00070084328602068C00006D5D4F84C
:105220008C10286820F0806008432860DFF84891DF
:10523000012E0ED02068B0F1007F0AD08FE04F4AD7
:10524000D9F80030104023F4F8120243C9F80020C6
:105250001BE7D9F800004E4620F08060C9F8000036
:10526000FFF796FB804605E0FFF792FBA0EB0800F6
:1052700064287BD830680001F6D421783C487C3023
:10528000C90712D0616B81B9237A62680168D0F8CE
:1052900000C09201C1F3014142EA0142CCF3036133
:1052A00042EA016141EA0371016021680A0303D502
:1052B000E26BB2F5801F04D0C9021AD5216C5945A2
:1052C00017D16368016894F80CC002689B01C1F3B0
:1052D000014143EA0141C2F3027241EA0C6141EA31
:1052E000027101602968626A21F01F01521E114398
:1052F00029602168C90110D5238A62680168D0F845
:1053000000C09201C1F3036142EA034242EA016232
:10531000CCF3027142EA01710160216889010CD568
:105320006168228A237B94F808C0890141EA02411E
:1053300041EA036141EA0C7101603168B04641F015
:1053400080613160FFF724FB064604E0FFF720FB95
:10535000801B64280AD8D8F800000001F6D5E7B30E
:10536000D9F800004E4620F0805009E07BE00000B4
:10537000083802400070004000380240FFFCFF0F78
:10538000C9F80000FFF704FB074604E0FFF700FB45
:10539000C01B642867D83068C0438000F6D52168F8
:1053A00035480A0301D5E26B1AB1C9021DD5216C3B
:1053B000D9B963690168277E02689B01C1F3014185
:1053C00043EA0143C2F3027143EA076242EA017110
:1053D000016029686FF0FF0300E04BE0A26A21F44E
:1053E000F85103EB0222114329602168890212D58A
:1053F000E16F51450FD1238C626901680768920102
:10540000C1F3036142EA034242EA0162C7F3027157
:1054100042EA017101602178090716D561690268C5
:10542000D0F800C08B01277FC2F30362CCF30141A7
:1054300043EA014141EA026141EA077101602868DB
:10544000E16A20F4403008432860306840F0805022
:105450003060FFF79DFA044608E000BFFFF798FAB6
:10546000001B642802D90320BDE8F88F3068C043D0
:105470008000F3D40020F7E7883802402DE9F04798
:1054800005000F4663D0444E306800F00F00B8426C
:1054900009D2306820F00F0038433060306800F0E7
:1054A0000F00B84253D128683C4C810712D5400701
:1054B00003D5206840F4E05020602878000703D529
:1054C000206840F460402060A968206820F0F00067
:1054D000084320602878C0072AD030496868083916
:1054E000012810D00968022810D0890700292EDA77
:1054F000216821F0030101432160FFF749FA80464A
:1055000041F288390DE009688903EFE78901EDE789
:10551000FFF73EFAA0EB0801494502D90320BDE898
:10552000F0876868216801F00C01B1EB800FEFD1C2
:10553000306800F00F00B8420BD9306820F00F003F
:1055400038433060306800F00F00B84201D00120CD
:10555000E5E72878400705D5E968206820F4E050A1
:10556000084320602878000706D52869216821F4BF
:10557000604141EAC000206000F036F82168084A26
:10558000C1F30311515CC840064908600020FFF7D1
:1055900029FC0020C3E70000003C0240083802401C
:1055A000F0AA00084800002004490548096800687E
:1055B000044AC1F38221515CC84070470838024058
:1055C0004800002000AB000804490548096800684D
:1055D000044AC1F34231515CC84070470838024068
:1055E0004800002000AB0008154910B515480968AF
:1055F00011F00C0213D04110042A0FD0082A0ED14A
:105600000F4C241F2268236802F03F025B0207D57B
:105610002068C0F38810A0FB010106E0084610BD19
:105620002168C1F38811A1FB00010023FAF700FEF5
:105630002168C1F30141491C4900B0FBF1F010BDE4
:10564000083802400024F4002DE9F84F05004FF01F
:1056500000076ED02878DFF82093A9F1040AC0076C
:10566000AAF104044CD0D9F800104846C1F38101D6
:10567000012908D00068C0F3810002280AD1DAF8B5
:105680000000400206D52068800339D568680028EC
:10569000DFD035E06868B0F5803F0BD010B1B0F5D1
:1056A000A02F11D0206820F480302060206820F4E2
:1056B000802002E0206840F480302060686890B16B
:1056C000FFF766F906460AE0206840F48020206073
:1056D000F0E700BFFFF75CF9801B642872D82068F0
:1056E0008003F7D50CE0FFF753F9064605E000BF4D
:1056F000FFF74EF9801B6428F0D820688003F7D4A8
:105700002878800742D5D9F80010484611F00C0FD0
:1057100008D00068C0F3810002280BD1DAF800003D
:10572000400207D42068800718D5E868012800D116
:1057300014E01EE1E8680028206817D040F001005E
:105740002060FFF725F9064605E000BFFFF720F9C6
:10575000801B0228C2D820688007F7D528692168F5
:1057600021F0F80141EAC00020600FE020F00100C4
:105770002060FFF70DF9064605E000BFFFF708F9C6
:10578000801B02281ED820688007F7D428780007DD
:1057900029D5794869696C3000298046016812D0A2
:1057A00041F001010160FFF7F3F8064605E000BF94
:1057B000FFF7EEF8801B022804D8D8F80000800715
:1057C000F6D510E089E021F001010160FFF7E0F873
:1057D000064604E0FFF7DCF8801B02287DD8D8F8E5
:1057E00000008007F6D4287840076BD5DFF8888161
:1057F00008F13808D8F80000C0000BD4D8F8001021
:1058000041F08051C8F80010D8F80000012700F0DE
:105810008050009059480168C90512D40168834638
:1058200041F480710160FFF7B3F8064605E000BF60
:10583000FFF7AEF8801B64284FD8DBF80000C005E6
:10584000F6D54D4EA868683601280AD008B105285B
:1058500011D0306820F001003060306820F0040082
:1058600002E0306840F001003060A868A0B1FFF7A6
:105870008FF883460CE0306840F004003060F0E7B9
:10588000FFF786F8A0EB0B0141F28830814268D81F
:1058900030688007F4D50EE0FFF77AF8834607E01A
:1058A000FFF776F8A0EB0B0141F28830814258D81F
:1058B00030688007F4D42FB1D8F8001021F080515F
:1058C000C8F80010A869E0B3D9F80010C1F381014D
:1058D00002294ED00228206800E042E020F08070CB
:1058E000206003D0FFF754F805463DE0FFF750F87D
:1058F000064604E0FFF74CF8801B022831D82068E8
:105900008001F7D4D5E90921DFF874C0D5E907068D
:1059100095F830304F0895F82C1030430CEB0745C4
:1059200045EA8212104340EA016040EA0370CAF877
:105930000000206840F080702060FFF729F80546DD
:1059400005E014E0FFF724F8401B022809D820687E
:105950008001F7D50BE000BFFFF71AF8401B0228C3
:1059600002D90320BDE8F88F20688001F4D400201C
:10597000F8E70120F6E70000083802400070004018
:105980000000FFFF401EB0F1807F10B501D3012061
:1059900010BD4FF0E02460610F21601704F0A0FA01
:1059A0000020A0610721216110BD7047704770473A
:1059B0002DE9F04390F83C20012A42D0012280F8E2
:1059C0003C2051F80C4BDFF880804FF0000991E843
:1059D000680051E9022723F44073B1F80CC03B433F
:1059E000CF6923F480631343026823F400632343E5
:1059F00023F4805343EA050323F4005343EA0603E8
:105A000023F4804343EA07030C3923F4702342450F
:105A100043EA0C4302D00D4CA2420CD18D8C23F4EE
:105A20007006D1E9073446EA055121F08071194327
:105A300021F000732343536480F83C900020BDE8BC
:105A4000F0830220FBE70000000001400004014059
:105A500070B590F83C20012A24D0134C012580F821
:105A60003C50022280F83D2002685368A2429668AA
:105A700002D00E4CA24203D14C6823F4700323439E
:105A80000C6823F0700389681C435460002326F0DF
:105A9000800602683143916080F83D5080F83C30C8
:105AA000184670BD022070BD000001400004014096
:105AB00010B5040003D094F83D0010B107E00120B8
:105AC00010BD002084F83C00204600F00DF80220B4
:105AD00084F83D002068211D03F0A6FD012084F814
