:020000040800F2
:10000000F01900200D0200080D9C00089D640008F6
:10001000A59B0008191100085BA60008000000005D
:10002000000000000000000000000000759C0008B7
:1000300075150008000000005D9C0008A19C0008E8
:1000400027020008270200082702000827020008EC
:1000500027020008270200082702000827020008DC
:1000600027020008270200082702000827020008CC
:10007000270200082702000827020008B914000818
:100080002702000827020008890B00082702000841
:10009000270200082702000827020008270200089C
:1000A000270200082702000827020008270200088C
:1000B000270200082702000827020008A1640008A0
:1000C000270200082702000827020008270200086C
:1000D000270200082702000827020008270200085C
:1000E000270200082702000827020008270200084C
:1000F000270200082702000827020008270200083C
:10010000270200082702000827020008270200082B
:10011000F9A0000827020008999D0008270200089E
:10012000C51400082702000827020008270200085B
:1001300027020008270200082702000849110008CA
:10014000311100083D1100082702000827020008AD
:1001500027020008270200082702000827020008DB
:1001600027020008270200082702000827020008CB
:1001700027020008270200082702000800000000EC
:1001800027020008270200082702000827020008AB
:10019000270200082702000827020008270200089B
:1001A000270200082702000827020008270200088B
:1001B000270200082702000827020008270200087B
:1001C000270200082702000800000000270200089C
:1001D000270200082702000827020008270200085B
:1001E000270200082702000827020008270200084B
:1001F0002702000827020008DFF80CD000F09CF866
:100200000048004721AB0008F0190020064880474D
:1002100006480047FEE7FEE7FEE7FEE7FEE7FEE7EB
:10022000FEE7FEE7FEE7FEE7459D0008F90100084E
:100230002DE9F05F0546002092469B46884606461B
:10024000814640241BE0284641464746224600F0AE
:1002500062F853465A46C01A914110D311461846C7
:10026000224600F049F82D1A67EB01084F46224656
:100270000120002100F040F817EB00094E41201E3C
:10028000A4F10104DFDC484631462A464346BDE876
:10029000F09F40EA01039B0703D009E008C9121F41
:1002A00008C0042AFAD203E011F8013B00F8013B30
:1002B000521EF9D27047D2B201E000F8012B491E5C
:1002C000FBD270470022F6E710B513460A460446F3
:1002D0001946FFF7F0FF204610BD30B50546002057
:1002E000034600E05B1C934205D2EC5CC85C201A1C
:1002F00001D1002CF6D130BD202A04DB203A00FACF
:1003000002F1002070479140C2F1200320FA03F36C
:10031000194390407047202A04DB203A21FA02F06A
:100320000021704721FA02F3D040C2F1200291402F
:100330000843194670470000064C074D06E0E06888
:1003400040F0010394E8070098471034AC42F6D31C
:10035000FFF756FF70B2000890B200082DE9F05F79
:10036000DFF82484022601254FF0050B4FF0000929
:100370002DED028BB8F8840DB8F89A1D884279D01B
:10038000B8F8860DB8F89C1D884273D001F07EF94C
:1003900000204C46A8F8389E00F062FFB8F8860DA1
:1003A000F0B1032827D001283BD088F88E4F0228CF
:1003B00088F88D4F88F88C4F46D088F889BFB8F8F8
:1003C000841DA8F89A1DA8F89C0D0AF0E7F90AF018
:1003D000C9F900BF88F88B5FBDEC028BBDE8F09FC8
:1003E00088F88E4F88F88D4F88F88C4F88F889BF31
:1003F0000AF032FAEEE788F88E4F88F88D4F88F8C9
:100400008C4F88F889BF0AF027FA98F88B0F0228DA
:10041000E2D088F88B6FBDEC028BBDE8F05F01F095
:1004200025B988F88E4F88F88D4F88F8895FB8F81D
:10043000800DA8F87C0EB8F8840DA8F89A0DA8F8DD
:100440009C5D88F88C6F11E088F8896FB8F8880D8A
:10045000A8F8800EB8F8840DA8F89A0DA8F89C6D3D
:1004600098F8920F0128B7D088F8925FA8F8384E14
:1004700018E0FFE7C44C192798F88C0F012894F86E
:100480008ECFB4F87C3EB4F8822DB4F8801D04F50C
:1004900000640FD002289FD1994201D0012A7BD05D
:1004A000A8F8389E0AF07AF9BDEC028BBDE8F05F3F
:1004B0000AF058B998F88D0F012808D002288BD17E
:1004C00088F88D9F88F88C6FA8F8389EEAE79942E3
:1004D00000D07AB1C2469FEDAD8BAB48BCF1060FA0
:1004E000B0F8840EBFF478AFDFE80CF0030B93E8AC
:1004F000FAF971E7A8F87C1E88F88E9F88F88D6F4E
:10050000E9E001287FD89942D04675D0022A73D1FC
:100510000B200AF043FAB8F8901D88426CDCB8F85A
:10052000801D0020A8F87C1E88F88EBFA8F8386EC1
:100530000AF034FA00EE100AB8EEC00B84ED160B88
:10054000B4EEC80BF1EE10FA0CD2B5EEC00BF1EE22
:1005500010FA05DBBCEEC00B10EE100AC0B202E0D0
:10056000002000E0FF2000F07BFE02200AF016FAD7
:1005700090FBF7F0C8F84C0C00200AF00FFA054683
:1005800001200AF00BFA002D014606DB6FF0004057
:100590002A1A914209DB07E0D3E005F100408142CD
:1005A00002DD4FF0004000E0681A6FF0004280FB6F
:1005B00007500021521B814102DA6FF0004507E02D
:1005C0004FF00041691A70F1FF3001DA4FF0004539
:1005D00002200AF0E3F900EE100AB8EEC01B00EEAC
:1005E000105AB8EEC00B80EE012B84ED182BA8F842
:1005F000847EF1E607E0FFE788F88E5FA8F8385EB2
:10060000A8F8847E7CE0401E00D50020AAF8840E65
:1006100079E0012855464BD8D5F84C0C002806DD6A
:1006200001200AF0BBF995F8701F884211DB002009
:1006300000F016FE01F02AF8032085F88E0FA5F8C9
:10064000847EB5F8980DFF2800D9FF2085F8C10FEA
:1006500047E085F88E6F94ED160B94ED181B30EE85
:10066000410B84ED160BB4EEC80BF1EE10FA0DD26F
:10067000B5EEC00BF1EE10FA06DB00BFBCEEC00B0E
:1006800010EE100AC0B202E0002000E0FF2000F0EF
:10069000E7FDD5F84C0C4FF00041884202DCC5F86C
:1006A0004C1C02E0401EC5F84C0CA5F8847E93E675
:1006B000401E00D50020AAF8840E8DE6BAF8981DD9
:1006C0005046DAF8C82891420BDB082909D080F897
:1006D0008E9F8AF88D6F00F0D9FF00204EE018E061
:1006E00005E0BDEC028BBDE8F05F09F0D7BF012843
:1006F0005146DDD881F88E5FA1F8385EAAF8847E75
:10070000642000F0ADFDBDEC028BBDE8F05F0AF0A7
:1007100045B801285546CBD885F88E6F94ED160B59
:1007200094ED181B30EE410B84ED160BB4EEC80BA4
:10073000F1EE10FAAAD2B5EEC00BF1EE10FAA3DB7F
:100740009CE7A8F87C1EBCF1040F9FED120B88F803
:100750008C5FA8F8849E84ED160B84ED180BC8F806
:100760004C9C88F88D5FA2D0042088F88E0FA8F8E2
:10077000385EA8F8847E00F079FF6420BDEC028B1F
:10078000BDE8F05F00F06CBD7800002000000000C4
:100790000000704000000000000000002DE9FC5F38
:1007A000CF4C012602270025B4F8840DB4F89A1D19
:1007B00088427BD0B4F8860DB4F89C1D884275D071
:1007C00000F064FF0020A4F8385E00F049FDB4F8A2
:1007D000860D4FF0050828B1032819D0012830D024
:1007E000022845D00AF04AF884F8898FB4F8840DBD
:1007F000A4F89A0DB4F8860DA4F89C0D04F6845460
:1008000009F0CCFF09F0AEFF84F80762BDE8FC9F59
:100810000AF034F884F8898FB4F8840DA4F89A0D9E
:10082000B4F8860DA4F89C0D09F0B8FF09F09AFF02
:1008300094F88B0F0228E9D084F88B7F00F016FF24
:10084000E4E70AF01BF884F8896FB4F8800DA4F887
:100850007C0EB4F8840DA4F89A0DB4F8860DA4F8B3
:100860009C0D94F88C0F0228D0D084F88C7F15E072
:100870000AF004F884F8897FB4F8880DA4F8800E93
:10088000B4F8840DA4F89A0DB4F8860DA4F89C0D64
:1008900094F8920F0128B9D084F8926FA4F8385ECA
:1008A00009F07CFF09F05EFFB0E7FFE794F8920FD4
:1008B0000B28ABD2DFE800F006070AFCFFF0EFEEF2
:1008C000EDECEB00A2E700F0DDFC9FE794F8930F5E
:1008D000012804D0022899D184F8935FDCE780488E
:1008E000B4F8882DB4F8803EB0F88A1D9A4200D042
:1008F00021B3DFF8EC814FF0190994F894CFDFF8B9
:10090000E4A108F1E00BBCF1010FB8F8880E1AD091
:10091000BCF1020F4FD0BCF1030F7DD0BCF1040F2E
:100920008ED1012879D800BF84F8946F3720A4F8BD
:10093000386EA4F8889E00F093FC39E0A4F8802E6D
:1009400084F8955F99E001282DD89A42ECD00229CD
:10095000EAD10B200AF02AF8B4F8901D8842E3DCB3
:10096000B4F8880D5A46A4F8800EA4F8387E84F8AE
:10097000947FA4F88A5EB4F8920DB4F8941D04F63E
:10098000885400EE900A00EE101ADAF80400694666
:10099000B8EE601BB8EE400BB7EE002B08F0E8FA9B
:1009A00084F80D7232E7401E00D50020A4F8880EAE
:1009B00009F0F4FE2AE7B4F88E0D0A2813D30020BC
:1009C00000F04EFC00F062FE84F8955F032184F88D
:1009D000941FA4F8889EB4F8980DFF2800D9FF2032
:1009E00084F8C10F5BE094F8950F012837D00228F6
:1009F000D8D194F8660FB4F88A1E8842D2D0A4F8F1
:100A00008A0E84F8956FB4F8920DB4F8941D00EE38
:100A1000100A00EE901A01E029E043E0B8EE401B16
:100A2000DAF804005A46B8EE600B9FED2F2B6946AA
:100A300008F09EFA9DED000B9FED2D1BB4EEC10B4F
:100A4000F1EE10FA11D2B5EEC00BF1EE10FA09DB9F
:100A5000BCEEC00B10EE100A84F8700FD6E684F8D6
:100A6000957FD3E684F8705FD0E6FF20F4E7B4F812
:100A7000980D032813D3082811D084F8945F84F8C4
:100A8000937F00F003FE002000F0EAFBBEE624E0C6
:100A900020E01CE018E014E010E00CE008E009F0B1
:100AA00033FEB3E6401E00D50020A4F8880EADE664
:100AB00006F0F4FAAAE606F0FFFBA7E606F000FD52
:100AC000A4E606F001FEA1E606F002FF9EE607F0AE
:100AD00001F89BE607F002F998E607F003FA95E6BD
:100AE0007800002050B10008000000000000000065
:100AF000000000000000704010B50146806B026CE1
:100B000012F0500F05D0026CD20626D502F08FFEEF
:100B100010BD016C41F40071016401688A6812F033
:100B2000405F17D18269AAB9CA6A12F4700F02D065
:100B30008A6852050ED44A6822F020024A60016C8D
:100B400021F480710164016CC90403D4016C41F08B
:100B50000101016402F060FE10BD806BC26C0846AA
:100B6000BDE81040104710B5806B40210164416C16
:100B700041F00401416402F05AFE10BD10B5806BD3
:100B800002F054FE10BD0000014802F051BE00000A
:100B9000741200204A496FF0706210B5D1F8043326
:100BA00023F44033C1F80433D1F8043344682343B9
:100BB000C1F8043301684B6823F480734B6001680B
:100BC00003694C6844EA03234B6001684B6823F0D7
:100BD00040734B60016884684B6823434B60016835
:100BE0008B6823F400638B600168C4688B682343BF
:100BF0008B60816AD14201688A6822F070628A60E3
:100C000001680DD0836A8A681A438A6001688A681D
:100C100022F040528A600168C36A8A681A4302E07F
:100C20008A6822F040528A6001688A6822F00202D3
:100C30008A60016882698B6843EA42028A6090F8A0
:100C400020100029016811D01E4A4B6843F400634C
:100C50004B6001684B6823F460434B600168446A51
:100C60004B6802EB443213434B6003E04A6822F4C2
:100C700000624A600168144BCA6A22F47002CA62B8
:100C80000168848BCA6A03EB04531A43CA62016881
:100C90008A6822F400728A60016890F830208B68BC
:100CA00043EA42228A6001688A6822F480628A608C
:100CB000016840698A6842EA8020886010BD0000AF
:100CC0000020014000E0FFFF0000F0FF2DE9F05F91
:100CD000DFF83084022601254FF0050B4FF00009A4
:100CE0002DED028BB8F8840DB8F89A1D88427CD09F
:100CF000B8F8860DB8F89C1D88427AD000F0C6FC82
:100D000000204C46A8F8389E00F0AAFAB8F8860DE4
:100D1000F0B1032827D001283BD088F8914F022852
:100D200088F8904F88F88F4F4CD088F889BFB8F872
:100D3000841DA8F89A1DA8F89C0D09F02FFD09F054
:100D400011FD00BF88F88B5FBDEC028BBDE8F09F02
:100D500088F8914F88F8904F88F88F4F88F889BFAE
:100D600009F07AFDEEE788F8914F88F8904F88F8FF
:100D70008F4F88F889BF09F06FFD98F88B0F022814
:100D8000E2D088F88B6FBDEC028BBDE8F05F00F01D
:100D90006DBC88F8914F88F8904F88F88F4F88F88D
:100DA000895FB8F8800DA8F87C0EB8F8840DA8F813
:100DB0009A0DA8F89C5D98F88C0F0228C4D088F88A
:100DC0008C6F11E088F8896FB8F8880DA8F8800E4C
:100DD000B8F8840DA8F89A0DA8F89C6D98F8920FB1
:100DE0000128B1D088F8925F00E002E0A8F8384E00
:100DF0001DE0C44C192798F88F2F012A94F8911FF1
:100E0000B4F8880DB4F880CEB4F88A3D04F50064D7
:100E100015D0022A98D198F8902F012A33D0022AAF
:100E200092D188F8909F88F88F5FA8F8389E09F0D3
:100E3000B5FCBDEC028BBDE8F05F09F093BC6045EA
:100E400001D0012B02D0A8F8389EF0E79FEDAE0B41
:100E5000A8F8800E042988F88F6FA8F8869E84ED84
:100E60001A0B84ED1C0BC8F8509C88F8905F87D053
:100E7000042088F8910FA8F8385EA8F8867E00F064
:100E8000F5FB642004E1604500D073B1C2469FEDDC
:100E9000A08B9C4A0629B2F8862EBFF455AFDFE836
:100EA00001F0030B92E7FDFC4EE7A8F8800E88F8EE
:100EB000919F88F8906FE8E0012A7ED86045D0467F
:100EC00074D0022B72D10B2009F070FDB8F8901D80
:100ED00088426BDCB8F8881D0020A8F8801E88F8CE
:100EE00091BFA8F8386E09F061FD00EE100AB8EE67
:100EF000C00B84ED1A0BB4EEC80BF1EE10FA0CD255
:100F0000B5EEC00BF1EE10FA05DBBCEEC00B10EE37
:100F1000100AC0B202E0002000E0FF2000F0A0F9BB
:100F2000022009F043FD90FBF7F0C8F8500C0020B8
:100F300009F03CFD0546012009F038FD002D014671
:100F400005DB6FF000402A1A914208DB06E005F14C
:100F50000040814202DD4FF0004000E0681A6FF06F
:100F6000004280FB07500021521B814102DA6FF0E2
:100F7000004507E04FF00041691A70F1FF3001DAD7
:100F80004FF00045022009F011FD00EE100AB8EE06
:100F9000C01B00EE105AB8EEC00B80EE012B84EDA2
:100FA0001C2BA8F8867ECFE607E0FFE788F8915F64
:100FB000A8F8385EA8F8867E82E0521E00D500228E
:100FC000AAF8862E7FE0012A55464BD8D5F8500C5A
:100FD000002806DD012009F0E9FC95F8701F884221
:100FE00011DB002000F03CF900F050FB032085F8F5
:100FF000910FA5F8867EB5F8980DFF2800D9FF203F
:1010000085F8C10F4DE085F8916F94ED1A0B94EDC2
:101010001C1B30EE410B84ED1A0BB4EEC80BF1EE45
:1010200010FA0DD2B5EEC00BF1EE10FA06DB00BFE0
:10103000BCEEC00B10EE100AC0B202E0002000E0CF
:10104000FF2000F00DF9D5F8500C4FF00041884218
:1010500002DCC5F8501C02E0401EC5F8500CA5F893
:10106000867E71E6521E00D50022AAF8862E6BE617
:10107000BAF8981D5046DAF86829914211DB082920
:101080000FD080F8919F8AF8906F00F0FFFA00204F
:10109000BDEC028BBDE8F05F01E01AE007E000F074
:1010A000DFB8BDEC028BBDE8F05F09F02DBB012A73
:1010B0005046D7D880F8915FA0F8385EAAF8867EAF
:1010C000642000F0CDF8BDEC028BBDE8F05F09F0C4
:1010D00065BB012A5546C5D885F8916F94ED1A0B6A
:1010E00094ED1C1B30EE410B84ED1A0BB4EEC80BD3
:1010F000F1EE10FAA4D2B5EEC00BF1EE10FA9DDBC2
:1011000096E70000780000200000000000000000CA
:101110000000000000007040FEE700000348016886
:10112000002008640C21014804F0FABE6C14002071
:10113000014802F0DABE000078130020014802F0F6
:10114000D4BE000078130020014802F0CEBE00009B
:10115000781300200A480E230021012230B44FF4F6
:101160007854C0E90612C0E900418160C160C0E95D
:101170000413C0E9082330BC0146024802F0A6BDB2
:101180001C1300207813002010B5FFF7E3FF084878
:10119000012102F01DFD0648022102F019FD04485C
:1011A000102102F015FDBDE81040014803F0BCB865
:1011B0007813002008B564208DF80000684600F020
:1011C00029F80248042104F0ABFE08BD2C140020CD
:1011D00090ED000B9FED0A3B9FED0C2B0A4880EE33
:1011E000031B90ED030A0168B8EE400B31EE021BC1
:1011F00021EE000BBDEEC00B10EE100A88637047A5
:101200000000000000409F402C1400209A999999FA
:101210009999A93F01789FED0D2B00EE101A9FEDD3
:101220000E1B0C48B8EE404BD0ED030A016884EE6B
:10123000023BB8EE600B33EE011B21EE000BBDEE5E
:10124000C00B10EE100A8863704700000000000019
:1012500000409F402C1400209A9999999999A93F90
:101260000649642881F8700F00D36420C0F164003F
:1012700081F87A0F0248FFF7CDBF00007800002008
:10128000F20F00202DE9F041894C0020B4F8881DB0
:10129000B4F8802E914203D0B4F88A2D012A07D0E9
:1012A000A4F8380E09F07AFABDE8F04109F05ABA0C
:1012B000A4F8801E1927B4F8261E04260125082943
:1012C0007ED2DFE801F0041E37506A879FB9022101
:1012D00084F8921FA4F8880E94F8930F012805D083
:1012E000734884F8935FE03008F078F994F8940F2D
:1012F000042866D084F8946FA4F8385EA4F8887E39
:10130000CDE0032184F8921FA4F88C0E94F8960F78
:10131000012804D0674884F8965F08F053F994F8E0
:10132000970F04284DD084F8976FA4F8385EA4F87E
:101330008C7EB4E084F8926FA4F8900E94F8990F24
:10134000012805D05B4884F8995F403808F03EF9E1
:1013500094F89A0F042834D084F89A6FA4F8385E71
:10136000A4F8907E9BE0052184F8921FA4F8940EC7
:1013700094F89C0F012805D04E4884F89C5F603893
:1013800008F03CF994F89D0F04281AD084F89D6F5A
:10139000A4F8385EA4F8947E81E0062184F8921FB8
:1013A000A4F8980E94F89F0F012805D0404884F8BF
:1013B0009F5F803008F016F994F8A00F042801E030
:1013C00054E073E072D084F8A06FA4F8385EA4F8FB
:1013D000987E64E0072184F8921FA4F89C0E94F88C
:1013E000A20F012803D084F8A25FA577657794F84F
:1013F000A30F04285AD084F8A36FA4F8385EA4F889
:101400009C7E4CE0082184F8921FA4F8A00E94F86A
:10141000A50F012805D0264884F8A55F603008F0A4
:10142000E9F894F8A60F042840D084F8A66FA4F831
:10143000385EA4F8A07E32E0092184F8921FA4F857
:10144000A40E94F8A80F012805D0194884F8A85FC5
:10145000403008F0BFF894F8A90F042826D084F88B
:10146000A96FA4F8385EA4F8A47E18E00A2184F8D5
:10147000921FA4F8A80E94F8AB0F012805D00C48D1
:1014800084F8AB5F203008F0B1F894F8AC0F042872
:101490000CD084F8AC6FA4F8385EA4F8A87E00F0F5
:1014A000E5F8BDE8F0416420FFF7DABEBDE8F08161
:1014B0007800002078010020014802F07BBF000086
:1014C0008C150020014802F075BF0000BC120020FE
:1014D00001681823CAB2103AB2FBF3F2054B6FF35E
:1014E0000901032A9B5CC36500D9091D8165084673
:1014F0007047000050B2000810B583694FF0C07407
:10150000826A0146002053B1B3F5005F15D072B175
:10151000012A0CD0022A0AD0032A09D104E01AB108
:10152000012A06D0022A03D1C96AC90100D50120C7
:1015300010BDC96AA142FAD010BD002AF7D0012A15
:10154000F2D0022AF3D0032AF3D010BD30B50468DC
:10155000256825F480252560046863608368402B36
:10156000036803D099600068C26030BD9A6000686B
:10157000C16030BD70470000FEB500240D4610214B
:1015800006460848224603F09FF964203470012182
:10159000009501232246CDE901100348A02103F064
:1015A00063FAFEBD00040240A0130020FEB51578CA
:1015B00050220F781C4601786426089B42EA1110DD
:1015C00047EA01118DE86800CAB2410002480123D0
:1015D00003F04AFA2070FEBDA01300202DE9FC475D
:1015E0000078174609785022DDE90A9842EA10147B
:1015F0000F4D41EA0010C6B20020195C2954401C6E
:101600001028FADB0B480022102103F05DF90021BD
:1016100088F800103878610001233246CDE9005087
:10162000054803F0D3FA89F80000BDE8FC87000004
:101630006212002000040240A013002010B500F048
:1016400025F8BDE8104000F019B80000002202485B
:10165000102103F039B90000000C02400278082183
:10166000014803F031B90000000C0240002202489A
:10167000042103F029B90000000C024001220248B5
:10168000102103F021B90000000C024001220248A1
:10169000042103F019B90000000C024070B50546A2
:1016A0000C46084600F004F82078287070BD000051
:1016B0000121017002480A46490203F005B9000001
:1016C000000802400021017002480A464FF40071F0
:1016D00003F0FAB800080240704700002DE9FF4F00
:1016E00087B0944605460078DDE91631DDE914A29D
:1016F000DDE91FB4DDE91A76DDE91898572838D0FE
:1017000052283FD04C2868D045282FD15C22614612
:101710004846FEF7BEFD0021C9F85C10C8F8341039
:101720000846C8F83810C8F83C10089A52F820301B
:1017300048F820300A9A52F8202047F82020401C10
:101740000D28F2DB79630020DAF800203260B963FB
:10175000DAF804207260F963DAF80820C6F8082085
:1017600006EB8002401C0528D160F9DB0BB0BDE818
:10177000F08FCDE900212B1DEA1CA91C681CFFF786
:101780002DFFF3E71C981CAE6A7802701D98AA78AA
:1017900002701E98EA780270CDF800B096E8070053
:1017A000FFF704FF1C980178002084F890101D9921
:1017B000097884F891101E99097884F8921000BF76
:1017C00022181BF80010401C102882F89310F7DB39
:1017D00004F1900009F074FAC8E704F18000009069
:1017E000EA1CA91C681C04F1A303FFF7DFFE94F8B0
:1017F000A30094F8A410884267D000200DF10801DE
:1018000004EB400292F8813092F8802003EB022230
:1018100021F81020401C0828F2DB687801280ED03F
:1018200002280CD003280AD005281BD0062819D07E
:1018300008282AD0092828D00B283BD045E0C0062C
:10184000020ED01F904200D90020002252FA80F3ED
:1018500004EB430331F81250521C082A23F8025CAF
:10186000F4DB32E0C0002038C0B2C21F824200D98F
:101870000022002050FA82F304EB430331F81050A9
:10188000401C0828DD85F5DB1FE0C0003838C0B2F9
:10189000C21F824200D900225FF0000050FA82F39A
:1018A00004EB430331F81050401C0828A3F84E50B5
:1018B000F4DB0AE05FF0000004EB400331F8102095
:1018C000401C0828A3F87020F6DB002034F8102014
:1018D00049F82020401C1828F8DB002004EB4001C8
:1018E000B1F8502047F820200A8E48F82020401CEC
:1018F0001028F3DB5FF0000004EB4001B1F870103A
:1019000046F82010401C0828F6DB2FE70348C16882
:10191000006841630021014804F002BBEC13002081
:101920002DE9F04F08202DED028B85B009F066F906
:10193000DFF89C914FF0FF33B7EE008B09F500669E
:101940004A4606F54A744FF0010886ED0A8B86ED8B
:10195000148BC9F8483CA4F1E00086ED208B89F88F
:10196000C88F4FF0020A89F8C4AF602100F1600708
:1019700082F8C48100F1A005FEF7A4FC402138469E
:10198000FEF7A0FC40212846FEF79CFC0020014603
:1019900044F82010401C0828FADB4E4950464C4FB2
:1019A0004C46A1F1400B03913D4681F81CA087F8FD
:1019B000FCA0E0378BF81CA085F8BCA0A1F1800A40
:1019C000A039A0358AF81C000291087720390191CE
:1019D000087720390091087789F81C0001F6581023
:1019E00086ED0E8B08F0EAFF05F60C1009F022F8E0
:1019F00005F6681009F004F805F69C1008F0F8FFE9
:101A000005F6CB62511E481EFFF7B6FD05F6CC6009
:101A100009F092F9FFF782FBFFF7B6FBFFF7CAFB6D
:101A2000FFF70CFEFFF772FF01F070FD05F026FBDB
:101A300005F02AFB08F020F908F028F994F8930F34
:101A4000012802D1384607F0C9FD94F8960F012805
:101A500002D1039807F0B6FD94F8990F012802D13E
:101A6000584607F0B3FD94F89C0F012802D1284690
:101A700007F0C4FD94F89F0F012802D1504607F0EB
:101A8000B1FD94F8A20F012803D184F81E8084F8D8
:101A90001D8094F8A50F012802D1029807F0AAFD35
:101AA00094F8A80F012802D1019807F093FD94F84B
:101AB000AB0F012807D1009805B0BDEC028BBDE843
:101AC000F04F07F093BD05B0BDEC028BBDE8F08F81
:101AD00078000020780100202DE9F04F40222DED04
:101AE000068BABB0FE492891A1F52C70FEF7D1FB17
:101AF000FB49602240312791A1F52C70FEF7C9FB0C
:101B0000F7494022A0312691A1F52C70FEF7C1FBC8
:101B1000F44A13AB92F9AF0E02EB8000B0F8E41D6B
:101B2000A2F87C1DB0F8E60DA2F87E0D92F8830FA6
:101B300082F8640F92F9B00E02EB8000B0F8EC1D51
:101B4000A2F8801DB0F8EE0DA2F8820D92F8840F75
:101B50002A9092F9B10E02EB8000B0F8F41DA2F8C1
:101B6000841DB0F8F60DA2F8860D92F9B20E02EBC4
:101B700080010020B1F8FC4DA2F8884DB1F8FE1D9F
:101B8000A2F88A1D02EB8001D1F8281C43F820102E
:101B9000401C0828F6DB92F8851F002082F8651F9C
:101BA00092F8861F299192F8871F82F8661F92F992
:101BB000B31E01EBC101431802EB800402EB830367
:101BC000D3F80C3D401C0928C4F8583CF3DB92F9CB
:101BD000B41E0020C1EBC101431802EB400402EB2C
:101BE0004303B3F8043E401C0728A4F88C3DF3DB04
:101BF000B2F87A0E0023A2F8260E92F9B50E00EB89
:101C000080008400191903EB830001EB810102EBD2
:101C1000800002EB810191F8CD5101F2CD1180F8E5
:101C2000ED545B1C142B4D7880F8EE548D7880F8C1
:101C3000EF54CD7880F8F0540D7980F8F1544D7957
:101C400080F8F2548D7980F8F354CD7980F8F4540B
:101C50000D7A80F8F5544D7A80F8F6548D7A80F834
:101C6000F754CD7A80F8F8540D7B80F8F9544D7B09
:101C700080F8FA548D7B80F8FB54CD7B80F8FC54BF
:101C80000D7C80F8FD544D7C80F8FE548D7C80F8EE
:101C9000FF54C97C80F80015B4DB934D9FED931B76
:101CA00090494FF0FF3395ED140B08464FF00408B0
:101CB00085ED0A0B00F60D021D9295ED100BB7EEA7
:101CC000008BB2EE04AB9FED8B9B20EE010B00F678
:101CD000E8221192403A00F64820CDE90F0230EE9A
:101CE000080BBCEEC00B10EE100A81F86D0FB1F8B6
:101CF000740EA1F8360EC1F8483C91F8880FE8B18F
:101D00000C4694F88A0F08B106F0F0F994F8AF0F7A
:101D100008B107F049FF94F8B10F08B101F08EFA4D
:101D200094F8BC0F00286DD094F8BB0F73490128BC
:101D30005AD002286ED0032864D172E0694C012683
:101D4000002784F8886F84F88A6FA4F87C7EA4F852
:101D50007E7EA4F8807EA4F8827E94F8890F042801
:101D600003D084F8898F08F0C7FC84F8AF6F84F83B
:101D7000AE6F84F8B16FC4F8547C94F8B00F0428A7
:101D800001D084F8B08F032084F8BC6F84F8C27F40
:101D900084F8C37F84F8BB0F94F8BE0F012803D0EA
:101DA00084F8BE6FA4F8AC7E94F8BD0F012803D070
:101DB00084F8BD6F07F060FF84F8BA6F85ED1E9B55
:101DC00094F8B90F022804D0022084F8B90F85EDE9
:101DD0001E8B84F8C06F94F8BF0F012803D084F8DD
:101DE000BF6F84F8717F3DE394F8C30F58B194F846
:101DF000642F94F8C23F9A4219D1401E00D50020AA
:101E000084F8C30F1FE0022084F8BB0F3C48FFF7A3
:101E100059FC18E094F8642F94F8C20F824206D15E
:101E200011E094F8640F94F8C22F90420BD0012077
:101E300084F8BB0F1EA8FFF731FC94F8641F6420E0
:101E400084F8C21FDCE794F8BE0FE8B194F8BD0F28
:101E5000012802D0022817D104E00020022184F8D2
:101E6000BD1F0FE0B4F8AC0E0A2805D3012084F89A
:101E7000BD0F07F001FF07E0401CB0F5803F01DB1C
:101E80004FF6FF70A4F8AC0E164890F8BA0F002871
:101E90000CD0144F97F8B90F012802D0022805D1B1
:101EA00005E0022087F8B90F85ED1E8BC3E295EDA2
:101EB0001E0BB4EECA0BF1EE10FA7DDB09480021CF
:101EC00001234FF0050C00F65472009287F8B93FD9
:101ED00000F5907997F8C46F00F6C26A12E000002E
:101EE000C00B002078000020780800200B4C9106E1
:101EF0001B2ECF3F00000000000000003E0200202B
:101F0000ED0F002020320392941E521E019200F623
:101F10003C222592343A1C92903A1B9200F6283BC0
:101F2000062E00F6AC100E9021AA7DD2DFE806F056
:101F30007C0306A0FDFC87F8C4CF7CE297F86A0F0B
:101F4000FF281FD0AA285DD0002087F8C43F115475
:101F5000401C1028FBDB0023009245201A4619463E
:101F600008F064FC20AFCDE90A7A1FAE099605A9F6
:101F7000119E10981EAACDF83090089281E8410871
:101F80000F9851E287F8C48FAA2287F8551F87F867
:101F9000561F87F8571F87F8581F87F8591F87F86B
:101FA0005A1F87F85B1F87F85C1F87F85D1F87F84B
:101FB0005E1F87F85F1F00E039E287F8601F01238A
:101FC00087F8611F572087F8621F87F8631F87F81B
:101FD000C71F87F8C58F87F8542F0022114608F0D5
:101FE00025FC20AB1FA81EAECDE909031198CDE951
:101FF0000BA91099CDE90510CDE907B60F99029408
:1020000004912CE0032087F8C40F87F8C71F002035
:1020100087F8C68F1154401C1028FBDB491CFF2990
:102020000E4600D9FF2100E0DDE1102300920022DE
:102030004C2008F0FBFB0DF12408CDF8309020ABCC
:102040001FA888E80904DDE910231EA8CDE907B020
:10205000CDE90523A0E100BF87F8C76FEBE1259824
:1020600000900E9A1B99DDE91C30FFF737FBE2E187
:1020700097F8C60F01280DD0022824D0032834D0A9
:1020800097F8C76F3846032E5CD380F8C63F87F8B1
:10209000C78FD0E197F8C76F062E02D30320072120
:1020A00029E000201154401C1028FBDB17E0C1B2CE
:1020B0000092102300224C2008F0B8FB20AA1FAB8E
:1020C000CDE9093234E097F8C76F0B2E02D387F8B9
:1020D000C61F30E700201154401C1028FBDB761C83
:1020E000FF2E3046E3D9FF20E1E797F8C76F092EAE
:1020F00006D302200A2187F8C60F87F8C71F9AE186
:1021000000201154401C1028FBDB761CFF2E3046AB
:1021100000D9FF200092C1B2102300224C2008F009
:1021200085FB20A81FAB01E046E13AE0CDE909308C
:10213000CDE90BA9DDE9100105AB1EAA089283E8E1
:10214000030829E100201154401C1028FBDB761CF9
:10215000FF2E00D9FF260092102300224C20F1B25E
:1021600008F064FB20A81FA9CDE90910CDE90BA94F
:10217000DDE910231EA8CDE907B0CDE905230F98AE
:1021800002940490259800900E9A1B99DDE91C306A
:10219000FFF7A4FA97F8C70FDCE000BF87F8C70F76
:1021A00049E197F8C50F012813D002282BD0032846
:1021B0006ED004287BD097F8C70F032878D387F810
:1021C000C71F87F8C53F1B98B2EE0A0B08F078FED0
:1021D00031E197F8C70F022808D387F8C71F0320FB
:1021E00087F8C50F1C98B2EE0A0BEFE708F0BCFBAE
:1021F00097F8C70F401DFF2800D9FF2010230022A9
:10220000C1B2572018E097F8C70F28B387F8C51F49
:10221000032087F8C40F002087F8C71F87F8C68FF0
:102220001154401C1028FBDB491CFF2900D9FF2159
:102230000092102300224C2008F0F8FA20AA1FABCD
:10224000CDE90932CDE90BA9DDE9100105AB1EAAE4
:10225000089283E8030848E008F086FB97F8C70F68
:102260000B30FF2800D9FF20C1B2102300225720D5
:1022700008F0DCFA20A81FABCDE90930CDE90BA9A5
:10228000DDE910121EA8CDE907B0CDE9051254E032
:1022900097F8C70F02280CD387F8C71F022087F8CA
:1022A000C50F2598B0EE080B08F052FDC3E020E002
:1022B00056E008F059FB97F8C70F0830FF2800D9FF
:1022C000FF20C1B210230022572008F0AFFA09AA5C
:1022D000CDF8309020A91FA882E80304DDE910039F
:1022E00005AA1EA9089182E809080F990294049191
:1022F00026E087F8C5CF0E98B3EE070B08F084FDF3
:1023000097F8C70F08F030FB97F8C70F401CFF285D
:1023100000D9FF20C1B210230022572008F086FA0E
:1023200020A81FABCDE90930CDE90BA9DDE91023C9
:102330001EA8CDE907B0CDE905230F9802940490BB
:10234000259800900E9A1B99DDE91C30FFF7C6F91D
:1023500097F8C70F401CFF287FF620AFFF201DE72E
:1023600008F002FB97F8C76F761CFF2E304600D9A5
:10237000FF20C1B210230022572008F057FA20AAEC
:102380001FAB1EA8CDE90932CDE90BA9DDE9101379
:10239000CDE907B0CDE905130F9902940491259872
:1023A00000900E9A1B99DDE91C30FFF797F9FF2E7C
:1023B0007FF652AEFF264FE695ED220BB4EE480BAA
:1023C000F1EE10FA09D197F8730F97F8C81F8842F9
:1023D00003D0062087F8C40F2DE020AA1FA91EA84D
:1023E00008F0D2FD27E095ED220BB5EEC00BF1EE23
:1023F00010FA3FF46EAE85ED229B4C2387F80D3822
:1024000020AA87F80F181FAE4FF0100C87F810C8DD
:1024100005A8CDE90962CDE90BA9DDE910231EA9C4
:1024200080E80C080F9808910294049017E630EEAB
:10243000080B85ED1E0B884890F8C01F91B190F8ED
:10244000BF1F012902D002290CD12BE0002180F806
:10245000711F139931B1022280F8BF2F012100BFF3
:1024600080F8711F95ED240B7B4C30EE080BB4F80F
:102470008C0D85ED240B94F8C92F29998A4209D037
:1024800085ED0C0B85ED249B84F8C91FB4F8761EEE
:10249000A4F83A1E714E86ED5A9B94F8711F0129DB
:1024A00002D00BE00121DBE786ED5A8B94F8651F23
:1024B000F1B30020A4F83C0E84F87B0F2A9800EEBC
:1024C000100AB4F88C0DA4F8760EB8EE400B94F810
:1024D0007B0F70B384F86F0F95ED101B9FED603B81
:1024E000B5EE002B604821EE031B00EE021B11EE3F
:1024F000101A11EE902A8DED001B01644264142223
:10250000B4F83C0EA4F8740E54481D994C30FDF7F5
:10251000C0FE94F8720F602286F8600094F8730F82
:1025200086F8610094F8740F86F862004B4801E069
:1025300043E08DE00F996430FDF7ABFE4748402241
:102540001099C430FDF7A5FE484840221199FDF7C7
:10255000A0FE002004EB800206EB8001401CD2F8B4
:10256000282B0828C1F84421F4DBD4F8780D402248
:10257000C6F8700110992898FDF78BFE0F9960221C
:102580002798FDF786FE119940222698FDF781FED7
:102590005FF0000004EB8001401C0828D1F8282BD4
:1025A000C1F8282CF6DB324841684868401C486076
:1025B0002BB0BDEC068BBDE8F08FB0EE000B86EDC6
:1025C0005A0BB4F88E1D1429BFF46BAFB4F8982DD4
:1025D00015998A42FFF665AFB0EE080B86ED5A0BEF
:1025E000139A8242F6DBB1EE000B86ED5A0B14997A
:1025F000B1F1004F02DC6FF0004100E0494200EE13
:10260000101AB4F83A1E95ED0C1B401AB8EEC02B08
:1026100000EE100AB8EEC00B20EE0A0B80EE013B74
:10262000B4EEC23BF1EE10FA3FF63BAF002084F867
:102630007C0F0A48B438FEF7EDFD0120A4F83C0EEB
:10264000B1EE040B86ED5A0B642184F87B1F35E74D
:1026500094F8700F3EE7000078000020A8100020DA
:102660003FEB964F1E0DEE3F78080020AC11002086
:1026700050B100087CB5FE4C002504F57D6194F84E
:102680006F0F84F8670F91ED040BBDEEC00B10EED9
:10269000100A012852D00228284658D02118401C80
:1026A0000A2881F8B85EF9DBF248811C831E021FFC
:1026B000CDE90001811F743007F0BCFFB4F83E1E65
:1026C000A1F5407005381AD0B1F5017F7CD0B1F585
:1026D000007F4FF6FF704FF4803272D0A1F5407347
:1026E000063B44D0A1F50073013B6BD0A1F500700F
:1026F000023868D0A1F50070033873D00CE19FED6B
:10270000DE1BB4F8400EA4F8BA0DB4F8420EA4F8DB
:10271000AE0DB4F8440E00EE100AB8EE400B20EEF9
:10272000010BBCEEC00B10EE100AA4F8B20D94F829
:10273000800FFF2814D384F8805FEDE00020231879
:102740000A5C401C0A2883F8B82EF8DBACE70B18AB
:102750002218401C1B7E0A2882F8B83EF7DBA3E74C
:10276000401CFF2800DDFF2084F8800FD4E09FED9F
:10277000C40BB4F8400E01EE100AB8EE411B21EE76
:10278000001BBCEEC11B11EE100AA4F8B00DB4F88A
:10279000420E01EE100AB8EE411B21EE001BBCEE0A
:1027A000C11B11EE100AA4F8B60DB4F8460EA4F839
:1027B000B80D94F8810FFF2837D384F8815F3AE091
:1027C00002E010E046E07CE094F87D0FFF2802D3A1
:1027D00084F87D5FA0E0401CFF2800DDFF2084F826
:1027E0007D0F99E090E0B4F89E1DB4F8403EFF29BB
:1027F00002D3A4F89E5D05E0491C914200DB01462E
:10280000A4F89E1DA4F8A03D94F8670F64280BD08F
:10281000322B03D0642B01D0C82B7DD1002008F0CF
:1028200009FA002008F01AFA76E0401CFF2800DDC3
:10283000FF2084F8810FB4F8440E01EE100AB8EEC0
:10284000411B21EE000BBCEEC00B10EE100AA4F8E9
:10285000B40D61E0B4F8401EFF2900D9FF21CEB2CB
:1028600084F87E6FB4F8A61DB4F8423EFF2902D367
:10287000A4F8A65D05E0491C914200DB0146A4F8DE
:10288000A61D1E2EA4F8A83D09D9002008F0D2F9F3
:10289000002008F0E3F9012084F87F0F01E084F8BC
:1028A0007F5FB4F8440E08B3FF28A4F84A0E01D89D
:1028B000012800D0002084F8820F7348FEF7CEFE76
:1028C0002AE0B4F8400E012802D002280FD023E0FD
:1028D000B4F8420E08F0AEF9B4F8440EA4F84E0E67
:1028E000B4F8A40D0DE000BF84F87E5F14E0B4F8E6
:1028F000420E08F0B3F9B4F8440EA4F84E0EB4F842
:10290000AC0D0028F0D007E0B4F8400EA4F8480E53
:10291000B4F8420EA4F84C0E94F8B60E58B9B4F8B8
:10292000AE0DA4F8200EB4F8B00DA4F8220EB4F841
:10293000B20DA4F8240E94F8AF1EB4F89E0DE9B3BE
:102940005FF0000104EB8101A1F8E40D94F8AF1EE3
:10295000B4F8A00D99B3002104EB8101A1F8E60DB4
:1029600094F8AF0E60B3002084F8AF0E94F87D0F9A
:1029700084F8830F94F8B01EB4F8A20DE9B30021D7
:1029800004EB8101A1F8EC0D94F8B01EB4F8A40D8D
:10299000A1B3002104EB8101A1F8EE0D94F8B00E73
:1029A00068B3002084F8B00E94F87E0F84F8840F8A
:1029B00094F8B11EB4F8A60DF1B302E075E076E02C
:1029C00077E0002104EB8101A1F8F40D94F8B11E29
:1029D000B4F8A80D89B3002104EB8101A1F8F60D2C
:1029E00094F8B10E50B3002084F8B10E94F8B20EF2
:1029F000B4F8AA1DD0B3002002E05CE05EE05FE026
:102A000004EB8000A0F8FC1D94F8B21EB4F8AC0DE5
:102A100069B3002104EB8101A1F8FE0D94F8B20E18
:102A2000A0B3002184F8B21E002094F87F1F84F820
:102A3000851F94F8801F02E044E045E046E084F8FA
:102A4000861F94F8811F84F8871F00BF94F8B42E66
:102A500004EB4001B1F8AE1D7AB30022C2EBC20212
:102A60000244401C072804EB420210E030E031E051
:102A700078000020BC0E0020B728B3412619D93FAA
:102A80009A9999999999B93FFA0F002024E0A2F8F0
:102A9000041EDBDB94F8B40E10B3002084F8B40EEF
:102AA000B4F84E0EA4F87A0E7CBD01214AE701214C
:102AB00052E7012058E7012162E70FE0012169E7B1
:102AC00001206FE701217DE7012185E701208BE7E8
:102AD000012091E701219DE70121A3E70122BDE744
:102AE0000120DBE72DE9F04F46499BB00DF1040CC6
:102AF00091F9AE3E002003EBC303C41801EB84043C
:102B0000D4F8C44C4CF82040401C0928F5DBB1F83F
:102B1000780E01231090B1F84C0E139091F86F0FBE
:102B20001690B1F8380E1290B1F848AEB1F89C9DED
:102B3000B1F84A7E81F8B63E0020B1F8206EB1F8B7
:102B4000225EB1F8243E81F8B60E66F30F02B1F8AA
:102B5000783D0BACB1F8B4BD65F31F42B1F8B66D6A
:102B60001FFA83F501EB40083CF82030A8F8BC3D83
:102B700024F81030401C0928F4DB4FEA1248109A60
:102B8000A1F8CE2D139AA1F8D02D169AA1F8D22D26
:102B9000129AA1F8D42DA1F8D6ADA1F8D89DA1F82C
:102BA000DA7DA1F8DC8DA1F8DEBDA1F8E06DA1F819
:102BB000E25D15490091A1F59F7007F03FF800987C
:102BC00008F09AF81148002134F8112020F811205B
:102BD000491C0929F8DB10994182139981821699C1
:102BE000C18212990183A0F81AA0A0F81C90C78393
:102BF000A0F82080A0F822B08684C5841BB0BDE870
:102C0000F08F000078000020720F0020A810002034
:102C10002DE9F041A54901F555702DED108BB2B0AD
:102C200008F08CFA00209FEDA21BA34C10AA00BF55
:102C300004EB800102EBC003401CD1F8A01C092862
:102C400000EE101AB8EE400B20EE010B83ED000BE6
:102C5000EEDB9A4D0020694602EBC00605EBC0038F
:102C600096ED002B93ED003B93ED0E1B93ED1C0BAB
:102C700032EE032B01EBC006401C062802EE010BCE
:102C800086ED000BE8DB9DED201B9FED8D2B9FED6E
:102C90008E0B002031EE021B22AD21EE000B8DEDDC
:102CA0000C0B00BF01EBC00292ED000BBCEEC00BA1
:102CB00010EE102A45F82020401C0728F2DBDFF830
:102CC0001082B3EE092BB7EE000B9FED824B9FED08
:102CD000835B9FED846B9FED857B9DED1C9B9FED42
:102CE00085AB9FED868BB6EE00FB9FED861B8DEDD1
:102CF0002A1B9FED861B8DED0E1B9FED86CB9DED58
:102D00001EDB9FED86EB9FED871B98ED123B89EE56
:102D10000ABB33EE422BB0EE403B1DEE0E1B08F219
:102D2000726002EE043BB0EE404B02EE054BB0EE9B
:102D3000405B02EE065B02EE070B83EE042B85EE92
:102D4000003B03EE082B3BEE4C3B22EE0F0B9DEDC0
:102D50002A2B20EE024B9DED0E2B20EE020B23EED4
:102D6000042B21EE001BFCEEC20BBCEEC10B10EEDF
:102D7000907A10EE106A06F073FF9DED080B0020AC
:102D800088ED120B08F5036101EB800355F8202054
:102D9000401C07289A62F7DBC1E9117694F8B70E58
:102DA00068B900BF04EB800255F82010C2F8541D2A
:102DB000401C0728F6DBC4F8707DC4F8746D002051
:102DC00094F8AE2E55F82010F2B3002202EBC202A6
:102DD0000244401C04EB82020728C2F8C41CEFDB4B
:102DE00094F8AE0E88B3002000EBC00004EB800026
:102DF000C0F8E07C94F8AE0E40B3002000EBC000B9
:102E000004EB8000C0F8E46C94F8AE0ED8B3002157
:102E100084F8AE1E0020B4F8721EA4F8781E00BF1D
:102E200055F8201094F8B32E72B3002202EBC202C0
:102E30000244401C04EB82020728C2F80C1DEFDBA1
:102E400094F8B30E58B302E01FE020E021E0002028
:102E500000EBC00004EB8000C0F8287D94F8B30EAE
:102E6000F8B1002000EBC00004EB8000C0F82C6D2E
:102E700094F8B30EB8B1002084F8B30E32B0BDECB4
:102E8000108BBDE8F08106E007E001229EE70120FB
:102E9000AAE70120B2E70121BAE70122C6E7012033
:102EA000D6E70120DEE70120E6E70000180D00204C
:102EB000B4D934E70C684A3F7800002058B10008C4
:102EC0001F85EB51B81ED53FF0C1071F7CF0424073
:102ED000780800209AB1683A3B196C3FB01BB62DB8
:102EE000CA6C703FDD41EC4CA1F36A3FACA8C13421
:102EF0000C1F713F0000000000607D400AD7A370E6
:102F00003D0AEF3FF5597F9FD323D0409342765837
:102F100011B344C02F292982EB04293F79734289D8
:102F2000066E613F35B86B62F77CC13FF8B56F4CF8
:102F3000012084F8B70E002004EB8001D1F8542D55
:102F4000401C0928C1F87C2CF6DB002584F8B75E0C
:102F5000B4F84C0E0723A4F8280E94F86F0F84F8E9
:102F6000680FB4F8380EA4F82A0EB4F8480EA4F886
:102F70002C0EB4F89C1DA4F82E1EB4F84A1EA4F81A
:102F8000301EB4F8721EA4F8321EB4F83C1E584A23
:102F9000A4F8341E04F5626402F1100107F070FD1C
:102FA000534A0A23208620326086208902F11601C6
:102FB00007F066FDA0864FF4A061E1864FF44472ED
:102FC0002287531C6387961DA687D71DE78794F831
:102FD000AA01A4F5626464283ED3B4F88C0CA4F86A
:102FE000680EB4F8900C434EA4F86A0EB4F8880C3E
:102FF000A6F16C03A4F86C0E9A1EB4F89C0C911EFA
:10300000A4F86E0E881E04F67C44009606F0FFFDC0
:10301000A6F17E00314607F035FE208B083EA4F86D
:10302000E401A6F16C0320889A1EA4F8E601911E23
:10303000A088A4F8E8012089A4F8EA01881E009677
:1030400006F0E5FDA6F17400314607F01BFE84F89A
:103050004E53A4F67C4403E094F8CB0F0A281FD308
:10306000244E254A10360096A6F1C003991E081D6D
:1030700006F0CDFDA6F19000314607F003FE083EB4
:103080000096A6F1B00303F12202911E881E06F0FD
:10309000BEFDA6F18C00314607F0F4FD84F8CB5F4D
:1030A000144D94F8680F1835A4F8700EA5F1BE03FE
:1030B00000951A1F911E01F1420006F0A8FDA5F12E
:1030C0009A00294607F0DEFD94F8CB0F401CFF283C
:1030D00000DDFF2084F8CB0F94F8CA0F401CFF28B6
:1030E00000DDFF2084F8CA0FF8BD00007800002042
:1030F00000B20008520F002050B100084C490020D7
:1031000010B586B06A4691F848308DF8003091F8D5
:1031100049308DF8013091F84A308DF8023091F83D
:103120004B308DF803300C181318401C94F84C40A9
:1031300010281C71F7DB104607F06CFF3D4B002296
:1031400093F8B50EE8B3002002EB820100EB80009B
:1031500003EB810102EB800000EB800091F87D46DB
:1031600003EB800080F8CD4191F87E4680F8CE4197
:1031700091F87F4680F8CF4191F8804680F8D041A1
:1031800091F8814680F8D14191F8824680F8D24189
:1031900091F8834680F8D34191F8844680F8D44171
:1031A00091F8854680F8D54191F8864680F8D64159
:1031B00091F8874680F8D74191F8884680F8D84141
:1031C00000E030E091F8894680F8D94191F88A46CC
:1031D00080F8DA4191F88B4680F8DB4191F88C4613
:1031E00080F8DC4191F88D4680F8DD4191F88E46FB
:1031F00080F8DE4191F88F4680F8DF4191F8901613
:1032000080F8E011521C142A9ADB93F8B50E60B1D5
:103210005FF0000083F8B50E074890ED0E0B80EDCF
:10322000140B06B010BD01208EE70120F2E700006C
:103230004810002078000020780800202DE9FE4F7B
:10324000A14C01250023224602F66E7094F8B0CFFF
:1032500002F2C71B00900327D2F8540C022692F802
:10326000B6AF92F8B29F411EEA07BCF1070F47D2F2
:10327000DFE80CF04604F160F1BFF100BAF1010F94
:10328000D4460BD0BCF1020F11D0BCF1030F17D004
:10329000BAF1040F34D1012834D0C2E001287DD125
:1032A00084F8B83F84F8B63F84F8B06FD0E00128C6
:1032B00074D184F8B67F00F0A3F9C4F8540CC7E0C9
:1032C00001286BD184F8B65F00F09AF9C4F8540C69
:1032D00094F8700F512894F8B80F07D201280FD036
:1032E000002084F8B85FFDF7BBFF03E0022807D099
:1032F00084F8B86F02A9009A01A85B4600F04AF969
:10330000BDE8FE8F84F8B73F84F8B66F00F078F917
:103310006E4AC4F8540C511E481E00F007F994F888
:10332000780F84F86E0FEBE7C4F8542CE8E7C4F884
:10333000541CE5E7D4F8481C042002291ED00029BB
:10334000DED1BAF1040F84F8B05F05D084F8B60F6F
:1033500000F056F9C4F8540C94F8AE0F032837D097
:10336000042843D094F8700F3C283FD894F8B70F46
:103370000128C5D03C2084F8B75F34E0B4F8981D2C
:103380000529BDD2052284F8B02FB9F1040F0DD064
:1033900084F8B20F00F034F94D4900E041E0884272
:1033A00001DD481C00E0401CC4F8540C94F8AE0F3A
:1033B000032894F8B50F06D00128A1D084F8B55F92
:1033C000FEF744F99CE702289AD084F8B56F09E02B
:1033D00094F8700F5028C5D894F8B70F03288FD0F1
:1033E00084F8B77F5020FDF73BFF89E784F8B76F7B
:1033F00086E7B9F1010FCC460BD0BCF1020F13D018
:10340000BCF1030F30D0B9F1040F8CD1012836D0B4
:1034100007E0012805D184F8B23F062084F8B00FF8
:1034200016E0904283DC7FE70128FAD184F8B43FAC
:1034300084F8B27F00F0E4F8C4F8540C94F8AE0FAE
:10344000032894F8B30F07D00128BBD084F8B35FEA
:1034500000F0B4F854E733E00228B3D0002084F839
:10346000B36FFDF7FDFEF3E70128DAD184F8B33F2F
:1034700084F8B25F00F0C4F8C4F8540C3AE784F85A
:10348000B53F84F8B26F00F0BBF8C4F8540C94F860
:10349000AE0F104F032894F8B40F06D0012891D036
:1034A00084F8B45FFEF7EAF803E002288AD084F8D3
:1034B000B46F02A9009A01A83B4600F08DF81FE7FF
:1034C00084F8B07F1CE7000078000020F00F002097
:1034D000FEFFFF7F4202002010B5002303700B7037
:1034E000012414700421084C1A46204601F0ECF91E
:1034F00000222046082101F0E7F901222046BDE81C
:103500001040022101F0E0B90010024008B5684601
:1035100000F002F808BD00000021017002480A46D0
:10352000022101F0D1B900000010024010B50024C2
:10353000047001230B7013702246084C04212046AE
:1035400001F0C2F901222046082101F0BDF9012253
:103550002046BDE81040022101F0B6B9001002403B
:1035600010B50123037000240C70094C0421137062
:103570001A46204601F0A8F900222046082101F051
:10358000A3F901222046BDE81040022101F09CB9B8
:10359000001002402DE9F0411C4615469A1C0E46CB
:1035A000591C07462046FFF797FFA078287020781F
:1035B000387060783070BDE8F0810000044810B5C4
:1035C000FFF7AAFF034890F8791F80F86E1F10BD1F
:1035D000F10F0020780000202DE9F0411C4615462F
:1035E0009A1C0E46591C07462046FFF7B9FFA078E3
:1035F00028702078387060783070BDE8F081000065
:103600002A49084691F8B22F90F8AE0F042A10D03C
:10361000022A16D0032A2FD0012A35D091F8B60FEE
:10362000042839D002283AD003283BD0D1F8040925
:103630007047032802D0D1F818097047D1F828093B
:10364000704703280FD0B1F8982D012A0ED01748E3
:10365000022AD0F80C09F3D0032A0AD0042AEFD1A9
:10366000D1F814097047D1F824097047D1F8080936
:103670007047D1F810097047032802D0D1F81C090F
:103680007047D1F8E0087047032802D0D1F820092C
:103690007047D1F8E4087047D1F8FC087047D1F8BA
:1036A000F8087047D1F80009704700007800002042
:1036B00070470000F8B50025009590F83C20012ADD
:1036C00018D0012280F83C200A6807234E4C066877
:1036D000092A1AD90A3A02EB4207F268BB409A4318
:1036E000F2600E680268A64206D10B7AD66846EAF6
:1036F000036308E00220F8BD0A3E8B68D76806EB3A
:103700004606B3403B43D3600EE002EB420732690A
:10371000BB409A43326103680E788A681F6906EBE2
:103720004606B2403A431A614A681F23072A13D259
:103730000668521E02EB8207726BBB409A437263AB
:1037400003680E790A88761E5F6B92B206EB8606D6
:10375000B2403A435A6327E006680D2A12D2D21FBC
:1037600002EB8207326BBB409A43326302680E79E8
:103770000B88F61F176B9BB206EB8606B3403B43E4
:10378000136311E00D3A02EB8207F26ABB409A43E1
:10379000F26202680E790B880D3ED76A9BB206EB87
:1037A0008606B3403B43D362184A0368934208D16C
:1037B0000B68122B05D1D2F8043343F48003C2F80E
:1037C0000433036893421AD10B68A34201D0112B32
:1037D00015D1D2F8043343F40003C2F80433096866
:1037E000A1420CD10A490B4A0968B1FBF2F101EB85
:1037F0008101490000E0491E00910029FBD180F8B9
:103800003C500020F8BD00001200001000200140D4
:103810007000002040420F0000680349884201D137
:10382000FFF7F6B97047000000200140704770476D
:1038300070B50446006801684268C1F34001C2F3F4
:10384000401251B34AB3216CC90603D4216C41F430
:1038500000712164816811F0405F17D1A169A9B995
:10386000C16A11F4700F02D0816849050ED4416815
:1038700021F020014160206C20F480702064206CD5
:10388000C00403D4206C40F0010020642046FFF700
:10389000C3FF21686FF01200086020680168426869
:1038A000C1F38001C2F3C01289B382B3216CC9068F
:1038B00003D4216C41F400512164816811F4401F4C
:1038C0001ED1816B11F4401F02D08168490517D4C5
:1038D0004168490514D4816811F0405F10D1A16995
:1038E00071B9416821F080014160206C20F4805062
:1038F0002064206CC00503D4206C40F001002064DB
:103900002046FFF7D5FE21686FF00C0008602068A4
:103910000168436811F0010FC3F380110ED069B143
:103920000068C0070AD0206C40F480302064204634
:1039300000F046F821686FF0010008602068016817
:103940004268C1F340110029C2F380620DD0002A01
:103950000BD0616C6FF0200541F0020161640560DD
:103960002046FFF764FF2068056070BD70B5040055
:103970004FF0000503D0206C002610B107E00120B5
:1039800070BD204600F01EF8666484F83C60206C30
:10399000C00610D4206C20F4885040F0020020644F
:1039A0002046FDF7F7F86664206C20F0020040F036
:1039B0000100206400E0012584F83C60284670BDC9
:1039C00070470000F0B587B0064614216846FCF742
:1039D00079FC30493068884259D12F48016841F458
:1039E0008071016000682C4900F4807005901439E2
:1039F000086840F004000860086800F004000590C2
:103A0000086840F001000860086800F001000590B7
:103A1000086840F002000860086803240025694631
:103A200000F00200059013208DE831001B4800F0E3
:103A300053FEF02069468DE83100194800F04CFE35
:103A4000009469461748CDE9014500F045FE164C43
:103A500016480115C4E900058715A5600B01C4E9E6
:103A6000035182142046C4E907756562C4E9052341
:103A700000F070FD08B1FDF72FFEB46300220421B1
:103A8000A663122001F096F9122001F085F907B023
:103A9000F0BD000000200140443802400008024010
:103AA0000000024000040240BC12002010640240EA
:103AB000F8B50D4604460021009190F83C0001281D
:103AC00007D0012084F83C0020688368DB0702D01F
:103AD00011E00220F8BD8668364B46F0010686608C
:103AE00035480068B0FBF3F000EB400000E0401EFA
:103AF00000900028FBD120688368DB0758D0236C36
:103B000040F20166B34343F4807323644068400588
:103B100005D5206C20F4005040F480502064206CC7
:103B2000C00404D5606C20F00600606400E06164AD
:103B30006FF0220084F83C10A36B2049D963A36B7B
:103B40001F491964A36B1F49D96421680860206864
:103B5000416841F0806141602068816841F4807172
:103B6000816021681346A06B2A464C3100F064FD49
:103B70001549D1F80403C006206811D0884207D146
:103B8000826812F0405F03D1826842F08042826016
:103B9000D1F80403C0060BD40C492068884207D131
:103BA000816811F0405F03D1816841F080418160FC
:103BB0000020F8BD40420F0070000020F90A000804
:103BC0007D0B0008670B0008002001400022014027
:103BD00090F82020012A07D0022A05D0416A41F43A
:103BE0008021416201207047006842690A434261B6
:103BF00000207047F0B590F820500468A468012DAB
:103C000005D0022D03D0416A41F480215AE014F01E
:103C1000406F01D1E50052D5C4F30164022C03D9F1
:103C2000416A41F400014DE001264FF4C075A64001
:103C30001E608B68ABB1CE684F68D0F800C03343CC
:103C400005EB041643EAC7034CF8063007684FF447
:103C5000C27303EB04130E69FE50097D012909D0DC
:103C60000DE00E88CB68076843EA465305EB04165F
:103C7000BB51EBE70168CE5846F48076CE50D2F8BF
:103C800005304FF4C67C11790CEB041C06684FF428
:103C9000C47741EA032107EB041346F80C101678A9
:103CA00005EB0411D2F80120076846EA0222FA5017
:103CB0000068425842F0010242500020F0BD416AC3
:103CC00041F4001141620120F0BD000030B590F8D0
:103CD00020300268012B07D0022B05D0416A41F445
:103CE00080214162012030BD3E4C3F48A24200D0BD
:103CF0000246D2F80032824243F00103C2F8003299
:103D00000CD1D2F8000220F47C50C2F80002D2F8A4
:103D100000024B6A40EA0320C2F800020C7D012039
:103D2000D2F81C3204F01F04A0408343C2F81C32B6
:103D3000CB69B3B9D2F80C328343C2F80C328C8908
:103D40004B684D6964F31F4302EBC504C4F840326D
:103D50000C890B684D6964F31F4302EBC504C4F87A
:103D60004432CB69012B16D1D2F80C320343C2F88E
:103D70000C320C884B684D6964F31F4302EBC50499
:103D8000C4F840320C89CB684D6964F31F4302EBE1
:103D9000C504C4F844328B69002BD2F804320FD02A
:103DA00053EA0003C2F804320B69002BD2F8143234
:103DB00008D00343C2F81432096A012904D008E08C
:103DC0008343EFE78343F5E7D2F81C120143C2F8BF
:103DD0001C12D2F8000220F00100C2F800020020FC
:103DE00030BD000000340040006400407047000017
:103DF000F0B590F82040012C05D0022C03D0416A88
:103E000041F4802166E0046800295ED02469A4079B
:103E10005DD005684FF4D87404EB01142D5915F0EA
:103E20000405956005682D5957D0ED08C2F8045077
:103E300007684FF4DA754FF4DC7C4FF4DE763C59BA
:103E4000002905EB0115C4F34007D7600CEB011402
:103E500006EB01110668765906F00F061661066832
:103E60007659C6F307269661066875594FEA1545D7
:103E70005561026812591A70026812594FEA1222EB
:103E80005A70026812594FEA12429A700268125927
:103E90004FEA1262DA70026852581A710268525878
:103EA0004FEA12225A71026852584FEA12429A712E
:103EB000026851584FEA1161D971006810D0016948
:103EC00041F0200101610020F0BDE4689FE7416AF4
:103ED00041F4001141620120F0BD6D0D1560A7E7AE
:103EE000C16841F02001C160EDE72DE9F05F0546B2
:103EF000006800244669D0F804908768D0F80CB0B8
:103F0000D0F810A0F207D0F8188048D0F90714D0E4
:103F100001218160BA0703D5284600F032FA0CE08F
:103F2000780702D54FF4006407E0380702D54FF454
:103F3000805402E0284600F023FAF80516D52868D8
:103F4000BA054FF48071816003D5284600F01BFA52
:103F50000CE0780502D544F4005407E0380502D59A
:103F600044F4804402E0284600F00CFAF80316D529
:103F70002868BA034FF48031816003D5284600F0E9
:103F800004FA0CE0780302D544F4004407E0380357
:103F900002D544F4803402E0284600F0F5F93007F9
:103FA00007D55FEACB6004D52968102044F400747B
:103FB000C86070074FF0080707D55FEA0B7004D59B
:103FC0002868C760284600F075F9B00706D528684C
:103FD000C068800702D0284600F06EF9700607D549
:103FE0005FEACA6004D52968102044F4806408613F
:103FF000B00607D55FEA0A7004D52868076128462D
:1040000000F08EF9F00606D528680069800702D016
:10401000284600F086F9B00308D55FEAC96005D5E7
:10402000296810204860284600F07CF9F00307D585
:104030005FEA097004D528684760284600F0A6F9B1
:10404000300446D55FEA497040D5F00504D55FEAF3
:10405000C87001D044F00104B00504D55FEA88704F
:1040600001D544F00204700504D55FEA487001D51B
:1040700044F00404300529D518F0700F26D008F05C
:104080007000402815D006DC102809D020280AD05E
:10409000302816D10AE050280ED0602811D10EE049
:1040A00044F008040DE044F010040AE044F0200459
:1040B00007E044F0400404E044F0800401E044F4EC
:1040C00080742868816921F0700181612968042069
:1040D0004860002C05D0686A204368622846FFF7D4
:1040E00085FEBDE8F09F70B5040003D094F8200071
:1040F00010B104E0012070BD204600F081F8206876
:10410000016821F00201016000F0E4FB052605468C
:1041100004E000F0DFFB401B0A2811D8206840684B
:104120008007F6D42068016841F00101016000F0C9
:10413000D1FB05460BE000F0CDFB401B0A2806D959
:10414000606A40F40030606284F82060D2E7206842
:104150004068C007EFD0207E0128206801683DD06C
:1041600021F080010160607E01282068016838D05C
:1041700021F040010160A07E01282068016833D051
:1041800021F020010160E07E0128206801682ED026
:1041900041F010010160207F01282068016829D0CA
:1041A00021F008010160607F01282068016824D0A7
:1041B00021F004010160D4E90110D4E903326569FA
:1041C000491E184323682A43104300220843D8613C
:1041D0000121626284F82010104670BD41F0800118
:1041E000C0E741F04001C5E741F02001CAE721F0F6
:1041F0001001CFE741F00801D4E741F00401D9E70D
:1042000010B586B0044614216846FCF75BF82649D1
:104210002068884246D12548016841F40051016078
:10422000016801F400510591016841F0806101606D
:10423000016801F080610591016841F00071016041
:10424000006800F00070059018481038016841F0CF
:104250000201016000680221002200F002000590C6
:10426000032309244FF440508DE81F00104869468D
:1042700000F032FA002201213F2000F09BFD3F2098
:1042800000F08AFD00220221402000F093FD402032
:1042900000F082FD00220221412000F08BFD412030
:1042A00000F07AFD06B010BD0068004040380240C2
:1042B000000402407047000010B572B6144B002194
:1042C000144A02F13400FFF793FD124812490088A6
:1042D000020A0A760E4A4876022014180B18401C6F
:1042E00014F8024C0A281C76F7DB91ED040BB0EEB3
:1042F000001BB4EE410BF1EE10FA01D1FEF7BAF952
:1043000006484FF4806100F0D8FA62B610BD000094
:10431000300000204413002048100020000C024010
:10432000704770477047000070B5044690F8200051
:10433000012804D0606A40F40020606218E0022086
:1043400084F820002068016821F00101016000F07C
:10435000C1FA05460EE000BF00F0BCFA401B0A2877
:1043600008D9616A052041F40031616284F82000B7
:10437000012070BD20684068C007EDD1606270BD4B
:10438000704770477047704770477047704790F8A4
:104390003510022903D08021416501207047052195
:1043A00080F835100068016821F0010101600020EB
:1043B000704700002DE9F84304464FF00009644BB4
:1043C0000820CDF800904FF41652A56D94F85C10BB
:1043D0001B682E68B3FBF2F700FA01F131420FD0EF
:1043E00021680A6852070BD50A6822F004020A60A5
:1043F00094F85C108840A860606D40F00100606532
:1044000094F85C104FF0010808FA01F0304208D02F
:1044100021684969090604D5A860606D40F0020072
:10442000606594F85C1004208840304208D0216810
:104430000968890704D5A860606D40F004006065D4
:1044400094F85C1010208840304218D02168096828
:10445000090714D5A86020680168490304D50068DD
:10446000000308D5A16C07E00168C90503D4016801
:1044700021F008010160216C09B12046884794F8B9
:104480005C1020208840304231D021680968C9067C
:104490002DD5A86094F8350005282068016806D05D
:1044A000490347D5006800031DD4616C1CE021F06E
:1044B000160101602068416921F080014161206C92
:1044C00008B9A06C20B12068016821F008010160E2
:1044D00094F85C303F229A40AA6084F8349084F8C3
:1044E0003580216D1FE0E16B09B120468847606D82
:1044F00000282BD0606DC00714D0052084F835004B
:104500002068016821F0010101600098401C0090C2
:10451000B84203D820680068C007F6D184F8349008
:1045200084F83580E16C002910D001B02046BDE848
:10453000F04308470168C905D5D4036823F0100388
:10454000036084F8349084F83580CCE7BDE8F883C4
:10455000700000202DE9F047044600F0BBF9054645
:1045600064B14FF0000984F83490022184F83510CA
:104570002068016821F0010101600EE00120BDE822
:10458000F08700BF00F0A6F9401B052805D92021BF
:104590006165032084F83500F1E720680068C007F2
:1045A000F0D1D4E90020D4E90251D4E9043C2843F5
:1045B00004F1180519430843116895E8E00140EA41
:1045C0000C001C4B2843194040EA060040EA070053
:1045D000B8F1040F40EA010003D1D4E90B131943E9
:1045E0000843106020680126656A4069042D20F0A8
:1045F000070045EA00050CD1D4E90A01054341B1A1
:104600002046FCF779FF20B14020606584F83560D2
:10461000B4E7206845612046FCF75AFF94F85C3007
:104620003F229A408260C4F8549084F8356000209C
:10463000A5E700003F8010E02DE9F041044690F826
:10464000340000250128A66D0ED094F835C001274E
:10465000002084F83470BCF1010F07D0022584F8E3
:1046600034002846BDE8F0810220FBE7022784F8E9
:10467000357060652046FCF769FF94F85C103F20B8
:104680008840B0602068016841F016010160206830
:10469000416941F080014161206C20B120680168CE
:1046A00041F0080101602068016841F001010160EA
:1046B000D7E7000070B5044600F00CF90546601C11
:1046C00002D004480078044400F004F9401BA042E2
:1046D000FAD370BD640000202DE9F84FDFF89CE1AB
:1046E00000224FF001084FF0030B4FF00F0A00BFFC
:1046F0000B6808FA02F42340A34271D14D68022DE1
:1047000001D0122D0FD1D5080E69570700EB850592
:10471000A9462D6AFF0E0AFA07FCBE4025EA0C05E1
:104720002E43C9F820600F79550006680BFA05FC86
:1047300007F0030726EA0C06AF40374307604E68D0
:10474000012E05D0022E03D0112E01D0122E0ED133
:104750008668CF6826EA0C06AF4037438760466814
:104760000F79A643C7F30017974037434760C468E3
:104770008E6824EA0C04AE402643C6604C68E40010
:1047800075D53F4C256845F480452560246822F0A6
:104790000306950704F4804400943A4C2D0F2644F8
:1047A000D6F80848DFF8E0C00AFA05F7604524EAC1
:1047B000070401D100272EE0344FB84201D1012770
:1047C00029E0334FB84201D1022724E0314FB842EB
:1047D00001D103271FE0304FB84202D104271AE06D
:1047E00045E02E4FB84201D1052714E02C4FB842C6
:1047F00001D106270FE02B4FB84201D107270AE06D
:10480000294FB84201D1082705E0284FB84201D10D
:10481000092700E00A27AF4027437546C6F8087805
:104820004E68DEF80040F60324EA030400D51C437A
:10483000124E2C60361D4D683468AD0324EA030423
:1048400000D51C430D4F346008374D683C68ED02BD
:1048500024EA030400D51C43084D3C600C354E6827
:104860002C68B60224EA030400D51C432C60521CB9
:10487000102AFFF43DAFBDE8F88F0000003C014076
:104880004438024000300140000002400004024071
:1048900000080240000C02400010024000140240D8
:1048A00000180240001C0240002002400024024088
:1048B0000069084000D001207047426931EA0202D5
:1048C00000D10904816170470AB181617047090410
:1048D000FBE700000148806870470000640000208A
:1048E00030B590F84120202A24D190F84020012AA8
:1048F00020D0012380F84030242280F8412020235A
:1049000000240268156825F0010515600268156825
:1049100025F480551560026815680D43156001681F
:104920000A6842F001020A6080F8413080F8404095
:10493000002030BD022030BD30B590F84120202A43
:1049400022D190F84020012A1ED0012380F8403067
:10495000242280F84120202400250268136823F0D7
:10496000010313600268136823F4706343EA0121B2
:10497000116001680A6842F001020A6080F8414053
:1049800080F84050002030BD022030BD7047704795
:104990000268436B91691268002B00D0184770477A
:1049A0007047000070B5040004D094F84100002561
:1049B00010B106E0012070BD204684F8405000F0A0
:1049C00063F9242084F841002068016821F0010186
:1049D0000160D4E9001020F07060086120688168EF
:1049E00021F400418160E06821680128A06806D0B8
:1049F00040F404408860E068022803D006E040F4F8
:104A00000040F7E721684FF40060486020212068EB
:104A1000114A4368134343602068C26822F400428D
:104A2000C26054F8106B0DCC104340EA0320F060D4
:104A300054F81C3CD4E900021043186054F81C0DD3
:104A4000026842F001020260656484F84110256347
:104A500084F84250002070BD00800002704770470B
:104A600070477047704700002DE9FF4F83B0044640
:104A700090F841009A469346DDE91087DDF84890AA
:104A8000202874D15FEA080014D09FB194F8400048
:104A900001286CD0012084F84000FFF71BFF0122A1
:104AA000064619230090D103204602F069FA002837
:104AB00071D103E04FF4007060646CE00025C4F82D
:104AC0002480222184F84110402084F8420065644B
:104AD0006785534665635A4604992046CDE900969A
:104AE00002F0D2F810B184F8405054E0618DFF27F5
:104AF00034484FF08078FF294FF0007A04D9278599
:104B00003A464346009005E0618D5346218500906A
:104B100094F828202046049902F01CFA00224B4603
:104B200004212046009602F02BFAA0BB2068616A9F
:104B3000406A0870606A401C6062208D401E81B22D
:104B40002185608D401E6085608DD8B1D1B900226D
:104B50004B4680212046009602F012FAD8B9608DAB
:104B6000FF2805D927853A464346009506E026E00A
:104B7000608D53462085009594F82820204604999E
:104B800002F0E8F9608D0028C8D132464946204637
:104B900002F023FA18B1012007B0BDE8F08F2168B8
:104BA0002020094AC86121684B6813404B6084F893
:104BB000410084F84250002084F84050ECE7022085
:104BC000EAE700000024008000E800FE2DE9FC4731
:104BD000044690F8410098469146DDE90A758A46F8
:104BE00020284BD11FB315B320688069C04300044F
:104BF00044D594F84000012840D0012084F84000BA
:104C00002434FFF767FE00262122627740211C4AE8
:104C10002760A1772662E580A260E28819492161B8
:104C2000243CFF2A07D9FF214FF0807506E04FF49E
:104C3000007060640FE0618D4FF0007521851921CF
:104C4000CDE9001043464A465146204602F04EF850
:104C500020B184F840600120BDE8FC8700962B4617
:104C600094F828205146204602F074F9012120468C
:104C700084F8406001F05AFC0020EDE70220EBE7E9
:104C80000000FFFF616B000810B586B004461421D8
:104C90006846FBF717FB16492068884225D115485E
:104CA000016841F00201016000681221012200F058
:104CB00002000590C020032304248DE81F000E4845
:104CC0006946FFF709FD0B481030016841F40011F7
:104CD000016000680022052100F4001005901F20EB
:104CE00000F068F81F2000F057F806B010BD000073
:104CF00000540040303802400004024070477047C2
:104D00000248816802781144816070476400002085
:104D1000032010B500F06EF8002000F005F800F058
:104D200023F8002010BD000070B50D4D04464FF46F
:104D30007A700C4A29781268B0FBF1F0B2FBF0F0FF
:104D400000F0C2FD48B9102C07D200222146501EA7
:104D500000F030F800206C6070BD012070BD0000D4
:104D600064000020700000200A4808B5016841F086
:104D700080510160006800F0805000900548001DDF
:104D8000016841F480410160006800F480400090B7
:104D900008BD000040380240002809DB410900F04E
:104DA0001F028900012001F1E0219040C1F80001BB
:104DB000704700000E4BF0B41B680D46C3F302238E
:104DC000C3F10706042E00D90426191D072901D2B4
:104DD000002300E0DB1E012404FA06F19C40491E7A
:104DE0002940641E994014402143F0BC05F036BCB4
:104DF0000CED00E0064900F0070210B54FF6FF0485
:104E00000868044B204040EA02201843086010BDA7
:104E10000CED00E00000FA051848F8B5016841F013
:104E2000805101600068164C00F0805000902068AE
:104E300040F480302060FFF74DFD4FF47A76054650
:104E400005E000BFFFF746FD401BB0420FD8606889
:104E5000C003F7D5206840F400302060FFF73AFD2A
:104E6000054606E0FFF736FD401BB04201D903209E
:104E7000F8BD60688003F5D50020F8BD40380240D9
:104E8000007000402DE9F84F04460078DFF82494C4
:104E90004FF000063746C0070ED0D9F8001021F4B5
:104EA0000001C9F80010D9F80010626B1143C9F86D
:104EB0000010606B00B90126FE4D206884350003A8
:104EC0000ED5E16B286820F4401008432860E06BA1
:104ED000B0F5801F01D010B102E0012600E00127EB
:104EE00020684FF4800BC0020CD5216C286820F498
:104EF000400008432860206C584501D1012601E09C
:104F000000B901272068C10100D50126800666D5B9
:104F1000E8483830016841F0805101600068DFF8EE
:104F200098A300F080500090DAF8001041F48071EE
:104F3000CAF80010FFF7CEFC804605E0FFF7CAFC78
:104F4000A0EB080064287DD8DAF80000C005F5D58C
:104F5000DFF8608308F16808D8F8000010F44070AA
:104F60002AD0218E01F44071814225D0D8F800105A
:104F7000D8F8002021F4407142F48032C8F80020B3
:104F8000D8F8002022F48032C8F80020C8F80010B9
:104F9000D8F80000C0070FD0FFF79CFC824607E05E
:104FA000FFF798FCA0EB0A0141F288308142CAD891
:104FB000D8F800008007F3D5206BC0F30121032946
:104FC0007ED0D9F8001021F4F811C9F80010228E13
:104FD000D8F80010C2F30B021143C8F80010207873
:104FE000C00607D5286820F0807028602868A16B6B
:104FF000084328602188AF488830490405D5626E8F
:10500000016821F44031114301602188090405D56C
:10501000A26E016821F44021114301602168C90397
:1050200005D5E26E016821F4401111430160216849
:10503000890305D5226F016821F440011143016005
:10504000217800E034E1490605D5626C016821F061
:105050000301114301602178090605D5A26C01689E
:1050600021F00C01114301602188C90505D5E26CCE
:10507000016821F03001114301602188890505D5BF
:10508000226D016821F0C0011143016021884905AA
:1050900005D5626D016821F44071114301602188DA
:1050A000090505D5A26D016821F440611143016035
:1050B0002188C90407D5E26D016821F4405100E060
:1050C0005FE0114301602188890405D5226E0168E3
:1050D00021F44041114301602168490205D5A26FC6
:1050E000016821F080611143016021684FF0006A7E
:1050F000890209D5E26F016821F000611143016066
:10510000E16F514500D1012721680A0700D5012729
:10511000490305D5626F016821F0407111430160B8
:105120002168090206D5D4F88020016821F0805159
:10513000114301602168490106D5D4F88420016833
:1051400021F00051114301602068000106D5D4F818
:105150008810286820F00070084328602068C0008C
:1051600006D5D4F88C10286820F0806008432860A9
:10517000DFF84891012E0ED02068B0F1007F0AD0F0
:105180008FE04F4AD9F80030104023F4F812024360
:10519000C9F800201BE7D9F800004E4620F08060D7
:1051A000C9F80000FFF796FB804605E0FFF792FB89
:1051B000A0EB080064287BD830680001F6D4217881
:1051C0003C487C30C90712D0616B81B9237A626890
:1051D0000168D0F800C09201C1F3014142EA0142E6
:1051E000CCF3036142EA016141EA03710160216885
:1051F0000A0303D5E26BB2F5801F04D0C9021AD5A9
:10520000216C594517D16368016894F80CC0026895
:105210009B01C1F3014143EA0141C2F3027241EA39
:105220000C6141EA027101602968626A21F01F0184
:10523000521E114329602168C90110D5238A626872
:105240000168D0F800C09201C1F3036142EA034251
:1052500042EA0162CCF3027142EA01710160216805
:1052600089010CD56168228A237B94F808C08901E2
:1052700041EA024141EA036141EA0C71016031688F
:10528000B04641F080613160FFF724FB064604E040
:10529000FFF720FB801B64280AD8D8F80000000123
:1052A000F6D5E7B3D9F800004E4620F0805009E06B
:1052B0007BE00000083802400070004000380240E7
:1052C000FFFCFF0FC9F80000FFF704FB074604E0EE
:1052D000FFF700FBC01B642867D83068C04380001C
:1052E000F6D5216835480A0301D5E26B1AB1C90227
:1052F0001DD5216CD9B963690168277E02689B01BD
:10530000C1F3014143EA0143C2F3027143EA076278
:1053100042EA0171016029686FF0FF0300E04BE091
:10532000A26A21F4F85103EB02221143296021689B
:10533000890212D5E16F51450FD1238C6269016852
:1053400007689201C1F3036142EA034242EA016243
:10535000C7F3027142EA017101602178090716D58D
:1053600061690268D0F800C08B01277FC2F3036235
:10537000CCF3014143EA014141EA026141EA07718C
:1053800001602868E16A20F44030084328603068F2
:1053900040F080503060FFF79DFA044608E000BFFF
:1053A000FFF798FA001B642802D90320BDE8F88FA4
:1053B0003068C0438000F3D40020F7E7883802400B
:1053C0002DE9F04705000F4663D0444E306800F0E9
:1053D0000F00B84209D2306820F00F003843306027
:1053E000306800F00F00B84253D128683C4C810768
:1053F00012D5400703D5206840F4E050206028789B
:10540000000703D5206840F460402060A968206848
:1054100020F0F000084320602878C0072AD03049E7
:1054200068680839012810D00968022810D0890757
:1054300000292EDA216821F0030101432160FFF7E2
:1054400049FA804641F288390DE009688903EFE79F
:105450008901EDE7FFF73EFAA0EB0801494502D9C3
:105460000320BDE8F0876868216801F00C01B1EB0A
:10547000800FEFD1306800F00F00B8420BD93068D0
:1054800020F00F0038433060306800F00F00B84261
:1054900001D00120E5E72878400705D5E9682068B4
:1054A00020F4E050084320602878000706D52869DA
:1054B000216821F4604141EAC000206000F036F824
:1054C0002168084AC1F30311515CC84006490860CD
:1054D0000020FFF729FC0020C3E70000003C024049
:1054E0000838024058B200087000002004490548FE
:1054F00009680068044AC1F38221515CC8407047C2
:10550000083802407000002068B2000804490548CD
:1055100009680068044AC1F34231515CC8407047D1
:10552000083802407000002068B20008154910B524
:105530001548096811F00C0213D04110042A0FD04D
:10554000082A0ED10F4C241F2268236802F03F0264
:105550005B0207D52068C0F38810A0FB010106E0BC
:10556000084610BD2168C1F38811A1FB000100238A
:10557000FAF75EFE2168C1F30141491C4900B0FB06
:10558000F1F010BD083802400024F4002DE9F84F76
:1055900005004FF000076ED02878DFF82093A9F1BE
:1055A000040AC007AAF104044CD0D9F800104846F8
:1055B000C1F38101012908D00068C0F381000228ED
:1055C0000AD1DAF80000400206D52068800339D5F8
:1055D00068680028DFD035E06868B0F5803F0BD000
:1055E00010B1B0F5A02F11D0206820F480302060D9
:1055F000206820F4802002E0206840F480302060A1
:10560000686890B1FFF766F906460AE0206840F442
:1056100080202060F0E700BFFFF75CF9801B642862
:1056200072D820688003F7D50CE0FFF753F90646DF
:1056300005E000BFFFF74EF9801B6428F0D8206812
:105640008003F7D42878800742D5D9F8001048465F
:1056500011F00C0F08D00068C0F3810002280BD1B4
:10566000DAF80000400207D42068800718D5E868FF
:10567000012800D114E01EE1E8680028206817D056
:1056800040F001002060FFF725F9064605E000BF65
:10569000FFF720F9801B0228C2D820688007F7D5C1
:1056A0002869216821F0F80141EAC00020600FE07C
:1056B00020F001002060FFF70DF9064605E000BF6D
:1056C000FFF708F9801B02281ED820688007F7D44E
:1056D0002878000729D5794869696C300029804607
:1056E000016812D041F001010160FFF7F3F80646AE
:1056F00005E000BFFFF7EEF8801B022804D8D8F8B9
:1057000000008007F6D510E089E021F0010101607A
:10571000FFF7E0F8064604E0FFF7DCF8801B0228FC
:105720007DD8D8F800008007F6D4287840076BD5DC
:10573000DFF8888108F13808D8F80000C0000BD4E1
:10574000D8F8001041F08051C8F80010D8F80000D7
:10575000012700F08050009059480168C90512D413
:105760000168834641F480710160FFF7B3F8064693
:1057700005E000BFFFF7AEF8801B64284FD8DBF8C8
:105780000000C005F6D54D4EA868683601280AD03D
:1057900008B1052811D0306820F001003060306871
:1057A00020F0040002E0306840F001003060A8689A
:1057B000A0B1FFF78FF883460CE0306840F004009A
:1057C0003060F0E7FFF786F8A0EB0B0141F288307C
:1057D000814268D830688007F4D50EE0FFF77AF888
:1057E000834607E0FFF776F8A0EB0B0141F2883023
:1057F000814258D830688007F4D42FB1D8F800100F
:1058000021F08051C8F80010A869E0B3D9F8001061
:10581000C1F3810102294ED00228206800E042E055
:1058200020F08070206003D0FFF754F805463DE07B
:10583000FFF750F8064604E0FFF74CF8801B0228FB
:1058400031D820688001F7D4D5E90921DFF874C088
:10585000D5E9070695F830304F0895F82C103043FD
:105860000CEB074545EA8212104340EA016040EA2A
:105870000370CAF80000206840F080702060FFF7D5
:1058800029F8054605E014E0FFF724F8401B02283C
:1058900009D820688001F7D50BE000BFFFF71AF8A0
:1058A000401B022802D90320BDE8F88F2068800140
:1058B000F4D40020F8E70120F6E7000008380240A1
:1058C000007000400000FFFF401EB0F1807F10B567
:1058D00001D3012010BD4FF0E02460610F2160175B
:1058E00004F0BCFE0020A0610721216110BD7047BB
:1058F000704770472DE9F04390F83C20012A42D0D0
:10590000012280F83C2051F80C4BDFF880804FF0EA
:10591000000991E8680051E9022723F44073B1F8C7
:105920000CC03B43CF6923F480631343026823F424
:105930000063234323F4805343EA050323F4005315
:1059400043EA060323F4804343EA07030C3923F4B4
:105950007023424543EA0C4302D00D4CA2420CD1C5
:105960008D8C23F47006D1E9073446EA055121F005
:105970008071194321F000732343536480F83C90F5
:105980000020BDE8F0830220FBE70000000001409A
:105990000004014070B590F83C20012A24D0134C3B
:1059A000012580F83C50022280F83D2002685368AF
:1059B000A242966802D00E4CA24203D14C6823F456
:1059C000700323430C6823F0700389681C43546000
:1059D000002326F0800602683143916080F83D5034
:1059E00080F83C30184670BD022070BD00000140B8
:1059F0000004014010B5040003D094F83D0010B13C
:105A000007E0012010BD002084F83C00204600F093
:105A10000DF8022084F83D002068211D04F0C2F931
:105A2000012084F83D00002010BD000008B500688A
:105A30000B49884212D10B48016841F01001016006
:105A400000680022032100F0100000903620FFF7CC
:105A5000B1F9BDE808403620FFF79EB908BD000047
:105A600000100040403802400168094ACB6843F00A
:105A70000103CB60016888681040062806D0B0F5A5
:105A8000803F03D0086840F00100086000207047A4
:105A900007000100704770B50446006800250169E1
:105AA000C943890715D4C168C943890711D4EA1EBF
:105AB000026101212177206880698007204602D099
:105AC000FFF7E8FF04E000F034F9204600F026FA82
:105AD000257720680169C943490717D4C168C943BC
