:020000040800F2
:10000000F01900200D0200082D7F00083D64000853
:10001000C57E0008C11100087B89000800000000AF
:10002000000000000000000000000000957F0008B4
:10003000B5140008000000007D7F0008C17F0008A3
:1000400027020008270200082702000827020008EC
:1000500027020008270200082702000827020008DC
:1000600027020008270200082702000827020008CC
:10007000270200082702000827020008F9130008D9
:100080002702000827020008310C00082702000898
:10009000270200082702000827020008270200089C
:1000A000270200082702000827020008270200088C
:1000B0002702000827020008270200084164000800
:1000C000270200082702000827020008270200086C
:1000D000270200082702000827020008270200085C
:1000E000270200082702000827020008270200084C
:1000F000270200082702000827020008270200083C
:10010000270200082702000827020008270200082B
:100110001984000827020008B98000082702000897
:10012000051400082702000827020008270200081B
:10013000270200082702000827020008F111000822
:10014000D9110008E511000827020008270200085D
:1001500027020008270200082702000827020008DB
:1001600027020008270200082702000827020008CB
:1001700027020008270200082702000800000000EC
:1001800027020008270200082702000827020008AB
:10019000270200082702000827020008270200089B
:1001A000270200082702000827020008270200088B
:1001B000270200082702000827020008270200087B
:1001C000270200082702000800000000270200089C
:1001D000270200082702000827020008270200085B
:1001E000270200082702000827020008270200084B
:1001F0002702000827020008DFF80CD000F09CF866
:1002000000480047C18D0008F019002006488047CB
:1002100006480047FEE7FEE7FEE7FEE7FEE7FEE7EB
:10022000FEE7FEE7FEE7FEE765800008F90100084B
:100230002DE9F05F0546002092469B46884606461B
:10024000814640241BE0284641464746224600F0AE
:1002500062F853465A46C01A914110D311461846C7
:10026000224600F049F82D1A67EB01084F46224656
:100270000120002100F040F817EB00094E41201E3C
:10028000A4F10104DFDC484631462A464346BDE876
:10029000F09F40EA01039B0703D009E008C9121F41
:1002A00008C0042AFAD203E011F8013B00F8013B30
:1002B000521EF9D27047D2B201E000F8012B491E5C
:1002C000FBD270470022F6E710B513460A460446F3
:1002D0001946FFF7F0FF204610BD30B50546002057
:1002E000034600E05B1C934205D2EC5CC85C201A1C
:1002F00001D1002CF6D130BD202A04DB203A00FACF
:1003000002F1002070479140C2F1200320FA03F36C
:10031000194390407047202A04DB203A21FA02F06A
:100320000021704721FA02F3D040C2F1200291402F
:100330000843194670470000064C074D06E0E06888
:1003400040F0010394E8070098471034AC42F6D31C
:10035000FFF756FFA0940008C09400082DE9F05F55
:10036000DFF82484022601254FF0050B4FF0000929
:100370002DED028BB8F8DC0DB8F8F21D884279D06B
:10038000B8F8DE0DB8F8F41D884273D001F01EF9FC
:1003900000204C46A8F8929E01F01CF8B8F8DE0D3B
:1003A000F0B1032827D001283BD088F8D04F02288D
:1003B00088F8CF4F88F8CE4F46D088F8CBBFB8F832
:1003C000DC1DA8F8F21DA8F8F40D08F077FB08F082
:1003D00059FB00BF88F8CD5FBDEC028BBDE8F09FF4
:1003E00088F8D04F88F8CF4F88F8CE4F88F8CBBF29
:1003F00008F0C2FBEEE788F8D04F88F8CF4F88F8B6
:10040000CE4F88F8CBBF08F0B7FB98F8CD0F022885
:10041000E2D088F8CD6FBDEC028BBDE8F05F01F053
:10042000C5B888F8D04F88F8CF4F88F8CB5FB8F8B8
:10043000D80DA8F8DC0EB8F8DC0DA8F8F20DA8F875
:10044000F45D88F8CE6F11E088F8CB6FB8F8E00D56
:10045000A8F8E00EB8F8DC0DA8F8F20DA8F8F46DD5
:1004600098F8D40F0128B7D088F8D45FA8F8924E36
:1004700018E0FFE7C44C192798F8CE0F012894F82C
:10048000D0CFB4F8DC3EB4F8DA2DB4F8D81D04F5BA
:1004900000640FD002289FD1994201D0012A7BD05D
:1004A000A8F8929E08F00AFBBDEC028BBDE8F05F55
:1004B00008F0E8BA98F8CF0F012808D002288BD1AD
:1004C00088F8CF9F88F8CE6FA8F8929EEAE7994205
:1004D00000D07AB1C2469FEDAD8BAB48BCF1060FA0
:1004E000B0F8E40EBFF478AFDFE80CF0030B93E84C
:1004F000FAF971E7A8F8DC1E88F8D09F88F8CF6F6A
:10050000E9E001287FD89942D04675D0022A73D1FC
:100510000B2008F093FBB8F8E81D88426CDCB8F8B3
:10052000D81D0020A8F8DC1E88F8D0BFA8F8926E6D
:1005300008F084FB00EE100AB8EEC00B84ED2C0B23
:10054000B4EEC80BF1EE10FA0CD2B5EEC00BF1EE22
:1005500010FA05DBBCEEC00B10EE100AC0B202E0D0
:10056000002000E0FF2000F035FF022008F066FBCD
:1005700090FBF7F0C8F8A40C002008F05FFB0546DC
:10058000012008F05BFB002D014606DB6FF0004008
:100590002A1A914209DB07E0D3E005F100408142CD
:1005A00002DD4FF0004000E0681A6FF0004280FB6F
:1005B00007500021521B814102DA6FF0004507E02D
:1005C0004FF00041691A70F1FF3001DA4FF0004539
:1005D000022008F033FB00EE100AB8EEC01B00EE5C
:1005E000105AB8EEC00B80EE012B84ED2E2BA8F82C
:1005F000E47EF1E607E0FFE788F8D05FA8F8925EB6
:10060000A8F8E47E7CE0401E00D50020AAF8E40EA5
:1006100079E0012855464BD8D5F8A40C002806DD12
:10062000012008F00BFB95F8B21F884211DB002077
:1006300000F0D0FE00F0CAFF032085F8D00FA5F827
:10064000E47EB5F8F00DFF2800D9FF2085F8F00F03
:1006500047E085F8D06F94ED2C0B94ED2E1B30EE17
:10066000410B84ED2C0BB4EEC80BF1EE10FA0DD259
:10067000B5EEC00BF1EE10FA06DB00BFBCEEC00B0E
:1006800010EE100AC0B202E0002000E0FF2000F0EF
:10069000A1FED5F8A40C4FF00041884202DCC5F859
:1006A000A41C02E0401EC5F8A40CA5F8E47E93E665
:1006B000401E00D50020AAF8E40E8DE6BAF8F01D21
:1006C0005046DAF8202991420BDB082909D080F83E
:1006D000D09F8AF8CF6F00F079FF00204EE018E03D
:1006E00005E0BDEC028BBDE8F05F08F067B90128BA
:1006F0005146DDD881F8D05FA1F8925EAAF8E47E79
:10070000642000F067FEBDEC028BBDE8F05F08F0EE
:10071000D5B901285546CBD885F8D06F94ED2C0B70
:1007200094ED2E1B30EE410B84ED2C0BB4EEC80B78
:10073000F1EE10FAAAD2B5EEC00BF1EE10FAA3DB7F
:100740009CE7A8F8DC1EBCF1040F9FED120B88F8A3
:10075000CE5FA8F8E49E84ED2C0B84ED2E0BC8F838
:10076000A49C88F8CF5FA2D0042088F8D00FA8F806
:10077000925EA8F8E47E00F019FF6420BDEC028BC5
:10078000BDE8F05F00F026BE180400200000000065
:100790000000704000000000000000002DE9F04F54
:1007A000F848052701254FF0020800262DED028BA1
:1007B00083B0B0F8DC1DB0F8F22D91427CD0B0F8D7
:1007C000DE1D0446B0F8F42D914275D000F0FEFE17
:1007D0000020A4F8926E00F0FDFDB4F8DE0DF0B13B
:1007E000032825D0012832D0022847D008F0D6F9B6
:1007F00084F8CB7FB4F8DC0DA4F8F20DB4F8DE0D6C
:10080000A4F8F40D04F6DC5408F058F908F03AF9AD
:1008100084F8F15103B0BDEC028BBDE8F08F08F015
:10082000BDF984F8CB7F08F0A7F984F8CD5FF1E734
:1008300008F0B4F984F8CB7F08F09EF994F8CD0F56
:100840000228E7D084F8CD8F00F0B0FEE2E708F090
:10085000A5F984F8CB5FB4F8D81DA4F8DC1EB4F871
:10086000DC1DA4F8F21DB4F8DE1DA4F8F41D94F804
:10087000CE1F0229CED084F8CE8F15E008F08EF975
:1008800084F8CB8FB4F8E01DA4F8E01EB4F8DC1DAA
:10089000A4F8F21DB4F8DE1DA4F8F41D94F8D41FDA
:1008A0000129B7D084F8D45FA4F8926E08F006F955
:1008B00008F0E8F8AEE7FFE7B24C824690F8D4CFF4
:1008C0004FF0190904F1A00BBCF1060F94F8D53FC5
:1008D000B4F8E00DB4F8E02EB4F8E21D9AD2DFE8E7
:1008E0000CF0030481FDFCFB94E79042544676D063
:1008F000012974D1A4F8E00EB4F87E0E18B30128D3
:1009000038D0022850D084F8D47FA4F8EE6E94F842
:10091000EE0F012805D084F8EE5F84F8225084F8A9
:10092000215094F8EF0F052890D084F8EF7FA4F8B9
:10093000925EAAF8EE9E00BF00F038FE5FF0640001
:1009400000F048FD66E78AF8D48F012BA4F8E86E22
:1009500004D0584684F8D55F06F0DEFF94F8D61F21
:1009600020460529A6D080F8D67FA0F8925EA4F88C
:10097000E89EE1E7032084F8D40FA4F8EA6E94F827
:10098000EC0F012805D07F4884F8EC5F783006F042
:10099000C3FF94F8D90F05288CD084F8D97FA4F828
:1009A000925EA4F8EA9EC7E7042084F8D40FA4F866
:1009B000EC6E94F8ED0F012805D0724884F8ED5FD5
:1009C000283006F0A9FF94F8DA0F05288CD084F8B7
:1009D000DA7FA4F8925EA4F8EC9EADE7FFE7AAF8F0
:1009E000926E63E7012B544606D0022BAAD184F8FD
:1009F000D56F84F8D45FF2E7904200D081B19FEDCB
:100A0000628B604B4FF0410A94F8D67F062FB3F803
:100A1000E83E97D2DFE807F0030B4D768C9DF9E6B0
:100A2000A4F8E00E84F8D66F8AF8D58F8AE0012BFF
:100A300037D890427BD0022979D10B2008F006F9F3
:100A4000B4F8E81D884272DCB4F8E00D5A46A4F808
:100A5000E00E6946A4F8928E9FED4D0B4E4D6868EE
:100A600006F0C2FE84F8D68F5A4668686946B7EE2B
:100A7000000B06F0B9FE9DED000BB4EEC80BF1EED5
:100A800010FA0AD2B5EEC00BF1EE10FA2CDB00BF63
:100A9000BCEEC00B10EE100A00E0FF2084F8B20F8D
:100AA000B8E65B1E00D50023A4F8E83E08F006F87F
:100AB000B0E694F8B20FD0B137485A46B7EE000B03
:100AC0006946406806F090FE9DED000BB4EEC80B41
:100AD000F1EE10FAE1D202E060E04FE04BE0B5EE5B
:100AE000C00BF1EE10FAD3DA84F8B26F92E6002070
:100AF00000F070FC0320A4F8920E84F8D60FA4F83E
:100B000094AE87E6A4F894AEB4F8E60D0F2886D329
:100B100000F05CFD042184F8D61FA4F8E89EB4F828
:100B2000F00DFF2800D9FF2084F8F00F0EE012E04E
:100B3000B4F8F00D052809D3082807D084F8D66F3B
:100B400084F8D58F00F042FD0020F9E607F06CFF35
:100B500060E6012B09D884F8D65F6420A4F8925E81
:100B6000A4F8E89E00F036FCA0E75B1E00D5002349
:100B7000A4F8E83E4EE606F061FA4BE606F056FBB6
:100B800048E600001804002000000000000070404B
:100B900000000000000000006C93000806F03EFC1E
:100BA00038E610B50146806B026C12F0500F05D08C
:100BB000026CD20626D502F00EFE10BD016C41F487
:100BC0000071016401688A6812F0405F17D1826980
:100BD000AAB9CA6A12F4700F02D08A6852050ED4FC
:100BE0004A6822F020024A60016C21F4807101649D
:100BF000016CC90403D4016C41F00101016402F0ED
:100C0000DFFD10BD806BC26C0846BDE81040104788
:100C100010B5806B40210164416C41F004014164D6
:100C200002F0D9FD10BD10B5806B02F0D3FD10BDF0
:100C3000014802F0D1BD0000A00000204A496FF039
:100C4000706210B5D1F8043323F44033C1F8043393
:100C5000D1F8043344682343C1F8043301684B6876
:100C600023F480734B60016803694C6844EA0323F2
:100C70004B6001684B6823F040734B6001688468E7
:100C80004B6823434B6001688B6823F400638B60DF
:100C90000168C4688B6823438B60816AD142016814
:100CA0008A6822F070628A6001680DD0836A8A685F
:100CB0001A438A6001688A6822F040528A6001689B
:100CC000C36A8A681A4302E08A6822F040528A6046
:100CD00001688A6822F002028A60016882698B6872
:100CE00043EA42028A6090F820100029016811D07E
:100CF0001E4A4B6843F400634B6001684B6823F461
:100D000060434B600168446A4B6802EB4432134312
:100D10004B6003E04A6822F400624A600168144BA9
:100D2000CA6A22F47002CA620168848BCA6A03EB41
:100D300004531A43CA6201688A6822F400728A6006
:100D4000016890F830208B6843EA42228A6001688B
:100D50008A6822F480628A60016840698A6842EA8F
:100D60008020886010BD00000020014000E0FFFFEF
:100D70000000F0FF2DE9F05FDFF830840226012546
:100D80004FF0050B4FF000092DED028BB8F8DC0D8C
:100D9000B8F8F21D88427CD0B8F8DE0DB8F8F41D22
:100DA00088427AD000F012FC00204C46A8F8929EAF
:100DB00000F010FBB8F8DE0DF0B1032827D00128B1
:100DC0003BD088F8D34F022888F8D24F88F8D14F0B
:100DD0004CD088F8CBBFB8F8DC1DA8F8F21DA8F8F5
:100DE000F40D07F06BFE07F04DFE00BF88F8CD5FF5
:100DF000BDEC028BBDE8F09F88F8D34F88F8D24F46
:100E000088F8D14F88F8CBBF07F0B6FEEEE788F838
:100E1000D34F88F8D24F88F8D14F88F8CBBF07F06E
:100E2000ABFE98F8CD0F0228E2D088F8CD6FBDEC6C
:100E3000028BBDE8F05F00F0B9BB88F8D34F88F8AB
:100E4000D24F88F8D14F88F8CB5FB8F8D80DA8F802
:100E5000DC0EB8F8DC0DA8F8F20DA8F8F45D98F8EF
:100E6000CE0F0228C4D088F8CE6F11E088F8CB6F7F
:100E7000B8F8E00DA8F8E00EB8F8DC0DA8F8F20D0F
:100E8000A8F8F46D98F8D40F0128B1D088F8D45F91
:100E900000E002E0A8F8924E1DE0C44C192798F833
:100EA000D12F012A94F8D31FB4F8E00DB4F8E0CEA6
:100EB000B4F8E23D04F5006415D0022A98D198F800
:100EC000D22F012A33D0022A92D188F8D29F88F8F3
:100ED000D15FA8F8929E07F0F1FDBDEC028BBDE852
:100EE000F05F07F0CFBD604501D0012B02D0A8F81C
:100EF000929EF0E79FEDAE0BA8F8E00E042988F86B
:100F0000D16FA8F8E69E84ED300B84ED320BC8F863
:100F1000A89C88F8D25F87D0042088F8D30FA8F85F
:100F2000925EA8F8E67E00F041FB642004E1604593
:100F300000D073B1C2469FEDA08B9C4A0629B2F83F
:100F4000E62EBFF455AFDFE801F0030B92E7FDFC9E
:100F50004EE7A8F8E00E88F8D39F88F8D26FE8E053
:100F6000012A7ED86045D04674D0022B72D10B2066
:100F700007F06CFEB8F8E81D88426BDCB8F8E01D9D
:100F80000020A8F8E01E88F8D3BFA8F8926E07F0FA
:100F90005DFE00EE100AB8EEC00B84ED300BB4EE2F
:100FA000C80BF1EE10FA0CD2B5EEC00BF1EE10FA50
:100FB00005DBBCEEC00B10EE100AC0B202E0002050
:100FC00000E0FF2000F006FA022007F03FFE90FB51
:100FD000F7F0C8F8A80C002007F038FE05460120FD
:100FE00007F034FE002D014605DB6FF000402A1AA1
:100FF000914208DB06E005F10040814202DD4FF03E
:10100000004000E0681A6FF0004280FB07500021AA
:10101000521B814102DA6FF0004507E04FF00041BA
:10102000691A70F1FF3001DA4FF00045022007F035
:101030000DFE00EE100AB8EEC01B00EE105AB8EE1E
:10104000C00B80EE012B84ED322BA8F8E67ECFE6B4
:1010500007E0FFE788F8D35FA8F8925EA8F8E67E7D
:1010600082E0521E00D50022AAF8E62E7FE0012A77
:1010700055464BD8D5F8A80C002806DD012007F00E
:10108000E5FD95F8B21F884211DB002000F0A2F9BF
:1010900000F09CFA032085F8D30FA5F8E67EB5F89A
:1010A000F00DFF2800D9FF2085F8F00F4DE085F8FE
:1010B000D36F94ED300B94ED321B30EE410B84ED89
:1010C000300BB4EEC80BF1EE10FA0DD2B5EEC00B3A
:1010D000F1EE10FA06DB00BFBCEEC00B10EE100AFA
:1010E000C0B202E0002000E0FF2000F073F9D5F864
:1010F000A80C4FF00041884202DCC5F8A81C02E0B1
:10110000401EC5F8A80CA5F8E67E71E6521E00D573
:101110000022AAF8E62E6BE6BAF8F01D5046DAF87F
:10112000C029914211DB08290FD080F8D39F8AF89B
:10113000D26F00F04BFA0020BDEC028BBDE8F05FEF
:1011400001E01AE007E000F045B9BDEC028BBDE814
:10115000F05F07F069BC012A5046D7D880F8D35F0A
:10116000A0F8925EAAF8E67E642000F033F9BDECA8
:10117000028BBDE8F05F07F0A1BC012A5546C5D837
:1011800085F8D36F94ED300B94ED321B30EE410BAC
:1011900084ED300BB4EEC80BF1EE10FAA4D2B5EE2C
:1011A000C00BF1EE10FA9DDB96E70000180400205A
:1011B000000000000000000000000000000070407F
:1011C000FEE7000003480168002008640C21014884
:1011D00004F078BE98020020014802F05ABE0000D8
:1011E000A4010020014802F054BE0000A401002028
:1011F000014802F04EBE0000A40100202DE9F0419C
:10120000314C012600254FF4FF484FF4C1412F48CF
:101210000E27C4E9065684E82201E5602146C4E9A8
:101220000457C4E9086702F025FD14344FF4C341A4
:101230000F22264884E86400143C84E82201E5601B
:1012400021462561C4E9086702F014FD1434112217
:10125000B00384E8640044E905054FF4FE411B48EF
:1012600044E9031544F8045CC4E903671649143CD7
:1012700002F000FD143447F6C0711222F00384E836
:10128000640044E9050544E9031544F8045CC4E935
:1012900003670D49143C0D4802F0ECFC152247F69B
:1012A000E0713803143484E8640044E9050544E936
:1012B000031544F8045CC4E90367BDE8F041024942
:1012C000024802F0D7BC000048010020A401002021
:1012D00010B5094C2068016841F0010101600A2045
:1012E00003F0BAF9206800210268016020684168B3
:1012F000C907FCD110BD0000A401002010B5FFF704
:101300007DFF0848012102F037FC0648022102F067
:1013100033FC0448102102F02FFCBDE810400148C6
:1013200002F0D4BFA401002008B564208DF80000AD
:10133000684600F029F80248042104F0C3FD08BD06
:101340005802002090ED000B9FED0A3B9FED0C2B07
:101350000A4880EE031B90ED030A0168B8EE400BCB
:1013600031EE021B21EE000BBDEEC00B10EE100A99
:10137000886370470000000000409F405802002032
:101380009A9999999999A93F01789FED0D2B00EEB3
:10139000101A9FED0E1B0C48B8EE404BD0ED030A1F
:1013A000016884EE023BB8EE600B33EE011B21EEC8
:1013B000000BBDEEC00B10EE100A886370470000F2
:1013C0000000000000409F40580200209A9999991F
:1013D0009999A93F0649642881F8B20F00D3642087
:1013E000C0F1640081F8BC0F0248FFF7CDBF0000D8
:1013F00018040020D4130020014802F0ADBF000003
:10140000B8030020014802F0A7BF0000E800002058
:1014100001681823CAB2103AB2FBF3F2054B6FF31E
:101420000901032A9B5CC36500D9091D8165084633
:10143000704700008094000810B583694FF0C074B5
:10144000826A0146002053B1B3F5005F15D072B136
:10145000012A0CD0022A0AD0032A09D104E01AB1C9
:10146000012A06D0022A03D1C96AC90100D5012088
:1014700010BDC96AA142FAD010BD002AF7D0012AD6
:10148000F2D0022AF3D0032AF3D010BD30B504689D
:10149000256825F480252560046863608368402BF7
:1014A000036803D099600068C26030BD9A6000682C
:1014B000C16030BD70470000FEB500240D4610210C
:1014C00006460848224603F0D1F964203470012111
:1014D000009501232246CDE901100348A02103F025
:1014E00095FAFEBD00040240CC010020FEB515783F
:1014F00050220F781C4601786426089B42EA11109E
:1015000047EA01118DE86800CAB241000248012390
:1015100003F07CFA2070FEBDCC0100202DE9FC47D1
:101520000078174609785022DDE90A9842EA10143B
:101530000F4D41EA0010C6B20020195C2954401C2E
:101540001028FADB0B480022102103F08FF900214C
:1015500088F800103878610001233246CDE9005048
:10156000054803F005FB89F80000BDE8FC87000092
:101570008E00002000040240CC01002010B500F0D5
:1015800025F8BDE8104000F019B80000002202481C
:10159000102103F06BB90000000C02400278082112
:1015A000014803F063B90000000C02400022024829
:1015B000042103F05BB90000000C02400122024844
:1015C000102103F053B90000000C02400122024830
:1015D000042103F04BB90000000C024070B5054631
:1015E0000C46084600F004F82078287070BD000012
:1015F0000121017002480A46490203F037B9000090
:10160000000802400021017002480A464FF40071B0
:1016100003F02CB900080240704700002DE9FF4F8D
:1016200087B0944605460078DDE91631DDE914A25D
:10163000DDE91FB4DDE91A76DDE91898572838D0BE
:1016400052283FD04C2868D045282FD15C226146D3
:101650004846FEF71EFE0021C9F85C10C8F8341099
:101660000846C8F83810C8F83C10089A52F82030DC
:1016700048F820300A9A52F8202047F82020401CD1
:101680000D28F2DB79630020DAF800203260B963BC
:10169000DAF804207260F963DAF80820C6F8082046
:1016A00006EB8002401C0528D160F9DB0BB0BDE8D9
:1016B000F08FCDE900212B1DEA1CA91C681CFFF747
:1016C0002DFFF3E71C981CAE6A7802701D98AA786B
:1016D00002701E98EA780270CDF800B096E8070014
:1016E000FFF704FF1C980178002084F890101D99E2
:1016F000097884F891101E99097884F8921000BF37
:1017000022181BF80010401C102882F89310F7DBF9
:1017100004F1900007F0E0FBC8E704F180000090BE
:10172000EA1CA91C681C04F1A303FFF7DFFE94F870
:10173000A30094F8A410884267D000200DF108019E
:1017400004EB400292F8813092F8802003EB0222F1
:1017500021F81020401C0828F2DB687801280ED000
:1017600002280CD003280AD005281BD0062819D03F
:1017700008282AD0092828D00B283BD045E0C006ED
:10178000020ED01F904200D90020002252FA80F3AE
:1017900004EB430331F81250521C082A23F8025C70
:1017A000F4DB32E0C0002038C0B2C21F824200D950
:1017B0000022002050FA82F304EB430331F810506A
:1017C000401C0828DD85F5DB1FE0C0003838C0B2BA
:1017D000C21F824200D900225FF0000050FA82F35B
:1017E00004EB430331F81050401C0828A3F84E5076
:1017F000F4DB0AE05FF0000004EB400331F8102056
:10180000401C0828A3F87020F6DB002034F81020D4
:1018100049F82020401C1828F8DB002004EB400188
:10182000B1F8502047F820200A8E48F82020401CAC
:101830001028F3DB5FF0000004EB4001B1F87010FA
:1018400046F82010401C0828F6DB2FE70348C16843
:10185000006841630021014804F034BB18020020F5
:101860002DE9F0474C4A4FF0FF354FF00109A2F542
:1018700080682DED028BB7EE008B02F5806482ED5F
:10188000F88B84ED2A8BC8F8A05C02F5F06502F5B0
:10189000D460424684ED368B88F8F79F022388F89F
:1018A000F33F602100F1600782F86C9100F1A0061F
:1018B000FEF708FD40213846FEF704FD4021304682
:1018C000FEF700FD0020014645F82010401C0828C6
:1018D000FADB3248074606F013F830482838064647
:1018E00006F00EF82D487838054606F009F82B4822
:1018F000A03806F005F82A4884ED208B07F0AEF9F1
:101900002748343007F0E6F92548903007F0C8F949
:101910002348C43007F0BCF9224A511E481EFFF785
:10192000CBFD2048401C07F013FBFFF74BFCFFF7F3
:10193000E5FCFFF7F9FCFFF721FEFFF787FF01F059
:10194000B9FD05F06BFB05F06FFB06F025FB06F01B
:101950002DFB98F8D50F4446012802D1384605F0F2
:10196000DBFF94F8EC0F012802D1304605F0D4FFDC
:1019700094F8ED0F012802D1284605F0CDFF94F828
:10198000EE0F012803D184F8229084F82190BDEC59
:10199000028BBDE8F087000018080020B804002082
:1019A000E80D0020C51300202DE9F04F40222DED59
:1019B000068BABB0FE492891A1F52C70FEF769FCAF
:1019C000FB49602240312791A1F52C70FEF761FCA4
:1019D000F7494022A0312691A1F52C70FEF759FC61
:1019E000F44A13AB92F9F10E02EB8000B0F83C1E02
:1019F000A2F8D41DB0F83E0EA2F8D60D92F8C50F8D
:101A000082F8A60F92F9F20E02EB8000B0F8441EA5
:101A1000A2F8D81DB0F8460EA2F8DA0D92F8C60F5B
:101A20002A9092F9F30E02EB8000B0F84C1EA2F857
:101A3000DC1DB0F84E0EA2F8DE0D92F9F40E02EBAA
:101A400080010020B1F8544EA2F8E04DB1F8561EC6
:101A5000A2F8E21D02EB8001D1F8801C43F82010AF
:101A6000401C0828F6DB92F8C71F002082F8A71F49
:101A700092F8C81F299192F8C91F82F8A81F92F9FD
:101A8000F51E01EBC101431802EB800402EB830356
:101A9000D3F8643D401C0928C4F8B03CF3DB92F94C
:101AA000F61E0020C1EBC101431802EB400402EB1B
:101AB0004303B3F85C3E401C0728A4F8E43DF3DB85
:101AC000BD4D0023B2F8D80EA5F58064A2F87E0EB5
:101AD00095ED260B84EDF40B95ED280B84EDF60BBC
:101AE000B2F8DA0EA2F8800E92F9F70E00EB800041
:101AF0008600991903EB830001EB810102EB800062
:101B000002EB810191F8757101F2751180F89574FD
:101B10005B1C142B4F7880F896748F7880F897743C
:101B2000CF7880F898740F7980F899744F7980F89D
:101B30009A748F7980F89B74CF7980F89C740F7AAF
:101B400080F89D744F7A80F89E748F7A80F89F7425
:101B5000CF7A80F8A0740F7B80F8A1744F7B80F857
:101B6000A2748F7B80F8A374CF7B80F8A4740F7C61
:101B700080F8A5744F7C80F8A6748F7C80F8A774D9
:101B8000C97C80F8A814B4DB95ED2A1B9FED8B0B64
:101B900088484FF0FF3384EDF81B00F2B5721D92B8
:101BA00095ED221BB7EE008BB2EE04AB01464FF071
:101BB00004089FED849B21EE000B00F53462129225
:101BC000403A00F52A60CDE9100230EE080BBCEE79
:101BD000C00B10EE100A81F8AF0FB1F8D20EA1F8C9
:101BE000900EC1F8A03C91F8CA0FE8B10C4694F8E9
:101BF000CC0F08B105F006FD94F8DC0F08B106F033
:101C000063F994F8DE0F08B101F0D4FA94F8E90F03
:101C1000002871D094F8E80F6C4901285ED00228A2
:101C200072D0032868D16FE0624C0126002784F847
:101C3000CA6F84F8CC6FA4F8DC7EA4F8DE7EA4F82A
:101C4000E07EA4F8E27E94F8CB0F042803D084F859
:101C5000CB8F06F0E1FE84F8DC6F84F8DB6F94F83C
:101C6000DE0F012803D084F8DE6FC4F8AC7C94F852
:101C7000DD0F042803D084F8DD8FC4F8AC7C03208A
:101C800084F8E96F84F8F17F84F8F27F84F8E80F34
:101C900094F8EB0F012801D084F8EB6F94F8EA0F69
:101CA000012803D084F8EA6F06F076F984F8E76F2C
:101CB00085ED349B94F8E60F022804D0022084F8C6
:101CC000E60F85ED348B84F8D86F94F8D70F012890
:101CD00003D084F8D76F84F8B37F3BE394F8F20F16
:101CE00058B194F8A62F94F8F13F9A4212D1401EB1
:101CF00000D5002084F8F20F18E0022084F8E80FE5
:101D00003348FFF77FFC11E094F8A62F94F8F10F09
:101D100082420BD0012084F8E80F22A8FFF75EFC76
:101D200094F8A61F642084F8F11FE3E794F8EB0F02
:101D300028B194F8EA0F012801D106F02DF91D48C9
:101D400090F8E70F00280CD01A4F97F8E60F0128FB
:101D500002D0022805D105E0022087F8E60F85EDC4
:101D6000348BE0E295ED340BB4EECA0BF1EE10FAD1
:101D70007DDB1048012300214FF0050C00F6967220
:101D80000092203287F8E63F97F8F36F941E039293
:101D9000521E019200F694222592343A00F1C809AD
:101DA0001C92903A00F6047A00F5386B12E00000BD
:101DB000B80F002018040020180C00200B4C9106CE
:101DC0001B2ECF3F00000000000000008605002011
:101DD000CF130020062E1B9200F604200E901EAAA0
:101DE0007ED2DFE806F07D030695F7F687F8F3CF9D
:101DF00099E297F8AC0FFF281FD0AA285DD00020E9
:101E000087F8F33F1154401C1028FBDB002300929D
:101E100045201A46194606F099FE24AA23AF0997D1
:101E2000129F22A9CDE90A2A119ACDF83090CDE966
:101E300007B1CDE9052710996EE287F8F38FAA2242
:101E400087F8971F87F8981F87F8991F87F89A1FB8
:101E500087F89B1F87F89C1F87F89D1F87F89E1F98
:101E600087F89F1F87F8A01F87F8A11F00E056E2A0
:101E700087F8A21F012387F8A31F572087F8A41F04
:101E800087F8A51F87F8F61F87F8F48F87F8962F35
:101E90000022114606F05AFE24AB23AA22AECDE959
:101EA0000923129A05ABCDE90BA91198089683E88E
:101EB000050810980294049021E0032087F8F30F9E
:101EC00087F8F61F002087F8F58F1154401C102862
:101ED000FBDB491CFF290E4600D9FF21102300E03F
:101EE000F9E14C200092002206F030FE24AA23AB38
:101EF000CDE909325FE000BF87F8F66F13E225985D
:101F000000900E9A1B99DDE91C30FFF787FB0AE26F
:101F100097F8F50F01280CD0022830D003284DD0B7
:101F200097F8F60F03287BD387F8F53F87F8F68FED
:101F3000F9E197F8F66F062E02D30320072143E05C
:101F400000201154401C1028FBDB761CFF2E30466D
:101F500000D9FF200092C1B2102300224C2006F0CD
:101F6000F5FD24A823A9CDE90910CDE90BA9DDE9E8
:101F7000111222A8CDE907B0CDE905124BE097F880
:101F8000F66F0B2E02D387F8F51F2FE700201154B0
:101F9000401C1028FBDB761CFF2E304600D9FF20AA
:101FA0000092C1B2102300224C2006F0CFFD24A8DD
:101FB00023A9CDE90910CDE90BA925E097F8F66F23
:101FC000092E08D302200A2187F8F50F87F8F61F9B
:101FD000A9E169E153E000201154401C1028FBDB0B
:101FE000761CFF2E334600D9FF230092D9B210236E
:101FF00000224C2006F0AAFD0DF12408CDF8309007
:1020000024A923A888E80304DDE9112322A8CDE947
:1020100007B0CDE9052310980294049037E1FFE75B
:102020000023D1545B1C102BFBDB401CFF2800D984
:10203000FF200092C1B2102300224C2006F086FD42
:1020400024AA23AB22A8CDE90932CDE90BA9DDE909
:102050001123CDE907B0CDE905231099029404912D
:10206000259800900E9A1B99DDE91C30FFF7D6FAEF
:1020700097F8F60FC1E000BF87F8F60F53E197F825
:10208000F40F012813D0022834D003287ED004286E
:102090007AD097F8F60F032877D387F8F61F87F8DA
:1020A000F43F1B98B2EE0A0B07F016F83BE197F8E5
:1020B000F60F022808D387F8F61F032087F8F40FDD
:1020C0001C98B2EE0A0BEFE706F09EFD97F8F60FAC
:1020D000401DFF2800D9FF20C1B210230022572045
:1020E00006F034FD09A9CDF8309024AA23A881E890
:1020F00005046FE097F8F60F28B387F8F41F032064
:1021000087F8F30F002087F8F61F87F8F58F115432
:10211000401C1028FBDB491CFF2900D9FF2100923D
:10212000102300224C2006F011FD24A823A9CDE99C
:102130000910CDE90BA9DDE9111222A8CDE907B0FC
:10214000CDE905124CE006F05FFD97F8F60F0B3075
:10215000FF2800D9FF20C1B210230022572006F02B
:10216000F5FC09A9CDF8309024AB23A881E8090437
:10217000DDE9112322A8CDE907B0CDE905231099A7
:10218000029404912FE001E03DE061E097F8F60F42
:1021900002280AD387F8F61F022087F8F40F259843
:1021A000B0EE080B06F0E0FEBDE006F02DFD97F85E
:1021B000F60F0830FF2800D9FF20C1B210230022FB
:1021C000572006F0C3FC09A9CDF8309024AB23A812
:1021D00081E8090422A8DDE91123CDE907B034E044
:1021E000109802940490259800900E9A1B99DDE9AE
:1021F0001C30FFF713FA97F8F60F401CFF287FF604
:102200003BAFFF2038E787F8F4CF0E98B3EE070B0B
:1022100006F006FF97F8F60F06F0F6FC97F8F60FB3
:10222000401CFF2800D9FF20C1B2102300225720F4
:1022300006F08CFC24A823A9CDE90910CDE90BA94F
:1022400022A9DDE91123CDE907B1CDE90523C7E7CF
:1022500006F0DAFC97F8F66F761CFF2E304600D9B0
:10226000FF20C1B210230022572006F06FFC24AAE1
:1022700023AB22A8CDE90932CDE90BA9DDE9112371
:10228000CDE907B0CDE90523109902940491259872
:1022900000900E9A1B99DDE91C30FFF7BFF9FF2E65
:1022A0007FF62AAEFF2627E695ED380BB4EE480BF5
:1022B000F1EE10FA09D197F8B51F97F8F70F8142A0
:1022C00003D0062087F8F30F2DE024AA23A922A823
:1022D00006F066FF27E095ED380BB5EEC00BF1EE8A
:1022E00010FA3FF452AE85ED389B4C2387F8B53792
:1022F00024AA87F8B71723AE4FF0100C87F8B8C799
:1023000022A8CDE90962CDE90BA9DDE9112305AECB
:1023100086E80C081099089002940491EFE530EEDD
:10232000080B85ED340B844890F8D81F91B190F8D4
:10233000D71F012902D002290CD12BE0002180F8FF
:10234000B31F139931B1022280F8D72F012100BFAA
:1023500080F8B31F95ED3A0B774C30EE080BB4F8CC
:10236000E40D85ED3A0B94F8F82F29998A4209D0AB
:1023700085ED1E0B85ED3A9B84F8F81FB4F8D41E4A
:10238000A4F8961E6D4E86ED5A9B94F8B31F012952
:1023900002D051E00121DBE786ED5A8B94F8A71FAC
:1023A00019B10020A4F8980E44E0B0EE000B86EDC1
:1023B0005A0BB4F8E61D14293ED2B4F8F02D159945
:1023C0008A4239DBB0EE080B86ED5A0B139A824233
:1023D00032DBB1EE000B86ED5A0B1499B1F1004FD0
:1023E00002DC6FF0004100E0494200EE101AB4F840
:1023F000961E95ED1E1B401AB8EEC02B00EE100A7B
:10240000B8EEC00B20EE0A0B80EE013BB4EEC23BEF
:10241000F1EE10FA10D8002084F8BE0F4748A23819
:10242000FEF7B2FF0121A4F8981EB1EE040B642060
:1024300086ED5A0B84F8BD0F2A9800EE100AB4F806
:10244000E40DA4F8D40EB8EE400B94F8BD0FE8B339
:1024500084F8B10F95ED221B9FED393BB5EE002BB3
:10246000394821EE031B00EE021B11EE101A11EE8B
:10247000902A8DED001B8160C2601422B4F8980E82
:10248000A4F8D20E2D481D994C30FDF702FF94F8A8
:10249000B40F602286F8600094F8B50F86F86100EA
:1024A00094F8B60F86F86200244810996430FDF75E
:1024B000F0FE224840221199C430FDF7EAFE23487D
:1024C00040221299FDF7E5FE002000E031E004EB28
:1024D000800206EB8001401CD2F8802B0828C1F84E
:1024E0004421F2DBD4F8D00D4022C6F870011199D6
:1024F0002898FDF7CEFE109960222798FDF7C9FEB7
:10250000129940222698FDF7C4FE002004EB8001BA
:10251000401C0828D1F8802BC1F8802CF6DB0C4831
:1025200041684868401C48602BB0BDEC068BBDE894
:10253000F08F94F8B20F8BE7180400207814002075
:102540003FEB964F1E0DEE3F980C00207C150020AF
:102550006C9300087CB5FE4C002504F5805194F87E
:10256000B10F84F8A90F91ED040BBDEEC00B10EE76
:10257000100A012852D00228284658D02118401CA1
:102580000A2881F8FA5EF9DBF248811C831E021FDB
:10259000CDE90001811F5A3006F0DCF9B4F89A1E2B
:1025A000A1F5407005381AD0B1F5017F7CD0B1F5A6
:1025B000007F4FF6FF704FF4803272D0A1F5407368
:1025C000063B44D0A1F50073013B6BD0A1F5007030
:1025D000023868D0A1F50070033873D00CE19FED8C
:1025E000DE1BB4F89C0EA4F8120EB4F89E0EA4F8EC
:1025F000060EB4F8A00E00EE100AB8EE400B20EE66
:10260000010BBCEEC00B10EE100AA4F80A0E94F8F1
:10261000C20FFF2814D384F8C25FEDE00020231816
:102620000A5C401C0A2883F8FA2EF8DBACE70B188A
:102630002218401C1B7E0A2882F8FA3EF7DBA3E72B
:10264000401CFF2800DDFF2084F8C20FD4E09FED7E
:10265000C40BB4F89C0E01EE100AB8EE411B21EE3B
:10266000001BBCEEC11B11EE100AA4F8080EB4F852
:102670009E0E01EE100AB8EE411B21EE001BBCEECF
:10268000C11B11EE100AA4F80E0EB4F8A20EA4F8A5
:10269000100E94F8C30FFF2837D384F8C35F3AE0D5
:1026A00002E010E046E07CE094F8BF0FFF2802D380
:1026B00084F8BF5FA0E0401CFF2800DDFF2084F805
:1026C000BF0F99E090E0B4F8F61DB4F89C3EFF29E6
:1026D00002D3A4F8F65D05E0491C914200DB0146F7
:1026E000A4F8F61DA4F8F83D94F8A90F64280BD0BF
:1026F000322B03D0642B01D0C82B7DD1002006F0F3
:10270000A5FB002006F0B6FB76E0401CFF2800DDAC
:10271000FF2084F8C30FB4F8A00E01EE100AB8EE43
:10272000411B21EE000BBCEEC00B10EE100AA4F80A
:102730000C0E61E0B4F89C1EFF2900D9FF21CEB237
:1027400084F8C06FB4F8FE1DB4F89E3EFF2902D392
:10275000A4F8FE5D05E0491C914200DB0146A4F8A7
:10276000FE1D1E2EA4F8003E09D9002006F06EFBC7
:10277000002006F07FFB012084F8C10F01E084F8FF
:10278000C15FB4F8A00E08B3FF28A4F8A60E01D8C4
:10279000012800D0002084F8C40F7348FEF7FEFE25
:1027A0002AE0B4F89C0E012802D002280FD023E0C2
:1027B000B4F89E0E06F04AFBB4F8A00EA4F8AA0ED8
:1027C000B4F8FC0D0DE000BF84F8C05F14E0B4F86D
:1027D0009E0E06F04FFBB4F8A00EA4F8AA0EB4F8B3
:1027E000040E0028F0D007E0B4F89C0EA4F8A40E64
:1027F000B4F89E0EA4F8A80E94F8F80E58B9B4F8E0
:10280000060EA4F8780EB4F8080EA4F87A0EB4F800
:102810000A0EA4F87C0E94F8F11EB4F8F60DE9B394
:102820005FF0000104EB8101A1F83C0E94F8F11E69
:10283000B4F8F80D99B3002104EB8101A1F83E0E24
:1028400094F8F10E60B3002084F8F10E94F8BF0FF5
:1028500084F8C50F94F8F21EB4F8FA0DE9B300211C
:1028600004EB8101A1F8440E94F8F21EB4F8FC0DBB
:10287000A1B3002104EB8101A1F8460E94F8F20EF9
:1028800068B3002084F8F20E94F8C00F84F8C60FE5
:1028900094F8F31EB4F8FE0DF1B302E079E07AE0AB
:1028A0007CE0002104EB8101A1F84C0E94F8F31EAA
:1028B000B4F8000E89B3002104EB8101A1F84E0E9B
:1028C00094F8F30E50B3002084F8F30E94F8F40E4D
:1028D000B4F8021ED0B3002002E061E062E063E0E1
:1028E00004EB8000A0F8541E94F8F41EB4F8040E13
:1028F00069B3002104EB8101A1F8560E94F8F40E9F
:10290000A0B3002184F8F41E002094F8C11F84F8BD
:10291000C71F94F8C21F02E048E049E04AE084F88B
:10292000C81F94F8C31F84F8C91F00BF94F8F62E7F
:1029300004EB4001B1F8061E7AB30022C2EBC202DA
:102940000244401C072804EB420210E034E035E06A
:1029500018040020B8120020B728B3412619D93F27
:102960009A9999999999B93FDC13002028E0A2F827
:102970005C1EDBDB94F8F60E30B3002084F8F60E14
:10298000B4F8AA0EA4F8D80EB4F8AC0EA4F8DA0E77
:102990007CBD012146E701214EE713E0012053E70A
:1029A00001215DE7012165E701206BE7012179E75E
:1029B000012181E7012087E701208DE7012199E7C7
:1029C00001219FE70122B9E70120D7E72DE9F04F68
:1029D00046499BB00DF1040C91F9F03E002003EB49
:1029E000C303C41801EB8404D4F81C4D4CF82040F8
:1029F000401C0928F5DBB1F8D60E01231090B1F880
:102A0000A80E139091F8B10F1690B1F8920E129093
:102A1000B1F8A4AEB1F8F49DB1F8A67E81F8F83E05
:102A20000020B1F8786EB1F87A5EB1F87C3E81F89A
:102A3000F80E66F30F02B1F8D03D0BACB1F80CBE46
:102A400065F31F42B1F80E6E1FFA83F501EB4008E3
:102A50003CF82030A8F8143E24F81030401C092817
:102A6000F4DB4FEA1248109AA1F8262E139AA1F827
:102A7000282E169AA1F82A2E129AA1F82C2EA1F827
:102A80002EAEA1F8309EA1F8327EA1F8348EA1F8C6
:102A900036BEA1F8386EA1F83A5E15490091A1F54D
:102AA000947005F05BFA009806F032FA11480021A4
:102AB00034F8112020F81120491C0929F8DB10995D
:102AC0004182139981821699C18212990183A0F8DB
:102AD0001AA0A0F81C90C783A0F82080A0F822B00C
:102AE0008684C5841BB0BDE8F08F00001804002068
:102AF00054130020781400202DE9F041BD4901F560
:102B00004B702DED108BB2B006F026FC00209FED2F
:102B1000BA0BDFF8EC821AA908EB8002D2F8F83C75
:102B200001EBC002401C01EE103A0928B8EE411B2F
:102B300021EE001B82ED001BEEDBB24C00200CAA44
:102B400001EBC00504EBC00395ED002B93ED003BBA
:102B500093ED0E1B93ED1C0B32EE032B02EBC00525
:102B6000401C062802EE010B85ED000BE8DB9DED15
:102B70002A1B9FEDA52B9FEDA60B002031EE021B1B
:102B800005AC21EE000B8DED180B00BF02EBC00170
:102B900091ED000BBCEEC00B10EE101A44F82010A3
:102BA000401C0728F2DB964FB3EE092BB7EE000B63
:102BB0009FED994B9FED9A5B9FED9B6B9FED9C7BEF
:102BC0009DED269B9FED9CAB9FED9D8BB6EE00FB94
:102BD0009FED9D1B8DED2C1B9FED9D1B8DED021B15
:102BE0009FED9DCB9DED28DB9FED9DEB9FED9E1B0B
:102BF00007F5006789EE0ABB97ED243B1DEE0E1B1F
:102C000033EE422BB0EE403B02EE043BB0EE404BC5
:102C100002EE054BB0EE405B02EE065B02EE070BE8
:102C200083EE042B85EE003B9DED2C0B03EE082B71
:102C30003BEE4C3B22EE0F2B22EE004B9DED020BA8
:102C400022EE000B23EE048B21EE009BBCEEC80BA2
:102C5000FCEEC90B10EE101A01EB810110EE900A88
:102C60004E0000EB80004500814805F089F99DED9C
:102C7000140B8049002087ED240B00BF01EB80037B
:102C800054F82020401C06289A62F7DBC1E9106541
:102C90000B9A40468A6498F8F91E79B900EB8103D3
:102CA00054F82120C3F8AC2D491C0629F6DBC0F8E6
:102CB000C46DC0F8C85D0B99C0F8CC1D5FF0000171
:102CC00090F8F02E54F82130EAB3002202EBC20251
:102CD0000A44491C00EB82020629C2F81C3DEFDBC6
:102CE00090F8F01E81B3002101EBC10100EB8101DE
:102CF000C1F8346D90F8F01E39B3002101EBC10129
:102D000000EB8101C1F8385D90F8F02E0B99E2B329
:102D10005FF0000202EBC20200EB8202C2F83C1D2F
:102D200090F8F01E91B3002280F8F02E0021B0F848
:102D3000D02EA0F8D62E00BF54F8212090F8F53EF2
:102D40002BB3002302E03FE040E041E003EBC3038C
:102D50000B44491C00EB83030629C3F8642DEBDB0D
:102D600090F8F51E79B3002101EBC10100EB810160
:102D7000C1F87C6D90F8F51E81B3002101EBC10113
:102D800000EB8101C1F8805D02E023E024E026E051
:102D900090F8F52E0B9942B35FF0000202EBC202ED
:102DA00000EB8202C2F8841D90F8F51EF9B10021F3
:102DB00080F8F51E87ED268B87ED289B32B0BDECA1
:102DC000108BBDE8F0810CE001227FE701218BE749
:102DD000012193E701229DE70122A5E703E00123FA
:102DE000B0E70121C0E70121C8E70122D6E70121B0
:102DF000DEE7000010110020B4D934E70C684A3F28
:102E000018040020789300081F85EB51B81ED53FA9
:102E1000F0C1071F7CF042409AB1683A3B196C3F01
:102E2000B01BB62DCA6C703FDD41EC4CA1F36A3F7C
:102E3000ACA8C1340C1F713F0000000000607D4051
:102E40000AD7A3703D0AEF3FF5597F9FD323D040A7
:102E50000F727450FA16D0402F292982EB04293FB3
:102E600079734289066E613FAA689DDD69E8213F5A
:102E7000E812002078140020F8B57A4C012084F87C
:102E8000F90E002004EB8001D1F8AC2D401C09287C
:102E9000C1F8D42CF6DB002584F8F95EB4F8A80E4E
:102EA0000723A4F8820E94F8B10F84F8AA0FB4F89F
:102EB000920EA4F8840EB4F8A40EA4F8860EB4F80A
:102EC000F41DA4F8881EB4F8A61EA4F88A1EB4F84F
:102ED000D01EA4F88C1EB4F8981E634AA4F88E1E67
:102EE000B4F8946E02F1100104F6726405F018FF54
:102EF000A087E087608AA4F67264032801D2B4F840
:102F0000826E0E23584A3046203202F11E0105F02F
:102F100007FFA4F8B20E4FF4A061A4F8B41E4FF45A
:102F20004472A4F8B62E531CA4F8B83E961DA4F81B
:102F3000BA6ED71DA4F8BC7E94F8F90F642848D364
:102F4000B4F8E40CA4F8C60EB4F8E80C474EA4F8A4
:102F5000C80EB4F8E00CA6F15003A4F8CA0E9A1EED
:102F6000B4F8F40C911EA4F8CC0E881E04F54E643F
:102F7000009604F0DCFFA6F16200314605F08EFFFA
:102F8000D4E90310A4F54E64814202D9A4F8BE1E10
:102F900001E0A4F8BE0E354EB4F8D40CA4F8C00E6F
:102FA000083EB4F8D80CA6F15003A4F8C20E9A1E3D
:102FB000B4F8DC0C911EA4F8C40E881E009604F030
:102FC000B6FFA6F15800314605F068FF84F8F95FB6
:102FD00003E094F8FA0F0A281FD3244E244A10362F
:102FE0000096A6F1A803991E081D04F0A0FFA6F103
:102FF0007400314605F052FF083E0096A6F1980392
:1030000003F12602911E881E04F091FFA6F17000C4
:10301000314605F043FF84F8FA5F144D94F8AA0F87
:103020001835A4F8CE0EA5F1A60300951A1F911E1F
:1030300001F1460004F07BFFA5F17E00294605F072
:103040002DFF94F8FA0F401CFF2800DDFF2084F8C4
:10305000FA0F94F8F90F401CFF2800DDFF2084F8D8
:10306000F90FF8BD18040020209400083413002044
:103070006C9300084C49002010B586B06A4691F860
:1030800048308DF8003091F849308DF8013091F8D2
:103090004A308DF8023091F84B308DF803300C181F
:1030A0001318401C94F84C4010281C71F7DB104694
:1030B00006F0BEF83D4B002293F8F70EE8B300206F
:1030C00002EB820100EB800003EB810102EB800048
:1030D00000EB800091F8254603EB800080F87541F5
:1030E00091F8264680F8764191F8274680F8774196
:1030F00091F8284680F8784191F8294680F879417E
:1031000091F82A4680F87A4191F82B4680F87B4165
:1031100091F82C4680F87C4191F82D4680F87D414D
:1031200091F82E4680F87E4191F82F4680F87F4135
:1031300091F8304680F8804100E030E091F8314667
:1031400080F8814191F8324680F8824191F8334607
:1031500080F8834191F8344680F8844191F83546EF
:1031600080F8854191F8364680F8864191F83746D7
:1031700080F8874191F8381680F88811521C142A7B
:103180009ADB93F8F70E60B15FF0000083F8F70E5A
:10319000074890ED200B80ED2A0B06B010BD0120F2
:1031A0008EE70120F2E70000181400201804002028
:1031B000180C00202DE9FE4FAD4C012500222346BE
:1031C00003F57B6094F8DDCF03F26F1B00900327BB
:1031D000D3F8AC0C022693F8E3AF93F8DF9F411EBF
:1031E000EB07BCF1070F2AD2DFE80CF02904FE6BD5
:1031F000FED0FE00BAF1010FD4460BD0BCF1020F95
:1032000011D0BCF1030F1CD0BAF1040F17D1012863
:1032100038D0D3E0012879D184F8E52F84F8E32F62
:1032200084F8DD6FF2E0012870D184F8E37F00F0CC
:10323000BBF9C4F8AC0C00F095F9FEF7BFF9BDE896
:10324000FE8F012862D184F8E35F00F0ADF9C4F885
:10325000AC0C94F8B20F512894F8E50F07D201286E
:10326000EDD0002084F8E55FFEF7B4F803E0022813
:10327000E5D084F8E56F02A9009A01A85B4600F04A
:103280005DF9DCE784F8E42F84F8E36F00F08CF953
:10329000784AC4F8AC0C511E481E00F01BF994F893
:1032A000BA0F84F8B00FB4F8E80D1428C7D300BFE4
:1032B000FEF76CF9C3E7C4F8AC3CC0E7C4F8AC1C3B
:1032C000BDE7D4F8A01C0420022920D00029B6D1E3
:1032D000BAF1040F84F8DD5F05D084F8E30F00F045
:1032E00063F9C4F8AC0C94F8DB0F03283DD0042834
:1032F00049D000BF94F8B20F462844D894F8E40FA0
:1033000001289CD0462084F8E45F39E056E0B4F808
:10331000F01D052901D3082991D1052284F8DD2F5C
:10332000B9F1040F0BD084F8DF0F00F03DF95249DA
:10333000884201DD481C00E0401CC4F8AC0C94F845
:10334000DB0F03280AD194F8B20F502806D894F85E
:10335000E20F022895D084F8E26F10E094F8E20FB3
:1033600001288ED084F8E25FA2E794F8B20F5028CB
:10337000C0D894F8E40F03289CD084F8E47F502050
:10338000FEF728F85BE784F8E46F58E7B9F1010F1E
:10339000CC460BD0BCF1020F14D0BCF1030F38D0D7
:1033A000B9F1040F86D101283ED007E0012805D1EC
:1033B00084F8DF2F062084F8DD0F27E098423FF7DE
:1033C0007DAF78E70128F9D184F8E12F84F8DF7F19
:1033D00000F0EAF8C4F8AC0C94F8DB0F03280FD126
:1033E00094F8B20F502800E03FE009D894F8E00FBD
:1033F0000228C7D0002084F8E06FFDF7EBFF05E05E
:1034000094F8E00F0128BDD084F8E05F00F0AAF83E
:1034100015E70128D2D184F8E02F84F8DF5F00F0AF
:10342000C3F8C4F8AC0C26E784F8E22F84F8DF6F09
:1034300000F0BAF8C4F8AC0C94F8DB0F0F4F032877
:1034400094F8E10F06D001289CD084F8E15FFEF7E4
:10345000B5F803E0022895D084F8E16F02A9009A3C
:1034600001A83B4600F08CF8E9E684F8DD7FE6E64B
:1034700018040020D2130020FEFFFF7F8A050020E1
:1034800010B5002303700B70012414700421084C44
:103490001A46204601F0EAF900222046082101F0F0
:1034A000E5F901222046BDE81040022101F0DEB915
:1034B0000010024008B5684600F002F808BD0000A0
:1034C0000021017002480A46022101F0CFB9000034
:1034D0000010024010B50024047001230B7013701B
:1034E0002246084C0421204601F0C0F90122204662
:1034F000082101F0BBF901222046BDE8104002215D
:1035000001F0B4B90010024010B50123037000248B
:103510000C70094C042113701A46204601F0A6F9DC
:1035200000222046082101F0A1F901222046BDE831
:103530001040022101F09AB9001002402DE9F0413B
:103540001C4615469A1C0E46591C07462046FFF796
:1035500097FFA07828702078387060783070BDE8C8
:10356000F0810000044810B5FFF7AAFF034890F867
:10357000BB1F80F8B01F10BDD3130020180400201B
:103580002DE9F0411C4615469A1C0E46591C07466B
:103590002046FFF7B9FFA07828702078387060784F
:1035A0003070BDE8F08100002A49084691F8DF2F0D
:1035B00090F8DB0F042A10D0022A16D0032A2FD04D
:1035C000012A35D091F8E30F042839D002283AD0E7
:1035D00003283BD0D1F85C097047032802D0D1F80A
:1035E00070097047D1F88009704703280FD0B1F8EF
:1035F000F02D012A0ED01748022AD0F86409F3D022
:10360000032A0AD0042AEFD1D1F86C097047D1F807
:103610007C097047D1F860097047D1F86809704794
:10362000032802D0D1F874097047D1F838097047DF
:10363000032802D0D1F878097047D1F83C097047C7
:10364000D1F854097047D1F850097047D1F858099A
:10365000704700001804002070470000F8B50025EE
:10366000009590F83C20012A18D0012280F83C20D7
:103670000A6807234E4C0668092A1AD90A3A02EB4F
:103680004207F268BB409A43F2600E680268A642A5
:1036900006D10B7AD66846EA036308E00220F8BD3B
:1036A0000A3E8B68D76806EB4606B3403B43D360BF
:1036B0000EE002EB42073269BB409A433261036875
:1036C0000E788A681F6906EB4606B2403A431A61D3
:1036D0004A681F23072A13D20668521E02EB82078C
:1036E000726BBB409A43726303680E790A88761E38
:1036F0005F6B92B206EB8606B2403A435A6327E00C
:1037000006680D2A12D2D21F02EB8207326BBB4031
:103710009A43326302680E790B88F61F176B9BB2CF
:1037200006EB8606B3403B43136311E00D3A02EB10
:103730008207F26ABB409A43F26202680E790B88F4
:103740000D3ED76A9BB206EB8606B3403B43D3627D
:10375000184A0368934208D10B68122B05D1D2F89E
:10376000043343F48003C2F80433036893421AD14C
:103770000B68A34201D0112B15D1D2F8043343F4C6
:103780000003C2F804330968A1420CD10A490B4A6C
:103790000968B1FBF2F101EB8101490000E0491E2B
:1037A00000910029FBD180F83C500020F8BD0000BA
:1037B00012000010002001404800002040420F008D
:1037C00000680349884201D1FFF796B970470000AD
:1037D000002001407047704770B5044600680168DA
:1037E0004268C1F34001C2F3401251B34AB3216CA5
:1037F000C90603D4216C41F400712164816811F081
:10380000405F17D1A169A9B9C16A11F4700F02D044
:10381000816849050ED4416821F020014160206C87
:1038200020F480702064206CC00403D4206C40F02D
:10383000010020642046FFF7C3FF21686FF01200EB
:103840000860206801684268C1F38001C2F3C012B9
:1038500089B382B3216CC90603D4216C41F40051B1
:103860002164816811F4401F1ED1816B11F4401F47
:1038700002D08168490517D44168490514D481688C
:1038800011F0405F10D1A16971B9416821F0800148
:103890004160206C20F480502064206CC00503D46B
:1038A000206C40F0010020642046FFF7D5FE21681F
:1038B0006FF00C00086020680168436811F0010F88
:1038C000C3F380110ED069B10068C0070AD0206C24
:1038D00040F480302064204600F046F821686FF004
:1038E00001000860206801684268C1F340110029A6
:1038F000C2F380620DD0002A0BD0616C6FF02005FE
:1039000041F00201616405602046FFF764FF206812
:10391000056070BD70B504004FF0000503D0206C49
:10392000002610B107E0012070BD204600F01EF80F
:10393000666484F83C60206CC00610D4206C20F4CF
:10394000885040F0020020642046FDF777F9666455
:10395000206C20F0020040F00100206400E001250E
:1039600084F83C60284670BD70470000F0B587B011
:10397000064614216846FCF7A5FC304930688842A9
:1039800059D12F48016841F48071016000682C49C9
:1039900000F4807005901439086840F00400086055
:1039A000086800F004000590086840F00100086015
:1039B000086800F001000590086840F00200086007
:1039C000086803240025694600F0020005901320D2
:1039D0008DE831001B4800F051FEF02069468DE86B
:1039E0003100194800F04AFE009469461748CDE9B5
:1039F000014500F043FE164C16480115C4E90005C8
:103A00008715A5600B01C4E9035182142046C4E95F
:103A100007756562C4E9052300F06EFD08B1FDF786
:103A2000FBFDB46300220421A663122001F094F987
:103A3000122001F083F907B0F0BD00000020014022
:103A400044380240000802400000024000040240E6
:103A5000E800002010640240F8B50D46044600213D
:103A6000009190F83C00012807D0012084F83C0028
:103A700020688368DB0702D011E00220F8BD866869
:103A8000364B46F00106866035480068B0FBF3F01F
:103A900000EB400000E0401E00900028FBD12068B1
:103AA0008368DB0758D0236C40F20166B34343F4CC
:103AB000807323644068400505D5206C20F40050D5
:103AC00040F480502064206CC00404D5606C20F069
:103AD0000600606400E061646FF0220084F83C102E
:103AE000A36B2049D963A36B1F491964A36B1F49BA
:103AF000D964216808602068416841F080614160B4
:103B00002068816841F48071816021681346A06B50
:103B10002A464C3100F062FD1549D1F80403C00675
:103B2000206811D0884207D1826812F0405F03D12B
:103B3000826842F080428260D1F80403C0060BD450
:103B40000C492068884207D1816811F0405F03D199
:103B5000816841F0804181600020F8BD40420F0043
:103B600048000020A30B0008270C0008110C0008D7
:103B7000002001400022014090F82020012A07D0B7
:103B8000022A05D0416A41F4802141620120704738
:103B9000006842690A43426100207047F0B590F81E
:103BA00020500468A468012D05D0022D03D0416A7D
:103BB00041F480215AE014F0406F01D1E50052D564
:103BC000C4F30164022C03D9416A41F400014DE0C1
:103BD00001264FF4C075A6401E608B68ABB1CE685D
:103BE0004F68D0F800C0334305EB041643EAC7031F
:103BF0004CF8063007684FF4C27303EB04130E69E8
:103C0000FE50097D012909D00DE00E88CB680768B8
:103C100043EA465305EB0416BB51EBE70168CE5867
:103C200046F48076CE50D2F805304FF4C67C117938
:103C30000CEB041C06684FF4C47741EA032107EB40
:103C4000041346F80C10167805EB0411D2F8012085
:103C5000076846EA0222FA500068425842F0010220
:103C600042500020F0BD416A41F400114162012040
:103C7000F0BD000030B590F820300268012B07D06D
:103C8000022B05D0416A41F480214162012030BD00
:103C90003E4C3F48A24200D00246D2F80032824257
:103CA00043F00103C2F800320CD1D2F8000220F434
:103CB0007C50C2F80002D2F800024B6A40EA0320AE
:103CC000C2F800020C7D0120D2F81C3204F01F045F
:103CD000A0408343C2F81C32CB69B3B9D2F80C328E
:103CE0008343C2F80C328C894B684D6964F31F43DF
:103CF00002EBC504C4F840320C890B684D6964F3CB
:103D00001F4302EBC504C4F84432CB69012B16D122
:103D1000D2F80C320343C2F80C320C884B684D6960
:103D200064F31F4302EBC504C4F840320C89CB682E
:103D30004D6964F31F4302EBC504C4F844328B6938
:103D4000002BD2F804320FD053EA0003C2F8043239
:103D50000B69002BD2F8143208D00343C2F8143296
:103D6000096A012904D008E08343EFE78343F5E7BC
:103D7000D2F81C120143C2F81C12D2F8000220F043
:103D80000100C2F80002002030BD000000340040F5
:103D90000064004070470000F0B590F82040012C0E
:103DA00005D0022C03D0416A41F4802166E004680A
:103DB00000295ED02469A4075DD005684FF4D8744B
:103DC00004EB01142D5915F00405956005682D5973
:103DD00057D0ED08C2F8045007684FF4DA754FF475
:103DE000DC7C4FF4DE763C59002905EB0115C4F369
:103DF0004007D7600CEB011406EB011106687659F9
:103E000006F00F06166106687659C6F30726966116
:103E1000066875594FEA15455561026812591A70BE
:103E2000026812594FEA12225A70026812594FEA78
:103E300012429A70026812594FEA1262DA700268EE
:103E400052581A71026852584FEA12225A71026887
:103E500052584FEA12429A71026851584FEA116162
:103E6000D971006810D0016941F020010161002082
:103E7000F0BDE4689FE7416A41F40011416201200E
:103E8000F0BD6D0D1560A7E7C16841F02001C1606C
:103E9000EDE72DE9F05F0546006800244669D0F89B
:103EA00004908768D0F80CB0D0F810A0F207D0F8D2
:103EB000188048D0F90714D001218160BA0703D5D2
:103EC000284600F030FA0CE0780702D54FF4006481
:103ED00007E0380702D54FF4805402E0284600F08E
:103EE00021FAF80516D52868BA054FF4807181606B
:103EF00003D5284600F019FA0CE0780502D544F401
:103F0000005407E0380502D544F4804402E0284616
:103F100000F00AFAF80316D52868BA034FF4803186
:103F2000816003D5284600F002FA0CE0780302D540
:103F300044F4004407E0380302D544F4803402E03E
:103F4000284600F0F3F9300707D55FEACB6004D5C7
:103F50002968102044F40074C86070074FF0080707
:103F600007D55FEA0B7004D52868C760284600F0C3
:103F700075F9B00706D52868C068800702D02846C2
:103F800000F06EF9700607D55FEACA6004D52968AB
:103F9000102044F480640861B00607D55FEA0A7017
:103FA00004D528680761284600F08CF9F00606D58C
:103FB00028680069800702D0284600F084F9B00321
:103FC00008D55FEAC96005D52968102048602846F1
:103FD00000F07AF9F00307D55FEA097004D5286884
:103FE0004760284600F0A4F9300446D55FEA4970DE
:103FF00040D5F00504D55FEAC87001D044F0010453
:10400000B00504D55FEA887001D544F0020470055C
:1040100004D55FEA487001D544F00404300529D581
:1040200018F0700F26D008F07000402815D006DC7C
:10403000102809D020280AD0302816D10AE05028AC
:104040000ED0602811D10EE044F008040DE044F0D9
:1040500010040AE044F0200407E044F0400404E0C7
:1040600044F0800401E044F480742868816921F000
:1040700070018161296804204860002C05D0686ABD
:10408000204368622846FFF785FEBDE8F09F70B5C3
:10409000040003D094F8200010B104E0012070BDAA
:1040A000204600F081F82068016821F002010160DB
:1040B00000F0E2FB0526054604E000F0DDFB401BB6
:1040C0000A2811D8206840688007F6D42068016863
:1040D00041F00101016000F0CFFB05460BE000F06C
:1040E000CBFB401B0A2806D9606A40F400306062AE
:1040F00084F82060D2E720684068C007EFD0207EB7
:104100000128206801683DD021F080010160607EB7
:1041100001282068016838D021F040010160A07EAC
:1041200001282068016833D021F020010160E07E81
:104130000128206801682ED041F010010160207F25
:1041400001282068016829D021F008010160607F02
:1041500001282068016824D021F004010160D4E91D
:104160000110D4E903326569491E184323682A43C4
:10417000104300220843D8610121626284F82010B4
:10418000104670BD41F08001C0E741F04001C5E735
:1041900041F02001CAE721F01001CFE741F008010A
:1041A000D4E741F00401D9E710B586B004461421E4
:1041B0006846FCF787F826492068884246D125489A
:1041C000016841F400510160016801F4005105915A
:1041D000016841F080610160016801F08061059132
:1041E000016841F000710160006800F00070059006
:1041F00018481038016841F002010160006802218E
:10420000002200F002000590032309244FF44050DF
:104210008DE81F001048694600F030FA00220121A5
:104220003F2000F099FD3F2000F088FD0022022190
:10423000402000F091FD402000F080FD002202218E
:10424000412000F089FD412000F078FD06B010BD4E
:1042500000680040403802400004024070470000FF
:10426000154A0021134B02F1340010B5FFF794FDFD
:10427000114812490088020A0A760E4A487602203E
:1042800014180B18401C14F8024C0A281C76F7DB93
:1042900091ED040BB0EE001BB4EE410BF1EE10FA01
:1042A00001D1FEF757F9BDE8104005484FF4806191
:1042B00000F0D5BA00000020700100201814002082
:1042C000000C0240704770477047000070B504460C
:1042D00090F82000012804D0606A40F40020606259
:1042E00018E0022084F820002068016821F0010114
:1042F000016000F0C1FA05460EE000BF00F0BCFA14
:10430000401B0A2808D9616A052041F40031616226
:1043100084F82000012070BD20684068C007EDD1FE
:10432000606270BD70477047704770477047704754
:10433000704790F83510022903D080214165012093
:104340007047052180F835100068016821F00101EF
:1043500001600020704700002DE9F84304464FF04B
:104360000009644B0820CDF800904FF41652A56D5B
:1043700094F85C101B682E68B3FBF2F700FA01F1A9
:1043800031420FD021680A6852070BD50A6822F023
:1043900004020A6094F85C108840A860606D40F0E8
:1043A0000100606594F85C104FF0010808FA01F014
:1043B000304208D021684969090604D5A860606DBB
:1043C00040F00200606594F85C10042088403042A0
:1043D00008D021680968890704D5A860606D40F09D
:1043E0000400606594F85C1010208840304218D0BA
:1043F00021680968090714D5A86020680168490385
:1044000004D50068000308D5A16C07E00168C90560
:1044100003D4016821F008010160216C09B1204634
:10442000884794F85C1020208840304231D02168C1
:104430000968C9062DD5A86094F8350005282068BC
:10444000016806D0490347D5006800031DD4616C9C
:104450001CE021F0160101602068416921F0800113
:104460004161206C08B9A06C20B12068016821F07E
:104470000801016094F85C303F229A40AA6084F8F9
:10448000349084F83580216D1FE0E16B09B120463E
:104490008847606D00282BD0606DC00714D00520C0
:1044A00084F835002068016821F00101016000985E
:1044B000401C0090B84203D820680068C007F6D1BD
:1044C00084F8349084F83580E16C002910D001B074
:1044D0002046BDE8F04308470168C905D5D4036804
:1044E00023F01003036084F8349084F83580CCE71F
:1044F000BDE8F883480000202DE9F047044600F0AD
:10450000BBF9054664B14FF0000984F834900221EC
:1045100084F835102068016821F0010101600EE087
:104520000120BDE8F08700BF00F0A6F9401B052878
:1045300005D920216165032084F83500F1E7206862
:104540000068C007F0D1D4E90020D4E90251D4E9D1
:10455000043C284304F1180519430843116895E801
:10456000E00140EA0C001C4B2843194040EA0600D9
:1045700040EA0700B8F1040F40EA010003D1D4E992
:104580000B1319430843106020680126656A4069CF
:10459000042D20F0070045EA00050CD1D4E90A01FA
:1045A000054341B12046FCF747FF20B1402060653C
:1045B00084F83560B4E7206845612046FCF728FFA1
:1045C00094F85C303F229A408260C4F8549084F89A
:1045D00035600020A5E700003F8010E02DE9F041A4
:1045E000044690F8340000250128A66D0ED094F8FA
:1045F00035C00127002084F83470BCF1010F07D0CA
:10460000022584F834002846BDE8F0810220FBE74B
:10461000022784F8357060652046FCF737FF94F870
:104620005C103F208840B0602068016841F01601AE
:1046300001602068416941F080014161206C20B136
:104640002068016841F0080101602068016841F0BC
:1046500001010160D7E7000070B5044600F00CF9D5
:104660000546601C02D004480078044400F004F9B8
:10467000401BA042FAD370BD3C0000202DE9F84F4A
:10468000DFF89CE100224FF001084FF0030B4FF0E0
:104690000F0A00BF0B6808FA02F42340A34271D14D
:1046A0004D68022D01D0122D0FD1D5080E69570784
:1046B00000EB8505A9462D6AFF0E0AFA07FCBE40ED
:1046C00025EA0C052E43C9F820600F7955000668CD
:1046D0000BFA05FC07F0030726EA0C06AF40374348
:1046E00007604E68012E05D0022E03D0112E01D096
:1046F000122E0ED18668CF6826EA0C06AF403743EB
:10470000876046680F79A643C7F300179740374381
:104710004760C4688E6824EA0C04AE402643C66035
:104720004C68E40075D53F4C256845F4804525600C
:10473000246822F00306950704F4804400943A4C60
:104740002D0F2644D6F80848DFF8E0C00AFA05F72E
:10475000604524EA070401D100272EE0344FB84217
:1047600001D1012729E0334FB84201D1022724E0CB
:10477000314FB84201D103271FE0304FB84202D178
:1047800004271AE045E02E4FB84201D1052714E076
:104790002C4FB84201D106270FE02B4FB84201D170
:1047A00007270AE0294FB84201D1082705E0284F22
:1047B000B84201D1092700E00A27AF4027437546D8
:1047C000C6F808784E68DEF80040F60324EA0304D1
:1047D00000D51C43124E2C60361D4D683468AD0365
:1047E00024EA030400D51C430D4F346008374D689C
:1047F0003C68ED0224EA030400D51C43084D3C60EC
:104800000C354E682C68B60224EA030400D51C431C
:104810002C60521C102AFFF43DAFBDE8F88F000059
:10482000003C01404438024000300140000002409A
:104830000004024000080240000C02400010024048
:104840000014024000180240001C024000200240F8
:10485000002402400069084000D0012070474269EE
:1048600031EA020200D10904816170470AB1816115
:1048700070470904FBE700000148806870470000AA
:104880003C00002030B590F84120202A24D190F837
:104890004020012A20D0012380F84030242280F8D3
:1048A0004120202300240268156825F001051560C9
:1048B0000268156825F480551560026815680D4377
:1048C000156001680A6842F001020A6080F8413010
:1048D00080F84040002030BD022030BD30B590F857
:1048E0004120202A22D190F84020012A1ED0012305
:1048F00080F84030242280F84120202400250268DE
:10490000136823F0010313600268136823F47063D3
:1049100043EA0121116001680A6842F001020A605D
:1049200080F8414080F84050002030BD022030BD6A
:10493000704770470268436B91691268002B00D082
:10494000184770477047000070B5040004D094F811
:104950004100002510B106E0012070BD204684F81A
:10496000405000F063F9242084F841002068016879
:1049700021F001010160D4E9001020F070600861AD
:104980002068816821F400418160E0682168012885
:10499000A06806D040F404408860E068022803D094
:1049A00006E040F40040F7E721684FF400604860FB
:1049B00020212068114A4368134343602068C2687D
:1049C00022F40042C26054F8106B0DCC104340EA50
:1049D0000320F06054F81C3CD4E900021043186036
:1049E00054F81C0D026842F001020260656484F80C
:1049F0004110256384F84250002070BD0080000201
:104A00007047704770477047704700002DE9FF4FAF
:104A100083B0044690F841009A469346DDE910873A
:104A2000DDF84890202874D15FEA080014D09FB1C7
:104A300094F8400001286CD0012084F84000FFF772
:104A40001BFF0122064619230090D103204602F0E5
:104A500067FA002871D103E04FF4007060646CE0E5
:104A60000025C4F82480222184F84110402084F8D5
:104A7000420065646785534665635A46049920463B
:104A8000CDE9009602F0D0F810B184F8405054E01F
:104A9000618DFF2734484FF08078FF294FF0007A6E
:104AA00004D927853A464346009005E0618D534678
:104AB0002185009094F828202046049902F01AFAE3
:104AC00000224B4604212046009602F029FAA0BBA2
:104AD0002068616A406A0870606A401C6062208DCC
:104AE000401E81B22185608D401E6085608DD8B1E9
:104AF000D1B900224B4680212046009602F010FAE0
:104B0000D8B9608DFF2805D927853A4643460095D8
:104B100006E026E0608D53462085009594F8282015
:104B20002046049902F0E6F9608D0028C8D132468B
:104B30004946204602F021FA18B1012007B0BDE82D
:104B4000F08F21682020094AC86121684B68134012
:104B50004B6084F8410084F84250002084F84050B3
:104B6000ECE70220EAE700000024008000E800FEF5
:104B70002DE9FC47044690F8410098469146DDE94E
:104B80000A758A4620284BD11FB315B32068806967
:104B9000C043000444D594F84000012840D00120CF
:104BA00084F840002434FFF767FE00262122627754
:104BB00040211C4A2760A1772662E580A260E28836
:104BC00019492161243CFF2A07D9FF214FF0807544
:104BD00006E04FF4007060640FE0618D4FF00075E7
:104BE00021851921CDE9001043464A465146204609
:104BF00002F04CF820B184F840600120BDE8FC8749
:104C000000962B4694F828205146204602F072F96F
:104C10000121204684F8406001F058FC0020EDE7B7
:104C20000220EBE70000FFFF016B000810B586B023
:104C3000044614216846FBF745FB16492068884264
:104C400025D11548016841F0020101600068122178
:104C5000012200F002000590C020032304248DE807
:104C60001F000E486946FFF709FD0B481030016828
:104C700041F40011016000680022052100F40010D9
:104C800005901F2000F068F81F2000F057F806B0CC
:104C900010BD0000005400403038024000040240C3
:104CA00070477047024881680278114481607047FC
:104CB0003C000020032010B500F06EF8002000F04A
:104CC00005F800F023F8002010BD000070B50D4D70
:104CD00004464FF47A700C4A29781268B0FBF1F060
:104CE000B2FBF0F000F0C2FD48B9102C07D2002250
:104CF0002146501E00F030F800206C6070BD01208D
:104D000070BD00003C000020480000200A4808B5A3
:104D1000016841F080510160006800F0805000900F
:104D20000548001D016841F480410160006800F4FD
:104D30008040009008BD000040380240002809DB98
:104D4000410900F01F028900012001F1E02190409B
:104D5000C1F80001704700000E4BF0B41B680D460F
:104D6000C3F30223C3F10706042E00D90426191D3C
:104D7000072901D2002300E0DB1E012404FA06F11A
:104D80009C40491E2940641E994014402143F0BCB8
:104D900003F0F4BD0CED00E0064900F0070210B589
:104DA0004FF6FF040868044B204040EA02201843F5
:104DB000086010BD0CED00E00000FA051848F8B5D9
:104DC000016841F0805101600068164C00F080508D
:104DD0000090206840F480302060FFF74DFD4FF4D4
:104DE0007A76054605E000BFFFF746FD401BB0425E
:104DF0000FD86068C003F7D5206840F40030206009
:104E0000FFF73AFD054606E0FFF736FD401BB042CE
:104E100001D90320F8BD60688003F5D50020F8BDF6
:104E200040380240007000402DE9F84F04460078F9
:104E3000DFF824944FF000063746C0070ED0D9F8AB
:104E4000001021F40001C9F80010D9F80010626BBD
:104E50001143C9F80010606B00B90126FE4D2068AF
:104E6000843500030ED5E16B286820F44010084318
:104E70002860E06BB0F5801F01D010B102E0012680
:104E800000E0012720684FF4800BC0020CD5216C94
:104E9000286820F4400008432860206C584501D160
:104EA000012601E000B901272068C10100D50126D3
:104EB000800666D5E8483830016841F080510160CD
:104EC0000068DFF898A300F080500090DAF8001036
:104ED00041F48071CAF80010FFF7CEFC804605E06F
:104EE000FFF7CAFCA0EB080064287DD8DAF80000C0
:104EF000C005F5D5DFF8608308F16808D8F8000030
:104F000010F440702AD0218E01F44071814225D0E6
:104F1000D8F80010D8F8002021F4407142F4803213
:104F2000C8F80020D8F8002022F48032C8F8002009
:104F3000C8F80010D8F80000C0070FD0FFF79CFC9D
:104F4000824607E0FFF798FCA0EB0A0141F28830A7
:104F50008142CAD8D8F800008007F3D5206BC0F38F
:104F6000012103297ED0D9F8001021F4F811C9F8E5
:104F70000010228ED8F80010C2F30B021143C8F8BB
:104F800000102078C00607D5286820F080702860BF
:104F90002868A16B084328602188AF4888304904FD
:104FA00005D5626E016821F440311143016021880A
:104FB000090405D5A26E016821F440211143016066
:104FC0002168C90305D5E26E016821F4401111433F
:104FD00001602168890305D5226F016821F4400131
:104FE00011430160217800E034E1490605D5626C87
:104FF000016821F00301114301602178090605D5FC
:10500000A26C016821F00C01114301602188C905DF
:1050100005D5E26C016821F030011143016021885F
:10502000890505D5226D016821F0C0011143016099
:105030002188490505D5626D016821F4407111434D
:1050400001602188090505D5A26D016821F4406140
:10505000114301602188C90407D5E26D016821F47C
:10506000405100E05FE0114301602188890405D5CB
:10507000226E016821F44041114301602168490218
:1050800005D5A26F016821F080611143016021689C
:105090004FF0006A890209D5E26F016821F00061D2
:1050A00011430160E16F514500D1012721680A07D2
:1050B00000D50127490305D5626F016821F04071D1
:1050C000114301602168090206D5D4F880200168E7
:1050D00021F08051114301602168490106D5D4F8BF
:1050E0008420016821F00051114301602068000113
:1050F00006D5D4F88810286820F00070084328608E
:105100002068C00006D5D4F88C10286820F0806094
:1051100008432860DFF84891012E0ED02068B0F1D6
:10512000007F0AD08FE04F4AD9F80030104023F4B6
:10513000F8120243C9F800201BE7D9F800004E46D8
:1051400020F08060C9F80000FFF796FB804605E07C
:10515000FFF792FBA0EB080064287BD830680001C1
:10516000F6D421783C487C30C90712D0616B81B9F4
:10517000237A62680168D0F800C09201C1F301414E
:1051800042EA0142CCF3036142EA016141EA037160
:10519000016021680A0303D5E26BB2F5801F04D0D9
:1051A000C9021AD5216C594517D16368016894F872
:1051B0000CC002689B01C1F3014143EA0141C2F303
:1051C000027241EA0C6141EA027101602968626A77
:1051D00021F01F01521E114329602168C90110D519
:1051E000238A62680168D0F800C09201C1F30361AC
:1051F00042EA034242EA0162CCF3027142EA0171DF
:105200000160216889010CD56168228A237B94F8AA
:1052100008C0890141EA024141EA036141EA0C7197
:1052200001603168B04641F080613160FFF724FBD6
:10523000064604E0FFF720FB801B64280AD8D8F854
:1052400000000001F6D5E7B3D9F800004E4620F083
:10525000805009E07BE00000083802400070004008
:1052600000380240FFFCFF0FC9F80000FFF704FB05
:10527000074604E0FFF700FBC01B642867D83068CE
:10528000C0438000F6D5216835480A0301D5E26B9A
:105290001AB1C9021DD5216CD9B963690168277E8D
:1052A00002689B01C1F3014143EA0143C2F3027169
:1052B00043EA076242EA0171016029686FF0FF0367
:1052C00000E04BE0A26A21F4F85103EB0222114303
:1052D00029602168890212D5E16F51450FD1238CD5
:1052E0006269016807689201C1F3036142EA0342FF
:1052F00042EA0162C7F3027142EA0171016021785A
:10530000090716D561690268D0F800C08B01277FB4
:10531000C2F30362CCF3014143EA014141EA026175
:1053200041EA077101602868E16A20F440300843CF
:105330002860306840F080503060FFF79DFA0446E6
:1053400008E000BFFFF798FA001B642802D9032089
:10535000BDE8F88F3068C0438000F3D40020F7E741
:10536000883802402DE9F04705000F4663D0444ECF
:10537000306800F00F00B84209D2306820F00F000A
:1053800038433060306800F00F00B84253D12868CD
:105390003C4C810712D5400703D5206840F4E0500B
:1053A00020602878000703D5206840F46040206022
:1053B000A968206820F0F000084320602878C00722
:1053C0002AD0304968680839012810D009680228B5
:1053D00010D0890700292EDA216821F0030101434A
:1053E0002160FFF749FA804641F288390DE00968EB
:1053F0008903EFE78901EDE7FFF73EFAA0EB08012B
:10540000494502D90320BDE8F0876868216801F0AA
:105410000C01B1EB800FEFD1306800F00F00B84203
:105420000BD9306820F00F0038433060306800F04E
:105430000F00B84201D00120E5E72878400705D5E4
:10544000E968206820F4E0500843206028780007CD
:1054500006D52869216821F4604141EAC000206036
:1054600000F036F82168084AC1F30311515CC840C6
:10547000064908600020FFF729FC0020C3E7000070
:10548000003C024008380240889400084800002090
:105490000449054809680068044AC1F38221515C47
:1054A000C84070470838024048000020989400081F
:1054B0000449054809680068044AC1F34231515C57
:1054C000C8407047083802404800002098940008FF
:1054D000154910B51548096811F00C0213D0411098
:1054E000042A0FD0082A0ED10F4C241F22682368EB
:1054F00002F03F025B0207D52068C0F38810A0FBD2
:10550000010106E0084610BD2168C1F38811A1FB26
:1055100000010023FAF78CFE2168C1F30141491C08
:105520004900B0FBF1F010BD083802400024F4003F
:105530002DE9F84F05004FF000076ED02878DFF80E
:105540002093A9F1040AC007AAF104044CD0D9F8A9
:1055500000104846C1F38101012908D00068C0F35A
:10556000810002280AD1DAF80000400206D520683E
:10557000800339D568680028DFD035E06868B0F569
:10558000803F0BD010B1B0F5A02F11D0206820F4CF
:1055900080302060206820F4802002E0206840F401
:1055A00080302060686890B1FFF766F906460AE02F
:1055B000206840F480202060F0E700BFFFF75CF92E
:1055C000801B642872D820688003F7D50CE0FFF7B1
:1055D00053F9064605E000BFFFF74EF9801B64282B
:1055E000F0D820688003F7D42878800742D5D9F80E
:1055F0000010484611F00C0F08D00068C0F381007D
:1056000002280BD1DAF80000400207D42068800796
:1056100018D5E868012800D114E01EE1E8680028E8
:10562000206817D040F001002060FFF725F90646FA
:1056300005E000BFFFF720F9801B0228C2D82068D0
:105640008007F7D52869216821F0F80141EAC000F8
:1056500020600FE020F001002060FFF70DF9064602
:1056600005E000BFFFF708F9801B02281ED820685C
:105670008007F7D42878000729D5794869696C3004
:1056800000298046016812D041F001010160FFF756
:10569000F3F8064605E000BFFFF7EEF8801B02288E
:1056A00004D8D8F800008007F6D510E089E021F092
:1056B00001010160FFF7E0F8064604E0FFF7DCF8BF
:1056C000801B02287DD8D8F800008007F6D42878FF
:1056D00040076BD5DFF8888108F13808D8F800005A
:1056E000C0000BD4D8F8001041F08051C8F8001069
:1056F000D8F80000012700F0805000905948016858
:10570000C90512D40168834641F480710160FFF736
:10571000B3F8064605E000BFFFF7AEF8801B64282B
:105720004FD8DBF80000C005F6D54D4EA8686836A6
:1057300001280AD008B1052811D0306820F00100F6
:105740003060306820F0040002E0306840F0010072
:105750003060A868A0B1FFF78FF883460CE030688E
:1057600040F004003060F0E7FFF786F8A0EB0B0193
:1057700041F28830814268D830688007F4D50EE065
:10578000FFF77AF8834607E0FFF776F8A0EB0B0106
:1057900041F28830814258D830688007F4D42FB164
:1057A000D8F8001021F08051C8F80010A869E0B3C3
:1057B000D9F80010C1F3810102294ED002282068D7
:1057C00000E042E020F08070206003D0FFF754F842
:1057D00005463DE0FFF750F8064604E0FFF74CF8B9
:1057E000801B022831D820688001F7D4D5E909212F
:1057F000DFF874C0D5E9070695F830304F0895F802
:105800002C1030430CEB074545EA8212104340EA66
:10581000016040EA0370CAF80000206840F0807020
:105820002060FFF729F8054605E014E0FFF724F8AB
:10583000401B022809D820688001F7D50BE000BF83
:10584000FFF71AF8401B022802D90320BDE8F88FA1
:1058500020688001F4D40020F8E70120F6E700007A
:1058600008380240007000400000FFFF401EB0F109
:10587000807F10B501D3012010BD4FF0E02460619E
:105880000F21601703F07AF80020A0610721216141
:1058900010BD7047704770472DE9F04390F83C20E9
:1058A000012A42D0012280F83C2051F80C4BDFF84D
:1058B00080804FF0000991E8680051E9022723F445
:1058C0004073B1F80CC03B43CF6923F480631343AA
:1058D000026823F40063234323F4805343EA05035F
:1058E00023F4005343EA060323F4804343EA070307
:1058F0000C3923F47023424543EA0C4302D00D4C8B
:10590000A2420CD18D8C23F47006D1E9073446EA0B
:10591000055121F08071194321F000732343536432
:1059200080F83C900020BDE8F0830220FBE70000F7
:10593000000001400004014070B590F83C20012AAD
:1059400024D0134C012580F83C50022280F83D20E1
:1059500002685368A242966802D00E4CA24203D15C
:105960004C6823F4700323430C6823F070038968A8
:105970001C435460002326F0800602683143916086
:1059800080F83D5080F83C30184670BD022070BD54
:10599000000001400004014010B5040003D094F859
:1059A0003D0010B107E0012010BD002084F83C004C
:1059B000204600F00DF8022084F83D002068211DEB
:1059C00002F080FB012084F83D00002010BD0000A3
:1059D00008B500680B49884212D10B48016841F0B4
:1059E0001001016000680022032100F01000009007
:1059F0003620FFF7B1F9BDE808403620FFF79EB921
:105A000008BD000000100040403802400168094A0B
:105A1000CB6843F00103CB6001688868104006281A
:105A200006D0B0F5803F03D0086840F00100086060
:105A30000020704707000100704770B504460068F9
:105A400000250169C943890715D4C168C94389077D
:105A500011D4EA1E02610121217720688069800744
:105A6000204602D0FFF7E8FF04E000F034F92046BA
:105A700000F026FA257720680169C943490717D441
:105A8000C168C943490713D402216FF004020261BF
:105A900021772068806910F4407F204602D0FFF70C
:105AA000CBFF04E000F017F9204600F009FA257753
:105AB00020680169C943090716D4C168C9430907A9
:105AC00012D404216FF00802026121772068C069B6
:105AD0008007204602D0FFF7AFFF04E000F0FBF89C
